{
  "contractName": "StakingContract",
  "abi": [
    {
      "inputs": [
        {
          "internalType": "uint256",
          "name": "_cooldownPeriodInSec",
          "type": "uint256"
        },
        {
          "internalType": "address",
          "name": "_migrationManager",
          "type": "address"
        },
        {
          "internalType": "address",
          "name": "_emergencyManager",
          "type": "address"
        },
        {
          "internalType": "contract IERC20",
          "name": "_token",
          "type": "address"
        }
      ],
      "payable": false,
      "stateMutability": "nonpayable",
      "type": "constructor"
    },
    {
      "anonymous": false,
      "inputs": [
        {
          "indexed": true,
          "internalType": "address",
          "name": "stakeOwner",
          "type": "address"
        },
        {
          "indexed": false,
          "internalType": "uint256",
          "name": "amount",
          "type": "uint256"
        },
        {
          "indexed": false,
          "internalType": "uint256",
          "name": "totalStakedAmount",
          "type": "uint256"
        }
      ],
      "name": "AcceptedMigration",
      "type": "event"
    },
    {
      "anonymous": false,
      "inputs": [
        {
          "indexed": true,
          "internalType": "address",
          "name": "emergencyManager",
          "type": "address"
        }
      ],
      "name": "EmergencyManagerUpdated",
      "type": "event"
    },
    {
      "anonymous": false,
      "inputs": [
        {
          "indexed": true,
          "internalType": "address",
          "name": "stakeOwner",
          "type": "address"
        },
        {
          "indexed": false,
          "internalType": "uint256",
          "name": "amount",
          "type": "uint256"
        },
        {
          "indexed": false,
          "internalType": "uint256",
          "name": "totalStakedAmount",
          "type": "uint256"
        }
      ],
      "name": "MigratedStake",
      "type": "event"
    },
    {
      "anonymous": false,
      "inputs": [
        {
          "indexed": true,
          "internalType": "contract IMigratableStakingContract",
          "name": "stakingContract",
          "type": "address"
        }
      ],
      "name": "MigrationDestinationAdded",
      "type": "event"
    },
    {
      "anonymous": false,
      "inputs": [
        {
          "indexed": true,
          "internalType": "contract IMigratableStakingContract",
          "name": "stakingContract",
          "type": "address"
        }
      ],
      "name": "MigrationDestinationRemoved",
      "type": "event"
    },
    {
      "anonymous": false,
      "inputs": [
        {
          "indexed": true,
          "internalType": "address",
          "name": "migrationManager",
          "type": "address"
        }
      ],
      "name": "MigrationManagerUpdated",
      "type": "event"
    },
    {
      "anonymous": false,
      "inputs": [],
      "name": "ReleasedAllStakes",
      "type": "event"
    },
    {
      "anonymous": false,
      "inputs": [
        {
          "indexed": true,
          "internalType": "address",
          "name": "stakeOwner",
          "type": "address"
        },
        {
          "indexed": false,
          "internalType": "uint256",
          "name": "amount",
          "type": "uint256"
        },
        {
          "indexed": false,
          "internalType": "uint256",
          "name": "totalStakedAmount",
          "type": "uint256"
        }
      ],
      "name": "Restaked",
      "type": "event"
    },
    {
      "anonymous": false,
      "inputs": [
        {
          "indexed": true,
          "internalType": "contract IStakeChangeNotifier",
          "name": "notifier",
          "type": "address"
        }
      ],
      "name": "StakeChangeNotifierUpdated",
      "type": "event"
    },
    {
      "anonymous": false,
      "inputs": [
        {
          "indexed": true,
          "internalType": "address",
          "name": "stakeOwner",
          "type": "address"
        },
        {
          "indexed": false,
          "internalType": "uint256",
          "name": "amount",
          "type": "uint256"
        },
        {
          "indexed": false,
          "internalType": "uint256",
          "name": "totalStakedAmount",
          "type": "uint256"
        }
      ],
      "name": "Staked",
      "type": "event"
    },
    {
      "anonymous": false,
      "inputs": [],
      "name": "StoppedAcceptingNewStake",
      "type": "event"
    },
    {
      "anonymous": false,
      "inputs": [
        {
          "indexed": true,
          "internalType": "address",
          "name": "stakeOwner",
          "type": "address"
        },
        {
          "indexed": false,
          "internalType": "uint256",
          "name": "amount",
          "type": "uint256"
        },
        {
          "indexed": false,
          "internalType": "uint256",
          "name": "totalStakedAmount",
          "type": "uint256"
        }
      ],
      "name": "Unstaked",
      "type": "event"
    },
    {
      "anonymous": false,
      "inputs": [
        {
          "indexed": true,
          "internalType": "address",
          "name": "stakeOwner",
          "type": "address"
        },
        {
          "indexed": false,
          "internalType": "uint256",
          "name": "amount",
          "type": "uint256"
        },
        {
          "indexed": false,
          "internalType": "uint256",
          "name": "totalStakedAmount",
          "type": "uint256"
        }
      ],
      "name": "Withdrew",
      "type": "event"
    },
    {
      "constant": true,
      "inputs": [],
      "name": "MAX_APPROVED_STAKING_CONTRACTS",
      "outputs": [
        {
          "internalType": "uint256",
          "name": "",
          "type": "uint256"
        }
      ],
      "payable": false,
      "stateMutability": "view",
      "type": "function"
    },
    {
      "constant": true,
      "inputs": [],
      "name": "VERSION",
      "outputs": [
        {
          "internalType": "uint256",
          "name": "",
          "type": "uint256"
        }
      ],
      "payable": false,
      "stateMutability": "view",
      "type": "function"
    },
    {
      "constant": true,
      "inputs": [],
      "name": "acceptingNewStakes",
      "outputs": [
        {
          "internalType": "bool",
          "name": "",
          "type": "bool"
        }
      ],
      "payable": false,
      "stateMutability": "view",
      "type": "function"
    },
    {
      "constant": true,
      "inputs": [
        {
          "internalType": "uint256",
          "name": "",
          "type": "uint256"
        }
      ],
      "name": "approvedStakingContracts",
      "outputs": [
        {
          "internalType": "contract IMigratableStakingContract",
          "name": "",
          "type": "address"
        }
      ],
      "payable": false,
      "stateMutability": "view",
      "type": "function"
    },
    {
      "constant": true,
      "inputs": [],
      "name": "cooldownPeriodInSec",
      "outputs": [
        {
          "internalType": "uint256",
          "name": "",
          "type": "uint256"
        }
      ],
      "payable": false,
      "stateMutability": "view",
      "type": "function"
    },
    {
      "constant": true,
      "inputs": [],
      "name": "emergencyManager",
      "outputs": [
        {
          "internalType": "address",
          "name": "",
          "type": "address"
        }
      ],
      "payable": false,
      "stateMutability": "view",
      "type": "function"
    },
    {
      "constant": true,
      "inputs": [],
      "name": "migrationManager",
      "outputs": [
        {
          "internalType": "address",
          "name": "",
          "type": "address"
        }
      ],
      "payable": false,
      "stateMutability": "view",
      "type": "function"
    },
    {
      "constant": true,
      "inputs": [],
      "name": "notifier",
      "outputs": [
        {
          "internalType": "contract IStakeChangeNotifier",
          "name": "",
          "type": "address"
        }
      ],
      "payable": false,
      "stateMutability": "view",
      "type": "function"
    },
    {
      "constant": true,
      "inputs": [],
      "name": "releasingAllStakes",
      "outputs": [
        {
          "internalType": "bool",
          "name": "",
          "type": "bool"
        }
      ],
      "payable": false,
      "stateMutability": "view",
      "type": "function"
    },
    {
      "constant": false,
      "inputs": [
        {
          "internalType": "address",
          "name": "_newMigrationManager",
          "type": "address"
        }
      ],
      "name": "setMigrationManager",
      "outputs": [],
      "payable": false,
      "stateMutability": "nonpayable",
      "type": "function"
    },
    {
      "constant": false,
      "inputs": [
        {
          "internalType": "address",
          "name": "_newEmergencyManager",
          "type": "address"
        }
      ],
      "name": "setEmergencyManager",
      "outputs": [],
      "payable": false,
      "stateMutability": "nonpayable",
      "type": "function"
    },
    {
      "constant": false,
      "inputs": [
        {
          "internalType": "contract IStakeChangeNotifier",
          "name": "_newNotifier",
          "type": "address"
        }
      ],
      "name": "setStakeChangeNotifier",
      "outputs": [],
      "payable": false,
      "stateMutability": "nonpayable",
      "type": "function"
    },
    {
      "constant": false,
      "inputs": [
        {
          "internalType": "contract IMigratableStakingContract",
          "name": "_newStakingContract",
          "type": "address"
        }
      ],
      "name": "addMigrationDestination",
      "outputs": [],
      "payable": false,
      "stateMutability": "nonpayable",
      "type": "function"
    },
    {
      "constant": false,
      "inputs": [
        {
          "internalType": "contract IMigratableStakingContract",
          "name": "_stakingContract",
          "type": "address"
        }
      ],
      "name": "removeMigrationDestination",
      "outputs": [],
      "payable": false,
      "stateMutability": "nonpayable",
      "type": "function"
    },
    {
      "constant": false,
      "inputs": [
        {
          "internalType": "uint256",
          "name": "_amount",
          "type": "uint256"
        }
      ],
      "name": "unstake",
      "outputs": [],
      "payable": false,
      "stateMutability": "nonpayable",
      "type": "function"
    },
    {
      "constant": false,
      "inputs": [],
      "name": "restake",
      "outputs": [],
      "payable": false,
      "stateMutability": "nonpayable",
      "type": "function"
    },
    {
      "constant": false,
      "inputs": [
        {
          "internalType": "address",
          "name": "_stakeOwner",
          "type": "address"
        },
        {
          "internalType": "uint256",
          "name": "_amount",
          "type": "uint256"
        }
      ],
      "name": "acceptMigration",
      "outputs": [],
      "payable": false,
      "stateMutability": "nonpayable",
      "type": "function"
    },
    {
      "constant": false,
      "inputs": [
        {
          "internalType": "contract IMigratableStakingContract",
          "name": "_newStakingContract",
          "type": "address"
        },
        {
          "internalType": "uint256",
          "name": "_amount",
          "type": "uint256"
        }
      ],
      "name": "migrateStakedTokens",
      "outputs": [],
      "payable": false,
      "stateMutability": "nonpayable",
      "type": "function"
    },
    {
      "constant": false,
      "inputs": [
        {
          "internalType": "uint256",
          "name": "_totalAmount",
          "type": "uint256"
        },
        {
          "internalType": "address[]",
          "name": "_stakeOwners",
          "type": "address[]"
        },
        {
          "internalType": "uint256[]",
          "name": "_amounts",
          "type": "uint256[]"
        }
      ],
      "name": "distributeRewards",
      "outputs": [],
      "payable": false,
      "stateMutability": "nonpayable",
      "type": "function"
    },
    {
      "constant": true,
      "inputs": [
        {
          "internalType": "address",
          "name": "_stakeOwner",
          "type": "address"
        }
      ],
      "name": "getStakeBalanceOf",
      "outputs": [
        {
          "internalType": "uint256",
          "name": "",
          "type": "uint256"
        }
      ],
      "payable": false,
      "stateMutability": "view",
      "type": "function"
    },
    {
      "constant": true,
      "inputs": [],
      "name": "getTotalStakedTokens",
      "outputs": [
        {
          "internalType": "uint256",
          "name": "",
          "type": "uint256"
        }
      ],
      "payable": false,
      "stateMutability": "view",
      "type": "function"
    },
    {
      "constant": true,
      "inputs": [
        {
          "internalType": "address",
          "name": "_stakeOwner",
          "type": "address"
        }
      ],
      "name": "getUnstakeStatus",
      "outputs": [
        {
          "internalType": "uint256",
          "name": "cooldownAmount",
          "type": "uint256"
        },
        {
          "internalType": "uint256",
          "name": "cooldownEndTime",
          "type": "uint256"
        }
      ],
      "payable": false,
      "stateMutability": "view",
      "type": "function"
    },
    {
      "constant": true,
      "inputs": [],
      "name": "getToken",
      "outputs": [
        {
          "internalType": "contract IERC20",
          "name": "",
          "type": "address"
        }
      ],
      "payable": false,
      "stateMutability": "view",
      "type": "function"
    },
    {
      "constant": false,
      "inputs": [],
      "name": "stopAcceptingNewStakes",
      "outputs": [],
      "payable": false,
      "stateMutability": "nonpayable",
      "type": "function"
    },
    {
      "constant": false,
      "inputs": [],
      "name": "releaseAllStakes",
      "outputs": [],
      "payable": false,
      "stateMutability": "nonpayable",
      "type": "function"
    },
    {
      "constant": false,
      "inputs": [
        {
          "internalType": "address[]",
          "name": "_stakeOwners",
          "type": "address[]"
        }
      ],
      "name": "withdrawReleasedStakes",
      "outputs": [],
      "payable": false,
      "stateMutability": "nonpayable",
      "type": "function"
    },
    {
      "constant": true,
      "inputs": [
        {
          "internalType": "contract IMigratableStakingContract",
          "name": "_stakingContract",
          "type": "address"
        }
      ],
      "name": "isApprovedStakingContract",
      "outputs": [
        {
          "internalType": "bool",
          "name": "exists",
          "type": "bool"
        }
      ],
      "payable": false,
      "stateMutability": "view",
      "type": "function"
    },
    {
      "constant": false,
      "inputs": [
        {
          "internalType": "uint256",
          "name": "_amount",
          "type": "uint256"
        }
      ],
      "name": "stake",
      "outputs": [],
      "payable": false,
      "stateMutability": "nonpayable",
      "type": "function"
    },
    {
      "constant": false,
      "inputs": [],
      "name": "withdraw",
      "outputs": [],
      "payable": false,
      "stateMutability": "nonpayable",
      "type": "function"
    }
  ],
  "bytecode": "0x60806040526007805460ff60a81b1960ff60a01b19909116600160a01b171690553480156200002d57600080fd5b506040516200335f3803806200335f833981810160405260808110156200005357600080fd5b508051602082015160408301516060909301519192909183620000a85760405162461bcd60e51b815260040180806020018281038252603e815260200180620032b3603e913960400191505060405180910390fd5b6001600160a01b038316620000ef5760405162461bcd60e51b8152600401808060200182810382526037815260200180620033286037913960400191505060405180910390fd5b6001600160a01b038216620001365760405162461bcd60e51b8152600401808060200182810382526037815260200180620032f16037913960400191505060405180910390fd5b6001600160a01b0381166200017d5760405162461bcd60e51b8152600401808060200182810382526030815260200180620032836030913960400191505060405180910390fd5b600293909355600380546001600160a01b03199081166001600160a01b03948516179091556004805482169284169290921790915560078054909116919092161790556130b380620001d06000396000f3fe608060405234801561001057600080fd5b50600436106101cf5760003560e01c8063826cc8fc11610104578063bb82dd17116100a2578063df3f2f8a11610071578063df3f2f8a14610557578063e9aea8c814610583578063fa5b7c70146105a9578063ffa1ad74146105b1576101cf565b8063bb82dd17146104dd578063cced4f2014610503578063d0532d9114610529578063d2c18f591461054f576101cf565b80639db3c9ee116100de5780639db3c9ee146103fe578063a53acf6114610424578063a694fc3a14610450578063b5bab0151461046d576101cf565b8063826cc8fc146103c85780638cfc430e146103d057806396690c9e146103f6576101cf565b80633ccfd60b1161017157806351d185981161014b57806351d185981461034857806353a5b1bb146103505780636ef9abeb1461038f5780636fb974bc146103ac576101cf565b80633ccfd60b146103305780634b5d1f8b146103385780634f91440d14610340576101cf565b806319d6a88d116101ad57806319d6a88d1461022857806320fc287d146102f157806321df0da71461030b5780632e17de7814610313576101cf565b8063025cf89f146101d457806309276ea4146101fc578063187ac4cb14610220575b600080fd5b6101fa600480360360208110156101ea57600080fd5b50356001600160a01b03166105b9565b005b6102046106de565b604080516001600160a01b039092168252519081900360200190f35b6102046106ed565b6101fa6004803603606081101561023e57600080fd5b8135919081019060408101602082013564010000000081111561026057600080fd5b82018360208201111561027257600080fd5b8035906020019184602083028401116401000000008311171561029457600080fd5b9193909290916020810190356401000000008111156102b257600080fd5b8201836020820111156102c457600080fd5b803590602001918460208302840111640100000000831117156102e657600080fd5b5090925090506106fc565b6102f9610bb2565b60408051918252519081900360200190f35b610204610bb8565b6101fa6004803603602081101561032957600080fd5b5035610bc7565b6101fa610d58565b6102f9610de1565b6101fa610de6565b6102f9610f26565b6103766004803603602081101561036657600080fd5b50356001600160a01b0316610f2c565b6040805192835260208301919091528051918290030190f35b610204600480360360208110156103a557600080fd5b5035610f78565b6103b4610f9f565b604080519115158252519081900360200190f35b6101fa610faf565b6101fa600480360360208110156103e657600080fd5b50356001600160a01b031661108e565b6101fa611234565b6103b46004803603602081101561041457600080fd5b50356001600160a01b0316611304565b6101fa6004803603604081101561043a57600080fd5b506001600160a01b038135169060200135611316565b6101fa6004803603602081101561046657600080fd5b50356113dd565b6101fa6004803603602081101561048357600080fd5b81019060208101813564010000000081111561049e57600080fd5b8201836020820111156104b057600080fd5b803590602001918460208302840111640100000000831117156104d257600080fd5b5090925090506114a0565b6101fa600480360360208110156104f357600080fd5b50356001600160a01b03166116a9565b6101fa6004803603602081101561051957600080fd5b50356001600160a01b0316611873565b6101fa6004803603602081101561053f57600080fd5b50356001600160a01b0316611959565b610204611a7e565b6101fa6004803603604081101561056d57600080fd5b506001600160a01b038135169060200135611a8d565b6102f96004803603602081101561059957600080fd5b50356001600160a01b0316611e52565b6103b4611e6d565b6102f9611e7d565b6003546001600160a01b031633146106025760405162461bcd60e51b81526004018080602001828103825260348152602001806126cd6034913960400191505060405180910390fd5b6001600160a01b0381166106475760405162461bcd60e51b815260040180806020018281038252603c815260200180612e93603c913960400191505060405180910390fd5b6003546001600160a01b03828116911614156106945760405162461bcd60e51b8152600401808060200182810382526059815260200180612ff76059913960600191505060405180910390fd5b600380546001600160a01b0319166001600160a01b0383169081179091556040517fe06b7cc06400e2218f11a21ba24cb110fd587a695a09f36d42c4f7b21566937f90600090a250565b6006546001600160a01b031681565b6003546001600160a01b031681565b600754600160a01b900460ff16801561071f5750600754600160a81b900460ff16155b61075a5760405162461bcd60e51b8152600401808060200182810382526029815260200180612c076029913960400191505060405180910390fd5b600085116107995760405162461bcd60e51b8152600401808060200182810382526048815260200180612d286048913960600191505060405180910390fd5b828181158015906107aa5750600081115b6107e55760405162461bcd60e51b8152600401808060200182810382526039815260200180612f206039913960400191505060405180910390fd5b8082146108235760405162461bcd60e51b8152600401808060200182810382526043815260200180612d706043913960600191505060405180910390fd5b600754604080516323b872dd60e01b8152336004820152306024820152604481018a905290516001600160a01b03909216916323b872dd916064808201926020929091908290030181600087803b15801561087d57600080fd5b505af1158015610891573d6000803e3d6000fd5b505050506040513d60208110156108a757600080fd5b50516108e45760405162461bcd60e51b815260040180806020018281038252603b81526020018061283f603b913960400191505060405180910390fd5b606081604051908082528060200260200182016040528015610910578160200160208202803883390190505b50905060608260405190808252806020026020018201604052801561093f578160200160208202803883390190505b5090506000805b85811015610ae35760008a8a8381811061095c57fe5b905060200201356001600160a01b03169050600089898481811061097c57fe5b60200291909101359150506001600160a01b0382166109cc5760405162461bcd60e51b815260040180806020018281038252603b815260200180612735603b913960400191505060405180910390fd5b60008111610a0b5760405162461bcd60e51b8152600401808060200182810382526042815260200180612b256042913960600191505060405180910390fd5b6001600160a01b03821660009081526020819052604090208054610a35908363ffffffff611e8216565b8155610a47858363ffffffff611e8216565b94506000816000015490506001888681518110610a6057fe5b60200260200101901515908115158152505080878681518110610a7f57fe5b602002602001018181525050836001600160a01b03167f1449c6dd7851abc30abf37f57715f492010519147cc2652fbc38202c18a6ee908483604051808381526020018281526020019250505060405180910390a250505050806001019050610946565b50808a14610b225760405162461bcd60e51b815260040180806020018281038252603b815260200180612df3603b913960400191505060405180910390fd5b600154610b35908b63ffffffff611e8216565b600155604080516020808b0282810182019093528a8252610ba6928c918c91829185019084908082843760009201919091525050604080516020808d0282810182019093528c82529093508c92508b918291850190849080828437600092019190915250889250879150611edc9050565b50505050505050505050565b60025481565b6007546001600160a01b031690565b60008111610c065760405162461bcd60e51b8152600401808060200182810382526038815260200180612aed6038913960400191505060405180910390fd5b33600081815260208190526040902080546001820154600283015482861115610c605760405162461bcd60e51b8152600401808060200182810382526044815260200180612ce46044913960600191505060405180910390fd5b811580610c6c57504281115b610ca75760405162461bcd60e51b81526004018080602001828103825260558152602001806129226055913960600191505060405180910390fd5b610cb7838763ffffffff61206c16565b8455610cc9828763ffffffff611e8216565b6001850155600254610ce290429063ffffffff611e8216565b6002850155600154610cfa908763ffffffff61206c16565b6001558354604080518881526020810183905281516001600160a01b038916927f7fc4727e062e336010f2c282598ef5f14facb3de68cf8195c2f23e1454b2b74e928290030190a2610d4f86886000846120ae565b50505050505050565b33610d616126ab565b610d6a82612123565b8051602080830151604080519384529183015280519293506001600160a01b038516927fadec52fcd1408589179b85e44b434374db078b4eaf793e7d1a1bb0ae4ecfeee59281900390910190a26040810151610dc7575050610ddf565b610ddc828260400151600084602001516120ae565b50505b565b600a81565b600754600160a01b900460ff168015610e095750600754600160a81b900460ff16155b610e445760405162461bcd60e51b8152600401808060200182810382526029815260200180612c076029913960400191505060405180910390fd5b336000818152602081905260409020600181015480610e945760405162461bcd60e51b815260040180806020018281038252602d815260200180612a4b602d913960400191505060405180910390fd5b8154610ea6908263ffffffff611e8216565b825560006001808401829055600284019190915554610ecb908263ffffffff611e8216565b6001558154604080518381526020810183905281516001600160a01b038716927fa217c421e0e9357b7b1815d752952b142ddc0e23f9f14ecb8233f8f83d563c4d928290030190a2610f2084836001846120ae565b50505050565b60015490565b600080610f376126ab565b5050506001600160a01b0316600090815260208181526040918290208251606081018452815481526001820154928101839052600290910154920182905291565b60058181548110610f8557fe5b6000918252602090912001546001600160a01b0316905081565b600754600160a01b900460ff1681565b6004546001600160a01b03163314610ff85760405162461bcd60e51b81526004018080602001828103825260348152602001806127016034913960400191505060405180910390fd5b600754600160a01b900460ff16801561101b5750600754600160a81b900460ff16155b6110565760405162461bcd60e51b8152600401808060200182810382526029815260200180612c076029913960400191505060405180910390fd5b6007805460ff60a01b191690556040517fbdbd7b3d2870b142b863f835ac06bf8aa59717f4295c2d0f4d9636fb4e5bb41890600090a1565b6003546001600160a01b031633146110d75760405162461bcd60e51b81526004018080602001828103825260348152602001806126cd6034913960400191505060405180910390fd5b6001600160a01b03811661111c5760405162461bcd60e51b8152600401808060200182810382526043815260200180612a786043913960600191505060405180910390fd5b60008061112883612391565b91509150806111685760405162461bcd60e51b815260040180806020018281038252604c8152602001806127f3604c913960600191505060405180910390fd5b60058054600019810190811061117a57fe5b600091825260209091200154600580546001600160a01b0390921691849081106111a057fe5b9060005260206000200160006101000a8154816001600160a01b0302191690836001600160a01b0316021790555060058054806111d957fe5b600082815260208120820160001990810180546001600160a01b03191690559091019091556040516001600160a01b038516917f8510e225439ac2e1e619dffc86503855de99ded73d69499cadb36719ab7ac35491a2505050565b6004546001600160a01b0316331461127d5760405162461bcd60e51b81526004018080602001828103825260348152602001806127016034913960400191505060405180910390fd5b600754600160a81b900460ff16156112c65760405162461bcd60e51b8152600401808060200182810382526025815260200180612f886025913960400191505060405180910390fd5b6007805460ff60a81b1916600160a81b1790556040517f44562777dd33a811a41558cd3e94176385d383dfbef2e7daf1f568fb2a3a50b490600090a1565b600061130f82612391565b9392505050565b600754600160a01b900460ff1680156113395750600754600160a81b900460ff16155b6113745760405162461bcd60e51b8152600401808060200182810382526029815260200180612c076029913960400191505060405180910390fd5b600061138083836123f4565b9050826001600160a01b03167f81db9529cc03da6115de53b27832a9a0dde26bd573e99f76b23960f6be62b0c98383604051808381526020018281526020019250505060405180910390a26113d883836001846120ae565b505050565b600754600160a01b900460ff1680156114005750600754600160a81b900460ff16155b61143b5760405162461bcd60e51b8152600401808060200182810382526029815260200180612c076029913960400191505060405180910390fd5b33600061144882846123f4565b9050816001600160a01b03167f1449c6dd7851abc30abf37f57715f492010519147cc2652fbc38202c18a6ee908483604051808381526020018281526020019250505060405180910390a26113d882846001846120ae565b600754600160a81b900460ff166114e85760405162461bcd60e51b81526004018080602001828103825260298152602001806128f96029913960400191505060405180910390fd5b6040805182815260208084028201019091528190606090828015611516578160200160208202803883390190505b509050606082604051908082528060200260200182016040528015611545578160200160208202803883390190505b509050606083604051908082528060200260200182016040528015611574578160200160208202803883390190505b50905060005b8481101561165f57600087878381811061159057fe5b905060200201356001600160a01b031690506115aa6126ab565b6115b382612123565b905080604001518684815181106115c657fe5b60200260200101818152505060008584815181106115e057fe5b911515602092830291909101820152810151845185908590811061160057fe5b602090810291909101810191909152815182820151604080519283529282015281516001600160a01b038516927fadec52fcd1408589179b85e44b434374db078b4eaf793e7d1a1bb0ae4ecfeee5928290030190a2505060010161157a565b506116a1868680806020026020016040519081016040528093929190818152602001838360200280828437600092019190915250879250869150859050611edc565b505050505050565b6003546001600160a01b031633146116f25760405162461bcd60e51b81526004018080602001828103825260348152602001806126cd6034913960400191505060405180910390fd5b6001600160a01b0381166117375760405162461bcd60e51b8152600401808060200182810382526040815260200180612c306040913960400191505060405180910390fd5b600554600a60018201111561177d5760405162461bcd60e51b815260040180806020018281038252604b8152602001806127a8604b913960600191505060405180910390fd5b60005b818110156117f957826001600160a01b03166005828154811061179f57fe5b6000918252602090912001546001600160a01b031614156117f15760405162461bcd60e51b8152600401808060200182810382526051815260200180612ecf6051913960600191505060405180910390fd5b600101611780565b506005805460018101825560009182527f036b6384b5eca791c62761152d0c79bb0604c104a5fb6f4eb0703f3154bb3db00180546001600160a01b0319166001600160a01b03851690811790915560405190917fc580726bc117ebe54aaf7f71f680c52208316d7dafdd4e165a4e402c032bbc6091a25050565b6003546001600160a01b031633146118bc5760405162461bcd60e51b81526004018080602001828103825260348152602001806126cd6034913960400191505060405180910390fd5b6006546001600160a01b03828116911614156119095760405162461bcd60e51b815260040180806020018281038252605c815260200180612b67605c913960600191505060405180910390fd5b600680546001600160a01b0319166001600160a01b0383811691909117918290556040519116907fbf46e3bdb5dd635a9a0d027fbb3c05e2b2f0e7c28a99fc6cd4bf5a7e3413d3be90600090a250565b6004546001600160a01b031633146119a25760405162461bcd60e51b81526004018080602001828103825260348152602001806127016034913960400191505060405180910390fd5b6001600160a01b0381166119e75760405162461bcd60e51b815260040180806020018281038252603c815260200180612c70603c913960400191505060405180910390fd5b6004546001600160a01b0382811691161415611a345760405162461bcd60e51b81526004018080602001828103825260598152602001806129f26059913960600191505060405180910390fd5b600480546001600160a01b0319166001600160a01b0383169081179091556040517fabe3ea374ec13aa47e312b4ed42fb5e9d47324c0d167dc4836aa048b8e5279ae90600090a250565b6004546001600160a01b031681565b600754600160a81b900460ff1615611ad65760405162461bcd60e51b8152600401808060200182810382526025815260200180612f886025913960400191505060405180910390fd5b611adf82611304565b611b1a5760405162461bcd60e51b815260040180806020018281038252604c8152602001806128ad604c913960600191505060405180910390fd5b60008111611b595760405162461bcd60e51b8152600401808060200182810382526044815260200180612bc36044913960600191505060405180910390fd5b336000818152602081905260409020805480611ba65760405162461bcd60e51b8152600401808060200182810382526037815260200180612e5c6037913960400191505060405180910390fd5b80841115611be55760405162461bcd60e51b815260040180806020018281038252604a815260200180612fad604a913960600191505060405180910390fd5b611bf5818563ffffffff61206c16565b8255600154611c0a908563ffffffff61206c16565b600155600754604080516321df0da760e01b815290516001600160a01b03928316928816916321df0da7916004808301926020929190829003018186803b158015611c5457600080fd5b505afa158015611c68573d6000803e3d6000fd5b505050506040513d6020811015611c7e57600080fd5b50516001600160a01b031614611cc55760405162461bcd60e51b81526004018080602001828103825260458152602001806129ad6045913960600191505060405180910390fd5b6007546040805163095ea7b360e01b81526001600160a01b038881166004830152602482018890529151919092169163095ea7b39160448083019260209291908290030181600087803b158015611d1b57600080fd5b505af1158015611d2f573d6000803e3d6000fd5b505050506040513d6020811015611d4557600080fd5b5051611d825760405162461bcd60e51b8152600401808060200182810382526040815260200180612db36040913960400191505060405180910390fd5b815460408051868152602081019290925280516001600160a01b038616927f9571cc7fab3ada3041abcbb4d26ead1cf5757f940f1096da3713584afc4b75cb92908290030190a2846001600160a01b031663a53acf6184866040518363ffffffff1660e01b815260040180836001600160a01b03166001600160a01b0316815260200182815260200192505050600060405180830381600087803b158015611e2957600080fd5b505af1158015611e3d573d6000803e3d6000fd5b50505050611e4b8385612589565b5050505050565b6001600160a01b031660009081526020819052604090205490565b600754600160a81b900460ff1681565b600181565b60008282018381101561130f576040805162461bcd60e51b815260206004820152601b60248201527f536166654d6174683a206164646974696f6e206f766572666c6f770000000000604482015290519081900360640190fd5b611ee4612603565b611eed57610f20565b6006546040516390ef9d3f60e01b81526080600482019081528651608483015286516001600160a01b03909316926390ef9d3f92889288928892889291829160248101916044820191606481019160a4909101906020808c01910280838360005b83811015611f66578181015183820152602001611f4e565b50505050905001858103845288818151815260200191508051906020019060200280838360005b83811015611fa5578181015183820152602001611f8d565b50505050905001858103835287818151815260200191508051906020019060200280838360005b83811015611fe4578181015183820152602001611fcc565b50505050905001858103825286818151815260200191508051906020019060200280838360005b8381101561202357818101518382015260200161200b565b5050505090500198505050505050505050600060405180830381600087803b15801561204e57600080fd5b505af1158015612062573d6000803e3d6000fd5b5050505050505050565b600061130f83836040518060400160405280601e81526020017f536166654d6174683a207375627472616374696f6e206f766572666c6f770000815250612614565b6120b6612603565b6120bf57610f20565b60065460408051630e3b7c9560e01b81526001600160a01b0387811660048301526024820187905285151560448301526064820185905291519190921691630e3b7c9591608480830192600092919082900301818387803b15801561204e57600080fd5b61212b6126ab565b6001600160a01b0382166121705760405162461bcd60e51b8152600401808060200182810382526032815260200180612abb6032913960400191505060405180910390fd5b6001600160a01b03821660009081526020818152604080832080549285019290925260018201548452830191909152600754600160a81b900460ff166122355781516121ed5760405162461bcd60e51b815260040180806020018281038252602e815260200180612e2e602e913960400191505060405180910390fd5b42816002015411156122305760405162461bcd60e51b8152600401808060200182810382526038815260200180612cac6038913960400191505060405180910390fd5b6122b9565b6020820151825161224b9163ffffffff611e8216565b808352602083015160408401526122935760405162461bcd60e51b81526004018080602001828103825260388152602001806127706038913960400191505060405180910390fd5b6000815560208201516001546122ae9163ffffffff61206c16565b600155600060208301525b6000600182018190556002820181905560075483516040805163a9059cbb60e01b81526001600160a01b03888116600483015260248201939093529051919092169263a9059cbb92604480820193602093909283900390910190829087803b15801561232457600080fd5b505af1158015612338573d6000803e3d6000fd5b505050506040513d602081101561234e57600080fd5b505161238b5760405162461bcd60e51b815260040180806020018281038252603381526020018061287a6033913960400191505060405180910390fd5b50919050565b60055460009081905b808310156123e957836001600160a01b0316600584815481106123b957fe5b6000918252602090912001546001600160a01b031614156123de5750600190506123ef565b82600101925061239a565b60009150505b915091565b60006001600160a01b03831661243b5760405162461bcd60e51b815260040180806020018281038252602f815260200180613050602f913960400191505060405180910390fd5b6000821161247a5760405162461bcd60e51b81526004018080602001828103825260368152602001806129776036913960400191505060405180910390fd5b6001600160a01b038316600090815260208190526040902080546124a4908463ffffffff611e8216565b81556001546124b9908463ffffffff611e8216565b6001558054600754604080516323b872dd60e01b81523360048201523060248201526044810187905290519294506001600160a01b03909116916323b872dd916064808201926020929091908290030181600087803b15801561251b57600080fd5b505af115801561252f573d6000803e3d6000fd5b505050506040513d602081101561254557600080fd5b50516125825760405162461bcd60e51b815260040180806020018281038252602f815260200180612f59602f913960400191505060405180910390fd5b5092915050565b612591612603565b61259a57610ddc565b600654604080516319c4af5760e31b81526001600160a01b038581166004830152602482018590529151919092169163ce257ab891604480830192600092919082900301818387803b1580156125ef57600080fd5b505af11580156116a1573d6000803e3d6000fd5b6006546001600160a01b0316151590565b600081848411156126a35760405162461bcd60e51b81526004018080602001828103825283818151815260200191508051906020019080838360005b83811015612668578181015183820152602001612650565b50505050905090810190601f1680156126955780820380516001836020036101000a031916815260200191505b509250505060405180910390fd5b505050900390565b6040518060600160405280600081526020016000815260200160008152509056fe5374616b696e67436f6e74726163743a2063616c6c6572206973206e6f7420746865206d6967726174696f6e206d616e616765725374616b696e67436f6e74726163743a2063616c6c6572206973206e6f742074686520656d657267656e6379206d616e616765725374616b696e67436f6e74726163743a3a6469737472696275746552657761726473202d207374616b65206f776e65722063616e277420626520305374616b696e67436f6e74726163743a3a7769746864726177202d206e6f207374616b6564206f7220756e7374616b656420746f6b656e735374616b696e67436f6e74726163743a3a6164644d6967726174696f6e44657374696e6174696f6e202d2063616e277420616464206d6f7265207374616b696e6720636f6e7472616374735374616b696e67436f6e74726163743a3a72656d6f76654d6967726174696f6e44657374696e6174696f6e202d207374616b696e6720636f6e747261637420646f65736e27742065786973745374616b696e67436f6e74726163743a3a6469737472696275746552657761726473202d20696e73756666696369656e7420616c6c6f77616e63655374616b696e67436f6e74726163743a3a7769746864726177202d20636f756c646e2774207472616e73666572207374616b655374616b696e67436f6e74726163743a3a6d6967726174655374616b6564546f6b656e73202d206d6967726174696f6e2064657374696e6174696f6e207761736e277420617070726f7665645374616b696e67436f6e74726163743a206e6f742072656c656173696e6720616c6c207374616b65735374616b696e67436f6e74726163743a3a756e7374616b65202d20756e61626c6520746f20756e7374616b65207768656e2074686572652061726520746f6b656e732070656e64696e67207769746864726177616c5374616b696e67436f6e74726163743a3a7374616b65202d20616d6f756e74206d7573742062652067726561746572207468616e20305374616b696e67436f6e74726163743a3a6d6967726174655374616b6564546f6b656e73202d207374616b656420746f6b656e73206d757374206265207468652073616d655374616b696e67436f6e74726163743a3a736574456d657267656e63794d616e61676572202d2061646472657373206d75737420626520646966666572656e74207468616e207468652063757272656e7420616464726573735374616b696e67436f6e74726163743a3a72657374616b65202d206e6f20756e7374616b656420746f6b656e735374616b696e67436f6e74726163743a3a72656d6f76654d6967726174696f6e44657374696e6174696f6e202d2061646472657373206d757374206e6f7420626520305374616b696e67436f6e74726163743a3a7769746864726177202d207374616b65206f776e65722063616e277420626520305374616b696e67436f6e74726163743a3a756e7374616b65202d20616d6f756e74206d7573742062652067726561746572207468616e20305374616b696e67436f6e74726163743a3a6469737472696275746552657761726473202d20616d6f756e74206d7573742062652067726561746572207468616e20305374616b696e67436f6e74726163743a3a7365745374616b654368616e67654e6f746966696572202d2061646472657373206d75737420626520646966666572656e74207468616e207468652063757272656e7420616464726573735374616b696e67436f6e74726163743a3a6d6967726174655374616b6564546f6b656e73202d20616d6f756e74206d7573742062652067726561746572207468616e20305374616b696e67436f6e74726163743a206e6f7420616363657074696e67206e6577207374616b65735374616b696e67436f6e74726163743a3a6164644d6967726174696f6e44657374696e6174696f6e202d2061646472657373206d757374206e6f7420626520305374616b696e67436f6e74726163743a3a736574456d657267656e63794d616e61676572202d2061646472657373206d757374206e6f7420626520305374616b696e67436f6e74726163743a3a7769746864726177202d20746f6b656e7320617265207374696c6c20696e20636f6f6c646f776e5374616b696e67436f6e74726163743a3a756e7374616b65202d2063616e277420756e7374616b65206d6f7265207468616e207468652063757272656e74207374616b655374616b696e67436f6e74726163743a3a6469737472696275746552657761726473202d20746f74616c20616d6f756e74206d7573742062652067726561746572207468616e20305374616b696e67436f6e74726163743a3a6469737472696275746552657761726473202d206c69737473206d757374206265206f66207468652073616d652073697a655374616b696e67436f6e74726163743a3a6d6967726174655374616b6564546f6b656e73202d20636f756c646e277420617070726f7665207472616e736665725374616b696e67436f6e74726163743a3a6469737472696275746552657761726473202d20696e636f727265637420746f74616c20616d6f756e745374616b696e67436f6e74726163743a3a7769746864726177202d206e6f20756e7374616b656420746f6b656e735374616b696e67436f6e74726163743a3a6d6967726174655374616b6564546f6b656e73202d206e6f207374616b656420746f6b656e735374616b696e67436f6e74726163743a3a7365744d6967726174696f6e4d616e61676572202d2061646472657373206d757374206e6f7420626520305374616b696e67436f6e74726163743a3a6164644d6967726174696f6e44657374696e6174696f6e202d2063616e2774206164642061206475706c6963617465207374616b696e6720636f6e74726163745374616b696e67436f6e74726163743a3a6469737472696275746552657761726473202d206c697374732063616e277420626520656d7074795374616b696e67436f6e74726163743a3a7374616b65202d20696e73756666696369656e7420616c6c6f77616e63655374616b696e67436f6e74726163743a2072656c656173696e6720616c6c207374616b65735374616b696e67436f6e74726163743a3a6d6967726174655374616b6564546f6b656e73202d20616d6f756e742065786365656473207374616b656420746f6b656e2062616c616e63655374616b696e67436f6e74726163743a3a7365744d6967726174696f6e4d616e61676572202d2061646472657373206d75737420626520646966666572656e74207468616e207468652063757272656e7420616464726573735374616b696e67436f6e74726163743a3a7374616b65202d207374616b65206f776e65722063616e27742062652030a265627a7a72315820261ed461da7485c355446bb9aeace9a2fa003e899073ce921180b4af63802b6c64736f6c634300051000325374616b696e67436f6e74726163743a3a63746f72202d204f52425320746f6b656e206d757374206e6f7420626520305374616b696e67436f6e74726163743a3a63746f72202d20636f6f6c646f776e20706572696f64206d7573742062652067726561746572207468616e20305374616b696e67436f6e74726163743a3a63746f72202d20656d657267656e6379206d616e61676572206d757374206e6f7420626520305374616b696e67436f6e74726163743a3a63746f72202d206d6967726174696f6e206d616e61676572206d757374206e6f742062652030",
  "source": "pragma solidity 0.5.16;\n\nimport \"@openzeppelin/contracts/math/SafeMath.sol\";\n\nimport \"./IStakingContract.sol\";\nimport \"./IStakeChangeNotifier.sol\";\n\n/// @title Orbs staking smart contract.\ncontract StakingContract is IStakingContract, IMigratableStakingContract {\n    using SafeMath for uint256;\n\n    struct Stake {\n        uint256 amount;\n        uint256 cooldownAmount;\n        uint256 cooldownEndTime;\n    }\n\n    struct WithdrawResult {\n        uint256 withdrawnAmount;\n        uint256 stakedAmount;\n        uint256 stakedAmountDiff;\n    }\n\n    // The version of the smart contract.\n    uint public constant VERSION = 1;\n\n    // The maximum number of approved staking contracts as migration destinations.\n    uint public constant MAX_APPROVED_STAKING_CONTRACTS = 10;\n\n    // The mapping between stake owners and their data.\n    mapping(address => Stake) internal stakes;\n\n    // Total amount of staked tokens (not including unstaked tokes in cooldown or pending withdrawal).\n    uint256 internal totalStakedTokens;\n\n    // The period (in seconds) between a stake owner's request to stop staking and being able to withdraw them.\n    uint256 public cooldownPeriodInSec;\n\n    // The address responsible for managing migration to a new staking contract.\n    address public migrationManager;\n\n    // The address responsible for emergency operations and graceful return of staked tokens back to their owners.\n    address public emergencyManager;\n\n    // The list of staking contracts that are approved by this contract. It would be only allowed to migrate a stake to\n    // one of these contracts.\n    IMigratableStakingContract[] public approvedStakingContracts;\n\n    // The address of the contract responsible for publishing stake change notifications.\n    IStakeChangeNotifier public notifier;\n\n    // The address of the ORBS token.\n    IERC20 internal token;\n\n    // Represents whether the contract accepts new staking requests. Please note, that even when it's turned off,\n    // it'd be still possible to unstake or withdraw tokens.\n    //\n    // Note: This can be turned off only once by the emergency manager of the contract.\n    bool public acceptingNewStakes = true;\n\n    // Represents whether this staking contract allows releasing all unstaked tokens unconditionally. When it's turned\n    // on, stake owners could release their staked tokens, without explicitly requesting to unstake them, and their\n    // previously unstaked tokens, regardless of the cooldown period. This also stops the contract from accepting new\n    // stakes.\n    //\n    // Note: This can be turned off only once by the emergency manager of the contract.\n    bool public releasingAllStakes = false;\n\n    event MigrationManagerUpdated(address indexed migrationManager);\n    event MigrationDestinationAdded(IMigratableStakingContract indexed stakingContract);\n    event MigrationDestinationRemoved(IMigratableStakingContract indexed stakingContract);\n    event EmergencyManagerUpdated(address indexed emergencyManager);\n    event StakeChangeNotifierUpdated(IStakeChangeNotifier indexed notifier);\n    event StoppedAcceptingNewStake();\n    event ReleasedAllStakes();\n\n    modifier onlyMigrationManager() {\n        require(msg.sender == migrationManager, \"StakingContract: caller is not the migration manager\");\n\n        _;\n    }\n\n    modifier onlyEmergencyManager() {\n        require(msg.sender == emergencyManager, \"StakingContract: caller is not the emergency manager\");\n\n        _;\n    }\n\n    modifier onlyWhenAcceptingNewStakes() {\n        require(acceptingNewStakes && !releasingAllStakes, \"StakingContract: not accepting new stakes\");\n\n        _;\n    }\n\n    modifier onlyWhenStakesReleased() {\n        require(releasingAllStakes, \"StakingContract: not releasing all stakes\");\n\n        _;\n    }\n\n    modifier onlyWhenStakesNotReleased() {\n        require(!releasingAllStakes, \"StakingContract: releasing all stakes\");\n\n        _;\n    }\n\n    /// @dev Initializes the staking contract.\n    /// @param _cooldownPeriodInSec uint256 The period (in seconds) between a stake owner's request to stop staking and being\n    /// able to withdraw them.\n    /// @param _migrationManager address The address responsible for managing migration to a new staking contract.\n    /// @param _emergencyManager address The address responsible for emergency operations and graceful return of staked\n    /// tokens back to their owners.\n    /// @param _token IERC20 The address of the ORBS token.\n    constructor(uint256 _cooldownPeriodInSec, address _migrationManager, address _emergencyManager, IERC20 _token) public {\n        require(_cooldownPeriodInSec > 0, \"StakingContract::ctor - cooldown period must be greater than 0\");\n        require(_migrationManager != address(0), \"StakingContract::ctor - migration manager must not be 0\");\n        require(_emergencyManager != address(0), \"StakingContract::ctor - emergency manager must not be 0\");\n        require(address(_token) != address(0), \"StakingContract::ctor - ORBS token must not be 0\");\n\n        cooldownPeriodInSec = _cooldownPeriodInSec;\n        migrationManager = _migrationManager;\n        emergencyManager = _emergencyManager;\n        token = _token;\n    }\n\n    /// @dev Sets the address of the migration manager.\n    /// @param _newMigrationManager address The address of the new migration manager.\n    function setMigrationManager(address _newMigrationManager) external onlyMigrationManager {\n        require(_newMigrationManager != address(0), \"StakingContract::setMigrationManager - address must not be 0\");\n        require(migrationManager != _newMigrationManager,\n            \"StakingContract::setMigrationManager - address must be different than the current address\");\n\n        migrationManager = _newMigrationManager;\n\n        emit MigrationManagerUpdated(_newMigrationManager);\n    }\n\n    /// @dev Sets the address of the emergency manager.\n    /// @param _newEmergencyManager address The address of the new emergency manager.\n    function setEmergencyManager(address _newEmergencyManager) external onlyEmergencyManager {\n        require(_newEmergencyManager != address(0), \"StakingContract::setEmergencyManager - address must not be 0\");\n        require(emergencyManager != _newEmergencyManager,\n            \"StakingContract::setEmergencyManager - address must be different than the current address\");\n\n        emergencyManager = _newEmergencyManager;\n\n        emit EmergencyManagerUpdated(_newEmergencyManager);\n    }\n\n    /// @dev Sets the address of the stake change notifier contract.\n    /// @param _newNotifier IStakeChangeNotifier The address of the new stake change notifier contract.\n    ///\n    /// Note: it's allowed to reset the notifier to a zero address.\n    function setStakeChangeNotifier(IStakeChangeNotifier _newNotifier) external onlyMigrationManager {\n        require(notifier != _newNotifier,\n            \"StakingContract::setStakeChangeNotifier - address must be different than the current address\");\n\n        notifier = _newNotifier;\n\n        emit StakeChangeNotifierUpdated(notifier);\n    }\n\n    /// @dev Adds a new contract to the list of approved staking contracts migration destinations.\n    /// @param _newStakingContract IMigratableStakingContract The new contract to add.\n    function addMigrationDestination(IMigratableStakingContract _newStakingContract) external onlyMigrationManager {\n        require(address(_newStakingContract) != address(0),\n            \"StakingContract::addMigrationDestination - address must not be 0\");\n\n        uint length = approvedStakingContracts.length;\n        require(length + 1 <= MAX_APPROVED_STAKING_CONTRACTS,\n            \"StakingContract::addMigrationDestination - can't add more staking contracts\");\n\n        // Check for duplicates.\n        for (uint i = 0; i < length; ++i) {\n            require(approvedStakingContracts[i] != _newStakingContract,\n                \"StakingContract::addMigrationDestination - can't add a duplicate staking contract\");\n        }\n\n        approvedStakingContracts.push(_newStakingContract);\n\n        emit MigrationDestinationAdded(_newStakingContract);\n    }\n\n    /// @dev Removes a contract from the list of approved staking contracts migration destinations.\n    /// @param _stakingContract IMigratableStakingContract The contract to remove.\n    function removeMigrationDestination(IMigratableStakingContract _stakingContract) external onlyMigrationManager {\n        require(address(_stakingContract) != address(0),\n            \"StakingContract::removeMigrationDestination - address must not be 0\");\n\n        // Check for existence.\n        (uint i, bool exists) = findApprovedStakingContractIndex(_stakingContract);\n        require(exists, \"StakingContract::removeMigrationDestination - staking contract doesn't exist\");\n\n        // Swap the requested element with the last element and then delete it using pop/\n        approvedStakingContracts[i] = approvedStakingContracts[approvedStakingContracts.length - 1];\n        approvedStakingContracts.pop();\n\n        emit MigrationDestinationRemoved(_stakingContract);\n    }\n\n    /// @dev Stakes ORBS tokens on behalf of msg.sender. This method assumes that the user has already approved at least\n    /// the required amount using ERC20 approve.\n    /// @param _amount uint256 The amount of tokens to stake.\n    function stake(uint256 _amount) external onlyWhenAcceptingNewStakes {\n        address stakeOwner = msg.sender;\n\n        uint256 totalStakedAmount = stake(stakeOwner, _amount);\n\n        emit Staked(stakeOwner, _amount, totalStakedAmount);\n\n        // Note: we aren't concerned with reentrancy since:\n        //   1. At this point, due to the CEI pattern, a reentrant notifier can't affect the effects of this method.\n        //   2. The notifier is set and managed by the migration manager.\n        stakeChange(stakeOwner, _amount, true, totalStakedAmount);\n    }\n\n    /// @dev Unstakes ORBS tokens from msg.sender. If successful, this will start the cooldown period, after which\n    /// msg.sender would be able to withdraw all of his tokens.\n    /// @param _amount uint256 The amount of tokens to unstake.\n    function unstake(uint256 _amount) external {\n        require(_amount > 0, \"StakingContract::unstake - amount must be greater than 0\");\n\n        address stakeOwner = msg.sender;\n        Stake storage stakeData = stakes[stakeOwner];\n        uint256 stakedAmount = stakeData.amount;\n        uint256 cooldownAmount = stakeData.cooldownAmount;\n        uint256 cooldownEndTime = stakeData.cooldownEndTime;\n\n        require(_amount <= stakedAmount, \"StakingContract::unstake - can't unstake more than the current stake\");\n\n        // If any tokens in cooldown are ready for withdrawal - revert. Stake owner should withdraw their unstaked\n        // tokens first.\n        require(cooldownAmount == 0 || cooldownEndTime > now,\n            \"StakingContract::unstake - unable to unstake when there are tokens pending withdrawal\");\n\n        // Update the amount of tokens in cooldown. Please note that this will also restart the cooldown period of all\n        // tokens in cooldown.\n        stakeData.amount = stakedAmount.sub(_amount);\n        stakeData.cooldownAmount = cooldownAmount.add(_amount);\n        stakeData.cooldownEndTime = now.add(cooldownPeriodInSec);\n\n        totalStakedTokens = totalStakedTokens.sub(_amount);\n\n        uint256 totalStakedAmount = stakeData.amount;\n\n        emit Unstaked(stakeOwner, _amount, totalStakedAmount);\n\n        // Note: we aren't concerned with reentrancy since:\n        //   1. At this point, due to the CEI pattern, a reentrant notifier can't affect the effects of this method.\n        //   2. The notifier is set and managed by the migration manager.\n        stakeChange(stakeOwner, _amount, false, totalStakedAmount);\n    }\n\n    /// @dev Requests to withdraw all of staked ORBS tokens back to msg.sender. Stake owners can withdraw their ORBS\n    /// tokens only after previously unstaking them and after the cooldown period has passed (unless the contract was\n    /// requested to release all stakes).\n    function withdraw() external {\n        address stakeOwner = msg.sender;\n\n        WithdrawResult memory res = withdraw(stakeOwner);\n\n        emit Withdrew(stakeOwner, res.withdrawnAmount, res.stakedAmount);\n\n        // Trigger staking state change notifications only if the staking amount was changed.\n        if (res.stakedAmountDiff == 0) {\n            return;\n        }\n\n        // Note: we aren't concerned with reentrancy since:\n        //   1. At this point, due to the CEI pattern, a reentrant notifier can't affect the effects of this method.\n        //   2. The notifier is set and managed by the migration manager.\n        stakeChange(stakeOwner, res.stakedAmountDiff, false, res.stakedAmount);\n    }\n\n    /// @dev Restakes unstaked ORBS tokens (in or after cooldown) for msg.sender.\n    function restake() external onlyWhenAcceptingNewStakes {\n        address stakeOwner = msg.sender;\n        Stake storage stakeData = stakes[stakeOwner];\n        uint256 cooldownAmount = stakeData.cooldownAmount;\n\n        require(cooldownAmount > 0, \"StakingContract::restake - no unstaked tokens\");\n\n        stakeData.amount = stakeData.amount.add(cooldownAmount);\n        stakeData.cooldownAmount = 0;\n        stakeData.cooldownEndTime = 0;\n\n        totalStakedTokens = totalStakedTokens.add(cooldownAmount);\n\n        uint256 totalStakedAmount = stakeData.amount;\n\n        emit Restaked(stakeOwner, cooldownAmount, totalStakedAmount);\n\n        // Note: we aren't concerned with reentrancy since:\n        //   1. At this point, due to the CEI pattern, a reentrant notifier can't affect the effects of this method.\n        //   2. The notifier is set and managed by the migration manager.\n        stakeChange(stakeOwner, cooldownAmount, true, totalStakedAmount);\n    }\n\n    /// @dev Stakes ORBS tokens on behalf of msg.sender. This method assumes that the user has already approved at least\n    /// the required amount using ERC20 approve.\n    /// @param _stakeOwner address The specified stake owner.\n    /// @param _amount uint256 The amount of tokens to stake.\n    function acceptMigration(address _stakeOwner, uint256 _amount) external onlyWhenAcceptingNewStakes {\n        uint256 totalStakedAmount = stake(_stakeOwner, _amount);\n\n        emit AcceptedMigration(_stakeOwner, _amount, totalStakedAmount);\n\n        // Note: we aren't concerned with reentrancy since:\n        //   1. At this point, due to the CEI pattern, a reentrant notifier can't affect the effects of this method.\n        //   2. The notifier is set and managed by the migration manager.\n        stakeChange(_stakeOwner, _amount, true, totalStakedAmount);\n    }\n\n    /// @dev Migrates the stake of msg.sender from this staking contract to a new approved staking contract.\n    /// @param _newStakingContract IMigratableStakingContract The new staking contract which supports stake migration.\n    /// @param _amount uint256 The amount of tokens to migrate.\n    function migrateStakedTokens(IMigratableStakingContract _newStakingContract, uint256 _amount) external\n        onlyWhenStakesNotReleased {\n        require(isApprovedStakingContract(_newStakingContract),\n            \"StakingContract::migrateStakedTokens - migration destination wasn't approved\");\n        require(_amount > 0, \"StakingContract::migrateStakedTokens - amount must be greater than 0\");\n\n        address stakeOwner = msg.sender;\n        Stake storage stakeData = stakes[stakeOwner];\n        uint256 stakedAmount = stakeData.amount;\n\n        require(stakedAmount > 0, \"StakingContract::migrateStakedTokens - no staked tokens\");\n        require(_amount <= stakedAmount, \"StakingContract::migrateStakedTokens - amount exceeds staked token balance\");\n\n        stakeData.amount = stakedAmount.sub(_amount);\n\n        totalStakedTokens = totalStakedTokens.sub(_amount);\n\n        require(_newStakingContract.getToken() == token,\n            \"StakingContract::migrateStakedTokens - staked tokens must be the same\");\n        require(token.approve(address(_newStakingContract), _amount),\n            \"StakingContract::migrateStakedTokens - couldn't approve transfer\");\n\n        emit MigratedStake(stakeOwner, _amount, stakeData.amount);\n\n        _newStakingContract.acceptMigration(stakeOwner, _amount);\n\n        // Note: we aren't concerned with reentrancy since:\n        //   1. At this point, due to the CEI pattern, a reentrant notifier can't affect the effects of this method.\n        //   2. The notifier is set and managed by the migration manager.\n        stakeMigration(stakeOwner, _amount);\n    }\n\n    /// @dev Distributes staking rewards to a list of addresses by directly adding rewards to their stakes. This method\n    /// assumes that the user has already approved at least the required amount using ERC20 approve. Since this is a\n    /// convenience method, we aren't concerned about reaching block gas limit by using large lists. We assume that\n    /// callers will be able to batch/paginate their requests properly.\n    /// @param _totalAmount uint256 The total amount of rewards to distributes.\n    /// @param _stakeOwners address[] The addresses of the stake owners.\n    /// @param _amounts uint256[] The amounts of the rewards.\n    function distributeRewards(uint256 _totalAmount, address[] calldata _stakeOwners, uint256[] calldata _amounts) external\n        onlyWhenAcceptingNewStakes {\n        require(_totalAmount > 0, \"StakingContract::distributeRewards - total amount must be greater than 0\");\n\n        uint256 stakeOwnersLength = _stakeOwners.length;\n        uint256 amountsLength = _amounts.length;\n\n        require(stakeOwnersLength > 0 && amountsLength > 0,\n            \"StakingContract::distributeRewards - lists can't be empty\");\n        require(stakeOwnersLength == amountsLength,\n            \"StakingContract::distributeRewards - lists must be of the same size\");\n\n        // Transfer all the tokens to the smart contract and update the stake owners list accordingly.\n        require(token.transferFrom(msg.sender, address(this), _totalAmount),\n            \"StakingContract::distributeRewards - insufficient allowance\");\n\n        bool[] memory signs = new bool[](amountsLength);\n        uint256[] memory totalStakedAmounts = new uint256[](amountsLength);\n\n        uint256 expectedTotalAmount = 0;\n        for (uint i = 0; i < stakeOwnersLength; ++i) {\n            address stakeOwner = _stakeOwners[i];\n            uint256 amount = _amounts[i];\n\n            require(stakeOwner != address(0), \"StakingContract::distributeRewards - stake owner can't be 0\");\n            require(amount > 0, \"StakingContract::distributeRewards - amount must be greater than 0\");\n\n            Stake storage stakeData = stakes[stakeOwner];\n            stakeData.amount = stakeData.amount.add(amount);\n\n            expectedTotalAmount = expectedTotalAmount.add(amount);\n\n            uint256 totalStakedAmount = stakeData.amount;\n            signs[i] = true;\n            totalStakedAmounts[i] = totalStakedAmount;\n\n            emit Staked(stakeOwner, amount, totalStakedAmount);\n        }\n\n        require(_totalAmount == expectedTotalAmount, \"StakingContract::distributeRewards - incorrect total amount\");\n\n        totalStakedTokens = totalStakedTokens.add(_totalAmount);\n\n        // Note: we aren't concerned with reentrancy since:\n        //   1. At this point, due to the CEI pattern, a reentrant notifier can't affect the effects of this method.\n        //   2. The notifier is set and managed by the migration manager.\n        stakeChangeBatch(_stakeOwners, _amounts, signs, totalStakedAmounts);\n    }\n\n    /// @dev Returns the stake of the specified stake owner (excluding unstaked tokens).\n    /// @param _stakeOwner address The address to check.\n    /// @return uint256 The stake of the stake owner.\n    function getStakeBalanceOf(address _stakeOwner) external view returns (uint256) {\n        return stakes[_stakeOwner].amount;\n    }\n\n    /// @dev Returns the total amount staked tokens (excluding unstaked tokens).\n    /// @return uint256 The total staked tokens of all stake owners.\n    function getTotalStakedTokens() external view returns (uint256) {\n        return totalStakedTokens;\n    }\n\n    /// @dev Returns the time that the cooldown period ends (or ended) and the amount of tokens to be released.\n    /// @param _stakeOwner address The address to check.\n    /// @return cooldownAmount uint256 The total tokens in cooldown.\n    /// @return cooldownEndTime uint256 The time when the cooldown period ends (in seconds).\n    function getUnstakeStatus(address _stakeOwner) external view returns (uint256 cooldownAmount,\n        uint256 cooldownEndTime) {\n        Stake memory stakeData = stakes[_stakeOwner];\n        cooldownAmount = stakeData.cooldownAmount;\n        cooldownEndTime = stakeData.cooldownEndTime;\n    }\n\n    /// @dev Returns the address of the underlying staked token.\n    /// @return IERC20 The address of the token.\n    function getToken() external view returns (IERC20) {\n        return token;\n    }\n\n    /// @dev Requests the contract to stop accepting new staking requests.\n    function stopAcceptingNewStakes() external onlyEmergencyManager onlyWhenAcceptingNewStakes {\n        acceptingNewStakes = false;\n\n        emit StoppedAcceptingNewStake();\n    }\n\n    /// @dev Requests the contract to release all stakes.\n    function releaseAllStakes() external onlyEmergencyManager onlyWhenStakesNotReleased {\n        releasingAllStakes = true;\n\n        emit ReleasedAllStakes();\n    }\n\n    /// @dev Requests withdraw of released tokens for a list of addresses.\n    /// @param _stakeOwners address[] The addresses of the stake owners.\n    function withdrawReleasedStakes(address[] calldata _stakeOwners) external onlyWhenStakesReleased {\n        uint256 stakeOwnersLength = _stakeOwners.length;\n        uint256[] memory stakedAmountDiffs = new uint256[](stakeOwnersLength);\n        bool[] memory signs = new bool[](stakeOwnersLength);\n        uint256[] memory totalStakedAmounts = new uint256[](stakeOwnersLength);\n\n        for (uint i = 0; i < stakeOwnersLength; ++i) {\n            address stakeOwner = _stakeOwners[i];\n\n            WithdrawResult memory res = withdraw(stakeOwner);\n            stakedAmountDiffs[i] = res.stakedAmountDiff;\n            signs[i] = false;\n            totalStakedAmounts[i] = res.stakedAmount;\n\n            emit Withdrew(stakeOwner, res.withdrawnAmount, res.stakedAmount);\n        }\n\n        // Note: we aren't concerned with reentrancy since:\n        //   1. At this point, due to the CEI pattern, a reentrant notifier can't affect the effects of this method.\n        //   2. The notifier is set and managed by the migration manager.\n        stakeChangeBatch(_stakeOwners, stakedAmountDiffs, signs, totalStakedAmounts);\n    }\n\n    /// @dev Returns whether a specific staking contract was approved as a migration destination.\n    /// @param _stakingContract IMigratableStakingContract The staking contract to look for.\n    /// @return exists bool The approval status.\n    function isApprovedStakingContract(IMigratableStakingContract _stakingContract) public view returns (bool exists) {\n        (, exists) = findApprovedStakingContractIndex(_stakingContract);\n    }\n\n    /// @dev Returns whether stake change notification is enabled.\n    function shouldNotifyStakeChange() view internal returns (bool) {\n        return address(notifier) != address(0);\n    }\n\n    /// @dev Notifies of stake change events.\n    /// @param _stakeOwner address The address of the subject stake owner.\n    /// @param _amount int256 The difference in the total staked amount.\n    /// @param _sign bool The sign of the added (true) or subtracted (false) amount.\n    /// @param _updatedStake uint256 The updated total staked amount.\n    function stakeChange(address _stakeOwner, uint256 _amount, bool _sign, uint256 _updatedStake) internal {\n        if (!shouldNotifyStakeChange()) {\n            return;\n        }\n\n        notifier.stakeChange(_stakeOwner, _amount, _sign, _updatedStake);\n    }\n\n    /// @dev Notifies of multiple stake change events.\n    /// @param _stakeOwners address[] The addresses of subject stake owners.\n    /// @param _amounts uint256[] The differences in total staked amounts.\n    /// @param _signs bool[] The signs of the added (true) or subtracted (false) amounts.\n    /// @param _updatedStakes uint256[] The updated total staked amounts.\n    function stakeChangeBatch(address[] memory _stakeOwners, uint256[] memory _amounts, bool[] memory _signs,\n        uint256[] memory _updatedStakes) internal {\n        if (!shouldNotifyStakeChange()) {\n            return;\n        }\n\n        notifier.stakeChangeBatch(_stakeOwners, _amounts, _signs, _updatedStakes);\n    }\n\n    /// @dev Notifies of stake migration event.\n    /// @param _stakeOwner address The address of the subject stake owner.\n    /// @param _amount uint256 The migrated amount.\n    function stakeMigration(address _stakeOwner, uint256 _amount) internal {\n        if (!shouldNotifyStakeChange()) {\n            return;\n        }\n\n        notifier.stakeMigration(_stakeOwner, _amount);\n    }\n\n    /// @dev Stakes amount of ORBS tokens on behalf of the specified stake owner.\n    /// @param _stakeOwner address The specified stake owner.\n    /// @param _amount uint256 The amount of tokens to stake.\n    /// @return totalStakedAmount uint256 The total stake of the stake owner.\n    function stake(address _stakeOwner, uint256 _amount) private returns (uint256 totalStakedAmount) {\n        require(_stakeOwner != address(0), \"StakingContract::stake - stake owner can't be 0\");\n        require(_amount > 0, \"StakingContract::stake - amount must be greater than 0\");\n\n        Stake storage stakeData = stakes[_stakeOwner];\n        stakeData.amount = stakeData.amount.add(_amount);\n\n        totalStakedTokens = totalStakedTokens.add(_amount);\n\n        totalStakedAmount = stakeData.amount;\n\n        // Transfer the tokens to the smart contract and update the stake owners list accordingly.\n        require(token.transferFrom(msg.sender, address(this), _amount),\n            \"StakingContract::stake - insufficient allowance\");\n    }\n\n    /// @dev Requests to withdraw all of staked ORBS tokens back to the specified stake owner. Stake owners can withdraw\n    /// their ORBS tokens only after previously unstaking them and after the cooldown period has passed (unless the\n    /// contract was requested to release all stakes).\n    /// @return res WithdrawResult The result of the withdraw operation.\n    function withdraw(address _stakeOwner) private returns (WithdrawResult memory res) {\n        require(_stakeOwner != address(0), \"StakingContract::withdraw - stake owner can't be 0\");\n\n        Stake storage stakeData = stakes[_stakeOwner];\n        res.stakedAmount = stakeData.amount;\n        res.withdrawnAmount = stakeData.cooldownAmount;\n        res.stakedAmountDiff = 0;\n\n        if (!releasingAllStakes) {\n            require(res.withdrawnAmount > 0, \"StakingContract::withdraw - no unstaked tokens\");\n            require(stakeData.cooldownEndTime <= now, \"StakingContract::withdraw - tokens are still in cooldown\");\n        } else {\n            // If the contract was requested to release all stakes - allow to withdraw all staked and unstaked tokens.\n            res.withdrawnAmount = res.withdrawnAmount.add(res.stakedAmount);\n            res.stakedAmountDiff = res.stakedAmount;\n\n            require(res.withdrawnAmount > 0, \"StakingContract::withdraw - no staked or unstaked tokens\");\n\n            stakeData.amount = 0;\n\n            totalStakedTokens = totalStakedTokens.sub(res.stakedAmount);\n\n            res.stakedAmount = 0;\n        }\n\n        stakeData.cooldownAmount = 0;\n        stakeData.cooldownEndTime = 0;\n\n        require(token.transfer(_stakeOwner, res.withdrawnAmount),\n            \"StakingContract::withdraw - couldn't transfer stake\");\n    }\n\n    /// @dev Returns an index of an existing approved staking contract.\n    /// @param _stakingContract IMigratableStakingContract The staking contract to look for.\n    /// @return index uint The index of the located staking contract (in the case that it was found).\n    /// @return exists bool The search result.\n    function findApprovedStakingContractIndex(IMigratableStakingContract _stakingContract) private view returns\n        (uint index, bool exists) {\n        uint length = approvedStakingContracts.length;\n        for (index = 0; index < length; ++index) {\n            if (approvedStakingContracts[index] == _stakingContract) {\n                exists = true;\n                return (index, exists);\n            }\n        }\n\n        exists = false;\n    }\n}\n",
  "sourcePath": "/Users/ron/repos/orbs-ethereum-contracts-v2/contracts/StakingContract.sol",
  "compiler": {
    "name": "solc",
    "version": "0.5.16+commit.9c3226ce.Emscripten.clang"
  },
  "schemaVersion": "3.0.23",
  "updatedAt": "2020-05-06T19:42:28.479Z",
  "devdoc": {
    "methods": {
      "acceptMigration(address,uint256)": {
        "details": "Stakes ORBS tokens on behalf of msg.sender. This method assumes that the user has already approved at least the required amount using ERC20 approve.",
        "params": {
          "_amount": "uint256 The amount of tokens to stake.",
          "_stakeOwner": "address The specified stake owner."
        }
      },
      "addMigrationDestination(address)": {
        "details": "Adds a new contract to the list of approved staking contracts migration destinations.",
        "params": {
          "_newStakingContract": "IMigratableStakingContract The new contract to add."
        }
      },
      "constructor": {
        "details": "Initializes the staking contract.",
        "params": {
          "_cooldownPeriodInSec": "uint256 The period (in seconds) between a stake owner's request to stop staking and being able to withdraw them.",
          "_emergencyManager": "address The address responsible for emergency operations and graceful return of staked tokens back to their owners.",
          "_migrationManager": "address The address responsible for managing migration to a new staking contract.",
          "_token": "IERC20 The address of the ORBS token."
        }
      },
      "distributeRewards(uint256,address[],uint256[])": {
        "details": "Distributes staking rewards to a list of addresses by directly adding rewards to their stakes. This method assumes that the user has already approved at least the required amount using ERC20 approve. Since this is a convenience method, we aren't concerned about reaching block gas limit by using large lists. We assume that callers will be able to batch/paginate their requests properly.",
        "params": {
          "_amounts": "uint256[] The amounts of the rewards.",
          "_stakeOwners": "address[] The addresses of the stake owners.",
          "_totalAmount": "uint256 The total amount of rewards to distributes."
        }
      },
      "getStakeBalanceOf(address)": {
        "details": "Returns the stake of the specified stake owner (excluding unstaked tokens).",
        "params": {
          "_stakeOwner": "address The address to check."
        },
        "return": "uint256 The stake of the stake owner."
      },
      "getToken()": {
        "details": "Returns the address of the underlying staked token.",
        "return": "IERC20 The address of the token."
      },
      "getTotalStakedTokens()": {
        "details": "Returns the total amount staked tokens (excluding unstaked tokens).",
        "return": "uint256 The total staked tokens of all stake owners."
      },
      "getUnstakeStatus(address)": {
        "details": "Returns the time that the cooldown period ends (or ended) and the amount of tokens to be released.",
        "params": {
          "_stakeOwner": "address The address to check."
        },
        "return": "cooldownAmount uint256 The total tokens in cooldown.cooldownEndTime uint256 The time when the cooldown period ends (in seconds)."
      },
      "isApprovedStakingContract(address)": {
        "details": "Returns whether a specific staking contract was approved as a migration destination.",
        "params": {
          "_stakingContract": "IMigratableStakingContract The staking contract to look for."
        },
        "return": "exists bool The approval status."
      },
      "migrateStakedTokens(address,uint256)": {
        "details": "Migrates the stake of msg.sender from this staking contract to a new approved staking contract.",
        "params": {
          "_amount": "uint256 The amount of tokens to migrate.",
          "_newStakingContract": "IMigratableStakingContract The new staking contract which supports stake migration."
        }
      },
      "releaseAllStakes()": {
        "details": "Requests the contract to release all stakes."
      },
      "removeMigrationDestination(address)": {
        "details": "Removes a contract from the list of approved staking contracts migration destinations.",
        "params": {
          "_stakingContract": "IMigratableStakingContract The contract to remove."
        }
      },
      "restake()": {
        "details": "Restakes unstaked ORBS tokens (in or after cooldown) for msg.sender."
      },
      "setEmergencyManager(address)": {
        "details": "Sets the address of the emergency manager.",
        "params": {
          "_newEmergencyManager": "address The address of the new emergency manager."
        }
      },
      "setMigrationManager(address)": {
        "details": "Sets the address of the migration manager.",
        "params": {
          "_newMigrationManager": "address The address of the new migration manager."
        }
      },
      "setStakeChangeNotifier(address)": {
        "details": "Sets the address of the stake change notifier contract.",
        "params": {
          "_newNotifier": "IStakeChangeNotifier The address of the new stake change notifier contract.     /// Note: it's allowed to reset the notifier to a zero address."
        }
      },
      "stake(uint256)": {
        "details": "Stakes ORBS tokens on behalf of msg.sender. This method assumes that the user has already approved at least the required amount using ERC20 approve.",
        "params": {
          "_amount": "uint256 The amount of tokens to stake."
        }
      },
      "stopAcceptingNewStakes()": {
        "details": "Requests the contract to stop accepting new staking requests."
      },
      "unstake(uint256)": {
        "details": "Unstakes ORBS tokens from msg.sender. If successful, this will start the cooldown period, after which msg.sender would be able to withdraw all of his tokens.",
        "params": {
          "_amount": "uint256 The amount of tokens to unstake."
        }
      },
      "withdraw()": {
        "details": "Requests to withdraw all of staked ORBS tokens back to msg.sender. Stake owners can withdraw their ORBS tokens only after previously unstaking them and after the cooldown period has passed (unless the contract was requested to release all stakes)."
      },
      "withdrawReleasedStakes(address[])": {
        "details": "Requests withdraw of released tokens for a list of addresses.",
        "params": {
          "_stakeOwners": "address[] The addresses of the stake owners."
        }
      }
    },
    "title": "Orbs staking smart contract."
  },
  "userdoc": {
    "methods": {}
  }
}