{
  "contractName": "ContractRegistry",
  "abi": [
    {
      "inputs": [
        {
          "internalType": "address",
          "name": "_governor",
          "type": "address"
        }
      ],
      "payable": false,
      "stateMutability": "nonpayable",
      "type": "constructor"
    },
    {
      "anonymous": false,
      "inputs": [
        {
          "indexed": false,
          "internalType": "string",
          "name": "contractName",
          "type": "string"
        },
        {
          "indexed": false,
          "internalType": "address",
          "name": "addr",
          "type": "address"
        }
      ],
      "name": "ContractAddressUpdated",
      "type": "event"
    },
    {
      "constant": false,
      "inputs": [
        {
          "internalType": "string",
          "name": "contractName",
          "type": "string"
        },
        {
          "internalType": "address",
          "name": "addr",
          "type": "address"
        }
      ],
      "name": "set",
      "outputs": [],
      "payable": false,
      "stateMutability": "nonpayable",
      "type": "function"
    },
    {
      "constant": true,
      "inputs": [
        {
          "internalType": "string",
          "name": "contractName",
          "type": "string"
        }
      ],
      "name": "get",
      "outputs": [
        {
          "internalType": "address",
          "name": "",
          "type": "address"
        }
      ],
      "payable": false,
      "stateMutability": "view",
      "type": "function"
    }
  ],
  "bytecode": "0x608060405234801561001057600080fd5b506040516104523803806104528339818101604052602081101561003357600080fd5b50516001600160a01b03811661007a5760405162461bcd60e51b81526004018080602001828103825260218152602001806104316021913960400191505060405180910390fd5b600080546001600160a01b039092166001600160a01b0319909216919091179055610387806100aa6000396000f3fe608060405234801561001057600080fd5b50600436106100365760003560e01c8063693ec85e1461003b578063a815ff15146100c7575b600080fd5b6100ab6004803603602081101561005157600080fd5b81019060208101813564010000000081111561006c57600080fd5b82018360208201111561007e57600080fd5b803590602001918460018302840111640100000000831117156100a057600080fd5b509092509050610142565b604080516001600160a01b039092168252519081900360200190f35b610140600480360360408110156100dd57600080fd5b8101906020810181356401000000008111156100f857600080fd5b82018360208201111561010a57600080fd5b8035906020019184600183028401116401000000008311171561012c57600080fd5b9193509150356001600160a01b03166101ba565b005b600080600184846040518083838082843791909101948552505060405192839003602001909220546001600160a01b031692505050806101b35760405162461bcd60e51b81526004018080602001828103825260238152602001806103306023913960400191505060405180910390fd5b9392505050565b6000546001600160a01b031633146102035760405162461bcd60e51b815260040180806020018281038252602381526020018061030d6023913960400191505060405180910390fd5b6001600160a01b03811661025e576040805162461bcd60e51b815260206004820152601860248201527f61646472657373206d757374206e6f74206265207a65726f0000000000000000604482015290519081900360640190fd5b806001848460405180838380828437919091019485525050604080516020948190038501812080546001600160a01b0319166001600160a01b0397881617905594861693850193909352505080825281018390527fa42de6429c1410f4470a8ff5afeeae27c734519ac1693e8eb58798a81715c947908490849084908060608101858580828437600083820152604051601f909101601f1916909201829003965090945050505050a150505056fe63616c6c6572206973206e6f742074686520726567697374727920676f7665726e6f7274686520636f6e7472616374206e616d65206973206e6f742072656769737465726564a265627a7a723158202659647e6ea5206229e9e1c7b7d388fcd6b71bd06910a5ca042fe153a0268f4864736f6c63430005100032676f7665726e6f722061646472657373206d757374206e6f74206265207a65726f",
  "source": "pragma solidity 0.5.16;\nimport \"./interfaces/IContractRegistry.sol\";\n\ncontract ContractRegistry is IContractRegistry {\n\n\taddress governor;\n\n\tmapping (string => address) contracts;\n\n\tmodifier onlyGovernor() {\n\t\trequire(msg.sender == governor, \"caller is not the registry governor\");\n\n\t\t_;\n\t}\n\n\tconstructor(address _governor) public {\n\t\trequire(_governor != address(0), \"governor address must not be zero\");\n\t\tgovernor = _governor;\n\t}\n\n\tfunction set(string calldata contractName, address addr) external onlyGovernor {\n\t\trequire(addr != address(0), \"address must not be zero\");\n\t\tcontracts[contractName] = addr;\n\t\temit ContractAddressUpdated(contractName, addr);\n\t}\n\n\tfunction get(string calldata contractName) external view returns (address) {\n\t\taddress addr = contracts[contractName];\n\t\trequire(addr != address(0), \"the contract name is not registered\");\n\t\treturn addr;\n\t}\n}\n",
  "sourcePath": "/Users/ron/repos/orbs-ethereum-contracts/pos-v2/contracts/ContractRegistry.sol",
  "compiler": {
    "name": "solc",
    "version": "0.5.16+commit.9c3226ce.Emscripten.clang"
  },
  "schemaVersion": "3.0.23",
  "updatedAt": "2020-03-11T14:45:21.503Z",
  "devdoc": {
    "methods": {}
  },
  "userdoc": {
    "methods": {}
  }
}