{
  "contractName": "Elections",
  "abi": [
    {
      "inputs": [
        {
          "internalType": "uint256",
          "name": "_maxCommitteeSize",
          "type": "uint256"
        },
        {
          "internalType": "uint256",
          "name": "_maxTopologySize",
          "type": "uint256"
        },
        {
          "internalType": "uint256",
          "name": "_minimumStake",
          "type": "uint256"
        },
        {
          "internalType": "uint8",
          "name": "_maxDelegationRatio",
          "type": "uint8"
        },
        {
          "internalType": "uint8",
          "name": "_voteOutPercentageThreshold",
          "type": "uint8"
        },
        {
          "internalType": "uint256",
          "name": "_voteOutTimeoutSeconds",
          "type": "uint256"
        },
        {
          "internalType": "uint256",
          "name": "_banningPercentageThreshold",
          "type": "uint256"
        }
      ],
      "payable": false,
      "stateMutability": "nonpayable",
      "type": "constructor"
    },
    {
      "anonymous": false,
      "inputs": [
        {
          "indexed": false,
          "internalType": "address",
          "name": "validator",
          "type": "address"
        }
      ],
      "name": "Banned",
      "type": "event"
    },
    {
      "anonymous": false,
      "inputs": [
        {
          "indexed": false,
          "internalType": "address",
          "name": "voter",
          "type": "address"
        },
        {
          "indexed": false,
          "internalType": "address[]",
          "name": "against",
          "type": "address[]"
        }
      ],
      "name": "BanningVote",
      "type": "event"
    },
    {
      "anonymous": false,
      "inputs": [
        {
          "indexed": false,
          "internalType": "address[]",
          "name": "addrs",
          "type": "address[]"
        },
        {
          "indexed": false,
          "internalType": "address[]",
          "name": "orbsAddrs",
          "type": "address[]"
        },
        {
          "indexed": false,
          "internalType": "uint256[]",
          "name": "stakes",
          "type": "uint256[]"
        }
      ],
      "name": "CommitteeChanged",
      "type": "event"
    },
    {
      "anonymous": false,
      "inputs": [
        {
          "indexed": false,
          "internalType": "string",
          "name": "",
          "type": "string"
        },
        {
          "indexed": false,
          "internalType": "uint256",
          "name": "",
          "type": "uint256"
        }
      ],
      "name": "Debug",
      "type": "event"
    },
    {
      "anonymous": false,
      "inputs": [
        {
          "indexed": false,
          "internalType": "address",
          "name": "from",
          "type": "address"
        },
        {
          "indexed": false,
          "internalType": "address",
          "name": "to",
          "type": "address"
        }
      ],
      "name": "Delegated",
      "type": "event"
    },
    {
      "anonymous": false,
      "inputs": [
        {
          "indexed": true,
          "internalType": "address",
          "name": "previousOwner",
          "type": "address"
        },
        {
          "indexed": true,
          "internalType": "address",
          "name": "newOwner",
          "type": "address"
        }
      ],
      "name": "OwnershipTransferred",
      "type": "event"
    },
    {
      "anonymous": false,
      "inputs": [
        {
          "indexed": false,
          "internalType": "address",
          "name": "addr",
          "type": "address"
        },
        {
          "indexed": false,
          "internalType": "uint256",
          "name": "ownStake",
          "type": "uint256"
        },
        {
          "indexed": false,
          "internalType": "uint256",
          "name": "uncappedStake",
          "type": "uint256"
        },
        {
          "indexed": false,
          "internalType": "uint256",
          "name": "governanceStake",
          "type": "uint256"
        },
        {
          "indexed": false,
          "internalType": "uint256",
          "name": "committeeStake",
          "type": "uint256"
        },
        {
          "indexed": false,
          "internalType": "uint256",
          "name": "totalGovernanceStake",
          "type": "uint256"
        }
      ],
      "name": "StakeChanged",
      "type": "event"
    },
    {
      "anonymous": false,
      "inputs": [
        {
          "indexed": false,
          "internalType": "address[]",
          "name": "orbsAddrs",
          "type": "address[]"
        },
        {
          "indexed": false,
          "internalType": "bytes4[]",
          "name": "ips",
          "type": "bytes4[]"
        }
      ],
      "name": "TopologyChanged",
      "type": "event"
    },
    {
      "anonymous": false,
      "inputs": [
        {
          "indexed": false,
          "internalType": "address",
          "name": "validator",
          "type": "address"
        }
      ],
      "name": "Unbanned",
      "type": "event"
    },
    {
      "anonymous": false,
      "inputs": [
        {
          "indexed": false,
          "internalType": "address",
          "name": "addr",
          "type": "address"
        },
        {
          "indexed": false,
          "internalType": "bytes4",
          "name": "ip",
          "type": "bytes4"
        },
        {
          "indexed": false,
          "internalType": "address",
          "name": "orbsAddr",
          "type": "address"
        }
      ],
      "name": "ValidatorRegistered",
      "type": "event"
    },
    {
      "anonymous": false,
      "inputs": [
        {
          "indexed": false,
          "internalType": "address",
          "name": "voter",
          "type": "address"
        },
        {
          "indexed": false,
          "internalType": "address",
          "name": "against",
          "type": "address"
        }
      ],
      "name": "VoteOut",
      "type": "event"
    },
    {
      "anonymous": false,
      "inputs": [
        {
          "indexed": false,
          "internalType": "address",
          "name": "addr",
          "type": "address"
        }
      ],
      "name": "VotedOutOfCommittee",
      "type": "event"
    },
    {
      "constant": true,
      "inputs": [],
      "name": "isOwner",
      "outputs": [
        {
          "internalType": "bool",
          "name": "",
          "type": "bool"
        }
      ],
      "payable": false,
      "stateMutability": "view",
      "type": "function"
    },
    {
      "constant": true,
      "inputs": [],
      "name": "owner",
      "outputs": [
        {
          "internalType": "address",
          "name": "",
          "type": "address"
        }
      ],
      "payable": false,
      "stateMutability": "view",
      "type": "function"
    },
    {
      "constant": false,
      "inputs": [],
      "name": "renounceOwnership",
      "outputs": [],
      "payable": false,
      "stateMutability": "nonpayable",
      "type": "function"
    },
    {
      "constant": false,
      "inputs": [
        {
          "internalType": "address",
          "name": "newOwner",
          "type": "address"
        }
      ],
      "name": "transferOwnership",
      "outputs": [],
      "payable": false,
      "stateMutability": "nonpayable",
      "type": "function"
    },
    {
      "constant": false,
      "inputs": [
        {
          "internalType": "contract IContractRegistry",
          "name": "_contractRegistry",
          "type": "address"
        }
      ],
      "name": "setContractRegistry",
      "outputs": [],
      "payable": false,
      "stateMutability": "nonpayable",
      "type": "function"
    },
    {
      "constant": true,
      "inputs": [],
      "name": "getTopology",
      "outputs": [
        {
          "internalType": "address[]",
          "name": "",
          "type": "address[]"
        }
      ],
      "payable": false,
      "stateMutability": "view",
      "type": "function"
    },
    {
      "constant": false,
      "inputs": [
        {
          "internalType": "bytes4",
          "name": "_ip",
          "type": "bytes4"
        },
        {
          "internalType": "address",
          "name": "_orbsAddress",
          "type": "address"
        }
      ],
      "name": "registerValidator",
      "outputs": [],
      "payable": false,
      "stateMutability": "nonpayable",
      "type": "function"
    },
    {
      "constant": false,
      "inputs": [
        {
          "internalType": "bytes4",
          "name": "ip",
          "type": "bytes4"
        }
      ],
      "name": "setValidatorIp",
      "outputs": [],
      "payable": false,
      "stateMutability": "nonpayable",
      "type": "function"
    },
    {
      "constant": false,
      "inputs": [
        {
          "internalType": "address",
          "name": "orbsAddress",
          "type": "address"
        }
      ],
      "name": "setValidatorOrbsAddress",
      "outputs": [],
      "payable": false,
      "stateMutability": "nonpayable",
      "type": "function"
    },
    {
      "constant": false,
      "inputs": [],
      "name": "notifyReadyForCommittee",
      "outputs": [],
      "payable": false,
      "stateMutability": "nonpayable",
      "type": "function"
    },
    {
      "constant": false,
      "inputs": [
        {
          "internalType": "address",
          "name": "to",
          "type": "address"
        }
      ],
      "name": "delegate",
      "outputs": [],
      "payable": false,
      "stateMutability": "nonpayable",
      "type": "function"
    },
    {
      "constant": false,
      "inputs": [
        {
          "internalType": "address",
          "name": "addr",
          "type": "address"
        }
      ],
      "name": "voteOut",
      "outputs": [],
      "payable": false,
      "stateMutability": "nonpayable",
      "type": "function"
    },
    {
      "constant": false,
      "inputs": [
        {
          "internalType": "address[]",
          "name": "validators",
          "type": "address[]"
        }
      ],
      "name": "setBanningVotes",
      "outputs": [],
      "payable": false,
      "stateMutability": "nonpayable",
      "type": "function"
    },
    {
      "constant": true,
      "inputs": [],
      "name": "getTotalGovernanceStake",
      "outputs": [
        {
          "internalType": "uint256",
          "name": "",
          "type": "uint256"
        }
      ],
      "payable": false,
      "stateMutability": "view",
      "type": "function"
    },
    {
      "constant": true,
      "inputs": [
        {
          "internalType": "address",
          "name": "addrs",
          "type": "address"
        }
      ],
      "name": "getBanningVotes",
      "outputs": [
        {
          "internalType": "address[]",
          "name": "",
          "type": "address[]"
        }
      ],
      "payable": false,
      "stateMutability": "view",
      "type": "function"
    },
    {
      "constant": true,
      "inputs": [
        {
          "internalType": "address",
          "name": "addrs",
          "type": "address"
        }
      ],
      "name": "getAccumulatedStakesForBanning",
      "outputs": [
        {
          "internalType": "uint256",
          "name": "",
          "type": "uint256"
        }
      ],
      "payable": false,
      "stateMutability": "view",
      "type": "function"
    },
    {
      "constant": false,
      "inputs": [
        {
          "internalType": "address[]",
          "name": "_stakeOwners",
          "type": "address[]"
        },
        {
          "internalType": "uint256[]",
          "name": "_amounts",
          "type": "uint256[]"
        },
        {
          "internalType": "bool[]",
          "name": "_signs",
          "type": "bool[]"
        },
        {
          "internalType": "uint256[]",
          "name": "_updatedStakes",
          "type": "uint256[]"
        }
      ],
      "name": "stakeChangeBatch",
      "outputs": [],
      "payable": false,
      "stateMutability": "nonpayable",
      "type": "function"
    },
    {
      "constant": true,
      "inputs": [
        {
          "internalType": "address",
          "name": "delegator",
          "type": "address"
        }
      ],
      "name": "getDelegation",
      "outputs": [
        {
          "internalType": "address",
          "name": "",
          "type": "address"
        }
      ],
      "payable": false,
      "stateMutability": "view",
      "type": "function"
    },
    {
      "constant": false,
      "inputs": [
        {
          "internalType": "address",
          "name": "_stakeOwner",
          "type": "address"
        },
        {
          "internalType": "uint256",
          "name": "_amount",
          "type": "uint256"
        },
        {
          "internalType": "bool",
          "name": "_sign",
          "type": "bool"
        },
        {
          "internalType": "uint256",
          "name": "_updatedStake",
          "type": "uint256"
        }
      ],
      "name": "stakeChange",
      "outputs": [],
      "payable": false,
      "stateMutability": "nonpayable",
      "type": "function"
    },
    {
      "constant": false,
      "inputs": [
        {
          "internalType": "address",
          "name": "_stakeOwner",
          "type": "address"
        },
        {
          "internalType": "uint256",
          "name": "_amount",
          "type": "uint256"
        }
      ],
      "name": "stakeMigration",
      "outputs": [],
      "payable": false,
      "stateMutability": "nonpayable",
      "type": "function"
    },
    {
      "constant": false,
      "inputs": [
        {
          "internalType": "address[]",
          "name": "addrs",
          "type": "address[]"
        }
      ],
      "name": "refreshStakes",
      "outputs": [],
      "payable": false,
      "stateMutability": "nonpayable",
      "type": "function"
    },
    {
      "constant": true,
      "inputs": [
        {
          "internalType": "address",
          "name": "v",
          "type": "address"
        }
      ],
      "name": "getGovernanceEffectiveStake",
      "outputs": [
        {
          "internalType": "uint256",
          "name": "",
          "type": "uint256"
        }
      ],
      "payable": false,
      "stateMutability": "view",
      "type": "function"
    }
  ],
  "bytecode": "0x60806040523480156200001157600080fd5b50604051620034a2380380620034a2833981810160405260e08110156200003757600080fd5b508051602082015160408301516060840151608085015160a086015160c09096015194959394929391929091906000620000796001600160e01b036200024916565b600080546001600160a01b0319166001600160a01b0383169081178255604051929350917f8be0079c531659141344cd1fd0a4f28419497f9722a3daafe3b4186f6b6457e0908290a35060008711620001045760405162461bcd60e51b81526004018080602001828103825260268152602001806200347c6026913960400191505060405180910390fd5b868611620001445760405162461bcd60e51b815260040180806020018281038252602d8152602001806200344f602d913960400191505060405180910390fd5b60018460ff161015620001895760405162461bcd60e51b8152600401808060200182810382526028815260200180620033f36028913960400191505060405180910390fd5b60648360ff161115620001ce5760405162461bcd60e51b8152600401808060200182810382526034815260200180620033bf6034913960400191505060405180910390fd5b6064811115620002105760405162461bcd60e51b81526004018080602001828103825260348152602001806200341b6034913960400191505060405180910390fd5b600f9490945560109590955560119390935560ff9081166012556013805460ff191691909316179091556014919091556015556200024d565b3390565b613162806200025d6000396000f3fe608060405234801561001057600080fd5b50600436106101425760003560e01c80638f32d59b116100b8578063aeac85381161007c578063aeac85381461052c578063ce257ab814610552578063dd71f0861461057e578063f2fde38b146105ec578063f4914c2b14610612578063fcd13d651461063857610142565b80638f32d59b1461034e57806390ef9d3f1461036a5780639f0308b8146104c8578063a155e8fe146104fe578063a4e28bfd1461050657610142565b80632b2937681161010a5780632b29376814610289578063440ffaa2146102cb57806354111eef146102f25780635c19a95c14610318578063715018a61461033e5780638da5cb5b1461034657610142565b806303d98f2414610147578063062d47961461019f57806307b490af1461020f5780630e3b7c95146102355780632b266b5f1461026f575b600080fd5b61014f61065e565b60408051602080825283518183015283519192839290830191858101910280838360005b8381101561018b578181015183820152602001610173565b505050509050019250505060405180910390f35b61020d600480360360208110156101b557600080fd5b810190602081018135600160201b8111156101cf57600080fd5b8201836020820111156101e157600080fd5b803590602001918460208302840111600160201b8311171561020257600080fd5b5090925090506106c1565b005b61020d6004803603602081101561022557600080fd5b50356001600160a01b031661085f565b61020d6004803603608081101561024b57600080fd5b506001600160a01b0381351690602081013590604081013515159060600135610a98565b610277610b78565b60408051918252519081900360200190f35b6102af6004803603602081101561029f57600080fd5b50356001600160a01b0316610b7e565b604080516001600160a01b039092168252519081900360200190f35b61020d600480360360208110156102e157600080fd5b50356001600160e01b031916610bb7565b6102776004803603602081101561030857600080fd5b50356001600160a01b0316610c5f565b61020d6004803603602081101561032e57600080fd5b50356001600160a01b0316610c7a565b61020d610dad565b6102af610e50565b610356610e5f565b604080519115158252519081900360200190f35b61020d6004803603608081101561038057600080fd5b810190602081018135600160201b81111561039a57600080fd5b8201836020820111156103ac57600080fd5b803590602001918460208302840111600160201b831117156103cd57600080fd5b919390929091602081019035600160201b8111156103ea57600080fd5b8201836020820111156103fc57600080fd5b803590602001918460208302840111600160201b8311171561041d57600080fd5b919390929091602081019035600160201b81111561043a57600080fd5b82018360208201111561044c57600080fd5b803590602001918460208302840111600160201b8311171561046d57600080fd5b919390929091602081019035600160201b81111561048a57600080fd5b82018360208201111561049c57600080fd5b803590602001918460208302840111600160201b831117156104bd57600080fd5b509092509050610e83565b61020d600480360360408110156104de57600080fd5b5080356001600160e01b03191690602001356001600160a01b031661108e565b61020d61123f565b61014f6004803603602081101561051c57600080fd5b50356001600160a01b031661127b565b61020d6004803603602081101561054257600080fd5b50356001600160a01b03166112f1565b61020d6004803603604081101561056857600080fd5b506001600160a01b0381351690602001356113bd565b61020d6004803603602081101561059457600080fd5b810190602081018135600160201b8111156105ae57600080fd5b8201836020820111156105c057600080fd5b803590602001918460208302840111600160201b831117156105e157600080fd5b509092509050611491565b61020d6004803603602081101561060257600080fd5b50356001600160a01b0316611607565b6102776004803603602081101561062857600080fd5b50356001600160a01b0316611669565b61020d6004803603602081101561064e57600080fd5b50356001600160a01b031661169c565b606060028054806020026020016040519081016040528092919081815260200182805480156106b657602002820191906000526020600020905b81546001600160a01b03168152600190910190602001808311610698575b505050505090505b90565b6001546040805163349f642f60e11b815260206004820181905260076024830152667374616b696e6760c81b604483015291516000936001600160a01b03169263693ec85e9260648082019391829003018186803b15801561072257600080fd5b505afa158015610736573d6000803e3d6000fd5b505050506040513d602081101561074c57600080fd5b5051905060005b8281101561085957600084848381811061076957fe5b905060200201356001600160a01b031690506000836001600160a01b031663e9aea8c8836040518263ffffffff1660e01b815260040180826001600160a01b03166001600160a01b0316815260200191505060206040518083038186803b1580156107d357600080fd5b505afa1580156107e7573d6000803e3d6000fd5b505050506040513d60208110156107fd57600080fd5b50516001600160a01b038316600090815260056020526040902054909150808211156108375761083283828403600185611772565b61084e565b8181111561084e5761084e83838303600085611772565b505050600101610753565b50505050565b600061086a336118a6565b6001600160a01b038082166000908152600960209081526040808320938716835292905290812042905590915080805b600e5481101561094f576000600282815481106108b357fe5b60009182526020822001546001600160a01b031691506108d282611912565b90506108e4858263ffffffff6119a316565b6001600160a01b038084166000908152600960209081526040808320938c1683529290522054909550801580159061092c575060145461092a428363ffffffff611a0416565b105b1561094457610941858363ffffffff6119a316565b94505b50505060010161089a565b50604080516001600160a01b0380861682528616602082015281517fac971f2ca79b7147967ce811386e6359d377ff60b1da73cb6450242f70228ae1929181900390910190a16000821180156109ca575060135460ff166109c7836109bb84606463ffffffff611a4616565b9063ffffffff611a9f16565b10155b156108595760005b600e54811015610a2c57600060096000600284815481106109ef57fe5b60009182526020808320909101546001600160a01b0390811684528382019490945260409283018220938a168252929092529020556001016109d2565b506001600160a01b0384166000908152600460205260409020805460ff19169055610a5684611ae1565b604080516001600160a01b038616815290517fd92892bb6e03a094fd4158a5be245bd60499d98cd400bbe811103b0ff83f3d2a9181900360200190a150505050565b6001546040805163349f642f60e11b815260206004820181905260076024830152667374616b696e6760c81b604483015291516001600160a01b039093169263693ec85e92606480840193919291829003018186803b158015610afa57600080fd5b505afa158015610b0e573d6000803e3d6000fd5b505050506040513d6020811015610b2457600080fd5b50516001600160a01b03163314610b6c5760405162461bcd60e51b81526004018080602001828103825260228152602001806130bd6022913960400191505060405180910390fd5b61085984848484611772565b60075490565b6000610b8982611b4f565b15610b95575080610bb2565b506001600160a01b03808216600090815260086020526040902054165b919050565b3360009081526003602052604090205460ff16610c1b576040805162461bcd60e51b815260206004820152601b60248201527f56616c696461746f72206973206e6f7420726567697374657265640000000000604482015290519081900360640190fd5b336000818152600360205260408120805464ffffffff00191661010060e086901c0217905590610c4a90611b95565b9150508015610c5b57610c5b611bfd565b5050565b6001600160a01b03166000908152600b602052604090205490565b336000908152600860205260409020546001600160a01b031680610c9b5750335b6000610ca682611669565b90506000610cb384611669565b3360008181526008602090815260409182902080546001600160a01b0319166001600160a01b038a1690811790915582519384529083015280519293507f4bc154dd35d6a5cb9206482ecb473cdbf2473006d6bce728b9cc0741bcc59ea292918290030190a1336000908152600560209081526040808320546001600160a01b0387168452600690925290912054610d5d908590610d57908463ffffffff611a0416565b85611dea565b6001600160a01b038516600090815260066020526040902054610d92908690610d8c908463ffffffff6119a316565b84611dea565b610d9c8484611ed0565b610da68583611ed0565b5050505050565b610db5610e5f565b610e06576040805162461bcd60e51b815260206004820181905260248201527f4f776e61626c653a2063616c6c6572206973206e6f7420746865206f776e6572604482015290519081900360640190fd5b600080546040516001600160a01b03909116907f8be0079c531659141344cd1fd0a4f28419497f9722a3daafe3b4186f6b6457e0908390a3600080546001600160a01b0319169055565b6000546001600160a01b031690565b600080546001600160a01b0316610e74611fd9565b6001600160a01b031614905090565b6001546040805163349f642f60e11b815260206004820181905260076024830152667374616b696e6760c81b604483015291516001600160a01b039093169263693ec85e92606480840193919291829003018186803b158015610ee557600080fd5b505afa158015610ef9573d6000803e3d6000fd5b505050506040513d6020811015610f0f57600080fd5b50516001600160a01b03163314610f575760405162461bcd60e51b81526004018080602001828103825260228152602001806130bd6022913960400191505060405180910390fd5b868514610f955760405162461bcd60e51b815260040180806020018281038252602e815260200180613100602e913960400191505060405180910390fd5b868314610fd35760405162461bcd60e51b815260040180806020018281038252602c81526020018061303c602c913960400191505060405180910390fd5b8681146110115760405162461bcd60e51b81526004018080602001828103825260348152602001806130686034913960400191505060405180910390fd5b60005b878110156110835761107b89898381811061102b57fe5b905060200201356001600160a01b031688888481811061104757fe5b9050602002013587878581811061105a57fe5b90506020020135151586868681811061106f57fe5b90506020020135611772565b600101611014565b505050505050505050565b3360009081526003602052604090205460ff16156110f3576040805162461bcd60e51b815260206004820152601f60248201527f56616c696461746f7220697320616c7265616479207265676973746572656400604482015290519081900360640190fd5b6001600160a01b03811661114e576040805162461bcd60e51b815260206004820152601d60248201527f6f7262732061646472657373206d757374206265206e6f6e207a65726f000000604482015290519081900360640190fd5b6040805160608082018352600182526001600160e01b0319851660208084018281526001600160a01b03878116868801818152336000818152600387528a812099518a549651935160ff199097169015151764ffffffff00191661010060e09490941c939093029290921765010000000000600160c81b031916600160281b959094169490940292909217909655858152600c835286902080546001600160a01b031916821790558551908152908101919091528084019290925291517f57909684b6b478b58ddc27b75e86cd1c9ee1bd696b74f129b7260e88b418ed0b929181900390910190a1610c5b33611ae1565b600061124a336118a6565b6001600160a01b0381166000908152600460205260409020805460ff19166001179055905061127881611ae1565b50565b6001600160a01b0381166000908152600a60209081526040918290208054835181840281018401909452808452606093928301828280156112e557602002820191906000526020600020905b81546001600160a01b031681526001909101906020018083116112c7575b50505050509050919050565b3360009081526003602052604090205460ff16611355576040805162461bcd60e51b815260206004820152601b60248201527f56616c696461746f72206973206e6f7420726567697374657265640000000000604482015290519081900360640190fd5b336000818152600360205260408120805465010000000000600160c81b031916600160281b6001600160a01b0386160217905590819061139490611b95565b9150915080156113b8576113a6611bfd565b600e548210156113b8576113b8611fdd565b505050565b6001546040805163349f642f60e11b815260206004820181905260076024830152667374616b696e6760c81b604483015291516001600160a01b039093169263693ec85e92606480840193919291829003018186803b15801561141f57600080fd5b505afa158015611433573d6000803e3d6000fd5b505050506040513d602081101561144957600080fd5b50516001600160a01b03163314610c5b5760405162461bcd60e51b81526004018080602001828103825260228152602001806130bd6022913960400191505060405180910390fd5b60038111156114d15760405162461bcd60e51b8152600401808060200182810382526026815260200180612ff06026913960400191505060405180910390fd5b60005b818110156115485760008383838181106114ea57fe5b905060200201356001600160a01b03166001600160a01b031614156115405760405162461bcd60e51b81526004018080602001828103825260218152602001806130df6021913960400191505060405180910390fd5b6001016114d4565b50611586338383808060200260200160405190810160405280939291908181526020018383602002808284376000920191909152506123a292505050565b7f7ac5224b130f3c42c4c9ef22066e661200e25661ed62be74d0a102933a6f795033838360405180846001600160a01b03166001600160a01b03168152602001806020018281038252848482818152602001925060200280828437600083820152604051601f909101601f1916909201829003965090945050505050a15050565b61160f610e5f565b611660576040805162461bcd60e51b815260206004820181905260248201527f4f776e61626c653a2063616c6c6572206973206e6f7420746865206f776e6572604482015290519081900360640190fd5b611278816125f1565b600061167482611b4f565b61168057506000610bb2565b506001600160a01b031660009081526006602052604090205490565b6116a4610e5f565b6116f5576040805162461bcd60e51b815260206004820181905260248201527f4f776e61626c653a2063616c6c6572206973206e6f7420746865206f776e6572604482015290519081900360640190fd5b6001600160a01b038116611750576040805162461bcd60e51b815260206004820152601e60248201527f636f6e74726163745265676973747279206d757374206e6f7420626520300000604482015290519081900360640190fd5b600180546001600160a01b0319166001600160a01b0392909216919091179055565b6001600160a01b0380851660009081526008602052604090205416806117955750835b60006117a086611669565b905060006117ad83611669565b90506000808615611814576001600160a01b0389166000908152600560205260409020546117e1908963ffffffff6119a316565b6001600160a01b03861660009081526006602052604090205490915061180d908963ffffffff6119a316565b915061186c565b6001600160a01b03891660009081526005602052604090205461183d908963ffffffff611a0416565b6001600160a01b038616600090815260066020526040902054909150611869908963ffffffff611a0416565b91505b6001600160a01b0389166000908152600560205260409020819055611892858385611dea565b61189c8985611ed0565b6110838584611ed0565b6001600160a01b038082166000908152600c60205260408120549091168061190c576040805162461bcd60e51b8152602060048201526014602482015273756e6b6e6f776e206f726273206164647265737360601b604482015290519081900360640190fd5b92915050565b6001600160a01b03811660009081526005602052604081205461193483611b4f565b158061193e575080155b1561194d576000915050610bb2565b6001600160a01b0383166000908152600660205260409020546012548061197a838563ffffffff611a9f16565b101561198a57509150610bb29050565b61199a838263ffffffff611a4616565b95945050505050565b6000828201838110156119fd576040805162461bcd60e51b815260206004820152601b60248201527f536166654d6174683a206164646974696f6e206f766572666c6f770000000000604482015290519081900360640190fd5b9392505050565b60006119fd83836040518060400160405280601e81526020017f536166654d6174683a207375627472616374696f6e206f766572666c6f770000815250612691565b600082611a555750600061190c565b82820282848281611a6257fe5b04146119fd5760405162461bcd60e51b815260040180806020018281038252602181526020018061309c6021913960400191505060405180910390fd5b60006119fd83836040518060400160405280601a81526020017f536166654d6174683a206469766973696f6e206279207a65726f000000000000815250612728565b600080611aed83611b95565b91509150808015611b045750611b028361278d565b155b15611b1957611b12826127ec565b5050611278565b8015611b2857611b12826128be565b611b318361278d565b8015611b415750611b41836128ff565b156113b857611b1283612950565b6001600160a01b03818116600090815260086020526040812054909116158061190c5750506001600160a01b039081166000818152600860205260409020549091161490565b6002546000908190815b81811015611bee57846001600160a01b031660028281548110611bbe57fe5b6000918252602090912001546001600160a01b03161415611be657925060019150611bf89050565b600101611b9f565b5060009250829150505b915091565b6011546002541115611c0b57fe5b6002546040805182815260208084028201019091526060918015611c39578160200160208202803883390190505b5090506060600280549050604051908082528060200260200182016040528015611c6d578160200160208202803883390190505b50905060005b8251811015611d2a5760006003600060028481548110611c8f57fe5b60009182526020808320909101546001600160a01b039081168452908301939093526040909101902080548651919350600160281b900490911690859084908110611cd657fe5b6001600160a01b03909216602092830291909101909101528054835161010090910460e01b90849084908110611d0857fe5b6001600160e01b03199092166020928302919091019091015250600101611c73565b507f58a788fb4ea74e40828f43ed08c1a583ed983591c765fb52386456342a2fc8dd8282604051808060200180602001838103835285818151815260200191508051906020019060200280838360005b83811015611d92578181015183820152602001611d7a565b50505050905001838103825284818151815260200191508051906020019060200280838360005b83811015611dd1578181015183820152602001611db9565b5050505090500194505050505060405180910390a15050565b6001600160a01b0383166000908152600660205260408120839055611e0e84611669565b9050611e3581611e2984600754611a0490919063ffffffff16565b9063ffffffff6119a316565b6007556001600160a01b0384166000908152600560205260409020547f5f67bdaf5902b0de3e5deda6467c73b992ee58afe0034455a329fb68e16fa0b390859085611e7f83611669565b611e8889611912565b600754604080516001600160a01b0390971687526020870195909552858501939093526060850191909152608084015260a0830152519081900360c00190a161085984611ae1565b6001600160a01b0382166000908152600a6020908152604091829020805483518184028101840190945280845260609392830182828015611f3a57602002820191906000526020600020905b81546001600160a01b03168152600190910190602001808311611f1c575b505050505090506000611f4c84611669565b905060005b8251811015610da6576000838281518110611f6857fe5b60200260200101519050611fae83611e2987600b6000866001600160a01b03166001600160a01b0316815260200190815260200160002054611a0490919063ffffffff16565b6001600160a01b0382166000908152600b6020526040902055611fd0816129f2565b50600101611f51565b3390565b6060611fe7612b42565b905060608151604051908082528060200260200182016040528015612016578160200160208202803883390190505b50905060608251604051908082528060200260200182016040528015612046578160200160208202803883390190505b50905060005b8351811015612127576000600360006002848154811061206857fe5b60009182526020808320909101546001600160a01b039081168452908301939093526040909101902080548651919350600160281b9004909116908590849081106120af57fe5b60200260200101906001600160a01b031690816001600160a01b031681525050600282815481106120dc57fe5b9060005260206000200160009054906101000a90046001600160a01b031683838151811061210657fe5b6001600160a01b03909216602092830291909101909101525060010161204c565b506001546040805163349f642f60e11b815260206004820181905260076024830152667265776172647360c81b604483015291516000936001600160a01b03169263693ec85e9260648082019391829003018186803b15801561218957600080fd5b505afa15801561219d573d6000803e3d6000fd5b505050506040513d60208110156121b357600080fd5b505160408051630ec1d7cd60e41b8152600481019182528451604482015284519293506001600160a01b0384169263ec1d7cd09286928992829160248101916064909101906020878101910280838360005b8381101561221d578181015183820152602001612205565b50505050905001838103825284818151815260200191508051906020019060200280838360005b8381101561225c578181015183820152602001612244565b50505050905001945050505050600060405180830381600087803b15801561228357600080fd5b505af1158015612297573d6000803e3d6000fd5b505050507f358985de382ec88d0cdef6fb061ea3b2f47e200f34dc61f78e4ed0506b97fe5382848660405180806020018060200180602001848103845287818151815260200191508051906020019060200280838360005b838110156123075781810151838201526020016122ef565b50505050905001848103835286818151815260200191508051906020019060200280838360005b8381101561234657818101518382015260200161232e565b50505050905001848103825285818151815260200191508051906020019060200280838360005b8381101561238557818101518382015260200161236d565b50505050905001965050505050505060405180910390a150505050565b6001600160a01b0382166000908152600a602090815260409182902080548351818402810184019094528084526060939283018282801561240c57602002820191906000526020600020905b81546001600160a01b031681526001909101906020018083116123ee575b5050506001600160a01b0386166000908152600a602090815260409091208651949550612440949093509086019150612f28565b5060005b815181101561251857600082828151811061245b57fe5b60209081029190910101519050600160005b85518110156124b45785818151811061248257fe5b60200260200101516001600160a01b0316836001600160a01b031614156124ac57600091506124b4565b60010161246d565b50801561250e576124ec6124c733611669565b6001600160a01b0384166000908152600b60205260409020549063ffffffff611a0416565b6001600160a01b0383166000908152600b602052604090205561250e826129f2565b5050600101612444565b5060005b825181101561085957600083828151811061253357fe5b60209081029190910101519050600160005b845181101561258c57826001600160a01b031685828151811061256457fe5b60200260200101516001600160a01b03161415612584576000915061258c565b600101612545565b5080156125de576125c461259f33611669565b6001600160a01b0384166000908152600b60205260409020549063ffffffff6119a316565b6001600160a01b0383166000908152600b60205260409020555b6125e7826129f2565b505060010161251c565b6001600160a01b0381166126365760405162461bcd60e51b81526004018080602001828103825260268152602001806130166026913960400191505060405180910390fd5b600080546040516001600160a01b03808516939216917f8be0079c531659141344cd1fd0a4f28419497f9722a3daafe3b4186f6b6457e091a3600080546001600160a01b0319166001600160a01b0392909216919091179055565b600081848411156127205760405162461bcd60e51b81526004018080602001828103825283818151815260200191508051906020019080838360005b838110156126e55781810151838201526020016126cd565b50505050905090810190601f1680156127125780820380516001836020036101000a031916815260200191505b509250505060405180910390fd5b505050900390565b600081836127775760405162461bcd60e51b81526020600482018181528351602484015283519092839260449091019190850190808383600083156126e55781810151838201526020016126cd565b50600083858161278357fe5b0495945050505050565b6001600160a01b038082166000908152600d60209081526040808320546003909252822054919290151591600160281b900416158015906127cc575080155b80156127dc57506127dc83611b4f565b80156119fd57506119fd83612b54565b6002546127f557fe5b600254811061280057fe5b805b60025460001901811015612877576002816001018154811061282057fe5b600091825260209091200154600280546001600160a01b03909216918390811061284657fe5b600091825260209091200180546001600160a01b0319166001600160a01b0392909216919091179055600101612802565b5060028054600019019061288b9082612f8d565b50600080612897612b8d565b9150915080821415806128a957508083105b156128b6576128b6611fdd565b6113b8611bfd565b60006128c982612c6c565b90506000806128d6612b8d565b9150915080821415806128e857508084105b806128f257508083105b1561085957610859611fdd565b601154600254600091118061190c5750600280546129409190600019810190811061292657fe5b6000918252602090912001546001600160a01b0316611912565b61294983611912565b1192915050565b60025460115460001982019110156129795760028054906129749060018301612f8d565b506001015b816002828154811061298757fe5b9060005260206000200160006101000a8154816001600160a01b0302191690836001600160a01b031602179055506129be81612c6c565b90506000806129cb612b8d565b9150915080821415806129dd57508083105b156129ea576129ea611fdd565b610859611bfd565b6001600160a01b0381166000908152600d602052604090205480158015908190612a2e575062093a80612a2b428463ffffffff611a0416565b10155b15612a3a575050611278565b6001600160a01b0383166000908152600b602052604081205460075490919015801590612a805750601554600754612a7d906109bb85606463ffffffff611a4616565b10155b905080151583151514610da6578015612ae8576001600160a01b0385166000818152600d6020908152604091829020429055815192835290517f30d1df1214d91553408ca5384ce29e10e5866af8423c628be22860e41fb810059281900390910190a1612b39565b6001600160a01b0385166000818152600d6020908152604080832092909255815192835290517f2ab91b53354938415bb6962c4322231cd4cb2c84930f1a4b9abbedc2fe8abe729281900390910190a15b610da685611ae1565b6060612b4f600e54612cf7565b905090565b6001600160a01b038116600090815260056020526040812054600f541180159061190c5750612b8282611912565b600f54111592915050565b600e546000908190805b600082118015612beb5750600254821180612beb57506004600060026001850381548110612bc157fe5b60009182526020808320909101546001600160a01b0316835282019290925260400190205460ff16155b15612bfc5760001990910190612b97565b60025482108015612c4257506004600060028481548110612c1957fe5b60009182526020808320909101546001600160a01b0316835282019290925260400190205460ff165b8015612c4f575060105482105b15612c5f57600190910190612bfc565b600e829055925090509091565b600254600090828111612c7b57fe5b600083118015612c9757506000612c958460018603612d92565b135b15612cb557612ca96001840384612e5c565b60001990920191612c7b565b6001810383108015612cd357506000612cd18485600101612d92565b125b15612cf057612ce58384600101612e5c565b600190920191612cb5565b5090919050565b6060601154821115612d0557fe5b600254821115612d155760025491505b606082604051908082528060200260200182016040528015612d41578160200160208202803883390190505b50905060005b8381108015612d57575060025481105b15612d8b57612d6c6002828154811061292657fe5b828281518110612d7857fe5b6020908102919091010152600101612d47565b5092915050565b60008060028481548110612da257fe5b60009182526020808320909101546001600160a01b03168083526004909152604082205490925060ff1690612dd683611912565b9050600060028681548110612de757fe5b60009182526020808320909101546001600160a01b03168083526004909152604082205490925060ff1690612e1b83611912565b9050848015612e28575081155b80612e405750811515851515148015612e4057508084115b612e4c57600019612e4f565b60015b9998505050505050505050565b600060028381548110612e6b57fe5b600091825260209091200154600280546001600160a01b0390921692509083908110612e9357fe5b600091825260209091200154600280546001600160a01b039092169185908110612eb957fe5b9060005260206000200160006101000a8154816001600160a01b0302191690836001600160a01b031602179055508060028381548110612ef557fe5b9060005260206000200160006101000a8154816001600160a01b0302191690836001600160a01b03160217905550505050565b828054828255906000526020600020908101928215612f7d579160200282015b82811115612f7d57825182546001600160a01b0319166001600160a01b03909116178255602090920191600190910190612f48565b50612f89929150612fb1565b5090565b8154818355818111156113b8576000838152602090206113b8918101908301612fd5565b6106be91905b80821115612f895780546001600160a01b0319168155600101612fb7565b6106be91905b80821115612f895760008155600101612fdb56fe757020746f203320636f6e63757272656e7420766f7465732061726520737570706f727465644f776e61626c653a206e6577206f776e657220697320746865207a65726f20616464726573735f7374616b654f776e6572732c205f7369676e73202d206172726179206c656e677468206d69736d617463685f7374616b654f776e6572732c205f757064617465645374616b6573202d206172726179206c656e677468206d69736d61746368536166654d6174683a206d756c7469706c69636174696f6e206f766572666c6f7763616c6c6572206973206e6f7420746865207374616b696e6720636f6e7472616374616c6c20766f746573206d757374206e6f6e207a65726f206164647265737365735f7374616b654f776e6572732c205f616d6f756e7473202d206172726179206c656e677468206d69736d61746368a265627a7a72315820e7f332d478e47012af664004cae3928f36f99fb3d4a9b2a5d0171052ee86fc6664736f6c63430005100032766f74654f757450657263656e746167655468726573686f6c64206d757374206265206265747765656e203020616e64203130306d61782064656c65676174696f6e20726174696f6e206d757374206265206174206c65617374203162616e6e696e6750657263656e746167655468726573686f6c64206d757374206265206265747765656e203020616e6420313030746f706f6c6f6779206d757374206265206c6172676572207468616e20612066756c6c20636f6d6d69747465656d6178436f6d6d697474656553697a65206d757374206265206c6172676572207468616e2030",
  "source": "pragma solidity 0.5.16;\n\nimport \"@openzeppelin/contracts/math/SafeMath.sol\";\nimport \"@openzeppelin/contracts/math/Math.sol\";\nimport \"@openzeppelin/contracts/ownership/Ownable.sol\";\n\nimport \"./interfaces/ICommitteeListener.sol\";\nimport \"./interfaces/IElections.sol\";\nimport \"./interfaces/IContractRegistry.sol\";\nimport \"./IStakingContract.sol\";\n\ncontract Elections is IElections, IStakeChangeNotifier, Ownable {\n\tusing SafeMath for uint256;\n\n\tIContractRegistry contractRegistry;\n\n\tevent Debug(string,uint256);\n\n    uint256 constant BANNING_LOCK_TIMEOUT = 1 weeks;\n\n\taddress[] topology;\n\n\tstruct Validator {\n\t\tbool registered;\n\t\tbytes4 ip;\n\t\taddress orbsAddress;\n\t}\n\n\t// TODO consider using structs instead of multiple mappings\n\tmapping (address => Validator) registeredValidators;\n\tmapping (address => bool) readyValidators; // TODO if out-of-topology validators cannot be be ready-for-committee, this mapping can be replaced by a single uint\n\n\tmapping (address => uint256) ownStakes;\n\tmapping (address => uint256) uncappedStakes;\n\tuint256 totalGovernanceStake;\n\n\tmapping (address => address) delegations;\n\tmapping (address => mapping (address => uint256)) voteOuts; // by => to => timestamp\n\tmapping (address => address[]) banningVotes; // by => to[]]\n\tmapping (address => uint256) accumulatedStakesForBanning; // addr => total stake\n\tmapping (address => address) orbsAddressToMainAddress;\n\tmapping (address => uint256) bannedValidators; // addr => timestamp\n\n\tuint committeeSize; // TODO may be redundant if readyValidators mapping is present\n\n\tuint minimumStake;\n\tuint maxCommitteeSize;\n\tuint maxTopologySize;\n\tuint maxDelegationRatio; // TODO consider using a hardcoded constant instead.\n\tuint8 voteOutPercentageThreshold;\n\tuint256 voteOutTimeoutSeconds;\n\tuint256 banningPercentageThreshold;\n\n\tmodifier onlyStakingContract() {\n\t\trequire(msg.sender == contractRegistry.get(\"staking\"), \"caller is not the staking contract\");\n\n\t\t_;\n\t}\n\n\tconstructor(uint _maxCommitteeSize, uint _maxTopologySize, uint _minimumStake /* TODO remove, feature not needed */, uint8 _maxDelegationRatio, uint8 _voteOutPercentageThreshold, uint256 _voteOutTimeoutSeconds, uint256 _banningPercentageThreshold) public {\n\t\trequire(_maxCommitteeSize > 0, \"maxCommitteeSize must be larger than 0\");\n\t\trequire(_maxTopologySize > _maxCommitteeSize, \"topology must be larger than a full committee\");\n\t\trequire(_maxDelegationRatio >= 1, \"max delegation ration must be at least 1\");\n\t\trequire(_voteOutPercentageThreshold >= 0 && _voteOutPercentageThreshold <= 100, \"voteOutPercentageThreshold must be between 0 and 100\");\n\t\trequire(_banningPercentageThreshold >= 0 && _banningPercentageThreshold <= 100, \"banningPercentageThreshold must be between 0 and 100\");\n\n\t\tminimumStake = _minimumStake;\n\t\tmaxCommitteeSize = _maxCommitteeSize;\n\t\tmaxTopologySize = _maxTopologySize;\n\t    maxDelegationRatio = _maxDelegationRatio;\n\t\tvoteOutPercentageThreshold = _voteOutPercentageThreshold;\n\t\tvoteOutTimeoutSeconds = _voteOutTimeoutSeconds;\n\t\tbanningPercentageThreshold = _banningPercentageThreshold;\n\t}\n\n\tfunction setContractRegistry(IContractRegistry _contractRegistry) external onlyOwner {\n\t\trequire(_contractRegistry != IContractRegistry(0), \"contractRegistry must not be 0\");\n\t\tcontractRegistry = _contractRegistry;\n\t}\n\n\tfunction getTopology() external view returns (address[] memory) {\n\t\treturn topology;\n\t}\n\n\tfunction registerValidator(bytes4 _ip, address _orbsAddress) external  {\n\t\trequire(registeredValidators[msg.sender].registered == false, \"Validator is already registered\");\n\t\trequire(_orbsAddress != address(0), \"orbs address must be non zero\");\n\n\t\tregisteredValidators[msg.sender] =  Validator({\n\t\t\tregistered: true,\n\t\t\torbsAddress: _orbsAddress,\n\t\t\tip: _ip\n\t\t});\n\n\t\torbsAddressToMainAddress[_orbsAddress] = msg.sender;\n\t\temit ValidatorRegistered(msg.sender, _ip, _orbsAddress);\n\n\t\t_rankValidator(msg.sender);\n\t}\n\n\tfunction setValidatorIp(bytes4 ip) external {\n\t\trequire(registeredValidators[msg.sender].registered, \"Validator is not registered\");\n\t\tregisteredValidators[msg.sender].ip = ip;\n\t\t(, bool isInTopology) = _findInTopology(msg.sender);\n\t\tif (isInTopology) {\n\t\t\t_notifyTopologyChanged();\n\t\t}\n\t}\n\n\tfunction setValidatorOrbsAddress(address orbsAddress) external {\n\t\trequire(registeredValidators[msg.sender].registered, \"Validator is not registered\");\n\t\tregisteredValidators[msg.sender].orbsAddress = orbsAddress;\n\t\t(uint pos, bool isInTopology) = _findInTopology(msg.sender);\n\t\tif (isInTopology) {\n\t\t\t_notifyTopologyChanged();\n\t\t\tif (pos < committeeSize) {\n\t\t\t\t_notifyCommitteeChanged();\n\t\t\t}\n\t\t}\n\t}\n\n\tfunction notifyReadyForCommittee() external {\n\t\taddress sender = getMainAddrFromOrbsAddr(msg.sender);\n\t\treadyValidators[sender] = true;\n\t\t_rankValidator(sender);\n\t}\n\n\tfunction delegate(address to) external {\n\t\taddress prevDelegatee = delegations[msg.sender];\n        if (prevDelegatee == address(0)) {\n            prevDelegatee = msg.sender;\n        }\n\n\t\tuint256 prevGovStakePrevDelegatee = getGovernanceEffectiveStake(prevDelegatee);\n\t\tuint256 prevGovStakeNewDelegatee = getGovernanceEffectiveStake(to);\n\n\t\tdelegations[msg.sender] = to; // delegation!\n\t\temit Delegated(msg.sender, to);\n\n\t\tuint256 stake = ownStakes[msg.sender];\n\n        _applyDelegatedStake(prevDelegatee, uncappedStakes[prevDelegatee].sub(stake), prevGovStakePrevDelegatee);\n\t\t_applyDelegatedStake(to, uncappedStakes[to].add(stake), prevGovStakeNewDelegatee);\n\n\t\t_applyStakesToBanningBy(prevDelegatee, prevGovStakePrevDelegatee);\n\t\t_applyStakesToBanningBy(to, prevGovStakeNewDelegatee);\n\t}\n\n\tfunction voteOut(address addr) external {\n\t\taddress sender = getMainAddrFromOrbsAddr(msg.sender);\n\t\tuint256 totalCommitteeStake = 0;\n\t\tuint256 totalVoteOutStake = 0;\n\n\t\tvoteOuts[sender][addr] = now;\n\t\tfor (uint i = 0; i < committeeSize; i++) {\n\t\t\taddress member = topology[i];\n\t\t\tuint256 memberStake = getCommitteeEffectiveStake(member);\n\n\t\t\ttotalCommitteeStake = totalCommitteeStake.add(memberStake);\n\t\t\tuint256 votedAt = voteOuts[member][addr];\n\t\t\tif (votedAt != 0 && now.sub(votedAt) < voteOutTimeoutSeconds) {\n\t\t\t\ttotalVoteOutStake = totalVoteOutStake.add(memberStake);\n\t\t\t}\n\t\t\t// TODO - consider clearing up stale votes from the state (gas efficiency)\n\t\t}\n\n\t\temit VoteOut(sender, addr);\n\n\t\tif (totalCommitteeStake > 0 && totalVoteOutStake.mul(100).div(totalCommitteeStake) >= voteOutPercentageThreshold) {\n\t\t\tfor (uint i = 0; i < committeeSize; i++) {\n\t\t\t\tvoteOuts[topology[i]][addr] = 0; // clear vote-outs\n\t\t\t}\n\t\t\treadyValidators[addr] = false;\n\t\t\t_rankValidator(addr);\n\n\t\t\temit VotedOutOfCommittee(addr);\n\t\t}\n\n\t}\n\n\tfunction setBanningVotes(address[] calldata validators) external {\n\t\trequire(validators.length <= 3, \"up to 3 concurrent votes are supported\");\n\t\tfor (uint i = 0; i < validators.length; i++) {\n\t\t\trequire(validators[i] != address(0), \"all votes must non zero addresses\");\n\t\t\t// TODO - uncomment?\n\t\t\t//require(registeredValidators[validators[i]].registered, \"all votes must be of registered validators\");\n\t\t}\n        _setBanningVotes(msg.sender, validators);\n\t\temit BanningVote(msg.sender, validators);\n\t}\n\n\tfunction getTotalGovernanceStake() external view returns (uint256) {\n\t\treturn totalGovernanceStake;\n\t}\n\n\tfunction getBanningVotes(address addrs) external view returns (address[] memory) {\n\t\treturn banningVotes[addrs];\n\t}\n\n\tfunction getAccumulatedStakesForBanning(address addrs) external view returns (uint256) {\n\t\treturn accumulatedStakesForBanning[addrs];\n\t}\n\n\tfunction _applyStakesToBanningBy(address voter, uint256 previousStake) private {\n\t\taddress[] memory votes = banningVotes[voter];\n\t\tuint256 currentStake = getGovernanceEffectiveStake(voter);\n\n\t\tfor (uint i = 0; i < votes.length; i++) {\n\t\t\taddress validator = votes[i];\n\t\t\taccumulatedStakesForBanning[validator] = accumulatedStakesForBanning[validator].\n\t\t\t\tsub(previousStake).\n\t\t\t\tadd(currentStake);\n\t\t\t_applyBanningVotesFor(validator);\n\t\t}\n\t}\n\n    function _setBanningVotes(address voter, address[] memory validators) private {\n\t\taddress[] memory prevAddrs = banningVotes[voter];\n\t\tbanningVotes[voter] = validators;\n\n\t\tfor (uint i = 0; i < prevAddrs.length; i++) {\n\t\t\taddress addr = prevAddrs[i];\n\t\t\tbool isRemoved = true;\n\t\t\tfor (uint j = 0; j < validators.length; j++) {\n\t\t\t\tif (addr == validators[j]) {\n\t\t\t\t\tisRemoved = false;\n\t\t\t\t\tbreak;\n\t\t\t\t}\n\t\t\t}\n\t\t\tif (isRemoved) {\n\t\t\t\taccumulatedStakesForBanning[addr] = accumulatedStakesForBanning[addr].sub(getGovernanceEffectiveStake(msg.sender));\n\t\t\t\t_applyBanningVotesFor(addr);\n\t\t\t}\n\t\t}\n\n\t\tfor (uint i = 0; i < validators.length; i++) {\n\t\t\taddress addr = validators[i];\n\t\t\tbool isAdded = true;\n\t\t\tfor (uint j = 0; j < prevAddrs.length; j++) {\n\t\t\t\tif (prevAddrs[j] == addr) {\n\t\t\t\t\tisAdded = false;\n\t\t\t\t\tbreak;\n\t\t\t\t}\n\t\t\t}\n\t\t\tif (isAdded) {\n\t\t\t\taccumulatedStakesForBanning[addr] = accumulatedStakesForBanning[addr].add(getGovernanceEffectiveStake(msg.sender));\n\t\t\t}\n\t\t\t_applyBanningVotesFor(addr); // recheck also if not new\n\t\t}\n    }\n\n    function _applyBanningVotesFor(address addr) private {\n        uint256 banningTimestamp = bannedValidators[addr];\n        bool isBanned = banningTimestamp != 0;\n\n        if (isBanned && now.sub(banningTimestamp) >= BANNING_LOCK_TIMEOUT) { // no unbanning after 7 days\n            return;\n        }\n\n        uint256 banningStake = accumulatedStakesForBanning[addr];\n\n        bool shouldBan = totalGovernanceStake > 0 && banningStake.mul(100).div(totalGovernanceStake) >= banningPercentageThreshold;\n\n        if (isBanned != shouldBan) {\n\t\t\tif (shouldBan) {\n                bannedValidators[addr] = now;\n\t\t\t\temit Banned(addr);\n\t\t\t} else {\n                bannedValidators[addr] = 0;\n\t\t\t\temit Unbanned(addr);\n\t\t\t}\n            _rankValidator(addr);\n        }\n    }\n\n    function stakeChangeBatch(address[] calldata _stakeOwners, uint256[] calldata _amounts, bool[] calldata _signs,\n\t\tuint256[] calldata _updatedStakes) external onlyStakingContract {\n\t\trequire(_stakeOwners.length == _amounts.length, \"_stakeOwners, _amounts - array length mismatch\");\n\t\trequire(_stakeOwners.length == _signs.length, \"_stakeOwners, _signs - array length mismatch\");\n\t\trequire(_stakeOwners.length == _updatedStakes.length, \"_stakeOwners, _updatedStakes - array length mismatch\");\n\n\t\tfor (uint i = 0; i < _stakeOwners.length; i++) {\n\t\t\t_stakeChange(_stakeOwners[i], _amounts[i], _signs[i], _updatedStakes[i]);\n\t\t}\n\t}\n\n\tfunction getDelegation(address delegator) external view returns (address) {\n\t\tif (_isSelfDelegating(delegator)) {\n\t\t\treturn delegator;\n\t\t}\n\t\treturn delegations[delegator];\n\t}\n\n\tfunction stakeChange(address _stakeOwner, uint256 _amount, bool _sign, uint256 _updatedStake) external onlyStakingContract {\n\t\t_stakeChange(_stakeOwner, _amount, _sign, _updatedStake);\n\t}\n\n\tfunction _stakeChange(address _stakeOwner, uint256 _amount, bool _sign, uint256 /* _updatedStake */) private {\n\t\taddress delegatee = delegations[_stakeOwner];\n\t\tif (delegatee == address(0)) {\n\t\t\tdelegatee = _stakeOwner;\n\t\t}\n\n\t\tuint256 prevGovStakeOwner = getGovernanceEffectiveStake(_stakeOwner);\n\t\tuint256 prevGovStakeDelegatee = getGovernanceEffectiveStake(delegatee);\n\n\t\tuint256 newUncappedStake;\n\t\tuint256 newOwnStake;\n\t\tif (_sign) {\n\t\t\tnewOwnStake = ownStakes[_stakeOwner].add(_amount);\n\t\t\tnewUncappedStake = uncappedStakes[delegatee].add(_amount);\n\t\t} else {\n\t\t\tnewOwnStake = ownStakes[_stakeOwner].sub(_amount);\n\t\t\tnewUncappedStake = uncappedStakes[delegatee].sub(_amount);\n\t\t}\n\t\townStakes[_stakeOwner] = newOwnStake;\n\n\t\t_applyDelegatedStake(delegatee, newUncappedStake, prevGovStakeDelegatee);\n\n\t\t_applyStakesToBanningBy(_stakeOwner, prevGovStakeOwner); // totalGovernanceStake must be updated by now\n\t\t_applyStakesToBanningBy(delegatee, prevGovStakeDelegatee); // totalGovernanceStake must be updated by now\n\t}\n\n\tfunction stakeMigration(address _stakeOwner, uint256 _amount) external onlyStakingContract {}\n\n\tfunction refreshStakes(address[] calldata addrs) external {\n\t\tIStakingContract staking = IStakingContract(contractRegistry.get(\"staking\"));\n\n\t\tfor (uint i = 0; i < addrs.length; i++) {\n\t\t\taddress staker = addrs[i];\n\t\t\tuint256 newOwnStake = staking.getStakeBalanceOf(staker);\n\t\t\tuint256 oldOwnStake = ownStakes[staker];\n\t\t\tif (newOwnStake > oldOwnStake) {\n\t\t\t\t_stakeChange(staker, newOwnStake - oldOwnStake, true, newOwnStake);\n\t\t\t} else if (oldOwnStake > newOwnStake) {\n\t\t\t\t_stakeChange(staker, oldOwnStake - newOwnStake, false, newOwnStake);\n\t\t\t}\n\t\t}\n\t}\n\n\tfunction getMainAddrFromOrbsAddr(address orbsAddr) private view returns (address) {\n\t\taddress sender = orbsAddressToMainAddress[orbsAddr];\n\t\trequire(sender != address(0), \"unknown orbs address\");\n\t\treturn sender;\n\t}\n\n\t// TODO what is the requirement? should an absolute minimum stake be enforced?\n\tfunction _holdsMinimumStake(address validator) private view returns (bool) {\n\t\treturn minimumStake <= ownStakes[validator] && // validator must hold the minimum required stake (own)\n\t\t       minimumStake <= getCommitteeEffectiveStake(validator); // validator must hold the minimum required stake (effective)\n\t}\n\n\tfunction _isSelfDelegating(address validator) private view returns (bool) {\n\t\treturn delegations[validator] == address(0) || delegations[validator] == validator;\n\t}\n\n\tfunction _satisfiesTopologyPrerequisites(address validator) private view returns (bool) {\n\t\tbool isBanned = bannedValidators[validator] != 0;\n        return registeredValidators[validator].orbsAddress != address(0) &&    // validator must be registered\n\t\t\t   !isBanned &&\n\t\t\t   _isSelfDelegating(validator) &&\n\t\t       _holdsMinimumStake(validator);\n\t}\n\n\tfunction _isQualifiedForTopologyByRank(address validator) private view returns (bool) {\n\t\t// this assumes maxTopologySize > maxCommitteeSize, otherwise a non ready-for-committee validator may override one that is ready.\n\t\treturn topology.length < maxTopologySize || // topology is not full\n\t\t\t\tgetCommitteeEffectiveStake(validator) > getCommitteeEffectiveStake(topology[topology.length-1]); // validator has more stake the the bottom topology validator\n\t}\n\n\tfunction _loadStakes(uint limit) private view returns (uint256[] memory) {\n\t\tassert(limit <= maxTopologySize);\n\t\tif (limit > topology.length) {\n\t\t\tlimit = topology.length;\n\t\t}\n\t\tuint256[] memory stakes = new uint256[](limit);\n\t\tfor (uint i=0; i < limit && i < topology.length; i++) {\n\t\t\tstakes[i] = getCommitteeEffectiveStake(topology[i]);\n\t\t}\n\t\treturn stakes;\n\t}\n\n\tfunction _loadTopologyStakes() private view returns (uint256[] memory) {\n\t\treturn _loadStakes(maxTopologySize);\n\t}\n\n\tfunction _loadCommitteeStakes() private view returns (uint256[] memory) {\n\t\treturn _loadStakes(committeeSize);\n\t}\n\n\tfunction _notifyTopologyChanged() private {\n\t\tassert(topology.length <= maxTopologySize);\n\t\taddress[] memory topologyOrbsAddresses = new address[](topology.length);\n\t\tbytes4[] memory ips = new bytes4[](topology.length);\n\n\t\tfor (uint i = 0; i < topologyOrbsAddresses.length; i++) {\n\t\t\tValidator storage val = registeredValidators[topology[i]];\n\t\t\ttopologyOrbsAddresses[i] = val.orbsAddress;\n\t\t\tips[i] = val.ip;\n\t\t}\n\t\temit TopologyChanged(topologyOrbsAddresses, ips);\n\t}\n\n\tfunction _notifyCommitteeChanged() private {\n\t\tuint256[] memory committeeStakes = _loadCommitteeStakes();\n\t\taddress[] memory committeeOrbsAddresses = new address[](committeeStakes.length);\n\t\taddress[] memory committeeAddresses = new address[](committeeStakes.length);\n\t\tfor (uint i = 0; i < committeeStakes.length; i++) {\n\t\t\tValidator storage val = registeredValidators[topology[i]];\n\t\t\tcommitteeOrbsAddresses[i] = val.orbsAddress;\n\t\t\tcommitteeAddresses[i] = topology[i];\n\t\t}\n\t\tICommitteeListener committeeListener = ICommitteeListener(contractRegistry.get(\"rewards\"));\n\t\tcommitteeListener.committeeChanged(committeeAddresses, committeeStakes);\n\t\temit CommitteeChanged(committeeAddresses, committeeOrbsAddresses, committeeStakes);\n\t}\n\n\tfunction _refreshCommitteeSize() private returns (uint, uint) {\n\t\tuint newSize = committeeSize;\n\t\tuint prevSize = newSize;\n\t\twhile (newSize > 0 && (topology.length < newSize || !readyValidators[topology[newSize - 1]])) {\n\t\t\tnewSize--;\n\t\t}\n\t\twhile (topology.length > newSize && readyValidators[topology[newSize]] && newSize < maxCommitteeSize){\n\t\t\tnewSize++;\n\t\t}\n\t\tcommitteeSize = newSize;\n\t\treturn (prevSize, newSize);\n\t}\n\n\tfunction _removeFromTopology(uint pos) private {\n\t\tassert(topology.length > 0);\n\t\tassert(pos < topology.length);\n\n\t\tfor (uint p = pos; p < topology.length - 1; p++) {\n\t\t\ttopology[p] = topology[p + 1];\n\t\t}\n\n\t\ttopology.length = topology.length - 1;\n\t\t(uint prevSize, uint currentSize) = _refreshCommitteeSize();\n\n\t\tif (prevSize != currentSize || pos < currentSize) {\n\t\t\t_notifyCommitteeChanged();\n\t\t}\n\n\t\t_notifyTopologyChanged();\n\t}\n\n\tfunction _appendToTopology(address validator) private {\n\t\tuint pos = topology.length - 1; // current last\n\n\t\tif (topology.length < maxTopologySize) { // extend topology\n\t\t\ttopology.length++;\n\t\t\tpos++;\n\t\t}\n\n\t\ttopology[pos] = validator;\n\n\t\tpos = _repositionTopologyMember(pos);\n\t\t(uint prevSize, uint currentSize) = _refreshCommitteeSize();\n\n\t\tif (prevSize != currentSize || pos < currentSize) {\n\t\t\t_notifyCommitteeChanged();\n\t\t}\n\n\t\t_notifyTopologyChanged();\n\t}\n\n\tfunction _adjustPositionInTopology(uint pos) private {\n\t\tuint newPos = _repositionTopologyMember(pos);\n\t\t(uint prevSize, uint currentSize) = _refreshCommitteeSize();\n\n\t\tif (prevSize != currentSize || pos < currentSize || newPos < currentSize) {\n\t\t\t_notifyCommitteeChanged();\n\t\t}\n\t}\n\n\tfunction _rankValidator(address validator) private {\n\t\t(uint pos, bool inTopology) = _findInTopology(validator);\n\n\t\tif (inTopology && !_satisfiesTopologyPrerequisites(validator)) {\n\t\t\t_removeFromTopology(pos);\n\t\t\treturn;\n\t\t}\n\n\t\tif (inTopology) {\n\t\t\t_adjustPositionInTopology(pos);\n\t\t\treturn;\n\t\t}\n\n\t\tif (_satisfiesTopologyPrerequisites(validator) && _isQualifiedForTopologyByRank(validator)) {\n\t\t\t_appendToTopology(validator);\n\t\t\treturn;\n\t\t}\n\t}\n\n\tfunction _compareValidators(uint v1pos, uint v2pos) private view returns (int) {\n\t\taddress v1 = topology[v1pos];\n\t\tbool v1Ready = readyValidators[v1];\n\t\tuint256 v1Stake = getCommitteeEffectiveStake(v1);\n\t\taddress v2 = topology[v2pos];\n\t\tbool v2Ready = readyValidators[v2];\n\t\tuint256 v2Stake = getCommitteeEffectiveStake(v2);\n\t\treturn v1Ready && !v2Ready || v1Ready == v2Ready && v1Stake > v2Stake ? int(1) : -1;\n\t}\n\n\tfunction _repositionTopologyMember(uint memberPos) private returns (uint) {\n        uint topologySize = topology.length;\n\t\tassert(topologySize > memberPos);\n\n\t\twhile (memberPos > 0 && _compareValidators(memberPos, memberPos - 1) > 0) {\n\t\t\t_replace(memberPos-1, memberPos);\n\t\t\tmemberPos--;\n\t\t}\n\n\t\twhile (memberPos < topologySize - 1 && _compareValidators(memberPos, memberPos + 1) < 0) {\n\t\t\t_replace(memberPos, memberPos+1);\n\t\t\tmemberPos++;\n\t\t}\n\n\t\treturn memberPos;\n\t}\n\n\tfunction _replace(uint p1, uint p2) private {\n\t\taddress tempValidator = topology[p1];\n\t\ttopology[p1] = topology[p2];\n\t\ttopology[p2] = tempValidator;\n\t}\n\n\tfunction _applyDelegatedStake(address addr, uint256 newStake, uint256 prevGovStake) private {\n\t\tuncappedStakes[addr] = newStake;\n\n\t\tuint256 currentGovStake = getGovernanceEffectiveStake(addr);\n\t\ttotalGovernanceStake = totalGovernanceStake.sub(prevGovStake).add(currentGovStake);\n\n\t\temit StakeChanged(addr, ownStakes[addr], newStake, getGovernanceEffectiveStake(addr), getCommitteeEffectiveStake(addr), totalGovernanceStake);\n\n\t\t_rankValidator(addr);\n\t}\n\n\tfunction _findInTopology(address v) private view returns (uint, bool) {\n\t\tuint l =  topology.length;\n\t\tfor (uint i=0; i < l; i++) {\n\t\t\tif (topology[i] == v) {\n\t\t\t\treturn (i, true);\n\t\t\t}\n\t\t}\n\t\treturn (0, false);\n\t}\n\n\tfunction getCommitteeEffectiveStake(address v) private view returns (uint256) {\n\t\tuint256 ownStake = ownStakes[v];\n\t\tif (!_isSelfDelegating(v) || ownStake == 0) {\n\t\t\treturn 0;\n\t\t}\n\n\t\tuint256 uncappedStake = uncappedStakes[v];\n\t\tuint256 maxRatio = maxDelegationRatio;\n\t\tif (uncappedStake.div(ownStake) < maxRatio) {\n\t\t\treturn uncappedStake;\n\t\t}\n\t\treturn ownStake.mul(maxRatio); // never overflows\n\t}\n\n\tfunction getGovernanceEffectiveStake(address v) public view returns (uint256) {\n\t\tif (!_isSelfDelegating(v)) {\n\t\t\treturn 0;\n\t\t}\n\t\treturn uncappedStakes[v];\n\t}\n\n}\n",
  "sourcePath": "/Users/ron/repos/orbs-ethereum-contracts/pos-v2/contracts/Elections.sol",
  "compiler": {
    "name": "solc",
    "version": "0.5.16+commit.9c3226ce.Emscripten.clang"
  },
  "schemaVersion": "3.0.23",
  "updatedAt": "2020-03-11T14:45:21.529Z",
  "devdoc": {
    "methods": {
      "isOwner()": {
        "details": "Returns true if the caller is the current owner."
      },
      "owner()": {
        "details": "Returns the address of the current owner."
      },
      "renounceOwnership()": {
        "details": "Leaves the contract without owner. It will not be possible to call `onlyOwner` functions anymore. Can only be called by the current owner.     * NOTE: Renouncing ownership will leave the contract without an owner, thereby removing any functionality that is only available to the owner."
      },
      "transferOwnership(address)": {
        "details": "Transfers ownership of the contract to a new account (`newOwner`). Can only be called by the current owner."
      }
    }
  },
  "userdoc": {
    "methods": {}
  }
}