{
  "contractName": "MonthlySubscriptionPlan",
  "abi": [
    {
      "inputs": [
        {
          "internalType": "contract IERC20",
          "name": "_erc20",
          "type": "address"
        },
        {
          "internalType": "string",
          "name": "_tier",
          "type": "string"
        },
        {
          "internalType": "uint256",
          "name": "_monthlyRate",
          "type": "uint256"
        }
      ],
      "payable": false,
      "stateMutability": "nonpayable",
      "type": "constructor"
    },
    {
      "anonymous": false,
      "inputs": [
        {
          "indexed": true,
          "internalType": "address",
          "name": "previousOwner",
          "type": "address"
        },
        {
          "indexed": true,
          "internalType": "address",
          "name": "newOwner",
          "type": "address"
        }
      ],
      "name": "OwnershipTransferred",
      "type": "event"
    },
    {
      "constant": true,
      "inputs": [],
      "name": "isOwner",
      "outputs": [
        {
          "internalType": "bool",
          "name": "",
          "type": "bool"
        }
      ],
      "payable": false,
      "stateMutability": "view",
      "type": "function"
    },
    {
      "constant": true,
      "inputs": [],
      "name": "monthlyRate",
      "outputs": [
        {
          "internalType": "uint256",
          "name": "",
          "type": "uint256"
        }
      ],
      "payable": false,
      "stateMutability": "view",
      "type": "function"
    },
    {
      "constant": true,
      "inputs": [],
      "name": "owner",
      "outputs": [
        {
          "internalType": "address",
          "name": "",
          "type": "address"
        }
      ],
      "payable": false,
      "stateMutability": "view",
      "type": "function"
    },
    {
      "constant": false,
      "inputs": [],
      "name": "renounceOwnership",
      "outputs": [],
      "payable": false,
      "stateMutability": "nonpayable",
      "type": "function"
    },
    {
      "constant": true,
      "inputs": [],
      "name": "tier",
      "outputs": [
        {
          "internalType": "string",
          "name": "",
          "type": "string"
        }
      ],
      "payable": false,
      "stateMutability": "view",
      "type": "function"
    },
    {
      "constant": false,
      "inputs": [
        {
          "internalType": "address",
          "name": "newOwner",
          "type": "address"
        }
      ],
      "name": "transferOwnership",
      "outputs": [],
      "payable": false,
      "stateMutability": "nonpayable",
      "type": "function"
    },
    {
      "constant": false,
      "inputs": [
        {
          "internalType": "contract IContractRegistry",
          "name": "_contractRegistry",
          "type": "address"
        }
      ],
      "name": "setContractRegistry",
      "outputs": [],
      "payable": false,
      "stateMutability": "nonpayable",
      "type": "function"
    },
    {
      "constant": false,
      "inputs": [
        {
          "internalType": "uint256",
          "name": "amount",
          "type": "uint256"
        },
        {
          "internalType": "string",
          "name": "deploymentSubset",
          "type": "string"
        }
      ],
      "name": "createVC",
      "outputs": [],
      "payable": false,
      "stateMutability": "nonpayable",
      "type": "function"
    },
    {
      "constant": false,
      "inputs": [
        {
          "internalType": "uint256",
          "name": "vcid",
          "type": "uint256"
        },
        {
          "internalType": "uint256",
          "name": "amount",
          "type": "uint256"
        }
      ],
      "name": "extendSubscription",
      "outputs": [],
      "payable": false,
      "stateMutability": "nonpayable",
      "type": "function"
    }
  ],
  "bytecode": "0x60806040523480156200001157600080fd5b5060405162000dc938038062000dc9833981810160405260608110156200003757600080fd5b8151602083018051604051929492938301929190846401000000008211156200005f57600080fd5b9083019060208201858111156200007557600080fd5b82516401000000008111828201881017156200009057600080fd5b82525081516020918201929091019080838360005b83811015620000bf578181015183820152602001620000a5565b50505050905090810190601f168015620000ed5780820380516001836020036101000a031916815260200191505b50604052602001519150600090506200010e6001600160e01b03620001f016565b600080546001600160a01b0319166001600160a01b0383169081178255604051929350917f8be0079c531659141344cd1fd0a4f28419497f9722a3daafe3b4186f6b6457e0908290a3506000825111620001af576040805162461bcd60e51b815260206004820152601f60248201527f6d757374207370656369667920612076616c69642074696572206c6162656c00604482015290519081900360640190fd5b8151620001c4906002906020850190620001f5565b50600480546001600160a01b0319166001600160a01b0394909416939093179092555060035562000297565b335b90565b828054600181600116156101000203166002900490600052602060002090601f016020900481019282601f106200023857805160ff191683800117855562000268565b8280016001018555821562000268579182015b82811115620002685782518255916020019190600101906200024b565b50620002769291506200027a565b5090565b620001f291905b8082111562000276576000815560010162000281565b610b2280620002a76000396000f3fe608060405234801561001057600080fd5b50600436106100935760003560e01c80638f32d59b116100665780638f32d59b1461015d578063d45bc51e14610179578063d8685073146101f0578063f2fde38b14610213578063fcd13d651461023957610093565b806316f4d022146100985780636ba3381a14610115578063715018a61461012f5780638da5cb5b14610139575b600080fd5b6100a061025f565b6040805160208082528351818301528351919283929083019185019080838360005b838110156100da5781810151838201526020016100c2565b50505050905090810190601f1680156101075780820380516001836020036101000a031916815260200191505b509250505060405180910390f35b61011d6102ea565b60408051918252519081900360200190f35b6101376102f0565b005b610141610393565b604080516001600160a01b039092168252519081900360200190f35b6101656103a2565b604080519115158252519081900360200190f35b6101376004803603604081101561018f57600080fd5b813591908101906040810160208201356401000000008111156101b157600080fd5b8201836020820111156101c357600080fd5b803590602001918460018302840111640100000000831117156101e557600080fd5b5090925090506103c6565b6101376004803603604081101561020657600080fd5b50803590602001356106ae565b6101376004803603602081101561022957600080fd5b50356001600160a01b03166108c4565b6101376004803603602081101561024f57600080fd5b50356001600160a01b0316610929565b6002805460408051602060018416156101000260001901909316849004601f810184900484028201840190925281815292918301828280156102e25780601f106102b7576101008083540402835291602001916102e2565b820191906000526020600020905b8154815290600101906020018083116102c557829003601f168201915b505050505081565b60035481565b6102f86103a2565b610349576040805162461bcd60e51b815260206004820181905260248201527f4f776e61626c653a2063616c6c6572206973206e6f7420746865206f776e6572604482015290519081900360640190fd5b600080546040516001600160a01b03909116907f8be0079c531659141344cd1fd0a4f28419497f9722a3daafe3b4186f6b6457e0908390a3600080546001600160a01b0319169055565b6000546001600160a01b031690565b600080546001600160a01b03166103b76109ff565b6001600160a01b031614905090565b60008311610410576040805162461bcd60e51b81526020600482015260126024820152716d75737420696e636c7564652066756e647360701b604482015290519081900360640190fd5b6001546040805163349f642f60e11b8152602060048201819052600d60248301526c737562736372697074696f6e7360981b604483015291516000936001600160a01b03169263693ec85e9260648082019391829003018186803b15801561047757600080fd5b505afa15801561048b573d6000803e3d6000fd5b505050506040513d60208110156104a157600080fd5b505160048054604080516323b872dd60e01b815233938101939093526001600160a01b03808516602485015260448401899052905193945016916323b872dd916064808201926020929091908290030181600087803b15801561050357600080fd5b505af1158015610517573d6000803e3d6000fd5b505050506040513d602081101561052d57600080fd5b505161056a5760405162461bcd60e51b8152600401808060200182810382526024815260200180610aca6024913960400191505060405180910390fd5b6003546040516326847a0960e11b81526024810182905260448101869052336064820181905260a06004830190815260028054600019610100600183161502011681900460a485018190526001600160a01b03871695634d08f41295929490938b9391928b928b92918291608481019160c4909101908a90801561062f5780601f106106045761010080835404028352916020019161062f565b820191906000526020600020905b81548152906001019060200180831161061257829003601f168201915b50508381038252848152602001858580828437600081840152601f19601f820116905080830192505050985050505050505050506040805180830381600087803b15801561067c57600080fd5b505af1158015610690573d6000803e3d6000fd5b505050506040513d60408110156106a657600080fd5b505050505050565b600081116106f8576040805162461bcd60e51b81526020600482015260126024820152716d75737420696e636c7564652066756e647360701b604482015290519081900360640190fd5b6001546040805163349f642f60e11b8152602060048201819052600d60248301526c737562736372697074696f6e7360981b604483015291516000936001600160a01b03169263693ec85e9260648082019391829003018186803b15801561075f57600080fd5b505afa158015610773573d6000803e3d6000fd5b505050506040513d602081101561078957600080fd5b505160048054604080516323b872dd60e01b815233938101939093526001600160a01b03808516602485015260448401879052905193945016916323b872dd916064808201926020929091908290030181600087803b1580156107eb57600080fd5b505af11580156107ff573d6000803e3d6000fd5b505050506040513d602081101561081557600080fd5b50516108525760405162461bcd60e51b8152600401808060200182810382526024815260200180610aca6024913960400191505060405180910390fd5b604080516339435b5960e01b8152600481018590526024810184905233604482015290516001600160a01b038316916339435b5991606480830192600092919082900301818387803b1580156108a757600080fd5b505af11580156108bb573d6000803e3d6000fd5b50505050505050565b6108cc6103a2565b61091d576040805162461bcd60e51b815260206004820181905260248201527f4f776e61626c653a2063616c6c6572206973206e6f7420746865206f776e6572604482015290519081900360640190fd5b61092681610a03565b50565b6109316103a2565b610982576040805162461bcd60e51b815260206004820181905260248201527f4f776e61626c653a2063616c6c6572206973206e6f7420746865206f776e6572604482015290519081900360640190fd5b6001600160a01b0381166109dd576040805162461bcd60e51b815260206004820152601e60248201527f636f6e74726163745265676973747279206d757374206e6f7420626520300000604482015290519081900360640190fd5b600180546001600160a01b0319166001600160a01b0392909216919091179055565b3390565b6001600160a01b038116610a485760405162461bcd60e51b8152600401808060200182810382526026815260200180610aa46026913960400191505060405180910390fd5b600080546040516001600160a01b03808516939216917f8be0079c531659141344cd1fd0a4f28419497f9722a3daafe3b4186f6b6457e091a3600080546001600160a01b0319166001600160a01b039290921691909117905556fe4f776e61626c653a206e6577206f776e657220697320746865207a65726f20616464726573736661696c656420746f207472616e7366657220737562736372697074696f6e2066656573a265627a7a72315820ff4d3c9231d11ac1de7b574b7965556785f74ef2bea8ea5a5f4b4300f0cc29cb64736f6c63430005100032",
  "source": "pragma solidity 0.5.16;\n\nimport \"@openzeppelin/contracts/math/SafeMath.sol\";\nimport \"@openzeppelin/contracts/ownership/Ownable.sol\";\nimport \"@openzeppelin/contracts/token/ERC20/IERC20.sol\";\n\nimport \"./Subscriptions.sol\";\nimport \"./ContractRegistry.sol\";\n\ncontract MonthlySubscriptionPlan is Ownable {\n\n    IContractRegistry contractRegistry;\n\n    string public tier;\n    uint256 public monthlyRate;\n\n    IERC20 erc20;\n\n    constructor(IERC20 _erc20, string memory _tier, uint256 _monthlyRate) public {\n        require(bytes(_tier).length > 0, \"must specify a valid tier label\");\n\n        tier = _tier;\n        erc20 = _erc20;\n        monthlyRate = _monthlyRate;\n    }\n\n    function setContractRegistry(IContractRegistry _contractRegistry) external onlyOwner {\n        require(address(_contractRegistry) != address(0), \"contractRegistry must not be 0\");\n        contractRegistry = _contractRegistry;\n    }\n\n    function createVC(uint256 amount, string calldata deploymentSubset) external {\n        require(amount > 0, \"must include funds\");\n\n        ISubscriptions subs = ISubscriptions(contractRegistry.get(\"subscriptions\"));\n\n        // TODO TBD subs has to trust this contract to transfer the funds. alternatively, transfer to this account and then approve subs to pull same amount.\n        require(erc20.transferFrom(msg.sender, address(subs), amount), \"failed to transfer subscription fees\");\n        subs.createVC(tier, monthlyRate, amount, msg.sender, deploymentSubset);\n    }\n\n    function extendSubscription(uint256 vcid, uint256 amount) external {\n        require(amount > 0, \"must include funds\");\n\n        ISubscriptions subs = ISubscriptions(contractRegistry.get(\"subscriptions\"));\n\n        // TODO TBD subs has to trust this contract to transfer the funds. alternatively, transfer to this account and then approve subs to pull same amount.\n        require(erc20.transferFrom(msg.sender, address(subs), amount), \"failed to transfer subscription fees\");\n        subs.extendSubscription(vcid, amount, msg.sender);\n    }\n}\n",
  "sourcePath": "/Users/ron/repos/orbs-ethereum-contracts/pos-v2/contracts/MonthlySubscriptionPlan.sol",
  "compiler": {
    "name": "solc",
    "version": "0.5.16+commit.9c3226ce.Emscripten.clang"
  },
  "schemaVersion": "3.0.23",
  "updatedAt": "2020-03-15T16:20:03.721Z",
  "devdoc": {
    "methods": {
      "isOwner()": {
        "details": "Returns true if the caller is the current owner."
      },
      "owner()": {
        "details": "Returns the address of the current owner."
      },
      "renounceOwnership()": {
        "details": "Leaves the contract without owner. It will not be possible to call `onlyOwner` functions anymore. Can only be called by the current owner.     * NOTE: Renouncing ownership will leave the contract without an owner, thereby removing any functionality that is only available to the owner."
      },
      "transferOwnership(address)": {
        "details": "Transfers ownership of the contract to a new account (`newOwner`). Can only be called by the current owner."
      }
    }
  },
  "userdoc": {
    "methods": {}
  }
}