{
  "contractName": "Protocol",
  "abi": [
    {
      "inputs": [],
      "payable": false,
      "stateMutability": "nonpayable",
      "type": "constructor"
    },
    {
      "anonymous": false,
      "inputs": [
        {
          "indexed": true,
          "internalType": "address",
          "name": "previousOwner",
          "type": "address"
        },
        {
          "indexed": true,
          "internalType": "address",
          "name": "newOwner",
          "type": "address"
        }
      ],
      "name": "OwnershipTransferred",
      "type": "event"
    },
    {
      "anonymous": false,
      "inputs": [
        {
          "indexed": false,
          "internalType": "string",
          "name": "deploymentSubset",
          "type": "string"
        },
        {
          "indexed": false,
          "internalType": "uint256",
          "name": "protocolVersion",
          "type": "uint256"
        },
        {
          "indexed": false,
          "internalType": "uint256",
          "name": "asOfBlock",
          "type": "uint256"
        }
      ],
      "name": "ProtocolVersionChanged",
      "type": "event"
    },
    {
      "constant": true,
      "inputs": [],
      "name": "isOwner",
      "outputs": [
        {
          "internalType": "bool",
          "name": "",
          "type": "bool"
        }
      ],
      "payable": false,
      "stateMutability": "view",
      "type": "function"
    },
    {
      "constant": true,
      "inputs": [],
      "name": "owner",
      "outputs": [
        {
          "internalType": "address",
          "name": "",
          "type": "address"
        }
      ],
      "payable": false,
      "stateMutability": "view",
      "type": "function"
    },
    {
      "constant": false,
      "inputs": [],
      "name": "renounceOwnership",
      "outputs": [],
      "payable": false,
      "stateMutability": "nonpayable",
      "type": "function"
    },
    {
      "constant": false,
      "inputs": [
        {
          "internalType": "address",
          "name": "newOwner",
          "type": "address"
        }
      ],
      "name": "transferOwnership",
      "outputs": [],
      "payable": false,
      "stateMutability": "nonpayable",
      "type": "function"
    },
    {
      "constant": true,
      "inputs": [
        {
          "internalType": "string",
          "name": "deploymentSubset",
          "type": "string"
        }
      ],
      "name": "deploymentSubsetExists",
      "outputs": [
        {
          "internalType": "bool",
          "name": "",
          "type": "bool"
        }
      ],
      "payable": false,
      "stateMutability": "view",
      "type": "function"
    },
    {
      "constant": false,
      "inputs": [
        {
          "internalType": "string",
          "name": "deploymentSubset",
          "type": "string"
        },
        {
          "internalType": "uint256",
          "name": "protocolVersion",
          "type": "uint256"
        },
        {
          "internalType": "uint256",
          "name": "asOfBlock",
          "type": "uint256"
        }
      ],
      "name": "setProtocolVersion",
      "outputs": [],
      "payable": false,
      "stateMutability": "nonpayable",
      "type": "function"
    }
  ],
  "bytecode": "0x608060405234801561001057600080fd5b5060006100246001600160e01b0361007316565b600080546001600160a01b0319166001600160a01b0383169081178255604051929350917f8be0079c531659141344cd1fd0a4f28419497f9722a3daafe3b4186f6b6457e0908290a350610077565b3390565b61079a806100866000396000f3fe608060405234801561001057600080fd5b50600436106100625760003560e01c8063715018a61461006757806382adb1dd146100715780638b8c3105146100e75780638da5cb5b1461016b5780638f32d59b1461018f578063f2fde38b14610197575b600080fd5b61006f6101bd565b005b61006f6004803603606081101561008757600080fd5b8101906020810181356401000000008111156100a257600080fd5b8201836020820111156100b457600080fd5b803590602001918460018302840111640100000000831117156100d657600080fd5b919350915080359060200135610260565b610157600480360360208110156100fd57600080fd5b81019060208101813564010000000081111561011857600080fd5b82018360208201111561012a57600080fd5b8035906020019184600183028401116401000000008311171561014c57600080fd5b509092509050610506565b604080519115158252519081900360200190f35b61017361053b565b604080516001600160a01b039092168252519081900360200190f35b61015761054a565b61006f600480360360208110156101ad57600080fd5b50356001600160a01b031661056e565b6101c561054a565b610216576040805162461bcd60e51b815260206004820181905260248201527f4f776e61626c653a2063616c6c6572206973206e6f7420746865206f776e6572604482015290519081900360640190fd5b600080546040516001600160a01b03909116907f8be0079c531659141344cd1fd0a4f28419497f9722a3daafe3b4186f6b6457e0908390a3600080546001600160a01b0319169055565b61026861054a565b6102b9576040805162461bcd60e51b815260206004820181905260248201527f4f776e61626c653a2063616c6c6572206973206e6f7420746865206f776e6572604482015290519081900360640190fd5b600184846040518083838082843791909101948552505060405192839003602001909220541515915061032a90505780156103255760405162461bcd60e51b815260040180806020018281038252602d8152602001806106cf602d913960400191505060405180910390fd5b610436565b4381116103685760405162461bcd60e51b815260040180806020018281038252603181526020018061069e6031913960400191505060405180910390fd5b6001848460405180838380828437808301925050509250505090815260200160405180910390206001015481116103d05760405162461bcd60e51b81526004018080602001828103825260478152602001806106fc6047913960600191505060405180910390fd5b600184846040518083838082843791909101948552505060405192839003602001909220548411915061043690505760405162461bcd60e51b81526004018080602001828103825260238152602001806107436023913960400191505060405180910390fd5b8160018585604051808383808284379190910194855250506040519283900360200183209390935550829150600190869086908083838082843780830192505050925050509081526020016040518091039020600101819055507fd61a08069647ae3b41023b3206c1b946c1da3f213c47023357f1e1147be6587c8484848460405180806020018481526020018381526020018281038252868682818152602001925080828437600083820152604051601f909101601f191690920182900397509095505050505050a150505050565b600080600184846040518083838082843791909101948552505060405192839003602001909220549290921195945050505050565b6000546001600160a01b031690565b600080546001600160a01b031661055f6105d3565b6001600160a01b031614905090565b61057661054a565b6105c7576040805162461bcd60e51b815260206004820181905260248201527f4f776e61626c653a2063616c6c6572206973206e6f7420746865206f776e6572604482015290519081900360640190fd5b6105d0816105d7565b50565b3390565b6001600160a01b03811661061c5760405162461bcd60e51b81526004018080602001828103825260268152602001806106786026913960400191505060405180910390fd5b600080546040516001600160a01b03808516939216917f8be0079c531659141344cd1fd0a4f28419497f9722a3daafe3b4186f6b6457e091a3600080546001600160a01b0319166001600160a01b039290921691909117905556fe4f776e61626c653a206e6577206f776e657220697320746865207a65726f206164647265737370726f746f636f6c207570646174652063616e206f6e6c792074616b6520706c61636520696e2074686520667574757265696e697469616c2070726f746f636f6c2076657273696f6e206d7573742062652066726f6d20626c6f636b203070726f746f636f6c20757067726164652063616e206f6e6c792074616b6520706c616365206166746572207468652070726576696f75732070726f746f636f6c2075706461746570726f746f636f6c20646f776e6772616465206973206e6f7420737570706f72746564a265627a7a723158204d42959c0faae6da93041a411b1e0977c9949dddc1f2c621134c06d93b9a828664736f6c63430005100032",
  "source": "pragma solidity 0.5.16;\n\nimport \"@openzeppelin/contracts/ownership/Ownable.sol\";\n\ncontract Protocol is Ownable {\n\n    event ProtocolVersionChanged(string deploymentSubset, uint256 protocolVersion, uint256 asOfBlock);\n\n    struct DeploymentSubset {\n        uint version;\n        uint asOfBlock;\n    }\n\n    mapping (string => DeploymentSubset) deploymentSubsets;\n    address governor;\n\n    constructor() public {\n    }\n\n    function deploymentSubsetExists(string calldata deploymentSubset) external view returns (bool) {\n        return deploymentSubsets[deploymentSubset].version > 0;\n    }\n\n    function setProtocolVersion(string calldata deploymentSubset, uint256 protocolVersion, uint256 asOfBlock) external onlyOwner {\n        if (deploymentSubsets[deploymentSubset].version == 0) {\n            require(asOfBlock == 0, \"initial protocol version must be from block 0\");\n        } else {\n            require(asOfBlock > block.number, \"protocol update can only take place in the future\");\n            require(asOfBlock > deploymentSubsets[deploymentSubset].asOfBlock, \"protocol upgrade can only take place after the previous protocol update\");\n            require(protocolVersion > deploymentSubsets[deploymentSubset].version, \"protocol downgrade is not supported\");\n        }\n\n        deploymentSubsets[deploymentSubset].version = protocolVersion;\n        deploymentSubsets[deploymentSubset].asOfBlock = asOfBlock;\n\n        emit ProtocolVersionChanged(deploymentSubset, protocolVersion, asOfBlock);\n    }\n}\n",
  "sourcePath": "/Users/ron/repos/orbs-ethereum-contracts/pos-v2/contracts/Protocol.sol",
  "compiler": {
    "name": "solc",
    "version": "0.5.16+commit.9c3226ce.Emscripten.clang"
  },
  "schemaVersion": "3.0.23",
  "updatedAt": "2020-03-12T10:18:10.835Z",
  "devdoc": {
    "methods": {
      "isOwner()": {
        "details": "Returns true if the caller is the current owner."
      },
      "owner()": {
        "details": "Returns the address of the current owner."
      },
      "renounceOwnership()": {
        "details": "Leaves the contract without owner. It will not be possible to call `onlyOwner` functions anymore. Can only be called by the current owner.     * NOTE: Renouncing ownership will leave the contract without an owner, thereby removing any functionality that is only available to the owner."
      },
      "transferOwnership(address)": {
        "details": "Transfers ownership of the contract to a new account (`newOwner`). Can only be called by the current owner."
      }
    }
  },
  "userdoc": {
    "methods": {}
  }
}