{
  "contractName": "Protocol",
  "abi": [
    {
      "anonymous": false,
      "inputs": [
        {
          "indexed": true,
          "internalType": "address",
          "name": "previousOwner",
          "type": "address"
        },
        {
          "indexed": true,
          "internalType": "address",
          "name": "newOwner",
          "type": "address"
        }
      ],
      "name": "OwnershipTransferred",
      "type": "event"
    },
    {
      "anonymous": false,
      "inputs": [
        {
          "indexed": false,
          "internalType": "string",
          "name": "deploymentSubset",
          "type": "string"
        },
        {
          "indexed": false,
          "internalType": "uint256",
          "name": "protocolVersion",
          "type": "uint256"
        },
        {
          "indexed": false,
          "internalType": "uint256",
          "name": "asOfBlock",
          "type": "uint256"
        }
      ],
      "name": "ProtocolVersionChanged",
      "type": "event"
    },
    {
      "constant": true,
      "inputs": [],
      "name": "isOwner",
      "outputs": [
        {
          "internalType": "bool",
          "name": "",
          "type": "bool"
        }
      ],
      "payable": false,
      "stateMutability": "view",
      "type": "function"
    },
    {
      "constant": true,
      "inputs": [],
      "name": "owner",
      "outputs": [
        {
          "internalType": "address",
          "name": "",
          "type": "address"
        }
      ],
      "payable": false,
      "stateMutability": "view",
      "type": "function"
    },
    {
      "constant": false,
      "inputs": [],
      "name": "renounceOwnership",
      "outputs": [],
      "payable": false,
      "stateMutability": "nonpayable",
      "type": "function"
    },
    {
      "constant": false,
      "inputs": [
        {
          "internalType": "address",
          "name": "newOwner",
          "type": "address"
        }
      ],
      "name": "transferOwnership",
      "outputs": [],
      "payable": false,
      "stateMutability": "nonpayable",
      "type": "function"
    },
    {
      "constant": true,
      "inputs": [
        {
          "internalType": "string",
          "name": "deploymentSubset",
          "type": "string"
        }
      ],
      "name": "deploymentSubsetExists",
      "outputs": [
        {
          "internalType": "bool",
          "name": "",
          "type": "bool"
        }
      ],
      "payable": false,
      "stateMutability": "view",
      "type": "function"
    },
    {
      "constant": false,
      "inputs": [
        {
          "internalType": "string",
          "name": "deploymentSubset",
          "type": "string"
        },
        {
          "internalType": "uint256",
          "name": "protocolVersion",
          "type": "uint256"
        },
        {
          "internalType": "uint256",
          "name": "asOfBlock",
          "type": "uint256"
        }
      ],
      "name": "setProtocolVersion",
      "outputs": [],
      "payable": false,
      "stateMutability": "nonpayable",
      "type": "function"
    }
  ],
  "bytecode": "0x608060405260006100176001600160e01b0361006616565b600080546001600160a01b0319166001600160a01b0383169081178255604051929350917f8be0079c531659141344cd1fd0a4f28419497f9722a3daafe3b4186f6b6457e0908290a35061006a565b3390565b610845806100796000396000f3fe608060405234801561001057600080fd5b50600436106100625760003560e01c8063715018a61461006757806382adb1dd146100715780638b8c3105146100e75780638da5cb5b146101a15780638f32d59b146101c5578063f2fde38b146101cd575b600080fd5b61006f6101f3565b005b61006f6004803603606081101561008757600080fd5b8101906020810181356401000000008111156100a257600080fd5b8201836020820111156100b457600080fd5b803590602001918460018302840111640100000000831117156100d657600080fd5b919350915080359060200135610296565b61018d600480360360208110156100fd57600080fd5b81019060208101813564010000000081111561011857600080fd5b82018360208201111561012a57600080fd5b8035906020019184600183028401116401000000008311171561014c57600080fd5b91908080601f01602080910402602001604051908101604052809392919081815260200183838082843760009201919091525092955061057b945050505050565b604080519115158252519081900360200190f35b6101a96105e6565b604080516001600160a01b039092168252519081900360200190f35b61018d6105f5565b61006f600480360360208110156101e357600080fd5b50356001600160a01b0316610619565b6101fb6105f5565b61024c576040805162461bcd60e51b815260206004820181905260248201527f4f776e61626c653a2063616c6c6572206973206e6f7420746865206f776e6572604482015290519081900360640190fd5b600080546040516001600160a01b03909116907f8be0079c531659141344cd1fd0a4f28419497f9722a3daafe3b4186f6b6457e0908390a3600080546001600160a01b0319169055565b61029e6105f5565b6102ef576040805162461bcd60e51b815260206004820181905260248201527f4f776e61626c653a2063616c6c6572206973206e6f7420746865206f776e6572604482015290519081900360640190fd5b600184846040518083838082843780830192505050925050509081526020016040518091039020600101546000141561036457801561035f5760405162461bcd60e51b815260040180806020018281038252602d81526020018061077a602d913960400191505060405180910390fd5b610472565b4381116103a25760405162461bcd60e51b81526004018080602001828103825260318152602001806107496031913960400191505060405180910390fd5b60018484604051808383808284378083019250505092505050908152602001604051809103902060020154811161040a5760405162461bcd60e51b81526004018080602001828103825260478152602001806107a76047913960600191505060405180910390fd5b6001848460405180838380828437808301925050509250505090815260200160405180910390206001015482116104725760405162461bcd60e51b81526004018080602001828103825260238152602001806107ee6023913960400191505060405180910390fd5b816001858560405180838380828437808301925050509250505090815260200160405180910390206001018190555080600185856040518083838082843780830192505050925050509081526020016040518091039020600201819055506001808585604051808383808284379190910194855250506040805160209481900385018120805460ff19169615159690961790955592840186905250508101829052606080825281018490527fd61a08069647ae3b41023b3206c1b946c1da3f213c47023357f1e1147be6587c9085908590859085908060808101868680828437600083820152604051601f909101601f191690920182900397509095505050505050a150505050565b60006001826040518082805190602001908083835b602083106105af5780518252601f199092019160209182019101610590565b51815160209384036101000a600019018019909216911617905292019485525060405193849003019092205460ff16949350505050565b6000546001600160a01b031690565b600080546001600160a01b031661060a61067e565b6001600160a01b031614905090565b6106216105f5565b610672576040805162461bcd60e51b815260206004820181905260248201527f4f776e61626c653a2063616c6c6572206973206e6f7420746865206f776e6572604482015290519081900360640190fd5b61067b81610682565b50565b3390565b6001600160a01b0381166106c75760405162461bcd60e51b81526004018080602001828103825260268152602001806107236026913960400191505060405180910390fd5b600080546040516001600160a01b03808516939216917f8be0079c531659141344cd1fd0a4f28419497f9722a3daafe3b4186f6b6457e091a3600080546001600160a01b0319166001600160a01b039290921691909117905556fe4f776e61626c653a206e6577206f776e657220697320746865207a65726f206164647265737370726f746f636f6c207570646174652063616e206f6e6c792074616b6520706c61636520696e2074686520667574757265696e697469616c2070726f746f636f6c2076657273696f6e206d7573742062652066726f6d20626c6f636b203070726f746f636f6c20757067726164652063616e206f6e6c792074616b6520706c616365206166746572207468652070726576696f75732070726f746f636f6c2075706461746570726f746f636f6c20646f776e6772616465206973206e6f7420737570706f72746564a265627a7a72315820322fa026dee386e060931c976e553448849c2f00b7fdf0501f03a9ca4071af6364736f6c63430005100032",
  "source": "pragma solidity 0.5.16;\n\nimport \"@openzeppelin/contracts/ownership/Ownable.sol\";\nimport \"./interfaces/IProtocol.sol\";\n\ncontract Protocol is IProtocol, Ownable {\n\n    // TODO - allow amending future upgrades - see https://github.com/orbs-network/orbs-ethereum-contracts/pull/192#discussion_r391179003\n\n    struct DeploymentSubset {\n        bool exists;\n        uint version;\n        uint asOfBlock;\n    }\n\n    mapping (string => DeploymentSubset) deploymentSubsets;\n\n    function deploymentSubsetExists(string memory deploymentSubset) public view returns (bool) {\n        return deploymentSubsets[deploymentSubset].exists;\n    }\n\n    function setProtocolVersion(string calldata deploymentSubset, uint256 protocolVersion, uint256 asOfBlock) external onlyOwner {\n        if (deploymentSubsets[deploymentSubset].version == 0) {\n            require(asOfBlock == 0, \"initial protocol version must be from block 0\");\n        } else {\n            require(asOfBlock > block.number, \"protocol update can only take place in the future\");\n            require(asOfBlock > deploymentSubsets[deploymentSubset].asOfBlock, \"protocol upgrade can only take place after the previous protocol update\");\n            require(protocolVersion > deploymentSubsets[deploymentSubset].version, \"protocol downgrade is not supported\");\n        }\n\n        deploymentSubsets[deploymentSubset].version = protocolVersion;\n        deploymentSubsets[deploymentSubset].asOfBlock = asOfBlock;\n        deploymentSubsets[deploymentSubset].exists = true;\n\n        emit ProtocolVersionChanged(deploymentSubset, protocolVersion, asOfBlock);\n    }\n}\n",
  "sourcePath": "/Users/ron/repos/orbs-ethereum-contracts/pos-v2/contracts/Protocol.sol",
  "compiler": {
    "name": "solc",
    "version": "0.5.16+commit.9c3226ce.Emscripten.clang"
  },
  "schemaVersion": "3.0.23",
  "updatedAt": "2020-03-15T16:41:58.143Z",
  "devdoc": {
    "methods": {
      "isOwner()": {
        "details": "Returns true if the caller is the current owner."
      },
      "owner()": {
        "details": "Returns the address of the current owner."
      },
      "renounceOwnership()": {
        "details": "Leaves the contract without owner. It will not be possible to call `onlyOwner` functions anymore. Can only be called by the current owner.     * NOTE: Renouncing ownership will leave the contract without an owner, thereby removing any functionality that is only available to the owner."
      },
      "transferOwnership(address)": {
        "details": "Transfers ownership of the contract to a new account (`newOwner`). Can only be called by the current owner."
      }
    }
  },
  "userdoc": {
    "methods": {}
  }
}