{
  "contractName": "Protocol",
  "abi": [
    {
      "inputs": [
        {
          "internalType": "address",
          "name": "_governor",
          "type": "address"
        }
      ],
      "payable": false,
      "stateMutability": "nonpayable",
      "type": "constructor"
    },
    {
      "anonymous": false,
      "inputs": [
        {
          "indexed": false,
          "internalType": "string",
          "name": "deploymentSubset",
          "type": "string"
        },
        {
          "indexed": false,
          "internalType": "uint256",
          "name": "protocolVersion",
          "type": "uint256"
        },
        {
          "indexed": false,
          "internalType": "uint256",
          "name": "asOfBlock",
          "type": "uint256"
        }
      ],
      "name": "ProtocolVersionChanged",
      "type": "event"
    },
    {
      "constant": true,
      "inputs": [
        {
          "internalType": "string",
          "name": "deploymentSubset",
          "type": "string"
        }
      ],
      "name": "deploymentSubsetExists",
      "outputs": [
        {
          "internalType": "bool",
          "name": "",
          "type": "bool"
        }
      ],
      "payable": false,
      "stateMutability": "view",
      "type": "function"
    },
    {
      "constant": false,
      "inputs": [
        {
          "internalType": "string",
          "name": "deploymentSubset",
          "type": "string"
        },
        {
          "internalType": "uint256",
          "name": "protocolVersion",
          "type": "uint256"
        },
        {
          "internalType": "uint256",
          "name": "asOfBlock",
          "type": "uint256"
        }
      ],
      "name": "setProtocolVersion",
      "outputs": [],
      "payable": false,
      "stateMutability": "nonpayable",
      "type": "function"
    },
    {
      "constant": false,
      "inputs": [
        {
          "internalType": "address",
          "name": "newGovernor",
          "type": "address"
        }
      ],
      "name": "setGovernor",
      "outputs": [],
      "payable": false,
      "stateMutability": "nonpayable",
      "type": "function"
    }
  ],
  "bytecode": "0x608060405234801561001057600080fd5b506040516106853803806106858339818101604052602081101561003357600080fd5b5051600180546001600160a01b0319166001600160a01b03909216919091179055610622806100636000396000f3fe608060405234801561001057600080fd5b50600436106100415760003560e01c806382adb1dd146100465780638b8c3105146100be578063c42cf53514610142575b600080fd5b6100bc6004803603606081101561005c57600080fd5b81019060208101813564010000000081111561007757600080fd5b82018360208201111561008957600080fd5b803590602001918460018302840111640100000000831117156100ab57600080fd5b919350915080359060200135610168565b005b61012e600480360360208110156100d457600080fd5b8101906020810181356401000000008111156100ef57600080fd5b82018360208201111561010157600080fd5b8035906020019184600183028401116401000000008311171561012357600080fd5b5090925090506103fe565b604080519115158252519081900360200190f35b6100bc6004803603602081101561015857600080fd5b50356001600160a01b0316610433565b6001546001600160a01b031633146101b15760405162461bcd60e51b815260040180806020018281038252602c8152602001806105c2602c913960400191505060405180910390fd5b6000848460405180838380828437919091019485525050604051928390036020019092205415159150610222905057801561021d5760405162461bcd60e51b815260040180806020018281038252602d81526020018061052b602d913960400191505060405180910390fd5b61032e565b4381116102605760405162461bcd60e51b81526004018080602001828103825260318152602001806104fa6031913960400191505060405180910390fd5b6000848460405180838380828437808301925050509250505090815260200160405180910390206001015481116102c85760405162461bcd60e51b81526004018080602001828103825260478152602001806105586047913960600191505060405180910390fd5b600084846040518083838082843791909101948552505060405192839003602001909220548411915061032e90505760405162461bcd60e51b815260040180806020018281038252602381526020018061059f6023913960400191505060405180910390fd5b8160008585604051808383808284379190910194855250506040519283900360200183209390935550829150600090869086908083838082843780830192505050925050509081526020016040518091039020600101819055507fd61a08069647ae3b41023b3206c1b946c1da3f213c47023357f1e1147be6587c8484848460405180806020018481526020018381526020018281038252868682818152602001925080828437600083820152604051601f909101601f191690920182900397509095505050505050a150505050565b600080600084846040518083838082843791909101948552505060405192839003602001909220549290921195945050505050565b6001546001600160a01b0316331461047c5760405162461bcd60e51b815260040180806020018281038252602c8152602001806105c2602c913960400191505060405180910390fd5b6001600160a01b0381166104d7576040805162461bcd60e51b815260206004820152601960248201527f676f7665726e6f72206d757374206e6f74206265207a65726f00000000000000604482015290519081900360640190fd5b600180546001600160a01b0319166001600160a01b039290921691909117905556fe70726f746f636f6c207570646174652063616e206f6e6c792074616b6520706c61636520696e2074686520667574757265696e697469616c2070726f746f636f6c2076657273696f6e206d7573742062652066726f6d20626c6f636b203070726f746f636f6c20757067726164652063616e206f6e6c792074616b6520706c616365206166746572207468652070726576696f75732070726f746f636f6c2075706461746570726f746f636f6c20646f776e6772616465206973206e6f7420737570706f7274656463616c6c6572206973206e6f74207468652070726f746f636f6c20636f6e747261637420676f7665726e6f72a265627a7a7231582003adeccab00edd63fa0529c42bafb6402792f376205ccdb62536ece4da9f5a6864736f6c63430005100032",
  "source": "pragma solidity 0.5.16;\n\ncontract Protocol {\n\n    event ProtocolVersionChanged(string deploymentSubset, uint256 protocolVersion, uint256 asOfBlock);\n\n    struct DeploymentSubset {\n        uint version;\n        uint asOfBlock;\n    }\n\n    mapping (string => DeploymentSubset) deploymentSubsets;\n    address governor;\n\n    modifier onlyGovernor() {\n        require(msg.sender == governor, \"caller is not the protocol contract governor\");\n\n        _;\n    }\n\n    constructor(address _governor) public {\n        governor = _governor;\n    }\n\n    function deploymentSubsetExists(string calldata deploymentSubset) external view returns (bool) {\n        return deploymentSubsets[deploymentSubset].version > 0;\n    }\n\n    function setProtocolVersion(string calldata deploymentSubset, uint256 protocolVersion, uint256 asOfBlock) external onlyGovernor {\n        if (deploymentSubsets[deploymentSubset].version == 0) {\n            require(asOfBlock == 0, \"initial protocol version must be from block 0\");\n        } else {\n            require(asOfBlock > block.number, \"protocol update can only take place in the future\");\n            require(asOfBlock > deploymentSubsets[deploymentSubset].asOfBlock, \"protocol upgrade can only take place after the previous protocol update\");\n            require(protocolVersion > deploymentSubsets[deploymentSubset].version, \"protocol downgrade is not supported\"); // TODO should we enforce it?\n            // TODO check that is it scheduled not to close to the present?\n            // TODO check that is it scheduled not to far into the future?\n            // TODO check that the protocol version is not too far ahead?\n        }\n\n        deploymentSubsets[deploymentSubset].version = protocolVersion;\n        deploymentSubsets[deploymentSubset].asOfBlock = asOfBlock;\n\n        emit ProtocolVersionChanged(deploymentSubset, protocolVersion, asOfBlock);\n    }\n\n    function setGovernor(address newGovernor) external onlyGovernor {\n        require(newGovernor != address(0), \"governor must not be zero\");\n        governor = newGovernor;\n    }\n}\n",
  "sourcePath": "/Users/ron/repos/orbs-ethereum-contracts/pos-v2/contracts/Protocol.sol",
  "compiler": {
    "name": "solc",
    "version": "0.5.16+commit.9c3226ce.Emscripten.clang"
  },
  "schemaVersion": "3.0.23",
  "updatedAt": "2020-03-11T14:45:21.575Z",
  "devdoc": {
    "methods": {}
  },
  "userdoc": {
    "methods": {}
  }
}