{
  "contractName": "Rewards",
  "abi": [
    {
      "inputs": [
        {
          "internalType": "contract IERC20",
          "name": "_erc20",
          "type": "address"
        },
        {
          "internalType": "contract IERC20",
          "name": "_externalToken",
          "type": "address"
        },
        {
          "internalType": "address",
          "name": "_rewardsGovernor",
          "type": "address"
        }
      ],
      "payable": false,
      "stateMutability": "nonpayable",
      "type": "constructor"
    },
    {
      "anonymous": false,
      "inputs": [
        {
          "indexed": false,
          "internalType": "uint256",
          "name": "bucketId",
          "type": "uint256"
        },
        {
          "indexed": false,
          "internalType": "uint256",
          "name": "added",
          "type": "uint256"
        },
        {
          "indexed": false,
          "internalType": "uint256",
          "name": "total",
          "type": "uint256"
        }
      ],
      "name": "FeeAddedToBucket",
      "type": "event"
    },
    {
      "anonymous": false,
      "inputs": [
        {
          "indexed": true,
          "internalType": "address",
          "name": "previousOwner",
          "type": "address"
        },
        {
          "indexed": true,
          "internalType": "address",
          "name": "newOwner",
          "type": "address"
        }
      ],
      "name": "OwnershipTransferred",
      "type": "event"
    },
    {
      "anonymous": false,
      "inputs": [
        {
          "indexed": false,
          "internalType": "address",
          "name": "assignee",
          "type": "address"
        },
        {
          "indexed": false,
          "internalType": "uint256",
          "name": "amount",
          "type": "uint256"
        },
        {
          "indexed": false,
          "internalType": "uint256",
          "name": "balance",
          "type": "uint256"
        }
      ],
      "name": "RewardAssigned",
      "type": "event"
    },
    {
      "constant": true,
      "inputs": [],
      "name": "isOwner",
      "outputs": [
        {
          "internalType": "bool",
          "name": "",
          "type": "bool"
        }
      ],
      "payable": false,
      "stateMutability": "view",
      "type": "function"
    },
    {
      "constant": true,
      "inputs": [],
      "name": "owner",
      "outputs": [
        {
          "internalType": "address",
          "name": "",
          "type": "address"
        }
      ],
      "payable": false,
      "stateMutability": "view",
      "type": "function"
    },
    {
      "constant": false,
      "inputs": [],
      "name": "renounceOwnership",
      "outputs": [],
      "payable": false,
      "stateMutability": "nonpayable",
      "type": "function"
    },
    {
      "constant": false,
      "inputs": [
        {
          "internalType": "address",
          "name": "newOwner",
          "type": "address"
        }
      ],
      "name": "transferOwnership",
      "outputs": [],
      "payable": false,
      "stateMutability": "nonpayable",
      "type": "function"
    },
    {
      "constant": false,
      "inputs": [
        {
          "internalType": "contract IContractRegistry",
          "name": "_contractRegistry",
          "type": "address"
        }
      ],
      "name": "setContractRegistry",
      "outputs": [],
      "payable": false,
      "stateMutability": "nonpayable",
      "type": "function"
    },
    {
      "constant": false,
      "inputs": [
        {
          "internalType": "uint256",
          "name": "rate",
          "type": "uint256"
        }
      ],
      "name": "setFixedPoolMonthlyRate",
      "outputs": [],
      "payable": false,
      "stateMutability": "nonpayable",
      "type": "function"
    },
    {
      "constant": false,
      "inputs": [
        {
          "internalType": "uint256",
          "name": "rate",
          "type": "uint256"
        }
      ],
      "name": "setProRataPoolMonthlyRate",
      "outputs": [],
      "payable": false,
      "stateMutability": "nonpayable",
      "type": "function"
    },
    {
      "constant": false,
      "inputs": [
        {
          "internalType": "uint256",
          "name": "amount",
          "type": "uint256"
        }
      ],
      "name": "topUpFixedPool",
      "outputs": [],
      "payable": false,
      "stateMutability": "nonpayable",
      "type": "function"
    },
    {
      "constant": false,
      "inputs": [
        {
          "internalType": "uint256",
          "name": "amount",
          "type": "uint256"
        }
      ],
      "name": "topUpProRataPool",
      "outputs": [],
      "payable": false,
      "stateMutability": "nonpayable",
      "type": "function"
    },
    {
      "constant": true,
      "inputs": [
        {
          "internalType": "address",
          "name": "addr",
          "type": "address"
        }
      ],
      "name": "getOrbsBalance",
      "outputs": [
        {
          "internalType": "uint256",
          "name": "",
          "type": "uint256"
        }
      ],
      "payable": false,
      "stateMutability": "view",
      "type": "function"
    },
    {
      "constant": true,
      "inputs": [
        {
          "internalType": "address",
          "name": "addr",
          "type": "address"
        }
      ],
      "name": "getExternalTokenBalance",
      "outputs": [
        {
          "internalType": "uint256",
          "name": "",
          "type": "uint256"
        }
      ],
      "payable": false,
      "stateMutability": "view",
      "type": "function"
    },
    {
      "constant": true,
      "inputs": [],
      "name": "getLastPayedAt",
      "outputs": [
        {
          "internalType": "uint256",
          "name": "",
          "type": "uint256"
        }
      ],
      "payable": false,
      "stateMutability": "view",
      "type": "function"
    },
    {
      "constant": false,
      "inputs": [
        {
          "internalType": "address[]",
          "name": "addrs",
          "type": "address[]"
        },
        {
          "internalType": "uint256[]",
          "name": "stakes",
          "type": "uint256[]"
        }
      ],
      "name": "committeeChanged",
      "outputs": [],
      "payable": false,
      "stateMutability": "nonpayable",
      "type": "function"
    },
    {
      "constant": false,
      "inputs": [],
      "name": "assignRewards",
      "outputs": [
        {
          "internalType": "uint256",
          "name": "",
          "type": "uint256"
        }
      ],
      "payable": false,
      "stateMutability": "nonpayable",
      "type": "function"
    },
    {
      "constant": false,
      "inputs": [
        {
          "internalType": "uint256",
          "name": "amount",
          "type": "uint256"
        },
        {
          "internalType": "uint256",
          "name": "monthlyRate",
          "type": "uint256"
        }
      ],
      "name": "fillFeeBuckets",
      "outputs": [],
      "payable": false,
      "stateMutability": "nonpayable",
      "type": "function"
    },
    {
      "constant": false,
      "inputs": [
        {
          "internalType": "address[]",
          "name": "to",
          "type": "address[]"
        },
        {
          "internalType": "uint256[]",
          "name": "amounts",
          "type": "uint256[]"
        }
      ],
      "name": "distributeOrbsTokenRewards",
      "outputs": [],
      "payable": false,
      "stateMutability": "nonpayable",
      "type": "function"
    },
    {
      "constant": false,
      "inputs": [],
      "name": "withdrawExternalTokenRewards",
      "outputs": [
        {
          "internalType": "uint256",
          "name": "",
          "type": "uint256"
        }
      ],
      "payable": false,
      "stateMutability": "nonpayable",
      "type": "function"
    }
  ],
  "bytecode": "0x608060405234801561001057600080fd5b50604051611b6f380380611b6f8339818101604052606081101561003357600080fd5b508051602082015160409092015190919060006100576001600160e01b0361019d16565b600080546001600160a01b0319166001600160a01b0383169081178255604051929350917f8be0079c531659141344cd1fd0a4f28419497f9722a3daafe3b4186f6b6457e0908290a3506001600160a01b0383166100fc576040805162461bcd60e51b815260206004820152601360248201527f6572633230206d757374206e6f74206265203000000000000000000000000000604482015290519081900360640190fd5b6001600160a01b038216610157576040805162461bcd60e51b815260206004820152601b60248201527f65787465726e616c546f6b656e206d757374206e6f7420626520300000000000604482015290519081900360640190fd5b600a80546001600160a01b039485166001600160a01b031991821617909155600b80549385169382169390931790925542600755600c80549190931691161790556101a1565b3390565b6119bf806101b06000396000f3fe608060405234801561001057600080fd5b506004361061010a5760003560e01c806378ccde8e116100a25780638f32d59b116100715780638f32d59b146102e5578063d2de157914610301578063ec1d7cd014610324578063f2fde38b146103e2578063fcd13d65146104085761010a565b806378ccde8e146101de5780638be1eaeb1461029c5780638d28b269146102a45780638da5cb5b146102c15761010a565b80633fa5ca80116100de5780633fa5ca801461018257806357927a5b146101a85780635e7fe9c5146101b0578063715018a6146101d65761010a565b806264010d1461010f57806303d9a18314610129578063079f5a5214610148578063391b011a14610165575b600080fd5b61011761042e565b60408051918252519081900360200190f35b6101466004803603602081101561013f57600080fd5b503561043e565b005b6101466004803603602081101561015e57600080fd5b5035610495565b6101466004803603602081101561017b57600080fd5b503561056f565b6101176004803603602081101561019857600080fd5b50356001600160a01b0316610646565b610117610661565b610117600480360360208110156101c657600080fd5b50356001600160a01b0316610667565b610146610682565b610146600480360360408110156101f457600080fd5b810190602081018135600160201b81111561020e57600080fd5b82018360208201111561022057600080fd5b803590602001918460208302840111600160201b8311171561024157600080fd5b919390929091602081019035600160201b81111561025e57600080fd5b82018360208201111561027057600080fd5b803590602001918460208302840111600160201b8311171561029157600080fd5b509092509050610725565b610117610a04565b610146600480360360208110156102ba57600080fd5b5035610af0565b6102c9610b47565b604080516001600160a01b039092168252519081900360200190f35b6102ed610b56565b604080519115158252519081900360200190f35b6101466004803603604081101561031757600080fd5b5080359060200135610b7a565b6101466004803603604081101561033a57600080fd5b810190602081018135600160201b81111561035457600080fd5b82018360208201111561036657600080fd5b803590602001918460208302840111600160201b8311171561038757600080fd5b919390929091602081019035600160201b8111156103a457600080fd5b8201836020820111156103b657600080fd5b803590602001918460208302840111600160201b831117156103d757600080fd5b509092509050610d1e565b610146600480360360208110156103f857600080fd5b50356001600160a01b0316610f0e565b6101466004803603602081101561041e57600080fd5b50356001600160a01b0316610f70565b6000610438611046565b90505b90565b600c546001600160a01b031633146104875760405162461bcd60e51b81526004018080602001828103825260228152602001806118396022913960400191505060405180910390fd5b61048f611046565b50600455565b6005546104a8908263ffffffff61121c16565b600555600a54604080516323b872dd60e01b81523360048201523060248201526044810184905290516001600160a01b03909216916323b872dd916064808201926020929091908290030181600087803b15801561050557600080fd5b505af1158015610519573d6000803e3d6000fd5b505050506040513d602081101561052f57600080fd5b505161056c5760405162461bcd60e51b815260040180806020018281038252603281526020018061190d6032913960400191505060405180910390fd5b50565b600354610582908263ffffffff61121c16565b600355600b54604080516323b872dd60e01b81523360048201523060248201526044810184905290516001600160a01b03909216916323b872dd916064808201926020929091908290030181600087803b1580156105df57600080fd5b505af11580156105f3573d6000803e3d6000fd5b505050506040513d602081101561060957600080fd5b505161056c5760405162461bcd60e51b81526004018080602001828103825260308152602001806117e36030913960400191505060405180910390fd5b6001600160a01b031660009081526009602052604090205490565b60075490565b6001600160a01b031660009081526008602052604090205490565b61068a610b56565b6106db576040805162461bcd60e51b815260206004820181905260248201527f4f776e61626c653a2063616c6c6572206973206e6f7420746865206f776e6572604482015290519081900360640190fd5b600080546040516001600160a01b03909116907f8be0079c531659141344cd1fd0a4f28419497f9722a3daafe3b4186f6b6457e0908390a3600080546001600160a01b0319169055565b8281146107635760405162461bcd60e51b815260040180806020018281038252602c8152602001806118c0602c913960400191505060405180910390fd5b6000805b8481101561079e5761079484848381811061077e57fe5b905060200201358361121c90919063ffffffff16565b9150600101610767565b50336000908152600860205260409020548111156107ed5760405162461bcd60e51b81526004018080602001828103825260288152602001806119636028913960400191505060405180910390fd5b3360009081526008602052604090205461080d908263ffffffff61127f16565b33600090815260086020908152604080832093909355600154835163349f642f60e11b81526004810183905260076024820152667374616b696e6760c81b6044820152935192936001600160a01b039091169263693ec85e92606480840193919291829003018186803b15801561088357600080fd5b505afa158015610897573d6000803e3d6000fd5b505050506040513d60208110156108ad57600080fd5b5051600a546040805163095ea7b360e01b81526001600160a01b03808516600483015260248201879052915193945091169163095ea7b3916044808201926020929091908290030181600087803b15801561090757600080fd5b505af115801561091b573d6000803e3d6000fd5b505050506040513d602081101561093157600080fd5b50506040516319d6a88d60e01b815260048101838152606060248301908152606483018890526001600160a01b038416926319d6a88d9286928b928b928b928b926044810190608401876020880280828437600083820152601f01601f19169091018481038352858152602090810191508690860280828437600081840152601f19601f820116905080830192505050975050505050505050600060405180830381600087803b1580156109e457600080fd5b505af11580156109f8573d6000803e3d6000fd5b50505050505050505050565b33600090815260096020526040812054610a24818063ffffffff61127f16565b33600081815260096020908152604080832094909455600b54845163a9059cbb60e01b815260048101949094526024840186905293516001600160a01b039094169363a9059cbb93604480820194918390030190829087803b158015610a8957600080fd5b505af1158015610a9d573d6000803e3d6000fd5b505050506040513d6020811015610ab357600080fd5b50516104385760405162461bcd60e51b81526004018080602001828103825260378152602001806118896037913960400191505060405180910390fd5b600c546001600160a01b03163314610b395760405162461bcd60e51b81526004018080602001828103825260228152602001806118396022913960400191505060405180910390fd5b610b41611046565b50600655565b6000546001600160a01b031690565b600080546001600160a01b0316610b6b6112c1565b6001600160a01b031614905090565b610b82611046565b506000610b8e426112c5565b9050826000610bbe82610bb962278d00610bad884283900683036112d0565b9063ffffffff61132916565b61136b565b600084815260026020526040902054909150610be0908263ffffffff61121c16565b600084815260026020526040902055610bff828263ffffffff61127f16565b6000848152600260209081526040918290205482518781529182018590528183015290519193507f8566fc2e4b7023295620f2a63b39b8aa7299ace6b5201ac088e3923d11ffdd8b919081900360600190a15b8115610d0f57610c6b8362278d0063ffffffff61121c16565b9250610c77848361136b565b600084815260026020526040902054909150610c99908263ffffffff61121c16565b600084815260026020526040902055610cb8828263ffffffff61127f16565b6000848152600260209081526040918290205482518781529182018590528183015290519193507f8566fc2e4b7023295620f2a63b39b8aa7299ace6b5201ac088e3923d11ffdd8b919081900360600190a1610c52565b8115610d1757fe5b5050505050565b6001546040805163349f642f60e11b81526020600482018190526009602483015268656c656374696f6e7360b81b604483015291516001600160a01b039093169263693ec85e92606480840193919291829003018186803b158015610d8257600080fd5b505afa158015610d96573d6000803e3d6000fd5b505050506040513d6020811015610dac57600080fd5b50516001600160a01b03163314610df45760405162461bcd60e51b815260040180806020018281038252602481526020018061193f6024913960400191505060405180910390fd5b828114610e325760405162461bcd60e51b815260040180806020018281038252602e81526020018061185b602e913960400191505060405180910390fd5b610e3a611046565b50600083610e49600e8261178f565b5060005b84811015610f0457838382818110610e6157fe5b90506020020135820191506040518060400160405280878784818110610e8357fe5b905060200201356001600160a01b03166001600160a01b03168152602001858584818110610ead57fe5b90506020020135815250600e8281548110610ec457fe5b600091825260209182902083516002929092020180546001600160a01b0319166001600160a01b0390921691909117815591015160019182015501610e4d565b50600d5550505050565b610f16610b56565b610f67576040805162461bcd60e51b815260206004820181905260248201527f4f776e61626c653a2063616c6c6572206973206e6f7420746865206f776e6572604482015290519081900360640190fd5b61056c81611381565b610f78610b56565b610fc9576040805162461bcd60e51b815260206004820181905260248201527f4f776e61626c653a2063616c6c6572206973206e6f7420746865206f776e6572604482015290519081900360640190fd5b6001600160a01b038116611024576040805162461bcd60e51b815260206004820152601e60248201527f636f6e74726163745265676973747279206d757374206e6f7420626520300000604482015290519081900360640190fd5b600180546001600160a01b0319166001600160a01b0392909216919091179055565b60008061105e6007544261127f90919063ffffffff16565b90506000805b600682108015611075575042600754105b1561116e5760006110876007546112c5565b9050600061109e8262278d0063ffffffff61121c16565b905060006110ac824261136b565b905060006110c56007548361127f90919063ffffffff16565b905060006110de6007548561127f90919063ffffffff16565b6000868152600260205260408120549192509082908402816110fc57fe5b600088815260026020526040902054919004978801979150611124908263ffffffff61127f16565b60008781526002602052604090205560078490558484111561114257fe5b84600754141561115c576000868152600260205260408120555b50506001909501945061106492505050565b611179816000611421565b60006111a261119a62278d00610bad876006546112d090919063ffffffff16565b60055461136b565b90506111af8160006114b9565b6005546111c2908263ffffffff61127f16565b6005556004546111ed906111e59062278d0090610bad908863ffffffff6112d016565b60035461136b565b90506111fa816001611421565b60035461120d908263ffffffff61127f16565b60035550506007549250505090565b600082820183811015611276576040805162461bcd60e51b815260206004820152601b60248201527f536166654d6174683a206164646974696f6e206f766572666c6f770000000000604482015290519081900360640190fd5b90505b92915050565b600061127683836040518060400160405280601e81526020017f536166654d6174683a207375627472616374696f6e206f766572666c6f770000815250611584565b3390565b62278d008106900390565b6000826112df57506000611279565b828202828482816112ec57fe5b04146112765760405162461bcd60e51b81526004018080602001828103825260218152602001806118ec6021913960400191505060405180910390fd5b600061127683836040518060400160405280601a81526020017f536166654d6174683a206469766973696f6e206279207a65726f00000000000081525061161b565b600081831061137a5781611276565b5090919050565b6001600160a01b0381166113c65760405162461bcd60e51b81526004018080602001828103825260268152602001806118136026913960400191505060405180910390fd5b600080546040516001600160a01b03808516939216917f8be0079c531659141344cd1fd0a4f28419497f9722a3daafe3b4186f6b6457e091a3600080546001600160a01b0319166001600160a01b0392909216919091179055565b6000805b600e5481101561149a57600e5460009061144690869063ffffffff61132916565b90506000600e838154811061145757fe5b60009182526020909120600290910201546001600160a01b0316905061147e818387611680565b61148e848363ffffffff61121c16565b93505050600101611425565b506114b46114ae848363ffffffff61127f16565b83611737565b505050565b600d54600090806114cb575050611580565b60005b600e5481101561156357600061150f83610bad600e85815481106114ee57fe5b906000526020600020906002020160010154896112d090919063ffffffff16565b90506000600e838154811061152057fe5b60009182526020909120600290910201546001600160a01b03169050611547818388611680565b611557858363ffffffff61121c16565b945050506001016114ce565b5061157d611577858463ffffffff61127f16565b84611737565b50505b5050565b600081848411156116135760405162461bcd60e51b81526004018080602001828103825283818151815260200191508051906020019080838360005b838110156115d85781810151838201526020016115c0565b50505050905090810190601f1680156116055780820380516001836020036101000a031916815260200191505b509250505060405180910390fd5b505050900390565b6000818361166a5760405162461bcd60e51b81526020600482018181528351602484015283519092839260449091019190850190808383600083156115d85781810151838201526020016115c0565b50600083858161167657fe5b0495945050505050565b600081600181111561168e57fe5b14156116db576001600160a01b0383166000908152600860205260409020546116bd908363ffffffff61121c16565b6001600160a01b0384166000908152600860205260409020556114b4565b60018160018111156116e957fe5b146116f057fe5b6001600160a01b038316600090815260096020526040902054611719908363ffffffff61121c16565b6001600160a01b038416600090815260096020526040902055505050565b6000821180156117485750600e5415155b1561158057600e805460009190428161175d57fe5b068154811061176857fe5b60009182526020909120600290910201546001600160a01b031690506114b4818484611680565b8154818355818111156114b4576000838152602090206114b49161043b9160029182028101918502015b808211156117de5780546001600160a01b0319168155600060018201556002016117b9565b509056fe526577617264733a3a746f7055704669786564506f6f6c202d20696e73756666696369656e7420616c6c6f77616e63654f776e61626c653a206e6577206f776e657220697320746865207a65726f206164647265737363616c6c6572206973206e6f7420746865207265776172647320676f7665726e6f72657870656374656420616464727320616e64207374616b657320746f206265206f662073616d65206c656e677468526577617264733a3a636c61696d45787465726e616c546f6b656e52657761726473202d20696e73756666696369656e742066756e6473657870656374656420746f20616e6420616d6f756e747320746f206265206f662073616d65206c656e677468536166654d6174683a206d756c7469706c69636174696f6e206f766572666c6f77526577617264733a3a746f70557050726f52617461506f6f6c202d20696e73756666696369656e7420616c6c6f77616e636563616c6c6572206973206e6f742074686520636f6d6d69747465652070726f76696465726e6f7420656e6f7567682062616c616e636520666f72207468697320646973747269627574696f6ea265627a7a72315820132257db0d6e0e84c0459108b8dd471eee12470118f131a91e35ff0451206ca764736f6c63430005100032",
  "source": "pragma solidity 0.5.16;\n\nimport \"@openzeppelin/contracts/math/SafeMath.sol\";\nimport \"@openzeppelin/contracts/ownership/Ownable.sol\";\nimport \"@openzeppelin/contracts/math/Math.sol\";\n\nimport \"./IStakingContract.sol\";\nimport \"./interfaces/ICommitteeListener.sol\";\nimport \"./interfaces/IRewards.sol\";\nimport \"./interfaces/IContractRegistry.sol\";\n\ncontract Rewards is IRewards, ICommitteeListener, Ownable {\n    using SafeMath for uint256;\n\n    IContractRegistry contractRegistry;\n\n    uint256 constant bucketTimePeriod = 30 days;\n\n    mapping(uint256 => uint256) feePoolBuckets;\n    uint256 fixedPool;\n    uint256 fixedPoolMonthlyRate; // TODO - should the fixed pool rate be a function of the committee size?\n    uint256 proRataPool;\n    uint256 proRataPoolMonthlyRate;\n\n    uint256 lastPayedAt;\n\n    mapping(address => uint256) orbsBalance;\n    mapping(address => uint256) externalTokenBalance;\n\n    IERC20 erc20;\n    IERC20 externalToken;\n    address rewardsGovernor;\n\n    struct CommitteeMember {\n        address addr;\n        uint256 stake;\n    }\n    enum TokenType {\n        Orbs,\n        ExternalToken\n    }\n    uint256 currentTotalStake;\n    CommitteeMember[] currentCommittee;\n\n    modifier onlyCommitteeProvider() {\n        require(msg.sender == contractRegistry.get(\"elections\"), \"caller is not the committee provider\");\n\n        _;\n    }\n\n    modifier onlyRewardsGovernor() {\n        require(msg.sender == rewardsGovernor, \"caller is not the rewards governor\");\n\n        _;\n    }\n\n    constructor(IERC20 _erc20, IERC20 _externalToken, address _rewardsGovernor) public {\n        require(address(_erc20) != address(0), \"erc20 must not be 0\");\n        require(address(_externalToken) != address(0), \"externalToken must not be 0\");\n\n        erc20 = _erc20;\n        externalToken = _externalToken;\n        lastPayedAt = now;\n        rewardsGovernor = _rewardsGovernor;\n    }\n\n    function setContractRegistry(IContractRegistry _contractRegistry) external onlyOwner {\n        require(address(_contractRegistry) != address(0), \"contractRegistry must not be 0\");\n        contractRegistry = _contractRegistry;\n    }\n\n    function setFixedPoolMonthlyRate(uint256 rate) external onlyRewardsGovernor {\n        _assignRewards();\n        fixedPoolMonthlyRate = rate;\n    }\n\n    function setProRataPoolMonthlyRate(uint256 rate) external onlyRewardsGovernor {\n        _assignRewards();\n        proRataPoolMonthlyRate = rate;\n    }\n\n    function topUpFixedPool(uint256 amount) external {\n        fixedPool = fixedPool.add(amount);\n        require(externalToken.transferFrom(msg.sender, address(this), amount), \"Rewards::topUpFixedPool - insufficient allowance\");\n    }\n\n    function topUpProRataPool(uint256 amount) external {\n        proRataPool = proRataPool.add(amount);\n        require(erc20.transferFrom(msg.sender, address(this), amount), \"Rewards::topUpProRataPool - insufficient allowance\");\n    }\n\n    function getOrbsBalance(address addr) external view returns (uint256) {\n        return orbsBalance[addr];\n    }\n\n    function getExternalTokenBalance(address addr) external view returns (uint256) {\n        return externalTokenBalance[addr];\n    }\n\n    function getLastPayedAt() external view returns (uint256) {\n        return lastPayedAt;\n    }\n\n    function committeeChanged(address[] calldata addrs, uint256[] calldata stakes) external onlyCommitteeProvider {\n        require(addrs.length == stakes.length, \"expected addrs and stakes to be of same length\");\n\n        _assignRewards(); // We want the previous committee to take the rewards\n\n        uint256 totalStake;\n        currentCommittee.length = addrs.length;\n        for (uint i = 0; i < addrs.length; i++) {\n            totalStake += stakes[i];\n            currentCommittee[i] = CommitteeMember({\n                addr: addrs[i],\n                stake: stakes[i]\n            });\n        }\n        currentTotalStake = totalStake;\n    }\n\n    uint constant MAX_REWARD_BUCKET_ITERATIONS = 6;\n\n    function assignRewards() external returns (uint256) {\n        return _assignRewards();\n    }\n\n    function _assignRewards() private returns (uint256) {\n        // TODO we often do integer division for rate related calculation, which floors the result. Do we need to address this?\n        // TODO for an empty committee or a committee with 0 total stake the divided amounts will be locked in the contract FOREVER\n\n        uint256 duration = now.sub(lastPayedAt);\n\n        // Fee pool\n        uint bucketsPayed = 0;\n        uint feePoolAmount = 0;\n        while (bucketsPayed < MAX_REWARD_BUCKET_ITERATIONS && lastPayedAt < now) {\n            uint256 bucketStart = _bucketTime(lastPayedAt);\n            uint256 bucketEnd = bucketStart.add(bucketTimePeriod);\n            uint256 payUntil = Math.min(bucketEnd, now);\n            uint256 bucketDuration = payUntil.sub(lastPayedAt);\n            uint256 remainingBucketTime = bucketEnd.sub(lastPayedAt);\n            uint256 amount = feePoolBuckets[bucketStart] * bucketDuration / remainingBucketTime;\n\n            feePoolAmount += amount;\n            feePoolBuckets[bucketStart] = feePoolBuckets[bucketStart].sub(amount);\n            lastPayedAt = payUntil;\n\n            assert(lastPayedAt <= bucketEnd);\n            if (lastPayedAt == bucketEnd) {\n                delete feePoolBuckets[bucketStart];\n            }\n\n            bucketsPayed++;\n        }\n        assignAmountFixed(feePoolAmount, TokenType.Orbs);\n\n        // Pro-rata pool\n        uint256 amount = Math.min(proRataPoolMonthlyRate.mul(duration).div(30 days), proRataPool);\n        assignAmountProRata(amount, TokenType.Orbs);\n        proRataPool = proRataPool.sub(amount);\n\n        // Fixed pool\n        amount = Math.min(fixedPoolMonthlyRate.mul(duration).div(30 days), fixedPool);\n        assignAmountFixed(amount, TokenType.ExternalToken);\n        fixedPool = fixedPool.sub(amount);\n\n        return lastPayedAt;\n    }\n\n    function addToBalance(address addr, uint256 amount, TokenType tokenType) private {\n        if (tokenType == TokenType.Orbs) {\n            orbsBalance[addr] = orbsBalance[addr].add(amount);\n        } else {\n            assert(tokenType == TokenType.ExternalToken);\n            externalTokenBalance[addr] = externalTokenBalance[addr].add(amount);\n        }\n    }\n\n    function assignRoundingRemainder(uint256 remainder, TokenType tokenType) private {\n        if (remainder > 0 && currentCommittee.length > 0) {\n            address addr = currentCommittee[now % currentCommittee.length].addr;\n            addToBalance(addr, remainder, tokenType);\n        }\n    }\n\n    function assignAmountProRata(uint256 amount, TokenType tokenType) private {\n        uint256 totalAssigned = 0;\n        uint256 totalStake = currentTotalStake;\n\n        if (totalStake == 0) { // TODO - handle this case. consider also an empty committee. consider returning a boolean saying if the amount was successfully distributed or not and handle on caller side.\n            return;\n        }\n\n        for (uint i = 0; i < currentCommittee.length; i++) {\n            uint256 curAmount = amount.mul(currentCommittee[i].stake).div(totalStake);\n            address curAddr = currentCommittee[i].addr;\n            addToBalance(curAddr, curAmount, tokenType);\n            totalAssigned = totalAssigned.add(curAmount);\n        }\n\n        assignRoundingRemainder(amount.sub(totalAssigned), tokenType);\n    }\n\n    function assignAmountFixed(uint256 amount, TokenType tokenType) private {\n        uint256 totalAssigned = 0;\n\n        for (uint i = 0; i < currentCommittee.length; i++) {\n            uint256 curAmount = amount.div(currentCommittee.length);\n            address curAddr = currentCommittee[i].addr;\n            addToBalance(curAddr, curAmount, tokenType);\n            totalAssigned = totalAssigned.add(curAmount);\n        }\n\n        assignRoundingRemainder(amount.sub(totalAssigned), tokenType);\n    }\n\n    function fillFeeBuckets(uint256 amount, uint256 monthlyRate) external {\n        _assignRewards(); // to handle rate change in the middle of a bucket time period (TBD - this is nice to have, consider removing)\n\n        uint256 bucket = _bucketTime(now);\n        uint256 _amount = amount;\n\n        // add the partial amount to the first bucket\n        uint256 bucketAmount = Math.min(amount, monthlyRate.mul(bucketTimePeriod - now % bucketTimePeriod).div(bucketTimePeriod));\n        feePoolBuckets[bucket] = feePoolBuckets[bucket].add(bucketAmount);\n        _amount = _amount.sub(bucketAmount);\n        emit FeeAddedToBucket(bucket, bucketAmount, feePoolBuckets[bucket]);\n\n        // following buckets are added with the monthly rate\n        while (_amount > 0) {\n            bucket = bucket.add(bucketTimePeriod);\n            bucketAmount = Math.min(monthlyRate, _amount);\n            feePoolBuckets[bucket] = feePoolBuckets[bucket].add(bucketAmount);\n            _amount = _amount.sub(bucketAmount);\n            emit FeeAddedToBucket(bucket, bucketAmount, feePoolBuckets[bucket]);\n        }\n\n        assert(_amount == 0);\n    }\n\n    function distributeOrbsTokenRewards(address[] calldata to, uint256[] calldata amounts) external {\n        require(to.length == amounts.length, \"expected to and amounts to be of same length\");\n\n        uint256 totalAmount = 0;\n        for (uint i = 0; i < to.length; i++) {\n            totalAmount = totalAmount.add(amounts[i]);\n        }\n        require(totalAmount <= orbsBalance[msg.sender], \"not enough balance for this distribution\");\n        orbsBalance[msg.sender] = orbsBalance[msg.sender].sub(totalAmount);\n\n        IStakingContract stakingContract = IStakingContract(contractRegistry.get(\"staking\"));\n        erc20.approve(address(stakingContract), totalAmount);\n        stakingContract.distributeRewards(totalAmount, to, amounts);\n    }\n\n    function withdrawExternalTokenRewards() external returns (uint256) {\n        uint256 amount = externalTokenBalance[msg.sender];\n        externalTokenBalance[msg.sender] = externalTokenBalance[msg.sender].sub(amount);\n        require(externalToken.transfer(msg.sender, amount), \"Rewards::claimExternalTokenRewards - insufficient funds\");\n        return amount;\n    }\n\n    function _bucketTime(uint256 time) private pure returns (uint256) {\n        return time - time % bucketTimePeriod;\n    }\n\n}\n",
  "sourcePath": "/Users/ron/repos/orbs-ethereum-contracts/pos-v2/contracts/Rewards.sol",
  "compiler": {
    "name": "solc",
    "version": "0.5.16+commit.9c3226ce.Emscripten.clang"
  },
  "schemaVersion": "3.0.23",
  "updatedAt": "2020-03-11T14:45:21.586Z",
  "devdoc": {
    "methods": {
      "isOwner()": {
        "details": "Returns true if the caller is the current owner."
      },
      "owner()": {
        "details": "Returns the address of the current owner."
      },
      "renounceOwnership()": {
        "details": "Leaves the contract without owner. It will not be possible to call `onlyOwner` functions anymore. Can only be called by the current owner.     * NOTE: Renouncing ownership will leave the contract without an owner, thereby removing any functionality that is only available to the owner."
      },
      "transferOwnership(address)": {
        "details": "Transfers ownership of the contract to a new account (`newOwner`). Can only be called by the current owner."
      }
    }
  },
  "userdoc": {
    "methods": {}
  }
}