{
  "contractName": "Subscriptions",
  "abi": [
    {
      "inputs": [
        {
          "internalType": "contract IERC20",
          "name": "_erc20",
          "type": "address"
        }
      ],
      "payable": false,
      "stateMutability": "nonpayable",
      "type": "constructor"
    },
    {
      "anonymous": false,
      "inputs": [
        {
          "indexed": true,
          "internalType": "address",
          "name": "previousOwner",
          "type": "address"
        },
        {
          "indexed": true,
          "internalType": "address",
          "name": "newOwner",
          "type": "address"
        }
      ],
      "name": "OwnershipTransferred",
      "type": "event"
    },
    {
      "anonymous": false,
      "inputs": [
        {
          "indexed": false,
          "internalType": "uint256",
          "name": "vcid",
          "type": "uint256"
        },
        {
          "indexed": false,
          "internalType": "address",
          "name": "by",
          "type": "address"
        },
        {
          "indexed": false,
          "internalType": "uint256",
          "name": "amount",
          "type": "uint256"
        },
        {
          "indexed": false,
          "internalType": "string",
          "name": "tier",
          "type": "string"
        },
        {
          "indexed": false,
          "internalType": "uint256",
          "name": "rate",
          "type": "uint256"
        }
      ],
      "name": "Payment",
      "type": "event"
    },
    {
      "anonymous": false,
      "inputs": [
        {
          "indexed": false,
          "internalType": "address",
          "name": "subscriber",
          "type": "address"
        }
      ],
      "name": "SubscriberAdded",
      "type": "event"
    },
    {
      "anonymous": false,
      "inputs": [
        {
          "indexed": false,
          "internalType": "uint256",
          "name": "vcid",
          "type": "uint256"
        },
        {
          "indexed": false,
          "internalType": "uint256",
          "name": "genRef",
          "type": "uint256"
        },
        {
          "indexed": false,
          "internalType": "uint256",
          "name": "expiresAt",
          "type": "uint256"
        },
        {
          "indexed": false,
          "internalType": "string",
          "name": "tier",
          "type": "string"
        }
      ],
      "name": "SubscriptionChanged",
      "type": "event"
    },
    {
      "anonymous": false,
      "inputs": [
        {
          "indexed": false,
          "internalType": "uint256",
          "name": "vcid",
          "type": "uint256"
        },
        {
          "indexed": false,
          "internalType": "string",
          "name": "key",
          "type": "string"
        },
        {
          "indexed": false,
          "internalType": "string",
          "name": "value",
          "type": "string"
        }
      ],
      "name": "VcConfigRecordChanged",
      "type": "event"
    },
    {
      "anonymous": false,
      "inputs": [
        {
          "indexed": false,
          "internalType": "uint256",
          "name": "vcid",
          "type": "uint256"
        },
        {
          "indexed": false,
          "internalType": "address",
          "name": "owner",
          "type": "address"
        }
      ],
      "name": "VcCreated",
      "type": "event"
    },
    {
      "anonymous": false,
      "inputs": [
        {
          "indexed": false,
          "internalType": "uint256",
          "name": "vcid",
          "type": "uint256"
        },
        {
          "indexed": false,
          "internalType": "address",
          "name": "previousOwner",
          "type": "address"
        },
        {
          "indexed": false,
          "internalType": "address",
          "name": "newOwner",
          "type": "address"
        }
      ],
      "name": "VcOwnerChanged",
      "type": "event"
    },
    {
      "constant": true,
      "inputs": [],
      "name": "isOwner",
      "outputs": [
        {
          "internalType": "bool",
          "name": "",
          "type": "bool"
        }
      ],
      "payable": false,
      "stateMutability": "view",
      "type": "function"
    },
    {
      "constant": true,
      "inputs": [],
      "name": "owner",
      "outputs": [
        {
          "internalType": "address",
          "name": "",
          "type": "address"
        }
      ],
      "payable": false,
      "stateMutability": "view",
      "type": "function"
    },
    {
      "constant": false,
      "inputs": [],
      "name": "renounceOwnership",
      "outputs": [],
      "payable": false,
      "stateMutability": "nonpayable",
      "type": "function"
    },
    {
      "constant": false,
      "inputs": [
        {
          "internalType": "address",
          "name": "newOwner",
          "type": "address"
        }
      ],
      "name": "transferOwnership",
      "outputs": [],
      "payable": false,
      "stateMutability": "nonpayable",
      "type": "function"
    },
    {
      "constant": false,
      "inputs": [
        {
          "internalType": "contract IContractRegistry",
          "name": "_contractRegistry",
          "type": "address"
        }
      ],
      "name": "setContractRegistry",
      "outputs": [],
      "payable": false,
      "stateMutability": "nonpayable",
      "type": "function"
    },
    {
      "constant": false,
      "inputs": [
        {
          "internalType": "uint256",
          "name": "vcid",
          "type": "uint256"
        },
        {
          "internalType": "string",
          "name": "key",
          "type": "string"
        },
        {
          "internalType": "string",
          "name": "value",
          "type": "string"
        }
      ],
      "name": "setVcConfigRecord",
      "outputs": [],
      "payable": false,
      "stateMutability": "nonpayable",
      "type": "function"
    },
    {
      "constant": false,
      "inputs": [
        {
          "internalType": "address",
          "name": "addr",
          "type": "address"
        }
      ],
      "name": "addSubscriber",
      "outputs": [],
      "payable": false,
      "stateMutability": "nonpayable",
      "type": "function"
    },
    {
      "constant": false,
      "inputs": [
        {
          "internalType": "string",
          "name": "tier",
          "type": "string"
        },
        {
          "internalType": "uint256",
          "name": "rate",
          "type": "uint256"
        },
        {
          "internalType": "uint256",
          "name": "amount",
          "type": "uint256"
        },
        {
          "internalType": "address",
          "name": "owner",
          "type": "address"
        }
      ],
      "name": "createVC",
      "outputs": [
        {
          "internalType": "uint256",
          "name": "",
          "type": "uint256"
        },
        {
          "internalType": "uint256",
          "name": "",
          "type": "uint256"
        }
      ],
      "payable": false,
      "stateMutability": "nonpayable",
      "type": "function"
    },
    {
      "constant": false,
      "inputs": [
        {
          "internalType": "uint256",
          "name": "vcid",
          "type": "uint256"
        },
        {
          "internalType": "uint256",
          "name": "amount",
          "type": "uint256"
        },
        {
          "internalType": "address",
          "name": "payer",
          "type": "address"
        }
      ],
      "name": "extendSubscription",
      "outputs": [],
      "payable": false,
      "stateMutability": "nonpayable",
      "type": "function"
    },
    {
      "constant": false,
      "inputs": [
        {
          "internalType": "uint256",
          "name": "vcid",
          "type": "uint256"
        },
        {
          "internalType": "address",
          "name": "owner",
          "type": "address"
        }
      ],
      "name": "setVcOwner",
      "outputs": [],
      "payable": false,
      "stateMutability": "nonpayable",
      "type": "function"
    }
  ],
  "bytecode": "0x608060405234801561001057600080fd5b5060405161125d38038061125d8339818101604052602081101561003357600080fd5b505160006100486001600160e01b0361011916565b600080546001600160a01b0319166001600160a01b0383169081178255604051929350917f8be0079c531659141344cd1fd0a4f28419497f9722a3daafe3b4186f6b6457e0908290a3506001600160a01b0381166100ed576040805162461bcd60e51b815260206004820152601360248201527f6572633230206d757374206e6f74206265203000000000000000000000000000604482015290519081900360640190fd5b620f4240600455600580546001600160a01b0319166001600160a01b039290921691909117905561011d565b3390565b6111318061012c6000396000f3fe608060405234801561001057600080fd5b506004361061009e5760003560e01c806394555d1a1161006657806394555d1a1461014b5780639e1f686214610171578063c53eedec1461023a578063f2fde38b146102d8578063fcd13d65146102fe5761009e565b806304846a49146100a357806339435b59146100d1578063715018a6146101035780638da5cb5b1461010b5780638f32d59b1461012f575b600080fd5b6100cf600480360360408110156100b957600080fd5b50803590602001356001600160a01b0316610324565b005b6100cf600480360360608110156100e757600080fd5b50803590602081013590604001356001600160a01b03166103ef565b6100cf6103ff565b610113610490565b604080516001600160a01b039092168252519081900360200190f35b6101376104a0565b604080519115158252519081900360200190f35b6100cf6004803603602081101561016157600080fd5b50356001600160a01b03166104c4565b6100cf6004803603606081101561018757600080fd5b813591908101906040810160208201356401000000008111156101a957600080fd5b8201836020820111156101bb57600080fd5b803590602001918460018302840111640100000000831117156101dd57600080fd5b9193909290916020810190356401000000008111156101fb57600080fd5b82018360208201111561020d57600080fd5b8035906020019184600183028401116401000000008311171561022f57600080fd5b50909250905061058a565b6102bf6004803603608081101561025057600080fd5b81019060208101813564010000000081111561026b57600080fd5b82018360208201111561027d57600080fd5b8035906020019184600183028401116401000000008311171561029f57600080fd5b9193509150803590602081013590604001356001600160a01b031661067d565b6040805192835260208301919091528051918290030190f35b6100cf600480360360208110156102ee57600080fd5b50356001600160a01b0316610828565b6100cf6004803603602081101561031457600080fd5b50356001600160a01b031661087b565b6000828152600360205260409020600401546001600160a01b0316331461037c5760405162461bcd60e51b81526004018080602001828103825260288152602001806110226028913960400191505060405180910390fd5b60008281526003602090815260409182902060040180546001600160a01b0385166001600160a01b03199091168117909155825185815233928101929092528183015290517f26e141bfb3d0c4d6d4b0d62ac2aadc79b7253baac458825b1b27ff31e133023b9181900360600190a15050565b6103fa83838361093f565b505050565b6104076104a0565b610446576040805162461bcd60e51b81526020600482018190526024820152600080516020611091833981519152604482015290519081900360640190fd5b600080546040516001600160a01b03909116907f8be0079c531659141344cd1fd0a4f28419497f9722a3daafe3b4186f6b6457e0908390a3600080546001600160a01b0319169055565b6000546001600160a01b03165b90565b600080546001600160a01b03166104b5610d0d565b6001600160a01b031614905090565b6104cc6104a0565b61050b576040805162461bcd60e51b81526020600482018190526024820152600080516020611091833981519152604482015290519081900360640190fd5b6001600160a01b038116610566576040805162461bcd60e51b815260206004820152601c60248201527f6d7573742070726f7669646520612076616c6964206164647265737300000000604482015290519081900360640190fd5b6001600160a01b03166000908152600260205260409020805460ff19166001179055565b6000858152600360205260409020600401546001600160a01b031633146105e25760405162461bcd60e51b81526004018080602001828103825260288152602001806110b16028913960400191505060405180910390fd5b7f3cfcbd4f573824bce797779e16c5edde336e18ef52a7442f914bdfbf5e3800cb85858585856040518086815260200180602001806020018381038352878782818152602001925080828437600083820152601f01601f191690910184810383528581526020019050858580828437600083820152604051601f909101601f1916909201829003995090975050505050505050a15050505050565b33600090815260026020526040812054819060ff166106e3576040805162461bcd60e51b815260206004820181905260248201527f6d75737420626520616e20617574686f72697a65642073756273637269626572604482015290519081900360640190fd5b60048054600181019091556106f6610f51565b6040518060a001604052808a8a8080601f016020809104026020016040519081016040528093929190818152602001838380828437600092018290525093855250505060208083018b90524260408085019190915261012c430160608501526001600160a01b038a1660809094019390935285825260038152919020825180519394508493919261078c92849290910190610f89565b506020828101516001830155604080840151600284015560608401516003840155608090930151600490920180546001600160a01b0319166001600160a01b0393841617905582518581529188169082015281517ffd2d9b129327e604cf49ebc3c8dbb4f0d6842573fae4a9bdf567b69abc4f7e09929181900390910190a161081682878761093f565b60600151909890975095505050505050565b6108306104a0565b61086f576040805162461bcd60e51b81526020600482018190526024820152600080516020611091833981519152604482015290519081900360640190fd5b61087881610d11565b50565b6108836104a0565b6108c2576040805162461bcd60e51b81526020600482018190526024820152600080516020611091833981519152604482015290519081900360640190fd5b6001600160a01b03811661091d576040805162461bcd60e51b815260206004820152601e60248201527f636f6e74726163745265676973747279206d757374206e6f7420626520300000604482015290519081900360640190fd5b600180546001600160a01b0319166001600160a01b0392909216919091179055565b6000838152600360205260409020600181015461098a906109799061096d8662278d0063ffffffff610db116565b9063ffffffff610e1316565b60028301549063ffffffff610e5516565b60028201556001546040805163349f642f60e11b815260206004820181905260076024830152667265776172647360c81b604483015291516000936001600160a01b03169263693ec85e9260648082019391829003018186803b1580156109f057600080fd5b505afa158015610a04573d6000803e3d6000fd5b505050506040513d6020811015610a1a57600080fd5b50516005546040805163a9059cbb60e01b81526001600160a01b03808516600483015260248201899052915193945091169163a9059cbb916044808201926020929091908290030181600087803b158015610a7457600080fd5b505af1158015610a88573d6000803e3d6000fd5b505050506040513d6020811015610a9e57600080fd5b5051610adb5760405162461bcd60e51b81526004018080602001828103825260248152602001806110d96024913960400191505060405180910390fd5b806001600160a01b031663d2de15798584600101546040518363ffffffff1660e01b81526004018083815260200182815260200192505050600060405180830381600087803b158015610b2d57600080fd5b505af1158015610b41573d6000803e3d6000fd5b5050506003830154600280850154604080518a81526020810185905290810182905260806060820181815288546000196101006001831615020116949094049082018190527fa84af3eb3fefbaa3f65a13b5fcb038c0c6a396e0784d422c5d622edb78f39f8395508a949388929160a083019084908015610c035780601f10610bd857610100808354040283529160200191610c03565b820191906000526020600020905b815481529060010190602001808311610be657829003601f168201915b50509550505050505060405180910390a17f75a4140b6ae1ef6418386e45d31580c6494e47cb013ade99d9f794c757f3550485848685600001866001015460405180868152602001856001600160a01b03166001600160a01b0316815260200184815260200180602001838152602001828103825284818154600181600116156101000203166002900481526020019150805460018160011615610100020316600290048015610cf45780601f10610cc957610100808354040283529160200191610cf4565b820191906000526020600020905b815481529060010190602001808311610cd757829003601f168201915b5050965050505050505060405180910390a15050505050565b3390565b6001600160a01b038116610d565760405162461bcd60e51b815260040180806020018281038252602681526020018061104a6026913960400191505060405180910390fd5b600080546040516001600160a01b03808516939216917f8be0079c531659141344cd1fd0a4f28419497f9722a3daafe3b4186f6b6457e091a3600080546001600160a01b0319166001600160a01b0392909216919091179055565b600082610dc057506000610e0d565b82820282848281610dcd57fe5b0414610e0a5760405162461bcd60e51b81526004018080602001828103825260218152602001806110706021913960400191505060405180910390fd5b90505b92915050565b6000610e0a83836040518060400160405280601a81526020017f536166654d6174683a206469766973696f6e206279207a65726f000000000000815250610eaf565b600082820183811015610e0a576040805162461bcd60e51b815260206004820152601b60248201527f536166654d6174683a206164646974696f6e206f766572666c6f770000000000604482015290519081900360640190fd5b60008183610f3b5760405162461bcd60e51b81526004018080602001828103825283818151815260200191508051906020019080838360005b83811015610f00578181015183820152602001610ee8565b50505050905090810190601f168015610f2d5780820380516001836020036101000a031916815260200191505b509250505060405180910390fd5b506000838581610f4757fe5b0495945050505050565b6040518060a001604052806060815260200160008152602001600081526020016000815260200160006001600160a01b031681525090565b828054600181600116156101000203166002900490600052602060002090601f016020900481019282601f10610fca57805160ff1916838001178555610ff7565b82800160010185558215610ff7579182015b82811115610ff7578251825591602001919060010190610fdc565b50611003929150611007565b5090565b61049d91905b80821115611003576000815560010161100d56fe6f6e6c7920746865207663206f776e65722063616e207472616e73666572206f776e6572736869704f776e61626c653a206e6577206f776e657220697320746865207a65726f2061646472657373536166654d6174683a206d756c7469706c69636174696f6e206f766572666c6f774f776e61626c653a2063616c6c6572206973206e6f7420746865206f776e65726f6e6c79207663206f776e65722063616e20736574206120766320636f6e666967207265636f72646661696c656420746f207472616e7366657220737562736372697074696f6e2066656573a265627a7a723158205d88b088d799b54ce1da522d1aa52056aa7f12fe80186ee1acb1152ac13fdc4f64736f6c63430005100032",
  "source": "pragma solidity 0.5.16;\n\nimport \"@openzeppelin/contracts/math/SafeMath.sol\";\nimport \"@openzeppelin/contracts/ownership/Ownable.sol\";\nimport \"./interfaces/ISubscriptions.sol\";\nimport \"./interfaces/IRewards.sol\";\nimport \"./interfaces/IContractRegistry.sol\";\n\ncontract Subscriptions is ISubscriptions, Ownable{\n    using SafeMath for uint256;\n\n    IContractRegistry contractRegistry;\n\n    struct VirtualChain {\n        string tier;\n        uint256 rate;\n        uint expiresAt;\n        uint genRef;\n        address owner;\n    }\n\n    mapping (address => bool) authorizedSubscribers;\n    mapping (uint => VirtualChain) virtualChains;\n\n    uint nextVcid;\n\n    IERC20 erc20;\n\n    constructor (IERC20 _erc20) public {\n        require(address(_erc20) != address(0), \"erc20 must not be 0\");\n\n        nextVcid = 1000000;\n        erc20 = _erc20;\n    }\n\n    function setContractRegistry(IContractRegistry _contractRegistry) external onlyOwner {\n        require(address(_contractRegistry) != address(0), \"contractRegistry must not be 0\");\n        contractRegistry = _contractRegistry;\n    }\n\n    function setVcConfigRecord(uint256 vcid, string calldata key, string calldata value) external {\n        require(msg.sender == virtualChains[vcid].owner, \"only vc owner can set a vc config record\");\n\n        emit VcConfigRecordChanged(vcid, key, value);\n    }\n\n    function addSubscriber(address addr) external onlyOwner {\n        require(addr != address(0), \"must provide a valid address\");\n\n        authorizedSubscribers[addr] = true;\n    }\n\n    function createVC(string calldata tier, uint256 rate, uint256 amount, address owner) external returns (uint, uint) {\n        require(authorizedSubscribers[msg.sender], \"must be an authorized subscriber\");\n\n        uint vcid = nextVcid++;\n        VirtualChain memory vc = VirtualChain({\n            expiresAt: block.timestamp,\n            genRef: block.number + 300,\n            owner: owner,\n            tier: tier,\n            rate: rate\n        });\n        virtualChains[vcid] = vc;\n\n        emit VcCreated(vcid, owner);\n\n        _extendSubscription(vcid, amount, owner);\n        return (vcid, vc.genRef);\n    }\n\n    function extendSubscription(uint256 vcid, uint256 amount, address payer) external {\n        _extendSubscription(vcid, amount, payer);\n    }\n\n    function setVcOwner(uint256 vcid, address owner) external {\n        require(msg.sender == virtualChains[vcid].owner, \"only the vc owner can transfer ownership\");\n\n        virtualChains[vcid].owner = owner;\n        emit VcOwnerChanged(vcid, msg.sender, owner);\n    }\n\n    function _extendSubscription(uint256 vcid, uint256 amount, address payer) private {\n        VirtualChain storage vc = virtualChains[vcid];\n        vc.expiresAt = vc.expiresAt.add(amount.mul(30 days).div(vc.rate));\n\n        IRewards rewardsContract = IRewards(contractRegistry.get(\"rewards\"));\n        require(erc20.transfer(address(rewardsContract), amount), \"failed to transfer subscription fees\");\n        rewardsContract.fillFeeBuckets(amount, vc.rate);\n\n        emit SubscriptionChanged(vcid, vc.genRef, vc.expiresAt, vc.tier);\n        emit Payment(vcid, payer, amount, vc.tier, vc.rate);\n    }\n\n}\n",
  "sourcePath": "/Users/ron/repos/orbs-ethereum-contracts/pos-v2/contracts/Subscriptions.sol",
  "compiler": {
    "name": "solc",
    "version": "0.5.16+commit.9c3226ce.Emscripten.clang"
  },
  "schemaVersion": "3.0.23",
  "updatedAt": "2020-03-11T13:50:01.666Z",
  "devdoc": {
    "methods": {
      "isOwner()": {
        "details": "Returns true if the caller is the current owner."
      },
      "owner()": {
        "details": "Returns the address of the current owner."
      },
      "renounceOwnership()": {
        "details": "Leaves the contract without owner. It will not be possible to call `onlyOwner` functions anymore. Can only be called by the current owner.     * NOTE: Renouncing ownership will leave the contract without an owner, thereby removing any functionality that is only available to the owner."
      },
      "transferOwnership(address)": {
        "details": "Transfers ownership of the contract to a new account (`newOwner`). Can only be called by the current owner."
      }
    }
  },
  "userdoc": {
    "methods": {}
  }
}