{
  "contractName": "Subscriptions",
  "abi": [
    {
      "inputs": [
        {
          "internalType": "contract IERC20",
          "name": "_erc20",
          "type": "address"
        }
      ],
      "payable": false,
      "stateMutability": "nonpayable",
      "type": "constructor"
    },
    {
      "anonymous": false,
      "inputs": [
        {
          "indexed": true,
          "internalType": "address",
          "name": "previousOwner",
          "type": "address"
        },
        {
          "indexed": true,
          "internalType": "address",
          "name": "newOwner",
          "type": "address"
        }
      ],
      "name": "OwnershipTransferred",
      "type": "event"
    },
    {
      "anonymous": false,
      "inputs": [
        {
          "indexed": false,
          "internalType": "uint256",
          "name": "vcid",
          "type": "uint256"
        },
        {
          "indexed": false,
          "internalType": "address",
          "name": "by",
          "type": "address"
        },
        {
          "indexed": false,
          "internalType": "uint256",
          "name": "amount",
          "type": "uint256"
        },
        {
          "indexed": false,
          "internalType": "string",
          "name": "tier",
          "type": "string"
        },
        {
          "indexed": false,
          "internalType": "uint256",
          "name": "rate",
          "type": "uint256"
        }
      ],
      "name": "Payment",
      "type": "event"
    },
    {
      "anonymous": false,
      "inputs": [
        {
          "indexed": false,
          "internalType": "address",
          "name": "subscriber",
          "type": "address"
        }
      ],
      "name": "SubscriberAdded",
      "type": "event"
    },
    {
      "anonymous": false,
      "inputs": [
        {
          "indexed": false,
          "internalType": "uint256",
          "name": "vcid",
          "type": "uint256"
        },
        {
          "indexed": false,
          "internalType": "uint256",
          "name": "genRef",
          "type": "uint256"
        },
        {
          "indexed": false,
          "internalType": "uint256",
          "name": "expiresAt",
          "type": "uint256"
        },
        {
          "indexed": false,
          "internalType": "string",
          "name": "tier",
          "type": "string"
        },
        {
          "indexed": false,
          "internalType": "string",
          "name": "deploymentSubset",
          "type": "string"
        }
      ],
      "name": "SubscriptionChanged",
      "type": "event"
    },
    {
      "anonymous": false,
      "inputs": [
        {
          "indexed": false,
          "internalType": "uint256",
          "name": "vcid",
          "type": "uint256"
        },
        {
          "indexed": false,
          "internalType": "string",
          "name": "key",
          "type": "string"
        },
        {
          "indexed": false,
          "internalType": "string",
          "name": "value",
          "type": "string"
        }
      ],
      "name": "VcConfigRecordChanged",
      "type": "event"
    },
    {
      "anonymous": false,
      "inputs": [
        {
          "indexed": false,
          "internalType": "uint256",
          "name": "vcid",
          "type": "uint256"
        },
        {
          "indexed": false,
          "internalType": "address",
          "name": "owner",
          "type": "address"
        }
      ],
      "name": "VcCreated",
      "type": "event"
    },
    {
      "anonymous": false,
      "inputs": [
        {
          "indexed": false,
          "internalType": "uint256",
          "name": "vcid",
          "type": "uint256"
        },
        {
          "indexed": false,
          "internalType": "address",
          "name": "previousOwner",
          "type": "address"
        },
        {
          "indexed": false,
          "internalType": "address",
          "name": "newOwner",
          "type": "address"
        }
      ],
      "name": "VcOwnerChanged",
      "type": "event"
    },
    {
      "constant": true,
      "inputs": [],
      "name": "isOwner",
      "outputs": [
        {
          "internalType": "bool",
          "name": "",
          "type": "bool"
        }
      ],
      "payable": false,
      "stateMutability": "view",
      "type": "function"
    },
    {
      "constant": true,
      "inputs": [],
      "name": "owner",
      "outputs": [
        {
          "internalType": "address",
          "name": "",
          "type": "address"
        }
      ],
      "payable": false,
      "stateMutability": "view",
      "type": "function"
    },
    {
      "constant": false,
      "inputs": [],
      "name": "renounceOwnership",
      "outputs": [],
      "payable": false,
      "stateMutability": "nonpayable",
      "type": "function"
    },
    {
      "constant": false,
      "inputs": [
        {
          "internalType": "address",
          "name": "newOwner",
          "type": "address"
        }
      ],
      "name": "transferOwnership",
      "outputs": [],
      "payable": false,
      "stateMutability": "nonpayable",
      "type": "function"
    },
    {
      "constant": false,
      "inputs": [
        {
          "internalType": "contract IContractRegistry",
          "name": "_contractRegistry",
          "type": "address"
        }
      ],
      "name": "setContractRegistry",
      "outputs": [],
      "payable": false,
      "stateMutability": "nonpayable",
      "type": "function"
    },
    {
      "constant": false,
      "inputs": [
        {
          "internalType": "uint256",
          "name": "vcid",
          "type": "uint256"
        },
        {
          "internalType": "string",
          "name": "key",
          "type": "string"
        },
        {
          "internalType": "string",
          "name": "value",
          "type": "string"
        }
      ],
      "name": "setVcConfigRecord",
      "outputs": [],
      "payable": false,
      "stateMutability": "nonpayable",
      "type": "function"
    },
    {
      "constant": true,
      "inputs": [
        {
          "internalType": "uint256",
          "name": "vcid",
          "type": "uint256"
        },
        {
          "internalType": "string",
          "name": "key",
          "type": "string"
        }
      ],
      "name": "getVcConfigRecord",
      "outputs": [
        {
          "internalType": "string",
          "name": "",
          "type": "string"
        }
      ],
      "payable": false,
      "stateMutability": "view",
      "type": "function"
    },
    {
      "constant": false,
      "inputs": [
        {
          "internalType": "address",
          "name": "addr",
          "type": "address"
        }
      ],
      "name": "addSubscriber",
      "outputs": [],
      "payable": false,
      "stateMutability": "nonpayable",
      "type": "function"
    },
    {
      "constant": false,
      "inputs": [
        {
          "internalType": "string",
          "name": "tier",
          "type": "string"
        },
        {
          "internalType": "uint256",
          "name": "rate",
          "type": "uint256"
        },
        {
          "internalType": "uint256",
          "name": "amount",
          "type": "uint256"
        },
        {
          "internalType": "address",
          "name": "owner",
          "type": "address"
        },
        {
          "internalType": "string",
          "name": "deploymentSubset",
          "type": "string"
        }
      ],
      "name": "createVC",
      "outputs": [
        {
          "internalType": "uint256",
          "name": "",
          "type": "uint256"
        },
        {
          "internalType": "uint256",
          "name": "",
          "type": "uint256"
        }
      ],
      "payable": false,
      "stateMutability": "nonpayable",
      "type": "function"
    },
    {
      "constant": false,
      "inputs": [
        {
          "internalType": "uint256",
          "name": "vcid",
          "type": "uint256"
        },
        {
          "internalType": "uint256",
          "name": "amount",
          "type": "uint256"
        },
        {
          "internalType": "address",
          "name": "payer",
          "type": "address"
        }
      ],
      "name": "extendSubscription",
      "outputs": [],
      "payable": false,
      "stateMutability": "nonpayable",
      "type": "function"
    },
    {
      "constant": false,
      "inputs": [
        {
          "internalType": "uint256",
          "name": "vcid",
          "type": "uint256"
        },
        {
          "internalType": "address",
          "name": "owner",
          "type": "address"
        }
      ],
      "name": "setVcOwner",
      "outputs": [],
      "payable": false,
      "stateMutability": "nonpayable",
      "type": "function"
    }
  ],
  "bytecode": "0x608060405234801561001057600080fd5b506040516117903803806117908339818101604052602081101561003357600080fd5b505160006100486001600160e01b0361011916565b600080546001600160a01b0319166001600160a01b0383169081178255604051929350917f8be0079c531659141344cd1fd0a4f28419497f9722a3daafe3b4186f6b6457e0908290a3506001600160a01b0381166100ed576040805162461bcd60e51b815260206004820152601360248201527f6572633230206d757374206e6f74206265203000000000000000000000000000604482015290519081900360640190fd5b620f4240600455600580546001600160a01b0319166001600160a01b039290921691909117905561011d565b3390565b6116648061012c6000396000f3fe608060405234801561001057600080fd5b50600436106100a95760003560e01c80638da5cb5b116100715780638da5cb5b146102f25780638f32d59b1461031657806394555d1a146103325780639e1f686214610358578063f2fde38b1461041d578063fcd13d6514610443576100a9565b806304846a49146100ae57806339435b59146100dc5780633c28c2181461010e5780634d08f412146101f8578063715018a6146102ea575b600080fd5b6100da600480360360408110156100c457600080fd5b50803590602001356001600160a01b0316610469565b005b6100da600480360360608110156100f257600080fd5b50803590602081013590604001356001600160a01b0316610534565b6101836004803603604081101561012457600080fd5b81359190810190604081016020820135600160201b81111561014557600080fd5b82018360208201111561015757600080fd5b803590602001918460018302840111600160201b8311171561017857600080fd5b509092509050610544565b6040805160208082528351818301528351919283929083019185019080838360005b838110156101bd5781810151838201526020016101a5565b50505050905090810190601f1680156101ea5780820380516001836020036101000a031916815260200191505b509250505060405180910390f35b6102d1600480360360a081101561020e57600080fd5b810190602081018135600160201b81111561022857600080fd5b82018360208201111561023a57600080fd5b803590602001918460018302840111600160201b8311171561025b57600080fd5b919390928235926020810135926001600160a01b03604083013516929091608081019060600135600160201b81111561029357600080fd5b8201836020820111156102a557600080fd5b803590602001918460018302840111600160201b831117156102c657600080fd5b50909250905061060e565b6040805192835260208301919091528051918290030190f35b6100da61099b565b6102fa610a2c565b604080516001600160a01b039092168252519081900360200190f35b61031e610a3c565b604080519115158252519081900360200190f35b6100da6004803603602081101561034857600080fd5b50356001600160a01b0316610a60565b6100da6004803603606081101561036e57600080fd5b81359190810190604081016020820135600160201b81111561038f57600080fd5b8201836020820111156103a157600080fd5b803590602001918460018302840111600160201b831117156103c257600080fd5b919390929091602081019035600160201b8111156103df57600080fd5b8201836020820111156103f157600080fd5b803590602001918460018302840111600160201b8311171561041257600080fd5b509092509050610b26565b6100da6004803603602081101561043357600080fd5b50356001600160a01b0316610c64565b6100da6004803603602081101561045957600080fd5b50356001600160a01b0316610cb7565b6000828152600360205260409020600401546001600160a01b031633146104c15760405162461bcd60e51b81526004018080602001828103825260288152602001806115556028913960400191505060405180910390fd5b60008281526003602090815260409182902060040180546001600160a01b0385166001600160a01b03199091168117909155825185815233928101929092528183015290517f26e141bfb3d0c4d6d4b0d62ac2aadc79b7253baac458825b1b27ff31e133023b9181900360600190a15050565b61053f838383610d7b565b505050565b6060600360008581526020019081526020016000206006018383604051808383808284379190910194855250506040805160209481900385018120805460026001821615610100026000190190911604601f810187900487028301870190935282825290949093509091508301828280156106005780601f106105d557610100808354040283529160200191610600565b820191906000526020600020905b8154815290600101906020018083116105e357829003601f168201915b505050505090509392505050565b33600090815260026020526040812054819060ff16610674576040805162461bcd60e51b815260206004820181905260248201527f6d75737420626520616e20617574686f72697a65642073756273637269626572604482015290519081900360640190fd5b6001546040805163349f642f60e11b815260206004820181905260086024830152671c1c9bdd1bd8dbdb60c21b604483015291516001600160a01b039093169263693ec85e92606480840193919291829003018186803b1580156106d757600080fd5b505afa1580156106eb573d6000803e3d6000fd5b505050506040513d602081101561070157600080fd5b5051604051638b8c310560e01b8152602060048201908152602482018690526001600160a01b0390921691638b8c310591879187918190604401848480828437600083820152604051601f909101601f191690920195506020945090925050508083038186803b15801561077457600080fd5b505afa158015610788573d6000803e3d6000fd5b505050506040513d602081101561079e57600080fd5b505115156001146107f6576040805162461bcd60e51b815260206004820152601960248201527f4e6f2073756368206465706c6f796d656e742073756273657400000000000000604482015290519081900360640190fd5b600480546001810190915561080961140f565b6040518060c001604052808c8c8080601f01602080910402602001604051908101604052809392919081815260200183838082843760009201919091525050509082525060208082018c90524260408084019190915261012c430160608401526001600160a01b038b1660808401528051601f8a0183900483028101830190915288815260a09092019190899089908190840183828082843760009201829052509390945250508481526003602090815260409091208351805194955085949193506108d992849291019061144e565b506020828101516001830155604083015160028301556060830151600383015560808301516004830180546001600160a01b0319166001600160a01b0390921691909117905560a08301518051610936926005850192019061144e565b5050604080518481526001600160a01b038a16602082015281517ffd2d9b129327e604cf49ebc3c8dbb4f0d6842573fae4a9bdf567b69abc4f7e0993509081900390910190a1610987828989610d7b565b60600151909a909950975050505050505050565b6109a3610a3c565b6109e2576040805162461bcd60e51b815260206004820181905260248201526000805160206115c4833981519152604482015290519081900360640190fd5b600080546040516001600160a01b03909116907f8be0079c531659141344cd1fd0a4f28419497f9722a3daafe3b4186f6b6457e0908390a3600080546001600160a01b0319169055565b6000546001600160a01b03165b90565b600080546001600160a01b0316610a516111cb565b6001600160a01b031614905090565b610a68610a3c565b610aa7576040805162461bcd60e51b815260206004820181905260248201526000805160206115c4833981519152604482015290519081900360640190fd5b6001600160a01b038116610b02576040805162461bcd60e51b815260206004820152601c60248201527f6d7573742070726f7669646520612076616c6964206164647265737300000000604482015290519081900360640190fd5b6001600160a01b03166000908152600260205260409020805460ff19166001179055565b6000858152600360205260409020600401546001600160a01b03163314610b7e5760405162461bcd60e51b81526004018080602001828103825260288152602001806115e46028913960400191505060405180910390fd5b818160036000888152602001908152602001600020600601868660405180838380828437808301925050509250505090815260200160405180910390209190610bc89291906114cc565b507f3cfcbd4f573824bce797779e16c5edde336e18ef52a7442f914bdfbf5e3800cb85858585856040518086815260200180602001806020018381038352878782818152602001925080828437600083820152601f01601f191690910184810383528581526020019050858580828437600083820152604051601f909101601f1916909201829003995090975050505050505050a15050505050565b610c6c610a3c565b610cab576040805162461bcd60e51b815260206004820181905260248201526000805160206115c4833981519152604482015290519081900360640190fd5b610cb4816111cf565b50565b610cbf610a3c565b610cfe576040805162461bcd60e51b815260206004820181905260248201526000805160206115c4833981519152604482015290519081900360640190fd5b6001600160a01b038116610d59576040805162461bcd60e51b815260206004820152601e60248201527f636f6e74726163745265676973747279206d757374206e6f7420626520300000604482015290519081900360640190fd5b600180546001600160a01b0319166001600160a01b0392909216919091179055565b60008381526003602052604090206001810154610dc690610db590610da98662278d0063ffffffff61126f16565b9063ffffffff6112d116565b60028301549063ffffffff61131316565b60028201556001546040805163349f642f60e11b815260206004820181905260076024830152667265776172647360c81b604483015291516000936001600160a01b03169263693ec85e9260648082019391829003018186803b158015610e2c57600080fd5b505afa158015610e40573d6000803e3d6000fd5b505050506040513d6020811015610e5657600080fd5b50516005546040805163a9059cbb60e01b81526001600160a01b03808516600483015260248201899052915193945091169163a9059cbb916044808201926020929091908290030181600087803b158015610eb057600080fd5b505af1158015610ec4573d6000803e3d6000fd5b505050506040513d6020811015610eda57600080fd5b5051610f175760405162461bcd60e51b815260040180806020018281038252602481526020018061160c6024913960400191505060405180910390fd5b806001600160a01b031663d2de15798584600101546040518363ffffffff1660e01b81526004018083815260200182815260200192505050600060405180830381600087803b158015610f6957600080fd5b505af1158015610f7d573d6000803e3d6000fd5b5050506003830154600280850154604080518a81526020810185905290810182905260a06060820181815288546000196101006001831615020116949094049082018190527f420aa81e9e69b55990d84a450cbff50b94e2a9795e952eec25f1a353a0864de295508a949388926005840192909190608083019060c08401908690801561104b5780601f106110205761010080835404028352916020019161104b565b820191906000526020600020905b81548152906001019060200180831161102e57829003601f168201915b50508381038252845460026000196101006001841615020190911604808252602090910190859080156110bf5780601f10611094576101008083540402835291602001916110bf565b820191906000526020600020905b8154815290600101906020018083116110a257829003601f168201915b505097505050505050505060405180910390a17f75a4140b6ae1ef6418386e45d31580c6494e47cb013ade99d9f794c757f3550485848685600001866001015460405180868152602001856001600160a01b03166001600160a01b03168152602001848152602001806020018381526020018281038252848181546001816001161561010002031660029004815260200191508054600181600116156101000203166002900480156111b25780601f10611187576101008083540402835291602001916111b2565b820191906000526020600020905b81548152906001019060200180831161119557829003601f168201915b5050965050505050505060405180910390a15050505050565b3390565b6001600160a01b0381166112145760405162461bcd60e51b815260040180806020018281038252602681526020018061157d6026913960400191505060405180910390fd5b600080546040516001600160a01b03808516939216917f8be0079c531659141344cd1fd0a4f28419497f9722a3daafe3b4186f6b6457e091a3600080546001600160a01b0319166001600160a01b0392909216919091179055565b60008261127e575060006112cb565b8282028284828161128b57fe5b04146112c85760405162461bcd60e51b81526004018080602001828103825260218152602001806115a36021913960400191505060405180910390fd5b90505b92915050565b60006112c883836040518060400160405280601a81526020017f536166654d6174683a206469766973696f6e206279207a65726f00000000000081525061136d565b6000828201838110156112c8576040805162461bcd60e51b815260206004820152601b60248201527f536166654d6174683a206164646974696f6e206f766572666c6f770000000000604482015290519081900360640190fd5b600081836113f95760405162461bcd60e51b81526004018080602001828103825283818151815260200191508051906020019080838360005b838110156113be5781810151838201526020016113a6565b50505050905090810190601f1680156113eb5780820380516001836020036101000a031916815260200191505b509250505060405180910390fd5b50600083858161140557fe5b0495945050505050565b6040518060c001604052806060815260200160008152602001600081526020016000815260200160006001600160a01b03168152602001606081525090565b828054600181600116156101000203166002900490600052602060002090601f016020900481019282601f1061148f57805160ff19168380011785556114bc565b828001600101855582156114bc579182015b828111156114bc5782518255916020019190600101906114a1565b506114c892915061153a565b5090565b828054600181600116156101000203166002900490600052602060002090601f016020900481019282601f1061150d5782800160ff198235161785556114bc565b828001600101855582156114bc579182015b828111156114bc57823582559160200191906001019061151f565b610a3991905b808211156114c8576000815560010161154056fe6f6e6c7920746865207663206f776e65722063616e207472616e73666572206f776e6572736869704f776e61626c653a206e6577206f776e657220697320746865207a65726f2061646472657373536166654d6174683a206d756c7469706c69636174696f6e206f766572666c6f774f776e61626c653a2063616c6c6572206973206e6f7420746865206f776e65726f6e6c79207663206f776e65722063616e20736574206120766320636f6e666967207265636f72646661696c656420746f207472616e7366657220737562736372697074696f6e2066656573a265627a7a723158206587b40cff82cfc9f2f58bef1d2e88d1495956fd67902dc9e02f37dfa81b1b3564736f6c63430005100032",
  "source": "pragma solidity 0.5.16;\n\nimport \"@openzeppelin/contracts/math/SafeMath.sol\";\nimport \"@openzeppelin/contracts/ownership/Ownable.sol\";\nimport \"./interfaces/ISubscriptions.sol\";\nimport \"./interfaces/IRewards.sol\";\nimport \"./interfaces/IContractRegistry.sol\";\nimport \"./interfaces/IProtocol.sol\";\n\ncontract Subscriptions is ISubscriptions, Ownable{\n    using SafeMath for uint256;\n\n    IContractRegistry contractRegistry;\n\n    struct VirtualChain {\n        string tier;\n        uint256 rate;\n        uint expiresAt;\n        uint genRef;\n        address owner;\n        string deploymentSubset;\n\n        mapping (string => string) configRecords;\n    }\n\n    mapping (address => bool) authorizedSubscribers;\n    mapping (uint => VirtualChain) virtualChains;\n\n    uint nextVcid;\n\n    IERC20 erc20;\n\n    constructor (IERC20 _erc20) public {\n        require(address(_erc20) != address(0), \"erc20 must not be 0\");\n\n        nextVcid = 1000000;\n        erc20 = _erc20;\n    }\n\n    function setContractRegistry(IContractRegistry _contractRegistry) external onlyOwner {\n        require(address(_contractRegistry) != address(0), \"contractRegistry must not be 0\");\n        contractRegistry = _contractRegistry;\n    }\n\n    function setVcConfigRecord(uint256 vcid, string calldata key, string calldata value) external {\n        require(msg.sender == virtualChains[vcid].owner, \"only vc owner can set a vc config record\");\n        virtualChains[vcid].configRecords[key] = value;\n        emit VcConfigRecordChanged(vcid, key, value);\n    }\n\n    function getVcConfigRecord(uint256 vcid, string calldata key) external view returns (string memory) {\n        return virtualChains[vcid].configRecords[key];\n    }\n\n    function addSubscriber(address addr) external onlyOwner {\n        require(addr != address(0), \"must provide a valid address\");\n\n        authorizedSubscribers[addr] = true;\n    }\n\n    function createVC(string calldata tier, uint256 rate, uint256 amount, address owner, string calldata deploymentSubset) external returns (uint, uint) {\n        require(authorizedSubscribers[msg.sender], \"must be an authorized subscriber\");\n        require(IProtocol(contractRegistry.get(\"protocol\")).deploymentSubsetExists(deploymentSubset) == true, \"No such deployment subset\");\n\n        uint vcid = nextVcid++;\n        VirtualChain memory vc = VirtualChain({\n            expiresAt: block.timestamp,\n            genRef: block.number + 300,\n            owner: owner,\n            tier: tier,\n            rate: rate,\n            deploymentSubset: deploymentSubset\n        });\n        virtualChains[vcid] = vc;\n\n        emit VcCreated(vcid, owner);\n\n        _extendSubscription(vcid, amount, owner);\n        return (vcid, vc.genRef);\n    }\n\n    function extendSubscription(uint256 vcid, uint256 amount, address payer) external {\n        _extendSubscription(vcid, amount, payer);\n    }\n\n    function setVcOwner(uint256 vcid, address owner) external {\n        require(msg.sender == virtualChains[vcid].owner, \"only the vc owner can transfer ownership\");\n\n        virtualChains[vcid].owner = owner;\n        emit VcOwnerChanged(vcid, msg.sender, owner);\n    }\n\n    function _extendSubscription(uint256 vcid, uint256 amount, address payer) private {\n        VirtualChain storage vc = virtualChains[vcid];\n        vc.expiresAt = vc.expiresAt.add(amount.mul(30 days).div(vc.rate));\n\n        IRewards rewardsContract = IRewards(contractRegistry.get(\"rewards\"));\n        require(erc20.transfer(address(rewardsContract), amount), \"failed to transfer subscription fees\");\n        rewardsContract.fillFeeBuckets(amount, vc.rate);\n\n        emit SubscriptionChanged(vcid, vc.genRef, vc.expiresAt, vc.tier, vc.deploymentSubset);\n        emit Payment(vcid, payer, amount, vc.tier, vc.rate);\n    }\n\n}\n",
  "sourcePath": "/Users/ron/repos/orbs-ethereum-contracts/pos-v2/contracts/Subscriptions.sol",
  "compiler": {
    "name": "solc",
    "version": "0.5.16+commit.9c3226ce.Emscripten.clang"
  },
  "schemaVersion": "3.0.23",
  "updatedAt": "2020-03-15T16:20:03.726Z",
  "devdoc": {
    "methods": {
      "isOwner()": {
        "details": "Returns true if the caller is the current owner."
      },
      "owner()": {
        "details": "Returns the address of the current owner."
      },
      "renounceOwnership()": {
        "details": "Leaves the contract without owner. It will not be possible to call `onlyOwner` functions anymore. Can only be called by the current owner.     * NOTE: Renouncing ownership will leave the contract without an owner, thereby removing any functionality that is only available to the owner."
      },
      "transferOwnership(address)": {
        "details": "Transfers ownership of the contract to a new account (`newOwner`). Can only be called by the current owner."
      }
    }
  },
  "userdoc": {
    "methods": {}
  }
}