{
  "contractName": "OrbsRewardsDistribution",
  "abi": [
    {
      "constant": true,
      "inputs": [],
      "name": "rewardsDistributor",
      "outputs": [
        {
          "name": "",
          "type": "address"
        }
      ],
      "payable": false,
      "stateMutability": "view",
      "type": "function"
    },
    {
      "constant": false,
      "inputs": [],
      "name": "renounceOwnership",
      "outputs": [],
      "payable": false,
      "stateMutability": "nonpayable",
      "type": "function"
    },
    {
      "constant": true,
      "inputs": [],
      "name": "owner",
      "outputs": [
        {
          "name": "",
          "type": "address"
        }
      ],
      "payable": false,
      "stateMutability": "view",
      "type": "function"
    },
    {
      "constant": true,
      "inputs": [],
      "name": "isOwner",
      "outputs": [
        {
          "name": "",
          "type": "bool"
        }
      ],
      "payable": false,
      "stateMutability": "view",
      "type": "function"
    },
    {
      "constant": true,
      "inputs": [],
      "name": "orbs",
      "outputs": [
        {
          "name": "",
          "type": "address"
        }
      ],
      "payable": false,
      "stateMutability": "view",
      "type": "function"
    },
    {
      "constant": false,
      "inputs": [
        {
          "name": "newOwner",
          "type": "address"
        }
      ],
      "name": "transferOwnership",
      "outputs": [],
      "payable": false,
      "stateMutability": "nonpayable",
      "type": "function"
    },
    {
      "inputs": [
        {
          "name": "_orbs",
          "type": "address"
        }
      ],
      "payable": false,
      "stateMutability": "nonpayable",
      "type": "constructor"
    },
    {
      "anonymous": false,
      "inputs": [
        {
          "indexed": true,
          "name": "previousRewardsDistributor",
          "type": "address"
        },
        {
          "indexed": true,
          "name": "newRewardsDistributor",
          "type": "address"
        }
      ],
      "name": "RewardsDistributorReassigned",
      "type": "event"
    },
    {
      "anonymous": false,
      "inputs": [
        {
          "indexed": false,
          "name": "distributionEvent",
          "type": "string"
        },
        {
          "indexed": true,
          "name": "recipient",
          "type": "address"
        },
        {
          "indexed": false,
          "name": "amount",
          "type": "uint256"
        }
      ],
      "name": "RewardDistributed",
      "type": "event"
    },
    {
      "anonymous": false,
      "inputs": [
        {
          "indexed": false,
          "name": "distributionEvent",
          "type": "string"
        },
        {
          "indexed": false,
          "name": "batchHash",
          "type": "bytes32[]"
        },
        {
          "indexed": false,
          "name": "batchCount",
          "type": "uint256"
        }
      ],
      "name": "RewardsDistributionAnnounced",
      "type": "event"
    },
    {
      "anonymous": false,
      "inputs": [
        {
          "indexed": false,
          "name": "distributionEvent",
          "type": "string"
        },
        {
          "indexed": false,
          "name": "batchHash",
          "type": "bytes32"
        },
        {
          "indexed": false,
          "name": "batchIndex",
          "type": "uint256"
        }
      ],
      "name": "RewardsBatchExecuted",
      "type": "event"
    },
    {
      "anonymous": false,
      "inputs": [
        {
          "indexed": false,
          "name": "distributionEvent",
          "type": "string"
        },
        {
          "indexed": false,
          "name": "abortedBatchHashes",
          "type": "bytes32[]"
        },
        {
          "indexed": false,
          "name": "abortedBatchIndices",
          "type": "uint256[]"
        }
      ],
      "name": "RewardsDistributionAborted",
      "type": "event"
    },
    {
      "anonymous": false,
      "inputs": [
        {
          "indexed": false,
          "name": "distributionEvent",
          "type": "string"
        }
      ],
      "name": "RewardsDistributionCompleted",
      "type": "event"
    },
    {
      "anonymous": false,
      "inputs": [
        {
          "indexed": true,
          "name": "previousOwner",
          "type": "address"
        },
        {
          "indexed": true,
          "name": "newOwner",
          "type": "address"
        }
      ],
      "name": "OwnershipTransferred",
      "type": "event"
    },
    {
      "constant": false,
      "inputs": [
        {
          "name": "_distributionEvent",
          "type": "string"
        },
        {
          "name": "_batchHashes",
          "type": "bytes32[]"
        }
      ],
      "name": "announceDistributionEvent",
      "outputs": [],
      "payable": false,
      "stateMutability": "nonpayable",
      "type": "function"
    },
    {
      "constant": false,
      "inputs": [
        {
          "name": "_distributionEvent",
          "type": "string"
        }
      ],
      "name": "abortDistributionEvent",
      "outputs": [],
      "payable": false,
      "stateMutability": "nonpayable",
      "type": "function"
    },
    {
      "constant": false,
      "inputs": [
        {
          "name": "_distributionEvent",
          "type": "string"
        },
        {
          "name": "_recipients",
          "type": "address[]"
        },
        {
          "name": "_amounts",
          "type": "uint256[]"
        }
      ],
      "name": "distributeRewards",
      "outputs": [],
      "payable": false,
      "stateMutability": "nonpayable",
      "type": "function"
    },
    {
      "constant": false,
      "inputs": [
        {
          "name": "_distributionEvent",
          "type": "string"
        },
        {
          "name": "_recipients",
          "type": "address[]"
        },
        {
          "name": "_amounts",
          "type": "uint256[]"
        },
        {
          "name": "_batchIndex",
          "type": "uint256"
        }
      ],
      "name": "executeCommittedBatch",
      "outputs": [],
      "payable": false,
      "stateMutability": "nonpayable",
      "type": "function"
    },
    {
      "constant": true,
      "inputs": [
        {
          "name": "_distributionEvent",
          "type": "string"
        }
      ],
      "name": "getPendingBatches",
      "outputs": [
        {
          "name": "pendingBatchHashes",
          "type": "bytes32[]"
        },
        {
          "name": "pendingBatchIndices",
          "type": "uint256[]"
        }
      ],
      "payable": false,
      "stateMutability": "view",
      "type": "function"
    },
    {
      "constant": false,
      "inputs": [],
      "name": "drainOrbs",
      "outputs": [],
      "payable": false,
      "stateMutability": "nonpayable",
      "type": "function"
    },
    {
      "constant": false,
      "inputs": [
        {
          "name": "_newRewardsDistributor",
          "type": "address"
        }
      ],
      "name": "reassignRewardsDistributor",
      "outputs": [],
      "payable": false,
      "stateMutability": "nonpayable",
      "type": "function"
    },
    {
      "constant": true,
      "inputs": [],
      "name": "isRewardsDistributor",
      "outputs": [
        {
          "name": "",
          "type": "bool"
        }
      ],
      "payable": false,
      "stateMutability": "view",
      "type": "function"
    }
  ],
  "bytecode": "0x608060405234801561001057600080fd5b5060405160208061193b833981016040819052905160008054600160a060020a03191633178082559192600160a060020a0392909216917f8be0079c531659141344cd1fd0a4f28419497f9722a3daafe3b4186f6b6457e0908290a3600160a060020a03811615156100e357604080517f08c379a000000000000000000000000000000000000000000000000000000000815260206004820152601660248201527f41646472657373206d757374206e6f7420626520302100000000000000000000604482015290519081900360640190fd5b60018054600160a060020a031916600160a060020a0392909216919091179055611829806101126000396000f3006080604052600436106100b65763ffffffff60e060020a6000350416632b163f2681146100bb5780632bbdef44146100de5780633f2a5540146101165780634e25cd72146101475780636862e44714610182578063715018a6146101975780638da5cb5b146101ac5780638f32d59b146101c1578063a742849b146101ea578063abc6d72d14610216578063cdf5195b1461022b578063d7e6e8cd14610240578063dbe25f1914610260578063f2fde38b14610319575b600080fd5b3480156100c757600080fd5b506100dc600160a060020a036004351661033a565b005b3480156100ea57600080fd5b506100dc60246004803582810192908201359181358083019290820135916044359182019101356103b6565b34801561012257600080fd5b5061012b6104d1565b60408051600160a060020a039092168252519081900360200190f35b34801561015357600080fd5b506100dc60246004803582810192908201359181358083019290820135916044359182019101356064356104e0565b34801561018e57600080fd5b506100dc610a02565b3480156101a357600080fd5b506100dc610b47565b3480156101b857600080fd5b5061012b610bb1565b3480156101cd57600080fd5b506101d6610bc1565b604080519115158252519081900360200190f35b3480156101f657600080fd5b506100dc6024600480358281019290820135918135918201910135610bd2565b34801561022257600080fd5b506101d6610e67565b34801561023757600080fd5b5061012b610e78565b34801561024c57600080fd5b506100dc6004803560248101910135610e87565b34801561026c57600080fd5b5061028060048035602481019101356111bc565b604051808060200180602001838103835285818151815260200191508051906020019060200280838360005b838110156102c45781810151838201526020016102ac565b50505050905001838103825284818151815260200191508051906020019060200280838360005b838110156103035781810151838201526020016102eb565b5050505090500194505050505060405180910390f35b34801561032557600080fd5b506100dc600160a060020a03600435166112e0565b610342610bc1565b151561034d57600080fd5b600354604051600160a060020a038084169216907f97a704c2f293b2209983e270444a46fb8f5096fa511290181aaa7cf074d6f14390600090a36003805473ffffffffffffffffffffffffffffffffffffffff1916600160a060020a0392909216919091179055565b6103be610e67565b151561043a576040805160e560020a62461bcd02815260206004820152603a60248201527f6f6e6c79207468652061737369676e656420726577617264732d64697374726960448201527f6275746f72206d61792063616c6c2074686973206d6574686f64000000000000606482015290519081900360840190fd5b6104c986868080601f0160208091040260200160405190810160405280939291908181526020018383808284375050604080516020808c0282810182019093528b82529095508b94508a93508392508501908490808284375050604080516020808b0282810182019093528a82529095508a9450899350839250850190849080828437506112ff945050505050565b505050505050565b600354600160a060020a031681565b600080600060028a8a6040518083838082843790910194855250506040519283900360200190922094505060028401925050868514610569576040805160e560020a62461bcd02815260206004820152601560248201527f6172726179206c656e677468206d69736d617463680000000000000000000000604482015290519081900360640190fd5b600087116105e7576040805160e560020a62461bcd02815260206004820152602f60248201527f6174206c65617374206f6e6520726577617264206d75737420626520696e636c60448201527f7564656420696e20612062617463680000000000000000000000000000000000606482015290519081900360840190fd5b600183015460ff16151561066b576040805160e560020a62461bcd02815260206004820152602560248201527f646973747269627574696f6e206973206e6f742063757272656e746c79206f6e60448201527f676f696e67000000000000000000000000000000000000000000000000000000606482015290519081900360840190fd5b815484106106c3576040805160e560020a62461bcd02815260206004820152601960248201527f6261746368206e756d626572206f7574206f662072616e676500000000000000604482015290519081900360640190fd5b81546000908390869081106106d457fe5b600091825260209091200154141561075c576040805160e560020a62461bcd02815260206004820152602760248201527f737065636966696564206261746368206e756d62657220616c7265616479206560448201527f7865637574656400000000000000000000000000000000000000000000000000606482015290519081900360840190fd5b6107bf8888808060200260200160405190810160405280939291908181526020018383602002808284375050604080516020808e0282810182019093528d82529095508d94508c9350839250850190849080828437508b94506116099350505050565b825490915081908390869081106107d257fe5b60009182526020909120015414610833576040805160e560020a62461bcd02815260206004820152601960248201527f6261746368206861736820646f6573206e6f74206d6174636800000000000000604482015290519081900360640190fd5b8254600019018355815460009083908690811061084c57fe5b9060005260206000200181600019169055506108f28a8a8080601f0160208091040260200160405190810160405280939291908181526020018383808284378201915050505050508989808060200260200160405190810160405280939291908181526020018383602002808284375050604080516020808f0282810182019093528e82529095508e94508d9350839250850190849080828437506112ff945050505050565b6040805160208101839052908101859052606080825281018a90527fdbb068f2be790bde8da0a5c34dffbaada5c6d015099c0d56a05094bc74332258908b908b90849088908060808101868680828437604051920182900397509095505050505050a1825415156109f65760028a8a60405180838380828437909101948552505060405192839003602001909220600080825560018201805460ff1916905590925090506109a36002830182611778565b50507f4f77788c5991c5010b5f53da726ba96a64929d4f29fa8d1e6b848eaf819f84cb8a8a6040518080602001828103825284848281815260200192508082843760405192018290039550909350505050a15b50505050505050505050565b6000610a0c610bc1565b1515610a1757600080fd5b600154604080517f70a082310000000000000000000000000000000000000000000000000000000081523060048201529051600160a060020a03909216916370a08231916024808201926020929091908290030181600087803b158015610a7d57600080fd5b505af1158015610a91573d6000803e3d6000fd5b505050506040513d6020811015610aa757600080fd5b5051600154909150600160a060020a031663a9059cbb610ac5610bb1565b836040518363ffffffff1660e060020a0281526004018083600160a060020a0316600160a060020a0316815260200182815260200192505050602060405180830381600087803b158015610b1857600080fd5b505af1158015610b2c573d6000803e3d6000fd5b505050506040513d6020811015610b4257600080fd5b505050565b610b4f610bc1565b1515610b5a57600080fd5b60008054604051600160a060020a03909116907f8be0079c531659141344cd1fd0a4f28419497f9722a3daafe3b4186f6b6457e0908390a36000805473ffffffffffffffffffffffffffffffffffffffff19169055565b600054600160a060020a03165b90565b600054600160a060020a0316331490565b600080610bdd610bc1565b1515610be857600080fd5b60028686604051808383808284379091019485525050604051928390036020019092206001015460ff16159150610c919050576040805160e560020a62461bcd02815260206004820152602760248201527f6e616d656420646973747269627574696f6e2069732063757272656e746c792060448201527f6f6e676f696e6700000000000000000000000000000000000000000000000000606482015290519081900360840190fd5b60008311610d0e576040805160e560020a62461bcd028152602060048201526024808201527f6174206c65617374206f6e65206261746368206d75737420626520616e6e6f7560448201527f6e63656400000000000000000000000000000000000000000000000000000000606482015290519081900360840190fd5b600091505b82821015610d97576000848484818110610d2957fe5b602002919091013591909114159050610d8c576040805160e560020a62461bcd02815260206004820152601960248201527f62617463682068617368206d6179206e6f742062652030783000000000000000604482015290519081900360640190fd5b600190910190610d13565b60028686604051808383808284379091019485525050604051928390036020019092208581556001808201805460ff191690911790559250610de0915050600282018585611796565b507fa579fdc84501715dbb8b66c20b071ad6293e3d6a6be1724a40923b68378870f28686868688889050604051808060200180602001848152602001838103835288888281815260200192508082843790910184810383528681526020908101915087908702808284376040519201829003995090975050505050505050a1505050505050565b600354600160a060020a0316331490565b600154600160a060020a031681565b606080610e92610bc1565b1515610e9d57600080fd5b60028484604051808383808284379091019485525050604051928390036020019092206001015460ff1615159150610f479050576040805160e560020a62461bcd02815260206004820152602b60248201527f6e616d656420646973747269627574696f6e206973206e6f742063757272656e60448201527f746c79206f6e676f696e67000000000000000000000000000000000000000000606482015290519081900360840190fd5b6040517fdbe25f1900000000000000000000000000000000000000000000000000000000815260206004820190815260248201859052309163dbe25f19918791879190819060440184848082843782019150509350505050600060405180830381600087803b158015610fb957600080fd5b505af1158015610fcd573d6000803e3d6000fd5b505050506040513d6000823e601f3d908101601f191682016040908152811015610ff657600080fd5b81019080805164010000000081111561100e57600080fd5b8201602081018481111561102157600080fd5b815185602082028301116401000000008211171561103e57600080fd5b5050929190602001805164010000000081111561105a57600080fd5b8201602081018481111561106d57600080fd5b815185602082028301116401000000008211171561108a57600080fd5b5050929190505050915091506002848460405180838380828437909101948552505060405192839003602001909220600080825560018201805460ff1916905590925090506110dc6002830182611778565b50507fc66aceae651bf329936acb1a152e2d63abc76aacf5aa28e60fa570fadddeed8284848484604051808060200180602001806020018481038452888882818152602001925080828437909101858103845287518152875160209182019250818901910280838360005b8381101561115f578181015183820152602001611147565b50505050905001848103825285818151815260200191508051906020019060200280838360005b8381101561119e578181015183820152602001611186565b5050505090500197505050505050505060405180910390a150505050565b606080600080600080600080600060028b8b60405180838380828437909101948552505060408051938490036020908101852080546002820180548289528285028901909401909452909c50919a50909850965087915050801561122a578160200160208202803883390190505b50985084604051908082528060200260200182016040528015611257578160200160208202803883390190505b50975060009250600091505b838210156112d257858281548110151561127957fe5b600091825260209091200154905080156112c75781888481518110151561129c57fe5b60209081029091010152885181908a90859081106112b657fe5b602090810290910101526001909201915b600190910190611263565b505050505050509250929050565b6112e8610bc1565b15156112f357600080fd5b6112fc816116fb565b50565b81518151600090821461135c576040805160e560020a62461bcd02815260206004820152601560248201527f6172726179206c656e677468206d69736d617463680000000000000000000000604482015290519081900360640190fd5b5060005b8181101561160257835160009085908390811061137957fe5b60209081029091010151600160a060020a03161415611408576040805160e560020a62461bcd02815260206004820152602160248201527f726563697069656e74206d75737420626520612076616c69642061646472657360448201527f7300000000000000000000000000000000000000000000000000000000000000606482015290519081900360840190fd5b6001548451600160a060020a039091169063a9059cbb9086908490811061142b57fe5b90602001906020020151858481518110151561144357fe5b906020019060200201516040518363ffffffff1660e060020a0281526004018083600160a060020a0316600160a060020a0316815260200182815260200192505050602060405180830381600087803b15801561149f57600080fd5b505af11580156114b3573d6000803e3d6000fd5b505050506040513d60208110156114c957600080fd5b50511515611521576040805160e560020a62461bcd02815260206004820152600f60248201527f7472616e73666572206661696c65640000000000000000000000000000000000604482015290519081900360640190fd5b838181518110151561152f57fe5b90602001906020020151600160a060020a03167f8b66abc81eb9e4b88acacafcc6d75ece18e30943c5ac9d9fd331ddb42eaffe3c86858481518110151561157257fe5b906020019060200201516040518080602001838152602001828103825284818151815260200191508051906020019080838360005b838110156115bf5781810151838201526020016115a7565b50505050905090810190601f1680156115ec5780820380516001836020036101000a031916815260200191505b50935050505060405180910390a2600101611360565b5050505050565b6000818451858560405160200180858152602001848152602001838051906020019060200280838360005b8381101561164c578181015183820152602001611634565b50505050905001828051906020019060200280838360005b8381101561167c578181015183820152602001611664565b505050509050019450505050506040516020818303038152906040526040518082805190602001908083835b602083106116c75780518252601f1990920191602091820191016116a8565b5181516020939093036101000a60001901801990911692169190911790526040519201829003909120979650505050505050565b600160a060020a038116151561171057600080fd5b60008054604051600160a060020a03808516939216917f8be0079c531659141344cd1fd0a4f28419497f9722a3daafe3b4186f6b6457e091a36000805473ffffffffffffffffffffffffffffffffffffffff1916600160a060020a0392909216919091179055565b50805460008255906000526020600020908101906112fc91906117e3565b8280548282559060005260206000209081019282156117d3579160200282015b828111156117d357823582556020909201916001909101906117b6565b506117df9291506117e3565b5090565b610bbe91905b808211156117df57600081556001016117e95600a165627a7a7230582052b91e09bd0e5d549f497b08d0ea4635c91be8af5db96a91bc6ae7d8be08262b0029",
  "source": "pragma solidity 0.4.26;\n\nimport \"openzeppelin-solidity/contracts/ownership/Ownable.sol\";\nimport \"openzeppelin-solidity/contracts/token/ERC20/IERC20.sol\";\nimport \"./IOrbsRewardsDistribution.sol\";\n\n/// @title Orbs rewards distribution smart contract.\ncontract OrbsRewardsDistribution is Ownable, IOrbsRewardsDistribution {\n\n    /// The Orbs token smart contract.\n    IERC20 public orbs;\n\n    struct Distribution {\n        uint256 pendingBatchCount;\n        bool hasPendingBatches;\n        bytes32[] batchHashes;\n    }\n\n    /// Mapping of all ongoing distribution events.\n    /// Distribution events are identified by a unique string\n    /// for the duration of their execution.\n    /// After completion or abortion the same name may be used again.\n    mapping(string => Distribution) distributions;\n\n    /// Address of an optional rewards-distributor account.\n    /// Meant to be used in the future should an alternate implementation of\n    /// batch-transfers locking mechanism will be needed, or for manual\n    /// transfers without batch locking should be required.\n    /// only the address of rewardsDistributor may call distributRewards()\n    address public rewardsDistributor;\n\n    /// indicates a new rewards distributor was selected.\n    event RewardsDistributorReassigned(\n        address indexed previousRewardsDistributor,\n        address indexed newRewardsDistributor\n    );\n\n    /// @dev Constructor to set Orbs token contract address.\n    /// @param _orbs IERC20 The address of the Orbs token contract.\n    constructor(IERC20 _orbs) public {\n        require(address(_orbs) != address(0), \"Address must not be 0!\");\n        orbs = _orbs;\n    }\n\n    /// @dev Declares a new distribution event. Verifies a distribution\n    /// event with the same name is not already ongoing, and records commitments\n    /// for all reward payments in the form of batch hashes array to state.\n    /// @param _distributionEvent string Name of a new distribution event\n    /// @param _batchHashes bytes32[] The address of the OrbsValidators contract.\n    function announceDistributionEvent(string _distributionEvent, bytes32[] _batchHashes) external onlyOwner {\n        require(!distributions[_distributionEvent].hasPendingBatches, \"named distribution is currently ongoing\");\n        require(_batchHashes.length > 0, \"at least one batch must be announced\");\n\n        for (uint256 i = 0; i < _batchHashes.length; i++) {\n            require(_batchHashes[i] != bytes32(0), \"batch hash may not be 0x0\");\n        }\n\n        // store distribution event record\n        Distribution storage distribution = distributions[_distributionEvent];\n        distribution.pendingBatchCount = _batchHashes.length;\n        distribution.hasPendingBatches = true;\n        distribution.batchHashes = _batchHashes;\n\n        emit RewardsDistributionAnnounced(_distributionEvent, _batchHashes, _batchHashes.length);\n    }\n\n    /// @dev Aborts an ongoing distributionEvent and revokes all batch commitments.\n    /// @param _distributionEvent string Name of a new distribution event\n    function abortDistributionEvent(string _distributionEvent) external onlyOwner {\n        require(distributions[_distributionEvent].hasPendingBatches, \"named distribution is not currently ongoing\");\n\n        (bytes32[] memory abortedBatchHashes, uint256[] memory abortedBatchIndices) = this.getPendingBatches(_distributionEvent);\n\n        delete distributions[_distributionEvent];\n\n        emit RewardsDistributionAborted(_distributionEvent, abortedBatchHashes, abortedBatchIndices);\n    }\n\n    /// @dev Carry out and logs transfers in batch. receives two arrays of same length\n    /// representing rewards payments for a list of reward recipients.\n    /// distributionEvent is only provided for logging purposes.\n    /// @param _distributionEvent string Name of a new distribution event\n    /// @param _recipients address[] a list of recipients addresses\n    /// @param _amounts uint256[] a list of amounts to transfer each recipient at the corresponding array index\n    function _distributeRewards(string _distributionEvent, address[] _recipients, uint256[] _amounts) private {\n        uint256 batchSize = _recipients.length;\n        require(batchSize == _amounts.length, \"array length mismatch\");\n\n        for (uint256 i = 0; i < batchSize; i++) {\n            require(_recipients[i] != address(0), \"recipient must be a valid address\");\n            require(orbs.transfer(_recipients[i], _amounts[i]), \"transfer failed\");\n            emit RewardDistributed(_distributionEvent, _recipients[i], _amounts[i]);\n        }\n    }\n\n    /// @dev Bypasses announcement/commitment process flow for batch payments.\n    /// Requires owner privileges to execute. Provided as a mechanism for\n    /// alternative batch commitment mechanisms if needed in the future.\n    /// @param _distributionEvent string Name of a new distribution event\n    /// @param _recipients address[] a list of recipients addresses\n    /// @param _amounts uint256[] a list of amounts to transfer each recipient at the corresponding array index\n    function distributeRewards(string _distributionEvent, address[] _recipients, uint256[] _amounts) external onlyRewardsDistributor {\n        _distributeRewards(_distributionEvent, _recipients, _amounts);\n    }\n\n    /// @dev Accepts a batch of payments associated with a distributionEvent.\n    /// Once validated against the batch hash commitment, the batch is cleared from commitment array\n    /// and executed.\n    /// If this was the last batch in distributionEvent, the record is\n    /// cleared and distributionEvent is logged as completed.\n    /// @param _distributionEvent string Name of a new distribution event\n    /// @param _recipients address[] a list of recipients addresses\n    /// @param _amounts uint256[] a list of amounts to transfer each recipient at the corresponding array index\n    /// @param _batchIndex uint256 index of the specified batch in commitments array\n    function executeCommittedBatch(string _distributionEvent, address[] _recipients, uint256[] _amounts, uint256 _batchIndex) external {\n        Distribution storage distribution = distributions[_distributionEvent];\n        bytes32[] storage batchHashes = distribution.batchHashes;\n\n        require(_recipients.length == _amounts.length, \"array length mismatch\");\n        require(_recipients.length > 0, \"at least one reward must be included in a batch\");\n        require(distribution.hasPendingBatches, \"distribution is not currently ongoing\");\n        require(batchHashes.length > _batchIndex, \"batch number out of range\");\n        require(batchHashes[_batchIndex] != bytes32(0), \"specified batch number already executed\");\n\n        bytes32 calculatedHash = calcBatchHash(_recipients, _amounts, _batchIndex);\n        require(batchHashes[_batchIndex] == calculatedHash, \"batch hash does not match\");\n\n        distribution.pendingBatchCount--;\n        batchHashes[_batchIndex] = bytes32(0); // delete\n\n        _distributeRewards(_distributionEvent, _recipients, _amounts);\n\n        emit RewardsBatchExecuted(_distributionEvent, calculatedHash, _batchIndex);\n\n        if (distribution.pendingBatchCount == 0) {\n            delete distributions[_distributionEvent];\n            emit RewardsDistributionCompleted(_distributionEvent);\n        }\n    }\n\n    /// @dev Returns all pending (not yet executed) batch hashes and indices\n    /// associated with a distributionEvent\n    /// @param _distributionEvent string Name of a new distribution event\n    /// @return pendingBatchHashes bytes32[]\n    /// @return pendingBatchIndices uint256[]\n    function getPendingBatches(string _distributionEvent) external view returns (bytes32[] pendingBatchHashes, uint256[] pendingBatchIndices) {\n        Distribution storage distribution = distributions[_distributionEvent];\n        bytes32[] storage batchHashes = distribution.batchHashes;\n        uint256 pendingBatchCount = distribution.pendingBatchCount;\n        uint256 batchHashesLength = distribution.batchHashes.length;\n\n        pendingBatchHashes = new bytes32[](pendingBatchCount);\n        pendingBatchIndices = new uint256[](pendingBatchCount);\n\n        uint256 addNextAt = 0;\n        for (uint256 i = 0; i < batchHashesLength; i++) {\n            bytes32 hash = batchHashes[i];\n            if (hash != bytes32(0)) {\n                pendingBatchIndices[addNextAt] = i;\n                pendingBatchHashes[addNextAt] = hash;\n                addNextAt++;\n            }\n        }\n    }\n\n    /// @dev For disaster recovery purposes.\n    /// Transfers away any Orbs balance from this contract to the owners address\n    function drainOrbs() external onlyOwner {\n        uint256 balance = orbs.balanceOf(address(this));\n        orbs.transfer(owner(), balance);\n    }\n\n    /// @dev Transfers control of the contract to a newOwner.\n    /// @param _newRewardsDistributor The address to set as the new rewards-distributor.\n    function reassignRewardsDistributor(address _newRewardsDistributor) public onlyOwner {\n        emit RewardsDistributorReassigned(rewardsDistributor, _newRewardsDistributor);\n        rewardsDistributor = _newRewardsDistributor;\n    }\n\n    /// return true if `msg.sender` is the assigned rewards-distributor.\n    function isRewardsDistributor() public view returns(bool) {\n        return msg.sender == rewardsDistributor;\n    }\n\n    ///@dev Throws if called by any account other than the rewards-distributor.\n    modifier onlyRewardsDistributor() {\n        require(isRewardsDistributor(), \"only the assigned rewards-distributor may call this method\");\n        _;\n    }\n\n    /// @dev Computes a hash code form a batch payment specification.\n    /// @param _recipients address[] a list of recipients addresses\n    /// @param _amounts uint256[] a list of amounts to transfer each recipient at the corresponding array index\n    /// @param _batchIndex uint256 index of the specified batch in commitments array\n    function calcBatchHash(address[] _recipients, uint256[] _amounts, uint256 _batchIndex) private pure returns (bytes32) {\n        // TODO - do length checks\n        return keccak256(abi.encodePacked(_batchIndex, _recipients.length, _recipients, _amounts));\n    }\n}",
  "sourcePath": "/Users/ron/work/src/github.com/orbs-network/orbs-ethereum-contracts/rewards-distribution/ethereum/contracts/OrbsRewardsDistribution.sol",
  "compiler": {
    "name": "solc",
    "version": "0.4.26+commit.4563c3fc.Emscripten.clang"
  },
  "schemaVersion": "3.0.11",
  "updatedAt": "2019-07-01T08:14:18.166Z",
  "devdoc": {
    "methods": {
      "abortDistributionEvent(string)": {
        "details": "Aborts an ongoing distributionEvent and revokes all batch commitments.",
        "params": {
          "_distributionEvent": "string Name of a new distribution event"
        }
      },
      "announceDistributionEvent(string,bytes32[])": {
        "details": "Declares a new distribution event. Verifies a distribution event with the same name is not already ongoing, and records commitments for all reward payments in the form of batch hashes array to state.",
        "params": {
          "_batchHashes": "bytes32[] The address of the OrbsValidators contract.",
          "_distributionEvent": "string Name of a new distribution event"
        }
      },
      "distributeRewards(string,address[],uint256[])": {
        "details": "Bypasses announcement/commitment process flow for batch payments. Requires owner privileges to execute. Provided as a mechanism for alternative batch commitment mechanisms if needed in the future.",
        "params": {
          "_amounts": "uint256[] a list of amounts to transfer each recipient at the corresponding array index",
          "_distributionEvent": "string Name of a new distribution event",
          "_recipients": "address[] a list of recipients addresses"
        }
      },
      "drainOrbs()": {
        "details": "For disaster recovery purposes. Transfers away any Orbs balance from this contract to the owners address"
      },
      "executeCommittedBatch(string,address[],uint256[],uint256)": {
        "details": "Accepts a batch of payments associated with a distributionEvent. Once validated against the batch hash commitment, the batch is cleared from commitment array and executed. If this was the last batch in distributionEvent, the record is cleared and distributionEvent is logged as completed.",
        "params": {
          "_amounts": "uint256[] a list of amounts to transfer each recipient at the corresponding array index",
          "_batchIndex": "uint256 index of the specified batch in commitments array",
          "_distributionEvent": "string Name of a new distribution event",
          "_recipients": "address[] a list of recipients addresses"
        }
      },
      "getPendingBatches(string)": {
        "details": "Returns all pending (not yet executed) batch hashes and indices associated with a distributionEvent",
        "params": {
          "_distributionEvent": "string Name of a new distribution event"
        },
        "return": "pendingBatchHashes bytes32[]pendingBatchIndices uint256[]"
      },
      "isOwner()": {
        "return": "true if `msg.sender` is the owner of the contract."
      },
      "owner()": {
        "return": "the address of the owner."
      },
      "reassignRewardsDistributor(address)": {
        "details": "Transfers control of the contract to a newOwner.",
        "params": {
          "_newRewardsDistributor": "The address to set as the new rewards-distributor."
        }
      },
      "renounceOwnership()": {
        "details": "Allows the current owner to relinquish control of the contract."
      },
      "transferOwnership(address)": {
        "details": "Allows the current owner to transfer control of the contract to a newOwner.",
        "params": {
          "newOwner": "The address to transfer ownership to."
        }
      }
    },
    "title": "Orbs rewards distribution smart contract."
  },
  "userdoc": {
    "methods": {
      "isRewardsDistributor()": {
        "notice": "return true if `msg.sender` is the assigned rewards-distributor."
      },
      "renounceOwnership()": {
        "notice": "Renouncing to ownership will leave the contract without an owner. It will not be possible to call the functions with the `onlyOwner` modifier anymore."
      }
    }
  }
}