{
  "contractName": "OrbsRewardsDistribution",
  "abi": [
    {
      "constant": false,
      "inputs": [],
      "name": "renounceOwnership",
      "outputs": [],
      "payable": false,
      "stateMutability": "nonpayable",
      "type": "function",
      "signature": "0x715018a6"
    },
    {
      "constant": true,
      "inputs": [],
      "name": "owner",
      "outputs": [
        {
          "name": "",
          "type": "address"
        }
      ],
      "payable": false,
      "stateMutability": "view",
      "type": "function",
      "signature": "0x8da5cb5b"
    },
    {
      "constant": true,
      "inputs": [],
      "name": "isOwner",
      "outputs": [
        {
          "name": "",
          "type": "bool"
        }
      ],
      "payable": false,
      "stateMutability": "view",
      "type": "function",
      "signature": "0x8f32d59b"
    },
    {
      "constant": true,
      "inputs": [],
      "name": "orbs",
      "outputs": [
        {
          "name": "",
          "type": "address"
        }
      ],
      "payable": false,
      "stateMutability": "view",
      "type": "function",
      "signature": "0xcdf5195b"
    },
    {
      "constant": false,
      "inputs": [
        {
          "name": "newOwner",
          "type": "address"
        }
      ],
      "name": "transferOwnership",
      "outputs": [],
      "payable": false,
      "stateMutability": "nonpayable",
      "type": "function",
      "signature": "0xf2fde38b"
    },
    {
      "inputs": [
        {
          "name": "_orbs",
          "type": "address"
        }
      ],
      "payable": false,
      "stateMutability": "nonpayable",
      "type": "constructor",
      "signature": "constructor"
    },
    {
      "anonymous": false,
      "inputs": [
        {
          "indexed": false,
          "name": "distributionEvent",
          "type": "string"
        },
        {
          "indexed": true,
          "name": "recipient",
          "type": "address"
        },
        {
          "indexed": false,
          "name": "amount",
          "type": "uint256"
        }
      ],
      "name": "RewardDistributed",
      "type": "event",
      "signature": "0x8b66abc81eb9e4b88acacafcc6d75ece18e30943c5ac9d9fd331ddb42eaffe3c"
    },
    {
      "anonymous": false,
      "inputs": [
        {
          "indexed": false,
          "name": "distributionEvent",
          "type": "string"
        },
        {
          "indexed": false,
          "name": "batchHash",
          "type": "bytes32[]"
        },
        {
          "indexed": false,
          "name": "batchCount",
          "type": "uint256"
        }
      ],
      "name": "RewardsDistributionAnnounced",
      "type": "event",
      "signature": "0xa579fdc84501715dbb8b66c20b071ad6293e3d6a6be1724a40923b68378870f2"
    },
    {
      "anonymous": false,
      "inputs": [
        {
          "indexed": false,
          "name": "distributionEvent",
          "type": "string"
        },
        {
          "indexed": false,
          "name": "batchHash",
          "type": "bytes32"
        },
        {
          "indexed": false,
          "name": "batchIndex",
          "type": "uint256"
        }
      ],
      "name": "RewardsBatchExecuted",
      "type": "event",
      "signature": "0xdbb068f2be790bde8da0a5c34dffbaada5c6d015099c0d56a05094bc74332258"
    },
    {
      "anonymous": false,
      "inputs": [
        {
          "indexed": false,
          "name": "distributionEvent",
          "type": "string"
        },
        {
          "indexed": false,
          "name": "abortedBatchHashes",
          "type": "bytes32[]"
        },
        {
          "indexed": false,
          "name": "abortedBatchIndices",
          "type": "uint256[]"
        }
      ],
      "name": "RewardsDistributionAborted",
      "type": "event",
      "signature": "0xc66aceae651bf329936acb1a152e2d63abc76aacf5aa28e60fa570fadddeed82"
    },
    {
      "anonymous": false,
      "inputs": [
        {
          "indexed": false,
          "name": "distributionEvent",
          "type": "string"
        }
      ],
      "name": "RewardsDistributionCompleted",
      "type": "event",
      "signature": "0x4f77788c5991c5010b5f53da726ba96a64929d4f29fa8d1e6b848eaf819f84cb"
    },
    {
      "anonymous": false,
      "inputs": [
        {
          "indexed": true,
          "name": "previousOwner",
          "type": "address"
        },
        {
          "indexed": true,
          "name": "newOwner",
          "type": "address"
        }
      ],
      "name": "OwnershipTransferred",
      "type": "event",
      "signature": "0x8be0079c531659141344cd1fd0a4f28419497f9722a3daafe3b4186f6b6457e0"
    },
    {
      "constant": false,
      "inputs": [
        {
          "name": "distributionEvent",
          "type": "string"
        },
        {
          "name": "batchHashes",
          "type": "bytes32[]"
        }
      ],
      "name": "announceDistributionEvent",
      "outputs": [],
      "payable": false,
      "stateMutability": "nonpayable",
      "type": "function",
      "signature": "0xa742849b"
    },
    {
      "constant": false,
      "inputs": [
        {
          "name": "distributionEvent",
          "type": "string"
        }
      ],
      "name": "abortDistributionEvent",
      "outputs": [],
      "payable": false,
      "stateMutability": "nonpayable",
      "type": "function",
      "signature": "0xd7e6e8cd"
    },
    {
      "constant": false,
      "inputs": [
        {
          "name": "distributionEvent",
          "type": "string"
        },
        {
          "name": "recipients",
          "type": "address[]"
        },
        {
          "name": "amounts",
          "type": "uint256[]"
        }
      ],
      "name": "distributeRewards",
      "outputs": [],
      "payable": false,
      "stateMutability": "nonpayable",
      "type": "function",
      "signature": "0x2bbdef44"
    },
    {
      "constant": false,
      "inputs": [
        {
          "name": "distributionEvent",
          "type": "string"
        },
        {
          "name": "recipients",
          "type": "address[]"
        },
        {
          "name": "amounts",
          "type": "uint256[]"
        },
        {
          "name": "batchIndex",
          "type": "uint256"
        }
      ],
      "name": "executeCommittedBatch",
      "outputs": [],
      "payable": false,
      "stateMutability": "nonpayable",
      "type": "function",
      "signature": "0x4e25cd72"
    },
    {
      "constant": true,
      "inputs": [
        {
          "name": "distributionEvent",
          "type": "string"
        }
      ],
      "name": "getPendingBatches",
      "outputs": [
        {
          "name": "pendingBatchHashes",
          "type": "bytes32[]"
        },
        {
          "name": "pendingBatchIndices",
          "type": "uint256[]"
        }
      ],
      "payable": false,
      "stateMutability": "view",
      "type": "function",
      "signature": "0xdbe25f19"
    },
    {
      "constant": false,
      "inputs": [
        {
          "name": "to",
          "type": "address"
        }
      ],
      "name": "drainOrbs",
      "outputs": [],
      "payable": false,
      "stateMutability": "nonpayable",
      "type": "function",
      "signature": "0xabfefa7e"
    }
  ],
  "bytecode": "0x608060405234801561001057600080fd5b5060405160208061176e833981016040819052905160008054600160a060020a03191633178082559192600160a060020a0392909216917f8be0079c531659141344cd1fd0a4f28419497f9722a3daafe3b4186f6b6457e0908290a3600160a060020a03811615156100e357604080517f08c379a000000000000000000000000000000000000000000000000000000000815260206004820152601660248201527f41646472657373206d757374206e6f7420626520302100000000000000000000604482015290519081900360640190fd5b60018054600160a060020a031916600160a060020a039290921691909117905561165c806101126000396000f3006080604052600436106100ae5763ffffffff7c01000000000000000000000000000000000000000000000000000000006000350416632bbdef4481146100b35780634e25cd72146100ed578063715018a6146101285780638da5cb5b1461013d5780638f32d59b1461016e578063a742849b14610197578063abfefa7e146101c3578063cdf5195b146101e4578063d7e6e8cd146101f9578063dbe25f1914610219578063f2fde38b146102d2575b600080fd5b3480156100bf57600080fd5b506100eb60246004803582810192908201359181358083019290820135916044359182019101356102f3565b005b3480156100f957600080fd5b506100eb602460048035828101929082013591813580830192908201359160443591820191013560643561039d565b34801561013457600080fd5b506100eb6108c4565b34801561014957600080fd5b5061015261092e565b60408051600160a060020a039092168252519081900360200190f35b34801561017a57600080fd5b5061018361093e565b604080519115158252519081900360200190f35b3480156101a357600080fd5b506100eb602460048035828101929082013591813591820191013561094f565b3480156101cf57600080fd5b506100eb600160a060020a0360043516610be2565b3480156101f057600080fd5b50610152610d8a565b34801561020557600080fd5b506100eb6004803560248101910135610d99565b34801561022557600080fd5b506102396004803560248101910135611024565b604051808060200180602001838103835285818151815260200191508051906020019060200280838360005b8381101561027d578181015183820152602001610265565b50505050905001838103825284818151815260200191508051906020019060200280838360005b838110156102bc5781810151838201526020016102a4565b5050505090500194505050505060405180910390f35b3480156102de57600080fd5b506100eb600160a060020a0360043516611150565b6102fb61093e565b151561030657600080fd5b61039586868080601f0160208091040260200160405190810160405280939291908181526020018383808284375050604080516020808c0282810182019093528b82529095508b94508a93508392508501908490808284375050604080516020808b0282810182019093528a82529095508a94508993508392508501908490808284375061116f945050505050565b505050505050565b60008060028989604051808383808284379091019485525050604051928390036020019092209350505085841461041e576040805160e560020a62461bcd02815260206004820152601560248201527f6172726179206c656e677468206d69736d617463680000000000000000000000604482015290519081900360640190fd5b600186101561049d576040805160e560020a62461bcd02815260206004820152602f60248201527f6174206c65617374206f6e6520726577617264206d75737420626520696e636c60448201527f7564656420696e20612062617463680000000000000000000000000000000000606482015290519081900360840190fd5b815460ff161515600114610521576040805160e560020a62461bcd02815260206004820152602560248201527f646973747269627574696f6e206973206e6f742063757272656e746c79206f6e60448201527f676f696e67000000000000000000000000000000000000000000000000000000606482015290519081900360840190fd5b6002820154831061057c576040805160e560020a62461bcd02815260206004820152601960248201527f6261746368206e756d626572206f7574206f662072616e676500000000000000604482015290519081900360640190fd5b600282018054600091908590811061059057fe5b6000918252602090912001541415610618576040805160e560020a62461bcd02815260206004820152602760248201527f737065636966696564206261746368206e756d62657220616c7265616479206560448201527f7865637574656400000000000000000000000000000000000000000000000000606482015290519081900360840190fd5b61067b8787808060200260200160405190810160405280939291908181526020018383602002808284375050604080516020808d0282810182019093528c82529095508c94508b9350839250850190849080828437508a945061143c9350505050565b60028301805491925082918590811061069057fe5b600091825260209091200154146106f1576040805160e560020a62461bcd02815260206004820152601960248201527f6261746368206861736820646f6573206e6f74206d6174636800000000000000604482015290519081900360640190fd5b600182018054600019019055600282018054600091908590811061071157fe5b9060005260206000200181600019169055506107b289898080601f0160208091040260200160405190810160405280939291908181526020018383808284375050604080516020808f0282810182019093528e82529095508e94508d93508392508501908490808284375050604080516020808e0282810182019093528d82529095508d94508c93508392508501908490808284375061116f945050505050565b6040805160208101839052908101849052606080825281018990527fdbb068f2be790bde8da0a5c34dffbaada5c6d015099c0d56a05094bc74332258908a908a90849087908060808101868680828437604051920182900397509095505050505050a1600182015415156108b9576002898960405180838380828437909101948552505060405192839003602001909220805460ff19168155600060018201819055909250905061086660028301826115ab565b50507f4f77788c5991c5010b5f53da726ba96a64929d4f29fa8d1e6b848eaf819f84cb89896040518080602001828103825284848281815260200192508082843760405192018290039550909350505050a15b505050505050505050565b6108cc61093e565b15156108d757600080fd5b60008054604051600160a060020a03909116907f8be0079c531659141344cd1fd0a4f28419497f9722a3daafe3b4186f6b6457e0908390a36000805473ffffffffffffffffffffffffffffffffffffffff19169055565b600054600160a060020a03165b90565b600054600160a060020a0316331490565b60008061095a61093e565b151561096557600080fd5b60028686604051808383808284379091019485525050604051928390036020019092205460ff16159150610a0b9050576040805160e560020a62461bcd02815260206004820152602760248201527f6e616d656420646973747269627574696f6e2069732063757272656e746c792060448201527f6f6e676f696e6700000000000000000000000000000000000000000000000000606482015290519081900360840190fd5b6001831015610a8a576040805160e560020a62461bcd02815260206004820152602b60248201527f6174206c65617374206f6e6520646973747269627574696f6e206d757374206260448201527f6520616e6e6f756e636564000000000000000000000000000000000000000000606482015290519081900360840190fd5b600091505b82821015610b13576000848484818110610aa557fe5b602002919091013591909114159050610b08576040805160e560020a62461bcd02815260206004820152601960248201527f62617463682068617368206d6179206e6f742062652030783000000000000000604482015290519081900360640190fd5b600190910190610a8f565b6002868660405180838380828437909101948552505060405192839003602001909220805460ff19166001908117825581018690559250610b5b9150506002820185856115c9565b507fa579fdc84501715dbb8b66c20b071ad6293e3d6a6be1724a40923b68378870f28686868688889050604051808060200180602001848152602001838103835288888281815260200192508082843790910184810383528681526020908101915087908702808284376040519201829003995090975050505050505050a1505050505050565b6000610bec61093e565b1515610bf757600080fd5b600160a060020a0382161515610c57576040805160e560020a62461bcd02815260206004820152601260248201527f746f2061646472657373206d697373696e670000000000000000000000000000604482015290519081900360640190fd5b600154604080517f70a082310000000000000000000000000000000000000000000000000000000081523060048201529051600160a060020a03909216916370a08231916024808201926020929091908290030181600087803b158015610cbd57600080fd5b505af1158015610cd1573d6000803e3d6000fd5b505050506040513d6020811015610ce757600080fd5b5051600154604080517fa9059cbb000000000000000000000000000000000000000000000000000000008152600160a060020a03868116600483015260248201859052915193945091169163a9059cbb916044808201926020929091908290030181600087803b158015610d5a57600080fd5b505af1158015610d6e573d6000803e3d6000fd5b505050506040513d6020811015610d8457600080fd5b50505050565b600154600160a060020a031681565b606080610da461093e565b1515610daf57600080fd5b6040517fdbe25f1900000000000000000000000000000000000000000000000000000000815260206004820190815260248201859052309163dbe25f19918791879190819060440184848082843782019150509350505050600060405180830381600087803b158015610e2157600080fd5b505af1158015610e35573d6000803e3d6000fd5b505050506040513d6000823e601f3d908101601f191682016040908152811015610e5e57600080fd5b810190808051640100000000811115610e7657600080fd5b82016020810184811115610e8957600080fd5b8151856020820283011164010000000082111715610ea657600080fd5b50509291906020018051640100000000811115610ec257600080fd5b82016020810184811115610ed557600080fd5b8151856020820283011164010000000082111715610ef257600080fd5b5050929190505050915091506002848460405180838380828437909101948552505060405192839003602001909220805460ff191681556000600182018190559092509050610f4460028301826115ab565b50507fc66aceae651bf329936acb1a152e2d63abc76aacf5aa28e60fa570fadddeed8284848484604051808060200180602001806020018481038452888882818152602001925080828437909101858103845287518152875160209182019250818901910280838360005b83811015610fc7578181015183820152602001610faf565b50505050905001848103825285818151815260200191508051906020019060200280838360005b83811015611006578181015183820152602001610fee565b5050505090500197505050505050505060405180910390a150505050565b606080600080600080600080600060028b8b604051808383808284378201915050925050509081526020016040518091039020965086600201955086600101549450866002018054905093508460405190808252806020026020018201604052801561109a578160200160208202803883390190505b509850846040519080825280602002602001820160405280156110c7578160200160208202803883390190505b50975060009250600091505b838210156111425785828154811015156110e957fe5b600091825260209091200154905080156111375781888481518110151561110c57fe5b60209081029091010152885181908a908590811061112657fe5b602090810290910101526001909201915b6001909101906110d3565b505050505050509250929050565b61115861093e565b151561116357600080fd5b61116c8161152e565b50565b8151815160009082146111cc576040805160e560020a62461bcd02815260206004820152601560248201527f6172726179206c656e677468206d69736d617463680000000000000000000000604482015290519081900360640190fd5b5060005b818110156114355783516000908590839081106111e957fe5b60209081029091010151600160a060020a03161415611278576040805160e560020a62461bcd02815260206004820152602160248201527f726563697069656e74206d75737420626520612076616c69642061646472657360448201527f7300000000000000000000000000000000000000000000000000000000000000606482015290519081900360840190fd5b6001548451600160a060020a039091169063a9059cbb9086908490811061129b57fe5b9060200190602002015185848151811015156112b357fe5b906020019060200201516040518363ffffffff167c01000000000000000000000000000000000000000000000000000000000281526004018083600160a060020a0316600160a060020a0316815260200182815260200192505050602060405180830381600087803b15801561132857600080fd5b505af115801561133c573d6000803e3d6000fd5b505050506040513d602081101561135257600080fd5b5050835184908290811061136257fe5b90602001906020020151600160a060020a03167f8b66abc81eb9e4b88acacafcc6d75ece18e30943c5ac9d9fd331ddb42eaffe3c8685848151811015156113a557fe5b906020019060200201516040518080602001838152602001828103825284818151815260200191508051906020019080838360005b838110156113f25781810151838201526020016113da565b50505050905090810190601f16801561141f5780820380516001836020036101000a031916815260200191505b50935050505060405180910390a26001016111d0565b5050505050565b6000818451858560405160200180858152602001848152602001838051906020019060200280838360005b8381101561147f578181015183820152602001611467565b50505050905001828051906020019060200280838360005b838110156114af578181015183820152602001611497565b505050509050019450505050506040516020818303038152906040526040518082805190602001908083835b602083106114fa5780518252601f1990920191602091820191016114db565b5181516020939093036101000a60001901801990911692169190911790526040519201829003909120979650505050505050565b600160a060020a038116151561154357600080fd5b60008054604051600160a060020a03808516939216917f8be0079c531659141344cd1fd0a4f28419497f9722a3daafe3b4186f6b6457e091a36000805473ffffffffffffffffffffffffffffffffffffffff1916600160a060020a0392909216919091179055565b508054600082559060005260206000209081019061116c9190611616565b828054828255906000526020600020908101928215611606579160200282015b8281111561160657823582556020909201916001909101906115e9565b50611612929150611616565b5090565b61093b91905b80821115611612576000815560010161161c5600a165627a7a723058208b98cd83255008cf8bfb5f97baabd18f4cd52612ca33652cb9331c223bddfded0029",
  "source": "pragma solidity 0.4.25;\n\nimport \"openzeppelin-solidity/contracts/ownership/Ownable.sol\";\nimport \"openzeppelin-solidity/contracts/token/ERC20/IERC20.sol\";\nimport \"./IOrbsRewardsDistribution.sol\";\n\ncontract OrbsRewardsDistribution is Ownable, IOrbsRewardsDistribution {\n\n    // The Orbs token smart contract.\n    IERC20 public orbs;\n\n    struct Distribution {\n        bool ongoing;\n        uint256 pendingBatchCount;\n        bytes32[] batchHashes;\n    }\n\n    mapping(string => Distribution) distributions;\n\n    constructor(IERC20 _orbs) public {\n        require(address(_orbs) != address(0), \"Address must not be 0!\");\n        orbs = _orbs;\n    }\n\n    function announceDistributionEvent(string distributionEvent, bytes32[] batchHashes) external onlyOwner {\n        require(distributions[distributionEvent].ongoing == false, \"named distribution is currently ongoing\");\n        require(batchHashes.length >= 1, \"at least one distribution must be announced\");\n        for (uint256 i = 0; i < batchHashes.length; i++) {\n            require(batchHashes[i] != bytes32(0), \"batch hash may not be 0x0\");\n        }\n\n        Distribution storage distribution = distributions[distributionEvent];\n        distribution.ongoing = true;\n        distribution.pendingBatchCount = batchHashes.length;\n        distribution.batchHashes = batchHashes;\n\n        emit RewardsDistributionAnnounced(distributionEvent, batchHashes, batchHashes.length);\n    }\n\n    function abortDistributionEvent(string distributionEvent) external onlyOwner {\n        (bytes32[] memory abortedBatchHashes, uint256[] memory abortedBatchIndices) = this.getPendingBatches(distributionEvent);\n\n        delete distributions[distributionEvent];\n\n        emit RewardsDistributionAborted(distributionEvent, abortedBatchHashes, abortedBatchIndices);\n    }\n\n    function _distributeRewards(string distributionEvent, address[] recipients, uint256[] amounts) private {\n        uint256 batchSize = recipients.length;\n        require(batchSize == amounts.length, \"array length mismatch\");\n\n        for (uint256 i = 0; i < batchSize; i++) {\n            require(recipients[i] != address(0), \"recipient must be a valid address\");\n            orbs.transfer(recipients[i], amounts[i]);\n            emit RewardDistributed(distributionEvent, recipients[i], amounts[i]);\n        }\n    }\n\n    function distributeRewards(string distributionEvent, address[] recipients, uint256[] amounts) external onlyOwner {\n        _distributeRewards(distributionEvent, recipients, amounts);\n    }\n\n    function executeCommittedBatch(string distributionEvent, address[] recipients, uint256[] amounts, uint256 batchIndex) external {\n        Distribution storage distribution = distributions[distributionEvent];\n\n        require(recipients.length == amounts.length, \"array length mismatch\");\n        require(recipients.length >= 1, \"at least one reward must be included in a batch\");\n        require(distribution.ongoing == true, \"distribution is not currently ongoing\");\n        require(distribution.batchHashes.length > batchIndex, \"batch number out of range\");\n        require(distribution.batchHashes[batchIndex] != bytes32(0), \"specified batch number already executed\");\n\n        bytes32 calculatedHash = calcBatchHash(recipients, amounts, batchIndex);\n        require(distribution.batchHashes[batchIndex] == calculatedHash, \"batch hash does not match\");\n\n        distribution.pendingBatchCount--;\n        distribution.batchHashes[batchIndex] = bytes32(0); // delete\n\n        _distributeRewards(distributionEvent, recipients, amounts);\n\n        emit RewardsBatchExecuted(distributionEvent, calculatedHash, batchIndex);\n\n        if (distribution.pendingBatchCount == 0) {\n            delete distributions[distributionEvent];\n            emit RewardsDistributionCompleted(distributionEvent);\n        }\n    }\n\n    function getPendingBatches(string distributionEvent) external view returns (bytes32[] pendingBatchHashes, uint256[] pendingBatchIndices) {\n        Distribution storage distribution = distributions[distributionEvent];\n        bytes32[] storage batchHashes = distribution.batchHashes;\n        uint256 pendingBatchCount = distribution.pendingBatchCount;\n        uint256 batchHashesLength = distribution.batchHashes.length;\n\n        pendingBatchHashes = new bytes32[](pendingBatchCount);\n        pendingBatchIndices = new uint256[](pendingBatchCount);\n\n        uint256 addNextAt = 0;\n        for (uint256 i = 0; i < batchHashesLength; i++) {\n            bytes32 hash = batchHashes[i];\n            if (hash != bytes32(0)) {\n                pendingBatchIndices[addNextAt] = i;\n                pendingBatchHashes[addNextAt] = hash;\n                addNextAt++;\n            }\n        }\n    }\n\n    function drainOrbs(address to) external onlyOwner {\n        // TODO - transfer to owner/sender, merge with abort?\n        require(to != address(0), \"to address missing\");\n        uint256 balance = orbs.balanceOf(address(this));\n        orbs.transfer(to, balance);\n    }\n\n    function calcBatchHash(address[] recipients, uint256[] amounts, uint256 batchIndex) private pure returns (bytes32) {\n        // TODO - do we really need recipients.length in the hash?...\n        return keccak256(abi.encodePacked(batchIndex, recipients.length, recipients, amounts));\n    }\n}",
  "sourcePath": "/Users/ron/work/src/github.com/orbs-network/orbs-ethereum-contracts/rewards-distribution/ethereum/contracts/OrbsRewardsDistribution.sol",
  "compiler": {
    "name": "solc",
    "version": "0.4.25+commit.59dbf8f1.Emscripten.clang"
  },
  "schemaVersion": "3.0.2",
  "updatedAt": "2019-06-25T13:37:25.567Z",
  "devdoc": {
    "methods": {
      "isOwner()": {
        "return": "true if `msg.sender` is the owner of the contract."
      },
      "owner()": {
        "return": "the address of the owner."
      },
      "renounceOwnership()": {
        "details": "Allows the current owner to relinquish control of the contract."
      },
      "transferOwnership(address)": {
        "details": "Allows the current owner to transfer control of the contract to a newOwner.",
        "params": {
          "newOwner": "The address to transfer ownership to."
        }
      }
    }
  },
  "userdoc": {
    "methods": {
      "renounceOwnership()": {
        "notice": "Renouncing to ownership will leave the contract without an owner. It will not be possible to call the functions with the `onlyOwner` modifier anymore."
      }
    }
  }
}