{
  "contractName": "OrbsRewardsDistribution",
  "abi": [
    {
      "constant": false,
      "inputs": [],
      "name": "renounceOwnership",
      "outputs": [],
      "payable": false,
      "stateMutability": "nonpayable",
      "type": "function"
    },
    {
      "constant": true,
      "inputs": [],
      "name": "owner",
      "outputs": [
        {
          "name": "",
          "type": "address"
        }
      ],
      "payable": false,
      "stateMutability": "view",
      "type": "function"
    },
    {
      "constant": true,
      "inputs": [],
      "name": "isOwner",
      "outputs": [
        {
          "name": "",
          "type": "bool"
        }
      ],
      "payable": false,
      "stateMutability": "view",
      "type": "function"
    },
    {
      "constant": true,
      "inputs": [],
      "name": "orbs",
      "outputs": [
        {
          "name": "",
          "type": "address"
        }
      ],
      "payable": false,
      "stateMutability": "view",
      "type": "function"
    },
    {
      "constant": false,
      "inputs": [
        {
          "name": "newOwner",
          "type": "address"
        }
      ],
      "name": "transferOwnership",
      "outputs": [],
      "payable": false,
      "stateMutability": "nonpayable",
      "type": "function"
    },
    {
      "inputs": [
        {
          "name": "_orbs",
          "type": "address"
        }
      ],
      "payable": false,
      "stateMutability": "nonpayable",
      "type": "constructor"
    },
    {
      "anonymous": false,
      "inputs": [
        {
          "indexed": false,
          "name": "distributionEvent",
          "type": "string"
        },
        {
          "indexed": true,
          "name": "recipient",
          "type": "address"
        },
        {
          "indexed": false,
          "name": "amount",
          "type": "uint256"
        }
      ],
      "name": "RewardDistributed",
      "type": "event"
    },
    {
      "anonymous": false,
      "inputs": [
        {
          "indexed": false,
          "name": "distributionEvent",
          "type": "string"
        },
        {
          "indexed": false,
          "name": "batchHash",
          "type": "bytes32[]"
        },
        {
          "indexed": false,
          "name": "batchCount",
          "type": "uint256"
        }
      ],
      "name": "RewardsDistributionAnnounced",
      "type": "event"
    },
    {
      "anonymous": false,
      "inputs": [
        {
          "indexed": false,
          "name": "distributionEvent",
          "type": "string"
        },
        {
          "indexed": false,
          "name": "batchHash",
          "type": "bytes32"
        },
        {
          "indexed": false,
          "name": "batchIndex",
          "type": "uint256"
        }
      ],
      "name": "RewardsBatchExecuted",
      "type": "event"
    },
    {
      "anonymous": false,
      "inputs": [
        {
          "indexed": false,
          "name": "distributionEvent",
          "type": "string"
        },
        {
          "indexed": false,
          "name": "abortedBatchHashes",
          "type": "bytes32[]"
        },
        {
          "indexed": false,
          "name": "abortedBatchIndices",
          "type": "uint256[]"
        }
      ],
      "name": "RewardsDistributionAborted",
      "type": "event"
    },
    {
      "anonymous": false,
      "inputs": [
        {
          "indexed": false,
          "name": "distributionEvent",
          "type": "string"
        }
      ],
      "name": "RewardsDistributionCompleted",
      "type": "event"
    },
    {
      "anonymous": false,
      "inputs": [
        {
          "indexed": true,
          "name": "previousOwner",
          "type": "address"
        },
        {
          "indexed": true,
          "name": "newOwner",
          "type": "address"
        }
      ],
      "name": "OwnershipTransferred",
      "type": "event"
    },
    {
      "constant": false,
      "inputs": [
        {
          "name": "distributionEvent",
          "type": "string"
        },
        {
          "name": "batchHashes",
          "type": "bytes32[]"
        }
      ],
      "name": "announceDistributionEvent",
      "outputs": [],
      "payable": false,
      "stateMutability": "nonpayable",
      "type": "function"
    },
    {
      "constant": false,
      "inputs": [
        {
          "name": "distributionEvent",
          "type": "string"
        }
      ],
      "name": "abortDistributionEvent",
      "outputs": [],
      "payable": false,
      "stateMutability": "nonpayable",
      "type": "function"
    },
    {
      "constant": false,
      "inputs": [
        {
          "name": "distributionEvent",
          "type": "string"
        },
        {
          "name": "recipients",
          "type": "address[]"
        },
        {
          "name": "amounts",
          "type": "uint256[]"
        }
      ],
      "name": "distributeRewards",
      "outputs": [],
      "payable": false,
      "stateMutability": "nonpayable",
      "type": "function"
    },
    {
      "constant": false,
      "inputs": [
        {
          "name": "distributionEvent",
          "type": "string"
        },
        {
          "name": "recipients",
          "type": "address[]"
        },
        {
          "name": "amounts",
          "type": "uint256[]"
        },
        {
          "name": "batchIndex",
          "type": "uint256"
        }
      ],
      "name": "executeCommittedBatch",
      "outputs": [],
      "payable": false,
      "stateMutability": "nonpayable",
      "type": "function"
    },
    {
      "constant": true,
      "inputs": [
        {
          "name": "distributionEvent",
          "type": "string"
        }
      ],
      "name": "getPendingBatches",
      "outputs": [
        {
          "name": "pendingBatchHashes",
          "type": "bytes32[]"
        },
        {
          "name": "pendingBatchIndices",
          "type": "uint256[]"
        }
      ],
      "payable": false,
      "stateMutability": "view",
      "type": "function"
    },
    {
      "constant": false,
      "inputs": [
        {
          "name": "to",
          "type": "address"
        }
      ],
      "name": "drainOrbs",
      "outputs": [],
      "payable": false,
      "stateMutability": "nonpayable",
      "type": "function"
    }
  ],
  "bytecode": "0x608060405234801561001057600080fd5b50604051602080611817833981016040819052905160008054600160a060020a03191633178082559192600160a060020a0392909216917f8be0079c531659141344cd1fd0a4f28419497f9722a3daafe3b4186f6b6457e0908290a3600160a060020a03811615156100e357604080517f08c379a000000000000000000000000000000000000000000000000000000000815260206004820152601660248201527f41646472657373206d757374206e6f7420626520302100000000000000000000604482015290519081900360640190fd5b60018054600160a060020a031916600160a060020a0392909216919091179055611705806101126000396000f3006080604052600436106100ae5763ffffffff7c01000000000000000000000000000000000000000000000000000000006000350416632bbdef4481146100b35780634e25cd72146100ed578063715018a6146101285780638da5cb5b1461013d5780638f32d59b1461016e578063a742849b14610197578063abfefa7e146101c3578063cdf5195b146101e4578063d7e6e8cd146101f9578063dbe25f1914610219578063f2fde38b146102d2575b600080fd5b3480156100bf57600080fd5b506100eb60246004803582810192908201359181358083019290820135916044359182019101356102f3565b005b3480156100f957600080fd5b506100eb602460048035828101929082013591813580830192908201359160443591820191013560643561039d565b34801561013457600080fd5b506100eb6108c4565b34801561014957600080fd5b5061015261092e565b60408051600160a060020a039092168252519081900360200190f35b34801561017a57600080fd5b5061018361093e565b604080519115158252519081900360200190f35b3480156101a357600080fd5b506100eb602460048035828101929082013591813591820191013561094f565b3480156101cf57600080fd5b506100eb600160a060020a0360043516610be1565b3480156101f057600080fd5b50610152610d89565b34801561020557600080fd5b506100eb6004803560248101910135610d98565b34801561022557600080fd5b5061023960048035602481019101356110cd565b604051808060200180602001838103835285818151815260200191508051906020019060200280838360005b8381101561027d578181015183820152602001610265565b50505050905001838103825284818151815260200191508051906020019060200280838360005b838110156102bc5781810151838201526020016102a4565b5050505090500194505050505060405180910390f35b3480156102de57600080fd5b506100eb600160a060020a03600435166111f9565b6102fb61093e565b151561030657600080fd5b61039586868080601f0160208091040260200160405190810160405280939291908181526020018383808284375050604080516020808c0282810182019093528b82529095508b94508a93508392508501908490808284375050604080516020808b0282810182019093528a82529095508a945089935083925085019084908082843750611218945050505050565b505050505050565b60008060028989604051808383808284379091019485525050604051928390036020019092209350505085841461041e576040805160e560020a62461bcd02815260206004820152601560248201527f6172726179206c656e677468206d69736d617463680000000000000000000000604482015290519081900360640190fd5b600186101561049d576040805160e560020a62461bcd02815260206004820152602f60248201527f6174206c65617374206f6e6520726577617264206d75737420626520696e636c60448201527f7564656420696e20612062617463680000000000000000000000000000000000606482015290519081900360840190fd5b815460ff161515600114610521576040805160e560020a62461bcd02815260206004820152602560248201527f646973747269627574696f6e206973206e6f742063757272656e746c79206f6e60448201527f676f696e67000000000000000000000000000000000000000000000000000000606482015290519081900360840190fd5b6002820154831061057c576040805160e560020a62461bcd02815260206004820152601960248201527f6261746368206e756d626572206f7574206f662072616e676500000000000000604482015290519081900360640190fd5b600282018054600091908590811061059057fe5b6000918252602090912001541415610618576040805160e560020a62461bcd02815260206004820152602760248201527f737065636966696564206261746368206e756d62657220616c7265616479206560448201527f7865637574656400000000000000000000000000000000000000000000000000606482015290519081900360840190fd5b61067b8787808060200260200160405190810160405280939291908181526020018383602002808284375050604080516020808d0282810182019093528c82529095508c94508b9350839250850190849080828437508a94506114e59350505050565b60028301805491925082918590811061069057fe5b600091825260209091200154146106f1576040805160e560020a62461bcd02815260206004820152601960248201527f6261746368206861736820646f6573206e6f74206d6174636800000000000000604482015290519081900360640190fd5b600182018054600019019055600282018054600091908590811061071157fe5b9060005260206000200181600019169055506107b289898080601f0160208091040260200160405190810160405280939291908181526020018383808284375050604080516020808f0282810182019093528e82529095508e94508d93508392508501908490808284375050604080516020808e0282810182019093528d82529095508d94508c935083925085019084908082843750611218945050505050565b6040805160208101839052908101849052606080825281018990527fdbb068f2be790bde8da0a5c34dffbaada5c6d015099c0d56a05094bc74332258908a908a90849087908060808101868680828437604051920182900397509095505050505050a1600182015415156108b9576002898960405180838380828437909101948552505060405192839003602001909220805460ff1916815560006001820181905590925090506108666002830182611654565b50507f4f77788c5991c5010b5f53da726ba96a64929d4f29fa8d1e6b848eaf819f84cb89896040518080602001828103825284848281815260200192508082843760405192018290039550909350505050a15b505050505050505050565b6108cc61093e565b15156108d757600080fd5b60008054604051600160a060020a03909116907f8be0079c531659141344cd1fd0a4f28419497f9722a3daafe3b4186f6b6457e0908390a36000805473ffffffffffffffffffffffffffffffffffffffff19169055565b600054600160a060020a03165b90565b600054600160a060020a0316331490565b60008061095a61093e565b151561096557600080fd5b60028686604051808383808284379091019485525050604051928390036020019092205460ff16159150610a0b9050576040805160e560020a62461bcd02815260206004820152602760248201527f6e616d656420646973747269627574696f6e2069732063757272656e746c792060448201527f6f6e676f696e6700000000000000000000000000000000000000000000000000606482015290519081900360840190fd5b6001831015610a89576040805160e560020a62461bcd028152602060048201526024808201527f6174206c65617374206f6e65206261746368206d75737420626520616e6e6f7560448201527f6e63656400000000000000000000000000000000000000000000000000000000606482015290519081900360840190fd5b600091505b82821015610b12576000848484818110610aa457fe5b602002919091013591909114159050610b07576040805160e560020a62461bcd02815260206004820152601960248201527f62617463682068617368206d6179206e6f742062652030783000000000000000604482015290519081900360640190fd5b600190910190610a8e565b6002868660405180838380828437909101948552505060405192839003602001909220805460ff19166001908117825581018690559250610b5a915050600282018585611672565b507fa579fdc84501715dbb8b66c20b071ad6293e3d6a6be1724a40923b68378870f28686868688889050604051808060200180602001848152602001838103835288888281815260200192508082843790910184810383528681526020908101915087908702808284376040519201829003995090975050505050505050a1505050505050565b6000610beb61093e565b1515610bf657600080fd5b600160a060020a0382161515610c56576040805160e560020a62461bcd02815260206004820152601260248201527f746f2061646472657373206d697373696e670000000000000000000000000000604482015290519081900360640190fd5b600154604080517f70a082310000000000000000000000000000000000000000000000000000000081523060048201529051600160a060020a03909216916370a08231916024808201926020929091908290030181600087803b158015610cbc57600080fd5b505af1158015610cd0573d6000803e3d6000fd5b505050506040513d6020811015610ce657600080fd5b5051600154604080517fa9059cbb000000000000000000000000000000000000000000000000000000008152600160a060020a03868116600483015260248201859052915193945091169163a9059cbb916044808201926020929091908290030181600087803b158015610d5957600080fd5b505af1158015610d6d573d6000803e3d6000fd5b505050506040513d6020811015610d8357600080fd5b50505050565b600154600160a060020a031681565b606080610da361093e565b1515610dae57600080fd5b60028484604051808383808284379091019485525050604051928390036020019092205460ff1615156001149150610e589050576040805160e560020a62461bcd02815260206004820152602b60248201527f6e616d656420646973747269627574696f6e206973206e6f742063757272656e60448201527f746c79206f6e676f696e67000000000000000000000000000000000000000000606482015290519081900360840190fd5b6040517fdbe25f1900000000000000000000000000000000000000000000000000000000815260206004820190815260248201859052309163dbe25f19918791879190819060440184848082843782019150509350505050600060405180830381600087803b158015610eca57600080fd5b505af1158015610ede573d6000803e3d6000fd5b505050506040513d6000823e601f3d908101601f191682016040908152811015610f0757600080fd5b810190808051640100000000811115610f1f57600080fd5b82016020810184811115610f3257600080fd5b8151856020820283011164010000000082111715610f4f57600080fd5b50509291906020018051640100000000811115610f6b57600080fd5b82016020810184811115610f7e57600080fd5b8151856020820283011164010000000082111715610f9b57600080fd5b5050929190505050915091506002848460405180838380828437909101948552505060405192839003602001909220805460ff191681556000600182018190559092509050610fed6002830182611654565b50507fc66aceae651bf329936acb1a152e2d63abc76aacf5aa28e60fa570fadddeed8284848484604051808060200180602001806020018481038452888882818152602001925080828437909101858103845287518152875160209182019250818901910280838360005b83811015611070578181015183820152602001611058565b50505050905001848103825285818151815260200191508051906020019060200280838360005b838110156110af578181015183820152602001611097565b5050505090500197505050505050505060405180910390a150505050565b606080600080600080600080600060028b8b6040518083838082843782019150509250505090815260200160405180910390209650866002019550866001015494508660020180549050935084604051908082528060200260200182016040528015611143578160200160208202803883390190505b50985084604051908082528060200260200182016040528015611170578160200160208202803883390190505b50975060009250600091505b838210156111eb57858281548110151561119257fe5b600091825260209091200154905080156111e0578188848151811015156111b557fe5b60209081029091010152885181908a90859081106111cf57fe5b602090810290910101526001909201915b60019091019061117c565b505050505050509250929050565b61120161093e565b151561120c57600080fd5b611215816115d7565b50565b815181516000908214611275576040805160e560020a62461bcd02815260206004820152601560248201527f6172726179206c656e677468206d69736d617463680000000000000000000000604482015290519081900360640190fd5b5060005b818110156114de57835160009085908390811061129257fe5b60209081029091010151600160a060020a03161415611321576040805160e560020a62461bcd02815260206004820152602160248201527f726563697069656e74206d75737420626520612076616c69642061646472657360448201527f7300000000000000000000000000000000000000000000000000000000000000606482015290519081900360840190fd5b6001548451600160a060020a039091169063a9059cbb9086908490811061134457fe5b90602001906020020151858481518110151561135c57fe5b906020019060200201516040518363ffffffff167c01000000000000000000000000000000000000000000000000000000000281526004018083600160a060020a0316600160a060020a0316815260200182815260200192505050602060405180830381600087803b1580156113d157600080fd5b505af11580156113e5573d6000803e3d6000fd5b505050506040513d60208110156113fb57600080fd5b5050835184908290811061140b57fe5b90602001906020020151600160a060020a03167f8b66abc81eb9e4b88acacafcc6d75ece18e30943c5ac9d9fd331ddb42eaffe3c86858481518110151561144e57fe5b906020019060200201516040518080602001838152602001828103825284818151815260200191508051906020019080838360005b8381101561149b578181015183820152602001611483565b50505050905090810190601f1680156114c85780820380516001836020036101000a031916815260200191505b50935050505060405180910390a2600101611279565b5050505050565b6000818451858560405160200180858152602001848152602001838051906020019060200280838360005b83811015611528578181015183820152602001611510565b50505050905001828051906020019060200280838360005b83811015611558578181015183820152602001611540565b505050509050019450505050506040516020818303038152906040526040518082805190602001908083835b602083106115a35780518252601f199092019160209182019101611584565b5181516020939093036101000a60001901801990911692169190911790526040519201829003909120979650505050505050565b600160a060020a03811615156115ec57600080fd5b60008054604051600160a060020a03808516939216917f8be0079c531659141344cd1fd0a4f28419497f9722a3daafe3b4186f6b6457e091a36000805473ffffffffffffffffffffffffffffffffffffffff1916600160a060020a0392909216919091179055565b508054600082559060005260206000209081019061121591906116bf565b8280548282559060005260206000209081019282156116af579160200282015b828111156116af5782358255602090920191600190910190611692565b506116bb9291506116bf565b5090565b61093b91905b808211156116bb57600081556001016116c55600a165627a7a723058204e54eb1c030d8ba9ee12153b1788cfbe26420a15a3edcc695bfaa2bc7da776db0029",
  "source": "pragma solidity 0.4.25;\n\nimport \"openzeppelin-solidity/contracts/ownership/Ownable.sol\";\nimport \"openzeppelin-solidity/contracts/token/ERC20/IERC20.sol\";\nimport \"./IOrbsRewardsDistribution.sol\";\n\n/// @title Orbs rewards distribution smart contract.\ncontract OrbsRewardsDistribution is Ownable, IOrbsRewardsDistribution {\n\n    /// The Orbs token smart contract.\n    IERC20 public orbs;\n\n    struct Distribution {\n        bool ongoing;\n        uint256 pendingBatchCount;\n        bytes32[] batchHashes;\n    }\n\n    /// Mapping of all ongoing distribution events.\n    /// Distribution events are identified by a unique string\n    /// for the duration of their execution.\n    /// After completion or abortion the same name may be used again.\n    mapping(string => Distribution) distributions;\n\n    /// @dev Constructor to set Orbs token contract address.\n    /// @param _orbs IERC20 The address of the Orbs token contract.\n    constructor(IERC20 _orbs) public {\n        require(address(_orbs) != address(0), \"Address must not be 0!\");\n        orbs = _orbs;\n    }\n\n    /// @dev Declares a new distribution event. Verifies a distribution\n    /// event with the same name is not already ongoing, and records commitments\n    /// for all reward payments in the form of batch hashes array to state.\n    /// @param distributionEvent string Name of a new distribution event\n    /// @param batchHashes bytes32[] The address of the OrbsValidators contract.\n    function announceDistributionEvent(string distributionEvent, bytes32[] batchHashes) external onlyOwner {\n        require(distributions[distributionEvent].ongoing == false, \"named distribution is currently ongoing\");\n        require(batchHashes.length >= 1, \"at least one batch must be announced\");\n\n        for (uint256 i = 0; i < batchHashes.length; i++) {\n            require(batchHashes[i] != bytes32(0), \"batch hash may not be 0x0\");\n        }\n\n        // store distribution event record\n        Distribution storage distribution = distributions[distributionEvent];\n        distribution.ongoing = true;\n        distribution.pendingBatchCount = batchHashes.length;\n        distribution.batchHashes = batchHashes;\n\n        emit RewardsDistributionAnnounced(distributionEvent, batchHashes, batchHashes.length);\n    }\n\n    /// @dev Aborts an ongoing distributionEvent and revokes all batch commitments.\n    /// @param distributionEvent string Name of a new distribution event\n    function abortDistributionEvent(string distributionEvent) external onlyOwner {\n        require(distributions[distributionEvent].ongoing == true, \"named distribution is not currently ongoing\");\n\n        (bytes32[] memory abortedBatchHashes, uint256[] memory abortedBatchIndices) = this.getPendingBatches(distributionEvent);\n\n        delete distributions[distributionEvent];\n\n        emit RewardsDistributionAborted(distributionEvent, abortedBatchHashes, abortedBatchIndices);\n    }\n\n    /// @dev Carry out and logs transfers in batch. receives two arrays of same length\n    /// representing rewards payments for a list of reward recipients.\n    /// distributionEvent is only provided for logging purposes.\n    /// @param distributionEvent string Name of a new distribution event\n    /// @param recipients address[] a list of recipients addresses\n    /// @param amounts uint256[] a list of amounts to transfer each recipient at the corresponding array index\n    function _distributeRewards(string distributionEvent, address[] recipients, uint256[] amounts) private {\n        uint256 batchSize = recipients.length;\n        require(batchSize == amounts.length, \"array length mismatch\");\n\n        for (uint256 i = 0; i < batchSize; i++) {\n            require(recipients[i] != address(0), \"recipient must be a valid address\");\n            orbs.transfer(recipients[i], amounts[i]);\n            emit RewardDistributed(distributionEvent, recipients[i], amounts[i]);\n        }\n    }\n\n    /// @dev Bypasses announcement/commitment process flow for batch payments.\n    /// Requires owner privileges to execute. Provided as a mechanism for\n    /// alternative batch commitment mechanisms if needed in the future.\n    /// @param distributionEvent string Name of a new distribution event\n    /// @param recipients address[] a list of recipients addresses\n    /// @param amounts uint256[] a list of amounts to transfer each recipient at the corresponding array index\n    function distributeRewards(string distributionEvent, address[] recipients, uint256[] amounts) external onlyOwner {\n        // TODO - TBD - replace onlyOwner with a special role - \"onlyRewardsDistributer\". will simplify future contracts and reduce chances of human error by keeping the owner constant.\n        _distributeRewards(distributionEvent, recipients, amounts);\n    }\n\n    /// @dev Accepts a batch of payments associated with a distributionEvent.\n    /// Once validated against the batch hash commitment, the batch is cleared from commitment array\n    /// and executed.\n    /// If this was the last batch in distributionEvent, the record is\n    /// cleared and distributionEvent is logged as completed.\n    /// @param distributionEvent string Name of a new distribution event\n    /// @param recipients address[] a list of recipients addresses\n    /// @param amounts uint256[] a list of amounts to transfer each recipient at the corresponding array index\n    /// @param batchIndex uint256 index of the specified batch in commitments array\n    function executeCommittedBatch(string distributionEvent, address[] recipients, uint256[] amounts, uint256 batchIndex) external {\n        Distribution storage distribution = distributions[distributionEvent];\n\n        require(recipients.length == amounts.length, \"array length mismatch\");\n        require(recipients.length >= 1, \"at least one reward must be included in a batch\");\n        require(distribution.ongoing == true, \"distribution is not currently ongoing\");\n        require(distribution.batchHashes.length > batchIndex, \"batch number out of range\");\n        require(distribution.batchHashes[batchIndex] != bytes32(0), \"specified batch number already executed\");\n\n        bytes32 calculatedHash = calcBatchHash(recipients, amounts, batchIndex);\n        require(distribution.batchHashes[batchIndex] == calculatedHash, \"batch hash does not match\");\n\n        distribution.pendingBatchCount--;\n        distribution.batchHashes[batchIndex] = bytes32(0); // delete\n\n        _distributeRewards(distributionEvent, recipients, amounts);\n\n        emit RewardsBatchExecuted(distributionEvent, calculatedHash, batchIndex);\n\n        if (distribution.pendingBatchCount == 0) {\n            delete distributions[distributionEvent];\n            emit RewardsDistributionCompleted(distributionEvent);\n        }\n    }\n\n    /// @dev Returns all pending (not yet executed) batch hashes and indices\n    /// associated with a distributionEvent\n    /// @param distributionEvent string Name of a new distribution event\n    /// @return pendingBatchHashes bytes32[]\n    /// @return pendingBatchIndices uint256[]\n    function getPendingBatches(string distributionEvent) external view returns (bytes32[] pendingBatchHashes, uint256[] pendingBatchIndices) {\n        Distribution storage distribution = distributions[distributionEvent];\n        bytes32[] storage batchHashes = distribution.batchHashes;\n        uint256 pendingBatchCount = distribution.pendingBatchCount;\n        uint256 batchHashesLength = distribution.batchHashes.length;\n\n        pendingBatchHashes = new bytes32[](pendingBatchCount);\n        pendingBatchIndices = new uint256[](pendingBatchCount);\n\n        uint256 addNextAt = 0;\n        for (uint256 i = 0; i < batchHashesLength; i++) {\n            bytes32 hash = batchHashes[i];\n            if (hash != bytes32(0)) {\n                pendingBatchIndices[addNextAt] = i;\n                pendingBatchHashes[addNextAt] = hash;\n                addNextAt++;\n            }\n        }\n    }\n\n    /// @dev Transfers away any Orbs balance from this contract to the specified address\n    /// @param to address address\n    /// @return pendingBatchHashes bytes32[]\n    /// @return pendingBatchIndices uint256[]\n    function drainOrbs(address to) external onlyOwner {\n        // TODO - TBD - allow draining only to owners account?\n        require(to != address(0), \"to address missing\");\n        uint256 balance = orbs.balanceOf(address(this));\n        orbs.transfer(to, balance);\n    }\n\n    /// @dev Computes a hash code form a batch payment specification.\n    /// @param recipients address[] a list of recipients addresses\n    /// @param amounts uint256[] a list of amounts to transfer each recipient at the corresponding array index\n    /// @param batchIndex uint256 index of the specified batch in commitments array\n    function calcBatchHash(address[] recipients, uint256[] amounts, uint256 batchIndex) private pure returns (bytes32) {\n        // TODO - do we really need recipients.length in the hash?...\n        return keccak256(abi.encodePacked(batchIndex, recipients.length, recipients, amounts));\n    }\n}",
  "sourcePath": "/Users/ron/work/src/github.com/orbs-network/orbs-ethereum-contracts/rewards-distribution/ethereum/contracts/OrbsRewardsDistribution.sol",
  "compiler": {
    "name": "solc",
    "version": "0.4.25+commit.59dbf8f1.Emscripten.clang"
  },
  "schemaVersion": "3.0.2",
  "updatedAt": "2019-06-26T16:57:06.134Z",
  "devdoc": {
    "methods": {
      "abortDistributionEvent(string)": {
        "details": "Aborts an ongoing distributionEvent and revokes all batch commitments.",
        "params": {
          "distributionEvent": "string Name of a new distribution event"
        }
      },
      "announceDistributionEvent(string,bytes32[])": {
        "details": "Declares a new distribution event. Verifies a distribution event with the same name is not already ongoing, and records commitments for all reward payments in the form of batch hashes array to state.",
        "params": {
          "batchHashes": "bytes32[] The address of the OrbsValidators contract.",
          "distributionEvent": "string Name of a new distribution event"
        }
      },
      "distributeRewards(string,address[],uint256[])": {
        "details": "Bypasses announcement/commitment process flow for batch payments. Requires owner privileges to execute. Provided as a mechanism for alternative batch commitment mechanisms if needed in the future.",
        "params": {
          "amounts": "uint256[] a list of amounts to transfer each recipient at the corresponding array index",
          "distributionEvent": "string Name of a new distribution event",
          "recipients": "address[] a list of recipients addresses"
        }
      },
      "drainOrbs(address)": {
        "details": "Transfers away any Orbs balance from this contract to the specified address",
        "params": {
          "to": "address address"
        },
        "return": "pendingBatchHashes bytes32[]pendingBatchIndices uint256[]"
      },
      "executeCommittedBatch(string,address[],uint256[],uint256)": {
        "details": "Accepts a batch of payments associated with a distributionEvent. Once validated against the batch hash commitment, the batch is cleared from commitment array and executed. If this was the last batch in distributionEvent, the record is cleared and distributionEvent is logged as completed.",
        "params": {
          "amounts": "uint256[] a list of amounts to transfer each recipient at the corresponding array index",
          "batchIndex": "uint256 index of the specified batch in commitments array",
          "distributionEvent": "string Name of a new distribution event",
          "recipients": "address[] a list of recipients addresses"
        }
      },
      "getPendingBatches(string)": {
        "details": "Returns all pending (not yet executed) batch hashes and indices associated with a distributionEvent",
        "params": {
          "distributionEvent": "string Name of a new distribution event"
        },
        "return": "pendingBatchHashes bytes32[]pendingBatchIndices uint256[]"
      },
      "isOwner()": {
        "return": "true if `msg.sender` is the owner of the contract."
      },
      "owner()": {
        "return": "the address of the owner."
      },
      "renounceOwnership()": {
        "details": "Allows the current owner to relinquish control of the contract."
      },
      "transferOwnership(address)": {
        "details": "Allows the current owner to transfer control of the contract to a newOwner.",
        "params": {
          "newOwner": "The address to transfer ownership to."
        }
      }
    },
    "title": "Orbs rewards distribution smart contract."
  },
  "userdoc": {
    "methods": {
      "renounceOwnership()": {
        "notice": "Renouncing to ownership will leave the contract without an owner. It will not be possible to call the functions with the `onlyOwner` modifier anymore."
      }
    }
  }
}