{
  "contractName": "Voting",
  "abi": [
    {
      "constant": true,
      "inputs": [],
      "name": "vote_counter",
      "outputs": [
        {
          "name": "",
          "type": "uint256"
        }
      ],
      "payable": false,
      "stateMutability": "view",
      "type": "function"
    },
    {
      "constant": true,
      "inputs": [],
      "name": "delegation_counter",
      "outputs": [
        {
          "name": "",
          "type": "uint256"
        }
      ],
      "payable": false,
      "stateMutability": "view",
      "type": "function"
    },
    {
      "anonymous": false,
      "inputs": [
        {
          "indexed": true,
          "name": "activist",
          "type": "address"
        },
        {
          "indexed": true,
          "name": "candidates",
          "type": "address[]"
        },
        {
          "indexed": false,
          "name": "vote_counter",
          "type": "uint256"
        }
      ],
      "name": "voted",
      "type": "event"
    },
    {
      "anonymous": false,
      "inputs": [
        {
          "indexed": true,
          "name": "stakeholder",
          "type": "address"
        },
        {
          "indexed": true,
          "name": "activist",
          "type": "address"
        },
        {
          "indexed": false,
          "name": "delegation_counter",
          "type": "uint256"
        }
      ],
      "name": "delegated",
      "type": "event"
    },
    {
      "constant": false,
      "inputs": [
        {
          "name": "candidates",
          "type": "address[]"
        }
      ],
      "name": "vote",
      "outputs": [],
      "payable": false,
      "stateMutability": "nonpayable",
      "type": "function"
    },
    {
      "constant": false,
      "inputs": [
        {
          "name": "activist",
          "type": "address"
        }
      ],
      "name": "delegate",
      "outputs": [],
      "payable": false,
      "stateMutability": "nonpayable",
      "type": "function"
    }
  ],
  "bytecode": "0x608060405260008055600060015534801561001957600080fd5b50610301806100296000396000f3fe608060405234801561001057600080fd5b5060043610610069576000357c0100000000000000000000000000000000000000000000000000000000900480635c19a95c1461006e578063cab1e244146100b2578063ed081329146100d0578063f28583cd14610188575b600080fd5b6100b06004803603602081101561008457600080fd5b81019080803573ffffffffffffffffffffffffffffffffffffffff1690602001909291905050506101a6565b005b6100ba610222565b6040518082815260200191505060405180910390f35b610186600480360360208110156100e657600080fd5b810190808035906020019064010000000081111561010357600080fd5b82018360208201111561011557600080fd5b8035906020019184602083028401116401000000008311171561013757600080fd5b919080806020026020016040519081016040528093929190818152602001838360200280828437600081840152601f19601f820116905080830192505050505050509192919290505050610228565b005b6101906102cf565b6040518082815260200191505060405180910390f35b6001600081548092919060010191905055508073ffffffffffffffffffffffffffffffffffffffff163373ffffffffffffffffffffffffffffffffffffffff167fe8349873f59254dd073afb4b83d5585f8451f2cda2944358fbc103878add380e6001546040518082815260200191505060405180910390a350565b60005481565b60008081548092919060010191905055508060405180828051906020019060200280838360005b8381101561026a57808201518184015260208101905061024f565b5050505090500191505060405180910390203373ffffffffffffffffffffffffffffffffffffffff167fd070481712c29a455618feefd6cc75a396bad36c90f755098748f2478567e96b6000546040518082815260200191505060405180910390a350565b6001548156fea165627a7a7230582047769e607b4a64f152cc610d80d61521141a56d746c7284cf74faf87f058ece00029",
  "source": "pragma solidity 0.5.3;\n\ninterface IVoting {\n    function vote(address[] calldata candidates) external;\n    function delegate(address activist) external;\n}\n\ncontract Voting is IVoting {\n    event voted(address indexed activist, address[] indexed candidates, uint vote_counter);\n    event delegated(address indexed stakeholder, address indexed activist, uint delegation_counter);\n\n    uint public vote_counter = 0; // will reset back to zero when uint is exhausted\n    uint public delegation_counter = 0; // will reset back to zero when uint is exhausted\n\n    function vote(address[] memory candidates) public {\n        vote_counter++;\n        emit voted(msg.sender, candidates, vote_counter);\n    }\n\n    function delegate(address activist) public {\n        delegation_counter++;\n        emit delegated(msg.sender, activist, delegation_counter);\n    }\n}",
  "sourcePath": "/Users/ron/work/src/github.com/orbs-network/orbs-ethereum-contracts/Voting/contracts/Voting.sol",
  "compiler": {
    "name": "solc",
    "version": "0.5.3+commit.10d17f24.Emscripten.clang"
  },
  "schemaVersion": "3.0.1",
  "updatedAt": "2019-02-13T15:25:37.053Z",
  "devdoc": {
    "methods": {}
  },
  "userdoc": {
    "methods": {}
  }
}