{
  "contractName": "DateTime",
  "abi": [
    {
      "constant": true,
      "inputs": [],
      "name": "ORIGIN_YEAR",
      "outputs": [
        {
          "name": "",
          "type": "uint16"
        }
      ],
      "payable": false,
      "stateMutability": "view",
      "type": "function"
    },
    {
      "constant": true,
      "inputs": [],
      "name": "SECONDS_IN_LEAP_YEAR",
      "outputs": [
        {
          "name": "",
          "type": "uint256"
        }
      ],
      "payable": false,
      "stateMutability": "view",
      "type": "function"
    },
    {
      "constant": true,
      "inputs": [],
      "name": "MINUTES_IN_HOUR",
      "outputs": [
        {
          "name": "",
          "type": "uint256"
        }
      ],
      "payable": false,
      "stateMutability": "view",
      "type": "function"
    },
    {
      "constant": true,
      "inputs": [],
      "name": "SECONDS_IN_YEAR",
      "outputs": [
        {
          "name": "",
          "type": "uint256"
        }
      ],
      "payable": false,
      "stateMutability": "view",
      "type": "function"
    },
    {
      "constant": true,
      "inputs": [],
      "name": "SECONDS_IN_DAY",
      "outputs": [
        {
          "name": "",
          "type": "uint256"
        }
      ],
      "payable": false,
      "stateMutability": "view",
      "type": "function"
    },
    {
      "constant": true,
      "inputs": [],
      "name": "DAYS_IN_WEEK",
      "outputs": [
        {
          "name": "",
          "type": "uint256"
        }
      ],
      "payable": false,
      "stateMutability": "view",
      "type": "function"
    },
    {
      "constant": true,
      "inputs": [],
      "name": "SECONDS_IN_HOUR",
      "outputs": [
        {
          "name": "",
          "type": "uint256"
        }
      ],
      "payable": false,
      "stateMutability": "view",
      "type": "function"
    },
    {
      "constant": true,
      "inputs": [],
      "name": "HOURS_IN_DAY",
      "outputs": [
        {
          "name": "",
          "type": "uint256"
        }
      ],
      "payable": false,
      "stateMutability": "view",
      "type": "function"
    },
    {
      "constant": true,
      "inputs": [],
      "name": "SECONDS_IN_MINUTE",
      "outputs": [
        {
          "name": "",
          "type": "uint256"
        }
      ],
      "payable": false,
      "stateMutability": "view",
      "type": "function"
    },
    {
      "constant": true,
      "inputs": [
        {
          "name": "_year",
          "type": "uint16"
        }
      ],
      "name": "isLeapYear",
      "outputs": [
        {
          "name": "",
          "type": "bool"
        }
      ],
      "payable": false,
      "stateMutability": "pure",
      "type": "function"
    },
    {
      "constant": true,
      "inputs": [
        {
          "name": "_year",
          "type": "uint16"
        }
      ],
      "name": "leapYearsBefore",
      "outputs": [
        {
          "name": "",
          "type": "uint16"
        }
      ],
      "payable": false,
      "stateMutability": "pure",
      "type": "function"
    },
    {
      "constant": true,
      "inputs": [
        {
          "name": "_year",
          "type": "uint16"
        },
        {
          "name": "_month",
          "type": "uint8"
        }
      ],
      "name": "getDaysInMonth",
      "outputs": [
        {
          "name": "",
          "type": "uint8"
        }
      ],
      "payable": false,
      "stateMutability": "pure",
      "type": "function"
    },
    {
      "constant": true,
      "inputs": [
        {
          "name": "_timestamp",
          "type": "uint256"
        }
      ],
      "name": "getYear",
      "outputs": [
        {
          "name": "year",
          "type": "uint16"
        }
      ],
      "payable": false,
      "stateMutability": "pure",
      "type": "function"
    },
    {
      "constant": true,
      "inputs": [
        {
          "name": "_timestamp",
          "type": "uint256"
        }
      ],
      "name": "getMonth",
      "outputs": [
        {
          "name": "",
          "type": "uint8"
        }
      ],
      "payable": false,
      "stateMutability": "pure",
      "type": "function"
    },
    {
      "constant": true,
      "inputs": [
        {
          "name": "_timestamp",
          "type": "uint256"
        }
      ],
      "name": "getDay",
      "outputs": [
        {
          "name": "",
          "type": "uint8"
        }
      ],
      "payable": false,
      "stateMutability": "pure",
      "type": "function"
    },
    {
      "constant": true,
      "inputs": [
        {
          "name": "_timestamp",
          "type": "uint256"
        }
      ],
      "name": "getHour",
      "outputs": [
        {
          "name": "",
          "type": "uint8"
        }
      ],
      "payable": false,
      "stateMutability": "pure",
      "type": "function"
    },
    {
      "constant": true,
      "inputs": [
        {
          "name": "_timestamp",
          "type": "uint256"
        }
      ],
      "name": "getMinute",
      "outputs": [
        {
          "name": "",
          "type": "uint8"
        }
      ],
      "payable": false,
      "stateMutability": "pure",
      "type": "function"
    },
    {
      "constant": true,
      "inputs": [
        {
          "name": "_timestamp",
          "type": "uint256"
        }
      ],
      "name": "getSecond",
      "outputs": [
        {
          "name": "",
          "type": "uint8"
        }
      ],
      "payable": false,
      "stateMutability": "pure",
      "type": "function"
    },
    {
      "constant": true,
      "inputs": [
        {
          "name": "_timestamp",
          "type": "uint256"
        }
      ],
      "name": "getWeekday",
      "outputs": [
        {
          "name": "",
          "type": "uint8"
        }
      ],
      "payable": false,
      "stateMutability": "pure",
      "type": "function"
    },
    {
      "constant": true,
      "inputs": [
        {
          "name": "_year",
          "type": "uint16"
        },
        {
          "name": "_month",
          "type": "uint8"
        }
      ],
      "name": "getBeginningOfMonth",
      "outputs": [
        {
          "name": "",
          "type": "uint256"
        }
      ],
      "payable": false,
      "stateMutability": "pure",
      "type": "function"
    },
    {
      "constant": true,
      "inputs": [
        {
          "name": "_year",
          "type": "uint16"
        },
        {
          "name": "_month",
          "type": "uint8"
        }
      ],
      "name": "getNextMonth",
      "outputs": [
        {
          "name": "year",
          "type": "uint16"
        },
        {
          "name": "month",
          "type": "uint8"
        }
      ],
      "payable": false,
      "stateMutability": "pure",
      "type": "function"
    },
    {
      "constant": true,
      "inputs": [
        {
          "name": "_year",
          "type": "uint16"
        },
        {
          "name": "_month",
          "type": "uint8"
        },
        {
          "name": "_day",
          "type": "uint8"
        }
      ],
      "name": "toTimestamp",
      "outputs": [
        {
          "name": "",
          "type": "uint256"
        }
      ],
      "payable": false,
      "stateMutability": "pure",
      "type": "function"
    },
    {
      "constant": true,
      "inputs": [
        {
          "name": "_year",
          "type": "uint16"
        },
        {
          "name": "_month",
          "type": "uint8"
        }
      ],
      "name": "toTimestamp",
      "outputs": [
        {
          "name": "",
          "type": "uint256"
        }
      ],
      "payable": false,
      "stateMutability": "pure",
      "type": "function"
    },
    {
      "constant": true,
      "inputs": [
        {
          "name": "_year",
          "type": "uint16"
        },
        {
          "name": "_month",
          "type": "uint8"
        },
        {
          "name": "_day",
          "type": "uint8"
        },
        {
          "name": "_hour",
          "type": "uint8"
        },
        {
          "name": "_minutes",
          "type": "uint8"
        },
        {
          "name": "_seconds",
          "type": "uint8"
        }
      ],
      "name": "toTimestampFull",
      "outputs": [
        {
          "name": "",
          "type": "uint256"
        }
      ],
      "payable": false,
      "stateMutability": "pure",
      "type": "function"
    }
  ],
  "bytecode": "0x61139f610030600b82828239805160001a6073146000811461002057610022565bfe5b5030600052607381538281f3fe730000000000000000000000000000000000000000301460806040526004361061017f576000357c0100000000000000000000000000000000000000000000000000000000900480638aa001fc116100ea578063b9d40d0d116100a3578063b9d40d0d146105c3578063c489721b1461064a578063f237455114610668578063f6cc72af14610686578063fa65957d146106d9578063fa93f883146107325761017f565b80638aa001fc146103ec5780638c8d98a01461043457806392d6631314610494578063a324ad24146104de578063a6f0e57714610526578063aef47ba9146105705761017f565b80635dcc93911161013c5780635dcc9391146102de57806361a52a36146102fc57806361ae15441461031a57806365c72840146103385780638793f2c71461038057806387d689f61461039e5761017f565b8063027a15d0146101845780632fdd854d146101ec57806339734c02146102125780633e239e1a146102305780633ff6d539146102785780634ac1ad7814610296575b600080fd5b6101c16004803603604081101561019a57600080fd5b81019080803561ffff169060200190929190803560ff16906020019092919050505061077a565b604051808361ffff1661ffff1681526020018260ff1660ff1681526020019250505060405180910390f35b6101f46107d0565b604051808261ffff1661ffff16815260200191505060405180910390f35b61021a6107d6565b6040518082815260200191505060405180910390f35b61025c6004803603602081101561024657600080fd5b81019080803590602001909291905050506107de565b604051808260ff1660ff16815260200191505060405180910390f35b610280610808565b6040518082815260200191505060405180910390f35b6102c2600480360360208110156102ac57600080fd5b810190808035906020019092919050505061080d565b604051808260ff1660ff16815260200191505060405180910390f35b6102e661084b565b6040518082815260200191505060405180910390f35b610304610853565b6040518082815260200191505060405180910390f35b61032261085a565b6040518082815260200191505060405180910390f35b6103646004803603602081101561034e57600080fd5b810190808035906020019092919050505061085f565b604051808260ff1660ff16815260200191505060405180910390f35b610388610875565b6040518082815260200191505060405180910390f35b6103ce600480360360208110156103b457600080fd5b81019080803561ffff16906020019092919050505061087b565b604051808261ffff1661ffff16815260200191505060405180910390f35b6104186004803603602081101561040257600080fd5b8101908080359060200190929190505050610909565b604051808260ff1660ff16815260200191505060405180910390f35b61047e6004803603606081101561044a57600080fd5b81019080803561ffff169060200190929190803560ff169060200190929190803560ff16906020019092919050505061091f565b6040518082815260200191505060405180910390f35b6104c0600480360360208110156104aa57600080fd5b810190808035906020019092919050505061093a565b604051808261ffff1661ffff16815260200191505060405180910390f35b61050a600480360360208110156104f457600080fd5b8101908080359060200190929190505050610ab7565b604051808260ff1660ff16815260200191505060405180910390f35b6105566004803603602081101561053c57600080fd5b81019080803561ffff169060200190929190505050610acd565b604051808215151515815260200191505060405180910390f35b6105ad6004803603604081101561058657600080fd5b81019080803561ffff169060200190929190803560ff169060200190929190505050610b4e565b6040518082815260200191505060405180910390f35b610634600480360360c08110156105d957600080fd5b81019080803561ffff169060200190929190803560ff169060200190929190803560ff169060200190929190803560ff169060200190929190803560ff169060200190929190803560ff169060200190929190505050610b68565b6040518082815260200191505060405180910390f35b610652610ef1565b6040518082815260200191505060405180910390f35b610670610ef6565b6040518082815260200191505060405180910390f35b6106c36004803603604081101561069c57600080fd5b81019080803561ffff169060200190929190803560ff169060200190929190505050610efb565b6040518082815260200191505060405180910390f35b610716600480360360408110156106ef57600080fd5b81019080803561ffff169060200190929190803560ff169060200190929190505050610f11565b604051808260ff1660ff16815260200191505060405180910390f35b61075e6004803603602081101561074857600080fd5b8101908080359060200190929190505050610fdd565b604051808260ff1660ff16815260200191505060405180910390f35b600080600c8360ff1614156107ac576107a160018561ffff1661100690919063ffffffff16565b9150600190506107c9565b8391506107c660018460ff1661100690919063ffffffff16565b90505b9250929050565b6107b281565b6301e2850081565b600060186107f7610e108461102790919063ffffffff16565b81151561080057fe5b069050919050565b603c81565b6000600761083a600461082c620151808661102790919063ffffffff16565b61100690919063ffffffff16565b81151561084357fe5b069050919050565b6301e1338081565b6201518081565b600781565b600061086a82611051565b604001519050919050565b610e1081565b600061089560018361ffff1661129b90919063ffffffff16565b91506109026108b36101908461ffff1661102790919063ffffffff16565b6108f46108ce60648661ffff1661102790919063ffffffff16565b6108e660048761ffff1661102790919063ffffffff16565b61129b90919063ffffffff16565b61100690919063ffffffff16565b9050919050565b6000603c8281151561091757fe5b069050919050565b60006109318484846000806000610b68565b90509392505050565b600080600061096e6109596301e133808661102790919063ffffffff16565b6107b261ffff1661100690919063ffffffff16565b925061099d61097e6107b261087b565b61ffff1661098b8561087b565b61ffff1661129b90919063ffffffff16565b90506109cc6109bd8261ffff166301e285006112bd90919063ffffffff16565b8361100690919063ffffffff16565b9150610a29610a1a610a078361ffff166109f96107b261ffff168861ffff1661129b90919063ffffffff16565b61129b90919063ffffffff16565b6301e133806112bd90919063ffffffff16565b8361100690919063ffffffff16565b91505b83821115610ab057610a54610a4f60018561ffff1661129b90919063ffffffff16565b610acd565b15610a7757610a706301e285008361129b90919063ffffffff16565b9150610a91565b610a8e6301e133808361129b90919063ffffffff16565b91505b610aa960018461ffff1661129b90919063ffffffff16565b9250610a2c565b5050919050565b6000610ac282611051565b602001519050919050565b60008060048361ffff16811515610ae057fe5b0661ffff16141515610af55760009050610b49565b600060648361ffff16811515610b0757fe5b0661ffff16141515610b1c5760019050610b49565b60006101908361ffff16811515610b2f57fe5b0661ffff16141515610b445760009050610b49565b600190505b919050565b6000610b608383600080600080610b68565b905092915050565b60008060006107b291505b8861ffff168261ffff161015610bd457610b8c82610acd565b15610baf57610ba86301e285008261100690919063ffffffff16565b9050610bc9565b610bc66301e133808261100690919063ffffffff16565b90505b816001019150610b73565b610bdc6112fb565b601f816000600c81101515610bed57fe5b602002019060ff16908160ff1681525050610c078a610acd565b15610c3357601d816001600c81101515610c1d57fe5b602002019060ff16908160ff1681525050610c56565b601c816001600c81101515610c4457fe5b602002019060ff16908160ff16815250505b601f816002600c81101515610c6757fe5b602002019060ff16908160ff1681525050601e816003600c81101515610c8957fe5b602002019060ff16908160ff1681525050601f816004600c81101515610cab57fe5b602002019060ff16908160ff1681525050601e816005600c81101515610ccd57fe5b602002019060ff16908160ff1681525050601f816006600c81101515610cef57fe5b602002019060ff16908160ff1681525050601f816007600c81101515610d1157fe5b602002019060ff16908160ff1681525050601e816008600c81101515610d3357fe5b602002019060ff16908160ff1681525050601f816009600c81101515610d5557fe5b602002019060ff16908160ff1681525050601e81600a600c81101515610d7757fe5b602002019060ff16908160ff1681525050601f81600b600c81101515610d9957fe5b602002019060ff16908160ff1681525050600192505b8860ff168361ffff161015610e1f57610e12610e0382610ddd60018761ffff1661129b90919063ffffffff16565b600c81101515610de957fe5b602002015160ff16620151806112bd90919063ffffffff16565b8361100690919063ffffffff16565b9150826001019250610daf565b610e70610e6160008a60ff1614610e4c57610e4760018b60ff1661129b90919063ffffffff16565b610e4f565b60005b620151806112bd90919063ffffffff16565b8361100690919063ffffffff16565b9150610e9c610e8d8860ff16610e106112bd90919063ffffffff16565b8361100690919063ffffffff16565b9150610ec7610eb88760ff16603c6112bd90919063ffffffff16565b8361100690919063ffffffff16565b9150610edf8560ff168361100690919063ffffffff16565b91508193505050509695505050505050565b601881565b603c81565b6000610f098383600161091f565b905092915050565b600060018260ff161480610f28575060038260ff16145b80610f36575060058260ff16145b80610f44575060078260ff16145b80610f52575060088260ff16145b80610f605750600a8260ff16145b80610f6e5750600c8260ff16145b15610f7c57601f9050610fd7565b60048260ff161480610f91575060068260ff16145b80610f9f575060098260ff16145b80610fad5750600b8260ff16145b15610fbb57601e9050610fd7565b610fc483610acd565b15610fd257601d9050610fd7565b601c90505b92915050565b6000603c610ff5603c8461102790919063ffffffff16565b811515610ffe57fe5b069050919050565b600080828401905083811015151561101d57600080fd5b8091505092915050565b6000808211151561103757600080fd5b6000828481151561104457fe5b0490508091505092915050565b61105961131f565b60008060006110678561093a565b846000019061ffff16908161ffff16815250506110856107b261087b565b611092856000015161087b565b0361ffff1691506110c26110b3836301e285006112bd90919063ffffffff16565b8461100690919063ffffffff16565b925061111f6111106110fd846110ef6107b261ffff16896000015161ffff1661129b90919063ffffffff16565b61129b90919063ffffffff16565b6301e133806112bd90919063ffffffff16565b8461100690919063ffffffff16565b92506000600191505b600c8260ff161115156111ae5761115b611146866000015184610f11565b60ff16620151806112bd90919063ffffffff16565b905085611171858361100690919063ffffffff16565b111561118e5781856020019060ff16908160ff16815250506111ae565b6111a1818561100690919063ffffffff16565b9350816001019150611128565b600191505b6111c585600001518660200151610f11565b60ff168260ff1611151561122a57856111ea856201518061100690919063ffffffff16565b11156112075781856040019060ff16908160ff168152505061122a565b61121d620151808561100690919063ffffffff16565b93508160010191506111b3565b611233866107de565b856060019060ff16908160ff168152505061124d86610fdd565b856080019060ff16908160ff168152505061126786610909565b8560a0019060ff16908160ff16815250506112818661080d565b8560c0019060ff16908160ff168152505050505050919050565b60008282111515156112ac57600080fd5b600082840390508091505092915050565b6000808314156112d057600090506112f5565b600082840290508284828115156112e357fe5b041415156112f057600080fd5b809150505b92915050565b61018060405190810160405280600c90602082028038833980820191505090505090565b60e060405190810160405280600061ffff168152602001600060ff168152602001600060ff168152602001600060ff168152602001600060ff168152602001600060ff168152602001600060ff168152509056fea165627a7a7230582057f7e080ae28aa6099875b90510c388bbb06a2953130185e84dd5fa88be2e24d0029",
  "compiler": {
    "name": "solc",
    "version": "0.5.3+commit.10d17f24.Emscripten.clang"
  },
  "schemaVersion": "3.0.2",
  "updatedAt": "2019-03-19T00:19:49.012Z",
  "devdoc": {
    "methods": {
      "getBeginningOfMonth(uint16,uint8)": {
        "details": "Returns the timestamp of the beginning of the month.",
        "params": {
          "_month": "uint8 The month to check.",
          "_year": "uint16 The year of the month to check."
        }
      },
      "getDay(uint256)": {
        "details": "Returns the day of the current UNIX timestamp.",
        "params": {
          "_timestamp": "uint256 The UNIX timestamp to parse."
        }
      },
      "getDaysInMonth(uint16,uint8)": {
        "details": "Returns how many days are there in a specified month.",
        "params": {
          "_month": "uint8 The month to check.",
          "_year": "uint16 The year of the month to check."
        }
      },
      "getHour(uint256)": {
        "details": "Returns the hour of the current UNIX timestamp.",
        "params": {
          "_timestamp": "uint256 The UNIX timestamp to parse."
        }
      },
      "getMinute(uint256)": {
        "details": "Returns the minutes of the current UNIX timestamp.",
        "params": {
          "_timestamp": "uint256 The UNIX timestamp to parse."
        }
      },
      "getMonth(uint256)": {
        "details": "Returns the month of the current UNIX timestamp.",
        "params": {
          "_timestamp": "uint256 The UNIX timestamp to parse."
        }
      },
      "getNextMonth(uint16,uint8)": {
        "details": "Returns the timestamp of the beginning of the month.",
        "params": {
          "_month": "uint8 The month to check.",
          "_year": "uint16 The year of the month to check."
        }
      },
      "getSecond(uint256)": {
        "details": "Returns the seconds of the current UNIX timestamp.",
        "params": {
          "_timestamp": "uint256 The UNIX timestamp to parse."
        }
      },
      "getWeekday(uint256)": {
        "details": "Returns the weekday of the current UNIX timestamp.",
        "params": {
          "_timestamp": "uint256 The UNIX timestamp to parse."
        }
      },
      "getYear(uint256)": {
        "details": "Returns the year of the current UNIX timestamp.",
        "params": {
          "_timestamp": "uint256 The UNIX timestamp to parse."
        }
      },
      "isLeapYear(uint16)": {
        "details": "Returns whether the specified year is a leap year.",
        "params": {
          "_year": "uint16 The year to check."
        }
      },
      "leapYearsBefore(uint16)": {
        "details": "Returns how many leap years were before the specified year.",
        "params": {
          "_year": "uint16 The year to check."
        }
      },
      "toTimestamp(uint16,uint8)": {
        "details": "Converts date to timestamp.",
        "params": {
          "_month": "uint8 The month of the date.",
          "_year": "uint16 The year of the date."
        }
      },
      "toTimestamp(uint16,uint8,uint8)": {
        "details": "Converts date to timestamp.",
        "params": {
          "_day": "uint8 The day of the date.",
          "_month": "uint8 The month of the date.",
          "_year": "uint16 The year of the date."
        }
      },
      "toTimestampFull(uint16,uint8,uint8,uint8,uint8,uint8)": {
        "details": "Converts date to timestamp.",
        "params": {
          "_day": "uint8 The day of the date.",
          "_hour": "uint8 The hour of the date.",
          "_minutes": "uint8 The minutes of the date.",
          "_month": "uint8 The month of the date.",
          "_seconds": "uint8 The seconds of the date.",
          "_year": "uint16 The year of the date."
        }
      }
    },
    "title": "Date and Time utilities for Ethereum contracts."
  },
  "userdoc": {
    "methods": {}
  }
}