{
  "contractName": "MockOrbsNetwork",
  "abi": [
    {
      "constant": true,
      "inputs": [],
      "name": "getNetworkTopology",
      "outputs": [
        {
          "name": "nodeAddresses",
          "type": "bytes20[]"
        },
        {
          "name": "ipAddresses",
          "type": "bytes4[]"
        }
      ],
      "payable": false,
      "stateMutability": "view",
      "type": "function"
    }
  ],
  "bytecode": "0x60806040526080604051908101604052807f6e2cb55e4cbe97bf5b1e731d51cc2c285d83cbf90000000000000000000000006bffffffffffffffffffffffff19166bffffffffffffffffffffffff191681526020017fd27e2e7398e2582f63d0800330010b3e58952ff60000000000000000000000006bffffffffffffffffffffffff19166bffffffffffffffffffffffff191681526020017fa328846cd5b4979d68a8c58a9bdfeee657b34de70000000000000000000000006bffffffffffffffffffffffff19166bffffffffffffffffffffffff191681526020017f54018092153dcdea764f89d33b086c7114e119850000000000000000000000006bffffffffffffffffffffffff19166bffffffffffffffffffffffff1916815250600090600461012e9291906102ec565b506080604051908101604052807f0dea8f0f000000000000000000000000000000000000000000000000000000007bffffffffffffffffffffffffffffffffffffffffffffffffffffffff19167bffffffffffffffffffffffffffffffffffffffffffffffffffffffff191681526020017f0dea924a000000000000000000000000000000000000000000000000000000007bffffffffffffffffffffffffffffffffffffffffffffffffffffffff19167bffffffffffffffffffffffffffffffffffffffffffffffffffffffff191681526020017f0dea931b000000000000000000000000000000000000000000000000000000007bffffffffffffffffffffffffffffffffffffffffffffffffffffffff19167bffffffffffffffffffffffffffffffffffffffffffffffffffffffff191681526020017f344221f9000000000000000000000000000000000000000000000000000000007bffffffffffffffffffffffffffffffffffffffffffffffffffffffff19167bffffffffffffffffffffffffffffffffffffffffffffffffffffffff191681525060019060046102d9929190610370565b503480156102e657600080fd5b506104b0565b82805482825590600052602060002090810192821561035f579160200282015b8281111561035e5782518260006101000a81548173ffffffffffffffffffffffffffffffffffffffff02191690836c01000000000000000000000000900402179055509160200191906001019061030c565b5b50905061036c919061043a565b5090565b828054828255906000526020600020906007016008900481019282156104295791602002820160005b838211156103f757835183826101000a81548163ffffffff02191690837c0100000000000000000000000000000000000000000000000000000000900402179055509260200192600401602081600301049283019260010302610399565b80156104275782816101000a81549063ffffffff02191690556004016020816003010492830192600103026103f7565b505b509050610436919061047d565b5090565b61047a91905b8082111561047657600081816101000a81549073ffffffffffffffffffffffffffffffffffffffff021916905550600101610440565b5090565b90565b6104ad91905b808211156104a957600081816101000a81549063ffffffff021916905550600101610483565b5090565b90565b610259806104bf6000396000f3fe608060405234801561001057600080fd5b5060043610610048576000357c010000000000000000000000000000000000000000000000000000000090048063204296731461004d575b600080fd5b6100556100f4565b604051808060200180602001838103835285818151815260200191508051906020019060200280838360005b8381101561009c578082015181840152602081019050610081565b50505050905001838103825284818151815260200191508051906020019060200280838360005b838110156100de5780820151818401526020810190506100c3565b5050505090500194505050505060405180910390f35b606080600060018180548060200260200160405190810160405280929190818152602001828054801561016e57602002820191906000526020600020905b8160009054906101000a90046c01000000000000000000000000026bffffffffffffffffffffffff191681526020019060010190808311610132575b505050505091508080548060200260200160405190810160405280929190818152602001828054801561021e57602002820191906000526020600020906000905b82829054906101000a90047c0100000000000000000000000000000000000000000000000000000000027bffffffffffffffffffffffffffffffffffffffffffffffffffffffff1916815260200190600401906020826003010492830192600103820291508084116101af5790505b5050505050905091509150909156fea165627a7a72305820dbbdbd6753c1487bd6afc179911e528c3d667cb8a2a61213faad563ef1b94f350029",
  "compiler": {
    "name": "solc",
    "version": "0.5.3+commit.10d17f24.Emscripten.clang"
  },
  "schemaVersion": "3.0.2",
  "updatedAt": "2019-03-20T08:26:33.932Z",
  "devdoc": {
    "methods": {}
  },
  "userdoc": {
    "methods": {}
  }
}