{
  "contractName": "MockOrbsNetwork",
  "abi": [
    {
      "constant": true,
      "inputs": [],
      "name": "getNetworkTopology",
      "outputs": [
        {
          "name": "nodeAddresses",
          "type": "bytes20[]"
        },
        {
          "name": "ipAddresses",
          "type": "bytes4[]"
        }
      ],
      "payable": false,
      "stateMutability": "view",
      "type": "function"
    }
  ],
  "bytecode": "0x608060405260006040519080825280602002602001820160405280156100345781602001602082028038833980820191505090505b506000908051906020019061004a9291906100a4565b50600060405190808252806020026020018201604052801561007b5781602001602082028038833980820191505090505b5060019080519060200190610091929190610128565b5034801561009e57600080fd5b50610268565b828054828255906000526020600020908101928215610117579160200282015b828111156101165782518260006101000a81548173ffffffffffffffffffffffffffffffffffffffff02191690836c0100000000000000000000000090040217905550916020019190600101906100c4565b5b50905061012491906101f2565b5090565b828054828255906000526020600020906007016008900481019282156101e15791602002820160005b838211156101af57835183826101000a81548163ffffffff02191690837c0100000000000000000000000000000000000000000000000000000000900402179055509260200192600401602081600301049283019260010302610151565b80156101df5782816101000a81549063ffffffff02191690556004016020816003010492830192600103026101af565b505b5090506101ee9190610235565b5090565b61023291905b8082111561022e57600081816101000a81549073ffffffffffffffffffffffffffffffffffffffff0219169055506001016101f8565b5090565b90565b61026591905b8082111561026157600081816101000a81549063ffffffff02191690555060010161023b565b5090565b90565b610259806102776000396000f3fe608060405234801561001057600080fd5b5060043610610048576000357c010000000000000000000000000000000000000000000000000000000090048063204296731461004d575b600080fd5b6100556100f4565b604051808060200180602001838103835285818151815260200191508051906020019060200280838360005b8381101561009c578082015181840152602081019050610081565b50505050905001838103825284818151815260200191508051906020019060200280838360005b838110156100de5780820151818401526020810190506100c3565b5050505090500194505050505060405180910390f35b606080600060018180548060200260200160405190810160405280929190818152602001828054801561016e57602002820191906000526020600020905b8160009054906101000a90046c01000000000000000000000000026bffffffffffffffffffffffff191681526020019060010190808311610132575b505050505091508080548060200260200160405190810160405280929190818152602001828054801561021e57602002820191906000526020600020906000905b82829054906101000a90047c0100000000000000000000000000000000000000000000000000000000027bffffffffffffffffffffffffffffffffffffffffffffffffffffffff1916815260200190600401906020826003010492830192600103820291508084116101af5790505b5050505050905091509150909156fea165627a7a72305820553a2889dda0db4961f2ed5f4be796b20bd611cd2be4790a0560d3000f6c57f00029",
  "source": "pragma solidity 0.5.3;\n\nimport \"./IOrbsNetworkTopology.sol\";\n\n\ncontract MockOrbsNetwork is IOrbsNetworkTopology {\n\n    bytes20[] nodes = new bytes20[](0);\n    bytes4[] ips = new bytes4[](0);\n\n    function getNetworkTopology()\n        public\n        view\n        returns (bytes20[] memory nodeAddresses,bytes4[] memory ipAddresses)\n    {\n        return (nodes, ips);\n    }\n}\n",
  "sourcePath": "/Users/ron/work/src/github.com/orbs-network/orbs-ethereum-contracts/voting/ethereum/contracts/MockOrbsNetwork.sol",
  "compiler": {
    "name": "solc",
    "version": "0.5.3+commit.10d17f24.Emscripten.clang"
  },
  "schemaVersion": "3.0.2",
  "updatedAt": "2019-03-17T16:33:02.893Z",
  "devdoc": {
    "methods": {}
  },
  "userdoc": {
    "methods": {}
  }
}