{
  "contractName": "MockOrbsNetwork",
  "abi": [
    {
      "constant": true,
      "inputs": [],
      "name": "getNetworkTopology",
      "outputs": [
        {
          "name": "nodeAddresses",
          "type": "bytes20[]"
        },
        {
          "name": "ipAddresses",
          "type": "bytes4[]"
        }
      ],
      "payable": false,
      "stateMutability": "view",
      "type": "function"
    }
  ],
  "bytecode": "0x6101006040527f6e2cb55e4cbe97bf5b1e731d51cc2c285d83cbf900000000000000000000000060809081527fd27e2e7398e2582f63d0800330010b3e58952ff600000000000000000000000060a0527fa328846cd5b4979d68a8c58a9bdfeee657b34de700000000000000000000000060c0527f54018092153dcdea764f89d33b086c7114e1198500000000000000000000000060e0526100a5906000906004610168565b50604080516080810182527f0dea8f0f0000000000000000000000000000000000000000000000000000000081527f0dea924a0000000000000000000000000000000000000000000000000000000060208201527f0dea931b00000000000000000000000000000000000000000000000000000000918101919091527f344221f90000000000000000000000000000000000000000000000000000000060608201526101559060019060046101d3565b5034801561016257600080fd5b506102e0565b8280548282559060005260206000209081019282156101c3579160200282015b828111156101c35782518254600160a060020a0319166c01000000000000000000000000909104178255602090920191600190910190610188565b506101cf929150610298565b5090565b8280548282559060005260206000209060070160089004810192821561028c5791602002820160005b8382111561025a57835183826101000a81548163ffffffff02191690837c01000000000000000000000000000000000000000000000000000000009004021790555092602001926004016020816003010492830192600103026101fc565b801561028a5782816101000a81549063ffffffff021916905560040160208160030104928301926001030261025a565b505b506101cf9291506102bf565b6102bc91905b808211156101cf578054600160a060020a031916815560010161029e565b90565b6102bc91905b808211156101cf57805463ffffffff191681556001016102c5565b61024f806102ef6000396000f3006080604052600436106100405763ffffffff7c0100000000000000000000000000000000000000000000000000000000600035041663204296738114610045575b600080fd5b34801561005157600080fd5b5061005a6100f3565b604051808060200180602001838103835285818151815260200191508051906020019060200280838360005b8381101561009e578181015183820152602001610086565b50505050905001838103825284818151815260200191508051906020019060200280838360005b838110156100dd5781810151838201526020016100c5565b5050505090500194505050505060405180910390f35b606080600060018180548060200260200160405190810160405280929190818152602001828054801561016457602002820191906000526020600020905b81546c01000000000000000000000000026bffffffffffffffffffffffff19168152600190910190602001808311610131575b505050505091508080548060200260200160405190810160405280929190818152602001828054801561021457602002820191906000526020600020906000905b82829054906101000a90047c0100000000000000000000000000000000000000000000000000000000027bffffffffffffffffffffffffffffffffffffffffffffffffffffffff1916815260200190600401906020826003010492830192600103820291508084116101a55790505b505050505090509150915090915600a165627a7a7230582047c796202baf88ee0d22aaeabed203fdb72e34a1eb94cea9c088bc4a269222d40029",
  "compiler": {
    "name": "solc",
    "version": "0.4.25+commit.59dbf8f1.Emscripten.clang"
  },
  "schemaVersion": "3.0.11",
  "updatedAt": "2020-02-03T09:57:46.562Z",
  "devdoc": {
    "methods": {}
  },
  "userdoc": {
    "methods": {}
  }
}