{
  "contractName": "OrbsValidatorsRegistry",
  "abi": [
    {
      "constant": true,
      "inputs": [
        {
          "name": "",
          "type": "address"
        }
      ],
      "name": "lookupOrbsAddr",
      "outputs": [
        {
          "name": "",
          "type": "address"
        }
      ],
      "payable": false,
      "stateMutability": "view",
      "type": "function",
      "signature": "0x3b0a5cdf"
    },
    {
      "constant": true,
      "inputs": [
        {
          "name": "",
          "type": "bytes32"
        }
      ],
      "name": "lookupUrl",
      "outputs": [
        {
          "name": "",
          "type": "address"
        }
      ],
      "payable": false,
      "stateMutability": "view",
      "type": "function",
      "signature": "0x66567445"
    },
    {
      "constant": true,
      "inputs": [
        {
          "name": "",
          "type": "bytes32"
        }
      ],
      "name": "lookupName",
      "outputs": [
        {
          "name": "",
          "type": "address"
        }
      ],
      "payable": false,
      "stateMutability": "view",
      "type": "function",
      "signature": "0x8e970312"
    },
    {
      "constant": true,
      "inputs": [
        {
          "name": "",
          "type": "address"
        }
      ],
      "name": "validatorsData",
      "outputs": [
        {
          "name": "name",
          "type": "string"
        },
        {
          "name": "ipAddress",
          "type": "bytes"
        },
        {
          "name": "website",
          "type": "string"
        },
        {
          "name": "orbsAddress",
          "type": "address"
        }
      ],
      "payable": false,
      "stateMutability": "view",
      "type": "function",
      "signature": "0xe7b11622"
    },
    {
      "constant": true,
      "inputs": [],
      "name": "VERSION",
      "outputs": [
        {
          "name": "",
          "type": "uint256"
        }
      ],
      "payable": false,
      "stateMutability": "view",
      "type": "function",
      "signature": "0xffa1ad74"
    },
    {
      "anonymous": false,
      "inputs": [
        {
          "indexed": true,
          "name": "validator",
          "type": "address"
        }
      ],
      "name": "ValidatorLeft",
      "type": "event",
      "signature": "0x457a63bb4fcc8a2d38fb6141645ce9afbb084a1e63edee2799243c96a0498a0e"
    },
    {
      "anonymous": false,
      "inputs": [
        {
          "indexed": true,
          "name": "validator",
          "type": "address"
        }
      ],
      "name": "ValidatorRegistered",
      "type": "event",
      "signature": "0xd09501348473474a20c772c79c653e1fd7e8b437e418fe235d277d2c88853251"
    },
    {
      "constant": false,
      "inputs": [
        {
          "name": "name",
          "type": "string"
        },
        {
          "name": "ipAddress",
          "type": "bytes"
        },
        {
          "name": "website",
          "type": "string"
        },
        {
          "name": "orbsAddress",
          "type": "address"
        }
      ],
      "name": "register",
      "outputs": [],
      "payable": false,
      "stateMutability": "nonpayable",
      "type": "function",
      "signature": "0xc6858e27"
    },
    {
      "constant": false,
      "inputs": [],
      "name": "leave",
      "outputs": [],
      "payable": false,
      "stateMutability": "nonpayable",
      "type": "function",
      "signature": "0xd66d9e19"
    },
    {
      "constant": true,
      "inputs": [
        {
          "name": "validator",
          "type": "address"
        }
      ],
      "name": "getValidatorData",
      "outputs": [
        {
          "name": "name",
          "type": "string"
        },
        {
          "name": "ipAddress",
          "type": "bytes"
        },
        {
          "name": "website",
          "type": "string"
        },
        {
          "name": "orbsAddress",
          "type": "address"
        }
      ],
      "payable": false,
      "stateMutability": "view",
      "type": "function",
      "signature": "0x2536f8b5"
    },
    {
      "constant": true,
      "inputs": [
        {
          "name": "validator",
          "type": "address"
        }
      ],
      "name": "getOrbsAddress",
      "outputs": [
        {
          "name": "",
          "type": "address"
        }
      ],
      "payable": false,
      "stateMutability": "view",
      "type": "function",
      "signature": "0xada78075"
    },
    {
      "constant": true,
      "inputs": [
        {
          "name": "addr",
          "type": "address"
        }
      ],
      "name": "isValidator",
      "outputs": [
        {
          "name": "",
          "type": "bool"
        }
      ],
      "payable": false,
      "stateMutability": "view",
      "type": "function",
      "signature": "0xfacd743b"
    }
  ],
  "bytecode": "0x608060405234801561001057600080fd5b50612023806100206000396000f3fe608060405234801561001057600080fd5b50600436106100bb576000357c010000000000000000000000000000000000000000000000000000000090048063c6858e2711610083578063c6858e271461046c578063d66d9e1914610675578063e7b116221461067f578063facd743b14610847578063ffa1ad74146108a3576100bb565b80632536f8b5146100c05780633b0a5cdf14610288578063665674451461030c5780638e9703121461037a578063ada78075146103e8575b600080fd5b610102600480360360208110156100d657600080fd5b81019080803573ffffffffffffffffffffffffffffffffffffffff1690602001909291905050506108c1565b604051808060200180602001806020018573ffffffffffffffffffffffffffffffffffffffff1673ffffffffffffffffffffffffffffffffffffffff168152602001848103845288818151815260200191508051906020019080838360005b8381101561017c578082015181840152602081019050610161565b50505050905090810190601f1680156101a95780820380516001836020036101000a031916815260200191505b50848103835287818151815260200191508051906020019080838360005b838110156101e25780820151818401526020810190506101c7565b50505050905090810190601f16801561020f5780820380516001836020036101000a031916815260200191505b50848103825286818151815260200191508051906020019080838360005b8381101561024857808201518184015260208101905061022d565b50505050905090810190601f1680156102755780820380516001836020036101000a031916815260200191505b5097505050505050505060405180910390f35b6102ca6004803603602081101561029e57600080fd5b81019080803573ffffffffffffffffffffffffffffffffffffffff169060200190929190505050610c4d565b604051808273ffffffffffffffffffffffffffffffffffffffff1673ffffffffffffffffffffffffffffffffffffffff16815260200191505060405180910390f35b6103386004803603602081101561032257600080fd5b8101908080359060200190929190505050610c80565b604051808273ffffffffffffffffffffffffffffffffffffffff1673ffffffffffffffffffffffffffffffffffffffff16815260200191505060405180910390f35b6103a66004803603602081101561039057600080fd5b8101908080359060200190929190505050610cb3565b604051808273ffffffffffffffffffffffffffffffffffffffff1673ffffffffffffffffffffffffffffffffffffffff16815260200191505060405180910390f35b61042a600480360360208110156103fe57600080fd5b81019080803573ffffffffffffffffffffffffffffffffffffffff169060200190929190505050610ce6565b604051808273ffffffffffffffffffffffffffffffffffffffff1673ffffffffffffffffffffffffffffffffffffffff16815260200191505060405180910390f35b6106736004803603608081101561048257600080fd5b810190808035906020019064010000000081111561049f57600080fd5b8201836020820111156104b157600080fd5b803590602001918460018302840111640100000000831117156104d357600080fd5b91908080601f016020809104026020016040519081016040528093929190818152602001838380828437600081840152601f19601f8201169050808301925050505050505091929192908035906020019064010000000081111561053657600080fd5b82018360208201111561054857600080fd5b8035906020019184600183028401116401000000008311171561056a57600080fd5b91908080601f016020809104026020016040519081016040528093929190818152602001838380828437600081840152601f19601f820116905080830192505050505050509192919290803590602001906401000000008111156105cd57600080fd5b8201836020820111156105df57600080fd5b8035906020019184600183028401116401000000008311171561060157600080fd5b91908080601f016020809104026020016040519081016040528093929190818152602001838380828437600081840152601f19601f820116905080830192505050505050509192919290803573ffffffffffffffffffffffffffffffffffffffff169060200190929190505050610dce565b005b61067d61168b565b005b6106c16004803603602081101561069557600080fd5b81019080803573ffffffffffffffffffffffffffffffffffffffff1690602001909291905050506119f0565b604051808060200180602001806020018573ffffffffffffffffffffffffffffffffffffffff1673ffffffffffffffffffffffffffffffffffffffff168152602001848103845288818151815260200191508051906020019080838360005b8381101561073b578082015181840152602081019050610720565b50505050905090810190601f1680156107685780820380516001836020036101000a031916815260200191505b50848103835287818151815260200191508051906020019080838360005b838110156107a1578082015181840152602081019050610786565b50505050905090810190601f1680156107ce5780820380516001836020036101000a031916815260200191505b50848103825286818151815260200191508051906020019080838360005b838110156108075780820151818401526020810190506107ec565b50505050905090810190601f1680156108345780820380516001836020036101000a031916815260200191505b5097505050505050505060405180910390f35b6108896004803603602081101561085d57600080fd5b81019080803573ffffffffffffffffffffffffffffffffffffffff169060200190929190505050611c08565b604051808215151515815260200191505060405180910390f35b6108ab611c69565b6040518082815260200191505060405180910390f35b606080606060006108d185611c08565b1515610945576040517f08c379a00000000000000000000000000000000000000000000000000000000081526004018080602001828103825260128152602001807f556e6c69737465642056616c696461746f72000000000000000000000000000081525060200191505060405180910390fd5b6000808673ffffffffffffffffffffffffffffffffffffffff1673ffffffffffffffffffffffffffffffffffffffff1681526020019081526020016000206000016000808773ffffffffffffffffffffffffffffffffffffffff1673ffffffffffffffffffffffffffffffffffffffff1681526020019081526020016000206001016000808873ffffffffffffffffffffffffffffffffffffffff1673ffffffffffffffffffffffffffffffffffffffff1681526020019081526020016000206002016000808973ffffffffffffffffffffffffffffffffffffffff1673ffffffffffffffffffffffffffffffffffffffff16815260200190815260200160002060030160009054906101000a900473ffffffffffffffffffffffffffffffffffffffff16838054600181600116156101000203166002900480601f016020809104026020016040519081016040528092919081815260200182805460018160011615610100020316600290048015610aff5780601f10610ad457610100808354040283529160200191610aff565b820191906000526020600020905b815481529060010190602001808311610ae257829003601f168201915b50505050509350828054600181600116156101000203166002900480601f016020809104026020016040519081016040528092919081815260200182805460018160011615610100020316600290048015610b9b5780601f10610b7057610100808354040283529160200191610b9b565b820191906000526020600020905b815481529060010190602001808311610b7e57829003601f168201915b50505050509250818054600181600116156101000203166002900480601f016020809104026020016040519081016040528092919081815260200182805460018160011615610100020316600290048015610c375780601f10610c0c57610100808354040283529160200191610c37565b820191906000526020600020905b815481529060010190602001808311610c1a57829003601f168201915b5050505050915093509350935093509193509193565b60036020528060005260406000206000915054906101000a900473ffffffffffffffffffffffffffffffffffffffff1681565b60026020528060005260406000206000915054906101000a900473ffffffffffffffffffffffffffffffffffffffff1681565b60016020528060005260406000206000915054906101000a900473ffffffffffffffffffffffffffffffffffffffff1681565b6000610cf182611c08565b1515610d65576040517f08c379a00000000000000000000000000000000000000000000000000000000081526004018080602001828103825260128152602001807f556e6c69737465642056616c696461746f72000000000000000000000000000081525060200191505060405180910390fd5b6000808373ffffffffffffffffffffffffffffffffffffffff1673ffffffffffffffffffffffffffffffffffffffff16815260200190815260200160002060030160009054906101000a900473ffffffffffffffffffffffffffffffffffffffff169050919050565b3373ffffffffffffffffffffffffffffffffffffffff163273ffffffffffffffffffffffffffffffffffffffff16141515610e54576040517f08c379a0000000000000000000000000000000000000000000000000000000008152600401808060200182810382526022815260200180611f376022913960400191505060405180910390fd5b60008451111515610ecd576040517f08c379a000000000000000000000000000000000000000000000000000000000815260040180806020018281038252601b8152602001807f506c656173652070726f7669646520612076616c6964206e616d65000000000081525060200191505060405180910390fd5b60008251111515610f46576040517f08c379a000000000000000000000000000000000000000000000000000000000815260040180806020018281038252601e8152602001807f506c656173652070726f7669646520612076616c69642077656273697465000081525060200191505060405180910390fd5b610f4f83611c6e565b1515610fa6576040517f08c379a0000000000000000000000000000000000000000000000000000000008152600401808060200182810382526027815260200180611f596027913960400191505060405180910390fd5b600073ffffffffffffffffffffffffffffffffffffffff168173ffffffffffffffffffffffffffffffffffffffff161415151561102e576040517f08c379a0000000000000000000000000000000000000000000000000000000008152600401808060200182810382526023815260200180611f806023913960400191505060405180910390fd5b600084805190602001209050600083805190602001209050600073ffffffffffffffffffffffffffffffffffffffff166001600084815260200190815260200160002060009054906101000a900473ffffffffffffffffffffffffffffffffffffffff1673ffffffffffffffffffffffffffffffffffffffff16148061111257503373ffffffffffffffffffffffffffffffffffffffff166001600084815260200190815260200160002060009054906101000a900473ffffffffffffffffffffffffffffffffffffffff1673ffffffffffffffffffffffffffffffffffffffff16145b1515611169576040517f08c379a000000000000000000000000000000000000000000000000000000000815260040180806020018281038252602b815260200180611fcd602b913960400191505060405180910390fd5b600073ffffffffffffffffffffffffffffffffffffffff166002600083815260200190815260200160002060009054906101000a900473ffffffffffffffffffffffffffffffffffffffff1673ffffffffffffffffffffffffffffffffffffffff16148061123557503373ffffffffffffffffffffffffffffffffffffffff166002600083815260200190815260200160002060009054906101000a900473ffffffffffffffffffffffffffffffffffffffff1673ffffffffffffffffffffffffffffffffffffffff16145b151561128c576040517f08c379a000000000000000000000000000000000000000000000000000000000815260040180806020018281038252602a815260200180611fa3602a913960400191505060405180910390fd5b600073ffffffffffffffffffffffffffffffffffffffff16600360008573ffffffffffffffffffffffffffffffffffffffff1673ffffffffffffffffffffffffffffffffffffffff16815260200190815260200160002060009054906101000a900473ffffffffffffffffffffffffffffffffffffffff1673ffffffffffffffffffffffffffffffffffffffff1614806113b057503373ffffffffffffffffffffffffffffffffffffffff16600360008573ffffffffffffffffffffffffffffffffffffffff1673ffffffffffffffffffffffffffffffffffffffff16815260200190815260200160002060009054906101000a900473ffffffffffffffffffffffffffffffffffffffff1673ffffffffffffffffffffffffffffffffffffffff16145b1515611407576040517f08c379a0000000000000000000000000000000000000000000000000000000008152600401808060200182810382526033815260200180611f046033913960400191505060405180910390fd5b336001600084815260200190815260200160002060006101000a81548173ffffffffffffffffffffffffffffffffffffffff021916908373ffffffffffffffffffffffffffffffffffffffff160217905550336002600083815260200190815260200160002060006101000a81548173ffffffffffffffffffffffffffffffffffffffff021916908373ffffffffffffffffffffffffffffffffffffffff16021790555033600360008573ffffffffffffffffffffffffffffffffffffffff1673ffffffffffffffffffffffffffffffffffffffff16815260200190815260200160002060006101000a81548173ffffffffffffffffffffffffffffffffffffffff021916908373ffffffffffffffffffffffffffffffffffffffff1602179055506080604051908101604052808781526020018681526020018581526020018473ffffffffffffffffffffffffffffffffffffffff168152506000803373ffffffffffffffffffffffffffffffffffffffff1673ffffffffffffffffffffffffffffffffffffffff16815260200190815260200160002060008201518160000190805190602001906115bb929190611d4e565b5060208201518160010190805190602001906115d8929190611dce565b5060408201518160020190805190602001906115f5929190611d4e565b5060608201518160030160006101000a81548173ffffffffffffffffffffffffffffffffffffffff021916908373ffffffffffffffffffffffffffffffffffffffff1602179055509050503373ffffffffffffffffffffffffffffffffffffffff167fd09501348473474a20c772c79c653e1fd7e8b437e418fe235d277d2c8885325160405160405180910390a2505050505050565b61169433611c08565b1515611708576040517f08c379a00000000000000000000000000000000000000000000000000000000081526004018080602001828103825260208152602001807f53656e646572206973206e6f742061206c69737465642056616c696461746f7281525060200191505060405180910390fd5b60008060003373ffffffffffffffffffffffffffffffffffffffff1673ffffffffffffffffffffffffffffffffffffffff1681526020019081526020016000209050600160008260000160405180828054600181600116156101000203166002900480156117ad5780601f1061178b5761010080835404028352918201916117ad565b820191906000526020600020905b815481529060010190602001808311611799575b50509150506040518091039020815260200190815260200160002060006101000a81549073ffffffffffffffffffffffffffffffffffffffff02191690556002600082600201604051808280546001816001161561010002031660029004801561184e5780601f1061182c57610100808354040283529182019161184e565b820191906000526020600020905b81548152906001019060200180831161183a575b50509150506040518091039020815260200190815260200160002060006101000a81549073ffffffffffffffffffffffffffffffffffffffff0219169055600360008260030160009054906101000a900473ffffffffffffffffffffffffffffffffffffffff1673ffffffffffffffffffffffffffffffffffffffff1673ffffffffffffffffffffffffffffffffffffffff16815260200190815260200160002060006101000a81549073ffffffffffffffffffffffffffffffffffffffff02191690556000803373ffffffffffffffffffffffffffffffffffffffff1673ffffffffffffffffffffffffffffffffffffffff168152602001908152602001600020600080820160006119619190611e4e565b6001820160006119719190611e96565b6002820160006119819190611e4e565b6003820160006101000a81549073ffffffffffffffffffffffffffffffffffffffff021916905550503373ffffffffffffffffffffffffffffffffffffffff167f457a63bb4fcc8a2d38fb6141645ce9afbb084a1e63edee2799243c96a0498a0e60405160405180910390a250565b6000602052806000526040600020600091509050806000018054600181600116156101000203166002900480601f016020809104026020016040519081016040528092919081815260200182805460018160011615610100020316600290048015611a9c5780601f10611a7157610100808354040283529160200191611a9c565b820191906000526020600020905b815481529060010190602001808311611a7f57829003601f168201915b505050505090806001018054600181600116156101000203166002900480601f016020809104026020016040519081016040528092919081815260200182805460018160011615610100020316600290048015611b3a5780601f10611b0f57610100808354040283529160200191611b3a565b820191906000526020600020905b815481529060010190602001808311611b1d57829003601f168201915b505050505090806002018054600181600116156101000203166002900480601f016020809104026020016040519081016040528092919081815260200182805460018160011615610100020316600290048015611bd85780601f10611bad57610100808354040283529160200191611bd8565b820191906000526020600020905b815481529060010190602001808311611bbb57829003601f168201915b5050505050908060030160009054906101000a900473ffffffffffffffffffffffffffffffffffffffff16905084565b6000806000808473ffffffffffffffffffffffffffffffffffffffff1673ffffffffffffffffffffffffffffffffffffffff168152602001908152602001600020600001805460018160011615610100020316600290049050119050919050565b600181565b600080825190506000600490505b81811015611d425760007f0100000000000000000000000000000000000000000000000000000000000000028482815181101515611cb657fe5b9060200101517f010000000000000000000000000000000000000000000000000000000000000090047f0100000000000000000000000000000000000000000000000000000000000000027effffffffffffffffffffffffffffffffffffffffffffffffffffffffffffff1916141515611d3557600092505050611d49565b8080600101915050611c7c565b5060019150505b919050565b828054600181600116156101000203166002900490600052602060002090601f016020900481019282601f10611d8f57805160ff1916838001178555611dbd565b82800160010185558215611dbd579182015b82811115611dbc578251825591602001919060010190611da1565b5b509050611dca9190611ede565b5090565b828054600181600116156101000203166002900490600052602060002090601f016020900481019282601f10611e0f57805160ff1916838001178555611e3d565b82800160010185558215611e3d579182015b82811115611e3c578251825591602001919060010190611e21565b5b509050611e4a9190611ede565b5090565b50805460018160011615610100020316600290046000825580601f10611e745750611e93565b601f016020900490600052602060002090810190611e929190611ede565b5b50565b50805460018160011615610100020316600290046000825580601f10611ebc5750611edb565b601f016020900490600052602060002090810190611eda9190611ede565b5b50565b611f0091905b80821115611efc576000816000905550600101611ee4565b5090565b9056fe4f726273204164647265737320697320616c726561647920696e2075736520627920616e6f746865722076616c696461746f724f6e6c7920454f41206d61792072656769737465722061732056616c696461746f72506c65617365207061737320616e2061646472657373206f6620757020746f2034206279746573506c656173652070726f7669646520612076616c6964204f726273204164647265737355524c20697320616c726561647920696e2075736520627920616e6f746865722076616c696461746f724e616d6520697320616c726561647920696e2075736520627920616e6f746865722076616c696461746f72a165627a7a723058200a55b6e27895fdb30b73f3a6cc95db1639f38f488125b4b28a56208f5a810c790029",
  "source": "pragma solidity 0.5.3;\n\n\nimport \"./IOrbsValidatorsRegistry.sol\";\n\n\ncontract OrbsValidatorsRegistry is IOrbsValidatorsRegistry {\n\n    struct ValidatorData {\n        string name;\n        bytes ipAddress;\n        string website;\n        address orbsAddress;\n    }\n\n    uint public constant VERSION = 1;\n\n    mapping(address => ValidatorData) public validatorsData;\n\n    mapping(bytes32 => address) public lookupName;\n    mapping(bytes32 => address) public lookupUrl;\n    mapping(address => address) public lookupOrbsAddr;\n\n    function register(\n        string memory name,\n        bytes memory ipAddress,\n        string memory website,\n        address orbsAddress\n    )\n        public\n    {\n        require(tx.origin == msg.sender, \"Only EOA may register as Validator\");\n        require(bytes(name).length > 0, \"Please provide a valid name\");\n        require(bytes(website).length > 0, \"Please provide a valid website\");\n        require(isIPV4(ipAddress), \"Please pass an address of up to 4 bytes\");\n        require(orbsAddress != address(0), \"Please provide a valid Orbs Address\");\n\n        bytes32 nameHash = keccak256(bytes(name));\n        bytes32 urlHash  = keccak256(bytes(website));\n\n        require(\n            lookupName[nameHash] == address(0) ||\n            lookupName[nameHash] == msg.sender,\n                \"Name is already in use by another validator\"\n        );\n        require(\n            lookupUrl[urlHash] == address(0) ||\n            lookupUrl[urlHash] == msg.sender,\n                \"URL is already in use by another validator\"\n        );\n        require(\n            lookupOrbsAddr[orbsAddress] == address(0) ||\n            lookupOrbsAddr[orbsAddress] == msg.sender,\n                \"Orbs Address is already in use by another validator\"\n        );\n\n        lookupName[nameHash] = msg.sender;\n        lookupUrl[urlHash] = msg.sender;\n        lookupOrbsAddr[orbsAddress] = msg.sender;\n\n        validatorsData[msg.sender] = ValidatorData(\n            name,\n            ipAddress,\n            website,\n            orbsAddress\n        );\n        emit ValidatorRegistered(msg.sender);\n    }\n\n    function leave() public {\n        require(isValidator(msg.sender), \"Sender is not a listed Validator\");\n\n        ValidatorData storage data = validatorsData[msg.sender];\n\n        delete lookupName[keccak256(bytes(data.name))];\n        delete lookupUrl[keccak256(bytes(data.website))];\n        delete lookupOrbsAddr[data.orbsAddress];\n\n        delete validatorsData[msg.sender];\n\n        emit ValidatorLeft(msg.sender);\n    }\n\n    function getValidatorData(address validator)\n        public\n        view\n        returns (\n            string memory name,\n            bytes memory ipAddress,\n            string memory website,\n            address orbsAddress\n        )\n    {\n        require(isValidator(validator), \"Unlisted Validator\");\n\n        return (\n            validatorsData[validator].name,\n            validatorsData[validator].ipAddress,\n            validatorsData[validator].website,\n            validatorsData[validator].orbsAddress\n        );\n    }\n\n    function getOrbsAddress(address validator)\n        public\n        view\n        returns (address)\n    {\n        require(isValidator(validator), \"Unlisted Validator\");\n\n        return validatorsData[validator].orbsAddress;\n    }\n\n    function isValidator(address addr) public view returns (bool) {\n        return bytes(validatorsData[addr].name).length > 0;\n    }\n\n    function isIPV4(bytes memory inBytes) internal pure returns (bool){\n        uint inBytesLength = inBytes.length;\n        for (uint256 i = 4; i < inBytesLength; i++) { // only 0's beyond the 4th byte\n            if (inBytes[i] != 0) {\n                return false;\n            }\n        }\n        return true;\n    }\n}",
  "sourcePath": "/Users/ron/work/src/github.com/orbs-network/orbs-ethereum-contracts/voting/ethereum/contracts/OrbsValidatorsRegistry.sol",
  "compiler": {
    "name": "solc",
    "version": "0.5.3+commit.10d17f24.Emscripten.clang"
  },
  "schemaVersion": "3.0.2",
  "updatedAt": "2019-03-09T18:30:02.038Z",
  "devdoc": {
    "methods": {}
  },
  "userdoc": {
    "methods": {}
  }
}