{
  "contractName": "OrbsValidatorsRegistry",
  "abi": [
    {
      "constant": true,
      "inputs": [
        {
          "name": "",
          "type": "address"
        }
      ],
      "name": "lookupOrbsAddr",
      "outputs": [
        {
          "name": "",
          "type": "address"
        }
      ],
      "payable": false,
      "stateMutability": "view",
      "type": "function"
    },
    {
      "constant": true,
      "inputs": [
        {
          "name": "",
          "type": "bytes32"
        }
      ],
      "name": "lookupIpV4",
      "outputs": [
        {
          "name": "",
          "type": "address"
        }
      ],
      "payable": false,
      "stateMutability": "view",
      "type": "function"
    },
    {
      "constant": true,
      "inputs": [
        {
          "name": "",
          "type": "bytes32"
        }
      ],
      "name": "lookupUrl",
      "outputs": [
        {
          "name": "",
          "type": "address"
        }
      ],
      "payable": false,
      "stateMutability": "view",
      "type": "function"
    },
    {
      "constant": true,
      "inputs": [
        {
          "name": "",
          "type": "bytes32"
        }
      ],
      "name": "lookupName",
      "outputs": [
        {
          "name": "",
          "type": "address"
        }
      ],
      "payable": false,
      "stateMutability": "view",
      "type": "function"
    },
    {
      "constant": true,
      "inputs": [
        {
          "name": "",
          "type": "address"
        }
      ],
      "name": "validatorsData",
      "outputs": [
        {
          "name": "name",
          "type": "string"
        },
        {
          "name": "ipvAddress",
          "type": "bytes"
        },
        {
          "name": "website",
          "type": "string"
        },
        {
          "name": "orbsAddress",
          "type": "address"
        }
      ],
      "payable": false,
      "stateMutability": "view",
      "type": "function"
    },
    {
      "constant": true,
      "inputs": [],
      "name": "VERSION",
      "outputs": [
        {
          "name": "",
          "type": "uint256"
        }
      ],
      "payable": false,
      "stateMutability": "view",
      "type": "function"
    },
    {
      "anonymous": false,
      "inputs": [
        {
          "indexed": true,
          "name": "validator",
          "type": "address"
        }
      ],
      "name": "ValidatorLeft",
      "type": "event"
    },
    {
      "anonymous": false,
      "inputs": [
        {
          "indexed": true,
          "name": "validator",
          "type": "address"
        }
      ],
      "name": "ValidatorRegistered",
      "type": "event"
    },
    {
      "constant": false,
      "inputs": [
        {
          "name": "_name",
          "type": "string"
        },
        {
          "name": "_ipvAddress",
          "type": "bytes"
        },
        {
          "name": "_website",
          "type": "string"
        },
        {
          "name": "_orbsAddress",
          "type": "address"
        }
      ],
      "name": "register",
      "outputs": [],
      "payable": false,
      "stateMutability": "nonpayable",
      "type": "function"
    },
    {
      "constant": false,
      "inputs": [],
      "name": "leave",
      "outputs": [],
      "payable": false,
      "stateMutability": "nonpayable",
      "type": "function"
    },
    {
      "constant": true,
      "inputs": [
        {
          "name": "_validator",
          "type": "address"
        }
      ],
      "name": "getValidatorData",
      "outputs": [
        {
          "name": "_name",
          "type": "string"
        },
        {
          "name": "_ipvAddress",
          "type": "bytes"
        },
        {
          "name": "_website",
          "type": "string"
        },
        {
          "name": "_orbsAddress",
          "type": "address"
        }
      ],
      "payable": false,
      "stateMutability": "view",
      "type": "function"
    },
    {
      "constant": true,
      "inputs": [
        {
          "name": "_validator",
          "type": "address"
        }
      ],
      "name": "getOrbsAddress",
      "outputs": [
        {
          "name": "_orbsAddress",
          "type": "address"
        }
      ],
      "payable": false,
      "stateMutability": "view",
      "type": "function"
    },
    {
      "constant": true,
      "inputs": [
        {
          "name": "addr",
          "type": "address"
        }
      ],
      "name": "isValidator",
      "outputs": [
        {
          "name": "",
          "type": "bool"
        }
      ],
      "payable": false,
      "stateMutability": "view",
      "type": "function"
    }
  ],
  "bytecode": "0x608060405234801561001057600080fd5b5061227b806100206000396000f3fe608060405234801561001057600080fd5b50600436106100c6576000357c010000000000000000000000000000000000000000000000000000000090048063ada780751161008e578063ada7807514610461578063c6858e27146104e5578063d66d9e19146106ee578063e7b11622146106f8578063facd743b146108c0578063ffa1ad741461091c576100c6565b80632536f8b5146100cb5780633b0a5cdf1461029357806353ac86c71461031757806366567445146103855780638e970312146103f3575b600080fd5b61010d600480360360208110156100e157600080fd5b81019080803573ffffffffffffffffffffffffffffffffffffffff16906020019092919050505061093a565b604051808060200180602001806020018573ffffffffffffffffffffffffffffffffffffffff1673ffffffffffffffffffffffffffffffffffffffff168152602001848103845288818151815260200191508051906020019080838360005b8381101561018757808201518184015260208101905061016c565b50505050905090810190601f1680156101b45780820380516001836020036101000a031916815260200191505b50848103835287818151815260200191508051906020019080838360005b838110156101ed5780820151818401526020810190506101d2565b50505050905090810190601f16801561021a5780820380516001836020036101000a031916815260200191505b50848103825286818151815260200191508051906020019080838360005b83811015610253578082015181840152602081019050610238565b50505050905090810190601f1680156102805780820380516001836020036101000a031916815260200191505b5097505050505050505060405180910390f35b6102d5600480360360208110156102a957600080fd5b81019080803573ffffffffffffffffffffffffffffffffffffffff169060200190929190505050610cc6565b604051808273ffffffffffffffffffffffffffffffffffffffff1673ffffffffffffffffffffffffffffffffffffffff16815260200191505060405180910390f35b6103436004803603602081101561032d57600080fd5b8101908080359060200190929190505050610cf9565b604051808273ffffffffffffffffffffffffffffffffffffffff1673ffffffffffffffffffffffffffffffffffffffff16815260200191505060405180910390f35b6103b16004803603602081101561039b57600080fd5b8101908080359060200190929190505050610d2c565b604051808273ffffffffffffffffffffffffffffffffffffffff1673ffffffffffffffffffffffffffffffffffffffff16815260200191505060405180910390f35b61041f6004803603602081101561040957600080fd5b8101908080359060200190929190505050610d5f565b604051808273ffffffffffffffffffffffffffffffffffffffff1673ffffffffffffffffffffffffffffffffffffffff16815260200191505060405180910390f35b6104a36004803603602081101561047757600080fd5b81019080803573ffffffffffffffffffffffffffffffffffffffff169060200190929190505050610d92565b604051808273ffffffffffffffffffffffffffffffffffffffff1673ffffffffffffffffffffffffffffffffffffffff16815260200191505060405180910390f35b6106ec600480360360808110156104fb57600080fd5b810190808035906020019064010000000081111561051857600080fd5b82018360208201111561052a57600080fd5b8035906020019184600183028401116401000000008311171561054c57600080fd5b91908080601f016020809104026020016040519081016040528093929190818152602001838380828437600081840152601f19601f820116905080830192505050505050509192919290803590602001906401000000008111156105af57600080fd5b8201836020820111156105c157600080fd5b803590602001918460018302840111640100000000831117156105e357600080fd5b91908080601f016020809104026020016040519081016040528093929190818152602001838380828437600081840152601f19601f8201169050808301925050505050505091929192908035906020019064010000000081111561064657600080fd5b82018360208201111561065857600080fd5b8035906020019184600183028401116401000000008311171561067a57600080fd5b91908080601f016020809104026020016040519081016040528093929190818152602001838380828437600081840152601f19601f820116905080830192505050505050509192919290803573ffffffffffffffffffffffffffffffffffffffff169060200190929190505050610e7a565b005b6106f6611833565b005b61073a6004803603602081101561070e57600080fd5b81019080803573ffffffffffffffffffffffffffffffffffffffff169060200190929190505050611c39565b604051808060200180602001806020018573ffffffffffffffffffffffffffffffffffffffff1673ffffffffffffffffffffffffffffffffffffffff168152602001848103845288818151815260200191508051906020019080838360005b838110156107b4578082015181840152602081019050610799565b50505050905090810190601f1680156107e15780820380516001836020036101000a031916815260200191505b50848103835287818151815260200191508051906020019080838360005b8381101561081a5780820151818401526020810190506107ff565b50505050905090810190601f1680156108475780820380516001836020036101000a031916815260200191505b50848103825286818151815260200191508051906020019080838360005b83811015610880578082015181840152602081019050610865565b50505050905090810190601f1680156108ad5780820380516001836020036101000a031916815260200191505b5097505050505050505060405180910390f35b610902600480360360208110156108d657600080fd5b81019080803573ffffffffffffffffffffffffffffffffffffffff169060200190929190505050611e51565b604051808215151515815260200191505060405180910390f35b610924611eb2565b6040518082815260200191505060405180910390f35b6060806060600061094a85611e51565b15156109be576040517f08c379a00000000000000000000000000000000000000000000000000000000081526004018080602001828103825260128152602001807f556e6c69737465642056616c696461746f72000000000000000000000000000081525060200191505060405180910390fd5b6000808673ffffffffffffffffffffffffffffffffffffffff1673ffffffffffffffffffffffffffffffffffffffff1681526020019081526020016000206000016000808773ffffffffffffffffffffffffffffffffffffffff1673ffffffffffffffffffffffffffffffffffffffff1681526020019081526020016000206001016000808873ffffffffffffffffffffffffffffffffffffffff1673ffffffffffffffffffffffffffffffffffffffff1681526020019081526020016000206002016000808973ffffffffffffffffffffffffffffffffffffffff1673ffffffffffffffffffffffffffffffffffffffff16815260200190815260200160002060030160009054906101000a900473ffffffffffffffffffffffffffffffffffffffff16838054600181600116156101000203166002900480601f016020809104026020016040519081016040528092919081815260200182805460018160011615610100020316600290048015610b785780601f10610b4d57610100808354040283529160200191610b78565b820191906000526020600020905b815481529060010190602001808311610b5b57829003601f168201915b50505050509350828054600181600116156101000203166002900480601f016020809104026020016040519081016040528092919081815260200182805460018160011615610100020316600290048015610c145780601f10610be957610100808354040283529160200191610c14565b820191906000526020600020905b815481529060010190602001808311610bf757829003601f168201915b50505050509250818054600181600116156101000203166002900480601f016020809104026020016040519081016040528092919081815260200182805460018160011615610100020316600290048015610cb05780601f10610c8557610100808354040283529160200191610cb0565b820191906000526020600020905b815481529060010190602001808311610c9357829003601f168201915b5050505050915093509350935093509193509193565b60046020528060005260406000206000915054906101000a900473ffffffffffffffffffffffffffffffffffffffff1681565b60026020528060005260406000206000915054906101000a900473ffffffffffffffffffffffffffffffffffffffff1681565b60036020528060005260406000206000915054906101000a900473ffffffffffffffffffffffffffffffffffffffff1681565b60016020528060005260406000206000915054906101000a900473ffffffffffffffffffffffffffffffffffffffff1681565b6000610d9d82611e51565b1515610e11576040517f08c379a00000000000000000000000000000000000000000000000000000000081526004018080602001828103825260128152602001807f556e6c69737465642056616c696461746f72000000000000000000000000000081525060200191505060405180910390fd5b6000808373ffffffffffffffffffffffffffffffffffffffff1673ffffffffffffffffffffffffffffffffffffffff16815260200190815260200160002060030160009054906101000a900473ffffffffffffffffffffffffffffffffffffffff169050919050565b60008451111515610ef3576040517f08c379a000000000000000000000000000000000000000000000000000000000815260040180806020018281038252601b8152602001807f506c656173652070726f7669646520612076616c6964206e616d65000000000081525060200191505060405180910390fd5b60008251111515610f6c576040517f08c379a000000000000000000000000000000000000000000000000000000000815260040180806020018281038252601e8152602001807f506c656173652070726f7669646520612076616c69642077656273697465000081525060200191505060405180910390fd5b610f7583611eb7565b1515610fcc576040517f08c379a00000000000000000000000000000000000000000000000000000000081526004018080602001828103825260278152602001806121b16027913960400191505060405180910390fd5b600073ffffffffffffffffffffffffffffffffffffffff168173ffffffffffffffffffffffffffffffffffffffff1614151515611054576040517f08c379a00000000000000000000000000000000000000000000000000000000081526004018080602001828103825260238152602001806121d86023913960400191505060405180910390fd5b600084805190602001209050600084805190602001209050600084805190602001209050600073ffffffffffffffffffffffffffffffffffffffff166001600085815260200190815260200160002060009054906101000a900473ffffffffffffffffffffffffffffffffffffffff1673ffffffffffffffffffffffffffffffffffffffff16148061114457503373ffffffffffffffffffffffffffffffffffffffff166001600085815260200190815260200160002060009054906101000a900473ffffffffffffffffffffffffffffffffffffffff1673ffffffffffffffffffffffffffffffffffffffff16145b151561119b576040517f08c379a000000000000000000000000000000000000000000000000000000000815260040180806020018281038252602b815260200180612225602b913960400191505060405180910390fd5b600073ffffffffffffffffffffffffffffffffffffffff166002600084815260200190815260200160002060009054906101000a900473ffffffffffffffffffffffffffffffffffffffff1673ffffffffffffffffffffffffffffffffffffffff16148061126757503373ffffffffffffffffffffffffffffffffffffffff166002600084815260200190815260200160002060009054906101000a900473ffffffffffffffffffffffffffffffffffffffff1673ffffffffffffffffffffffffffffffffffffffff16145b15156112be576040517f08c379a00000000000000000000000000000000000000000000000000000000081526004018080602001828103825260318152602001806121806031913960400191505060405180910390fd5b600073ffffffffffffffffffffffffffffffffffffffff166003600083815260200190815260200160002060009054906101000a900473ffffffffffffffffffffffffffffffffffffffff1673ffffffffffffffffffffffffffffffffffffffff16148061138a57503373ffffffffffffffffffffffffffffffffffffffff166003600083815260200190815260200160002060009054906101000a900473ffffffffffffffffffffffffffffffffffffffff1673ffffffffffffffffffffffffffffffffffffffff16145b15156113e1576040517f08c379a000000000000000000000000000000000000000000000000000000000815260040180806020018281038252602a8152602001806121fb602a913960400191505060405180910390fd5b600073ffffffffffffffffffffffffffffffffffffffff16600460008673ffffffffffffffffffffffffffffffffffffffff1673ffffffffffffffffffffffffffffffffffffffff16815260200190815260200160002060009054906101000a900473ffffffffffffffffffffffffffffffffffffffff1673ffffffffffffffffffffffffffffffffffffffff16148061150557503373ffffffffffffffffffffffffffffffffffffffff16600460008673ffffffffffffffffffffffffffffffffffffffff1673ffffffffffffffffffffffffffffffffffffffff16815260200190815260200160002060009054906101000a900473ffffffffffffffffffffffffffffffffffffffff1673ffffffffffffffffffffffffffffffffffffffff16145b151561155c576040517f08c379a000000000000000000000000000000000000000000000000000000000815260040180806020018281038252603381526020018061214d6033913960400191505060405180910390fd5b336001600085815260200190815260200160002060006101000a81548173ffffffffffffffffffffffffffffffffffffffff021916908373ffffffffffffffffffffffffffffffffffffffff160217905550336002600084815260200190815260200160002060006101000a81548173ffffffffffffffffffffffffffffffffffffffff021916908373ffffffffffffffffffffffffffffffffffffffff160217905550336003600083815260200190815260200160002060006101000a81548173ffffffffffffffffffffffffffffffffffffffff021916908373ffffffffffffffffffffffffffffffffffffffff16021790555033600460008673ffffffffffffffffffffffffffffffffffffffff1673ffffffffffffffffffffffffffffffffffffffff16815260200190815260200160002060006101000a81548173ffffffffffffffffffffffffffffffffffffffff021916908373ffffffffffffffffffffffffffffffffffffffff1602179055506080604051908101604052808881526020018781526020018681526020018573ffffffffffffffffffffffffffffffffffffffff168152506000803373ffffffffffffffffffffffffffffffffffffffff1673ffffffffffffffffffffffffffffffffffffffff1681526020019081526020016000206000820151816000019080519060200190611762929190611f97565b50602082015181600101908051906020019061177f929190612017565b50604082015181600201908051906020019061179c929190611f97565b5060608201518160030160006101000a81548173ffffffffffffffffffffffffffffffffffffffff021916908373ffffffffffffffffffffffffffffffffffffffff1602179055509050503373ffffffffffffffffffffffffffffffffffffffff167fd09501348473474a20c772c79c653e1fd7e8b437e418fe235d277d2c8885325160405160405180910390a250505050505050565b61183c33611e51565b15156118b0576040517f08c379a00000000000000000000000000000000000000000000000000000000081526004018080602001828103825260208152602001807f53656e646572206973206e6f742061206c69737465642056616c696461746f7281525060200191505060405180910390fd5b60008060003373ffffffffffffffffffffffffffffffffffffffff1673ffffffffffffffffffffffffffffffffffffffff1681526020019081526020016000209050600160008260000160405180828054600181600116156101000203166002900480156119555780601f10611933576101008083540402835291820191611955565b820191906000526020600020905b815481529060010190602001808311611941575b50509150506040518091039020815260200190815260200160002060006101000a81549073ffffffffffffffffffffffffffffffffffffffff0219169055600260008260010160405180828054600181600116156101000203166002900480156119f65780601f106119d45761010080835404028352918201916119f6565b820191906000526020600020905b8154815290600101906020018083116119e2575b50509150506040518091039020815260200190815260200160002060006101000a81549073ffffffffffffffffffffffffffffffffffffffff021916905560036000826002016040518082805460018160011615610100020316600290048015611a975780601f10611a75576101008083540402835291820191611a97565b820191906000526020600020905b815481529060010190602001808311611a83575b50509150506040518091039020815260200190815260200160002060006101000a81549073ffffffffffffffffffffffffffffffffffffffff0219169055600460008260030160009054906101000a900473ffffffffffffffffffffffffffffffffffffffff1673ffffffffffffffffffffffffffffffffffffffff1673ffffffffffffffffffffffffffffffffffffffff16815260200190815260200160002060006101000a81549073ffffffffffffffffffffffffffffffffffffffff02191690556000803373ffffffffffffffffffffffffffffffffffffffff1673ffffffffffffffffffffffffffffffffffffffff16815260200190815260200160002060008082016000611baa9190612097565b600182016000611bba91906120df565b600282016000611bca9190612097565b6003820160006101000a81549073ffffffffffffffffffffffffffffffffffffffff021916905550503373ffffffffffffffffffffffffffffffffffffffff167f457a63bb4fcc8a2d38fb6141645ce9afbb084a1e63edee2799243c96a0498a0e60405160405180910390a250565b6000602052806000526040600020600091509050806000018054600181600116156101000203166002900480601f016020809104026020016040519081016040528092919081815260200182805460018160011615610100020316600290048015611ce55780601f10611cba57610100808354040283529160200191611ce5565b820191906000526020600020905b815481529060010190602001808311611cc857829003601f168201915b505050505090806001018054600181600116156101000203166002900480601f016020809104026020016040519081016040528092919081815260200182805460018160011615610100020316600290048015611d835780601f10611d5857610100808354040283529160200191611d83565b820191906000526020600020905b815481529060010190602001808311611d6657829003601f168201915b505050505090806002018054600181600116156101000203166002900480601f016020809104026020016040519081016040528092919081815260200182805460018160011615610100020316600290048015611e215780601f10611df657610100808354040283529160200191611e21565b820191906000526020600020905b815481529060010190602001808311611e0457829003601f168201915b5050505050908060030160009054906101000a900473ffffffffffffffffffffffffffffffffffffffff16905084565b6000806000808473ffffffffffffffffffffffffffffffffffffffff1673ffffffffffffffffffffffffffffffffffffffff168152602001908152602001600020600001805460018160011615610100020316600290049050119050919050565b600181565b600080825190506000600490505b81811015611f8b5760007f0100000000000000000000000000000000000000000000000000000000000000028482815181101515611eff57fe5b9060200101517f010000000000000000000000000000000000000000000000000000000000000090047f0100000000000000000000000000000000000000000000000000000000000000027effffffffffffffffffffffffffffffffffffffffffffffffffffffffffffff1916141515611f7e57600092505050611f92565b8080600101915050611ec5565b5060019150505b919050565b828054600181600116156101000203166002900490600052602060002090601f016020900481019282601f10611fd857805160ff1916838001178555612006565b82800160010185558215612006579182015b82811115612005578251825591602001919060010190611fea565b5b5090506120139190612127565b5090565b828054600181600116156101000203166002900490600052602060002090601f016020900481019282601f1061205857805160ff1916838001178555612086565b82800160010185558215612086579182015b8281111561208557825182559160200191906001019061206a565b5b5090506120939190612127565b5090565b50805460018160011615610100020316600290046000825580601f106120bd57506120dc565b601f0160209004906000526020600020908101906120db9190612127565b5b50565b50805460018160011615610100020316600290046000825580601f106121055750612124565b601f0160209004906000526020600020908101906121239190612127565b5b50565b61214991905b8082111561214557600081600090555060010161212d565b5090565b9056fe4f726273204164647265737320697320616c726561647920696e2075736520627920616e6f746865722076616c696461746f724950206164647265737320697320616c726561647920696e2075736520627920616e6f746865722076616c696461746f72506c65617365207061737320616e2061646472657373206f6620757020746f2034206279746573506c656173652070726f7669646520612076616c6964204f726273204164647265737355524c20697320616c726561647920696e2075736520627920616e6f746865722076616c696461746f724e616d6520697320616c726561647920696e2075736520627920616e6f746865722076616c696461746f72a165627a7a72305820099c3fe36b9fcead1a5bff098862867e392e3076fe49e07ddcedc7b366cc52260029",
  "source": "pragma solidity 0.5.3;\n\ninterface IOrbsValidatorsRegistry {\n    event ValidatorLeft(address indexed validator);\n    event ValidatorRegistered(address indexed validator);\n\n    function register(\n        string calldata _name,\n        bytes calldata _ipvAddress,\n        string calldata _website,\n        address _orbsAddress\n    )\n        external;\n    function leave() external;\n    function getValidatorData(address _validator)\n        external\n        view\n        returns (\n            string memory _name,\n            bytes memory _ipvAddress,\n            string memory _website,\n            address _orbsAddress\n        );\n\n    function isValidator(address m) external view returns (bool);\n    function getOrbsAddress(address _validator)\n        external\n        view\n        returns (address _orbsAddress);\n}\n\n\ncontract OrbsValidatorsRegistry is IOrbsValidatorsRegistry {\n\n    struct ValidatorData {\n        string name;\n        bytes ipvAddress;\n        string website;\n        address orbsAddress;\n    }\n\n    uint public constant VERSION = 1;\n\n    mapping (address => ValidatorData) public validatorsData;\n\n    mapping (bytes32 => address) public lookupName;\n    mapping (bytes32 => address) public lookupIpV4;\n    mapping (bytes32 => address) public lookupUrl;\n    mapping (address => address) public lookupOrbsAddr;\n\n    function register(\n        string memory _name,\n        bytes memory _ipvAddress,\n        string memory _website,\n        address _orbsAddress\n    )\n        public\n    {\n        require(bytes(_name).length > 0, \"Please provide a valid name\");\n        require(bytes(_website).length > 0, \"Please provide a valid website\");\n        require(isIpv4(_ipvAddress), \"Please pass an address of up to 4 bytes\");\n        require(_orbsAddress != address(0), \"Please provide a valid Orbs Address\");\n\n        bytes32 nameHash = keccak256(bytes(_name));\n        bytes32 ipv4Hash = keccak256(_ipvAddress);\n        bytes32 urlHash  = keccak256(bytes(_website));\n\n        require(\n            lookupName[nameHash] == address(0) ||\n            lookupName[nameHash] == msg.sender,\n                \"Name is already in use by another validator\"\n        );\n        require(\n            lookupIpV4[ipv4Hash] == address(0) ||\n            lookupIpV4[ipv4Hash] == msg.sender,\n                \"IP address is already in use by another validator\"\n        );\n        require(\n            lookupUrl[urlHash] == address(0) ||\n            lookupUrl[urlHash] == msg.sender,\n                \"URL is already in use by another validator\"\n        );\n        require(\n            lookupOrbsAddr[_orbsAddress] == address(0) ||\n            lookupOrbsAddr[_orbsAddress] == msg.sender,\n                \"Orbs Address is already in use by another validator\"\n        );\n\n        lookupName[nameHash] = msg.sender;\n        lookupIpV4[ipv4Hash] = msg.sender;\n        lookupUrl[urlHash] = msg.sender;\n        lookupOrbsAddr[_orbsAddress] = msg.sender;\n\n        validatorsData[msg.sender] = ValidatorData(\n            _name,\n            _ipvAddress,\n            _website,\n            _orbsAddress\n        );\n        emit ValidatorRegistered(msg.sender);\n    }\n\n    function leave() public {\n        require(isValidator(msg.sender), \"Sender is not a listed Validator\");\n\n        ValidatorData storage data = validatorsData[msg.sender];\n\n        delete lookupName[keccak256(bytes(data.name))];\n        delete lookupIpV4[keccak256(data.ipvAddress)];\n        delete lookupUrl[keccak256(bytes(data.website))];\n        delete lookupOrbsAddr[data.orbsAddress];\n\n        delete validatorsData[msg.sender];\n\n        emit ValidatorLeft(msg.sender);\n    }\n\n    function getValidatorData(address _validator)\n        public\n        view\n        returns (\n            string memory _name,\n            bytes memory _ipvAddress,\n            string memory _website,\n            address _orbsAddress\n        )\n    {\n        require(isValidator(_validator), \"Unlisted Validator\");\n\n        return (\n            validatorsData[_validator].name,\n            validatorsData[_validator].ipvAddress,\n            validatorsData[_validator].website,\n            validatorsData[_validator].orbsAddress\n        );\n    }\n\n    function getOrbsAddress(address _validator)\n        public\n        view\n        returns (address _orbsAddress)\n    {\n        require(isValidator(_validator), \"Unlisted Validator\");\n\n        return validatorsData[_validator].orbsAddress;\n    }\n\n    function isValidator(address addr) public view returns (bool) {\n        return bytes(validatorsData[addr].name).length > 0;\n    }\n\n    function isIpv4(bytes memory inBytes) internal pure returns (bool){\n        uint inBytesLength = inBytes.length;\n        for (uint256 i = 4; i < inBytesLength; i++) { // only 0's beyond the 4th byte\n            if (inBytes[i] != 0) {\n                return false;\n            }\n        }\n        return true;\n    }\n}",
  "sourcePath": "/Users/ron/work/src/github.com/orbs-network/orbs-ethereum-contracts/voting/ethereum/contracts/OrbsValidatorsRegistry.sol",
  "compiler": {
    "name": "solc",
    "version": "0.5.3+commit.10d17f24.Emscripten.clang"
  },
  "schemaVersion": "3.0.1",
  "updatedAt": "2019-03-05T11:19:59.314Z",
  "devdoc": {
    "methods": {}
  },
  "userdoc": {
    "methods": {}
  }
}