{
  "contractName": "OrbsVoting",
  "abi": [
    {
      "constant": true,
      "inputs": [],
      "name": "VERSION",
      "outputs": [
        {
          "name": "",
          "type": "uint256"
        }
      ],
      "payable": false,
      "stateMutability": "view",
      "type": "function"
    },
    {
      "anonymous": false,
      "inputs": [
        {
          "indexed": true,
          "name": "voter",
          "type": "address"
        },
        {
          "indexed": false,
          "name": "nodes_list",
          "type": "address[]"
        },
        {
          "indexed": false,
          "name": "vote_counter",
          "type": "uint256"
        }
      ],
      "name": "Vote",
      "type": "event"
    },
    {
      "anonymous": false,
      "inputs": [
        {
          "indexed": true,
          "name": "stakeholder",
          "type": "address"
        },
        {
          "indexed": true,
          "name": "to",
          "type": "address"
        },
        {
          "indexed": false,
          "name": "delegation_counter",
          "type": "uint256"
        }
      ],
      "name": "Delegate",
      "type": "event"
    },
    {
      "constant": false,
      "inputs": [
        {
          "name": "nodes",
          "type": "address[]"
        }
      ],
      "name": "vote",
      "outputs": [],
      "payable": false,
      "stateMutability": "nonpayable",
      "type": "function"
    },
    {
      "constant": false,
      "inputs": [
        {
          "name": "to",
          "type": "address"
        }
      ],
      "name": "delegate",
      "outputs": [],
      "payable": false,
      "stateMutability": "nonpayable",
      "type": "function"
    },
    {
      "constant": true,
      "inputs": [
        {
          "name": "_guardian",
          "type": "address"
        }
      ],
      "name": "getLastVote",
      "outputs": [
        {
          "name": "nodes",
          "type": "address[]"
        },
        {
          "name": "block_height",
          "type": "uint256"
        }
      ],
      "payable": false,
      "stateMutability": "view",
      "type": "function"
    }
  ],
  "bytecode": "0x608060405260008055600060015534801561001957600080fd5b506107cc806100296000396000f3fe608060405234801561001057600080fd5b5060043610610069576000357c0100000000000000000000000000000000000000000000000000000000900480635c19a95c1461006e578063aef66981146100b2578063ed08132914610152578063ffa1ad741461020a575b600080fd5b6100b06004803603602081101561008457600080fd5b81019080803573ffffffffffffffffffffffffffffffffffffffff169060200190929190505050610228565b005b6100f4600480360360208110156100c857600080fd5b81019080803573ffffffffffffffffffffffffffffffffffffffff1690602001909291905050506102a4565b6040518080602001838152602001828103825284818151815260200191508051906020019060200280838360005b8381101561013d578082015181840152602081019050610122565b50505050905001935050505060405180910390f35b6102086004803603602081101561016857600080fd5b810190808035906020019064010000000081111561018557600080fd5b82018360208201111561019757600080fd5b803590602001918460208302840111640100000000831117156101b957600080fd5b919080806020026020016040519081016040528093929190818152602001838360200280828437600081840152601f19601f820116905080830192505050505050509192919290505050610426565b005b6102126106ce565b6040518082815260200191505060405180910390f35b6001600081548092919060010191905055508073ffffffffffffffffffffffffffffffffffffffff163373ffffffffffffffffffffffffffffffffffffffff167f510b11bb3f3c799b11307c01ab7db0d335683ef5b2da98f7697de744f465eacc6001546040518082815260200191505060405180910390a350565b6060600080600260008573ffffffffffffffffffffffffffffffffffffffff1673ffffffffffffffffffffffffffffffffffffffff168152602001908152602001600020905060008180549050111515610366576040517f08c379a00000000000000000000000000000000000000000000000000000000081526004018080602001828103825260148152602001807f477561726469616e206e6576657220766f74656400000000000000000000000081525060200191505060405180910390fd5b600081600183805490500381548110151561037d57fe5b90600052602060002090600202019050806000015492508060010180548060200260200160405190810160405280929190818152602001828054801561041857602002820191906000526020600020905b8160009054906101000a900473ffffffffffffffffffffffffffffffffffffffff1673ffffffffffffffffffffffffffffffffffffffff16815260200190600101908083116103ce575b505050505093505050915091565b6000815111151561049f576040517f08c379a000000000000000000000000000000000000000000000000000000000815260040180806020018281038252601b8152602001807f4d7573742070726f76696465206e6f6e20656d707479206c697374000000000081525060200191505060405180910390fd5b60008090505b815181101561057757600073ffffffffffffffffffffffffffffffffffffffff1682828151811015156104d457fe5b9060200190602002015173ffffffffffffffffffffffffffffffffffffffff161415151561056a576040517f08c379a00000000000000000000000000000000000000000000000000000000081526004018080602001828103825260178152602001807f416c6c206e6f646573206d757374206265206e6f6e203000000000000000000081525060200191505060405180910390fd5b80806001019150506104a5565b506000808154809291906001019190505550600260003373ffffffffffffffffffffffffffffffffffffffff1673ffffffffffffffffffffffffffffffffffffffff1681526020019081526020016000206040805190810160405280438152602001838152509080600181540180825580915050906001820390600052602060002090600202016000909192909190915060008201518160000155602082015181600101908051906020019061062e9291906106d3565b505050503373ffffffffffffffffffffffffffffffffffffffff167f8e74707f33682297df744388ec6b7a56c219db104289e482dd949ba15f80213d826000546040518080602001838152602001828103825284818151815260200191508051906020019060200280838360005b838110156106b757808201518184015260208101905061069c565b50505050905001935050505060405180910390a250565b600181565b82805482825590600052602060002090810192821561074c579160200282015b8281111561074b5782518260006101000a81548173ffffffffffffffffffffffffffffffffffffffff021916908373ffffffffffffffffffffffffffffffffffffffff160217905550916020019190600101906106f3565b5b509050610759919061075d565b5090565b61079d91905b8082111561079957600081816101000a81549073ffffffffffffffffffffffffffffffffffffffff021916905550600101610763565b5090565b9056fea165627a7a72305820d88aaf453145bffe23eaf0fe53b42275b506ee82605d9680e258475325b871c80029",
  "source": "pragma solidity 0.5.3;\n\ninterface IOrbsVoting {\n    function vote(address[] calldata nodes_list) external;\n    function delegate(address to) external;\n}\n\ncontract OrbsVoting is IOrbsVoting {\n    struct VotingRecord {\n        uint block_height;\n        address[] nodes;\n    }\n    event Vote(address indexed voter, address[] nodes_list, uint vote_counter);\n    event Delegate(address indexed stakeholder, address indexed to, uint delegation_counter);\n\n    uint vote_counter = 0; // will reset back to zero when uint is exhausted\n    uint delegation_counter = 0; // will reset back to zero when uint is exhausted\n\n    mapping (address => VotingRecord[]) votingRecords;\n\n    // The version of the current federation smart contract.\n    uint public constant VERSION = 1;\n\n    function vote(address[] memory nodes) public {\n        require(nodes.length > 0, \"Must provide non empty list\");\n\n        for (uint i=0; i < nodes.length; i++) {\n            require(nodes[i] != address(0), \"All nodes must be non 0\");\n        }\n\n        vote_counter++;\n\n        votingRecords[msg.sender].push(VotingRecord(block.number, nodes));\n\n        emit Vote(msg.sender, nodes, vote_counter);\n    }\n\n    function delegate(address to) public {\n        delegation_counter++;\n        emit Delegate(msg.sender, to, delegation_counter);\n    }\n\n    function getLastVote(address _guardian) public view returns (address[] memory nodes, uint block_height) {\n        VotingRecord[] storage votings = votingRecords[_guardian];\n\n        require(votings.length > 0, \"Guardian never voted\");\n\n        VotingRecord storage lastVote = votings[votings.length - 1];\n\n        block_height = lastVote.block_height;\n        nodes = lastVote.nodes;\n    }\n\n}",
  "sourcePath": "/Users/ron/work/src/github.com/orbs-network/orbs-ethereum-contracts/Voting/ethereum/contracts/OrbsVoting.sol",
  "compiler": {
    "name": "solc",
    "version": "0.5.3+commit.10d17f24.Emscripten.clang"
  },
  "schemaVersion": "3.0.1",
  "updatedAt": "2019-02-26T10:03:13.021Z",
  "devdoc": {
    "methods": {}
  },
  "userdoc": {
    "methods": {}
  }
}