{
  "contractName": "OrbsVoting",
  "abi": [
    {
      "constant": true,
      "inputs": [],
      "name": "maxVoteOutLength",
      "outputs": [
        {
          "name": "",
          "type": "uint256"
        }
      ],
      "payable": false,
      "stateMutability": "view",
      "type": "function"
    },
    {
      "constant": true,
      "inputs": [],
      "name": "VERSION",
      "outputs": [
        {
          "name": "",
          "type": "uint256"
        }
      ],
      "payable": false,
      "stateMutability": "view",
      "type": "function"
    },
    {
      "inputs": [
        {
          "name": "maxVoteOutLength_",
          "type": "uint256"
        }
      ],
      "payable": false,
      "stateMutability": "nonpayable",
      "type": "constructor"
    },
    {
      "anonymous": false,
      "inputs": [
        {
          "indexed": true,
          "name": "voter",
          "type": "address"
        },
        {
          "indexed": false,
          "name": "validators",
          "type": "bytes20[]"
        },
        {
          "indexed": false,
          "name": "voteCounter",
          "type": "uint256"
        }
      ],
      "name": "VoteOut",
      "type": "event"
    },
    {
      "anonymous": false,
      "inputs": [
        {
          "indexed": true,
          "name": "delegator",
          "type": "address"
        },
        {
          "indexed": true,
          "name": "to",
          "type": "address"
        },
        {
          "indexed": false,
          "name": "delegationCounter",
          "type": "uint256"
        }
      ],
      "name": "Delegate",
      "type": "event"
    },
    {
      "constant": false,
      "inputs": [
        {
          "name": "validators",
          "type": "address[]"
        }
      ],
      "name": "voteOut",
      "outputs": [],
      "payable": false,
      "stateMutability": "nonpayable",
      "type": "function"
    },
    {
      "constant": false,
      "inputs": [
        {
          "name": "to",
          "type": "address"
        }
      ],
      "name": "delegate",
      "outputs": [],
      "payable": false,
      "stateMutability": "nonpayable",
      "type": "function"
    },
    {
      "constant": true,
      "inputs": [
        {
          "name": "guardian",
          "type": "address"
        }
      ],
      "name": "getCurrentVote",
      "outputs": [
        {
          "name": "validators",
          "type": "address[]"
        },
        {
          "name": "blockNumber",
          "type": "uint256"
        }
      ],
      "payable": false,
      "stateMutability": "view",
      "type": "function"
    },
    {
      "constant": true,
      "inputs": [
        {
          "name": "delegator",
          "type": "address"
        }
      ],
      "name": "getCurrentDelegation",
      "outputs": [
        {
          "name": "to",
          "type": "address"
        }
      ],
      "payable": false,
      "stateMutability": "view",
      "type": "function"
    }
  ],
  "bytecode": "0x608060405234801561001057600080fd5b50604051602080610adf8339810180604052602081101561003057600080fd5b81019080805190602001909291905050506000808190555060006001819055508060028190555050610a78806100676000396000f3fe608060405234801561001057600080fd5b506004361061007f576000357c01000000000000000000000000000000000000000000000000000000009004806345ba5b8a146100845780635c19a95c14610108578063a8b52c251461014c578063ab58a549146101ec578063f82220201461020a578063ffa1ad74146102c2575b600080fd5b6100c66004803603602081101561009a57600080fd5b81019080803573ffffffffffffffffffffffffffffffffffffffff1690602001909291905050506102e0565b604051808273ffffffffffffffffffffffffffffffffffffffff1673ffffffffffffffffffffffffffffffffffffffff16815260200191505060405180910390f35b61014a6004803603602081101561011e57600080fd5b81019080803573ffffffffffffffffffffffffffffffffffffffff169060200190929190505050610349565b005b61018e6004803603602081101561016257600080fd5b81019080803573ffffffffffffffffffffffffffffffffffffffff1690602001909291905050506104e8565b6040518080602001838152602001828103825284818151815260200191508051906020019060200280838360005b838110156101d75780820151818401526020810190506101bc565b50505050905001935050505060405180910390f35b6101f4610642565b6040518082815260200191505060405180910390f35b6102c06004803603602081101561022057600080fd5b810190808035906020019064010000000081111561023d57600080fd5b82018360208201111561024f57600080fd5b8035906020019184602083028401116401000000008311171561027157600080fd5b919080806020026020016040519081016040528093929190818152602001838360200280828437600081840152601f19601f820116905080830192505050505050509192919290505050610648565b005b6102ca61092b565b6040518082815260200191505060405180910390f35b6000600460008373ffffffffffffffffffffffffffffffffffffffff1673ffffffffffffffffffffffffffffffffffffffff16815260200190815260200160002060009054906101000a900473ffffffffffffffffffffffffffffffffffffffff169050919050565b600073ffffffffffffffffffffffffffffffffffffffff168173ffffffffffffffffffffffffffffffffffffffff16141515156103ee576040517f08c379a00000000000000000000000000000000000000000000000000000000081526004018080602001828103825260168152602001807f6d7573742064656c656761746520746f206e6f6e20300000000000000000000081525060200191505060405180910390fd5b60016000815480929190600101919050555080600460003373ffffffffffffffffffffffffffffffffffffffff1673ffffffffffffffffffffffffffffffffffffffff16815260200190815260200160002060006101000a81548173ffffffffffffffffffffffffffffffffffffffff021916908373ffffffffffffffffffffffffffffffffffffffff1602179055508073ffffffffffffffffffffffffffffffffffffffff163373ffffffffffffffffffffffffffffffffffffffff167f510b11bb3f3c799b11307c01ab7db0d335683ef5b2da98f7697de744f465eacc6001546040518082815260200191505060405180910390a350565b6060600080600360008573ffffffffffffffffffffffffffffffffffffffff1673ffffffffffffffffffffffffffffffffffffffff1681526020019081526020016000209050600081600001541115156105aa576040517f08c379a00000000000000000000000000000000000000000000000000000000081526004018080602001828103825260148152602001807f477561726469616e206e6576657220766f74656400000000000000000000000081525060200191505060405180910390fd5b806000015491508060010180548060200260200160405190810160405280929190818152602001828054801561063557602002820191906000526020600020905b8160009054906101000a900473ffffffffffffffffffffffffffffffffffffffff1673ffffffffffffffffffffffffffffffffffffffff16815260200190600101908083116105eb575b5050505050925050915091565b60025481565b6002548151111515156106a6576040517f08c379a000000000000000000000000000000000000000000000000000000000815260040180806020018281038252602a815260200180610a23602a913960400191505060405180910390fd5b6000815190506060816040519080825280602002602001820160405280156106dd5781602001602082028038833980820191505090505b50905060008090505b828110156107fd57600073ffffffffffffffffffffffffffffffffffffffff16848281518110151561071457fe5b9060200190602002015173ffffffffffffffffffffffffffffffffffffffff161415151561078d576040517f08c379a00000000000000000000000000000000000000000000000000000000081526004018080602001828103825260258152602001806109fe6025913960400191505060405180910390fd5b838181518110151561079b57fe5b906020019060200201516c010000000000000000000000000282828151811015156107c257fe5b906020019060200201906bffffffffffffffffffffffff191690816bffffffffffffffffffffffff19168152505080806001019150506106e6565b506000808154809291906001019190505550604080519081016040528043815260200184815250600360003373ffffffffffffffffffffffffffffffffffffffff1673ffffffffffffffffffffffffffffffffffffffff168152602001908152602001600020600082015181600001556020820151816001019080519060200190610889929190610930565b509050503373ffffffffffffffffffffffffffffffffffffffff167f4ad31339859fef06e0234f56bc4459d2a60b273671a6b4b31d79ab024cc1997b826000546040518080602001838152602001828103825284818151815260200191508051906020019060200280838360005b838110156109125780820151818401526020810190506108f7565b50505050905001935050505060405180910390a2505050565b600181565b8280548282559060005260206000209081019282156109a9579160200282015b828111156109a85782518260006101000a81548173ffffffffffffffffffffffffffffffffffffffff021916908373ffffffffffffffffffffffffffffffffffffffff16021790555091602001919060010190610950565b5b5090506109b691906109ba565b5090565b6109fa91905b808211156109f657600081816101000a81549073ffffffffffffffffffffffffffffffffffffffff0219169055506001016109c0565b5090565b9056fe416c6c2076616c696461746f7220616464726573736573206d757374206265206e6f6e203056616c696461746f7273206c697374206973206f7665722074686520616c6c6f776564206c656e677468a165627a7a723058202fa137d5775e90ac0d840bf8c83cacfa85968ae8d82b1f5c4062458073d630d30029",
  "compiler": {
    "name": "solc",
    "version": "0.5.3+commit.10d17f24.Emscripten.clang"
  },
  "schemaVersion": "3.0.2",
  "updatedAt": "2019-03-20T14:22:35.214Z",
  "devdoc": {
    "methods": {}
  },
  "userdoc": {
    "methods": {}
  }
}