{
  "contractName": "OrbsGuardians",
  "abi": [
    {
      "constant": true,
      "inputs": [],
      "name": "REGISTRATION_DEPOSIT",
      "outputs": [
        {
          "name": "",
          "type": "uint256"
        }
      ],
      "payable": false,
      "stateMutability": "view",
      "type": "function"
    },
    {
      "constant": true,
      "inputs": [
        {
          "name": "",
          "type": "address"
        }
      ],
      "name": "guardiansData",
      "outputs": [
        {
          "name": "name",
          "type": "string"
        },
        {
          "name": "website",
          "type": "string"
        },
        {
          "name": "index",
          "type": "uint256"
        }
      ],
      "payable": false,
      "stateMutability": "view",
      "type": "function"
    },
    {
      "constant": true,
      "inputs": [
        {
          "name": "",
          "type": "uint256"
        }
      ],
      "name": "guardians",
      "outputs": [
        {
          "name": "",
          "type": "address"
        }
      ],
      "payable": false,
      "stateMutability": "view",
      "type": "function"
    },
    {
      "constant": true,
      "inputs": [],
      "name": "VERSION",
      "outputs": [
        {
          "name": "",
          "type": "uint256"
        }
      ],
      "payable": false,
      "stateMutability": "view",
      "type": "function"
    },
    {
      "anonymous": false,
      "inputs": [
        {
          "indexed": true,
          "name": "validator",
          "type": "address"
        }
      ],
      "name": "GuardianAdded",
      "type": "event"
    },
    {
      "anonymous": false,
      "inputs": [
        {
          "indexed": true,
          "name": "validator",
          "type": "address"
        }
      ],
      "name": "GuardianLeft",
      "type": "event"
    },
    {
      "anonymous": false,
      "inputs": [
        {
          "indexed": true,
          "name": "validator",
          "type": "address"
        }
      ],
      "name": "GuardianModified",
      "type": "event"
    },
    {
      "constant": false,
      "inputs": [
        {
          "name": "name",
          "type": "string"
        },
        {
          "name": "website",
          "type": "string"
        }
      ],
      "name": "register",
      "outputs": [],
      "payable": true,
      "stateMutability": "payable",
      "type": "function"
    },
    {
      "constant": false,
      "inputs": [],
      "name": "leave",
      "outputs": [],
      "payable": false,
      "stateMutability": "nonpayable",
      "type": "function"
    },
    {
      "constant": true,
      "inputs": [
        {
          "name": "guardian",
          "type": "address"
        }
      ],
      "name": "isGuardian",
      "outputs": [
        {
          "name": "",
          "type": "bool"
        }
      ],
      "payable": false,
      "stateMutability": "view",
      "type": "function"
    },
    {
      "constant": true,
      "inputs": [
        {
          "name": "offset",
          "type": "uint256"
        },
        {
          "name": "limit",
          "type": "uint256"
        }
      ],
      "name": "getGuardians",
      "outputs": [
        {
          "name": "",
          "type": "address[]"
        }
      ],
      "payable": false,
      "stateMutability": "view",
      "type": "function"
    },
    {
      "constant": true,
      "inputs": [
        {
          "name": "guardian",
          "type": "address"
        }
      ],
      "name": "getGuardianData",
      "outputs": [
        {
          "name": "name",
          "type": "string"
        },
        {
          "name": "website",
          "type": "string"
        }
      ],
      "payable": false,
      "stateMutability": "view",
      "type": "function"
    }
  ],
  "bytecode": "0x608060405234801561001057600080fd5b5061163e806100206000396000f3fe6080604052600436106100a3576000357c010000000000000000000000000000000000000000000000000000000090048063d46bdcad11610076578063d46bdcad146103c4578063d66d9e1914610501578063d93d7d2914610518578063f560c734146105b2578063ffa1ad741461062d576100a3565b80630c68ba21146100a85780633ffbd47f1461011157806344e9f190146102635780634b139a471461028e575b600080fd5b3480156100b457600080fd5b506100f7600480360360208110156100cb57600080fd5b81019080803573ffffffffffffffffffffffffffffffffffffffff169060200190929190505050610658565b604051808215151515815260200191505060405180910390f35b6102616004803603604081101561012757600080fd5b810190808035906020019064010000000081111561014457600080fd5b82018360208201111561015657600080fd5b8035906020019184600183028401116401000000008311171561017857600080fd5b91908080601f016020809104026020016040519081016040528093929190818152602001838380828437600081840152601f19601f820116905080830192505050505050509192919290803590602001906401000000008111156101db57600080fd5b8201836020820111156101ed57600080fd5b8035906020019184600183028401116401000000008311171561020f57600080fd5b91908080601f016020809104026020016040519081016040528093929190818152602001838380828437600081840152601f19601f8201169050808301925050505050505091929192905050506106ba565b005b34801561026f57600080fd5b50610278610aec565b6040518082815260200191505060405180910390f35b34801561029a57600080fd5b506102dd600480360360208110156102b157600080fd5b81019080803573ffffffffffffffffffffffffffffffffffffffff169060200190929190505050610af8565b604051808060200180602001838103835285818151815260200191508051906020019080838360005b83811015610321578082015181840152602081019050610306565b50505050905090810190601f16801561034e5780820380516001836020036101000a031916815260200191505b50838103825284818151815260200191508051906020019080838360005b8381101561038757808201518184015260208101905061036c565b50505050905090810190601f1680156103b45780820380516001836020036101000a031916815260200191505b5094505050505060405180910390f35b3480156103d057600080fd5b50610413600480360360208110156103e757600080fd5b81019080803573ffffffffffffffffffffffffffffffffffffffff169060200190929190505050610d3d565b604051808060200180602001848152602001838103835286818151815260200191508051906020019080838360005b8381101561045d578082015181840152602081019050610442565b50505050905090810190601f16801561048a5780820380516001836020036101000a031916815260200191505b50838103825285818151815260200191508051906020019080838360005b838110156104c35780820151818401526020810190506104a8565b50505050905090810190601f1680156104f05780820380516001836020036101000a031916815260200191505b509550505050505060405180910390f35b34801561050d57600080fd5b50610516610e97565b005b34801561052457600080fd5b5061055b6004803603604081101561053b57600080fd5b8101908080359060200190929190803590602001909291905050506111f8565b6040518080602001828103825283818151815260200191508051906020019060200280838360005b8381101561059e578082015181840152602081019050610583565b505050509050019250505060405180910390f35b3480156105be57600080fd5b506105eb600480360360208110156105d557600080fd5b81019080803590602001909291905050506113eb565b604051808273ffffffffffffffffffffffffffffffffffffffff1673ffffffffffffffffffffffffffffffffffffffff16815260200191505060405180910390f35b34801561063957600080fd5b50610642611429565b6040518082815260200191505060405180910390f35b600080600160008473ffffffffffffffffffffffffffffffffffffffff1673ffffffffffffffffffffffffffffffffffffffff168152602001908152602001600020600001805460018160011615610100020316600290049050119050919050565b3373ffffffffffffffffffffffffffffffffffffffff163273ffffffffffffffffffffffffffffffffffffffff16141515610740576040517f08c379a000000000000000000000000000000000000000000000000000000000815260040180806020018281038252602181526020018061158b6021913960400191505060405180910390fd5b600082511115156107b9576040517f08c379a000000000000000000000000000000000000000000000000000000000815260040180806020018281038252601b8152602001807f506c656173652070726f7669646520612076616c6964206e616d65000000000081525060200191505060405180910390fd5b60008151111515610832576040517f08c379a000000000000000000000000000000000000000000000000000000000815260040180806020018281038252601e8152602001807f506c656173652070726f7669646520612076616c69642077656273697465000081525060200191505060405180910390fd5b600061083d33610658565b1590506000811561096057670de0b6b3a7640000341415156108aa576040517f08c379a000000000000000000000000000000000000000000000000000000000815260040180806020018281038252602b8152602001806115ac602b913960400191505060405180910390fd5b600080549050905060003390806001815401808255809150509060018203906000526020600020016000909192909190916101000a81548173ffffffffffffffffffffffffffffffffffffffff021916908373ffffffffffffffffffffffffffffffffffffffff160217905550503373ffffffffffffffffffffffffffffffffffffffff167f038596bb31e2e7d3d9f184d4c98b310103f6d7f5830e5eec32bffe6f1728f96960405160405180910390a2610a44565b6000341415156109bb576040517f08c379a000000000000000000000000000000000000000000000000000000000815260040180806020018281038252603c8152602001806115d7603c913960400191505060405180910390fd5b600160003373ffffffffffffffffffffffffffffffffffffffff1673ffffffffffffffffffffffffffffffffffffffff1681526020019081526020016000206002015490503373ffffffffffffffffffffffffffffffffffffffff167f3f895d1a1eaa616d02b3e05c89e0e6aa0aa8d158dac2729420487f26bd9883fb60405160405180910390a25b60606040519081016040528085815260200184815260200182815250600160003373ffffffffffffffffffffffffffffffffffffffff1673ffffffffffffffffffffffffffffffffffffffff1681526020019081526020016000206000820151816000019080519060200190610abb929190611471565b506020820151816001019080519060200190610ad8929190611471565b506040820151816002015590505050505050565b670de0b6b3a764000081565b606080610b0483610658565b1515610b78576040517f08c379a00000000000000000000000000000000000000000000000000000000081526004018080602001828103825260208152602001807f506c656173652070726f766964652061206c697374656420477561726469616e81525060200191505060405180910390fd5b600160008473ffffffffffffffffffffffffffffffffffffffff1673ffffffffffffffffffffffffffffffffffffffff168152602001908152602001600020600001600160008573ffffffffffffffffffffffffffffffffffffffff1673ffffffffffffffffffffffffffffffffffffffff168152602001908152602001600020600101818054600181600116156101000203166002900480601f016020809104026020016040519081016040528092919081815260200182805460018160011615610100020316600290048015610c915780601f10610c6657610100808354040283529160200191610c91565b820191906000526020600020905b815481529060010190602001808311610c7457829003601f168201915b50505050509150808054600181600116156101000203166002900480601f016020809104026020016040519081016040528092919081815260200182805460018160011615610100020316600290048015610d2d5780601f10610d0257610100808354040283529160200191610d2d565b820191906000526020600020905b815481529060010190602001808311610d1057829003601f168201915b5050505050905091509150915091565b6001602052806000526040600020600091509050806000018054600181600116156101000203166002900480601f016020809104026020016040519081016040528092919081815260200182805460018160011615610100020316600290048015610de95780601f10610dbe57610100808354040283529160200191610de9565b820191906000526020600020905b815481529060010190602001808311610dcc57829003601f168201915b505050505090806001018054600181600116156101000203166002900480601f016020809104026020016040519081016040528092919081815260200182805460018160011615610100020316600290048015610e875780601f10610e5c57610100808354040283529160200191610e87565b820191906000526020600020905b815481529060010190602001808311610e6a57829003601f168201915b5050505050908060020154905083565b610ea033610658565b1515610f14576040517f08c379a00000000000000000000000000000000000000000000000000000000081526004018080602001828103825260188152602001807f53656e646572206973206e6f74206120477561726469616e000000000000000081525060200191505060405180910390fd5b6000600160003373ffffffffffffffffffffffffffffffffffffffff1673ffffffffffffffffffffffffffffffffffffffff1681526020019081526020016000206002015490503373ffffffffffffffffffffffffffffffffffffffff16600082815481101515610f8157fe5b9060005260206000200160009054906101000a900473ffffffffffffffffffffffffffffffffffffffff1673ffffffffffffffffffffffffffffffffffffffff16141515610fcb57fe5b6000600160008054905003815481101515610fe257fe5b9060005260206000200160009054906101000a900473ffffffffffffffffffffffffffffffffffffffff1660008281548110151561101c57fe5b9060005260206000200160006101000a81548173ffffffffffffffffffffffffffffffffffffffff021916908373ffffffffffffffffffffffffffffffffffffffff1602179055508060016000808481548110151561107757fe5b9060005260206000200160009054906101000a900473ffffffffffffffffffffffffffffffffffffffff1673ffffffffffffffffffffffffffffffffffffffff1673ffffffffffffffffffffffffffffffffffffffff16815260200190815260200160002060020181905550600160003373ffffffffffffffffffffffffffffffffffffffff1673ffffffffffffffffffffffffffffffffffffffff1681526020019081526020016000206000808201600061113391906114f1565b60018201600061114391906114f1565b6002820160009055505060008054809190600190036111629190611539565b503373ffffffffffffffffffffffffffffffffffffffff166108fc670de0b6b3a76400009081150290604051600060405180830381858888f193505050501580156111b1573d6000803e3d6000fd5b503373ffffffffffffffffffffffffffffffffffffffff167f30e7885e5f0fc1d648230d0e9245d45333c7158885df954f0a2f0fb442be0f6560405160405180910390a250565b6060600080549050831015156112405760006040519080825280602002602001820160405280156112385781602001602082028038833980820191505090505b5090506113e5565b606482111515156112b9576040517f08c379a000000000000000000000000000000000000000000000000000000000815260040180806020018281038252601c8152602001807f506167652073697a65206d6179206e6f7420657863656564203130300000000081525060200191505060405180910390fd5b6000805490506112d2838561142e90919063ffffffff16565b11156112f3576112f08360008054905061144f90919063ffffffff16565b91505b6060826040519080825280602002602001820160405280156113245781602001602082028038833980820191505090505b50905060008151905060008090505b818110156113de576000611350828861142e90919063ffffffff16565b81548110151561135c57fe5b9060005260206000200160009054906101000a900473ffffffffffffffffffffffffffffffffffffffff16838281518110151561139557fe5b9060200190602002019073ffffffffffffffffffffffffffffffffffffffff16908173ffffffffffffffffffffffffffffffffffffffff16815250508080600101915050611333565b5081925050505b92915050565b6000818154811015156113fa57fe5b906000526020600020016000915054906101000a900473ffffffffffffffffffffffffffffffffffffffff1681565b600181565b600080828401905083811015151561144557600080fd5b8091505092915050565b600082821115151561146057600080fd5b600082840390508091505092915050565b828054600181600116156101000203166002900490600052602060002090601f016020900481019282601f106114b257805160ff19168380011785556114e0565b828001600101855582156114e0579182015b828111156114df5782518255916020019190600101906114c4565b5b5090506114ed9190611565565b5090565b50805460018160011615610100020316600290046000825580601f106115175750611536565b601f0160209004906000526020600020908101906115359190611565565b5b50565b8154818355818111156115605781836000526020600020918201910161155f9190611565565b5b505050565b61158791905b8082111561158357600081600090555060010161156b565b5090565b9056fe4f6e6c7920454f41206d617920726567697374657220617320477561726469616e506c656173652070726f76696465203120457468657220726567697374726174696f6e206465706f736974477561726469616e20697320616c726561647920726567697374657265642c206e6f206e65656420666f722061207365636f6e64206465706f736974a165627a7a7230582072a76956a3bcfac3bf95347f783c3b279b3d0f2900d7411fd21048f49f60e40b0029",
  "source": "pragma solidity 0.5.3;\n\nimport \"openzeppelin-solidity/contracts/math/SafeMath.sol\";\nimport \"./IOrbsGuardians.sol\";\n\ncontract OrbsGuardians is IOrbsGuardians {\n    using SafeMath for uint256;\n\n    struct GuardianData {\n        string name;\n        string website;\n        uint index;\n    }\n\n    // The version of the current federation smart contract.\n    uint public constant VERSION = 1;\n\n    uint public constant REGISTRATION_DEPOSIT = 1 ether;\n\n    event GuardianAdded(address indexed validator);\n    event GuardianLeft(address indexed validator);\n    event GuardianModified(address indexed validator);\n\n    address[] public guardians;\n    mapping(address => GuardianData) public guardiansData;\n\n    function register(string memory name, string memory website)\n        public\n        payable\n    {\n        require(tx.origin == msg.sender, \"Only EOA may register as Guardian\");\n        require(bytes(name).length > 0, \"Please provide a valid name\");\n        require(bytes(website).length > 0, \"Please provide a valid website\");\n\n        bool adding = !isGuardian(msg.sender);\n        uint index;\n        if (adding) {\n            require(msg.value == REGISTRATION_DEPOSIT, \"Please provide 1 Ether registration deposit\");\n            index = guardians.length;\n            guardians.push(msg.sender);\n            emit GuardianAdded(msg.sender);\n        } else {\n            require(msg.value == 0, \"Guardian is already registered, no need for a second deposit\");\n            index = guardiansData[msg.sender].index;\n            emit GuardianModified(msg.sender);\n        }\n\n        guardiansData[msg.sender] = GuardianData(name, website, index);\n    }\n\n    function leave() public {\n        require(isGuardian(msg.sender), \"Sender is not a Guardian\");\n\n        uint i = guardiansData[msg.sender].index;\n\n        assert(guardians[i] == msg.sender);\n\n        guardians[i] = guardians[guardians.length - 1]; // switch with last\n        guardiansData[guardians[i]].index = i; // update it's lookup index\n\n        delete guardiansData[msg.sender];\n        guardians.length--;\n\n        msg.sender.transfer(REGISTRATION_DEPOSIT);\n\n        emit GuardianLeft(msg.sender);\n    }\n\n    function isGuardian(address guardian) public view returns (bool) {\n        return bytes(guardiansData[guardian].name).length > 0;\n    }\n\n    function getGuardians(uint offset, uint limit)\n        public\n        view returns (address[] memory)\n    {\n        if (offset >= guardians.length) { // offset out of bounds\n            return new address[](0);\n        }\n\n        require(limit <= 100, \"Page size may not exceed 100\");\n\n        if (offset.add(limit) > guardians.length) { // clip limit to array size\n            limit = guardians.length.sub(offset);\n        }\n\n        address[] memory result = new address[](limit);\n\n        uint resultLength = result.length;\n        for (uint i = 0; i < resultLength; i++) {\n            result[i] = guardians[offset.add(i)];\n        }\n\n        return result;\n    }\n\n    function getGuardianData(address guardian)\n        public\n        view\n        returns (string memory name, string memory website)\n    {\n        require(isGuardian(guardian), \"Please provide a listed Guardian\");\n        return (guardiansData[guardian].name, guardiansData[guardian].website);\n    }\n}\n",
  "sourcePath": "/Users/ron/work/src/github.com/orbs-network/orbs-ethereum-contracts/voting/ethereum/contracts/OrbsGuardians.sol",
  "compiler": {
    "name": "solc",
    "version": "0.5.3+commit.10d17f24.Emscripten.clang"
  },
  "schemaVersion": "3.0.2",
  "updatedAt": "2019-03-10T23:32:34.208Z",
  "devdoc": {
    "methods": {}
  },
  "userdoc": {
    "methods": {}
  }
}