{
  "contractName": "OrbsValidators",
  "abi": [
    {
      "constant": true,
      "inputs": [],
      "name": "MAX_VALIDATOR_LIMIT",
      "outputs": [
        {
          "name": "",
          "type": "uint256"
        }
      ],
      "payable": false,
      "stateMutability": "view",
      "type": "function"
    },
    {
      "constant": true,
      "inputs": [],
      "name": "validatorLimit",
      "outputs": [
        {
          "name": "",
          "type": "uint256"
        }
      ],
      "payable": false,
      "stateMutability": "view",
      "type": "function"
    },
    {
      "constant": true,
      "inputs": [
        {
          "name": "",
          "type": "uint256"
        }
      ],
      "name": "approvedValidators",
      "outputs": [
        {
          "name": "",
          "type": "address"
        }
      ],
      "payable": false,
      "stateMutability": "view",
      "type": "function"
    },
    {
      "constant": false,
      "inputs": [],
      "name": "renounceOwnership",
      "outputs": [],
      "payable": false,
      "stateMutability": "nonpayable",
      "type": "function"
    },
    {
      "constant": true,
      "inputs": [],
      "name": "registry",
      "outputs": [
        {
          "name": "",
          "type": "address"
        }
      ],
      "payable": false,
      "stateMutability": "view",
      "type": "function"
    },
    {
      "constant": true,
      "inputs": [],
      "name": "owner",
      "outputs": [
        {
          "name": "",
          "type": "address"
        }
      ],
      "payable": false,
      "stateMutability": "view",
      "type": "function"
    },
    {
      "constant": true,
      "inputs": [],
      "name": "isOwner",
      "outputs": [
        {
          "name": "",
          "type": "bool"
        }
      ],
      "payable": false,
      "stateMutability": "view",
      "type": "function"
    },
    {
      "constant": false,
      "inputs": [
        {
          "name": "newOwner",
          "type": "address"
        }
      ],
      "name": "transferOwnership",
      "outputs": [],
      "payable": false,
      "stateMutability": "nonpayable",
      "type": "function"
    },
    {
      "constant": true,
      "inputs": [],
      "name": "VERSION",
      "outputs": [
        {
          "name": "",
          "type": "uint256"
        }
      ],
      "payable": false,
      "stateMutability": "view",
      "type": "function"
    },
    {
      "inputs": [
        {
          "name": "_registryAddress",
          "type": "address"
        },
        {
          "name": "_validatorLimit",
          "type": "uint256"
        }
      ],
      "payable": false,
      "stateMutability": "nonpayable",
      "type": "constructor"
    },
    {
      "anonymous": false,
      "inputs": [
        {
          "indexed": true,
          "name": "validator",
          "type": "address"
        }
      ],
      "name": "ValidatorAdded",
      "type": "event"
    },
    {
      "anonymous": false,
      "inputs": [
        {
          "indexed": true,
          "name": "validator",
          "type": "address"
        }
      ],
      "name": "ValidatorRemoved",
      "type": "event"
    },
    {
      "anonymous": false,
      "inputs": [
        {
          "indexed": true,
          "name": "previousOwner",
          "type": "address"
        },
        {
          "indexed": true,
          "name": "newOwner",
          "type": "address"
        }
      ],
      "name": "OwnershipTransferred",
      "type": "event"
    },
    {
      "constant": false,
      "inputs": [
        {
          "name": "_validator",
          "type": "address"
        }
      ],
      "name": "addValidator",
      "outputs": [],
      "payable": false,
      "stateMutability": "nonpayable",
      "type": "function"
    },
    {
      "constant": false,
      "inputs": [
        {
          "name": "_validator",
          "type": "address"
        }
      ],
      "name": "remove",
      "outputs": [],
      "payable": false,
      "stateMutability": "nonpayable",
      "type": "function"
    },
    {
      "constant": true,
      "inputs": [
        {
          "name": "m",
          "type": "address"
        }
      ],
      "name": "isValidator",
      "outputs": [
        {
          "name": "",
          "type": "bool"
        }
      ],
      "payable": false,
      "stateMutability": "view",
      "type": "function"
    },
    {
      "constant": true,
      "inputs": [],
      "name": "getValidators",
      "outputs": [
        {
          "name": "validators",
          "type": "bytes20[]"
        }
      ],
      "payable": false,
      "stateMutability": "view",
      "type": "function"
    },
    {
      "constant": true,
      "inputs": [],
      "name": "getNetworkTopology",
      "outputs": [
        {
          "name": "nodeAddresses",
          "type": "address[]"
        },
        {
          "name": "ipAddresses",
          "type": "bytes4[]"
        }
      ],
      "payable": false,
      "stateMutability": "view",
      "type": "function"
    }
  ],
  "bytecode": "0x608060405234801561001057600080fd5b506040516040806119a38339810180604052604081101561003057600080fd5b810190808051906020019092919080519060200190929190505050336000806101000a81548173ffffffffffffffffffffffffffffffffffffffff021916908373ffffffffffffffffffffffffffffffffffffffff1602179055506000809054906101000a900473ffffffffffffffffffffffffffffffffffffffff1673ffffffffffffffffffffffffffffffffffffffff16600073ffffffffffffffffffffffffffffffffffffffff167f8be0079c531659141344cd1fd0a4f28419497f9722a3daafe3b4186f6b6457e060405160405180910390a3600073ffffffffffffffffffffffffffffffffffffffff168273ffffffffffffffffffffffffffffffffffffffff16141515156101ac576040517f08c379a000000000000000000000000000000000000000000000000000000000815260040180806020018281038252601b8152602001807f526567697374727920636f6e747261637420616464726573732030000000000081525060200191505060405180910390fd5b600081111515610224576040517f08c379a00000000000000000000000000000000000000000000000000000000081526004018080602001828103825260168152602001807f4c696d6974206d75737420626520706f7369746976650000000000000000000081525060200191505060405180910390fd5b6064811115151561029d576040517f08c379a00000000000000000000000000000000000000000000000000000000081526004018080602001828103825260118152602001807f4c696d697420697320746f6f206869676800000000000000000000000000000081525060200191505060405180910390fd5b8060018190555081600260006101000a81548173ffffffffffffffffffffffffffffffffffffffff021916908373ffffffffffffffffffffffffffffffffffffffff16021790555050506116ad806102f66000396000f3fe608060405234801561001057600080fd5b5060043610610107576000357c0100000000000000000000000000000000000000000000000000000000900480637b103999116100a9578063b7ab4db511610083578063b7ab4db5146103a5578063f2fde38b14610404578063facd743b14610448578063ffa1ad74146104a457610107565b80637b103999146102ef5780638da5cb5b146103395780638f32d59b1461038357610107565b80634d238c8e116100e55780634d238c8e1461021557806357525cbc1461025957806362f25ab314610277578063715018a6146102e557610107565b8063111c7c751461010c578063204296731461012a57806329092d0e146101d1575b600080fd5b6101146104c2565b6040518082815260200191505060405180910390f35b6101326104c7565b604051808060200180602001838103835285818151815260200191508051906020019060200280838360005b8381101561017957808201518184015260208101905061015e565b50505050905001838103825284818151815260200191508051906020019060200280838360005b838110156101bb5780820151818401526020810190506101a0565b5050505090500194505050505060405180910390f35b610213600480360360208110156101e757600080fd5b81019080803573ffffffffffffffffffffffffffffffffffffffff169060200190929190505050610844565b005b6102576004803603602081101561022b57600080fd5b81019080803573ffffffffffffffffffffffffffffffffffffffff169060200190929190505050610a89565b005b610261610ce4565b6040518082815260200191505060405180910390f35b6102a36004803603602081101561028d57600080fd5b8101908080359060200190929190505050610cea565b604051808273ffffffffffffffffffffffffffffffffffffffff1673ffffffffffffffffffffffffffffffffffffffff16815260200191505060405180910390f35b6102ed610d28565b005b6102f7610dfa565b604051808273ffffffffffffffffffffffffffffffffffffffff1673ffffffffffffffffffffffffffffffffffffffff16815260200191505060405180910390f35b610341610e20565b604051808273ffffffffffffffffffffffffffffffffffffffff1673ffffffffffffffffffffffffffffffffffffffff16815260200191505060405180910390f35b61038b610e49565b604051808215151515815260200191505060405180910390f35b6103ad610ea0565b6040518080602001828103825283818151815260200191508051906020019060200280838360005b838110156103f05780820151818401526020810190506103d5565b505050509050019250505060405180910390f35b6104466004803603602081101561041a57600080fd5b81019080803573ffffffffffffffffffffffffffffffffffffffff1690602001909291905050506110d3565b005b61048a6004803603602081101561045e57600080fd5b81019080803573ffffffffffffffffffffffffffffffffffffffff1690602001909291905050506110f2565b604051808215151515815260200191505060405180910390f35b6104ac611202565b6040518082815260200191505060405180910390f35b606481565b60608060606104d4610ea0565b90506000815190508060405190808252806020026020018201604052801561050b5781602001602082028038833980820191505090505b5093508060405190808252806020026020018201604052801561053d5781602001602082028038833980820191505090505b50925060008090505b8181101561083d5760606000600260009054906101000a900473ffffffffffffffffffffffffffffffffffffffff1673ffffffffffffffffffffffffffffffffffffffff16632536f8b5868581518110151561059e57fe5b906020019060200201516c0100000000000000000000000090046040518263ffffffff167c0100000000000000000000000000000000000000000000000000000000028152600401808273ffffffffffffffffffffffffffffffffffffffff1673ffffffffffffffffffffffffffffffffffffffff16815260200191505060006040518083038186803b15801561063457600080fd5b505afa158015610648573d6000803e3d6000fd5b505050506040513d6000823e3d601f19601f82011682018060405250608081101561067257600080fd5b81019080805164010000000081111561068a57600080fd5b828101905060208101848111156106a057600080fd5b81518560018202830111640100000000821117156106bd57600080fd5b505092919060200180516401000000008111156106d957600080fd5b828101905060208101848111156106ef57600080fd5b815185600182028301116401000000008211171561070c57600080fd5b5050929190602001805164010000000081111561072857600080fd5b8281019050602081018481111561073e57600080fd5b815185600182028301116401000000008211171561075b57600080fd5b505092919060200180519060200190929190505050909192509050809250819350505080878481518110151561078d57fe5b9060200190602002019073ffffffffffffffffffffffffffffffffffffffff16908173ffffffffffffffffffffffffffffffffffffffff16815250506107d282611207565b86848151811015156107e057fe5b906020019060200201907bffffffffffffffffffffffffffffffffffffffffffffffffffffffff191690817bffffffffffffffffffffffffffffffffffffffffffffffffffffffff19168152505050508080600101915050610546565b5050509091565b61084c610e49565b151561085757600080fd5b6000600380549050905060008090505b81811015610a17578273ffffffffffffffffffffffffffffffffffffffff1660038281548110151561089557fe5b9060005260206000200160009054906101000a900473ffffffffffffffffffffffffffffffffffffffff1673ffffffffffffffffffffffffffffffffffffffff161415610a0c576003600183038154811015156108ee57fe5b9060005260206000200160009054906101000a900473ffffffffffffffffffffffffffffffffffffffff1660038281548110151561092857fe5b9060005260206000200160006101000a81548173ffffffffffffffffffffffffffffffffffffffff021916908373ffffffffffffffffffffffffffffffffffffffff16021790555060038181548110151561097f57fe5b9060005260206000200160006101000a81549073ffffffffffffffffffffffffffffffffffffffff021916905560038054809190600190036109c1919061160c565b508273ffffffffffffffffffffffffffffffffffffffff167fe1434e25d6611e0db941968fdc97811c982ac1602e951637d206f5fdda9dd8f160405160405180910390a25050610a86565b806001019050610867565b506040517f08c379a00000000000000000000000000000000000000000000000000000000081526004018080602001828103825260198152602001807f556e6b6e6f776e2056616c696461746f7220416464726573730000000000000081525060200191505060405180910390fd5b50565b610a91610e49565b1515610a9c57600080fd5b600073ffffffffffffffffffffffffffffffffffffffff168173ffffffffffffffffffffffffffffffffffffffff1614151515610b41576040517f08c379a00000000000000000000000000000000000000000000000000000000081526004018080602001828103825260168152602001807f41646472657373206d757374206e6f742062652030210000000000000000000081525060200191505060405180910390fd5b600180540360038054905011158015610b635750600160640360038054905011155b1515610bd7576040517f08c379a00000000000000000000000000000000000000000000000000000000081526004018080602001828103825260178152602001807f43616e277420616464206d6f7265206d656d626572732100000000000000000081525060200191505060405180910390fd5b610be0816112f6565b151515610c38576040517f08c379a000000000000000000000000000000000000000000000000000000000815260040180806020018281038252602481526020018061165e6024913960400191505060405180910390fd5b60038190806001815401808255809150509060018203906000526020600020016000909192909190916101000a81548173ffffffffffffffffffffffffffffffffffffffff021916908373ffffffffffffffffffffffffffffffffffffffff160217905550508073ffffffffffffffffffffffffffffffffffffffff167fe366c1c0452ed8eec96861e9e54141ebff23c9ec89fe27b996b45f5ec388498760405160405180910390a250565b60015481565b600381815481101515610cf957fe5b906000526020600020016000915054906101000a900473ffffffffffffffffffffffffffffffffffffffff1681565b610d30610e49565b1515610d3b57600080fd5b600073ffffffffffffffffffffffffffffffffffffffff166000809054906101000a900473ffffffffffffffffffffffffffffffffffffffff1673ffffffffffffffffffffffffffffffffffffffff167f8be0079c531659141344cd1fd0a4f28419497f9722a3daafe3b4186f6b6457e060405160405180910390a360008060006101000a81548173ffffffffffffffffffffffffffffffffffffffff021916908373ffffffffffffffffffffffffffffffffffffffff160217905550565b600260009054906101000a900473ffffffffffffffffffffffffffffffffffffffff1681565b60008060009054906101000a900473ffffffffffffffffffffffffffffffffffffffff16905090565b60008060009054906101000a900473ffffffffffffffffffffffffffffffffffffffff1673ffffffffffffffffffffffffffffffffffffffff163373ffffffffffffffffffffffffffffffffffffffff1614905090565b60606000610eac6113a0565b905080604051908082528060200260200182016040528015610edd5781602001602082028038833980820191505090505b50915060008090506000600380549050905060008090505b818110156110cc57600260009054906101000a900473ffffffffffffffffffffffffffffffffffffffff1673ffffffffffffffffffffffffffffffffffffffff1663facd743b600383815481101515610f4a57fe5b9060005260206000200160009054906101000a900473ffffffffffffffffffffffffffffffffffffffff166040518263ffffffff167c0100000000000000000000000000000000000000000000000000000000028152600401808273ffffffffffffffffffffffffffffffffffffffff1673ffffffffffffffffffffffffffffffffffffffff16815260200191505060206040518083038186803b158015610ff157600080fd5b505afa158015611005573d6000803e3d6000fd5b505050506040513d602081101561101b57600080fd5b8101908080519060200190929190505050156110bf5760038181548110151561104057fe5b9060005260206000200160009054906101000a900473ffffffffffffffffffffffffffffffffffffffff166c0100000000000000000000000002858481518110151561108857fe5b906020019060200201906bffffffffffffffffffffffff191690816bffffffffffffffffffffffff19168152505082806001019350505b8080600101915050610ef5565b5050505090565b6110db610e49565b15156110e657600080fd5b6110ef81611512565b50565b60006110fd826112f6565b80156111fb5750600260009054906101000a900473ffffffffffffffffffffffffffffffffffffffff1673ffffffffffffffffffffffffffffffffffffffff1663facd743b836040518263ffffffff167c0100000000000000000000000000000000000000000000000000000000028152600401808273ffffffffffffffffffffffffffffffffffffffff1673ffffffffffffffffffffffffffffffffffffffff16815260200191505060206040518083038186803b1580156111bf57600080fd5b505afa1580156111d3573d6000803e3d6000fd5b505050506040513d60208110156111e957600080fd5b81019080805190602001909291905050505b9050919050565b600181565b600080600483511061121a57600461121d565b82515b905060008090505b818110156112ef576000848281518110151561123d57fe5b9060200101517f010000000000000000000000000000000000000000000000000000000000000090047f0100000000000000000000000000000000000000000000000000000000000000027effffffffffffffffffffffffffffffffffffffffffffffffffffffffffffff1916905081600802817bffffffffffffffffffffffffffffffffffffffffffffffffffffffff1916908060020a820491505090508084179350508080600101915050611225565b5050919050565b600080600380549050905060008090505b81811015611394578373ffffffffffffffffffffffffffffffffffffffff1660038281548110151561133557fe5b9060005260206000200160009054906101000a900473ffffffffffffffffffffffffffffffffffffffff1673ffffffffffffffffffffffffffffffffffffffff1614156113875760019250505061139b565b8080600101915050611307565b5060009150505b919050565b600080600090506000600380549050905060008090505b8181101561150957600260009054906101000a900473ffffffffffffffffffffffffffffffffffffffff1673ffffffffffffffffffffffffffffffffffffffff1663facd743b60038381548110151561140c57fe5b9060005260206000200160009054906101000a900473ffffffffffffffffffffffffffffffffffffffff166040518263ffffffff167c0100000000000000000000000000000000000000000000000000000000028152600401808273ffffffffffffffffffffffffffffffffffffffff1673ffffffffffffffffffffffffffffffffffffffff16815260200191505060206040518083038186803b1580156114b357600080fd5b505afa1580156114c7573d6000803e3d6000fd5b505050506040513d60208110156114dd57600080fd5b8101908080519060200190929190505050156114fc5782806001019350505b80806001019150506113b7565b50819250505090565b600073ffffffffffffffffffffffffffffffffffffffff168173ffffffffffffffffffffffffffffffffffffffff161415151561154e57600080fd5b8073ffffffffffffffffffffffffffffffffffffffff166000809054906101000a900473ffffffffffffffffffffffffffffffffffffffff1673ffffffffffffffffffffffffffffffffffffffff167f8be0079c531659141344cd1fd0a4f28419497f9722a3daafe3b4186f6b6457e060405160405180910390a3806000806101000a81548173ffffffffffffffffffffffffffffffffffffffff021916908373ffffffffffffffffffffffffffffffffffffffff16021790555050565b815481835581811115611633578183600052602060002091820191016116329190611638565b5b505050565b61165a91905b8082111561165657600081600090555060010161163e565b5090565b9056fe41646472657373206d757374206e6f7420626520616c72656164792061206d656d626572a165627a7a72305820c89873d9478e2f2900ef54743af16e098f52198b68560d5fe1ed8dde6bff704f0029",
  "source": "pragma solidity 0.5.3;\n\n\nimport \"openzeppelin-solidity/contracts/ownership/Ownable.sol\";\nimport \"./IOrbsNetworkTopology.sol\";\nimport \"./IOrbsValidators.sol\";\nimport \"./OrbsValidatorsRegistry.sol\";\n\n\ncontract OrbsValidators is Ownable, IOrbsValidators, IOrbsNetworkTopology {\n\n    // The version of the current federation smart contract.\n    uint public constant VERSION = 1;\n\n    // Maximum number of the federation members.\n    uint public constant MAX_VALIDATOR_LIMIT = 100;\n    uint public validatorLimit;\n\n    IOrbsValidatorsRegistry public registry;\n\n    address[] public approvedValidators;\n\n    constructor(address _registryAddress, uint _validatorLimit) public {\n        require(_registryAddress != address(0), \"Registry contract address 0\");\n        require(_validatorLimit > 0, \"Limit must be positive\");\n        require(_validatorLimit <= MAX_VALIDATOR_LIMIT, \"Limit is too high\");\n\n        validatorLimit = _validatorLimit;\n        registry = IOrbsValidatorsRegistry(_registryAddress);\n    }\n\n    function addValidator(address _validator) public onlyOwner {\n        require(_validator != address(0), \"Address must not be 0!\");\n        require(\n            approvedValidators.length <= validatorLimit - 1 &&\n            approvedValidators.length <= MAX_VALIDATOR_LIMIT - 1,\n                \"Can't add more members!\"\n        );\n\n        require(!isApproved(_validator), \"Address must not be already a member\");\n\n        approvedValidators.push(_validator);\n        emit ValidatorAdded(_validator);\n    }\n\n    function remove(address _validator) public onlyOwner {\n        uint approvedLength = approvedValidators.length;\n        for (uint i = 0; i < approvedLength; ++i) {\n            if (approvedValidators[i] == _validator) {\n                approvedValidators[i] = approvedValidators[approvedLength - 1];\n                delete approvedValidators[i];\n                approvedValidators.length--;\n\n                emit ValidatorRemoved(_validator);\n                return;\n            }\n        }\n        revert(\"Unknown Validator Address\");\n    }\n\n    function isValidator(address m) public view returns (bool) {\n        return isApproved(m) && registry.isValidator(m);\n    }\n\n    function getValidators() public view returns (bytes20[] memory validators) {\n        uint activeValidatorCount = countRegisteredValidators();\n        validators = new bytes20[](activeValidatorCount);\n\n        uint pushAt = 0;\n        uint approvedLength = approvedValidators.length;\n        for (uint i = 0; i < approvedLength; i++) {\n            if (registry.isValidator(approvedValidators[i])) {\n                validators[pushAt] = bytes20(approvedValidators[i]);\n                pushAt++;\n            }\n        }\n    }\n\n    function getNetworkTopology()\n        public\n        view\n        returns (address[] memory nodeAddresses, bytes4[] memory ipAddresses)\n    {\n        bytes20[] memory validators = getValidators(); // filter unregistered\n        uint validatorsLength = validators.length;\n        nodeAddresses = new address[](validatorsLength);\n        ipAddresses = new bytes4[](validatorsLength);\n\n        for (uint i = 0; i < validatorsLength; i++) {\n            bytes memory ip;\n            address orbsAddr;\n            (,ip,,orbsAddr) = registry.getValidatorData(address(validators[i]));\n            nodeAddresses[i] = orbsAddr;\n            ipAddresses[i] = ipv4Address(ip);\n        }\n    }\n\n    function isApproved(address m) internal view returns (bool) {\n        uint approvedLength = approvedValidators.length;\n        for (uint i = 0; i < approvedLength; i++) {\n            if (approvedValidators[i] == m) {\n                return true;\n            }\n        }\n        return false;\n    }\n\n    function countRegisteredValidators() internal view returns (uint) {\n        uint registeredCount = 0;\n        uint approvedLength = approvedValidators.length;\n        for (uint i = 0; i < approvedLength; i++) {\n            if (registry.isValidator(approvedValidators[i])) {\n                registeredCount++;\n            }\n        }\n        return registeredCount;\n    }\n\n    function ipv4Address(bytes memory inBytes)\n        internal\n        pure\n        returns (bytes4 outBytes4)\n    {\n        uint256 bytesAvailable = inBytes.length < 4 ? inBytes.length : 4;\n        for (uint256 i = 0; i < bytesAvailable; i++) {\n            bytes4 shifter = inBytes[i];\n            shifter = shifter >> 8 * i;\n            outBytes4 = outBytes4 | shifter;\n        }\n    }\n}",
  "sourcePath": "/Users/ron/work/src/github.com/orbs-network/orbs-ethereum-contracts/voting/ethereum/contracts/OrbsValidators.sol",
  "compiler": {
    "name": "solc",
    "version": "0.5.3+commit.10d17f24.Emscripten.clang"
  },
  "schemaVersion": "3.0.1",
  "updatedAt": "2019-03-05T12:41:23.911Z",
  "devdoc": {
    "methods": {
      "isOwner()": {
        "return": "true if `msg.sender` is the owner of the contract."
      },
      "owner()": {
        "return": "the address of the owner."
      },
      "renounceOwnership()": {
        "details": "Allows the current owner to relinquish control of the contract."
      },
      "transferOwnership(address)": {
        "details": "Allows the current owner to transfer control of the contract to a newOwner.",
        "params": {
          "newOwner": "The address to transfer ownership to."
        }
      }
    }
  },
  "userdoc": {
    "methods": {
      "renounceOwnership()": {
        "notice": "Renouncing to ownership will leave the contract without an owner. It will not be possible to call the functions with the `onlyOwner` modifier anymore."
      }
    }
  }
}