{
  "contractName": "OrbsVoting",
  "abi": [
    {
      "constant": true,
      "inputs": [],
      "name": "VERSION",
      "outputs": [
        {
          "name": "",
          "type": "uint256"
        }
      ],
      "payable": false,
      "stateMutability": "view",
      "type": "function",
      "signature": "0xffa1ad74"
    },
    {
      "anonymous": false,
      "inputs": [
        {
          "indexed": true,
          "name": "voter",
          "type": "address"
        },
        {
          "indexed": false,
          "name": "nodes",
          "type": "bytes20[]"
        },
        {
          "indexed": false,
          "name": "voteCounter",
          "type": "uint256"
        }
      ],
      "name": "Vote",
      "type": "event",
      "signature": "0xf2500bbe90f84de04cdbb7062e09970723e9485f0cd8f29d275514c686c7b5c8"
    },
    {
      "anonymous": false,
      "inputs": [
        {
          "indexed": true,
          "name": "delegator",
          "type": "address"
        },
        {
          "indexed": true,
          "name": "to",
          "type": "address"
        },
        {
          "indexed": false,
          "name": "delegationCounter",
          "type": "uint256"
        }
      ],
      "name": "Delegate",
      "type": "event",
      "signature": "0x510b11bb3f3c799b11307c01ab7db0d335683ef5b2da98f7697de744f465eacc"
    },
    {
      "constant": false,
      "inputs": [
        {
          "name": "nodes",
          "type": "address[]"
        }
      ],
      "name": "vote",
      "outputs": [],
      "payable": false,
      "stateMutability": "nonpayable",
      "type": "function",
      "signature": "0xed081329"
    },
    {
      "constant": false,
      "inputs": [
        {
          "name": "to",
          "type": "address"
        }
      ],
      "name": "delegate",
      "outputs": [],
      "payable": false,
      "stateMutability": "nonpayable",
      "type": "function",
      "signature": "0x5c19a95c"
    },
    {
      "constant": true,
      "inputs": [
        {
          "name": "guardian",
          "type": "address"
        }
      ],
      "name": "getLastVote",
      "outputs": [
        {
          "name": "nodes",
          "type": "address[]"
        },
        {
          "name": "blockHeight",
          "type": "uint256"
        }
      ],
      "payable": false,
      "stateMutability": "view",
      "type": "function",
      "signature": "0xaef66981"
    }
  ],
  "bytecode": "0x608060405260008055600060015534801561001957600080fd5b5061086a806100296000396000f3fe608060405234801561001057600080fd5b5060043610610069576000357c0100000000000000000000000000000000000000000000000000000000900480635c19a95c1461006e578063aef66981146100b2578063ed08132914610152578063ffa1ad741461020a575b600080fd5b6100b06004803603602081101561008457600080fd5b81019080803573ffffffffffffffffffffffffffffffffffffffff169060200190929190505050610228565b005b6100f4600480360360208110156100c857600080fd5b81019080803573ffffffffffffffffffffffffffffffffffffffff1690602001909291905050506102a4565b6040518080602001838152602001828103825284818151815260200191508051906020019060200280838360005b8381101561013d578082015181840152602081019050610122565b50505050905001935050505060405180910390f35b6102086004803603602081101561016857600080fd5b810190808035906020019064010000000081111561018557600080fd5b82018360208201111561019757600080fd5b803590602001918460208302840111640100000000831117156101b957600080fd5b919080806020026020016040519081016040528093929190818152602001838360200280828437600081840152601f19601f820116905080830192505050505050509192919290505050610426565b005b61021261076c565b6040518082815260200191505060405180910390f35b6001600081548092919060010191905055508073ffffffffffffffffffffffffffffffffffffffff163373ffffffffffffffffffffffffffffffffffffffff167f510b11bb3f3c799b11307c01ab7db0d335683ef5b2da98f7697de744f465eacc6001546040518082815260200191505060405180910390a350565b6060600080600260008573ffffffffffffffffffffffffffffffffffffffff1673ffffffffffffffffffffffffffffffffffffffff168152602001908152602001600020905060008180549050111515610366576040517f08c379a00000000000000000000000000000000000000000000000000000000081526004018080602001828103825260148152602001807f477561726469616e206e6576657220766f74656400000000000000000000000081525060200191505060405180910390fd5b600081600183805490500381548110151561037d57fe5b90600052602060002090600202019050806000015492508060010180548060200260200160405190810160405280929190818152602001828054801561041857602002820191906000526020600020905b8160009054906101000a900473ffffffffffffffffffffffffffffffffffffffff1673ffffffffffffffffffffffffffffffffffffffff16815260200190600101908083116103ce575b505050505093505050915091565b6000815111151561049f576040517f08c379a000000000000000000000000000000000000000000000000000000000815260040180806020018281038252601b8152602001807f4d7573742070726f76696465206e6f6e20656d707479206c697374000000000081525060200191505060405180910390fd5b6000815190506060816040519080825280602002602001820160405280156104d65781602001602082028038833980820191505090505b50905060008090505b8281101561061357600073ffffffffffffffffffffffffffffffffffffffff16848281518110151561050d57fe5b9060200190602002015173ffffffffffffffffffffffffffffffffffffffff16141515156105a3576040517f08c379a00000000000000000000000000000000000000000000000000000000081526004018080602001828103825260178152602001807f416c6c206e6f646573206d757374206265206e6f6e203000000000000000000081525060200191505060405180910390fd5b83818151811015156105b157fe5b906020019060200201516c010000000000000000000000000282828151811015156105d857fe5b906020019060200201906bffffffffffffffffffffffff191690816bffffffffffffffffffffffff19168152505080806001019150506104df565b506000808154809291906001019190505550600260003373ffffffffffffffffffffffffffffffffffffffff1673ffffffffffffffffffffffffffffffffffffffff168152602001908152602001600020604080519081016040528043815260200185815250908060018154018082558091505090600182039060005260206000209060020201600090919290919091506000820151816000015560208201518160010190805190602001906106ca929190610771565b505050503373ffffffffffffffffffffffffffffffffffffffff167ff2500bbe90f84de04cdbb7062e09970723e9485f0cd8f29d275514c686c7b5c8826000546040518080602001838152602001828103825284818151815260200191508051906020019060200280838360005b83811015610753578082015181840152602081019050610738565b50505050905001935050505060405180910390a2505050565b600181565b8280548282559060005260206000209081019282156107ea579160200282015b828111156107e95782518260006101000a81548173ffffffffffffffffffffffffffffffffffffffff021916908373ffffffffffffffffffffffffffffffffffffffff16021790555091602001919060010190610791565b5b5090506107f791906107fb565b5090565b61083b91905b8082111561083757600081816101000a81549073ffffffffffffffffffffffffffffffffffffffff021916905550600101610801565b5090565b9056fea165627a7a723058201679962fbe79ba6f8efb0fa4925df32c3a534486e7a9fb25103f3fbdf19bd0b70029",
  "source": "pragma solidity 0.5.3;\n\n\nimport \"./IOrbsVoting.sol\";\n\n\ncontract OrbsVoting is IOrbsVoting {\n    struct VotingRecord {\n        uint blockHeight;\n        address[] nodes;\n    }\n\n    uint voteCounter = 0;\n    uint delegationCounter = 0;\n\n    mapping(address => VotingRecord[]) votingRecords;\n\n    // The version of the current federation smart contract.\n    uint public constant VERSION = 1;\n\n    function vote(address[] memory nodes) public {\n        require(nodes.length > 0, \"Must provide non empty list\");\n\n        uint nodesLength = nodes.length;\n        bytes20[] memory addressesAsBytes20 = new bytes20[](nodesLength);\n        for (uint i=0; i < nodesLength; i++) {\n            require(nodes[i] != address(0), \"All nodes must be non 0\");\n            addressesAsBytes20[i] = bytes20(nodes[i]);\n        }\n\n        voteCounter++;\n\n        votingRecords[msg.sender].push(VotingRecord(block.number, nodes));\n\n        emit Vote(msg.sender, addressesAsBytes20, voteCounter);\n    }\n\n    function delegate(address to) public {\n        delegationCounter++;\n        emit Delegate(msg.sender, to, delegationCounter);\n    }\n\n    function getLastVote(address guardian)\n        public\n        view\n        returns (address[] memory nodes, uint blockHeight)\n    {\n        VotingRecord[] storage votings = votingRecords[guardian];\n\n        require(votings.length > 0, \"Guardian never voted\");\n\n        VotingRecord storage lastVote = votings[votings.length - 1];\n\n        blockHeight = lastVote.blockHeight;\n        nodes = lastVote.nodes;\n    }\n}",
  "sourcePath": "/Users/ron/work/src/github.com/orbs-network/orbs-ethereum-contracts/voting/ethereum/contracts/OrbsVoting.sol",
  "compiler": {
    "name": "solc",
    "version": "0.5.3+commit.10d17f24.Emscripten.clang"
  },
  "schemaVersion": "3.0.2",
  "updatedAt": "2019-03-09T18:30:02.382Z",
  "devdoc": {
    "methods": {}
  },
  "userdoc": {
    "methods": {}
  }
}