{
  "contractName": "OrbsGuardians",
  "abi": [
    {
      "constant": true,
      "inputs": [],
      "name": "registrationDepositWei",
      "outputs": [
        {
          "name": "",
          "type": "uint256"
        }
      ],
      "payable": false,
      "stateMutability": "view",
      "type": "function"
    },
    {
      "constant": true,
      "inputs": [],
      "name": "registrationMinTime",
      "outputs": [
        {
          "name": "",
          "type": "uint256"
        }
      ],
      "payable": false,
      "stateMutability": "view",
      "type": "function"
    },
    {
      "constant": true,
      "inputs": [],
      "name": "VERSION",
      "outputs": [
        {
          "name": "",
          "type": "uint256"
        }
      ],
      "payable": false,
      "stateMutability": "view",
      "type": "function"
    },
    {
      "inputs": [
        {
          "name": "registrationDepositWei_",
          "type": "uint256"
        },
        {
          "name": "registrationMinTime_",
          "type": "uint256"
        }
      ],
      "payable": false,
      "stateMutability": "nonpayable",
      "type": "constructor"
    },
    {
      "anonymous": false,
      "inputs": [
        {
          "indexed": true,
          "name": "guardian",
          "type": "address"
        }
      ],
      "name": "GuardianRegistered",
      "type": "event"
    },
    {
      "anonymous": false,
      "inputs": [
        {
          "indexed": true,
          "name": "guardian",
          "type": "address"
        }
      ],
      "name": "GuardianLeft",
      "type": "event"
    },
    {
      "anonymous": false,
      "inputs": [
        {
          "indexed": true,
          "name": "guardian",
          "type": "address"
        }
      ],
      "name": "GuardianUpdated",
      "type": "event"
    },
    {
      "constant": false,
      "inputs": [
        {
          "name": "name",
          "type": "string"
        },
        {
          "name": "website",
          "type": "string"
        }
      ],
      "name": "register",
      "outputs": [],
      "payable": true,
      "stateMutability": "payable",
      "type": "function"
    },
    {
      "constant": false,
      "inputs": [
        {
          "name": "name",
          "type": "string"
        },
        {
          "name": "website",
          "type": "string"
        }
      ],
      "name": "update",
      "outputs": [],
      "payable": false,
      "stateMutability": "nonpayable",
      "type": "function"
    },
    {
      "constant": false,
      "inputs": [],
      "name": "leave",
      "outputs": [],
      "payable": false,
      "stateMutability": "nonpayable",
      "type": "function"
    },
    {
      "constant": true,
      "inputs": [
        {
          "name": "offset",
          "type": "uint256"
        },
        {
          "name": "limit",
          "type": "uint256"
        }
      ],
      "name": "getGuardiansBytes20",
      "outputs": [
        {
          "name": "",
          "type": "bytes20[]"
        }
      ],
      "payable": false,
      "stateMutability": "view",
      "type": "function"
    },
    {
      "constant": true,
      "inputs": [],
      "name": "reviewRegistration",
      "outputs": [
        {
          "name": "name",
          "type": "string"
        },
        {
          "name": "website",
          "type": "string"
        }
      ],
      "payable": false,
      "stateMutability": "view",
      "type": "function"
    },
    {
      "constant": true,
      "inputs": [
        {
          "name": "guardian",
          "type": "address"
        }
      ],
      "name": "getRegistrationBlockNumber",
      "outputs": [
        {
          "name": "registeredOn",
          "type": "uint256"
        },
        {
          "name": "lastUpdatedOn",
          "type": "uint256"
        }
      ],
      "payable": false,
      "stateMutability": "view",
      "type": "function"
    },
    {
      "constant": true,
      "inputs": [
        {
          "name": "offset",
          "type": "uint256"
        },
        {
          "name": "limit",
          "type": "uint256"
        }
      ],
      "name": "getGuardians",
      "outputs": [
        {
          "name": "",
          "type": "address[]"
        }
      ],
      "payable": false,
      "stateMutability": "view",
      "type": "function"
    },
    {
      "constant": true,
      "inputs": [
        {
          "name": "guardian",
          "type": "address"
        }
      ],
      "name": "getGuardianData",
      "outputs": [
        {
          "name": "name",
          "type": "string"
        },
        {
          "name": "website",
          "type": "string"
        }
      ],
      "payable": false,
      "stateMutability": "view",
      "type": "function"
    },
    {
      "constant": true,
      "inputs": [
        {
          "name": "guardian",
          "type": "address"
        }
      ],
      "name": "isGuardian",
      "outputs": [
        {
          "name": "",
          "type": "bool"
        }
      ],
      "payable": false,
      "stateMutability": "view",
      "type": "function"
    }
  ],
  "bytecode": "0x608060405234801561001057600080fd5b50604051604080611c0483398101806040528101908080519060200190929190805190602001909291905050506000821115156100db576040517f08c379a00000000000000000000000000000000000000000000000000000000081526004018080602001828103825260288152602001807f726567697374726174696f6e4465706f7369745765695f206d7573742062652081526020017f706f73697469766500000000000000000000000000000000000000000000000081525060400191505060405180910390fd5b80600181905550816000819055505050611b0a806100fa6000396000f3006080604052600436106100ba576000357c0100000000000000000000000000000000000000000000000000000000900463ffffffff1680630c68ba21146100bf5780631201b4bd1461011a5780633ffbd47f146101455780634b139a471461018b5780634cf1f60b146102b357806350d8f7861461033f578063d66d9e191461039d578063d93d7d29146103b4578063f35d2a8f14610440578063f4c84d191461053c578063f56606501461058f578063ffa1ad74146105ba575b600080fd5b3480156100cb57600080fd5b50610100600480360381019080803573ffffffffffffffffffffffffffffffffffffffff1690602001909291905050506105e5565b604051808215151515815260200191505060405180910390f35b34801561012657600080fd5b5061012f610633565b6040518082815260200191505060405180910390f35b610189600480360381019080803590602001908201803590602001919091929391929390803590602001908201803590602001919091929391929390505050610639565b005b34801561019757600080fd5b506101cc600480360381019080803573ffffffffffffffffffffffffffffffffffffffff169060200190929190505050610ae5565b604051808060200180602001838103835285818151815260200191508051906020019080838360005b838110156102105780820151818401526020810190506101f5565b50505050905090810190601f16801561023d5780820380516001836020036101000a031916815260200191505b50838103825284818151815260200191508051906020019080838360005b8381101561027657808201518184015260208101905061025b565b50505050905090810190601f1680156102a35780820380516001836020036101000a031916815260200191505b5094505050505060405180910390f35b3480156102bf57600080fd5b506102e86004803603810190808035906020019092919080359060200190929190505050610d24565b6040518080602001828103825283818151815260200191508051906020019060200280838360005b8381101561032b578082015181840152602081019050610310565b505050509050019250505060405180910390f35b34801561034b57600080fd5b50610380600480360381019080803573ffffffffffffffffffffffffffffffffffffffff169060200190929190505050610df9565b604051808381526020018281526020019250505060405180910390f35b3480156103a957600080fd5b506103b2610ed0565b005b3480156103c057600080fd5b506103e960048036038101908080359060200190929190803590602001909291905050506113e1565b6040518080602001828103825283818151815260200191508051906020019060200280838360005b8381101561042c578082015181840152602081019050610411565b505050509050019250505060405180910390f35b34801561044c57600080fd5b5061045561155a565b604051808060200180602001838103835285818151815260200191508051906020019080838360005b8381101561049957808201518184015260208101905061047e565b50505050905090810190601f1680156104c65780820380516001836020036101000a031916815260200191505b50838103825284818151815260200191508051906020019080838360005b838110156104ff5780820151818401526020810190506104e4565b50505050905090810190601f16801561052c5780820380516001836020036101000a031916815260200191505b5094505050505060405180910390f35b34801561054857600080fd5b5061058d60048036038101908080359060200190820180359060200191909192939192939080359060200190820180359060200191909192939192939050505061156e565b005b34801561059b57600080fd5b506105a46118e5565b6040518082815260200191505060405180910390f35b3480156105c657600080fd5b506105cf6118eb565b6040518082815260200191505060405180910390f35b600080600360008473ffffffffffffffffffffffffffffffffffffffff1673ffffffffffffffffffffffffffffffffffffffff16815260200190815260200160002060030154119050919050565b60005481565b600080610645336118f0565b1515156106e0576040517f08c379a00000000000000000000000000000000000000000000000000000000081526004018080602001828103825260218152602001807f4f6e6c7920454f41206d6179207265676973746572206173204775617264696181526020017f6e0000000000000000000000000000000000000000000000000000000000000081525060400191505060405180910390fd5b33915060008686905011151561075e576040517f08c379a000000000000000000000000000000000000000000000000000000000815260040180806020018281038252601b8152602001807f506c656173652070726f7669646520612076616c6964206e616d65000000000081525060200191505060405180910390fd5b6000848490501115156107d9576040517f08c379a000000000000000000000000000000000000000000000000000000000815260040180806020018281038252601e8152602001807f506c656173652070726f7669646520612076616c69642077656273697465000081525060200191505060405180910390fd5b6107e2826105e5565b151515610857576040517f08c379a00000000000000000000000000000000000000000000000000000000081526004018080602001828103825260148152602001807f43616e6e6f74206265206120677561726469616e00000000000000000000000081525060200191505060405180910390fd5b600054341415156108f6576040517f08c379a000000000000000000000000000000000000000000000000000000000815260040180806020018281038252602d8152602001807f506c656173652070726f7669646520746865206578616374207265676973747281526020017f6174696f6e206465706f7369740000000000000000000000000000000000000081525060400191505060405180910390fd5b600280549050905060028290806001815401808255809150509060018203906000526020600020016000909192909190916101000a81548173ffffffffffffffffffffffffffffffffffffffff021916908373ffffffffffffffffffffffffffffffffffffffff1602179055505060c06040519081016040528087878080601f016020809104026020016040519081016040528093929190818152602001838380828437820191505050505050815260200185858080601f016020809104026020016040519081016040528093929190818152602001838380828437820191505050505050815260200182815260200143815260200143815260200142815250600360008473ffffffffffffffffffffffffffffffffffffffff1673ffffffffffffffffffffffffffffffffffffffff1681526020019081526020016000206000820151816000019080519060200190610a51929190611945565b506020820151816001019080519060200190610a6e929190611945565b5060408201518160020155606082015181600301556080820151816004015560a082015181600501559050508173ffffffffffffffffffffffffffffffffffffffff167fc2d72ac93e7fb29c534663a530cd3db012d5c336965e423e0ed5ee7a64ed874560405160405180910390a2505050505050565b606080610af1836105e5565b1515610b65576040517f08c379a00000000000000000000000000000000000000000000000000000000081526004018080602001828103825260208152602001807f506c656173652070726f766964652061206c697374656420477561726469616e81525060200191505060405180910390fd5b600360008473ffffffffffffffffffffffffffffffffffffffff1673ffffffffffffffffffffffffffffffffffffffff1681526020019081526020016000206000018054600181600116156101000203166002900480601f016020809104026020016040519081016040528092919081815260200182805460018160011615610100020316600290048015610c3b5780601f10610c1057610100808354040283529160200191610c3b565b820191906000526020600020905b815481529060010190602001808311610c1e57829003601f168201915b50505050509150600360008473ffffffffffffffffffffffffffffffffffffffff1673ffffffffffffffffffffffffffffffffffffffff1681526020019081526020016000206001018054600181600116156101000203166002900480601f016020809104026020016040519081016040528092919081815260200182805460018160011615610100020316600290048015610d185780601f10610ced57610100808354040283529160200191610d18565b820191906000526020600020905b815481529060010190602001808311610cfb57829003601f168201915b50505050509050915091565b606080600060606000610d3787876113e1565b93508351925082604051908082528060200260200182016040528015610d6c5781602001602082028038833980820191505090505b509150600090505b82811015610dec578381815181101515610d8a57fe5b906020019060200201516c01000000000000000000000000028282815181101515610db157fe5b906020019060200201906bffffffffffffffffffffffff191690816bffffffffffffffffffffffff1916815250508080600101915050610d74565b8194505050505092915050565b6000806000610e07846105e5565b1515610e7b576040517f08c379a00000000000000000000000000000000000000000000000000000000081526004018080602001828103825260208152602001807f506c656173652070726f766964652061206c697374656420477561726469616e81525060200191505060405180910390fd5b600360008573ffffffffffffffffffffffffffffffffffffffff1673ffffffffffffffffffffffffffffffffffffffff1681526020019081526020016000209050806003015492508060040154915050915091565b600080610edc336105e5565b1515610f76576040517f08c379a00000000000000000000000000000000000000000000000000000000081526004018080602001828103825260218152602001807f596f75206d75737420626520612072656769737465726564206775617264696181526020017f6e0000000000000000000000000000000000000000000000000000000000000081525060400191505060405180910390fd5b610f7f336118f0565b15151561101a576040517f08c379a00000000000000000000000000000000000000000000000000000000081526004018080602001828103825260218152602001807f4f6e6c7920454f41206d6179207265676973746572206173204775617264696181526020017f6e0000000000000000000000000000000000000000000000000000000000000081525060400191505060405180910390fd5b339150611074600154600360008573ffffffffffffffffffffffffffffffffffffffff1673ffffffffffffffffffffffffffffffffffffffff1681526020019081526020016000206005015461190390919063ffffffff16565b42101515156110eb576040517f08c379a00000000000000000000000000000000000000000000000000000000081526004018080602001828103825260208152602001807f4d696e696d616c20677561726469616e2074696d65206469646e74207061737381525060200191505060405180910390fd5b600360008373ffffffffffffffffffffffffffffffffffffffff1673ffffffffffffffffffffffffffffffffffffffff1681526020019081526020016000206002015490508173ffffffffffffffffffffffffffffffffffffffff1660028281548110151561115657fe5b9060005260206000200160009054906101000a900473ffffffffffffffffffffffffffffffffffffffff1673ffffffffffffffffffffffffffffffffffffffff161415156111a057fe5b60026001600280549050038154811015156111b757fe5b9060005260206000200160009054906101000a900473ffffffffffffffffffffffffffffffffffffffff166002828154811015156111f157fe5b9060005260206000200160006101000a81548173ffffffffffffffffffffffffffffffffffffffff021916908373ffffffffffffffffffffffffffffffffffffffff160217905550806003600060028481548110151561124d57fe5b9060005260206000200160009054906101000a900473ffffffffffffffffffffffffffffffffffffffff1673ffffffffffffffffffffffffffffffffffffffff1673ffffffffffffffffffffffffffffffffffffffff1681526020019081526020016000206002018190555060028054809190600190036112ce91906119c5565b50600360008373ffffffffffffffffffffffffffffffffffffffff1673ffffffffffffffffffffffffffffffffffffffff1681526020019081526020016000206000808201600061131f91906119f1565b60018201600061132f91906119f1565b600282016000905560038201600090556004820160009055600582016000905550508173ffffffffffffffffffffffffffffffffffffffff166108fc6000549081150290604051600060405180830381858888f19350505050158015611399573d6000803e3d6000fd5b508173ffffffffffffffffffffffffffffffffffffffff167f30e7885e5f0fc1d648230d0e9245d45333c7158885df954f0a2f0fb442be0f6560405160405180910390a25050565b6060806000806002805490508610151561142d5760006040519080825280602002602001820160405280156114255781602001602082028038833980820191505090505b509350611551565b600280549050611446868861190390919063ffffffff16565b1115611467576114648660028054905061192490919063ffffffff16565b94505b846040519080825280602002602001820160405280156114965781602001602082028038833980820191505090505b50925082519150600090505b8181101561154d5760026114bf828861190390919063ffffffff16565b8154811015156114cb57fe5b9060005260206000200160009054906101000a900473ffffffffffffffffffffffffffffffffffffffff16838281518110151561150457fe5b9060200190602002019073ffffffffffffffffffffffffffffffffffffffff16908173ffffffffffffffffffffffffffffffffffffffff168152505080806001019150506114a2565b8293505b50505092915050565b60608061156633610ae5565b915091509091565b6000611579336105e5565b1515611613576040517f08c379a00000000000000000000000000000000000000000000000000000000081526004018080602001828103825260218152602001807f596f75206d75737420626520612072656769737465726564206775617264696181526020017f6e0000000000000000000000000000000000000000000000000000000000000081525060400191505060405180910390fd5b61161c336118f0565b1515156116b7576040517f08c379a00000000000000000000000000000000000000000000000000000000081526004018080602001828103825260218152602001807f4f6e6c7920454f41206d6179207265676973746572206173204775617264696181526020017f6e0000000000000000000000000000000000000000000000000000000000000081525060400191505060405180910390fd5b339050600085859050111515611735576040517f08c379a000000000000000000000000000000000000000000000000000000000815260040180806020018281038252601b8152602001807f506c656173652070726f7669646520612076616c6964206e616d65000000000081525060200191505060405180910390fd5b6000838390501115156117b0576040517f08c379a000000000000000000000000000000000000000000000000000000000815260040180806020018281038252601e8152602001807f506c656173652070726f7669646520612076616c69642077656273697465000081525060200191505060405180910390fd5b8484600360008473ffffffffffffffffffffffffffffffffffffffff1673ffffffffffffffffffffffffffffffffffffffff1681526020019081526020016000206000019190611801929190611a39565b508282600360008473ffffffffffffffffffffffffffffffffffffffff1673ffffffffffffffffffffffffffffffffffffffff1681526020019081526020016000206001019190611853929190611a39565b5043600360008373ffffffffffffffffffffffffffffffffffffffff1673ffffffffffffffffffffffffffffffffffffffff168152602001908152602001600020600401819055508073ffffffffffffffffffffffffffffffffffffffff167f6bb7ff33e730289800c62ad882105a144a74010d2bdbb9a942544a3005ad55bf60405160405180910390a25050505050565b60015481565b600181565b600080823b905060008111915050919050565b600080828401905083811015151561191a57600080fd5b8091505092915050565b60008083831115151561193657600080fd5b82840390508091505092915050565b828054600181600116156101000203166002900490600052602060002090601f016020900481019282601f1061198657805160ff19168380011785556119b4565b828001600101855582156119b4579182015b828111156119b3578251825591602001919060010190611998565b5b5090506119c19190611ab9565b5090565b8154818355818111156119ec578183600052602060002091820191016119eb9190611ab9565b5b505050565b50805460018160011615610100020316600290046000825580601f10611a175750611a36565b601f016020900490600052602060002090810190611a359190611ab9565b5b50565b828054600181600116156101000203166002900490600052602060002090601f016020900481019282601f10611a7a57803560ff1916838001178555611aa8565b82800160010185558215611aa8579182015b82811115611aa7578235825591602001919060010190611a8c565b5b509050611ab59190611ab9565b5090565b611adb91905b80821115611ad7576000816000905550600101611abf565b5090565b905600a165627a7a72305820aed2916854451a674921894d25e7371b42cd9d99976f56e89fe6bf7c1b4599d10029",
  "compiler": {
    "name": "solc",
    "version": "0.4.25+commit.59dbf8f1.Emscripten.clang"
  },
  "schemaVersion": "3.0.2",
  "updatedAt": "2019-03-24T14:46:24.963Z",
  "devdoc": {
    "methods": {
      "getGuardianData(address)": {
        "details": "Returns name and website for  a specific guardian.",
        "params": {
          "guardian": "address the guardian address"
        }
      },
      "getGuardians(uint256,uint256)": {
        "details": "Returns an array of guardians.",
        "params": {
          "limit": "uint limit of guardians to be returned.",
          "offset": "uint offset from which to start getting guardians from the array"
        }
      },
      "getGuardiansBytes20(uint256,uint256)": {
        "details": "returns an array of guardians as Bytes20 - similar to getGuardians, but returns byte20 which is      more compatible in some cases.",
        "params": {
          "limit": "uint limit of guardians to be returned.",
          "offset": "uint offset from which to start getting guardians from the array"
        }
      },
      "getRegistrationBlockNumber(address)": {
        "details": "Returns in which block the guardian was register, and in which block it was last updated.",
        "params": {
          "guardian": "address the guardian address"
        }
      },
      "isGuardian(address)": {
        "details": "Returns if the address belongs to a guardian",
        "params": {
          "guardian": "address the guardian address"
        }
      },
      "leave()": {
        "details": "Delete the guardian and take back the locked ether. only msg.sender can leave."
      },
      "register(string,string)": {
        "details": "register a new guardian. You will need to transfer registrationDepositWei amount of ether.",
        "params": {
          "name": "string The name of the guardian",
          "website": "string The website of the guardian"
        }
      },
      "reviewRegistration()": {
        "details": "Convenience method to check if you are a guardian."
      },
      "update(string,string)": {
        "details": "update guardian details. only msg.sender can update it's own guardian details.",
        "params": {
          "name": "string The name of the guardian",
          "website": "string The website of the guardian"
        }
      }
    }
  },
  "userdoc": {
    "methods": {}
  }
}