{
  "contractName": "OrbsValidators",
  "abi": [
    {
      "constant": true,
      "inputs": [],
      "name": "MAX_VALIDATOR_LIMIT",
      "outputs": [
        {
          "name": "",
          "type": "uint256"
        }
      ],
      "payable": false,
      "stateMutability": "view",
      "type": "function",
      "signature": "0x111c7c75"
    },
    {
      "constant": true,
      "inputs": [
        {
          "name": "",
          "type": "uint256"
        }
      ],
      "name": "validators",
      "outputs": [
        {
          "name": "",
          "type": "address"
        }
      ],
      "payable": false,
      "stateMutability": "view",
      "type": "function",
      "signature": "0x35aa2e44"
    },
    {
      "constant": true,
      "inputs": [],
      "name": "validatorLimit",
      "outputs": [
        {
          "name": "",
          "type": "uint256"
        }
      ],
      "payable": false,
      "stateMutability": "view",
      "type": "function",
      "signature": "0x57525cbc"
    },
    {
      "constant": false,
      "inputs": [],
      "name": "renounceOwnership",
      "outputs": [],
      "payable": false,
      "stateMutability": "nonpayable",
      "type": "function",
      "signature": "0x715018a6"
    },
    {
      "constant": true,
      "inputs": [],
      "name": "registry",
      "outputs": [
        {
          "name": "",
          "type": "address"
        }
      ],
      "payable": false,
      "stateMutability": "view",
      "type": "function",
      "signature": "0x7b103999"
    },
    {
      "constant": true,
      "inputs": [],
      "name": "owner",
      "outputs": [
        {
          "name": "",
          "type": "address"
        }
      ],
      "payable": false,
      "stateMutability": "view",
      "type": "function",
      "signature": "0x8da5cb5b"
    },
    {
      "constant": true,
      "inputs": [],
      "name": "isOwner",
      "outputs": [
        {
          "name": "",
          "type": "bool"
        }
      ],
      "payable": false,
      "stateMutability": "view",
      "type": "function",
      "signature": "0x8f32d59b"
    },
    {
      "constant": false,
      "inputs": [
        {
          "name": "newOwner",
          "type": "address"
        }
      ],
      "name": "transferOwnership",
      "outputs": [],
      "payable": false,
      "stateMutability": "nonpayable",
      "type": "function",
      "signature": "0xf2fde38b"
    },
    {
      "constant": true,
      "inputs": [],
      "name": "VERSION",
      "outputs": [
        {
          "name": "",
          "type": "uint256"
        }
      ],
      "payable": false,
      "stateMutability": "view",
      "type": "function",
      "signature": "0xffa1ad74"
    },
    {
      "inputs": [
        {
          "name": "_registryAddress",
          "type": "address"
        },
        {
          "name": "_validatorLimit",
          "type": "uint256"
        }
      ],
      "payable": false,
      "stateMutability": "nonpayable",
      "type": "constructor",
      "signature": "constructor"
    },
    {
      "anonymous": false,
      "inputs": [
        {
          "indexed": true,
          "name": "validator",
          "type": "address"
        }
      ],
      "name": "ValidatorAdded",
      "type": "event",
      "signature": "0xe366c1c0452ed8eec96861e9e54141ebff23c9ec89fe27b996b45f5ec3884987"
    },
    {
      "anonymous": false,
      "inputs": [
        {
          "indexed": true,
          "name": "validator",
          "type": "address"
        }
      ],
      "name": "ValidatorRemoved",
      "type": "event",
      "signature": "0xe1434e25d6611e0db941968fdc97811c982ac1602e951637d206f5fdda9dd8f1"
    },
    {
      "anonymous": false,
      "inputs": [
        {
          "indexed": true,
          "name": "previousOwner",
          "type": "address"
        },
        {
          "indexed": true,
          "name": "newOwner",
          "type": "address"
        }
      ],
      "name": "OwnershipTransferred",
      "type": "event",
      "signature": "0x8be0079c531659141344cd1fd0a4f28419497f9722a3daafe3b4186f6b6457e0"
    },
    {
      "constant": false,
      "inputs": [
        {
          "name": "_validator",
          "type": "address"
        }
      ],
      "name": "addValidator",
      "outputs": [],
      "payable": false,
      "stateMutability": "nonpayable",
      "type": "function",
      "signature": "0x4d238c8e"
    },
    {
      "constant": true,
      "inputs": [
        {
          "name": "m",
          "type": "address"
        }
      ],
      "name": "isValidator",
      "outputs": [
        {
          "name": "",
          "type": "bool"
        }
      ],
      "payable": false,
      "stateMutability": "view",
      "type": "function",
      "signature": "0xfacd743b"
    },
    {
      "constant": true,
      "inputs": [],
      "name": "getValidators",
      "outputs": [
        {
          "name": "",
          "type": "bytes20[]"
        }
      ],
      "payable": false,
      "stateMutability": "view",
      "type": "function",
      "signature": "0xb7ab4db5"
    },
    {
      "constant": false,
      "inputs": [
        {
          "name": "_validator",
          "type": "address"
        }
      ],
      "name": "remove",
      "outputs": [],
      "payable": false,
      "stateMutability": "nonpayable",
      "type": "function",
      "signature": "0x29092d0e"
    },
    {
      "constant": true,
      "inputs": [],
      "name": "getNetworkTopology",
      "outputs": [
        {
          "name": "nodeAddresses",
          "type": "address[]"
        },
        {
          "name": "ipAddresses",
          "type": "bytes4[]"
        }
      ],
      "payable": false,
      "stateMutability": "view",
      "type": "function",
      "signature": "0x20429673"
    }
  ],
  "bytecode": "0x608060405234801561001057600080fd5b5060405160408061199e8339810180604052604081101561003057600080fd5b810190808051906020019092919080519060200190929190505050336000806101000a81548173ffffffffffffffffffffffffffffffffffffffff021916908373ffffffffffffffffffffffffffffffffffffffff1602179055506000809054906101000a900473ffffffffffffffffffffffffffffffffffffffff1673ffffffffffffffffffffffffffffffffffffffff16600073ffffffffffffffffffffffffffffffffffffffff167f8be0079c531659141344cd1fd0a4f28419497f9722a3daafe3b4186f6b6457e060405160405180910390a3600073ffffffffffffffffffffffffffffffffffffffff168273ffffffffffffffffffffffffffffffffffffffff161415151561018f576040517f08c379a00000000000000000000000000000000000000000000000000000000081526004018080602001828103825260278152602001806119776027913960400191505060405180910390fd5b6000811115156101ea576040517f08c379a000000000000000000000000000000000000000000000000000000000815260040180806020018281038252602881526020018061194f6028913960400191505060405180910390fd5b60648111151515610263576040517f08c379a00000000000000000000000000000000000000000000000000000000081526004018080602001828103825260188152602001807f56616c696461746f72206c696d697420746f6f2068696768000000000000000081525060200191505060405180910390fd5b8060018190555081600260006101000a81548173ffffffffffffffffffffffffffffffffffffffff021916908373ffffffffffffffffffffffffffffffffffffffff1602179055505050611693806102bc6000396000f3fe608060405234801561001057600080fd5b5060043610610107576000357c0100000000000000000000000000000000000000000000000000000000900480637b103999116100a9578063b7ab4db511610083578063b7ab4db5146103a5578063f2fde38b14610404578063facd743b14610448578063ffa1ad74146104a457610107565b80637b103999146102ef5780638da5cb5b146103395780638f32d59b1461038357610107565b806335aa2e44116100e557806335aa2e44146102155780634d238c8e1461028357806357525cbc146102c7578063715018a6146102e557610107565b8063111c7c751461010c578063204296731461012a57806329092d0e146101d1575b600080fd5b6101146104c2565b6040518082815260200191505060405180910390f35b6101326104c7565b604051808060200180602001838103835285818151815260200191508051906020019060200280838360005b8381101561017957808201518184015260208101905061015e565b50505050905001838103825284818151815260200191508051906020019060200280838360005b838110156101bb5780820151818401526020810190506101a0565b5050505090500194505050505060405180910390f35b610213600480360360208110156101e757600080fd5b81019080803573ffffffffffffffffffffffffffffffffffffffff169060200190929190505050610840565b005b6102416004803603602081101561022b57600080fd5b8101908080359060200190929190505050610a84565b604051808273ffffffffffffffffffffffffffffffffffffffff1673ffffffffffffffffffffffffffffffffffffffff16815260200191505060405180910390f35b6102c56004803603602081101561029957600080fd5b81019080803573ffffffffffffffffffffffffffffffffffffffff169060200190929190505050610ac2565b005b6102cf610d1d565b6040518082815260200191505060405180910390f35b6102ed610d23565b005b6102f7610df5565b604051808273ffffffffffffffffffffffffffffffffffffffff1673ffffffffffffffffffffffffffffffffffffffff16815260200191505060405180910390f35b610341610e1b565b604051808273ffffffffffffffffffffffffffffffffffffffff1673ffffffffffffffffffffffffffffffffffffffff16815260200191505060405180910390f35b61038b610e44565b604051808215151515815260200191505060405180910390f35b6103ad610e9b565b6040518080602001828103825283818151815260200191508051906020019060200280838360005b838110156103f05780820151818401526020810190506103d5565b505050509050019250505060405180910390f35b6104466004803603602081101561041a57600080fd5b81019080803573ffffffffffffffffffffffffffffffffffffffff1690602001909291905050506110ce565b005b61048a6004803603602081101561045e57600080fd5b81019080803573ffffffffffffffffffffffffffffffffffffffff1690602001909291905050506110ed565b604051808215151515815260200191505060405180910390f35b6104ac6111fd565b6040518082815260200191505060405180910390f35b606481565b60608060606104d4610e9b565b905080516040519080825280602002602001820160405280156105065781602001602082028038833980820191505090505b50925080516040519080825280602002602001820160405280156105395781602001602082028038833980820191505090505b50915060008090505b815181101561083a5760606000600260009054906101000a900473ffffffffffffffffffffffffffffffffffffffff1673ffffffffffffffffffffffffffffffffffffffff16632536f8b5858581518110151561059b57fe5b906020019060200201516c0100000000000000000000000090046040518263ffffffff167c0100000000000000000000000000000000000000000000000000000000028152600401808273ffffffffffffffffffffffffffffffffffffffff1673ffffffffffffffffffffffffffffffffffffffff16815260200191505060006040518083038186803b15801561063157600080fd5b505afa158015610645573d6000803e3d6000fd5b505050506040513d6000823e3d601f19601f82011682018060405250608081101561066f57600080fd5b81019080805164010000000081111561068757600080fd5b8281019050602081018481111561069d57600080fd5b81518560018202830111640100000000821117156106ba57600080fd5b505092919060200180516401000000008111156106d657600080fd5b828101905060208101848111156106ec57600080fd5b815185600182028301116401000000008211171561070957600080fd5b5050929190602001805164010000000081111561072557600080fd5b8281019050602081018481111561073b57600080fd5b815185600182028301116401000000008211171561075857600080fd5b505092919060200180519060200190929190505050909192509050809250819350505080868481518110151561078a57fe5b9060200190602002019073ffffffffffffffffffffffffffffffffffffffff16908173ffffffffffffffffffffffffffffffffffffffff16815250506107cf82611202565b85848151811015156107dd57fe5b906020019060200201907bffffffffffffffffffffffffffffffffffffffffffffffffffffffff191690817bffffffffffffffffffffffffffffffffffffffffffffffffffffffff19168152505050508080600101915050610542565b50509091565b610848610e44565b151561085357600080fd5b60008090505b600380549050811015610a12578173ffffffffffffffffffffffffffffffffffffffff1660038281548110151561088c57fe5b9060005260206000200160009054906101000a900473ffffffffffffffffffffffffffffffffffffffff1673ffffffffffffffffffffffffffffffffffffffff161415610a075760036001600380549050038154811015156108ea57fe5b9060005260206000200160009054906101000a900473ffffffffffffffffffffffffffffffffffffffff1660038281548110151561092457fe5b9060005260206000200160006101000a81548173ffffffffffffffffffffffffffffffffffffffff021916908373ffffffffffffffffffffffffffffffffffffffff16021790555060038181548110151561097b57fe5b9060005260206000200160006101000a81549073ffffffffffffffffffffffffffffffffffffffff021916905560038054809190600190036109bd91906115f2565b508173ffffffffffffffffffffffffffffffffffffffff167fe1434e25d6611e0db941968fdc97811c982ac1602e951637d206f5fdda9dd8f160405160405180910390a250610a81565b806001019050610859565b506040517f08c379a00000000000000000000000000000000000000000000000000000000081526004018080602001828103825260198152602001807f556e6b6e6f776e2056616c696461746f7220416464726573730000000000000081525060200191505060405180910390fd5b50565b600381815481101515610a9357fe5b906000526020600020016000915054906101000a900473ffffffffffffffffffffffffffffffffffffffff1681565b610aca610e44565b1515610ad557600080fd5b600073ffffffffffffffffffffffffffffffffffffffff168173ffffffffffffffffffffffffffffffffffffffff1614151515610b7a576040517f08c379a00000000000000000000000000000000000000000000000000000000081526004018080602001828103825260168152602001807f41646472657373206d757374206e6f742062652030210000000000000000000081525060200191505060405180910390fd5b600180540360038054905011158015610b9c5750600160640360038054905011155b1515610c10576040517f08c379a00000000000000000000000000000000000000000000000000000000081526004018080602001828103825260178152602001807f43616e277420616464206d6f7265206d656d626572732100000000000000000081525060200191505060405180910390fd5b610c19816112f1565b151515610c71576040517f08c379a00000000000000000000000000000000000000000000000000000000081526004018080602001828103825260248152602001806116446024913960400191505060405180910390fd5b60038190806001815401808255809150509060018203906000526020600020016000909192909190916101000a81548173ffffffffffffffffffffffffffffffffffffffff021916908373ffffffffffffffffffffffffffffffffffffffff160217905550508073ffffffffffffffffffffffffffffffffffffffff167fe366c1c0452ed8eec96861e9e54141ebff23c9ec89fe27b996b45f5ec388498760405160405180910390a250565b60015481565b610d2b610e44565b1515610d3657600080fd5b600073ffffffffffffffffffffffffffffffffffffffff166000809054906101000a900473ffffffffffffffffffffffffffffffffffffffff1673ffffffffffffffffffffffffffffffffffffffff167f8be0079c531659141344cd1fd0a4f28419497f9722a3daafe3b4186f6b6457e060405160405180910390a360008060006101000a81548173ffffffffffffffffffffffffffffffffffffffff021916908373ffffffffffffffffffffffffffffffffffffffff160217905550565b600260009054906101000a900473ffffffffffffffffffffffffffffffffffffffff1681565b60008060009054906101000a900473ffffffffffffffffffffffffffffffffffffffff16905090565b60008060009054906101000a900473ffffffffffffffffffffffffffffffffffffffff1673ffffffffffffffffffffffffffffffffffffffff163373ffffffffffffffffffffffffffffffffffffffff1614905090565b60606000610ea7611395565b9050606081604051908082528060200260200182016040528015610eda5781602001602082028038833980820191505090505b509050600080905060008090505b6003805490508110156110c457600260009054906101000a900473ffffffffffffffffffffffffffffffffffffffff1673ffffffffffffffffffffffffffffffffffffffff1663facd743b600383815481101515610f4257fe5b9060005260206000200160009054906101000a900473ffffffffffffffffffffffffffffffffffffffff166040518263ffffffff167c0100000000000000000000000000000000000000000000000000000000028152600401808273ffffffffffffffffffffffffffffffffffffffff1673ffffffffffffffffffffffffffffffffffffffff16815260200191505060206040518083038186803b158015610fe957600080fd5b505afa158015610ffd573d6000803e3d6000fd5b505050506040513d602081101561101357600080fd5b8101908080519060200190929190505050156110b75760038181548110151561103857fe5b9060005260206000200160009054906101000a900473ffffffffffffffffffffffffffffffffffffffff166c0100000000000000000000000002838381518110151561108057fe5b906020019060200201906bffffffffffffffffffffffff191690816bffffffffffffffffffffffff19168152505081806001019250505b8080600101915050610ee8565b5081935050505090565b6110d6610e44565b15156110e157600080fd5b6110ea816114f8565b50565b60006110f8826112f1565b80156111f65750600260009054906101000a900473ffffffffffffffffffffffffffffffffffffffff1673ffffffffffffffffffffffffffffffffffffffff1663facd743b836040518263ffffffff167c0100000000000000000000000000000000000000000000000000000000028152600401808273ffffffffffffffffffffffffffffffffffffffff1673ffffffffffffffffffffffffffffffffffffffff16815260200191505060206040518083038186803b1580156111ba57600080fd5b505afa1580156111ce573d6000803e3d6000fd5b505050506040513d60208110156111e457600080fd5b81019080805190602001909291905050505b9050919050565b600181565b6000806004835110611215576004611218565b82515b905060008090505b818110156112ea576000848281518110151561123857fe5b9060200101517f010000000000000000000000000000000000000000000000000000000000000090047f0100000000000000000000000000000000000000000000000000000000000000027effffffffffffffffffffffffffffffffffffffffffffffffffffffffffffff1916905081600802817bffffffffffffffffffffffffffffffffffffffffffffffffffffffff1916908060020a820491505090508084179350508080600101915050611220565b5050919050565b600080600090505b60038054905081101561138a578273ffffffffffffffffffffffffffffffffffffffff1660038281548110151561132c57fe5b9060005260206000200160009054906101000a900473ffffffffffffffffffffffffffffffffffffffff1673ffffffffffffffffffffffffffffffffffffffff16141561137d576001915050611390565b80806001019150506112f9565b50600090505b919050565b600080600090505b6003805490508110156114f457600260009054906101000a900473ffffffffffffffffffffffffffffffffffffffff1673ffffffffffffffffffffffffffffffffffffffff1663facd743b6003838154811015156113f757fe5b9060005260206000200160009054906101000a900473ffffffffffffffffffffffffffffffffffffffff166040518263ffffffff167c0100000000000000000000000000000000000000000000000000000000028152600401808273ffffffffffffffffffffffffffffffffffffffff1673ffffffffffffffffffffffffffffffffffffffff16815260200191505060206040518083038186803b15801561149e57600080fd5b505afa1580156114b2573d6000803e3d6000fd5b505050506040513d60208110156114c857600080fd5b8101908080519060200190929190505050156114e75781806001019250505b808060010191505061139d565b5090565b600073ffffffffffffffffffffffffffffffffffffffff168173ffffffffffffffffffffffffffffffffffffffff161415151561153457600080fd5b8073ffffffffffffffffffffffffffffffffffffffff166000809054906101000a900473ffffffffffffffffffffffffffffffffffffffff1673ffffffffffffffffffffffffffffffffffffffff167f8be0079c531659141344cd1fd0a4f28419497f9722a3daafe3b4186f6b6457e060405160405180910390a3806000806101000a81548173ffffffffffffffffffffffffffffffffffffffff021916908373ffffffffffffffffffffffffffffffffffffffff16021790555050565b81548183558181111561161957818360005260206000209182019101611618919061161e565b5b505050565b61164091905b8082111561163c576000816000905550600101611624565b5090565b9056fe41646472657373206d757374206e6f7420626520616c72656164792061206d656d626572a165627a7a72305820b99888f02f66d81bfa5c4b251307522f2b59afc98b1f78007832c7eae65979b0002956616c696461746f72206c696d6974206d757374206265206120706f7369746976652076616c7565526567697374727920636f6e74726163742061646472657373206d6179206e6f74206265203021",
  "source": "pragma solidity 0.5.3;\n\nimport \"openzeppelin-solidity/contracts/ownership/Ownable.sol\";\nimport \"./IOrbsNetworkTopology.sol\";\nimport \"./OrbsValidatorsRegistry.sol\";\n\ninterface IOrbsValidators {\n    event ValidatorAdded(address indexed validator);\n    event ValidatorRemoved(address indexed validator);\n\n    function addValidator(address _validator) external;\n    function isValidator(address m) external view returns (bool);\n    function getValidators() external view returns (bytes20[] memory);\n}\n\ncontract OrbsValidators is Ownable, IOrbsValidators, IOrbsNetworkTopology {\n\n    // The version of the current federation smart contract.\n    uint public constant VERSION = 1;\n\n    // Maximum number of the federation members.\n    uint public constant MAX_VALIDATOR_LIMIT = 100;\n    uint public validatorLimit;\n\n    IOrbsValidatorsRegistry public registry;\n\n    address[] public validators;\n\n    constructor(address _registryAddress, uint _validatorLimit) public {\n        require(_registryAddress != address(0), \"Registry contract address may not be 0!\");\n        require(_validatorLimit > 0, \"Validator limit must be a positive value\");\n        require(_validatorLimit <= MAX_VALIDATOR_LIMIT, \"Validator limit too high\");\n\n        validatorLimit = _validatorLimit;\n        registry = IOrbsValidatorsRegistry(_registryAddress);\n    }\n\n    function addValidator(address _validator) public onlyOwner {\n        require(_validator != address(0), \"Address must not be 0!\");\n        require(validators.length <= validatorLimit - 1 && validators.length <= MAX_VALIDATOR_LIMIT - 1, \"Can't add more members!\");\n\n        require(!wasAdded(_validator), \"Address must not be already a member\");\n\n        validators.push(_validator);\n        emit ValidatorAdded(_validator);\n    }\n\n    function wasAdded(address m) internal view returns (bool) {\n        for (uint i = 0; i < validators.length; i++) {\n            if (validators[i] == m) {\n                return true;\n            }\n        }\n        return false;\n    }\n\n    function isValidator(address m) public view returns (bool) {\n        return wasAdded(m) && registry.isValidator(m);\n    }\n\n    function getValidators() public view returns (bytes20[] memory) {\n        uint activeValidatorCount = countRegisteredValidators();\n        bytes20[] memory validatorAddresses = new bytes20[](activeValidatorCount);\n\n        uint pushAt = 0;\n        for (uint i = 0; i < validators.length; i++) {\n            if (registry.isValidator(validators[i])) {\n                validatorAddresses[pushAt] = bytes20(validators[i]);\n                pushAt++;\n            }\n        }\n        return validatorAddresses;\n    }\n\n    function remove(address _validator) public onlyOwner {\n        for (uint i = 0; i < validators.length; ++i) {\n            if (validators[i] == _validator) {\n                validators[i] = validators[validators.length - 1];\n                delete validators[i];\n                validators.length--;\n\n                emit ValidatorRemoved(_validator);\n                return;\n            }\n        }\n        revert(\"Unknown Validator Address\");\n    }\n\n    function getNetworkTopology() public view returns (address[] memory nodeAddresses, bytes4[] memory ipAddresses) {\n        bytes20[] memory activeValidators = getValidators(); // already filters out those without data\n        nodeAddresses = new address[](activeValidators.length);\n        ipAddresses = new bytes4[](activeValidators.length);\n\n        for (uint i = 0; i < activeValidators.length; i++) {\n            bytes memory ip;\n            address orbsAddress;\n            (,ip,,orbsAddress) = registry.getValidatorData(address(activeValidators[i]));\n            nodeAddresses[i] = orbsAddress;\n            ipAddresses[i] = ipv4Address(ip);\n        }\n    }\n\n    function ipv4Address(bytes memory inBytes) pure internal returns (bytes4 outBytes4) {\n        uint256 bytesAvailable = inBytes.length < 4 ? inBytes.length : 4;\n        for (uint256 i = 0; i < bytesAvailable; i++) {\n            bytes4 shifter = inBytes[i];\n            shifter = shifter >> 8 * i;\n            outBytes4 = outBytes4 | shifter;\n        }\n    }\n\n    function countRegisteredValidators() internal view returns (uint count) {\n        for (uint i = 0; i < validators.length; i++) {\n            if (registry.isValidator(validators[i])) {\n                count++;\n            }\n        }\n    }\n}",
  "sourcePath": "/Users/ron/work/src/github.com/orbs-network/orbs-ethereum-contracts/voting/ethereum/contracts/OrbsValidators.sol",
  "compiler": {
    "name": "solc",
    "version": "0.5.3+commit.10d17f24.Emscripten.clang"
  },
  "schemaVersion": "3.0.1",
  "updatedAt": "2019-03-04T14:23:00.298Z",
  "devdoc": {
    "methods": {
      "isOwner()": {
        "return": "true if `msg.sender` is the owner of the contract."
      },
      "owner()": {
        "return": "the address of the owner."
      },
      "renounceOwnership()": {
        "details": "Allows the current owner to relinquish control of the contract."
      },
      "transferOwnership(address)": {
        "details": "Allows the current owner to transfer control of the contract to a newOwner.",
        "params": {
          "newOwner": "The address to transfer ownership to."
        }
      }
    }
  },
  "userdoc": {
    "methods": {
      "renounceOwnership()": {
        "notice": "Renouncing to ownership will leave the contract without an owner. It will not be possible to call the functions with the `onlyOwner` modifier anymore."
      }
    }
  }
}