{
  "contractName": "OrbsValidatorsRegistry",
  "abi": [
    {
      "constant": true,
      "inputs": [
        {
          "name": "",
          "type": "bytes4"
        }
      ],
      "name": "lookupByIp",
      "outputs": [
        {
          "name": "",
          "type": "address"
        }
      ],
      "payable": false,
      "stateMutability": "view",
      "type": "function"
    },
    {
      "constant": true,
      "inputs": [
        {
          "name": "",
          "type": "bytes20"
        }
      ],
      "name": "lookupByOrbsAddr",
      "outputs": [
        {
          "name": "",
          "type": "address"
        }
      ],
      "payable": false,
      "stateMutability": "view",
      "type": "function"
    },
    {
      "constant": true,
      "inputs": [],
      "name": "VERSION",
      "outputs": [
        {
          "name": "",
          "type": "uint256"
        }
      ],
      "payable": false,
      "stateMutability": "view",
      "type": "function"
    },
    {
      "anonymous": false,
      "inputs": [
        {
          "indexed": true,
          "name": "validator",
          "type": "address"
        }
      ],
      "name": "ValidatorLeft",
      "type": "event"
    },
    {
      "anonymous": false,
      "inputs": [
        {
          "indexed": true,
          "name": "validator",
          "type": "address"
        }
      ],
      "name": "ValidatorRegistered",
      "type": "event"
    },
    {
      "anonymous": false,
      "inputs": [
        {
          "indexed": true,
          "name": "validator",
          "type": "address"
        }
      ],
      "name": "ValidatorUpdated",
      "type": "event"
    },
    {
      "constant": false,
      "inputs": [
        {
          "name": "name",
          "type": "string"
        },
        {
          "name": "ipAddress",
          "type": "bytes4"
        },
        {
          "name": "website",
          "type": "string"
        },
        {
          "name": "orbsAddress",
          "type": "bytes20"
        }
      ],
      "name": "register",
      "outputs": [],
      "payable": false,
      "stateMutability": "nonpayable",
      "type": "function"
    },
    {
      "constant": false,
      "inputs": [
        {
          "name": "name",
          "type": "string"
        },
        {
          "name": "ipAddress",
          "type": "bytes4"
        },
        {
          "name": "website",
          "type": "string"
        },
        {
          "name": "orbsAddress",
          "type": "bytes20"
        }
      ],
      "name": "update",
      "outputs": [],
      "payable": false,
      "stateMutability": "nonpayable",
      "type": "function"
    },
    {
      "constant": false,
      "inputs": [],
      "name": "leave",
      "outputs": [],
      "payable": false,
      "stateMutability": "nonpayable",
      "type": "function"
    },
    {
      "constant": true,
      "inputs": [
        {
          "name": "validator",
          "type": "address"
        }
      ],
      "name": "getRegistrationBlockNumber",
      "outputs": [
        {
          "name": "registeredOn",
          "type": "uint256"
        },
        {
          "name": "lastUpdatedOn",
          "type": "uint256"
        }
      ],
      "payable": false,
      "stateMutability": "view",
      "type": "function"
    },
    {
      "constant": true,
      "inputs": [
        {
          "name": "validator",
          "type": "address"
        }
      ],
      "name": "getOrbsAddress",
      "outputs": [
        {
          "name": "",
          "type": "bytes20"
        }
      ],
      "payable": false,
      "stateMutability": "view",
      "type": "function"
    },
    {
      "constant": true,
      "inputs": [
        {
          "name": "validator",
          "type": "address"
        }
      ],
      "name": "getValidatorData",
      "outputs": [
        {
          "name": "name",
          "type": "string"
        },
        {
          "name": "ipAddress",
          "type": "bytes4"
        },
        {
          "name": "website",
          "type": "string"
        },
        {
          "name": "orbsAddress",
          "type": "bytes20"
        }
      ],
      "payable": false,
      "stateMutability": "view",
      "type": "function"
    },
    {
      "constant": true,
      "inputs": [
        {
          "name": "validator",
          "type": "address"
        }
      ],
      "name": "isValidator",
      "outputs": [
        {
          "name": "",
          "type": "bool"
        }
      ],
      "payable": false,
      "stateMutability": "view",
      "type": "function"
    }
  ],
  "bytecode": "0x608060405234801561001057600080fd5b50612169806100206000396000f3006080604052600436106100a4576000357c0100000000000000000000000000000000000000000000000000000000900463ffffffff1680630d69ac04146100a95780632536f8b5146101355780632b19e34e146102c757806350d8f786146103435780639b9fb164146103a1578063ada7807514610436578063c611e584146104ab578063d66d9e1914610540578063facd743b14610557578063ffa1ad74146105b2575b600080fd5b3480156100b557600080fd5b506100f360048036038101908080357bffffffffffffffffffffffffffffffffffffffffffffffffffffffff191690602001909291905050506105dd565b604051808273ffffffffffffffffffffffffffffffffffffffff1673ffffffffffffffffffffffffffffffffffffffff16815260200191505060405180910390f35b34801561014157600080fd5b50610176600480360381019080803573ffffffffffffffffffffffffffffffffffffffff169060200190929190505050610610565b6040518080602001857bffffffffffffffffffffffffffffffffffffffffffffffffffffffff19167bffffffffffffffffffffffffffffffffffffffffffffffffffffffff1916815260200180602001846bffffffffffffffffffffffff19166bffffffffffffffffffffffff19168152602001838103835287818151815260200191508051906020019080838360005b83811015610222578082015181840152602081019050610207565b50505050905090810190601f16801561024f5780820380516001836020036101000a031916815260200191505b50838103825285818151815260200191508051906020019080838360005b8381101561028857808201518184015260208101905061026d565b50505050905090810190601f1680156102b55780820380516001836020036101000a031916815260200191505b50965050505050505060405180910390f35b3480156102d357600080fd5b5061030160048036038101908080356bffffffffffffffffffffffff191690602001909291905050506107ef565b604051808273ffffffffffffffffffffffffffffffffffffffff1673ffffffffffffffffffffffffffffffffffffffff16815260200191505060405180910390f35b34801561034f57600080fd5b50610384600480360381019080803573ffffffffffffffffffffffffffffffffffffffff169060200190929190505050610822565b604051808381526020018281526020019250505060405180910390f35b3480156103ad57600080fd5b5061043460048036038101908080359060200190820180359060200191909192939192939080357bffffffffffffffffffffffffffffffffffffffffffffffffffffffff1916906020019092919080359060200190820180359060200191909192939192939080356bffffffffffffffffffffffff191690602001909291905050506108f8565b005b34801561044257600080fd5b50610477600480360381019080803573ffffffffffffffffffffffffffffffffffffffff169060200190929190505050611115565b60405180826bffffffffffffffffffffffff19166bffffffffffffffffffffffff1916815260200191505060405180910390f35b3480156104b757600080fd5b5061053e60048036038101908080359060200190820180359060200191909192939192939080357bffffffffffffffffffffffffffffffffffffffffffffffffffffffff1916906020019092919080359060200190820180359060200191909192939192939080356bffffffffffffffffffffffff19169060200190929190505050611179565b005b34801561054c57600080fd5b50610555611a2d565b005b34801561056357600080fd5b50610598600480360381019080803573ffffffffffffffffffffffffffffffffffffffff169060200190929190505050611d1e565b604051808215151515815260200191505060405180910390f35b3480156105be57600080fd5b506105c7611d6b565b6040518082815260200191505060405180910390f35b60016020528060005260406000206000915054906101000a900473ffffffffffffffffffffffffffffffffffffffff1681565b6060600060606000806000808773ffffffffffffffffffffffffffffffffffffffff1673ffffffffffffffffffffffffffffffffffffffff1681526020019081526020016000209050806000018054600181600116156101000203166002900480601f0160208091040260200160405190810160405280929190818152602001828054600181600116156101000203166002900480156106f15780601f106106c6576101008083540402835291602001916106f1565b820191906000526020600020905b8154815290600101906020018083116106d457829003601f168201915b505050505094508060010160009054906101000a90047c0100000000000000000000000000000000000000000000000000000000029350806002018054600181600116156101000203166002900480601f0160208091040260200160405190810160405280929190818152602001828054600181600116156101000203166002900480156107c05780601f10610795576101008083540402835291602001916107c0565b820191906000526020600020905b8154815290600101906020018083116107a357829003601f168201915b505050505092508060030160009054906101000a90046c01000000000000000000000000029150509193509193565b60026020528060005260406000206000915054906101000a900473ffffffffffffffffffffffffffffffffffffffff1681565b600080600061083084611d1e565b15156108a4576040517f08c379a00000000000000000000000000000000000000000000000000000000081526004018080602001828103825260128152602001807f556e6c69737465642056616c696461746f72000000000000000000000000000081525060200191505060405180910390fd5b6000808573ffffffffffffffffffffffffffffffffffffffff1673ffffffffffffffffffffffffffffffffffffffff1681526020019081526020016000209050806004015492508060050154915050915091565b60008061090433611d1e565b151561099e576040517f08c379a00000000000000000000000000000000000000000000000000000000081526004018080602001828103825260228152602001807f596f75206d757374206265206120726567697374657265642076616c6964617481526020017f6f7200000000000000000000000000000000000000000000000000000000000081525060400191505060405180910390fd5b339150600088889050111515610a1c576040517f08c379a000000000000000000000000000000000000000000000000000000000815260040180806020018281038252601b8152602001807f506c656173652070726f7669646520612076616c6964206e616d65000000000081525060200191505060405180910390fd5b600085859050111515610a97576040517f08c379a000000000000000000000000000000000000000000000000000000000815260040180806020018281038252601e8152602001807f506c656173652070726f7669646520612076616c69642077656273697465000081525060200191505060405180910390fd5b60007c0100000000000000000000000000000000000000000000000000000000027bffffffffffffffffffffffffffffffffffffffffffffffffffffffff1916867bffffffffffffffffffffffffffffffffffffffffffffffffffffffff191614151515610bb9576040517f08c379a00000000000000000000000000000000000000000000000000000000081526004018080602001828103825260498152602001807f506c65617365207061737320612076616c69642069702061646472657373207281526020017f6570726573656e74656420617320616e206172726179206f662065786163746c81526020017f792034206279746573000000000000000000000000000000000000000000000081525060600191505060405180910390fd5b60006c01000000000000000000000000026bffffffffffffffffffffffff1916836bffffffffffffffffffffffff191614151515610c85576040517f08c379a00000000000000000000000000000000000000000000000000000000081526004018080602001828103825260238152602001807f506c656173652070726f7669646520612076616c6964204f726273204164647281526020017f657373000000000000000000000000000000000000000000000000000000000081525060400191505060405180910390fd5b610c8e86611d70565b1515610d28576040517f08c379a00000000000000000000000000000000000000000000000000000000081526004018080602001828103825260318152602001807f4950204164647265737320697320616c726561647920696e207573652062792081526020017f616e6f746865722076616c696461746f7200000000000000000000000000000081525060400191505060405180910390fd5b610d3183611ec0565b1515610dcb576040517f08c379a00000000000000000000000000000000000000000000000000000000081526004018080602001828103825260338152602001807f4f726273204164647265737320697320616c726561647920696e20757365206281526020017f7920616e6f746865722076616c696461746f720000000000000000000000000081525060400191505060405180910390fd5b6000808373ffffffffffffffffffffffffffffffffffffffff1673ffffffffffffffffffffffffffffffffffffffff1681526020019081526020016000209050600160008260010160009054906101000a90047c0100000000000000000000000000000000000000000000000000000000027bffffffffffffffffffffffffffffffffffffffffffffffffffffffff19167bffffffffffffffffffffffffffffffffffffffffffffffffffffffff1916815260200190815260200160002060006101000a81549073ffffffffffffffffffffffffffffffffffffffff0219169055600260008260030160009054906101000a90046c01000000000000000000000000026bffffffffffffffffffffffff19166bffffffffffffffffffffffff1916815260200190815260200160002060006101000a81549073ffffffffffffffffffffffffffffffffffffffff02191690558160016000887bffffffffffffffffffffffffffffffffffffffffffffffffffffffff19167bffffffffffffffffffffffffffffffffffffffffffffffffffffffff1916815260200190815260200160002060006101000a81548173ffffffffffffffffffffffffffffffffffffffff021916908373ffffffffffffffffffffffffffffffffffffffff1602179055508160026000856bffffffffffffffffffffffff19166bffffffffffffffffffffffff1916815260200190815260200160002060006101000a81548173ffffffffffffffffffffffffffffffffffffffff021916908373ffffffffffffffffffffffffffffffffffffffff1602179055508787826000019190611030929190611fd0565b50858160010160006101000a81548163ffffffff02191690837c0100000000000000000000000000000000000000000000000000000000900402179055508484826002019190611081929190611fd0565b50828160030160006101000a81548173ffffffffffffffffffffffffffffffffffffffff02191690836c01000000000000000000000000900402179055504381600501819055508173ffffffffffffffffffffffffffffffffffffffff167fb3a3a56265020415cf2f7ff198e2052a6e1d43d7eb127450af725829e40e08c260405160405180910390a25050505050505050565b60008060008373ffffffffffffffffffffffffffffffffffffffff1673ffffffffffffffffffffffffffffffffffffffff16815260200190815260200160002060030160009054906101000a90046c01000000000000000000000000029050919050565b60003390506000878790501115156111f9576040517f08c379a000000000000000000000000000000000000000000000000000000000815260040180806020018281038252601b8152602001807f506c656173652070726f7669646520612076616c6964206e616d65000000000081525060200191505060405180910390fd5b600084849050111515611274576040517f08c379a000000000000000000000000000000000000000000000000000000000815260040180806020018281038252601e8152602001807f506c656173652070726f7669646520612076616c69642077656273697465000081525060200191505060405180910390fd5b61127d81611d1e565b1515156112f2576040517f08c379a00000000000000000000000000000000000000000000000000000000081526004018080602001828103825260188152602001807f56616c696461746f7220616c726561647920657869737473000000000000000081525060200191505060405180910390fd5b60007c0100000000000000000000000000000000000000000000000000000000027bffffffffffffffffffffffffffffffffffffffffffffffffffffffff1916857bffffffffffffffffffffffffffffffffffffffffffffffffffffffff191614151515611414576040517f08c379a00000000000000000000000000000000000000000000000000000000081526004018080602001828103825260498152602001807f506c65617365207061737320612076616c69642069702061646472657373207281526020017f6570726573656e74656420617320616e206172726179206f662065786163746c81526020017f792034206279746573000000000000000000000000000000000000000000000081525060600191505060405180910390fd5b60006c01000000000000000000000000026bffffffffffffffffffffffff1916826bffffffffffffffffffffffff1916141515156114e0576040517f08c379a00000000000000000000000000000000000000000000000000000000081526004018080602001828103825260238152602001807f506c656173652070726f7669646520612076616c6964204f726273204164647281526020017f657373000000000000000000000000000000000000000000000000000000000081525060400191505060405180910390fd5b600073ffffffffffffffffffffffffffffffffffffffff1660016000877bffffffffffffffffffffffffffffffffffffffffffffffffffffffff19167bffffffffffffffffffffffffffffffffffffffffffffffffffffffff1916815260200190815260200160002060009054906101000a900473ffffffffffffffffffffffffffffffffffffffff1673ffffffffffffffffffffffffffffffffffffffff161415156115f5576040517f08c379a00000000000000000000000000000000000000000000000000000000081526004018080602001828103825260198152602001807f4950206164647265737320616c726561647920696e207573650000000000000081525060200191505060405180910390fd5b600073ffffffffffffffffffffffffffffffffffffffff1660026000846bffffffffffffffffffffffff19166bffffffffffffffffffffffff1916815260200190815260200160002060009054906101000a900473ffffffffffffffffffffffffffffffffffffffff1673ffffffffffffffffffffffffffffffffffffffff16141515611710576040517f08c379a00000000000000000000000000000000000000000000000000000000081526004018080602001828103825260338152602001807f4f726273204164647265737320697320616c726561647920696e20757365206281526020017f7920616e6f746865722076616c696461746f720000000000000000000000000081525060400191505060405180910390fd5b8060016000877bffffffffffffffffffffffffffffffffffffffffffffffffffffffff19167bffffffffffffffffffffffffffffffffffffffffffffffffffffffff1916815260200190815260200160002060006101000a81548173ffffffffffffffffffffffffffffffffffffffff021916908373ffffffffffffffffffffffffffffffffffffffff1602179055508060026000846bffffffffffffffffffffffff19166bffffffffffffffffffffffff1916815260200190815260200160002060006101000a81548173ffffffffffffffffffffffffffffffffffffffff021916908373ffffffffffffffffffffffffffffffffffffffff16021790555060c06040519081016040528088888080601f0160208091040260200160405190810160405280939291908181526020018383808284378201915050505050508152602001867bffffffffffffffffffffffffffffffffffffffffffffffffffffffff1916815260200185858080601f0160208091040260200160405190810160405280939291908181526020018383808284378201915050505050508152602001836bffffffffffffffffffffffff19168152602001438152602001438152506000808373ffffffffffffffffffffffffffffffffffffffff1673ffffffffffffffffffffffffffffffffffffffff168152602001908152602001600020600082015181600001908051906020019061192a929190612050565b5060208201518160010160006101000a81548163ffffffff02191690837c0100000000000000000000000000000000000000000000000000000000900402179055506040820151816002019080519060200190611988929190612050565b5060608201518160030160006101000a81548173ffffffffffffffffffffffffffffffffffffffff02191690836c01000000000000000000000000900402179055506080820151816004015560a082015181600501559050508073ffffffffffffffffffffffffffffffffffffffff167fd09501348473474a20c772c79c653e1fd7e8b437e418fe235d277d2c8885325160405160405180910390a250505050505050565b600080611a3933611d1e565b1515611ad3576040517f08c379a00000000000000000000000000000000000000000000000000000000081526004018080602001828103825260228152602001807f596f75206d757374206265206120726567697374657265642076616c6964617481526020017f6f7200000000000000000000000000000000000000000000000000000000000081525060400191505060405180910390fd5b3391506000808373ffffffffffffffffffffffffffffffffffffffff1673ffffffffffffffffffffffffffffffffffffffff1681526020019081526020016000209050600160008260010160009054906101000a90047c0100000000000000000000000000000000000000000000000000000000027bffffffffffffffffffffffffffffffffffffffffffffffffffffffff19167bffffffffffffffffffffffffffffffffffffffffffffffffffffffff1916815260200190815260200160002060006101000a81549073ffffffffffffffffffffffffffffffffffffffff0219169055600260008260030160009054906101000a90046c01000000000000000000000000026bffffffffffffffffffffffff19166bffffffffffffffffffffffff1916815260200190815260200160002060006101000a81549073ffffffffffffffffffffffffffffffffffffffff02191690556000808373ffffffffffffffffffffffffffffffffffffffff1673ffffffffffffffffffffffffffffffffffffffff16815260200190815260200160002060008082016000611c7791906120d0565b6001820160006101000a81549063ffffffff0219169055600282016000611c9e91906120d0565b6003820160006101000a81549073ffffffffffffffffffffffffffffffffffffffff02191690556004820160009055600582016000905550508173ffffffffffffffffffffffffffffffffffffffff167f457a63bb4fcc8a2d38fb6141645ce9afbb084a1e63edee2799243c96a0498a0e60405160405180910390a25050565b6000806000808473ffffffffffffffffffffffffffffffffffffffff1673ffffffffffffffffffffffffffffffffffffffff16815260200190815260200160002060040154119050919050565b600181565b60008073ffffffffffffffffffffffffffffffffffffffff1660016000847bffffffffffffffffffffffffffffffffffffffffffffffffffffffff19167bffffffffffffffffffffffffffffffffffffffffffffffffffffffff1916815260200190815260200160002060009054906101000a900473ffffffffffffffffffffffffffffffffffffffff1673ffffffffffffffffffffffffffffffffffffffff161480611eb957503373ffffffffffffffffffffffffffffffffffffffff1660016000847bffffffffffffffffffffffffffffffffffffffffffffffffffffffff19167bffffffffffffffffffffffffffffffffffffffffffffffffffffffff1916815260200190815260200160002060009054906101000a900473ffffffffffffffffffffffffffffffffffffffff1673ffffffffffffffffffffffffffffffffffffffff16145b9050919050565b60008073ffffffffffffffffffffffffffffffffffffffff1660026000846bffffffffffffffffffffffff19166bffffffffffffffffffffffff1916815260200190815260200160002060009054906101000a900473ffffffffffffffffffffffffffffffffffffffff1673ffffffffffffffffffffffffffffffffffffffff161480611fc957503373ffffffffffffffffffffffffffffffffffffffff1660026000846bffffffffffffffffffffffff19166bffffffffffffffffffffffff1916815260200190815260200160002060009054906101000a900473ffffffffffffffffffffffffffffffffffffffff1673ffffffffffffffffffffffffffffffffffffffff16145b9050919050565b828054600181600116156101000203166002900490600052602060002090601f016020900481019282601f1061201157803560ff191683800117855561203f565b8280016001018555821561203f579182015b8281111561203e578235825591602001919060010190612023565b5b50905061204c9190612118565b5090565b828054600181600116156101000203166002900490600052602060002090601f016020900481019282601f1061209157805160ff19168380011785556120bf565b828001600101855582156120bf579182015b828111156120be5782518255916020019190600101906120a3565b5b5090506120cc9190612118565b5090565b50805460018160011615610100020316600290046000825580601f106120f65750612115565b601f0160209004906000526020600020908101906121149190612118565b5b50565b61213a91905b8082111561213657600081600090555060010161211e565b5090565b905600a165627a7a72305820b11a7b5f90e22f286d427439a150b562fd8d06ade6da146b7558605c44548eed0029",
  "compiler": {
    "name": "solc",
    "version": "0.4.25+commit.59dbf8f1.Emscripten.clang"
  },
  "schemaVersion": "3.0.2",
  "updatedAt": "2019-03-24T19:52:39.215Z",
  "devdoc": {
    "methods": {
      "getOrbsAddress(address)": {
        "details": "returns the orbs node public address of a specific validator.",
        "params": {
          "validator": "address address of the validator"
        },
        "return": "an Orbs node address"
      },
      "getRegistrationBlockNumber(address)": {
        "details": "returns the blocks in which a validator was registered and last updated. if validator does not designate a registered validator this method returns zero values.",
        "params": {
          "validator": "address of a validator"
        }
      },
      "getValidatorData(address)": {
        "details": "returns validator registration data.",
        "params": {
          "validator": "address address of the validator."
        }
      },
      "isValidator(address)": {
        "details": "Checks if validator is currently registered as a validator.",
        "params": {
          "validator": "address address of the validator"
        },
        "return": "true iff validator belongs to a registered validator"
      },
      "leave()": {
        "details": "deletes a validator registration entry associated with msg.sender."
      },
      "register(string,bytes4,string,bytes20)": {
        "details": "register a validator and provide registration data. the new validator entry will be owned and identified by msg.sender. if msg.sender is already registered as a validator in this registry the transaction will fail.",
        "params": {
          "ipAddress": "bytes4 The validator node ip address. If another validator previously registered this ipAddress the transaction will fail",
          "name": "string The name of the validator",
          "orbsAddress": "bytes20 The validator node orbs public address. If another validator previously registered this orbsAddress the transaction will fail",
          "website": "string The website of the validator"
        }
      },
      "update(string,bytes4,string,bytes20)": {
        "details": "update the validator registration data entry associated with msg.sender. msg.sender must be registered in this registry contract.",
        "params": {
          "ipAddress": "bytes4 The validator node ip address. If another validator previously registered this ipAddress the transaction will fail",
          "name": "string The name of the validator",
          "orbsAddress": "bytes20 The validator node orbs public address. If another validator previously registered this orbsAddress the transaction will fail",
          "website": "string The website of the validator"
        }
      }
    },
    "title": "Orbs Validators Registry smart contract."
  },
  "userdoc": {
    "methods": {}
  }
}