{
  "contractName": "OrbsValidatorsRegistry",
  "abi": [
    {
      "constant": true,
      "inputs": [
        {
          "name": "",
          "type": "bytes4"
        }
      ],
      "name": "lookupByIp",
      "outputs": [
        {
          "name": "",
          "type": "address"
        }
      ],
      "payable": false,
      "stateMutability": "view",
      "type": "function"
    },
    {
      "constant": true,
      "inputs": [
        {
          "name": "",
          "type": "bytes20"
        }
      ],
      "name": "lookupByOrbsAddr",
      "outputs": [
        {
          "name": "",
          "type": "address"
        }
      ],
      "payable": false,
      "stateMutability": "view",
      "type": "function"
    },
    {
      "constant": true,
      "inputs": [],
      "name": "VERSION",
      "outputs": [
        {
          "name": "",
          "type": "uint256"
        }
      ],
      "payable": false,
      "stateMutability": "view",
      "type": "function"
    },
    {
      "anonymous": false,
      "inputs": [
        {
          "indexed": true,
          "name": "validator",
          "type": "address"
        }
      ],
      "name": "ValidatorLeft",
      "type": "event"
    },
    {
      "anonymous": false,
      "inputs": [
        {
          "indexed": true,
          "name": "validator",
          "type": "address"
        }
      ],
      "name": "ValidatorRegistered",
      "type": "event"
    },
    {
      "anonymous": false,
      "inputs": [
        {
          "indexed": true,
          "name": "validator",
          "type": "address"
        }
      ],
      "name": "ValidatorUpdated",
      "type": "event"
    },
    {
      "constant": false,
      "inputs": [
        {
          "name": "name",
          "type": "string"
        },
        {
          "name": "ipAddress",
          "type": "bytes4"
        },
        {
          "name": "website",
          "type": "string"
        },
        {
          "name": "orbsAddress",
          "type": "bytes20"
        }
      ],
      "name": "register",
      "outputs": [],
      "payable": false,
      "stateMutability": "nonpayable",
      "type": "function"
    },
    {
      "constant": false,
      "inputs": [
        {
          "name": "name",
          "type": "string"
        },
        {
          "name": "ipAddress",
          "type": "bytes4"
        },
        {
          "name": "website",
          "type": "string"
        },
        {
          "name": "orbsAddress",
          "type": "bytes20"
        }
      ],
      "name": "update",
      "outputs": [],
      "payable": false,
      "stateMutability": "nonpayable",
      "type": "function"
    },
    {
      "constant": false,
      "inputs": [],
      "name": "leave",
      "outputs": [],
      "payable": false,
      "stateMutability": "nonpayable",
      "type": "function"
    },
    {
      "constant": true,
      "inputs": [],
      "name": "reviewRegistration",
      "outputs": [
        {
          "name": "name",
          "type": "string"
        },
        {
          "name": "ipAddress",
          "type": "bytes4"
        },
        {
          "name": "website",
          "type": "string"
        },
        {
          "name": "orbsAddress",
          "type": "bytes20"
        }
      ],
      "payable": false,
      "stateMutability": "view",
      "type": "function"
    },
    {
      "constant": true,
      "inputs": [
        {
          "name": "validator",
          "type": "address"
        }
      ],
      "name": "getRegistrationBlockNumber",
      "outputs": [
        {
          "name": "registeredOn",
          "type": "uint256"
        },
        {
          "name": "lastUpdatedOn",
          "type": "uint256"
        }
      ],
      "payable": false,
      "stateMutability": "view",
      "type": "function"
    },
    {
      "constant": true,
      "inputs": [
        {
          "name": "validator",
          "type": "address"
        }
      ],
      "name": "getOrbsAddress",
      "outputs": [
        {
          "name": "",
          "type": "bytes20"
        }
      ],
      "payable": false,
      "stateMutability": "view",
      "type": "function"
    },
    {
      "constant": true,
      "inputs": [
        {
          "name": "validator",
          "type": "address"
        }
      ],
      "name": "getValidatorData",
      "outputs": [
        {
          "name": "name",
          "type": "string"
        },
        {
          "name": "ipAddress",
          "type": "bytes4"
        },
        {
          "name": "website",
          "type": "string"
        },
        {
          "name": "orbsAddress",
          "type": "bytes20"
        }
      ],
      "payable": false,
      "stateMutability": "view",
      "type": "function"
    },
    {
      "constant": true,
      "inputs": [
        {
          "name": "validator",
          "type": "address"
        }
      ],
      "name": "isValidator",
      "outputs": [
        {
          "name": "",
          "type": "bool"
        }
      ],
      "payable": false,
      "stateMutability": "view",
      "type": "function"
    }
  ],
  "bytecode": "0x608060405234801561001057600080fd5b506122f9806100206000396000f3006080604052600436106100af576000357c0100000000000000000000000000000000000000000000000000000000900463ffffffff1680630d69ac04146100b45780632536f8b5146101405780632b19e34e146102d257806350d8f7861461034e5780639b9fb164146103ac578063ada7807514610441578063c611e584146104b6578063d66d9e191461054b578063f35d2a8f14610562578063facd743b146106c8578063ffa1ad7414610723575b600080fd5b3480156100c057600080fd5b506100fe60048036038101908080357bffffffffffffffffffffffffffffffffffffffffffffffffffffffff1916906020019092919050505061074e565b604051808273ffffffffffffffffffffffffffffffffffffffff1673ffffffffffffffffffffffffffffffffffffffff16815260200191505060405180910390f35b34801561014c57600080fd5b50610181600480360381019080803573ffffffffffffffffffffffffffffffffffffffff169060200190929190505050610781565b6040518080602001857bffffffffffffffffffffffffffffffffffffffffffffffffffffffff19167bffffffffffffffffffffffffffffffffffffffffffffffffffffffff1916815260200180602001846bffffffffffffffffffffffff19166bffffffffffffffffffffffff19168152602001838103835287818151815260200191508051906020019080838360005b8381101561022d578082015181840152602081019050610212565b50505050905090810190601f16801561025a5780820380516001836020036101000a031916815260200191505b50838103825285818151815260200191508051906020019080838360005b83811015610293578082015181840152602081019050610278565b50505050905090810190601f1680156102c05780820380516001836020036101000a031916815260200191505b50965050505050505060405180910390f35b3480156102de57600080fd5b5061030c60048036038101908080356bffffffffffffffffffffffff19169060200190929190505050610960565b604051808273ffffffffffffffffffffffffffffffffffffffff1673ffffffffffffffffffffffffffffffffffffffff16815260200191505060405180910390f35b34801561035a57600080fd5b5061038f600480360381019080803573ffffffffffffffffffffffffffffffffffffffff169060200190929190505050610993565b604051808381526020018281526020019250505060405180910390f35b3480156103b857600080fd5b5061043f60048036038101908080359060200190820180359060200191909192939192939080357bffffffffffffffffffffffffffffffffffffffffffffffffffffffff1916906020019092919080359060200190820180359060200191909192939192939080356bffffffffffffffffffffffff19169060200190929190505050610a69565b005b34801561044d57600080fd5b50610482600480360381019080803573ffffffffffffffffffffffffffffffffffffffff169060200190929190505050611286565b60405180826bffffffffffffffffffffffff19166bffffffffffffffffffffffff1916815260200191505060405180910390f35b3480156104c257600080fd5b5061054960048036038101908080359060200190820180359060200191909192939192939080357bffffffffffffffffffffffffffffffffffffffffffffffffffffffff1916906020019092919080359060200190820180359060200191909192939192939080356bffffffffffffffffffffffff191690602001909291905050506112ea565b005b34801561055757600080fd5b50610560611b9e565b005b34801561056e57600080fd5b50610577611e8f565b6040518080602001857bffffffffffffffffffffffffffffffffffffffffffffffffffffffff19167bffffffffffffffffffffffffffffffffffffffffffffffffffffffff1916815260200180602001846bffffffffffffffffffffffff19166bffffffffffffffffffffffff19168152602001838103835287818151815260200191508051906020019080838360005b83811015610623578082015181840152602081019050610608565b50505050905090810190601f1680156106505780820380516001836020036101000a031916815260200191505b50838103825285818151815260200191508051906020019080838360005b8381101561068957808201518184015260208101905061066e565b50505050905090810190601f1680156106b65780820380516001836020036101000a031916815260200191505b50965050505050505060405180910390f35b3480156106d457600080fd5b50610709600480360381019080803573ffffffffffffffffffffffffffffffffffffffff169060200190929190505050611eae565b604051808215151515815260200191505060405180910390f35b34801561072f57600080fd5b50610738611efb565b6040518082815260200191505060405180910390f35b60016020528060005260406000206000915054906101000a900473ffffffffffffffffffffffffffffffffffffffff1681565b6060600060606000806000808773ffffffffffffffffffffffffffffffffffffffff1673ffffffffffffffffffffffffffffffffffffffff1681526020019081526020016000209050806000018054600181600116156101000203166002900480601f0160208091040260200160405190810160405280929190818152602001828054600181600116156101000203166002900480156108625780601f1061083757610100808354040283529160200191610862565b820191906000526020600020905b81548152906001019060200180831161084557829003601f168201915b505050505094508060010160009054906101000a90047c0100000000000000000000000000000000000000000000000000000000029350806002018054600181600116156101000203166002900480601f0160208091040260200160405190810160405280929190818152602001828054600181600116156101000203166002900480156109315780601f1061090657610100808354040283529160200191610931565b820191906000526020600020905b81548152906001019060200180831161091457829003601f168201915b505050505092508060030160009054906101000a90046c01000000000000000000000000029150509193509193565b60026020528060005260406000206000915054906101000a900473ffffffffffffffffffffffffffffffffffffffff1681565b60008060006109a184611eae565b1515610a15576040517f08c379a00000000000000000000000000000000000000000000000000000000081526004018080602001828103825260128152602001807f556e6c69737465642056616c696461746f72000000000000000000000000000081525060200191505060405180910390fd5b6000808573ffffffffffffffffffffffffffffffffffffffff1673ffffffffffffffffffffffffffffffffffffffff1681526020019081526020016000209050806004015492508060050154915050915091565b600080610a7533611eae565b1515610b0f576040517f08c379a00000000000000000000000000000000000000000000000000000000081526004018080602001828103825260228152602001807f596f75206d757374206265206120726567697374657265642076616c6964617481526020017f6f7200000000000000000000000000000000000000000000000000000000000081525060400191505060405180910390fd5b339150600088889050111515610b8d576040517f08c379a000000000000000000000000000000000000000000000000000000000815260040180806020018281038252601b8152602001807f506c656173652070726f7669646520612076616c6964206e616d65000000000081525060200191505060405180910390fd5b600085859050111515610c08576040517f08c379a000000000000000000000000000000000000000000000000000000000815260040180806020018281038252601e8152602001807f506c656173652070726f7669646520612076616c69642077656273697465000081525060200191505060405180910390fd5b60007c0100000000000000000000000000000000000000000000000000000000027bffffffffffffffffffffffffffffffffffffffffffffffffffffffff1916867bffffffffffffffffffffffffffffffffffffffffffffffffffffffff191614151515610d2a576040517f08c379a00000000000000000000000000000000000000000000000000000000081526004018080602001828103825260498152602001807f506c65617365207061737320612076616c69642069702061646472657373207281526020017f6570726573656e74656420617320616e206172726179206f662065786163746c81526020017f792034206279746573000000000000000000000000000000000000000000000081525060600191505060405180910390fd5b60006c01000000000000000000000000026bffffffffffffffffffffffff1916836bffffffffffffffffffffffff191614151515610df6576040517f08c379a00000000000000000000000000000000000000000000000000000000081526004018080602001828103825260238152602001807f506c656173652070726f7669646520612076616c6964204f726273204164647281526020017f657373000000000000000000000000000000000000000000000000000000000081525060400191505060405180910390fd5b610dff86611f00565b1515610e99576040517f08c379a00000000000000000000000000000000000000000000000000000000081526004018080602001828103825260318152602001807f4950204164647265737320697320616c726561647920696e207573652062792081526020017f616e6f746865722076616c696461746f7200000000000000000000000000000081525060400191505060405180910390fd5b610ea283612050565b1515610f3c576040517f08c379a00000000000000000000000000000000000000000000000000000000081526004018080602001828103825260338152602001807f4f726273204164647265737320697320616c726561647920696e20757365206281526020017f7920616e6f746865722076616c696461746f720000000000000000000000000081525060400191505060405180910390fd5b6000808373ffffffffffffffffffffffffffffffffffffffff1673ffffffffffffffffffffffffffffffffffffffff1681526020019081526020016000209050600160008260010160009054906101000a90047c0100000000000000000000000000000000000000000000000000000000027bffffffffffffffffffffffffffffffffffffffffffffffffffffffff19167bffffffffffffffffffffffffffffffffffffffffffffffffffffffff1916815260200190815260200160002060006101000a81549073ffffffffffffffffffffffffffffffffffffffff0219169055600260008260030160009054906101000a90046c01000000000000000000000000026bffffffffffffffffffffffff19166bffffffffffffffffffffffff1916815260200190815260200160002060006101000a81549073ffffffffffffffffffffffffffffffffffffffff02191690558160016000887bffffffffffffffffffffffffffffffffffffffffffffffffffffffff19167bffffffffffffffffffffffffffffffffffffffffffffffffffffffff1916815260200190815260200160002060006101000a81548173ffffffffffffffffffffffffffffffffffffffff021916908373ffffffffffffffffffffffffffffffffffffffff1602179055508160026000856bffffffffffffffffffffffff19166bffffffffffffffffffffffff1916815260200190815260200160002060006101000a81548173ffffffffffffffffffffffffffffffffffffffff021916908373ffffffffffffffffffffffffffffffffffffffff16021790555087878260000191906111a1929190612160565b50858160010160006101000a81548163ffffffff02191690837c01000000000000000000000000000000000000000000000000000000009004021790555084848260020191906111f2929190612160565b50828160030160006101000a81548173ffffffffffffffffffffffffffffffffffffffff02191690836c01000000000000000000000000900402179055504381600501819055508173ffffffffffffffffffffffffffffffffffffffff167fb3a3a56265020415cf2f7ff198e2052a6e1d43d7eb127450af725829e40e08c260405160405180910390a25050505050505050565b60008060008373ffffffffffffffffffffffffffffffffffffffff1673ffffffffffffffffffffffffffffffffffffffff16815260200190815260200160002060030160009054906101000a90046c01000000000000000000000000029050919050565b600033905060008787905011151561136a576040517f08c379a000000000000000000000000000000000000000000000000000000000815260040180806020018281038252601b8152602001807f506c656173652070726f7669646520612076616c6964206e616d65000000000081525060200191505060405180910390fd5b6000848490501115156113e5576040517f08c379a000000000000000000000000000000000000000000000000000000000815260040180806020018281038252601e8152602001807f506c656173652070726f7669646520612076616c69642077656273697465000081525060200191505060405180910390fd5b6113ee81611eae565b151515611463576040517f08c379a00000000000000000000000000000000000000000000000000000000081526004018080602001828103825260188152602001807f56616c696461746f7220616c726561647920657869737473000000000000000081525060200191505060405180910390fd5b60007c0100000000000000000000000000000000000000000000000000000000027bffffffffffffffffffffffffffffffffffffffffffffffffffffffff1916857bffffffffffffffffffffffffffffffffffffffffffffffffffffffff191614151515611585576040517f08c379a00000000000000000000000000000000000000000000000000000000081526004018080602001828103825260498152602001807f506c65617365207061737320612076616c69642069702061646472657373207281526020017f6570726573656e74656420617320616e206172726179206f662065786163746c81526020017f792034206279746573000000000000000000000000000000000000000000000081525060600191505060405180910390fd5b60006c01000000000000000000000000026bffffffffffffffffffffffff1916826bffffffffffffffffffffffff191614151515611651576040517f08c379a00000000000000000000000000000000000000000000000000000000081526004018080602001828103825260238152602001807f506c656173652070726f7669646520612076616c6964204f726273204164647281526020017f657373000000000000000000000000000000000000000000000000000000000081525060400191505060405180910390fd5b600073ffffffffffffffffffffffffffffffffffffffff1660016000877bffffffffffffffffffffffffffffffffffffffffffffffffffffffff19167bffffffffffffffffffffffffffffffffffffffffffffffffffffffff1916815260200190815260200160002060009054906101000a900473ffffffffffffffffffffffffffffffffffffffff1673ffffffffffffffffffffffffffffffffffffffff16141515611766576040517f08c379a00000000000000000000000000000000000000000000000000000000081526004018080602001828103825260198152602001807f4950206164647265737320616c726561647920696e207573650000000000000081525060200191505060405180910390fd5b600073ffffffffffffffffffffffffffffffffffffffff1660026000846bffffffffffffffffffffffff19166bffffffffffffffffffffffff1916815260200190815260200160002060009054906101000a900473ffffffffffffffffffffffffffffffffffffffff1673ffffffffffffffffffffffffffffffffffffffff16141515611881576040517f08c379a00000000000000000000000000000000000000000000000000000000081526004018080602001828103825260338152602001807f4f726273204164647265737320697320616c726561647920696e20757365206281526020017f7920616e6f746865722076616c696461746f720000000000000000000000000081525060400191505060405180910390fd5b8060016000877bffffffffffffffffffffffffffffffffffffffffffffffffffffffff19167bffffffffffffffffffffffffffffffffffffffffffffffffffffffff1916815260200190815260200160002060006101000a81548173ffffffffffffffffffffffffffffffffffffffff021916908373ffffffffffffffffffffffffffffffffffffffff1602179055508060026000846bffffffffffffffffffffffff19166bffffffffffffffffffffffff1916815260200190815260200160002060006101000a81548173ffffffffffffffffffffffffffffffffffffffff021916908373ffffffffffffffffffffffffffffffffffffffff16021790555060c06040519081016040528088888080601f0160208091040260200160405190810160405280939291908181526020018383808284378201915050505050508152602001867bffffffffffffffffffffffffffffffffffffffffffffffffffffffff1916815260200185858080601f0160208091040260200160405190810160405280939291908181526020018383808284378201915050505050508152602001836bffffffffffffffffffffffff19168152602001438152602001438152506000808373ffffffffffffffffffffffffffffffffffffffff1673ffffffffffffffffffffffffffffffffffffffff1681526020019081526020016000206000820151816000019080519060200190611a9b9291906121e0565b5060208201518160010160006101000a81548163ffffffff02191690837c0100000000000000000000000000000000000000000000000000000000900402179055506040820151816002019080519060200190611af99291906121e0565b5060608201518160030160006101000a81548173ffffffffffffffffffffffffffffffffffffffff02191690836c01000000000000000000000000900402179055506080820151816004015560a082015181600501559050508073ffffffffffffffffffffffffffffffffffffffff167fd09501348473474a20c772c79c653e1fd7e8b437e418fe235d277d2c8885325160405160405180910390a250505050505050565b600080611baa33611eae565b1515611c44576040517f08c379a00000000000000000000000000000000000000000000000000000000081526004018080602001828103825260228152602001807f596f75206d757374206265206120726567697374657265642076616c6964617481526020017f6f7200000000000000000000000000000000000000000000000000000000000081525060400191505060405180910390fd5b3391506000808373ffffffffffffffffffffffffffffffffffffffff1673ffffffffffffffffffffffffffffffffffffffff1681526020019081526020016000209050600160008260010160009054906101000a90047c0100000000000000000000000000000000000000000000000000000000027bffffffffffffffffffffffffffffffffffffffffffffffffffffffff19167bffffffffffffffffffffffffffffffffffffffffffffffffffffffff1916815260200190815260200160002060006101000a81549073ffffffffffffffffffffffffffffffffffffffff0219169055600260008260030160009054906101000a90046c01000000000000000000000000026bffffffffffffffffffffffff19166bffffffffffffffffffffffff1916815260200190815260200160002060006101000a81549073ffffffffffffffffffffffffffffffffffffffff02191690556000808373ffffffffffffffffffffffffffffffffffffffff1673ffffffffffffffffffffffffffffffffffffffff16815260200190815260200160002060008082016000611de89190612260565b6001820160006101000a81549063ffffffff0219169055600282016000611e0f9190612260565b6003820160006101000a81549073ffffffffffffffffffffffffffffffffffffffff02191690556004820160009055600582016000905550508173ffffffffffffffffffffffffffffffffffffffff167f457a63bb4fcc8a2d38fb6141645ce9afbb084a1e63edee2799243c96a0498a0e60405160405180910390a25050565b6060600060606000611ea033610781565b935093509350935090919293565b6000806000808473ffffffffffffffffffffffffffffffffffffffff1673ffffffffffffffffffffffffffffffffffffffff16815260200190815260200160002060040154119050919050565b600181565b60008073ffffffffffffffffffffffffffffffffffffffff1660016000847bffffffffffffffffffffffffffffffffffffffffffffffffffffffff19167bffffffffffffffffffffffffffffffffffffffffffffffffffffffff1916815260200190815260200160002060009054906101000a900473ffffffffffffffffffffffffffffffffffffffff1673ffffffffffffffffffffffffffffffffffffffff16148061204957503373ffffffffffffffffffffffffffffffffffffffff1660016000847bffffffffffffffffffffffffffffffffffffffffffffffffffffffff19167bffffffffffffffffffffffffffffffffffffffffffffffffffffffff1916815260200190815260200160002060009054906101000a900473ffffffffffffffffffffffffffffffffffffffff1673ffffffffffffffffffffffffffffffffffffffff16145b9050919050565b60008073ffffffffffffffffffffffffffffffffffffffff1660026000846bffffffffffffffffffffffff19166bffffffffffffffffffffffff1916815260200190815260200160002060009054906101000a900473ffffffffffffffffffffffffffffffffffffffff1673ffffffffffffffffffffffffffffffffffffffff16148061215957503373ffffffffffffffffffffffffffffffffffffffff1660026000846bffffffffffffffffffffffff19166bffffffffffffffffffffffff1916815260200190815260200160002060009054906101000a900473ffffffffffffffffffffffffffffffffffffffff1673ffffffffffffffffffffffffffffffffffffffff16145b9050919050565b828054600181600116156101000203166002900490600052602060002090601f016020900481019282601f106121a157803560ff19168380011785556121cf565b828001600101855582156121cf579182015b828111156121ce5782358255916020019190600101906121b3565b5b5090506121dc91906122a8565b5090565b828054600181600116156101000203166002900490600052602060002090601f016020900481019282601f1061222157805160ff191683800117855561224f565b8280016001018555821561224f579182015b8281111561224e578251825591602001919060010190612233565b5b50905061225c91906122a8565b5090565b50805460018160011615610100020316600290046000825580601f1061228657506122a5565b601f0160209004906000526020600020908101906122a491906122a8565b5b50565b6122ca91905b808211156122c65760008160009055506001016122ae565b5090565b905600a165627a7a72305820c2fae73e94454ef18577c4fa24962acf6f3aa2a0ce52cfd9c788cda1e6d493ce0029",
  "compiler": {
    "name": "solc",
    "version": "0.4.25+commit.59dbf8f1.Emscripten.clang"
  },
  "schemaVersion": "3.0.2",
  "updatedAt": "2019-03-24T18:25:49.029Z",
  "devdoc": {
    "methods": {
      "getOrbsAddress(address)": {
        "details": "returns the orbs node public address of a specific validator.",
        "params": {
          "validator": "address address of the validator"
        },
        "return": "an Orbs node address"
      },
      "getRegistrationBlockNumber(address)": {
        "details": "returns the blocks in which a validator was registered and last updated. if validator does not designate a registered validator this method returns zero values.",
        "params": {
          "validator": "address of a validator"
        }
      },
      "getValidatorData(address)": {
        "details": "returns validator registration data.",
        "params": {
          "validator": "address address of the validator."
        }
      },
      "isValidator(address)": {
        "details": "Checks if validator is currently registered as a validator.",
        "params": {
          "validator": "address address of the validator"
        },
        "return": "true iff validator belongs to a registered validator"
      },
      "leave()": {
        "details": "deletes a validator registration entry associated with msg.sender."
      },
      "register(string,bytes4,string,bytes20)": {
        "details": "register a validator and provide registration data. the new validator entry will be owned and identified by msg.sender. if msg.sender is already registered as a validator in this registry the transaction will fail.",
        "params": {
          "ipAddress": "bytes4 The validator node ip address. If another validator previously registered this ipAddress the transaction will fail",
          "name": "string The name of the validator",
          "orbsAddress": "bytes20 The validator node orbs public address. If another validator previously registered this orbsAddress the transaction will fail",
          "website": "string The website of the validator"
        }
      },
      "reviewRegistration()": {
        "details": "Convenience method to retrieve the registration data associated with msg.sender - typically for review after a successful registration. same as calling getValidatorData(msg.sender)"
      },
      "update(string,bytes4,string,bytes20)": {
        "details": "update the validator registration data entry associated with msg.sender. msg.sender must be registered in this registry contract.",
        "params": {
          "ipAddress": "bytes4 The validator node ip address. If another validator previously registered this ipAddress the transaction will fail",
          "name": "string The name of the validator",
          "orbsAddress": "bytes20 The validator node orbs public address. If another validator previously registered this orbsAddress the transaction will fail",
          "website": "string The website of the validator"
        }
      }
    },
    "title": "Orbs Validators Registry smart contract."
  },
  "userdoc": {
    "methods": {}
  }
}