{
  "contractName": "OrbsValidators",
  "abi": [
    {
      "constant": true,
      "inputs": [],
      "name": "MAX_FEDERATION_MEMBERS",
      "outputs": [
        {
          "name": "",
          "type": "uint256"
        }
      ],
      "payable": false,
      "stateMutability": "view",
      "type": "function"
    },
    {
      "constant": true,
      "inputs": [
        {
          "name": "",
          "type": "uint256"
        }
      ],
      "name": "members",
      "outputs": [
        {
          "name": "",
          "type": "address"
        }
      ],
      "payable": false,
      "stateMutability": "view",
      "type": "function"
    },
    {
      "constant": false,
      "inputs": [],
      "name": "renounceOwnership",
      "outputs": [],
      "payable": false,
      "stateMutability": "nonpayable",
      "type": "function"
    },
    {
      "constant": true,
      "inputs": [],
      "name": "owner",
      "outputs": [
        {
          "name": "",
          "type": "address"
        }
      ],
      "payable": false,
      "stateMutability": "view",
      "type": "function"
    },
    {
      "constant": true,
      "inputs": [],
      "name": "isOwner",
      "outputs": [
        {
          "name": "",
          "type": "bool"
        }
      ],
      "payable": false,
      "stateMutability": "view",
      "type": "function"
    },
    {
      "constant": false,
      "inputs": [
        {
          "name": "newOwner",
          "type": "address"
        }
      ],
      "name": "transferOwnership",
      "outputs": [],
      "payable": false,
      "stateMutability": "nonpayable",
      "type": "function"
    },
    {
      "constant": true,
      "inputs": [],
      "name": "VERSION",
      "outputs": [
        {
          "name": "",
          "type": "uint256"
        }
      ],
      "payable": false,
      "stateMutability": "view",
      "type": "function"
    },
    {
      "anonymous": false,
      "inputs": [
        {
          "indexed": true,
          "name": "validator",
          "type": "address"
        }
      ],
      "name": "ValidatorAdded",
      "type": "event"
    },
    {
      "anonymous": false,
      "inputs": [
        {
          "indexed": true,
          "name": "validator",
          "type": "address"
        }
      ],
      "name": "ValidatorLeft",
      "type": "event"
    },
    {
      "anonymous": false,
      "inputs": [
        {
          "indexed": true,
          "name": "previousOwner",
          "type": "address"
        },
        {
          "indexed": true,
          "name": "newOwner",
          "type": "address"
        }
      ],
      "name": "OwnershipTransferred",
      "type": "event"
    },
    {
      "constant": false,
      "inputs": [
        {
          "name": "_validator",
          "type": "address"
        }
      ],
      "name": "addValidator",
      "outputs": [],
      "payable": false,
      "stateMutability": "nonpayable",
      "type": "function"
    },
    {
      "constant": true,
      "inputs": [
        {
          "name": "m",
          "type": "address"
        }
      ],
      "name": "isValidator",
      "outputs": [
        {
          "name": "",
          "type": "bool"
        }
      ],
      "payable": false,
      "stateMutability": "view",
      "type": "function"
    },
    {
      "constant": true,
      "inputs": [],
      "name": "getValidators",
      "outputs": [
        {
          "name": "",
          "type": "address[]"
        }
      ],
      "payable": false,
      "stateMutability": "view",
      "type": "function"
    },
    {
      "constant": false,
      "inputs": [],
      "name": "leave",
      "outputs": [
        {
          "name": "",
          "type": "bool"
        }
      ],
      "payable": false,
      "stateMutability": "nonpayable",
      "type": "function"
    }
  ],
  "bytecode": "0x6080604052336000806101000a81548173ffffffffffffffffffffffffffffffffffffffff021916908373ffffffffffffffffffffffffffffffffffffffff1602179055506000809054906101000a900473ffffffffffffffffffffffffffffffffffffffff1673ffffffffffffffffffffffffffffffffffffffff16600073ffffffffffffffffffffffffffffffffffffffff167f8be0079c531659141344cd1fd0a4f28419497f9722a3daafe3b4186f6b6457e060405160405180910390a3610be6806100cf6000396000f3fe608060405234801561001057600080fd5b50600436106100c6576000357c0100000000000000000000000000000000000000000000000000000000900480638f32d59b1161008e5780638f32d59b146101ef578063b7ab4db514610211578063d66d9e1914610270578063f2fde38b14610292578063facd743b146102d6578063ffa1ad7414610332576100c6565b8063265751cf146100cb5780634d238c8e146100e95780635daf08ca1461012d578063715018a61461019b5780638da5cb5b146101a5575b600080fd5b6100d3610350565b6040518082815260200191505060405180910390f35b61012b600480360360208110156100ff57600080fd5b81019080803573ffffffffffffffffffffffffffffffffffffffff169060200190929190505050610355565b005b6101596004803603602081101561014357600080fd5b810190808035906020019092919050505061059b565b604051808273ffffffffffffffffffffffffffffffffffffffff1673ffffffffffffffffffffffffffffffffffffffff16815260200191505060405180910390f35b6101a36105d9565b005b6101ad6106ab565b604051808273ffffffffffffffffffffffffffffffffffffffff1673ffffffffffffffffffffffffffffffffffffffff16815260200191505060405180910390f35b6101f76106d4565b604051808215151515815260200191505060405180910390f35b61021961072b565b6040518080602001828103825283818151815260200191508051906020019060200280838360005b8381101561025c578082015181840152602081019050610241565b505050509050019250505060405180910390f35b6102786107b9565b604051808215151515815260200191505060405180910390f35b6102d4600480360360208110156102a857600080fd5b81019080803573ffffffffffffffffffffffffffffffffffffffff169060200190929190505050610985565b005b610318600480360360208110156102ec57600080fd5b81019080803573ffffffffffffffffffffffffffffffffffffffff1690602001909291905050506109a4565b604051808215151515815260200191505060405180910390f35b61033a610a46565b6040518082815260200191505060405180910390f35b606481565b61035d6106d4565b151561036857600080fd5b600073ffffffffffffffffffffffffffffffffffffffff168173ffffffffffffffffffffffffffffffffffffffff161415151561040d576040517f08c379a00000000000000000000000000000000000000000000000000000000081526004018080602001828103825260168152602001807f41646472657373206d757374206e6f742062652030210000000000000000000081525060200191505060405180910390fd5b60016064036001805490501115151561048e576040517f08c379a00000000000000000000000000000000000000000000000000000000081526004018080602001828103825260178152602001807f43616e277420616464206d6f7265206d656d626572732100000000000000000081525060200191505060405180910390fd5b610497816109a4565b1515156104ef576040517f08c379a0000000000000000000000000000000000000000000000000000000008152600401808060200182810382526024815260200180610b976024913960400191505060405180910390fd5b60018190806001815401808255809150509060018203906000526020600020016000909192909190916101000a81548173ffffffffffffffffffffffffffffffffffffffff021916908373ffffffffffffffffffffffffffffffffffffffff160217905550508073ffffffffffffffffffffffffffffffffffffffff167fe366c1c0452ed8eec96861e9e54141ebff23c9ec89fe27b996b45f5ec388498760405160405180910390a250565b6001818154811015156105aa57fe5b906000526020600020016000915054906101000a900473ffffffffffffffffffffffffffffffffffffffff1681565b6105e16106d4565b15156105ec57600080fd5b600073ffffffffffffffffffffffffffffffffffffffff166000809054906101000a900473ffffffffffffffffffffffffffffffffffffffff1673ffffffffffffffffffffffffffffffffffffffff167f8be0079c531659141344cd1fd0a4f28419497f9722a3daafe3b4186f6b6457e060405160405180910390a360008060006101000a81548173ffffffffffffffffffffffffffffffffffffffff021916908373ffffffffffffffffffffffffffffffffffffffff160217905550565b60008060009054906101000a900473ffffffffffffffffffffffffffffffffffffffff16905090565b60008060009054906101000a900473ffffffffffffffffffffffffffffffffffffffff1673ffffffffffffffffffffffffffffffffffffffff163373ffffffffffffffffffffffffffffffffffffffff1614905090565b606060018054806020026020016040519081016040528092919081815260200182805480156107af57602002820191906000526020600020905b8160009054906101000a900473ffffffffffffffffffffffffffffffffffffffff1673ffffffffffffffffffffffffffffffffffffffff1681526020019060010190808311610765575b5050505050905090565b600080600090505b60018054905081101561097c573373ffffffffffffffffffffffffffffffffffffffff166001828154811015156107f457fe5b9060005260206000200160009054906101000a900473ffffffffffffffffffffffffffffffffffffffff1673ffffffffffffffffffffffffffffffffffffffff1614156109715760018080805490500381548110151561085057fe5b9060005260206000200160009054906101000a900473ffffffffffffffffffffffffffffffffffffffff1660018281548110151561088a57fe5b9060005260206000200160006101000a81548173ffffffffffffffffffffffffffffffffffffffff021916908373ffffffffffffffffffffffffffffffffffffffff1602179055506001818154811015156108e157fe5b9060005260206000200160006101000a81549073ffffffffffffffffffffffffffffffffffffffff021916905560018054809190600190036109239190610b45565b503373ffffffffffffffffffffffffffffffffffffffff167f457a63bb4fcc8a2d38fb6141645ce9afbb084a1e63edee2799243c96a0498a0e60405160405180910390a26001915050610982565b8060010190506107c1565b50600090505b90565b61098d6106d4565b151561099857600080fd5b6109a181610a4b565b50565b600080600090505b600180549050811015610a3b578273ffffffffffffffffffffffffffffffffffffffff166001828154811015156109df57fe5b9060005260206000200160009054906101000a900473ffffffffffffffffffffffffffffffffffffffff1673ffffffffffffffffffffffffffffffffffffffff161415610a30576001915050610a41565b8060010190506109ac565b50600090505b919050565b600181565b600073ffffffffffffffffffffffffffffffffffffffff168173ffffffffffffffffffffffffffffffffffffffff1614151515610a8757600080fd5b8073ffffffffffffffffffffffffffffffffffffffff166000809054906101000a900473ffffffffffffffffffffffffffffffffffffffff1673ffffffffffffffffffffffffffffffffffffffff167f8be0079c531659141344cd1fd0a4f28419497f9722a3daafe3b4186f6b6457e060405160405180910390a3806000806101000a81548173ffffffffffffffffffffffffffffffffffffffff021916908373ffffffffffffffffffffffffffffffffffffffff16021790555050565b815481835581811115610b6c57818360005260206000209182019101610b6b9190610b71565b5b505050565b610b9391905b80821115610b8f576000816000905550600101610b77565b5090565b9056fe41646472657373206d757374206e6f7420626520616c72656164792061206d656d626572a165627a7a72305820128d092b37ebf7472d550c9e332d23f656382e6cff1d96c9950fa141989bdc960029",
  "source": "pragma solidity 0.5.3;\n\nimport \"openzeppelin-solidity/contracts/ownership/Ownable.sol\";\n\ninterface IOrbsValidators {\n    function addValidator(address _validator) external;\n    function isValidator(address m) external view returns (bool);\n    function getValidators() external view returns (address[] memory);\n    function leave() external returns (bool);\n}\n\ncontract OrbsValidators is Ownable, IOrbsValidators {\n\n    event ValidatorAdded(address indexed validator);\n    event ValidatorLeft(address indexed validator);\n\n    // The version of the current federation smart contract.\n    uint public constant VERSION = 1;\n\n    // Maximum number of the federation members.\n    uint public constant MAX_FEDERATION_MEMBERS = 100;\n\n    address[] public members;\n\n    function addValidator(address _validator) public onlyOwner {\n        require(_validator != address(0), \"Address must not be 0!\");\n        require(members.length <= MAX_FEDERATION_MEMBERS - 1, \"Can't add more members!\");\n\n        require(!isValidator(_validator), \"Address must not be already a member\");\n\n        members.push(_validator);\n        emit ValidatorAdded(_validator);\n    }\n\n    function isValidator(address m) public view returns (bool) {\n        for (uint i = 0; i < members.length; ++i) {\n            if (members[i] == m) {\n                return true;\n            }\n        }\n        return false;\n    }\n\n    function getValidators() public view returns (address[] memory) {\n        return members;\n    }\n\n    function leave() public returns (bool) {\n        for (uint i = 0; i < members.length; ++i) {\n            if (members[i] == msg.sender) {\n                members[i] = members[members.length - 1];\n                delete members[i];\n                members.length--;\n                emit ValidatorLeft(msg.sender);\n                return true;\n            }\n        }\n        return false;\n    }\n}",
  "sourcePath": "/Users/ron/work/src/github.com/orbs-network/orbs-ethereum-contracts/Voting/ethereum/contracts/OrbsValidators.sol",
  "compiler": {
    "name": "solc",
    "version": "0.5.3+commit.10d17f24.Emscripten.clang"
  },
  "schemaVersion": "3.0.1",
  "updatedAt": "2019-02-25T12:39:17.494Z",
  "devdoc": {
    "methods": {
      "isOwner()": {
        "return": "true if `msg.sender` is the owner of the contract."
      },
      "owner()": {
        "return": "the address of the owner."
      },
      "renounceOwnership()": {
        "details": "Allows the current owner to relinquish control of the contract."
      },
      "transferOwnership(address)": {
        "details": "Allows the current owner to transfer control of the contract to a newOwner.",
        "params": {
          "newOwner": "The address to transfer ownership to."
        }
      }
    }
  },
  "userdoc": {
    "methods": {
      "renounceOwnership()": {
        "notice": "Renouncing to ownership will leave the contract without an owner. It will not be possible to call the functions with the `onlyOwner` modifier anymore."
      }
    }
  }
}