{
  "contractName": "OrbsGuardians",
  "abi": [
    {
      "constant": true,
      "inputs": [],
      "name": "REGISTRATION_DEPOSIT",
      "outputs": [
        {
          "name": "",
          "type": "uint256"
        }
      ],
      "payable": false,
      "stateMutability": "view",
      "type": "function",
      "signature": "0x44e9f190"
    },
    {
      "constant": true,
      "inputs": [
        {
          "name": "",
          "type": "address"
        }
      ],
      "name": "guardiansData",
      "outputs": [
        {
          "name": "name",
          "type": "string"
        },
        {
          "name": "website",
          "type": "string"
        },
        {
          "name": "index",
          "type": "uint256"
        }
      ],
      "payable": false,
      "stateMutability": "view",
      "type": "function",
      "signature": "0xd46bdcad"
    },
    {
      "constant": true,
      "inputs": [
        {
          "name": "",
          "type": "uint256"
        }
      ],
      "name": "guardians",
      "outputs": [
        {
          "name": "",
          "type": "address"
        }
      ],
      "payable": false,
      "stateMutability": "view",
      "type": "function",
      "signature": "0xf560c734"
    },
    {
      "constant": true,
      "inputs": [],
      "name": "VERSION",
      "outputs": [
        {
          "name": "",
          "type": "uint256"
        }
      ],
      "payable": false,
      "stateMutability": "view",
      "type": "function",
      "signature": "0xffa1ad74"
    },
    {
      "anonymous": false,
      "inputs": [
        {
          "indexed": true,
          "name": "validator",
          "type": "address"
        }
      ],
      "name": "GuardianAdded",
      "type": "event",
      "signature": "0x038596bb31e2e7d3d9f184d4c98b310103f6d7f5830e5eec32bffe6f1728f969"
    },
    {
      "anonymous": false,
      "inputs": [
        {
          "indexed": true,
          "name": "validator",
          "type": "address"
        }
      ],
      "name": "GuardianLeft",
      "type": "event",
      "signature": "0x30e7885e5f0fc1d648230d0e9245d45333c7158885df954f0a2f0fb442be0f65"
    },
    {
      "anonymous": false,
      "inputs": [
        {
          "indexed": true,
          "name": "validator",
          "type": "address"
        }
      ],
      "name": "GuardianModified",
      "type": "event",
      "signature": "0x3f895d1a1eaa616d02b3e05c89e0e6aa0aa8d158dac2729420487f26bd9883fb"
    },
    {
      "constant": false,
      "inputs": [
        {
          "name": "name",
          "type": "string"
        },
        {
          "name": "website",
          "type": "string"
        }
      ],
      "name": "register",
      "outputs": [],
      "payable": true,
      "stateMutability": "payable",
      "type": "function",
      "signature": "0x3ffbd47f"
    },
    {
      "constant": false,
      "inputs": [],
      "name": "leave",
      "outputs": [],
      "payable": false,
      "stateMutability": "nonpayable",
      "type": "function",
      "signature": "0xd66d9e19"
    },
    {
      "constant": true,
      "inputs": [
        {
          "name": "guardian",
          "type": "address"
        }
      ],
      "name": "isGuardian",
      "outputs": [
        {
          "name": "",
          "type": "bool"
        }
      ],
      "payable": false,
      "stateMutability": "view",
      "type": "function",
      "signature": "0x0c68ba21"
    },
    {
      "constant": true,
      "inputs": [
        {
          "name": "offset",
          "type": "uint256"
        },
        {
          "name": "limit",
          "type": "uint256"
        }
      ],
      "name": "getGuardians",
      "outputs": [
        {
          "name": "",
          "type": "address[]"
        }
      ],
      "payable": false,
      "stateMutability": "view",
      "type": "function",
      "signature": "0xd93d7d29"
    },
    {
      "constant": true,
      "inputs": [
        {
          "name": "guardian",
          "type": "address"
        }
      ],
      "name": "getGuardianData",
      "outputs": [
        {
          "name": "name",
          "type": "string"
        },
        {
          "name": "website",
          "type": "string"
        }
      ],
      "payable": false,
      "stateMutability": "view",
      "type": "function",
      "signature": "0x4b139a47"
    }
  ],
  "bytecode": "0x608060405234801561001057600080fd5b506115a7806100206000396000f3fe6080604052600436106100a3576000357c010000000000000000000000000000000000000000000000000000000090048063d46bdcad11610076578063d46bdcad146103c4578063d66d9e1914610501578063d93d7d2914610518578063f560c734146105b2578063ffa1ad741461062d576100a3565b80630c68ba21146100a85780633ffbd47f1461011157806344e9f190146102635780634b139a471461028e575b600080fd5b3480156100b457600080fd5b506100f7600480360360208110156100cb57600080fd5b81019080803573ffffffffffffffffffffffffffffffffffffffff169060200190929190505050610658565b604051808215151515815260200191505060405180910390f35b6102616004803603604081101561012757600080fd5b810190808035906020019064010000000081111561014457600080fd5b82018360208201111561015657600080fd5b8035906020019184600183028401116401000000008311171561017857600080fd5b91908080601f016020809104026020016040519081016040528093929190818152602001838380828437600081840152601f19601f820116905080830192505050505050509192919290803590602001906401000000008111156101db57600080fd5b8201836020820111156101ed57600080fd5b8035906020019184600183028401116401000000008311171561020f57600080fd5b91908080601f016020809104026020016040519081016040528093929190818152602001838380828437600081840152601f19601f8201169050808301925050505050505091929192905050506106ba565b005b34801561026f57600080fd5b50610278610a91565b6040518082815260200191505060405180910390f35b34801561029a57600080fd5b506102dd600480360360208110156102b157600080fd5b81019080803573ffffffffffffffffffffffffffffffffffffffff169060200190929190505050610a9d565b604051808060200180602001838103835285818151815260200191508051906020019080838360005b83811015610321578082015181840152602081019050610306565b50505050905090810190601f16801561034e5780820380516001836020036101000a031916815260200191505b50838103825284818151815260200191508051906020019080838360005b8381101561038757808201518184015260208101905061036c565b50505050905090810190601f1680156103b45780820380516001836020036101000a031916815260200191505b5094505050505060405180910390f35b3480156103d057600080fd5b50610413600480360360208110156103e757600080fd5b81019080803573ffffffffffffffffffffffffffffffffffffffff169060200190929190505050610ce2565b604051808060200180602001848152602001838103835286818151815260200191508051906020019080838360005b8381101561045d578082015181840152602081019050610442565b50505050905090810190601f16801561048a5780820380516001836020036101000a031916815260200191505b50838103825285818151815260200191508051906020019080838360005b838110156104c35780820151818401526020810190506104a8565b50505050905090810190601f1680156104f05780820380516001836020036101000a031916815260200191505b509550505050505060405180910390f35b34801561050d57600080fd5b50610516610e3c565b005b34801561052457600080fd5b5061055b6004803603604081101561053b57600080fd5b81019080803590602001909291908035906020019092919050505061119d565b6040518080602001828103825283818151815260200191508051906020019060200280838360005b8381101561059e578082015181840152602081019050610583565b505050509050019250505060405180910390f35b3480156105be57600080fd5b506105eb600480360360208110156105d557600080fd5b8101908080359060200190929190505050611390565b604051808273ffffffffffffffffffffffffffffffffffffffff1673ffffffffffffffffffffffffffffffffffffffff16815260200191505060405180910390f35b34801561063957600080fd5b506106426113ce565b6040518082815260200191505060405180910390f35b600080600160008473ffffffffffffffffffffffffffffffffffffffff1673ffffffffffffffffffffffffffffffffffffffff168152602001908152602001600020600001805460018160011615610100020316600290049050119050919050565b3373ffffffffffffffffffffffffffffffffffffffff163273ffffffffffffffffffffffffffffffffffffffff16141515610740576040517f08c379a00000000000000000000000000000000000000000000000000000000081526004018080602001828103825260218152602001806115306021913960400191505060405180910390fd5b670de0b6b3a7640000341415156107a2576040517f08c379a000000000000000000000000000000000000000000000000000000000815260040180806020018281038252602b815260200180611551602b913960400191505060405180910390fd5b6000825111151561081b576040517f08c379a000000000000000000000000000000000000000000000000000000000815260040180806020018281038252601b8152602001807f506c656173652070726f7669646520612076616c6964206e616d65000000000081525060200191505060405180910390fd5b60008151111515610894576040517f08c379a000000000000000000000000000000000000000000000000000000000815260040180806020018281038252601e8152602001807f506c656173652070726f7669646520612076616c69642077656273697465000081525060200191505060405180910390fd5b600061089f33610658565b1590506000811561096057600080549050905060003390806001815401808255809150509060018203906000526020600020016000909192909190916101000a81548173ffffffffffffffffffffffffffffffffffffffff021916908373ffffffffffffffffffffffffffffffffffffffff160217905550503373ffffffffffffffffffffffffffffffffffffffff167f038596bb31e2e7d3d9f184d4c98b310103f6d7f5830e5eec32bffe6f1728f96960405160405180910390a26109e9565b600160003373ffffffffffffffffffffffffffffffffffffffff1673ffffffffffffffffffffffffffffffffffffffff1681526020019081526020016000206002015490503373ffffffffffffffffffffffffffffffffffffffff167f3f895d1a1eaa616d02b3e05c89e0e6aa0aa8d158dac2729420487f26bd9883fb60405160405180910390a25b60606040519081016040528085815260200184815260200182815250600160003373ffffffffffffffffffffffffffffffffffffffff1673ffffffffffffffffffffffffffffffffffffffff1681526020019081526020016000206000820151816000019080519060200190610a60929190611416565b506020820151816001019080519060200190610a7d929190611416565b506040820151816002015590505050505050565b670de0b6b3a764000081565b606080610aa983610658565b1515610b1d576040517f08c379a00000000000000000000000000000000000000000000000000000000081526004018080602001828103825260208152602001807f506c656173652070726f766964652061206c697374656420477561726469616e81525060200191505060405180910390fd5b600160008473ffffffffffffffffffffffffffffffffffffffff1673ffffffffffffffffffffffffffffffffffffffff168152602001908152602001600020600001600160008573ffffffffffffffffffffffffffffffffffffffff1673ffffffffffffffffffffffffffffffffffffffff168152602001908152602001600020600101818054600181600116156101000203166002900480601f016020809104026020016040519081016040528092919081815260200182805460018160011615610100020316600290048015610c365780601f10610c0b57610100808354040283529160200191610c36565b820191906000526020600020905b815481529060010190602001808311610c1957829003601f168201915b50505050509150808054600181600116156101000203166002900480601f016020809104026020016040519081016040528092919081815260200182805460018160011615610100020316600290048015610cd25780601f10610ca757610100808354040283529160200191610cd2565b820191906000526020600020905b815481529060010190602001808311610cb557829003601f168201915b5050505050905091509150915091565b6001602052806000526040600020600091509050806000018054600181600116156101000203166002900480601f016020809104026020016040519081016040528092919081815260200182805460018160011615610100020316600290048015610d8e5780601f10610d6357610100808354040283529160200191610d8e565b820191906000526020600020905b815481529060010190602001808311610d7157829003601f168201915b505050505090806001018054600181600116156101000203166002900480601f016020809104026020016040519081016040528092919081815260200182805460018160011615610100020316600290048015610e2c5780601f10610e0157610100808354040283529160200191610e2c565b820191906000526020600020905b815481529060010190602001808311610e0f57829003601f168201915b5050505050908060020154905083565b610e4533610658565b1515610eb9576040517f08c379a00000000000000000000000000000000000000000000000000000000081526004018080602001828103825260188152602001807f53656e646572206973206e6f74206120477561726469616e000000000000000081525060200191505060405180910390fd5b6000600160003373ffffffffffffffffffffffffffffffffffffffff1673ffffffffffffffffffffffffffffffffffffffff1681526020019081526020016000206002015490503373ffffffffffffffffffffffffffffffffffffffff16600082815481101515610f2657fe5b9060005260206000200160009054906101000a900473ffffffffffffffffffffffffffffffffffffffff1673ffffffffffffffffffffffffffffffffffffffff16141515610f7057fe5b6000600160008054905003815481101515610f8757fe5b9060005260206000200160009054906101000a900473ffffffffffffffffffffffffffffffffffffffff16600082815481101515610fc157fe5b9060005260206000200160006101000a81548173ffffffffffffffffffffffffffffffffffffffff021916908373ffffffffffffffffffffffffffffffffffffffff1602179055508060016000808481548110151561101c57fe5b9060005260206000200160009054906101000a900473ffffffffffffffffffffffffffffffffffffffff1673ffffffffffffffffffffffffffffffffffffffff1673ffffffffffffffffffffffffffffffffffffffff16815260200190815260200160002060020181905550600160003373ffffffffffffffffffffffffffffffffffffffff1673ffffffffffffffffffffffffffffffffffffffff168152602001908152602001600020600080820160006110d89190611496565b6001820160006110e89190611496565b60028201600090555050600080548091906001900361110791906114de565b503373ffffffffffffffffffffffffffffffffffffffff166108fc670de0b6b3a76400009081150290604051600060405180830381858888f19350505050158015611156573d6000803e3d6000fd5b503373ffffffffffffffffffffffffffffffffffffffff167f30e7885e5f0fc1d648230d0e9245d45333c7158885df954f0a2f0fb442be0f6560405160405180910390a250565b6060600080549050831015156111e55760006040519080825280602002602001820160405280156111dd5781602001602082028038833980820191505090505b50905061138a565b6064821115151561125e576040517f08c379a000000000000000000000000000000000000000000000000000000000815260040180806020018281038252601c8152602001807f506167652073697a65206d6179206e6f7420657863656564203130300000000081525060200191505060405180910390fd5b60008054905061127783856113d390919063ffffffff16565b111561129857611295836000805490506113f490919063ffffffff16565b91505b6060826040519080825280602002602001820160405280156112c95781602001602082028038833980820191505090505b50905060008151905060008090505b818110156113835760006112f582886113d390919063ffffffff16565b81548110151561130157fe5b9060005260206000200160009054906101000a900473ffffffffffffffffffffffffffffffffffffffff16838281518110151561133a57fe5b9060200190602002019073ffffffffffffffffffffffffffffffffffffffff16908173ffffffffffffffffffffffffffffffffffffffff168152505080806001019150506112d8565b5081925050505b92915050565b60008181548110151561139f57fe5b906000526020600020016000915054906101000a900473ffffffffffffffffffffffffffffffffffffffff1681565b600181565b60008082840190508381101515156113ea57600080fd5b8091505092915050565b600082821115151561140557600080fd5b600082840390508091505092915050565b828054600181600116156101000203166002900490600052602060002090601f016020900481019282601f1061145757805160ff1916838001178555611485565b82800160010185558215611485579182015b82811115611484578251825591602001919060010190611469565b5b509050611492919061150a565b5090565b50805460018160011615610100020316600290046000825580601f106114bc57506114db565b601f0160209004906000526020600020908101906114da919061150a565b5b50565b81548183558181111561150557818360005260206000209182019101611504919061150a565b5b505050565b61152c91905b80821115611528576000816000905550600101611510565b5090565b9056fe4f6e6c7920454f41206d617920726567697374657220617320477561726469616e506c656173652070726f76696465203120457468657220726567697374726174696f6e206465706f736974a165627a7a723058202f3e34bb484b49917322429e3c7a357f3c5bd832b89a936bbb263118b8ccd4330029",
  "source": "pragma solidity 0.5.3;\n\nimport \"openzeppelin-solidity/contracts/math/SafeMath.sol\";\nimport \"./IOrbsGuardians.sol\";\n\ncontract OrbsGuardians is IOrbsGuardians {\n    using SafeMath for uint256;\n\n    struct GuardianData {\n        string name;\n        string website;\n        uint index;\n    }\n\n    // The version of the current federation smart contract.\n    uint public constant VERSION = 1;\n\n    uint public constant REGISTRATION_DEPOSIT = 1 ether;\n\n    event GuardianAdded(address indexed validator);\n    event GuardianLeft(address indexed validator);\n    event GuardianModified(address indexed validator);\n\n    address[] public guardians;\n    mapping(address => GuardianData) public guardiansData;\n\n    function register(string memory name, string memory website)\n        public\n        payable\n    {\n        require(tx.origin == msg.sender, \"Only EOA may register as Guardian\");\n        require(msg.value == REGISTRATION_DEPOSIT, \"Please provide 1 Ether registration deposit\");\n        require(bytes(name).length > 0, \"Please provide a valid name\");\n        require(bytes(website).length > 0, \"Please provide a valid website\");\n\n        bool adding = !isGuardian(msg.sender);\n        uint index;\n        if (adding) {\n            index = guardians.length;\n            guardians.push(msg.sender);\n            emit GuardianAdded(msg.sender);\n        } else {\n            index = guardiansData[msg.sender].index;\n            emit GuardianModified(msg.sender);\n        }\n\n        guardiansData[msg.sender] = GuardianData(name, website, index);\n    }\n\n    function leave() public {\n        require(isGuardian(msg.sender), \"Sender is not a Guardian\");\n\n        uint i = guardiansData[msg.sender].index;\n\n        assert(guardians[i] == msg.sender);\n\n        guardians[i] = guardians[guardians.length - 1]; // switch with last\n        guardiansData[guardians[i]].index = i; // update it's lookup index\n\n        delete guardiansData[msg.sender];\n        guardians.length--;\n\n        msg.sender.transfer(REGISTRATION_DEPOSIT);\n\n        emit GuardianLeft(msg.sender);\n    }\n\n    function isGuardian(address guardian) public view returns (bool) {\n        return bytes(guardiansData[guardian].name).length > 0;\n    }\n\n    function getGuardians(uint offset, uint limit)\n        public\n        view returns (address[] memory)\n    {\n        if (offset >= guardians.length) { // offset out of bounds\n            return new address[](0);\n        }\n\n        require(limit <= 100, \"Page size may not exceed 100\");\n\n        if (offset.add(limit) > guardians.length) { // clip limit to array size\n            limit = guardians.length.sub(offset);\n        }\n\n        address[] memory result = new address[](limit);\n\n        uint resultLength = result.length;\n        for (uint i = 0; i < resultLength; i++) {\n            result[i] = guardians[offset.add(i)];\n        }\n\n        return result;\n    }\n\n    function getGuardianData(address guardian)\n        public\n        view\n        returns (string memory name, string memory website)\n    {\n        require(isGuardian(guardian), \"Please provide a listed Guardian\");\n        return (guardiansData[guardian].name, guardiansData[guardian].website);\n    }\n}\n",
  "sourcePath": "/Users/ron/work/src/github.com/orbs-network/orbs-ethereum-contracts/voting/ethereum/contracts/OrbsGuardians.sol",
  "compiler": {
    "name": "solc",
    "version": "0.5.3+commit.10d17f24.Emscripten.clang"
  },
  "schemaVersion": "3.0.2",
  "updatedAt": "2019-03-09T18:30:02.687Z",
  "devdoc": {
    "methods": {}
  },
  "userdoc": {
    "methods": {}
  }
}