{
  "contractName": "OrbsValidators",
  "abi": [
    {
      "constant": true,
      "inputs": [],
      "name": "MAX_FEDERATION_MEMBERS",
      "outputs": [
        {
          "name": "",
          "type": "uint256"
        }
      ],
      "payable": false,
      "stateMutability": "view",
      "type": "function"
    },
    {
      "constant": true,
      "inputs": [
        {
          "name": "",
          "type": "uint256"
        }
      ],
      "name": "validators",
      "outputs": [
        {
          "name": "",
          "type": "address"
        }
      ],
      "payable": false,
      "stateMutability": "view",
      "type": "function"
    },
    {
      "constant": false,
      "inputs": [],
      "name": "renounceOwnership",
      "outputs": [],
      "payable": false,
      "stateMutability": "nonpayable",
      "type": "function"
    },
    {
      "constant": true,
      "inputs": [],
      "name": "owner",
      "outputs": [
        {
          "name": "",
          "type": "address"
        }
      ],
      "payable": false,
      "stateMutability": "view",
      "type": "function"
    },
    {
      "constant": true,
      "inputs": [],
      "name": "isOwner",
      "outputs": [
        {
          "name": "",
          "type": "bool"
        }
      ],
      "payable": false,
      "stateMutability": "view",
      "type": "function"
    },
    {
      "constant": true,
      "inputs": [
        {
          "name": "",
          "type": "address"
        }
      ],
      "name": "validatorsData",
      "outputs": [
        {
          "name": "name",
          "type": "string"
        },
        {
          "name": "ipvAddress",
          "type": "bytes"
        },
        {
          "name": "website",
          "type": "string"
        },
        {
          "name": "orbsAddress",
          "type": "address"
        }
      ],
      "payable": false,
      "stateMutability": "view",
      "type": "function"
    },
    {
      "constant": false,
      "inputs": [
        {
          "name": "newOwner",
          "type": "address"
        }
      ],
      "name": "transferOwnership",
      "outputs": [],
      "payable": false,
      "stateMutability": "nonpayable",
      "type": "function"
    },
    {
      "constant": true,
      "inputs": [],
      "name": "VERSION",
      "outputs": [
        {
          "name": "",
          "type": "uint256"
        }
      ],
      "payable": false,
      "stateMutability": "view",
      "type": "function"
    },
    {
      "anonymous": false,
      "inputs": [
        {
          "indexed": true,
          "name": "validator",
          "type": "address"
        }
      ],
      "name": "ValidatorAdded",
      "type": "event"
    },
    {
      "anonymous": false,
      "inputs": [
        {
          "indexed": true,
          "name": "validator",
          "type": "address"
        }
      ],
      "name": "ValidatorLeft",
      "type": "event"
    },
    {
      "anonymous": false,
      "inputs": [
        {
          "indexed": true,
          "name": "previousOwner",
          "type": "address"
        },
        {
          "indexed": true,
          "name": "newOwner",
          "type": "address"
        }
      ],
      "name": "OwnershipTransferred",
      "type": "event"
    },
    {
      "constant": false,
      "inputs": [
        {
          "name": "_validator",
          "type": "address"
        }
      ],
      "name": "addValidator",
      "outputs": [],
      "payable": false,
      "stateMutability": "nonpayable",
      "type": "function"
    },
    {
      "constant": true,
      "inputs": [
        {
          "name": "m",
          "type": "address"
        }
      ],
      "name": "isValidator",
      "outputs": [
        {
          "name": "",
          "type": "bool"
        }
      ],
      "payable": false,
      "stateMutability": "view",
      "type": "function"
    },
    {
      "constant": true,
      "inputs": [],
      "name": "getValidators",
      "outputs": [
        {
          "name": "",
          "type": "address[]"
        }
      ],
      "payable": false,
      "stateMutability": "view",
      "type": "function"
    },
    {
      "constant": false,
      "inputs": [],
      "name": "leave",
      "outputs": [
        {
          "name": "",
          "type": "bool"
        }
      ],
      "payable": false,
      "stateMutability": "nonpayable",
      "type": "function"
    },
    {
      "constant": false,
      "inputs": [
        {
          "name": "_name",
          "type": "string"
        },
        {
          "name": "_ipvAddress",
          "type": "bytes"
        },
        {
          "name": "_website",
          "type": "string"
        },
        {
          "name": "_orbsAddress",
          "type": "address"
        }
      ],
      "name": "register",
      "outputs": [],
      "payable": false,
      "stateMutability": "nonpayable",
      "type": "function"
    },
    {
      "constant": true,
      "inputs": [
        {
          "name": "_validator",
          "type": "address"
        }
      ],
      "name": "getValidatorData",
      "outputs": [
        {
          "name": "_name",
          "type": "string"
        },
        {
          "name": "_ipvAddress",
          "type": "bytes"
        },
        {
          "name": "_website",
          "type": "string"
        },
        {
          "name": "_orbsAddress",
          "type": "address"
        }
      ],
      "payable": false,
      "stateMutability": "view",
      "type": "function"
    },
    {
      "constant": true,
      "inputs": [
        {
          "name": "_validator",
          "type": "address"
        }
      ],
      "name": "getOrbsAddress",
      "outputs": [
        {
          "name": "_orbsAddress",
          "type": "address"
        }
      ],
      "payable": false,
      "stateMutability": "view",
      "type": "function"
    },
    {
      "constant": true,
      "inputs": [],
      "name": "getNetworkTopology",
      "outputs": [
        {
          "name": "nodeAddresses",
          "type": "address[]"
        },
        {
          "name": "ipAddresses",
          "type": "bytes4[]"
        }
      ],
      "payable": false,
      "stateMutability": "view",
      "type": "function"
    }
  ],
  "bytecode": "0x6080604052336000806101000a81548173ffffffffffffffffffffffffffffffffffffffff021916908373ffffffffffffffffffffffffffffffffffffffff1602179055506000809054906101000a900473ffffffffffffffffffffffffffffffffffffffff1673ffffffffffffffffffffffffffffffffffffffff16600073ffffffffffffffffffffffffffffffffffffffff167f8be0079c531659141344cd1fd0a4f28419497f9722a3daafe3b4186f6b6457e060405160405180910390a36128f7806100cf6000396000f3fe608060405234801561001057600080fd5b506004361061011d576000357c010000000000000000000000000000000000000000000000000000000090048063ada78075116100b4578063e7b1162211610083578063e7b11622146107e5578063f2fde38b146109ad578063facd743b146109f1578063ffa1ad7414610a4d5761011d565b8063ada78075146104d7578063b7ab4db51461055b578063c6858e27146105ba578063d66d9e19146107c35761011d565b80634d238c8e116100f05780634d238c8e1461041d578063715018a6146104615780638da5cb5b1461046b5780638f32d59b146104b55761011d565b806320429673146101225780632536f8b5146101c9578063265751cf1461039157806335aa2e44146103af575b600080fd5b61012a610a6b565b604051808060200180602001838103835285818151815260200191508051906020019060200280838360005b83811015610171578082015181840152602081019050610156565b50505050905001838103825284818151815260200191508051906020019060200280838360005b838110156101b3578082015181840152602081019050610198565b5050505090500194505050505060405180910390f35b61020b600480360360208110156101df57600080fd5b81019080803573ffffffffffffffffffffffffffffffffffffffff169060200190929190505050610d5d565b604051808060200180602001806020018573ffffffffffffffffffffffffffffffffffffffff1673ffffffffffffffffffffffffffffffffffffffff168152602001848103845288818151815260200191508051906020019080838360005b8381101561028557808201518184015260208101905061026a565b50505050905090810190601f1680156102b25780820380516001836020036101000a031916815260200191505b50848103835287818151815260200191508051906020019080838360005b838110156102eb5780820151818401526020810190506102d0565b50505050905090810190601f1680156103185780820380516001836020036101000a031916815260200191505b50848103825286818151815260200191508051906020019080838360005b83811015610351578082015181840152602081019050610336565b50505050905090810190601f16801561037e5780820380516001836020036101000a031916815260200191505b5097505050505050505060405180910390f35b6103996110d0565b6040518082815260200191505060405180910390f35b6103db600480360360208110156103c557600080fd5b81019080803590602001909291905050506110d5565b604051808273ffffffffffffffffffffffffffffffffffffffff1673ffffffffffffffffffffffffffffffffffffffff16815260200191505060405180910390f35b61045f6004803603602081101561043357600080fd5b81019080803573ffffffffffffffffffffffffffffffffffffffff169060200190929190505050611113565b005b610469611359565b005b61047361142b565b604051808273ffffffffffffffffffffffffffffffffffffffff1673ffffffffffffffffffffffffffffffffffffffff16815260200191505060405180910390f35b6104bd611454565b604051808215151515815260200191505060405180910390f35b610519600480360360208110156104ed57600080fd5b81019080803573ffffffffffffffffffffffffffffffffffffffff1690602001909291905050506114ab565b604051808273ffffffffffffffffffffffffffffffffffffffff1673ffffffffffffffffffffffffffffffffffffffff16815260200191505060405180910390f35b610563611577565b6040518080602001828103825283818151815260200191508051906020019060200280838360005b838110156105a657808201518184015260208101905061058b565b505050509050019250505060405180910390f35b6107c1600480360360808110156105d057600080fd5b81019080803590602001906401000000008111156105ed57600080fd5b8201836020820111156105ff57600080fd5b8035906020019184600183028401116401000000008311171561062157600080fd5b91908080601f016020809104026020016040519081016040528093929190818152602001838380828437600081840152601f19601f8201169050808301925050505050505091929192908035906020019064010000000081111561068457600080fd5b82018360208201111561069657600080fd5b803590602001918460018302840111640100000000831117156106b857600080fd5b91908080601f016020809104026020016040519081016040528093929190818152602001838380828437600081840152601f19601f8201169050808301925050505050505091929192908035906020019064010000000081111561071b57600080fd5b82018360208201111561072d57600080fd5b8035906020019184600183028401116401000000008311171561074f57600080fd5b91908080601f016020809104026020016040519081016040528093929190818152602001838380828437600081840152601f19601f820116905080830192505050505050509192919290803573ffffffffffffffffffffffffffffffffffffffff169060200190929190505050611605565b005b6107cb611d9d565b604051808215151515815260200191505060405180910390f35b610827600480360360208110156107fb57600080fd5b81019080803573ffffffffffffffffffffffffffffffffffffffff169060200190929190505050612002565b604051808060200180602001806020018573ffffffffffffffffffffffffffffffffffffffff1673ffffffffffffffffffffffffffffffffffffffff168152602001848103845288818151815260200191508051906020019080838360005b838110156108a1578082015181840152602081019050610886565b50505050905090810190601f1680156108ce5780820380516001836020036101000a031916815260200191505b50848103835287818151815260200191508051906020019080838360005b838110156109075780820151818401526020810190506108ec565b50505050905090810190601f1680156109345780820380516001836020036101000a031916815260200191505b50848103825286818151815260200191508051906020019080838360005b8381101561096d578082015181840152602081019050610952565b50505050905090810190601f16801561099a5780820380516001836020036101000a031916815260200191505b5097505050505050505060405180910390f35b6109ef600480360360208110156109c357600080fd5b81019080803573ffffffffffffffffffffffffffffffffffffffff16906020019092919050505061221a565b005b610a3360048036036020811015610a0757600080fd5b81019080803573ffffffffffffffffffffffffffffffffffffffff169060200190929190505050612239565b604051808215151515815260200191505060405180910390f35b610a556122db565b6040518082815260200191505060405180910390f35b606080600180549050604051908082528060200260200182016040528015610aa25781602001602082028038833980820191505090505b509150600180549050604051908082528060200260200182016040528015610ad95781602001602082028038833980820191505090505b50905060008090505b600180549050811015610d585760026000600183815481101515610b0257fe5b9060005260206000200160009054906101000a900473ffffffffffffffffffffffffffffffffffffffff1673ffffffffffffffffffffffffffffffffffffffff1673ffffffffffffffffffffffffffffffffffffffff16815260200190815260200160002060030160009054906101000a900473ffffffffffffffffffffffffffffffffffffffff168382815181101515610b9957fe5b9060200190602002019073ffffffffffffffffffffffffffffffffffffffff16908173ffffffffffffffffffffffffffffffffffffffff1681525050610cf160026000600184815481101515610beb57fe5b9060005260206000200160009054906101000a900473ffffffffffffffffffffffffffffffffffffffff1673ffffffffffffffffffffffffffffffffffffffff1673ffffffffffffffffffffffffffffffffffffffff1681526020019081526020016000206001018054600181600116156101000203166002900480601f016020809104026020016040519081016040528092919081815260200182805460018160011615610100020316600290048015610ce75780601f10610cbc57610100808354040283529160200191610ce7565b820191906000526020600020905b815481529060010190602001808311610cca57829003601f168201915b50505050506122e0565b8282815181101515610cff57fe5b906020019060200201907bffffffffffffffffffffffffffffffffffffffffffffffffffffffff191690817bffffffffffffffffffffffffffffffffffffffffffffffffffffffff191681525050806001019050610ae2565b509091565b60608060606000610d6d85612239565b1515610dc4576040517f08c379a00000000000000000000000000000000000000000000000000000000081526004018080602001828103825260218152602001806127e86021913960400191505060405180910390fd5b600260008673ffffffffffffffffffffffffffffffffffffffff1673ffffffffffffffffffffffffffffffffffffffff168152602001908152602001600020600001600260008773ffffffffffffffffffffffffffffffffffffffff1673ffffffffffffffffffffffffffffffffffffffff168152602001908152602001600020600101600260008873ffffffffffffffffffffffffffffffffffffffff1673ffffffffffffffffffffffffffffffffffffffff168152602001908152602001600020600201600260008973ffffffffffffffffffffffffffffffffffffffff1673ffffffffffffffffffffffffffffffffffffffff16815260200190815260200160002060030160009054906101000a900473ffffffffffffffffffffffffffffffffffffffff16838054600181600116156101000203166002900480601f016020809104026020016040519081016040528092919081815260200182805460018160011615610100020316600290048015610f825780601f10610f5757610100808354040283529160200191610f82565b820191906000526020600020905b815481529060010190602001808311610f6557829003601f168201915b50505050509350828054600181600116156101000203166002900480601f01602080910402602001604051908101604052809291908181526020018280546001816001161561010002031660029004801561101e5780601f10610ff35761010080835404028352916020019161101e565b820191906000526020600020905b81548152906001019060200180831161100157829003601f168201915b50505050509250818054600181600116156101000203166002900480601f0160208091040260200160405190810160405280929190818152602001828054600181600116156101000203166002900480156110ba5780601f1061108f576101008083540402835291602001916110ba565b820191906000526020600020905b81548152906001019060200180831161109d57829003601f168201915b5050505050915093509350935093509193509193565b606481565b6001818154811015156110e457fe5b906000526020600020016000915054906101000a900473ffffffffffffffffffffffffffffffffffffffff1681565b61111b611454565b151561112657600080fd5b600073ffffffffffffffffffffffffffffffffffffffff168173ffffffffffffffffffffffffffffffffffffffff16141515156111cb576040517f08c379a00000000000000000000000000000000000000000000000000000000081526004018080602001828103825260168152602001807f41646472657373206d757374206e6f742062652030210000000000000000000081525060200191505060405180910390fd5b60016064036001805490501115151561124c576040517f08c379a00000000000000000000000000000000000000000000000000000000081526004018080602001828103825260178152602001807f43616e277420616464206d6f7265206d656d626572732100000000000000000081525060200191505060405180910390fd5b61125581612239565b1515156112ad576040517f08c379a00000000000000000000000000000000000000000000000000000000081526004018080602001828103825260248152602001806128306024913960400191505060405180910390fd5b60018190806001815401808255809150509060018203906000526020600020016000909192909190916101000a81548173ffffffffffffffffffffffffffffffffffffffff021916908373ffffffffffffffffffffffffffffffffffffffff160217905550508073ffffffffffffffffffffffffffffffffffffffff167fe366c1c0452ed8eec96861e9e54141ebff23c9ec89fe27b996b45f5ec388498760405160405180910390a250565b611361611454565b151561136c57600080fd5b600073ffffffffffffffffffffffffffffffffffffffff166000809054906101000a900473ffffffffffffffffffffffffffffffffffffffff1673ffffffffffffffffffffffffffffffffffffffff167f8be0079c531659141344cd1fd0a4f28419497f9722a3daafe3b4186f6b6457e060405160405180910390a360008060006101000a81548173ffffffffffffffffffffffffffffffffffffffff021916908373ffffffffffffffffffffffffffffffffffffffff160217905550565b60008060009054906101000a900473ffffffffffffffffffffffffffffffffffffffff16905090565b60008060009054906101000a900473ffffffffffffffffffffffffffffffffffffffff1673ffffffffffffffffffffffffffffffffffffffff163373ffffffffffffffffffffffffffffffffffffffff1614905090565b60006114b682612239565b151561150d576040517f08c379a00000000000000000000000000000000000000000000000000000000081526004018080602001828103825260218152602001806127e86021913960400191505060405180910390fd5b600260008373ffffffffffffffffffffffffffffffffffffffff1673ffffffffffffffffffffffffffffffffffffffff16815260200190815260200160002060030160009054906101000a900473ffffffffffffffffffffffffffffffffffffffff169050919050565b606060018054806020026020016040519081016040528092919081815260200182805480156115fb57602002820191906000526020600020905b8160009054906101000a900473ffffffffffffffffffffffffffffffffffffffff1673ffffffffffffffffffffffffffffffffffffffff16815260200190600101908083116115b1575b5050505050905090565b6000845111151561167e576040517f08c379a000000000000000000000000000000000000000000000000000000000815260040180806020018281038252601b8152602001807f506c656173652070726f7669646520612076616c6964206e616d65000000000081525060200191505060405180910390fd5b600082511115156116f7576040517f08c379a000000000000000000000000000000000000000000000000000000000815260040180806020018281038252601e8152602001807f506c656173652070726f7669646520612076616c69642077656273697465000081525060200191505060405180910390fd5b611700836123cf565b1515611757576040517f08c379a00000000000000000000000000000000000000000000000000000000081526004018080602001828103825260278152602001806128096027913960400191505060405180910390fd5b600073ffffffffffffffffffffffffffffffffffffffff168173ffffffffffffffffffffffffffffffffffffffff16141515156117df576040517f08c379a00000000000000000000000000000000000000000000000000000000081526004018080602001828103825260238152602001806128546023913960400191505060405180910390fd5b6117e833612239565b151561185c576040517f08c379a000000000000000000000000000000000000000000000000000000000815260040180806020018281038252601a8152602001807f43616c6c6572206d75737420626520612076616c696461746f7200000000000081525060200191505060405180910390fd5b60008090505b600180549050811015611c7e573373ffffffffffffffffffffffffffffffffffffffff1660018281548110151561189557fe5b9060005260206000200160009054906101000a900473ffffffffffffffffffffffffffffffffffffffff1673ffffffffffffffffffffffffffffffffffffffff1614156118e157611c71565b6000600260006001848154811015156118f657fe5b9060005260206000200160009054906101000a900473ffffffffffffffffffffffffffffffffffffffff1673ffffffffffffffffffffffffffffffffffffffff1673ffffffffffffffffffffffffffffffffffffffff168152602001908152602001600020905085805190602001208160000160405180828054600181600116156101000203166002900480156119c45780601f106119a25761010080835404028352918201916119c4565b820191906000526020600020905b8154815290600101906020018083116119b0575b5050915050604051809103902014151515611a2a576040517f08c379a000000000000000000000000000000000000000000000000000000000815260040180806020018281038252602b8152602001806128a1602b913960400191505060405180910390fd5b8480519060200120816001016040518082805460018160011615610100020316600290048015611a915780601f10611a6f576101008083540402835291820191611a91565b820191906000526020600020905b815481529060010190602001808311611a7d575b5050915050604051809103902014151515611af7576040517f08c379a00000000000000000000000000000000000000000000000000000000081526004018080602001828103825260318152602001806127b76031913960400191505060405180910390fd5b8380519060200120816002016040518082805460018160011615610100020316600290048015611b5e5780601f10611b3c576101008083540402835291820191611b5e565b820191906000526020600020905b815481529060010190602001808311611b4a575b5050915050604051809103902014151515611bc4576040517f08c379a000000000000000000000000000000000000000000000000000000000815260040180806020018281038252602a815260200180612877602a913960400191505060405180910390fd5b8273ffffffffffffffffffffffffffffffffffffffff168160030160009054906101000a900473ffffffffffffffffffffffffffffffffffffffff1673ffffffffffffffffffffffffffffffffffffffff1614151515611c6f576040517f08c379a00000000000000000000000000000000000000000000000000000000081526004018080602001828103825260338152602001806127846033913960400191505060405180910390fd5b505b8080600101915050611862565b506080604051908101604052808581526020018481526020018381526020018273ffffffffffffffffffffffffffffffffffffffff16815250600260003373ffffffffffffffffffffffffffffffffffffffff1673ffffffffffffffffffffffffffffffffffffffff1681526020019081526020016000206000820151816000019080519060200190611d129291906125a2565b506020820151816001019080519060200190611d2f929190612622565b506040820151816002019080519060200190611d4c9291906125a2565b5060608201518160030160006101000a81548173ffffffffffffffffffffffffffffffffffffffff021916908373ffffffffffffffffffffffffffffffffffffffff16021790555090505050505050565b600080600090505b600180549050811015611ff9573373ffffffffffffffffffffffffffffffffffffffff16600182815481101515611dd857fe5b9060005260206000200160009054906101000a900473ffffffffffffffffffffffffffffffffffffffff1673ffffffffffffffffffffffffffffffffffffffff161415611fee57600180808054905003815481101515611e3457fe5b9060005260206000200160009054906101000a900473ffffffffffffffffffffffffffffffffffffffff16600182815481101515611e6e57fe5b9060005260206000200160006101000a81548173ffffffffffffffffffffffffffffffffffffffff021916908373ffffffffffffffffffffffffffffffffffffffff160217905550600260003373ffffffffffffffffffffffffffffffffffffffff1673ffffffffffffffffffffffffffffffffffffffff16815260200190815260200160002060008082016000611f0691906126a2565b600182016000611f1691906126ea565b600282016000611f2691906126a2565b6003820160006101000a81549073ffffffffffffffffffffffffffffffffffffffff02191690555050600181815481101515611f5e57fe5b9060005260206000200160006101000a81549073ffffffffffffffffffffffffffffffffffffffff02191690556001805480919060019003611fa09190612732565b503373ffffffffffffffffffffffffffffffffffffffff167f457a63bb4fcc8a2d38fb6141645ce9afbb084a1e63edee2799243c96a0498a0e60405160405180910390a26001915050611fff565b806001019050611da5565b50600090505b90565b6002602052806000526040600020600091509050806000018054600181600116156101000203166002900480601f0160208091040260200160405190810160405280929190818152602001828054600181600116156101000203166002900480156120ae5780601f10612083576101008083540402835291602001916120ae565b820191906000526020600020905b81548152906001019060200180831161209157829003601f168201915b505050505090806001018054600181600116156101000203166002900480601f01602080910402602001604051908101604052809291908181526020018280546001816001161561010002031660029004801561214c5780601f106121215761010080835404028352916020019161214c565b820191906000526020600020905b81548152906001019060200180831161212f57829003601f168201915b505050505090806002018054600181600116156101000203166002900480601f0160208091040260200160405190810160405280929190818152602001828054600181600116156101000203166002900480156121ea5780601f106121bf576101008083540402835291602001916121ea565b820191906000526020600020905b8154815290600101906020018083116121cd57829003601f168201915b5050505050908060030160009054906101000a900473ffffffffffffffffffffffffffffffffffffffff16905084565b612222611454565b151561222d57600080fd5b612236816124a8565b50565b600080600090505b6001805490508110156122d0578273ffffffffffffffffffffffffffffffffffffffff1660018281548110151561227457fe5b9060005260206000200160009054906101000a900473ffffffffffffffffffffffffffffffffffffffff1673ffffffffffffffffffffffffffffffffffffffff1614156122c55760019150506122d6565b806001019050612241565b50600090505b919050565b600181565b60008060048351106122f35760046122f6565b82515b905060008090505b818110156123c8576000848281518110151561231657fe5b9060200101517f010000000000000000000000000000000000000000000000000000000000000090047f0100000000000000000000000000000000000000000000000000000000000000027effffffffffffffffffffffffffffffffffffffffffffffffffffffffffffff1916905081600802817bffffffffffffffffffffffffffffffffffffffffffffffffffffffff1916908060020a8204915050905080841793505080806001019150506122fe565b5050919050565b600080600490505b825181101561249d5760007f010000000000000000000000000000000000000000000000000000000000000002838281518110151561241257fe5b9060200101517f010000000000000000000000000000000000000000000000000000000000000090047f0100000000000000000000000000000000000000000000000000000000000000027effffffffffffffffffffffffffffffffffffffffffffffffffffffffffffff19161415156124905760009150506124a3565b80806001019150506123d7565b50600190505b919050565b600073ffffffffffffffffffffffffffffffffffffffff168173ffffffffffffffffffffffffffffffffffffffff16141515156124e457600080fd5b8073ffffffffffffffffffffffffffffffffffffffff166000809054906101000a900473ffffffffffffffffffffffffffffffffffffffff1673ffffffffffffffffffffffffffffffffffffffff167f8be0079c531659141344cd1fd0a4f28419497f9722a3daafe3b4186f6b6457e060405160405180910390a3806000806101000a81548173ffffffffffffffffffffffffffffffffffffffff021916908373ffffffffffffffffffffffffffffffffffffffff16021790555050565b828054600181600116156101000203166002900490600052602060002090601f016020900481019282601f106125e357805160ff1916838001178555612611565b82800160010185558215612611579182015b828111156126105782518255916020019190600101906125f5565b5b50905061261e919061275e565b5090565b828054600181600116156101000203166002900490600052602060002090601f016020900481019282601f1061266357805160ff1916838001178555612691565b82800160010185558215612691579182015b82811115612690578251825591602001919060010190612675565b5b50905061269e919061275e565b5090565b50805460018160011615610100020316600290046000825580601f106126c857506126e7565b601f0160209004906000526020600020908101906126e6919061275e565b5b50565b50805460018160011615610100020316600290046000825580601f10612710575061272f565b601f01602090049060005260206000209081019061272e919061275e565b5b50565b81548183558181111561275957818360005260206000209182019101612758919061275e565b5b505050565b61278091905b8082111561277c576000816000905550600101612764565b5090565b9056fe4f726273204164647265737320697320616c726561647920696e2075736520627920616e6f746865722076616c696461746f724950206164647265737320697320616c726561647920696e2075736520627920616e6f746865722076616c696461746f72506c656173652070726f766964652061206c69737465642056616c696461746f72506c65617365207061737320616e2061646472657373206f6620757020746f203420627974657341646472657373206d757374206e6f7420626520616c72656164792061206d656d626572506c656173652070726f7669646520612076616c6964204f726273204164647265737355524c20697320616c726561647920696e2075736520627920616e6f746865722076616c696461746f724e616d6520697320616c726561647920696e2075736520627920616e6f746865722076616c696461746f72a165627a7a723058200e750ccf1d9c3e6ebcd157e4ba3ecc1d06f39a0be5eb69b15d18feb89c0dce650029",
  "source": "pragma solidity 0.5.3;\n\nimport \"openzeppelin-solidity/contracts/ownership/Ownable.sol\";\nimport \"./IOrbsNetworkTopology.sol\";\n\ninterface IOrbsValidatorsRegistry {\n    // TODO rename register to setValidatorData\n    function register(string calldata _name, bytes calldata _ipvAddress, string calldata _website, address _orbsAddress) external;\n    function getValidatorData(address _validator) external view returns (string memory _name, bytes memory _ipvAddress, string memory _website, address _orbsAddress);\n    function getOrbsAddress(address _validator) external view returns (address _orbsAddress);\n}\n\ninterface IOrbsValidators {\n    function addValidator(address _validator) external;\n    function isValidator(address m) external view returns (bool);\n    function getValidators() external view returns (address[] memory);\n    function leave() external returns (bool);\n}\n\ncontract OrbsValidators is Ownable, IOrbsValidators, IOrbsValidatorsRegistry, IOrbsNetworkTopology {\n\n    struct ValidatorData {\n        string name;\n        bytes ipvAddress;\n        string website;\n        address orbsAddress;\n    }\n\n    event ValidatorAdded(address indexed validator);\n    event ValidatorLeft(address indexed validator);\n\n    // The version of the current federation smart contract.\n    uint public constant VERSION = 1;\n\n    // Maximum number of the federation members.\n    uint public constant MAX_FEDERATION_MEMBERS = 100;\n\n    address[] public validators;\n    mapping (address => ValidatorData) public validatorsData;\n\n    function addValidator(address _validator) public onlyOwner {\n        require(_validator != address(0), \"Address must not be 0!\");\n        require(validators.length <= MAX_FEDERATION_MEMBERS - 1, \"Can't add more members!\");\n\n        require(!isValidator(_validator), \"Address must not be already a member\");\n\n        validators.push(_validator);\n        emit ValidatorAdded(_validator);\n    }\n\n    function isValidator(address m) public view returns (bool) {\n        for (uint i = 0; i < validators.length; ++i) {\n            if (validators[i] == m) {\n                return true;\n            }\n        }\n        return false;\n    }\n\n    function getValidators() public view returns (address[] memory) {\n        return validators;\n    }\n\n    function leave() public returns (bool) {\n        for (uint i = 0; i < validators.length; ++i) {\n            if (validators[i] == msg.sender) {\n                validators[i] = validators[validators.length - 1];\n                delete validatorsData[msg.sender];\n                delete validators[i];\n                validators.length--;\n\n                emit ValidatorLeft(msg.sender);\n                return true;\n            }\n        }\n        return false;\n    }\n\n    function register(string memory _name, bytes memory _ipvAddress, string memory _website, address _orbsAddress) public {\n        require(bytes(_name).length > 0, \"Please provide a valid name\");\n        require(bytes(_website).length > 0, \"Please provide a valid website\");\n        require(isIpv4(_ipvAddress), \"Please pass an address of up to 4 bytes\");\n        require(_orbsAddress != address(0), \"Please provide a valid Orbs Address\");\n        require(isValidator(msg.sender), \"Caller must be a validator\");\n\n        for (uint i = 0; i < validators.length; i++) {\n            if (validators[i] == msg.sender) {\n                continue;\n            }\n            ValidatorData storage otherValidator = validatorsData[validators[i]];\n            require(keccak256(bytes(otherValidator.name)) != keccak256(bytes(_name)), \"Name is already in use by another validator\");\n            require(keccak256(bytes(otherValidator.ipvAddress)) != keccak256(bytes(_ipvAddress)), \"IP address is already in use by another validator\");\n            require(keccak256(bytes(otherValidator.website)) != keccak256(bytes(_website)), \"URL is already in use by another validator\");\n            require(otherValidator.orbsAddress != _orbsAddress, \"Orbs Address is already in use by another validator\");\n        }\n\n        validatorsData[msg.sender] = ValidatorData(_name, _ipvAddress, _website, _orbsAddress);\n    }\n\n    function getValidatorData(address _validator) public view returns (string memory _name, bytes memory _ipvAddress, string memory _website, address _orbsAddress) {\n        require(isValidator(_validator), \"Please provide a listed Validator\");\n        return (validatorsData[_validator].name, validatorsData[_validator].ipvAddress, validatorsData[_validator].website, validatorsData[_validator].orbsAddress);\n    }\n\n    function getOrbsAddress(address _validator) public view returns (address _orbsAddress) {\n        require(isValidator(_validator), \"Please provide a listed Validator\");\n        return validatorsData[_validator].orbsAddress;\n    }\n\n    function getNetworkTopology() public view returns (address[] memory nodeAddresses, bytes4[] memory ipAddresses) {\n        nodeAddresses = new address[](validators.length);\n        ipAddresses = new bytes4[](validators.length);\n\n        for (uint i = 0; i < validators.length; ++i) {\n            nodeAddresses[i] = validatorsData[validators[i]].orbsAddress;\n            ipAddresses[i] = ipv4Address(validatorsData[validators[i]].ipvAddress);\n        }\n    }\n\n    function ipv4Address(bytes memory inBytes) pure internal returns (bytes4 outBytes4) {\n        uint256 bytesAvailable = inBytes.length < 4 ? inBytes.length : 4;\n        for (uint256 i = 0; i < bytesAvailable; i++) {\n            bytes4 shifter = inBytes[i];\n            shifter = shifter >> 8 * i;\n            outBytes4 = outBytes4 | shifter;\n        }\n    }\n\n    function isIpv4(bytes memory inBytes) pure internal returns (bool){\n        for (uint256 i = 4; i < inBytes.length; i++) { // scan byte #5 onward\n            if (inBytes[i] != 0) {\n                return false;\n            }\n        }\n        return true;\n    }\n}",
  "sourcePath": "/Users/ron/work/src/github.com/orbs-network/orbs-ethereum-contracts/Voting/ethereum/contracts/OrbsValidators.sol",
  "compiler": {
    "name": "solc",
    "version": "0.5.3+commit.10d17f24.Emscripten.clang"
  },
  "schemaVersion": "3.0.1",
  "updatedAt": "2019-02-26T10:02:36.102Z",
  "devdoc": {
    "methods": {
      "isOwner()": {
        "return": "true if `msg.sender` is the owner of the contract."
      },
      "owner()": {
        "return": "the address of the owner."
      },
      "renounceOwnership()": {
        "details": "Allows the current owner to relinquish control of the contract."
      },
      "transferOwnership(address)": {
        "details": "Allows the current owner to transfer control of the contract to a newOwner.",
        "params": {
          "newOwner": "The address to transfer ownership to."
        }
      }
    }
  },
  "userdoc": {
    "methods": {
      "renounceOwnership()": {
        "notice": "Renouncing to ownership will leave the contract without an owner. It will not be possible to call the functions with the `onlyOwner` modifier anymore."
      }
    }
  }
}