{
  "contractName": "OrbsGuardians",
  "abi": [
    {
      "constant": true,
      "inputs": [],
      "name": "registrationDeposit",
      "outputs": [
        {
          "name": "",
          "type": "uint256"
        }
      ],
      "payable": false,
      "stateMutability": "view",
      "type": "function"
    },
    {
      "constant": true,
      "inputs": [
        {
          "name": "",
          "type": "address"
        }
      ],
      "name": "guardiansData",
      "outputs": [
        {
          "name": "name",
          "type": "string"
        },
        {
          "name": "website",
          "type": "string"
        },
        {
          "name": "index",
          "type": "uint256"
        },
        {
          "name": "registeredOnBlock",
          "type": "uint256"
        },
        {
          "name": "lastUpdatedOnBlock",
          "type": "uint256"
        }
      ],
      "payable": false,
      "stateMutability": "view",
      "type": "function"
    },
    {
      "constant": true,
      "inputs": [
        {
          "name": "",
          "type": "uint256"
        }
      ],
      "name": "guardians",
      "outputs": [
        {
          "name": "",
          "type": "address"
        }
      ],
      "payable": false,
      "stateMutability": "view",
      "type": "function"
    },
    {
      "constant": true,
      "inputs": [],
      "name": "VERSION",
      "outputs": [
        {
          "name": "",
          "type": "uint256"
        }
      ],
      "payable": false,
      "stateMutability": "view",
      "type": "function"
    },
    {
      "inputs": [
        {
          "name": "registrationDeposit_",
          "type": "uint256"
        }
      ],
      "payable": false,
      "stateMutability": "nonpayable",
      "type": "constructor"
    },
    {
      "anonymous": false,
      "inputs": [
        {
          "indexed": true,
          "name": "validator",
          "type": "address"
        }
      ],
      "name": "GuardianAdded",
      "type": "event"
    },
    {
      "anonymous": false,
      "inputs": [
        {
          "indexed": true,
          "name": "validator",
          "type": "address"
        }
      ],
      "name": "GuardianLeft",
      "type": "event"
    },
    {
      "anonymous": false,
      "inputs": [
        {
          "indexed": true,
          "name": "validator",
          "type": "address"
        }
      ],
      "name": "GuardianModified",
      "type": "event"
    },
    {
      "constant": false,
      "inputs": [
        {
          "name": "name",
          "type": "string"
        },
        {
          "name": "website",
          "type": "string"
        }
      ],
      "name": "register",
      "outputs": [],
      "payable": true,
      "stateMutability": "payable",
      "type": "function"
    },
    {
      "constant": false,
      "inputs": [],
      "name": "leave",
      "outputs": [],
      "payable": false,
      "stateMutability": "nonpayable",
      "type": "function"
    },
    {
      "constant": true,
      "inputs": [
        {
          "name": "guardian",
          "type": "address"
        }
      ],
      "name": "isGuardian",
      "outputs": [
        {
          "name": "",
          "type": "bool"
        }
      ],
      "payable": false,
      "stateMutability": "view",
      "type": "function"
    },
    {
      "constant": true,
      "inputs": [
        {
          "name": "offset",
          "type": "uint256"
        },
        {
          "name": "limit",
          "type": "uint256"
        }
      ],
      "name": "getGuardians",
      "outputs": [
        {
          "name": "",
          "type": "address[]"
        }
      ],
      "payable": false,
      "stateMutability": "view",
      "type": "function"
    },
    {
      "constant": true,
      "inputs": [
        {
          "name": "guardian",
          "type": "address"
        }
      ],
      "name": "getGuardianData",
      "outputs": [
        {
          "name": "name",
          "type": "string"
        },
        {
          "name": "website",
          "type": "string"
        }
      ],
      "payable": false,
      "stateMutability": "view",
      "type": "function"
    },
    {
      "constant": true,
      "inputs": [
        {
          "name": "guardian",
          "type": "address"
        }
      ],
      "name": "getRegistrationBlockHeight",
      "outputs": [
        {
          "name": "registeredOn",
          "type": "uint256"
        },
        {
          "name": "lastUpdatedOn",
          "type": "uint256"
        }
      ],
      "payable": false,
      "stateMutability": "view",
      "type": "function"
    }
  ],
  "bytecode": "0x6080604052670de0b6b3a764000060005534801561001c57600080fd5b506040516020806118738339810180604052602081101561003c57600080fd5b8101908080519060200190929190505050806000819055505061180f806100646000396000f3fe6080604052600436106100ae576000357c010000000000000000000000000000000000000000000000000000000090048063d46bdcad11610076578063d46bdcad1461043b578063d66d9e1914610586578063d93d7d291461059d578063f560c73414610637578063ffa1ad74146106b2576100ae565b80630c68ba21146100b3578063316068281461011c5780633ffbd47f146101475780634b139a47146102995780637f72185a146103cf575b600080fd5b3480156100bf57600080fd5b50610102600480360360208110156100d657600080fd5b81019080803573ffffffffffffffffffffffffffffffffffffffff1690602001909291905050506106dd565b604051808215151515815260200191505060405180910390f35b34801561012857600080fd5b5061013161073f565b6040518082815260200191505060405180910390f35b6102976004803603604081101561015d57600080fd5b810190808035906020019064010000000081111561017a57600080fd5b82018360208201111561018c57600080fd5b803590602001918460018302840111640100000000831117156101ae57600080fd5b91908080601f016020809104026020016040519081016040528093929190818152602001838380828437600081840152601f19601f8201169050808301925050505050505091929192908035906020019064010000000081111561021157600080fd5b82018360208201111561022357600080fd5b8035906020019184600183028401116401000000008311171561024557600080fd5b91908080601f016020809104026020016040519081016040528093929190818152602001838380828437600081840152601f19601f820116905080830192505050505050509192919290505050610745565b005b3480156102a557600080fd5b506102e8600480360360208110156102bc57600080fd5b81019080803573ffffffffffffffffffffffffffffffffffffffff169060200190929190505050610bdb565b604051808060200180602001838103835285818151815260200191508051906020019080838360005b8381101561032c578082015181840152602081019050610311565b50505050905090810190601f1680156103595780820380516001836020036101000a031916815260200191505b50838103825284818151815260200191508051906020019080838360005b83811015610392578082015181840152602081019050610377565b50505050905090810190601f1680156103bf5780820380516001836020036101000a031916815260200191505b5094505050505060405180910390f35b3480156103db57600080fd5b5061041e600480360360208110156103f257600080fd5b81019080803573ffffffffffffffffffffffffffffffffffffffff169060200190929190505050610e20565b604051808381526020018281526020019250505060405180910390f35b34801561044757600080fd5b5061048a6004803603602081101561045e57600080fd5b81019080803573ffffffffffffffffffffffffffffffffffffffff169060200190929190505050610ef7565b604051808060200180602001868152602001858152602001848152602001838103835288818151815260200191508051906020019080838360005b838110156104e05780820151818401526020810190506104c5565b50505050905090810190601f16801561050d5780820380516001836020036101000a031916815260200191505b50838103825287818151815260200191508051906020019080838360005b8381101561054657808201518184015260208101905061052b565b50505050905090810190601f1680156105735780820380516001836020036101000a031916815260200191505b5097505050505050505060405180910390f35b34801561059257600080fd5b5061059b61105d565b005b3480156105a957600080fd5b506105e0600480360360408110156105c057600080fd5b8101908080359060200190929190803590602001909291905050506113c7565b6040518080602001828103825283818151815260200191508051906020019060200280838360005b83811015610623578082015181840152602081019050610608565b505050509050019250505060405180910390f35b34801561064357600080fd5b506106706004803603602081101561065a57600080fd5b81019080803590602001909291905050506115ba565b604051808273ffffffffffffffffffffffffffffffffffffffff1673ffffffffffffffffffffffffffffffffffffffff16815260200191505060405180910390f35b3480156106be57600080fd5b506106c76115f8565b6040518082815260200191505060405180910390f35b600080600260008473ffffffffffffffffffffffffffffffffffffffff1673ffffffffffffffffffffffffffffffffffffffff168152602001908152602001600020600001805460018160011615610100020316600290049050119050919050565b60005481565b3373ffffffffffffffffffffffffffffffffffffffff163273ffffffffffffffffffffffffffffffffffffffff161415156107cb576040517f08c379a000000000000000000000000000000000000000000000000000000000815260040180806020018281038252602181526020018061175a6021913960400191505060405180910390fd5b60008251111515610844576040517f08c379a000000000000000000000000000000000000000000000000000000000815260040180806020018281038252601b8152602001807f506c656173652070726f7669646520612076616c6964206e616d65000000000081525060200191505060405180910390fd5b600081511115156108bd576040517f08c379a000000000000000000000000000000000000000000000000000000000815260040180806020018281038252601e8152602001807f506c656173652070726f7669646520612076616c69642077656273697465000081525060200191505060405180910390fd5b60006108c8336106dd565b15905060008082156109e95760005434141515610930576040517f08c379a000000000000000000000000000000000000000000000000000000000815260040180806020018281038252602d81526020018061177b602d913960400191505060405180910390fd5b600180549050905043915060013390806001815401808255809150509060018203906000526020600020016000909192909190916101000a81548173ffffffffffffffffffffffffffffffffffffffff021916908373ffffffffffffffffffffffffffffffffffffffff160217905550503373ffffffffffffffffffffffffffffffffffffffff167f038596bb31e2e7d3d9f184d4c98b310103f6d7f5830e5eec32bffe6f1728f96960405160405180910390a2610b12565b600034141515610a44576040517f08c379a000000000000000000000000000000000000000000000000000000000815260040180806020018281038252603c8152602001806117a8603c913960400191505060405180910390fd5b600260003373ffffffffffffffffffffffffffffffffffffffff1673ffffffffffffffffffffffffffffffffffffffff168152602001908152602001600020600301549150600260003373ffffffffffffffffffffffffffffffffffffffff1673ffffffffffffffffffffffffffffffffffffffff1681526020019081526020016000206002015490503373ffffffffffffffffffffffffffffffffffffffff167f3f895d1a1eaa616d02b3e05c89e0e6aa0aa8d158dac2729420487f26bd9883fb60405160405180910390a25b60a06040519081016040528086815260200185815260200182815260200183815260200143815250600260003373ffffffffffffffffffffffffffffffffffffffff1673ffffffffffffffffffffffffffffffffffffffff1681526020019081526020016000206000820151816000019080519060200190610b95929190611640565b506020820151816001019080519060200190610bb2929190611640565b506040820151816002015560608201518160030155608082015181600401559050505050505050565b606080610be7836106dd565b1515610c5b576040517f08c379a00000000000000000000000000000000000000000000000000000000081526004018080602001828103825260208152602001807f506c656173652070726f766964652061206c697374656420477561726469616e81525060200191505060405180910390fd5b600260008473ffffffffffffffffffffffffffffffffffffffff1673ffffffffffffffffffffffffffffffffffffffff168152602001908152602001600020600001600260008573ffffffffffffffffffffffffffffffffffffffff1673ffffffffffffffffffffffffffffffffffffffff168152602001908152602001600020600101818054600181600116156101000203166002900480601f016020809104026020016040519081016040528092919081815260200182805460018160011615610100020316600290048015610d745780601f10610d4957610100808354040283529160200191610d74565b820191906000526020600020905b815481529060010190602001808311610d5757829003601f168201915b50505050509150808054600181600116156101000203166002900480601f016020809104026020016040519081016040528092919081815260200182805460018160011615610100020316600290048015610e105780601f10610de557610100808354040283529160200191610e10565b820191906000526020600020905b815481529060010190602001808311610df357829003601f168201915b5050505050905091509150915091565b600080610e2c836106dd565b1515610ea0576040517f08c379a00000000000000000000000000000000000000000000000000000000081526004018080602001828103825260208152602001807f506c656173652070726f766964652061206c697374656420477561726469616e81525060200191505060405180910390fd5b6000600260008573ffffffffffffffffffffffffffffffffffffffff1673ffffffffffffffffffffffffffffffffffffffff1681526020019081526020016000209050806003015481600401549250925050915091565b6002602052806000526040600020600091509050806000018054600181600116156101000203166002900480601f016020809104026020016040519081016040528092919081815260200182805460018160011615610100020316600290048015610fa35780601f10610f7857610100808354040283529160200191610fa3565b820191906000526020600020905b815481529060010190602001808311610f8657829003601f168201915b505050505090806001018054600181600116156101000203166002900480601f0160208091040260200160405190810160405280929190818152602001828054600181600116156101000203166002900480156110415780601f1061101657610100808354040283529160200191611041565b820191906000526020600020905b81548152906001019060200180831161102457829003601f168201915b5050505050908060020154908060030154908060040154905085565b611066336106dd565b15156110da576040517f08c379a00000000000000000000000000000000000000000000000000000000081526004018080602001828103825260188152602001807f53656e646572206973206e6f74206120477561726469616e000000000000000081525060200191505060405180910390fd5b6000600260003373ffffffffffffffffffffffffffffffffffffffff1673ffffffffffffffffffffffffffffffffffffffff1681526020019081526020016000206002015490503373ffffffffffffffffffffffffffffffffffffffff1660018281548110151561114757fe5b9060005260206000200160009054906101000a900473ffffffffffffffffffffffffffffffffffffffff1673ffffffffffffffffffffffffffffffffffffffff1614151561119157fe5b6001808080549050038154811015156111a657fe5b9060005260206000200160009054906101000a900473ffffffffffffffffffffffffffffffffffffffff166001828154811015156111e057fe5b9060005260206000200160006101000a81548173ffffffffffffffffffffffffffffffffffffffff021916908373ffffffffffffffffffffffffffffffffffffffff160217905550806002600060018481548110151561123c57fe5b9060005260206000200160009054906101000a900473ffffffffffffffffffffffffffffffffffffffff1673ffffffffffffffffffffffffffffffffffffffff1673ffffffffffffffffffffffffffffffffffffffff16815260200190815260200160002060020181905550600260003373ffffffffffffffffffffffffffffffffffffffff1673ffffffffffffffffffffffffffffffffffffffff168152602001908152602001600020600080820160006112f891906116c0565b60018201600061130891906116c0565b600282016000905560038201600090556004820160009055505060018054809190600190036113379190611708565b503373ffffffffffffffffffffffffffffffffffffffff166108fc6000549081150290604051600060405180830381858888f19350505050158015611380573d6000803e3d6000fd5b503373ffffffffffffffffffffffffffffffffffffffff167f30e7885e5f0fc1d648230d0e9245d45333c7158885df954f0a2f0fb442be0f6560405160405180910390a250565b60606001805490508310151561140f5760006040519080825280602002602001820160405280156114075781602001602082028038833980820191505090505b5090506115b4565b60648211151515611488576040517f08c379a000000000000000000000000000000000000000000000000000000000815260040180806020018281038252601c8152602001807f506167652073697a65206d6179206e6f7420657863656564203130300000000081525060200191505060405180910390fd5b6001805490506114a183856115fd90919063ffffffff16565b11156114c2576114bf8360018054905061161e90919063ffffffff16565b91505b6060826040519080825280602002602001820160405280156114f35781602001602082028038833980820191505090505b50905060008151905060008090505b818110156115ad57600161151f82886115fd90919063ffffffff16565b81548110151561152b57fe5b9060005260206000200160009054906101000a900473ffffffffffffffffffffffffffffffffffffffff16838281518110151561156457fe5b9060200190602002019073ffffffffffffffffffffffffffffffffffffffff16908173ffffffffffffffffffffffffffffffffffffffff16815250508080600101915050611502565b5081925050505b92915050565b6001818154811015156115c957fe5b906000526020600020016000915054906101000a900473ffffffffffffffffffffffffffffffffffffffff1681565b600181565b600080828401905083811015151561161457600080fd5b8091505092915050565b600082821115151561162f57600080fd5b600082840390508091505092915050565b828054600181600116156101000203166002900490600052602060002090601f016020900481019282601f1061168157805160ff19168380011785556116af565b828001600101855582156116af579182015b828111156116ae578251825591602001919060010190611693565b5b5090506116bc9190611734565b5090565b50805460018160011615610100020316600290046000825580601f106116e65750611705565b601f0160209004906000526020600020908101906117049190611734565b5b50565b81548183558181111561172f5781836000526020600020918201910161172e9190611734565b5b505050565b61175691905b8082111561175257600081600090555060010161173a565b5090565b9056fe4f6e6c7920454f41206d617920726567697374657220617320477561726469616e506c656173652070726f766964652074686520657861637420726567697374726174696f6e206465706f736974477561726469616e20697320616c726561647920726567697374657265642c206e6f206e65656420666f722061207365636f6e64206465706f736974a165627a7a72305820f63c7493d0302df108dbdf96598133e4bc5a8bf56be675c4dbf45f69dbce271b0029",
  "compiler": {
    "name": "solc",
    "version": "0.5.3+commit.10d17f24.Emscripten.clang"
  },
  "schemaVersion": "3.0.2",
  "updatedAt": "2019-03-17T16:41:49.115Z",
  "devdoc": {
    "methods": {}
  },
  "userdoc": {
    "methods": {}
  }
}