{
  "contractName": "OrbsValidatorsRegistry",
  "abi": [
    {
      "constant": true,
      "inputs": [
        {
          "name": "",
          "type": "bytes32"
        }
      ],
      "name": "lookupIp",
      "outputs": [
        {
          "name": "",
          "type": "address"
        }
      ],
      "payable": false,
      "stateMutability": "view",
      "type": "function"
    },
    {
      "constant": true,
      "inputs": [
        {
          "name": "",
          "type": "bytes32"
        }
      ],
      "name": "lookupUrl",
      "outputs": [
        {
          "name": "",
          "type": "address"
        }
      ],
      "payable": false,
      "stateMutability": "view",
      "type": "function"
    },
    {
      "constant": true,
      "inputs": [
        {
          "name": "",
          "type": "bytes32"
        }
      ],
      "name": "lookupName",
      "outputs": [
        {
          "name": "",
          "type": "address"
        }
      ],
      "payable": false,
      "stateMutability": "view",
      "type": "function"
    },
    {
      "constant": true,
      "inputs": [
        {
          "name": "",
          "type": "bytes20"
        }
      ],
      "name": "lookupOrbsAddr",
      "outputs": [
        {
          "name": "",
          "type": "address"
        }
      ],
      "payable": false,
      "stateMutability": "view",
      "type": "function"
    },
    {
      "constant": true,
      "inputs": [
        {
          "name": "",
          "type": "address"
        }
      ],
      "name": "validatorsData",
      "outputs": [
        {
          "name": "name",
          "type": "string"
        },
        {
          "name": "ipAddress",
          "type": "bytes"
        },
        {
          "name": "website",
          "type": "string"
        },
        {
          "name": "orbsAddress",
          "type": "bytes20"
        },
        {
          "name": "registeredOnBlock",
          "type": "uint256"
        },
        {
          "name": "lastUpdatedOnBlock",
          "type": "uint256"
        }
      ],
      "payable": false,
      "stateMutability": "view",
      "type": "function"
    },
    {
      "constant": true,
      "inputs": [],
      "name": "VERSION",
      "outputs": [
        {
          "name": "",
          "type": "uint256"
        }
      ],
      "payable": false,
      "stateMutability": "view",
      "type": "function"
    },
    {
      "anonymous": false,
      "inputs": [
        {
          "indexed": true,
          "name": "validator",
          "type": "address"
        }
      ],
      "name": "ValidatorLeft",
      "type": "event"
    },
    {
      "anonymous": false,
      "inputs": [
        {
          "indexed": true,
          "name": "validator",
          "type": "address"
        }
      ],
      "name": "ValidatorRegistered",
      "type": "event"
    },
    {
      "constant": false,
      "inputs": [
        {
          "name": "name",
          "type": "string"
        },
        {
          "name": "ipAddress",
          "type": "bytes"
        },
        {
          "name": "website",
          "type": "string"
        },
        {
          "name": "orbsAddress",
          "type": "bytes20"
        }
      ],
      "name": "register",
      "outputs": [],
      "payable": false,
      "stateMutability": "nonpayable",
      "type": "function"
    },
    {
      "constant": false,
      "inputs": [],
      "name": "leave",
      "outputs": [],
      "payable": false,
      "stateMutability": "nonpayable",
      "type": "function"
    },
    {
      "constant": true,
      "inputs": [
        {
          "name": "validator",
          "type": "address"
        }
      ],
      "name": "getValidatorData",
      "outputs": [
        {
          "name": "name",
          "type": "string"
        },
        {
          "name": "ipAddress",
          "type": "bytes"
        },
        {
          "name": "website",
          "type": "string"
        },
        {
          "name": "orbsAddress",
          "type": "bytes20"
        }
      ],
      "payable": false,
      "stateMutability": "view",
      "type": "function"
    },
    {
      "constant": true,
      "inputs": [
        {
          "name": "validator",
          "type": "address"
        }
      ],
      "name": "getRegistrationBlockHeight",
      "outputs": [
        {
          "name": "registeredOn",
          "type": "uint256"
        },
        {
          "name": "lastUpdatedOn",
          "type": "uint256"
        }
      ],
      "payable": false,
      "stateMutability": "view",
      "type": "function"
    },
    {
      "constant": true,
      "inputs": [
        {
          "name": "validator",
          "type": "address"
        }
      ],
      "name": "getOrbsAddress",
      "outputs": [
        {
          "name": "",
          "type": "bytes20"
        }
      ],
      "payable": false,
      "stateMutability": "view",
      "type": "function"
    },
    {
      "constant": true,
      "inputs": [
        {
          "name": "addr",
          "type": "address"
        }
      ],
      "name": "isValidator",
      "outputs": [
        {
          "name": "",
          "type": "bool"
        }
      ],
      "payable": false,
      "stateMutability": "view",
      "type": "function"
    }
  ],
  "bytecode": "0x608060405234801561001057600080fd5b5061228f806100206000396000f3fe608060405234801561001057600080fd5b50600436106100d1576000357c010000000000000000000000000000000000000000000000000000000090048063c12a3db01161008e578063c12a3db0146104af578063d66d9e19146106b1578063e1bc3c46146106bb578063e7b1162214610738578063facd743b14610900578063ffa1ad741461095c576100d1565b80632536f8b5146100d65780633aee80a81461029057806366567445146102fe5780637f72185a1461036c5780638e970312146103cb578063ada7807514610439575b600080fd5b610118600480360360208110156100ec57600080fd5b81019080803573ffffffffffffffffffffffffffffffffffffffff16906020019092919050505061097a565b60405180806020018060200180602001856bffffffffffffffffffffffff19166bffffffffffffffffffffffff19168152602001848103845288818151815260200191508051906020019080838360005b83811015610184578082015181840152602081019050610169565b50505050905090810190601f1680156101b15780820380516001836020036101000a031916815260200191505b50848103835287818151815260200191508051906020019080838360005b838110156101ea5780820151818401526020810190506101cf565b50505050905090810190601f1680156102175780820380516001836020036101000a031916815260200191505b50848103825286818151815260200191508051906020019080838360005b83811015610250578082015181840152602081019050610235565b50505050905090810190601f16801561027d5780820380516001836020036101000a031916815260200191505b5097505050505050505060405180910390f35b6102bc600480360360208110156102a657600080fd5b8101908080359060200190929190505050610c4e565b604051808273ffffffffffffffffffffffffffffffffffffffff1673ffffffffffffffffffffffffffffffffffffffff16815260200191505060405180910390f35b61032a6004803603602081101561031457600080fd5b8101908080359060200190929190505050610c81565b604051808273ffffffffffffffffffffffffffffffffffffffff1673ffffffffffffffffffffffffffffffffffffffff16815260200191505060405180910390f35b6103ae6004803603602081101561038257600080fd5b81019080803573ffffffffffffffffffffffffffffffffffffffff169060200190929190505050610cb4565b604051808381526020018281526020019250505060405180910390f35b6103f7600480360360208110156103e157600080fd5b8101908080359060200190929190505050610d8a565b604051808273ffffffffffffffffffffffffffffffffffffffff1673ffffffffffffffffffffffffffffffffffffffff16815260200191505060405180910390f35b61047b6004803603602081101561044f57600080fd5b81019080803573ffffffffffffffffffffffffffffffffffffffff169060200190929190505050610dbd565b60405180826bffffffffffffffffffffffff19166bffffffffffffffffffffffff1916815260200191505060405180910390f35b6106af600480360360808110156104c557600080fd5b81019080803590602001906401000000008111156104e257600080fd5b8201836020820111156104f457600080fd5b8035906020019184600183028401116401000000008311171561051657600080fd5b91908080601f016020809104026020016040519081016040528093929190818152602001838380828437600081840152601f19601f8201169050808301925050505050505091929192908035906020019064010000000081111561057957600080fd5b82018360208201111561058b57600080fd5b803590602001918460018302840111640100000000831117156105ad57600080fd5b91908080601f016020809104026020016040519081016040528093929190818152602001838380828437600081840152601f19601f8201169050808301925050505050505091929192908035906020019064010000000081111561061057600080fd5b82018360208201111561062257600080fd5b8035906020019184600183028401116401000000008311171561064457600080fd5b91908080601f016020809104026020016040519081016040528093929190818152602001838380828437600081840152601f19601f82011690508083019250505050505050919291929080356bffffffffffffffffffffffff19169060200190929190505050610e9e565b005b6106b96118d7565b005b6106f6600480360360208110156106d157600080fd5b8101908080356bffffffffffffffffffffffff19169060200190929190505050611cd8565b604051808273ffffffffffffffffffffffffffffffffffffffff1673ffffffffffffffffffffffffffffffffffffffff16815260200191505060405180910390f35b61077a6004803603602081101561074e57600080fd5b81019080803573ffffffffffffffffffffffffffffffffffffffff169060200190929190505050611d0b565b60405180806020018060200180602001876bffffffffffffffffffffffff19166bffffffffffffffffffffffff1916815260200186815260200185815260200184810384528a818151815260200191508051906020019080838360005b838110156107f25780820151818401526020810190506107d7565b50505050905090810190601f16801561081f5780820380516001836020036101000a031916815260200191505b50848103835289818151815260200191508051906020019080838360005b8381101561085857808201518184015260208101905061083d565b50505050905090810190601f1680156108855780820380516001836020036101000a031916815260200191505b50848103825288818151815260200191508051906020019080838360005b838110156108be5780820151818401526020810190506108a3565b50505050905090810190601f1680156108eb5780820380516001836020036101000a031916815260200191505b50995050505050505050505060405180910390f35b6109426004803603602081101561091657600080fd5b81019080803573ffffffffffffffffffffffffffffffffffffffff169060200190929190505050611f28565b604051808215151515815260200191505060405180910390f35b610964611f89565b6040518082815260200191505060405180910390f35b6060806060600061098a85611f28565b15156109fe576040517f08c379a00000000000000000000000000000000000000000000000000000000081526004018080602001828103825260128152602001807f556e6c69737465642056616c696461746f72000000000000000000000000000081525060200191505060405180910390fd5b60008060008773ffffffffffffffffffffffffffffffffffffffff1673ffffffffffffffffffffffffffffffffffffffff16815260200190815260200160002090508060000181600101826002018360030160009054906101000a90046c0100000000000000000000000002838054600181600116156101000203166002900480601f016020809104026020016040519081016040528092919081815260200182805460018160011615610100020316600290048015610aff5780601f10610ad457610100808354040283529160200191610aff565b820191906000526020600020905b815481529060010190602001808311610ae257829003601f168201915b50505050509350828054600181600116156101000203166002900480601f016020809104026020016040519081016040528092919081815260200182805460018160011615610100020316600290048015610b9b5780601f10610b7057610100808354040283529160200191610b9b565b820191906000526020600020905b815481529060010190602001808311610b7e57829003601f168201915b50505050509250818054600181600116156101000203166002900480601f016020809104026020016040519081016040528092919081815260200182805460018160011615610100020316600290048015610c375780601f10610c0c57610100808354040283529160200191610c37565b820191906000526020600020905b815481529060010190602001808311610c1a57829003601f168201915b505050505091509450945094509450509193509193565b60036020528060005260406000206000915054906101000a900473ffffffffffffffffffffffffffffffffffffffff1681565b60026020528060005260406000206000915054906101000a900473ffffffffffffffffffffffffffffffffffffffff1681565b600080610cc083611f28565b1515610d34576040517f08c379a00000000000000000000000000000000000000000000000000000000081526004018080602001828103825260128152602001807f556e6c69737465642056616c696461746f72000000000000000000000000000081525060200191505060405180910390fd5b60008060008573ffffffffffffffffffffffffffffffffffffffff1673ffffffffffffffffffffffffffffffffffffffff1681526020019081526020016000209050806004015481600501549250925050915091565b60016020528060005260406000206000915054906101000a900473ffffffffffffffffffffffffffffffffffffffff1681565b6000610dc882611f28565b1515610e3c576040517f08c379a00000000000000000000000000000000000000000000000000000000081526004018080602001828103825260128152602001807f556e6c69737465642056616c696461746f72000000000000000000000000000081525060200191505060405180910390fd5b6000808373ffffffffffffffffffffffffffffffffffffffff1673ffffffffffffffffffffffffffffffffffffffff16815260200190815260200160002060030160009054906101000a90046c01000000000000000000000000029050919050565b60008451111515610f17576040517f08c379a000000000000000000000000000000000000000000000000000000000815260040180806020018281038252601b8152602001807f506c656173652070726f7669646520612076616c6964206e616d65000000000081525060200191505060405180910390fd5b60008251111515610f90576040517f08c379a000000000000000000000000000000000000000000000000000000000815260040180806020018281038252601e8152602001807f506c656173652070726f7669646520612076616c69642077656273697465000081525060200191505060405180910390fd5b60048351141515610fec576040517f08c379a00000000000000000000000000000000000000000000000000000000081526004018080602001828103825260448152602001806121446044913960600191505060405180910390fd5b60006c01000000000000000000000000026bffffffffffffffffffffffff1916816bffffffffffffffffffffffff191614151515611075576040517f08c379a00000000000000000000000000000000000000000000000000000000081526004018080602001828103825260238152602001806121ec6023913960400191505060405180910390fd5b600084805190602001209050600084805190602001209050600084805190602001209050600073ffffffffffffffffffffffffffffffffffffffff166001600085815260200190815260200160002060009054906101000a900473ffffffffffffffffffffffffffffffffffffffff1673ffffffffffffffffffffffffffffffffffffffff16148061116557503373ffffffffffffffffffffffffffffffffffffffff166001600085815260200190815260200160002060009054906101000a900473ffffffffffffffffffffffffffffffffffffffff1673ffffffffffffffffffffffffffffffffffffffff16145b15156111bc576040517f08c379a000000000000000000000000000000000000000000000000000000000815260040180806020018281038252602b815260200180612239602b913960400191505060405180910390fd5b600073ffffffffffffffffffffffffffffffffffffffff166002600083815260200190815260200160002060009054906101000a900473ffffffffffffffffffffffffffffffffffffffff1673ffffffffffffffffffffffffffffffffffffffff16148061128857503373ffffffffffffffffffffffffffffffffffffffff166002600083815260200190815260200160002060009054906101000a900473ffffffffffffffffffffffffffffffffffffffff1673ffffffffffffffffffffffffffffffffffffffff16145b15156112df576040517f08c379a000000000000000000000000000000000000000000000000000000000815260040180806020018281038252602a81526020018061220f602a913960400191505060405180910390fd5b600073ffffffffffffffffffffffffffffffffffffffff166003600084815260200190815260200160002060009054906101000a900473ffffffffffffffffffffffffffffffffffffffff1673ffffffffffffffffffffffffffffffffffffffff1614806113ab57503373ffffffffffffffffffffffffffffffffffffffff166003600084815260200190815260200160002060009054906101000a900473ffffffffffffffffffffffffffffffffffffffff1673ffffffffffffffffffffffffffffffffffffffff16145b1515611402576040517f08c379a00000000000000000000000000000000000000000000000000000000081526004018080602001828103825260318152602001806121bb6031913960400191505060405180910390fd5b600073ffffffffffffffffffffffffffffffffffffffff1660046000866bffffffffffffffffffffffff19166bffffffffffffffffffffffff1916815260200190815260200160002060009054906101000a900473ffffffffffffffffffffffffffffffffffffffff1673ffffffffffffffffffffffffffffffffffffffff16148061150a57503373ffffffffffffffffffffffffffffffffffffffff1660046000866bffffffffffffffffffffffff19166bffffffffffffffffffffffff1916815260200190815260200160002060009054906101000a900473ffffffffffffffffffffffffffffffffffffffff1673ffffffffffffffffffffffffffffffffffffffff16145b1515611561576040517f08c379a00000000000000000000000000000000000000000000000000000000081526004018080602001828103825260338152602001806121886033913960400191505060405180910390fd5b336001600085815260200190815260200160002060006101000a81548173ffffffffffffffffffffffffffffffffffffffff021916908373ffffffffffffffffffffffffffffffffffffffff160217905550336002600083815260200190815260200160002060006101000a81548173ffffffffffffffffffffffffffffffffffffffff021916908373ffffffffffffffffffffffffffffffffffffffff160217905550336003600084815260200190815260200160002060006101000a81548173ffffffffffffffffffffffffffffffffffffffff021916908373ffffffffffffffffffffffffffffffffffffffff1602179055503360046000866bffffffffffffffffffffffff19166bffffffffffffffffffffffff1916815260200190815260200160002060006101000a81548173ffffffffffffffffffffffffffffffffffffffff021916908373ffffffffffffffffffffffffffffffffffffffff1602179055506000806000803373ffffffffffffffffffffffffffffffffffffffff1673ffffffffffffffffffffffffffffffffffffffff1681526020019081526020016000206004015414151561175c576000803373ffffffffffffffffffffffffffffffffffffffff1673ffffffffffffffffffffffffffffffffffffffff168152602001908152602001600020600401549050611760565b4390505b60c060405190810160405280898152602001888152602001878152602001866bffffffffffffffffffffffff19168152602001828152602001438152506000803373ffffffffffffffffffffffffffffffffffffffff1673ffffffffffffffffffffffffffffffffffffffff16815260200190815260200160002060008201518160000190805190602001906117f7929190611f8e565b50602082015181600101908051906020019061181492919061200e565b506040820151816002019080519060200190611831929190611f8e565b5060608201518160030160006101000a81548173ffffffffffffffffffffffffffffffffffffffff02191690836c01000000000000000000000000900402179055506080820151816004015560a082015181600501559050503373ffffffffffffffffffffffffffffffffffffffff167fd09501348473474a20c772c79c653e1fd7e8b437e418fe235d277d2c8885325160405160405180910390a25050505050505050565b6118e033611f28565b1515611954576040517f08c379a00000000000000000000000000000000000000000000000000000000081526004018080602001828103825260208152602001807f53656e646572206973206e6f742061206c69737465642056616c696461746f7281525060200191505060405180910390fd5b60008060003373ffffffffffffffffffffffffffffffffffffffff1673ffffffffffffffffffffffffffffffffffffffff1681526020019081526020016000209050600160008260000160405180828054600181600116156101000203166002900480156119f95780601f106119d75761010080835404028352918201916119f9565b820191906000526020600020905b8154815290600101906020018083116119e5575b50509150506040518091039020815260200190815260200160002060006101000a81549073ffffffffffffffffffffffffffffffffffffffff021916905560026000826002016040518082805460018160011615610100020316600290048015611a9a5780601f10611a78576101008083540402835291820191611a9a565b820191906000526020600020905b815481529060010190602001808311611a86575b50509150506040518091039020815260200190815260200160002060006101000a81549073ffffffffffffffffffffffffffffffffffffffff021916905560036000826001016040518082805460018160011615610100020316600290048015611b3b5780601f10611b19576101008083540402835291820191611b3b565b820191906000526020600020905b815481529060010190602001808311611b27575b50509150506040518091039020815260200190815260200160002060006101000a81549073ffffffffffffffffffffffffffffffffffffffff0219169055600460008260030160009054906101000a90046c01000000000000000000000000026bffffffffffffffffffffffff19166bffffffffffffffffffffffff1916815260200190815260200160002060006101000a81549073ffffffffffffffffffffffffffffffffffffffff02191690556000803373ffffffffffffffffffffffffffffffffffffffff1673ffffffffffffffffffffffffffffffffffffffff16815260200190815260200160002060008082016000611c39919061208e565b600182016000611c4991906120d6565b600282016000611c59919061208e565b6003820160006101000a81549073ffffffffffffffffffffffffffffffffffffffff02191690556004820160009055600582016000905550503373ffffffffffffffffffffffffffffffffffffffff167f457a63bb4fcc8a2d38fb6141645ce9afbb084a1e63edee2799243c96a0498a0e60405160405180910390a250565b60046020528060005260406000206000915054906101000a900473ffffffffffffffffffffffffffffffffffffffff1681565b6000602052806000526040600020600091509050806000018054600181600116156101000203166002900480601f016020809104026020016040519081016040528092919081815260200182805460018160011615610100020316600290048015611db75780601f10611d8c57610100808354040283529160200191611db7565b820191906000526020600020905b815481529060010190602001808311611d9a57829003601f168201915b505050505090806001018054600181600116156101000203166002900480601f016020809104026020016040519081016040528092919081815260200182805460018160011615610100020316600290048015611e555780601f10611e2a57610100808354040283529160200191611e55565b820191906000526020600020905b815481529060010190602001808311611e3857829003601f168201915b505050505090806002018054600181600116156101000203166002900480601f016020809104026020016040519081016040528092919081815260200182805460018160011615610100020316600290048015611ef35780601f10611ec857610100808354040283529160200191611ef3565b820191906000526020600020905b815481529060010190602001808311611ed657829003601f168201915b5050505050908060030160009054906101000a90046c0100000000000000000000000002908060040154908060050154905086565b6000806000808473ffffffffffffffffffffffffffffffffffffffff1673ffffffffffffffffffffffffffffffffffffffff168152602001908152602001600020600001805460018160011615610100020316600290049050119050919050565b600181565b828054600181600116156101000203166002900490600052602060002090601f016020900481019282601f10611fcf57805160ff1916838001178555611ffd565b82800160010185558215611ffd579182015b82811115611ffc578251825591602001919060010190611fe1565b5b50905061200a919061211e565b5090565b828054600181600116156101000203166002900490600052602060002090601f016020900481019282601f1061204f57805160ff191683800117855561207d565b8280016001018555821561207d579182015b8281111561207c578251825591602001919060010190612061565b5b50905061208a919061211e565b5090565b50805460018160011615610100020316600290046000825580601f106120b457506120d3565b601f0160209004906000526020600020908101906120d2919061211e565b5b50565b50805460018160011615610100020316600290046000825580601f106120fc575061211b565b601f01602090049060005260206000209081019061211a919061211e565b5b50565b61214091905b8082111561213c576000816000905550600101612124565b5090565b9056fe506c65617365207061737320616e206970206164647265737320726570726573656e74656420617320616e206172726179206f662065786163746c7920342062797465734f726273204164647265737320697320616c726561647920696e2075736520627920616e6f746865722076616c696461746f724950204164647265737320697320616c726561647920696e2075736520627920616e6f746865722076616c696461746f72506c656173652070726f7669646520612076616c6964204f726273204164647265737355524c20697320616c726561647920696e2075736520627920616e6f746865722076616c696461746f724e616d6520697320616c726561647920696e2075736520627920616e6f746865722076616c696461746f72a165627a7a72305820af1de50f9212601aa928fd8ba102ba6932307a255b70ee56dce9ec86dac51a2e0029",
  "source": "pragma solidity 0.5.3;\n\n\nimport \"./IOrbsValidatorsRegistry.sol\";\n\n\ncontract OrbsValidatorsRegistry is IOrbsValidatorsRegistry {\n\n    struct ValidatorData {\n        string name;\n        bytes ipAddress;\n        string website;\n        bytes20 orbsAddress;\n        uint registeredOnBlock;\n        uint lastUpdatedOnBlock;\n    }\n\n    uint public constant VERSION = 1;\n\n    mapping(address => ValidatorData) public validatorsData;\n\n    mapping(bytes32 => address) public lookupName;\n    mapping(bytes32 => address) public lookupUrl;\n    mapping(bytes32 => address) public lookupIp;\n    mapping(bytes20 => address) public lookupOrbsAddr;\n\n    function register(\n        string memory name,\n        bytes memory ipAddress,\n        string memory website,\n        bytes20 orbsAddress\n    )\n        public\n    {\n        require(bytes(name).length > 0, \"Please provide a valid name\");\n        require(bytes(website).length > 0, \"Please provide a valid website\");\n        require(ipAddress.length == 4, \"Please pass an ip address represented as an array of exactly 4 bytes\");\n        require(orbsAddress != bytes20(0), \"Please provide a valid Orbs Address\");\n\n        bytes32 nameHash = keccak256(bytes(name));\n        bytes32 ipHash   = keccak256(ipAddress);\n        bytes32 urlHash  = keccak256(bytes(website));\n\n        require(\n            lookupName[nameHash] == address(0) ||\n            lookupName[nameHash] == msg.sender,\n                \"Name is already in use by another validator\"\n        );\n        require(\n            lookupUrl[urlHash] == address(0) ||\n            lookupUrl[urlHash] == msg.sender,\n                \"URL is already in use by another validator\"\n        );\n        require(\n            lookupIp[ipHash] == address(0) ||\n            lookupIp[ipHash] == msg.sender,\n                \"IP Address is already in use by another validator\"\n        );\n        require(\n            lookupOrbsAddr[orbsAddress] == address(0) ||\n            lookupOrbsAddr[orbsAddress] == msg.sender,\n                \"Orbs Address is already in use by another validator\"\n        );\n\n        lookupName[nameHash] = msg.sender;\n        lookupUrl[urlHash] = msg.sender;\n        lookupIp[ipHash] = msg.sender;\n        lookupOrbsAddr[orbsAddress] = msg.sender;\n\n        uint registeredOnBlock;\n        if (validatorsData[msg.sender].registeredOnBlock != 0) {\n            registeredOnBlock = validatorsData[msg.sender].registeredOnBlock;\n        } else {\n            registeredOnBlock = block.number;\n        }\n\n        validatorsData[msg.sender] = ValidatorData(\n            name,\n            ipAddress,\n            website,\n            orbsAddress,\n            registeredOnBlock,\n            block.number\n        );\n        emit ValidatorRegistered(msg.sender);\n    }\n\n    function leave() public {\n        require(isValidator(msg.sender), \"Sender is not a listed Validator\");\n\n        ValidatorData storage data = validatorsData[msg.sender];\n\n        delete lookupName[keccak256(bytes(data.name))];\n        delete lookupUrl[keccak256(bytes(data.website))];\n        delete lookupIp[keccak256(data.ipAddress)];\n        delete lookupOrbsAddr[data.orbsAddress];\n\n        delete validatorsData[msg.sender];\n\n        emit ValidatorLeft(msg.sender);\n    }\n\n    function getValidatorData(address validator)\n        public\n        view\n        returns (\n            string memory name,\n            bytes memory ipAddress,\n            string memory website,\n            bytes20 orbsAddress\n        )\n    {\n        require(isValidator(validator), \"Unlisted Validator\");\n\n        ValidatorData storage entry = validatorsData[validator];\n        return (\n            entry.name,\n            entry.ipAddress,\n            entry.website,\n            entry.orbsAddress\n        );\n    }\n\n    function getRegistrationBlockHeight(address validator)\n        external\n        view\n        returns (uint registeredOn, uint lastUpdatedOn)\n    {\n        require(isValidator(validator), \"Unlisted Validator\");\n\n        ValidatorData storage entry = validatorsData[validator];\n        return (\n            entry.registeredOnBlock,\n            entry.lastUpdatedOnBlock\n        );\n    }\n\n    function getOrbsAddress(address validator)\n        public\n        view\n        returns (bytes20)\n    {\n        require(isValidator(validator), \"Unlisted Validator\");\n\n        return validatorsData[validator].orbsAddress;\n    }\n\n    function isValidator(address addr) public view returns (bool) {\n        return bytes(validatorsData[addr].name).length > 0;\n    }\n}",
  "sourcePath": "/Users/ron/work/src/github.com/orbs-network/orbs-ethereum-contracts/voting/ethereum/contracts/OrbsValidatorsRegistry.sol",
  "compiler": {
    "name": "solc",
    "version": "0.5.3+commit.10d17f24.Emscripten.clang"
  },
  "schemaVersion": "3.0.2",
  "updatedAt": "2019-03-17T16:33:02.902Z",
  "devdoc": {
    "methods": {}
  },
  "userdoc": {
    "methods": {}
  }
}