{
  "contractName": "OrbsSubscription",
  "abi": [
    {
      "constant": true,
      "inputs": [],
      "name": "EMPTY",
      "outputs": [
        {
          "name": "",
          "type": "bytes32"
        }
      ],
      "payable": false,
      "stateMutability": "view",
      "type": "function"
    },
    {
      "constant": true,
      "inputs": [],
      "name": "minimalMonthlySubscription",
      "outputs": [
        {
          "name": "",
          "type": "uint256"
        }
      ],
      "payable": false,
      "stateMutability": "view",
      "type": "function"
    },
    {
      "constant": true,
      "inputs": [
        {
          "name": "",
          "type": "uint16"
        },
        {
          "name": "",
          "type": "uint8"
        }
      ],
      "name": "subscriptions",
      "outputs": [
        {
          "name": "totalTokens",
          "type": "uint256"
        }
      ],
      "payable": false,
      "stateMutability": "view",
      "type": "function"
    },
    {
      "constant": true,
      "inputs": [],
      "name": "validators",
      "outputs": [
        {
          "name": "",
          "type": "address"
        }
      ],
      "payable": false,
      "stateMutability": "view",
      "type": "function"
    },
    {
      "constant": true,
      "inputs": [],
      "name": "orbs",
      "outputs": [
        {
          "name": "",
          "type": "address"
        }
      ],
      "payable": false,
      "stateMutability": "view",
      "type": "function"
    },
    {
      "constant": true,
      "inputs": [],
      "name": "VERSION",
      "outputs": [
        {
          "name": "",
          "type": "uint256"
        }
      ],
      "payable": false,
      "stateMutability": "view",
      "type": "function"
    },
    {
      "inputs": [
        {
          "name": "orbs_",
          "type": "address"
        },
        {
          "name": "validators_",
          "type": "address"
        },
        {
          "name": "minimalMonthlySubscription_",
          "type": "uint256"
        }
      ],
      "payable": false,
      "stateMutability": "nonpayable",
      "type": "constructor"
    },
    {
      "anonymous": false,
      "inputs": [
        {
          "indexed": true,
          "name": "subscriber",
          "type": "address"
        },
        {
          "indexed": true,
          "name": "id",
          "type": "bytes32"
        },
        {
          "indexed": false,
          "name": "value",
          "type": "uint256"
        },
        {
          "indexed": false,
          "name": "startFrom",
          "type": "uint256"
        }
      ],
      "name": "Subscribed",
      "type": "event"
    },
    {
      "anonymous": false,
      "inputs": [
        {
          "indexed": true,
          "name": "federationMember",
          "type": "address"
        },
        {
          "indexed": false,
          "name": "value",
          "type": "uint256"
        }
      ],
      "name": "DistributedFees",
      "type": "event"
    },
    {
      "constant": true,
      "inputs": [
        {
          "name": "_id",
          "type": "bytes32"
        }
      ],
      "name": "getSubscriptionData",
      "outputs": [
        {
          "name": "id",
          "type": "bytes32"
        },
        {
          "name": "profile",
          "type": "string"
        },
        {
          "name": "startTime",
          "type": "uint256"
        },
        {
          "name": "tokens",
          "type": "uint256"
        }
      ],
      "payable": false,
      "stateMutability": "view",
      "type": "function"
    },
    {
      "constant": true,
      "inputs": [
        {
          "name": "_id",
          "type": "bytes32"
        },
        {
          "name": "_year",
          "type": "uint16"
        },
        {
          "name": "_month",
          "type": "uint8"
        }
      ],
      "name": "getSubscriptionDataByTime",
      "outputs": [
        {
          "name": "id",
          "type": "bytes32"
        },
        {
          "name": "profile",
          "type": "string"
        },
        {
          "name": "startTime",
          "type": "uint256"
        },
        {
          "name": "tokens",
          "type": "uint256"
        }
      ],
      "payable": false,
      "stateMutability": "view",
      "type": "function"
    },
    {
      "constant": false,
      "inputs": [],
      "name": "distributeFees",
      "outputs": [],
      "payable": false,
      "stateMutability": "nonpayable",
      "type": "function"
    },
    {
      "constant": false,
      "inputs": [
        {
          "name": "_year",
          "type": "uint16"
        },
        {
          "name": "_month",
          "type": "uint8"
        }
      ],
      "name": "distributeFees",
      "outputs": [],
      "payable": false,
      "stateMutability": "nonpayable",
      "type": "function"
    },
    {
      "constant": false,
      "inputs": [
        {
          "name": "_id",
          "type": "bytes32"
        },
        {
          "name": "_profile",
          "type": "string"
        },
        {
          "name": "_value",
          "type": "uint256"
        }
      ],
      "name": "subscribeForCurrentMonth",
      "outputs": [],
      "payable": false,
      "stateMutability": "nonpayable",
      "type": "function"
    },
    {
      "constant": false,
      "inputs": [
        {
          "name": "_id",
          "type": "bytes32"
        },
        {
          "name": "_profile",
          "type": "string"
        },
        {
          "name": "_value",
          "type": "uint256"
        }
      ],
      "name": "subscribeForNextMonth",
      "outputs": [],
      "payable": false,
      "stateMutability": "nonpayable",
      "type": "function"
    }
  ],
  "bytecode": "0x608060405234801561001057600080fd5b50604051606080611bff8339810180604052606081101561003057600080fd5b81019080805190602001909291908051906020019092919080519060200190929190505050600073ffffffffffffffffffffffffffffffffffffffff168373ffffffffffffffffffffffffffffffffffffffff16141515156100fa576040517f08c379a00000000000000000000000000000000000000000000000000000000081526004018080602001828103825260168152602001807f41646472657373206d757374206e6f742062652030210000000000000000000081525060200191505060405180910390fd5b600073ffffffffffffffffffffffffffffffffffffffff168273ffffffffffffffffffffffffffffffffffffffff161415151561019f576040517f08c379a000000000000000000000000000000000000000000000000000000000815260040180806020018281038252601d8152602001807f4f72627356616c696461746f7273206d757374206e6f7420626520302100000081525060200191505060405180910390fd5b600081141515156101fb576040517f08c379a0000000000000000000000000000000000000000000000000000000008152600401808060200182810382526032815260200180611bcd6032913960400191505060405180910390fd5b826000806101000a81548173ffffffffffffffffffffffffffffffffffffffff021916908373ffffffffffffffffffffffffffffffffffffffff16021790555081600160006101000a81548173ffffffffffffffffffffffffffffffffffffffff021916908373ffffffffffffffffffffffffffffffffffffffff16021790555080600281905550505050611938806102956000396000f3fe608060405234801561001057600080fd5b50600436106100d1576000357c010000000000000000000000000000000000000000000000000000000090048063c00506371161008e578063c005063714610315578063ca1e7819146103d1578063cacb767b1461041b578063cc3ef92d146104ea578063cdf5195b14610529578063ffa1ad7414610573576100d1565b806302399125146100d657806319de73e7146100f4578063a466ad9014610112578063b1c90122146101e1578063b7f425e1146102b8578063bb57ad201461030b575b600080fd5b6100de610591565b6040518082815260200191505060405180910390f35b6100fc610599565b6040518082815260200191505060405180910390f35b6101df6004803603606081101561012857600080fd5b81019080803590602001909291908035906020019064010000000081111561014f57600080fd5b82018360208201111561016157600080fd5b8035906020019184600183028401116401000000008311171561018357600080fd5b91908080601f016020809104026020016040519081016040528093929190818152602001838380828437600081840152601f19601f8201169050808301925050505050505091929192908035906020019092919050505061059f565b005b610228600480360360608110156101f757600080fd5b8101908080359060200190929190803561ffff169060200190929190803560ff1690602001909291905050506105b0565b6040518085815260200180602001848152602001838152602001828103825285818151815260200191508051906020019080838360005b8381101561027a57808201518184015260208101905061025f565b50505050905090810190601f1680156102a75780820380516001836020036101000a031916815260200191505b509550505050505060405180910390f35b6102f5600480360360408110156102ce57600080fd5b81019080803561ffff169060200190929190803560ff16906020019092919050505061077b565b6040518082815260200191505060405180910390f35b6103136107a6565b005b6103416004803603602081101561032b57600080fd5b81019080803590602001909291905050506107c7565b6040518085815260200180602001848152602001838152602001828103825285818151815260200191508051906020019080838360005b83811015610393578082015181840152602081019050610378565b50505050905090810190601f1680156103c05780820380516001836020036101000a031916815260200191505b509550505050505060405180910390f35b6103d9610879565b604051808273ffffffffffffffffffffffffffffffffffffffff1673ffffffffffffffffffffffffffffffffffffffff16815260200191505060405180910390f35b6104e86004803603606081101561043157600080fd5b81019080803590602001909291908035906020019064010000000081111561045857600080fd5b82018360208201111561046a57600080fd5b8035906020019184600183028401116401000000008311171561048c57600080fd5b91908080601f016020809104026020016040519081016040528093929190818152602001838380828437600081840152601f19601f8201169050808301925050505050505091929192908035906020019092919050505061089f565b005b6105276004803603604081101561050057600080fd5b81019080803561ffff169060200190929190803560ff169060200190929190505050610a52565b005b6105316110ea565b604051808273ffffffffffffffffffffffffffffffffffffffff1673ffffffffffffffffffffffffffffffffffffffff16815260200191505060405180910390f35b61057b61110f565b6040518082815260200191505060405180910390f35b600060010281565b60025481565b6105ab83838342611114565b505050565b6000606060008060006001028714151515610633576040517f08c379a00000000000000000000000000000000000000000000000000000000081526004018080602001828103825260158152602001807f4944206d757374206e6f7420626520656d70747921000000000000000000000081525060200191505060405180910390fd5b6000600360008861ffff1661ffff16815260200190815260200160002060008760ff1660ff1681526020019081526020016000209050610671611818565b8160000160008a81526020019081526020016000206080604051908101604052908160008201548152602001600182018054600181600116156101000203166002900480601f0160208091040260200160405190810160405280929190818152602001828054600181600116156101000203166002900480156107355780601f1061070a57610100808354040283529160200191610735565b820191906000526020600020905b81548152906001019060200180831161071857829003601f168201915b5050505050815260200160028201548152602001600382015481525050905080600001519550806020015194508060400151935080606001519250505093509350935093565b6003602052816000526040600020602052806000526040600020600091509150508060010154905081565b6000806107b161163f565b80925081935050506107c38282610a52565b5050565b600060606000806000600102851415151561084a576040517f08c379a00000000000000000000000000000000000000000000000000000000081526004018080602001828103825260158152602001807f4944206d757374206e6f7420626520656d70747921000000000000000000000081525060200191505060405180910390fd5b60008061085561163f565b80925081935050506108688783836105b0565b955095509550955050509193509193565b600160009054906101000a900473ffffffffffffffffffffffffffffffffffffffff1681565b6000806108aa61163f565b809250819350505060008073__DateTime______________________________63027a15d085856040518363ffffffff167c0100000000000000000000000000000000000000000000000000000000028152600401808361ffff1661ffff1681526020018260ff1660ff16815260200192505050604080518083038186803b15801561093557600080fd5b505af4158015610949573d6000803e3d6000fd5b505050506040513d604081101561095f57600080fd5b8101908080519060200190929190805190602001909291905050508092508193505050610a4987878773__DateTime______________________________63f6cc72af87876040518363ffffffff167c0100000000000000000000000000000000000000000000000000000000028152600401808361ffff1661ffff1681526020018260ff1660ff1681526020019250505060206040518083038186803b158015610a0957600080fd5b505af4158015610a1d573d6000803e3d6000fd5b505050506040513d6020811015610a3357600080fd5b8101908080519060200190929190505050611114565b50505050505050565b600080610a5d61163f565b809250819350505073__DateTime______________________________63aef47ba985856040518363ffffffff167c0100000000000000000000000000000000000000000000000000000000028152600401808361ffff1661ffff1681526020018260ff1660ff1681526020019250505060206040518083038186803b158015610ae657600080fd5b505af4158015610afa573d6000803e3d6000fd5b505050506040513d6020811015610b1057600080fd5b810190808051906020019092919050505073__DateTime______________________________63aef47ba984846040518363ffffffff167c0100000000000000000000000000000000000000000000000000000000028152600401808361ffff1661ffff1681526020018260ff1660ff1681526020019250505060206040518083038186803b158015610ba257600080fd5b505af4158015610bb6573d6000803e3d6000fd5b505050506040513d6020811015610bcc57600080fd5b810190808051906020019092919050505010151515610c53576040517f08c379a000000000000000000000000000000000000000000000000000000000815260040180806020018281038252601d8152602001807f43616e277420646973747269627574652066757475726520666565732100000081525060200191505060405180910390fd5b6060600160009054906101000a900473ffffffffffffffffffffffffffffffffffffffff1673ffffffffffffffffffffffffffffffffffffffff1663b7ab4db56040518163ffffffff167c010000000000000000000000000000000000000000000000000000000002815260040160006040518083038186803b158015610cd957600080fd5b505afa158015610ced573d6000803e3d6000fd5b505050506040513d6000823e3d601f19601f820116820180604052506020811015610d1757600080fd5b810190808051640100000000811115610d2f57600080fd5b82810190506020810184811115610d4557600080fd5b8151856020820283011164010000000082111715610d6257600080fd5b50509291905050509050600081519050606081604051908082528060200260200182016040528015610da35781602001602082028038833980820191505090505b50905060008090505b82811015610e33578381815181101515610dc257fe5b906020019060200201516c0100000000000000000000000090048282815181101515610dea57fe5b9060200190602002019073ffffffffffffffffffffffffffffffffffffffff16908173ffffffffffffffffffffffffffffffffffffffff16815250508080600101915050610dac565b506000600360008961ffff1661ffff16815260200190815260200160002060008860ff1660ff16815260200190815260200160002090506000610e8384836001015461165390919063ffffffff16565b9050600081111515610efd576040517f08c379a000000000000000000000000000000000000000000000000000000000815260040180806020018281038252601b8152602001807f466565206d7573742062652067726561746572207468616e203021000000000081525060200191505060405180910390fd5b60008090505b848110156110de5760008482815181101515610f1b57fe5b90602001906020020151905060008390506000831415610f5a57610f57878660010154811515610f4757fe5b068261167d90919063ffffffff16565b90505b610f7181866001015461169e90919063ffffffff16565b85600101819055506000809054906101000a900473ffffffffffffffffffffffffffffffffffffffff1673ffffffffffffffffffffffffffffffffffffffff1663a9059cbb83836040518363ffffffff167c0100000000000000000000000000000000000000000000000000000000028152600401808373ffffffffffffffffffffffffffffffffffffffff1673ffffffffffffffffffffffffffffffffffffffff16815260200182815260200192505050602060405180830381600087803b15801561103d57600080fd5b505af1158015611051573d6000803e3d6000fd5b505050506040513d602081101561106757600080fd5b8101908080519060200190929190505050151561108357600080fd5b8173ffffffffffffffffffffffffffffffffffffffff167f56505e8dae8df7b5257854d26e1b8c7547818dce829179e3fc05f656e4769fe6826040518082815260200191505060405180910390a25050806001019050610f03565b50505050505050505050565b6000809054906101000a900473ffffffffffffffffffffffffffffffffffffffff1681565b600281565b60006001028414151515611190576040517f08c379a00000000000000000000000000000000000000000000000000000000081526004018080602001828103825260158152602001807f4944206d757374206e6f7420626520656d70747921000000000000000000000081525060200191505060405180910390fd5b60008351111515611209576040517f08c379a000000000000000000000000000000000000000000000000000000000815260040180806020018281038252601a8152602001807f50726f66696c65206d757374206e6f7420626520656d7074792100000000000081525060200191505060405180910390fd5b600082111515611281576040517f08c379a000000000000000000000000000000000000000000000000000000000815260040180806020018281038252601d8152602001807f56616c7565206d7573742062652067726561746572207468616e20302100000081525060200191505060405180910390fd5b4281101515156112dc576040517f08c379a00000000000000000000000000000000000000000000000000000000081526004018080602001828103825260238152602001806118ea6023913960400191505060405180910390fd5b6000809054906101000a900473ffffffffffffffffffffffffffffffffffffffff1673ffffffffffffffffffffffffffffffffffffffff166323b872dd3330856040518463ffffffff167c0100000000000000000000000000000000000000000000000000000000028152600401808473ffffffffffffffffffffffffffffffffffffffff1673ffffffffffffffffffffffffffffffffffffffff1681526020018373ffffffffffffffffffffffffffffffffffffffff1673ffffffffffffffffffffffffffffffffffffffff1681526020018281526020019350505050602060405180830381600087803b1580156113d457600080fd5b505af11580156113e8573d6000803e3d6000fd5b505050506040513d60208110156113fe57600080fd5b81019080805190602001909291905050501515611483576040517f08c379a00000000000000000000000000000000000000000000000000000000081526004018080602001828103825260178152602001807f496e73756666696369656e7420616c6c6f77616e63652100000000000000000081525060200191505060405180910390fd5b60008061148f836116c0565b80925081935050506000600360008461ffff1661ffff16815260200190815260200160002060008360ff1660ff1681526020019081526020016000209050600081600001600089815260200190815260200160002090506000600102816000015414156115225787816000018190555086816001019080519060200190611517929190611844565b508481600201819055505b61153986826003015461167d90919063ffffffff16565b81600301819055506002548160030154101515156115bf576040517f08c379a000000000000000000000000000000000000000000000000000000000815260040180806020018281038252601e8152602001807f537562736372697074696f6e2076616c756520697320746f6f206c6f7721000081525060200191505060405180910390fd5b6115d686836001015461167d90919063ffffffff16565b8260010181905550873373ffffffffffffffffffffffffffffffffffffffff167f31e5b8ad0e4090204680d9ed974a900609bc55426e2fb8b1811ff9435ade723b8888604051808381526020018281526020019250505060405180910390a35050505050505050565b60008061164b426116c0565b915091509091565b6000808211151561166357600080fd5b6000828481151561167057fe5b0490508091505092915050565b600080828401905083811015151561169457600080fd5b8091505092915050565b60008282111515156116af57600080fd5b600082840390508091505092915050565b60008073__DateTime______________________________6392d66313846040518263ffffffff167c01000000000000000000000000000000000000000000000000000000000281526004018082815260200191505060206040518083038186803b15801561172e57600080fd5b505af4158015611742573d6000803e3d6000fd5b505050506040513d602081101561175857600080fd5b8101908080519060200190929190505050915073__DateTime______________________________63a324ad24846040518263ffffffff167c01000000000000000000000000000000000000000000000000000000000281526004018082815260200191505060206040518083038186803b1580156117d657600080fd5b505af41580156117ea573d6000803e3d6000fd5b505050506040513d602081101561180057600080fd5b81019080805190602001909291905050509050915091565b608060405190810160405280600080191681526020016060815260200160008152602001600081525090565b828054600181600116156101000203166002900490600052602060002090601f016020900481019282601f1061188557805160ff19168380011785556118b3565b828001600101855582156118b3579182015b828111156118b2578251825591602001919060010190611897565b5b5090506118c091906118c4565b5090565b6118e691905b808211156118e25760008160009055506001016118ca565b5090565b9056fe5374617274696e672074696d65206d75737420626520696e2074686520667574757265a165627a7a723058201c5e6da82a86ea476eb40635af45801aee3a23cd1d6581f436bf91ed507336f700294d696e696d616c20737562736372697074696f6e2076616c7565206d7573742062652067726561746572207468616e203021",
  "compiler": {
    "name": "solc",
    "version": "0.5.3+commit.10d17f24.Emscripten.clang"
  },
  "schemaVersion": "3.0.2",
  "updatedAt": "2019-03-19T00:19:49.018Z",
  "devdoc": {
    "methods": {
      "constructor": {
        "details": "Constructor that initializes the Subscription Manager.",
        "params": {
          "minimalMonthlySubscription_": "uint256 The minimal monthly subscription allocation.",
          "orbs_": "IERC20 The address of the OrbsToken contract.",
          "validators_": "The address of the OrbsValidators contract."
        }
      },
      "distributeFees()": {
        "details": "Distributes monthly fees to federation members."
      },
      "distributeFees(uint16,uint8)": {
        "details": "Distributes monthly fees to federation members."
      },
      "getSubscriptionData(bytes32)": {
        "details": "Returns the current month's subscription data.",
        "params": {
          "_id": "bytes32 The ID of the subscription."
        }
      },
      "getSubscriptionDataByTime(bytes32,uint16,uint8)": {
        "details": "Returns the monthly subscription status.",
        "params": {
          "_id": "bytes32 The ID of the subscription.",
          "_month": "uint8 The month of the subscription.",
          "_year": "uint16 The year of the subscription."
        }
      },
      "subscribeForCurrentMonth(bytes32,string,uint256)": {
        "details": "Receives subscription payment for the current month. This method needs to be called after the caller approves the smart contract to transfer _value ORBS tokens on its behalf.",
        "params": {
          "_id": "bytes32 The ID of the subscription.",
          "_profile": "string The name of the subscription profile. This parameter is ignored for subsequent subscriptions.",
          "_value": "uint256 The amount of tokens to fund the subscription."
        }
      },
      "subscribeForNextMonth(bytes32,string,uint256)": {
        "details": "Receives subscription payment for the next month. This method needs to be called after the caller approves the smart contract to transfer _value ORBS tokens on its behalf.",
        "params": {
          "_id": "bytes32 The ID of the subscription.",
          "_profile": "string The name of the subscription profile. This parameter is ignored for subsequent subscriptions.",
          "_value": "uint256 The amount of tokens to fund the subscription."
        }
      }
    },
    "title": "Orbs billing and subscription smart contract."
  },
  "userdoc": {
    "methods": {}
  }
}