{
  "contractName": "OrbsVoting",
  "abi": [
    {
      "constant": true,
      "inputs": [],
      "name": "maxVoteOutCount",
      "outputs": [
        {
          "name": "",
          "type": "uint256"
        }
      ],
      "payable": false,
      "stateMutability": "view",
      "type": "function"
    },
    {
      "constant": true,
      "inputs": [],
      "name": "VERSION",
      "outputs": [
        {
          "name": "",
          "type": "uint256"
        }
      ],
      "payable": false,
      "stateMutability": "view",
      "type": "function"
    },
    {
      "inputs": [
        {
          "name": "maxVoteOutCount_",
          "type": "uint256"
        }
      ],
      "payable": false,
      "stateMutability": "nonpayable",
      "type": "constructor"
    },
    {
      "anonymous": false,
      "inputs": [
        {
          "indexed": true,
          "name": "voter",
          "type": "address"
        },
        {
          "indexed": false,
          "name": "validators",
          "type": "address[]"
        },
        {
          "indexed": false,
          "name": "voteCounter",
          "type": "uint256"
        }
      ],
      "name": "VoteOut",
      "type": "event"
    },
    {
      "anonymous": false,
      "inputs": [
        {
          "indexed": true,
          "name": "delegator",
          "type": "address"
        },
        {
          "indexed": true,
          "name": "to",
          "type": "address"
        },
        {
          "indexed": false,
          "name": "delegationCounter",
          "type": "uint256"
        }
      ],
      "name": "Delegate",
      "type": "event"
    },
    {
      "constant": false,
      "inputs": [
        {
          "name": "validators",
          "type": "address[]"
        }
      ],
      "name": "voteOut",
      "outputs": [],
      "payable": false,
      "stateMutability": "nonpayable",
      "type": "function"
    },
    {
      "constant": false,
      "inputs": [
        {
          "name": "to",
          "type": "address"
        }
      ],
      "name": "delegate",
      "outputs": [],
      "payable": false,
      "stateMutability": "nonpayable",
      "type": "function"
    },
    {
      "constant": true,
      "inputs": [
        {
          "name": "guardian",
          "type": "address"
        }
      ],
      "name": "getCurrentVoteBytes20",
      "outputs": [
        {
          "name": "validatorsBytes20",
          "type": "bytes20[]"
        },
        {
          "name": "blockNumber",
          "type": "uint256"
        }
      ],
      "payable": false,
      "stateMutability": "view",
      "type": "function"
    },
    {
      "constant": true,
      "inputs": [
        {
          "name": "delegator",
          "type": "address"
        }
      ],
      "name": "getCurrentDelegation",
      "outputs": [
        {
          "name": "",
          "type": "address"
        }
      ],
      "payable": false,
      "stateMutability": "view",
      "type": "function"
    },
    {
      "constant": true,
      "inputs": [
        {
          "name": "guardian",
          "type": "address"
        }
      ],
      "name": "getCurrentVote",
      "outputs": [
        {
          "name": "validators",
          "type": "address[]"
        },
        {
          "name": "blockNumber",
          "type": "uint256"
        }
      ],
      "payable": false,
      "stateMutability": "view",
      "type": "function"
    }
  ],
  "bytecode": "0x608060405234801561001057600080fd5b50604051602080610bbd833981018060405281019080805190602001909291905050506000808190555060006001819055508060028190555050610b64806100596000396000f300608060405260043610610083576000357c0100000000000000000000000000000000000000000000000000000000900463ffffffff16806345ba5b8a146100885780635c19a95c1461010b578063a8b52c251461014e578063dc896657146101ed578063e5d0161814610218578063f8222020146102b7578063ffa1ad74146102f2575b600080fd5b34801561009457600080fd5b506100c9600480360381019080803573ffffffffffffffffffffffffffffffffffffffff16906020019092919050505061031d565b604051808273ffffffffffffffffffffffffffffffffffffffff1673ffffffffffffffffffffffffffffffffffffffff16815260200191505060405180910390f35b34801561011757600080fd5b5061014c600480360381019080803573ffffffffffffffffffffffffffffffffffffffff169060200190929190505050610386565b005b34801561015a57600080fd5b5061018f600480360381019080803573ffffffffffffffffffffffffffffffffffffffff1690602001909291905050506105bc565b6040518080602001838152602001828103825284818151815260200191508051906020019060200280838360005b838110156101d85780820151818401526020810190506101bd565b50505050905001935050505060405180910390f35b3480156101f957600080fd5b5061020261069a565b6040518082815260200191505060405180910390f35b34801561022457600080fd5b50610259600480360381019080803573ffffffffffffffffffffffffffffffffffffffff1690602001909291905050506106a0565b6040518080602001838152602001828103825284818151815260200191508051906020019060200280838360005b838110156102a2578082015181840152602081019050610287565b50505050905001935050505060405180910390f35b3480156102c357600080fd5b506102f0600480360381019080803590602001908201803590602001919091929391929390505050610775565b005b3480156102fe57600080fd5b50610307610a66565b6040518082815260200191505060405180910390f35b6000600460008373ffffffffffffffffffffffffffffffffffffffff1673ffffffffffffffffffffffffffffffffffffffff16815260200190815260200160002060009054906101000a900473ffffffffffffffffffffffffffffffffffffffff169050919050565b600073ffffffffffffffffffffffffffffffffffffffff168173ffffffffffffffffffffffffffffffffffffffff161415151561042b576040517f08c379a00000000000000000000000000000000000000000000000000000000081526004018080602001828103825260168152602001807f6d7573742064656c656761746520746f206e6f6e20300000000000000000000081525060200191505060405180910390fd5b60016000815480929190600101919050555080600460003373ffffffffffffffffffffffffffffffffffffffff1673ffffffffffffffffffffffffffffffffffffffff16815260200190815260200160002060006101000a81548173ffffffffffffffffffffffffffffffffffffffff021916908373ffffffffffffffffffffffffffffffffffffffff1602179055508073ffffffffffffffffffffffffffffffffffffffff163373ffffffffffffffffffffffffffffffffffffffff16141561055257600460003373ffffffffffffffffffffffffffffffffffffffff1673ffffffffffffffffffffffffffffffffffffffff16815260200190815260200160002060006101000a81549073ffffffffffffffffffffffffffffffffffffffff02191690555b8073ffffffffffffffffffffffffffffffffffffffff163373ffffffffffffffffffffffffffffffffffffffff167f510b11bb3f3c799b11307c01ab7db0d335683ef5b2da98f7697de744f465eacc6001546040518082815260200191505060405180910390a350565b6060600080600360008573ffffffffffffffffffffffffffffffffffffffff1673ffffffffffffffffffffffffffffffffffffffff1681526020019081526020016000209050806000015491508060010180548060200260200160405190810160405280929190818152602001828054801561068d57602002820191906000526020600020905b8160009054906101000a900473ffffffffffffffffffffffffffffffffffffffff1673ffffffffffffffffffffffffffffffffffffffff1681526020019060010190808311610643575b5050505050925050915091565b60025481565b6060600060606000806106b2866105bc565b809550819450505082519150816040519080825280602002602001820160405280156106ed5781602001602082028038833980820191505090505b509450600090505b8181101561076d57828181518110151561070b57fe5b906020019060200201516c0100000000000000000000000002858281518110151561073257fe5b906020019060200201906bffffffffffffffffffffffff191690816bffffffffffffffffffffffff19168152505080806001019150506106f5565b505050915091565b600080838390509150600254821115151561081e576040517f08c379a000000000000000000000000000000000000000000000000000000000815260040180806020018281038252602a8152602001807f56616c696461746f7273206c697374206973206f7665722074686520616c6c6f81526020017f776564206c656e6774680000000000000000000000000000000000000000000081525060400191505060405180910390fd5b600090505b8181101561092d57600073ffffffffffffffffffffffffffffffffffffffff16848483818110151561085157fe5b9050602002013573ffffffffffffffffffffffffffffffffffffffff1673ffffffffffffffffffffffffffffffffffffffff1614151515610920576040517f08c379a00000000000000000000000000000000000000000000000000000000081526004018080602001828103825260258152602001807f416c6c2076616c696461746f7220616464726573736573206d7573742062652081526020017f6e6f6e203000000000000000000000000000000000000000000000000000000081525060400191505060405180910390fd5b8080600101915050610823565b60008081548092919060010191905055506040805190810160405280438152602001858580806020026020016040519081016040528093929190818152602001838360200280828437820191505050505050815250600360003373ffffffffffffffffffffffffffffffffffffffff1673ffffffffffffffffffffffffffffffffffffffff1681526020019081526020016000206000820151816000015560208201518160010190805190602001906109e7929190610a6b565b509050503373ffffffffffffffffffffffffffffffffffffffff167f94a3724087eae106b6eeb3198e1c6a4c9a6ece40950796a3d1350e110aad4b21858560005460405180806020018381526020018281038252858582818152602001925060200280828437820191505094505050505060405180910390a250505050565b600181565b828054828255906000526020600020908101928215610ae4579160200282015b82811115610ae35782518260006101000a81548173ffffffffffffffffffffffffffffffffffffffff021916908373ffffffffffffffffffffffffffffffffffffffff16021790555091602001919060010190610a8b565b5b509050610af19190610af5565b5090565b610b3591905b80821115610b3157600081816101000a81549073ffffffffffffffffffffffffffffffffffffffff021916905550600101610afb565b5090565b905600a165627a7a723058201c5e52074b6358ad81a6b65472244c1fc6bf2293d1a49291314a1e0ea81f7b9e0029",
  "compiler": {
    "name": "solc",
    "version": "0.4.25+commit.59dbf8f1.Emscripten.clang"
  },
  "schemaVersion": "3.0.2",
  "updatedAt": "2019-03-23T13:59:46.790Z",
  "devdoc": {
    "methods": {
      "delegate(address)": {
        "details": "Delegation method to select who you would like to delegate your stake to.",
        "params": {
          "to": "address the address, you want to delegate your stake to. If you want to cancel a delegation - delegate to yourself to yourself."
        }
      },
      "getCurrentDelegation(address)": {
        "details": "returns the address to which the delegator has delegated the stake",
        "params": {
          "delegator": "address the address of the delegator"
        }
      },
      "getCurrentVote(address)": {
        "details": "returns vote pair - validators list and the block number the vote was set.",
        "params": {
          "guardian": "address the address of the guardian"
        }
      },
      "getCurrentVoteBytes20(address)": {
        "details": "returns vote pair - validators list and the block number the vote was set.      like getCurrentVote but returns byte20 which is more compatible in some cases."
      },
      "voteOut(address[])": {
        "details": "Voting method to select which validators you want to vote out in this election period.",
        "params": {
          "validators": "address[] an array of validators addresses you want to vote out. In case you want to vote, but not vote out anyone, send an empty array."
        }
      }
    }
  },
  "userdoc": {
    "methods": {}
  }
}