{
  "contractName": "OrbsValidators",
  "abi": [
    {
      "constant": true,
      "inputs": [],
      "name": "MAX_VALIDATOR_LIMIT",
      "outputs": [
        {
          "name": "",
          "type": "uint256"
        }
      ],
      "payable": false,
      "stateMutability": "view",
      "type": "function",
      "signature": "0x111c7c75"
    },
    {
      "constant": true,
      "inputs": [],
      "name": "validatorLimit",
      "outputs": [
        {
          "name": "",
          "type": "uint256"
        }
      ],
      "payable": false,
      "stateMutability": "view",
      "type": "function",
      "signature": "0x57525cbc"
    },
    {
      "constant": true,
      "inputs": [
        {
          "name": "",
          "type": "uint256"
        }
      ],
      "name": "approvedValidators",
      "outputs": [
        {
          "name": "",
          "type": "address"
        }
      ],
      "payable": false,
      "stateMutability": "view",
      "type": "function",
      "signature": "0x62f25ab3"
    },
    {
      "constant": false,
      "inputs": [],
      "name": "renounceOwnership",
      "outputs": [],
      "payable": false,
      "stateMutability": "nonpayable",
      "type": "function",
      "signature": "0x715018a6"
    },
    {
      "constant": true,
      "inputs": [],
      "name": "registry",
      "outputs": [
        {
          "name": "",
          "type": "address"
        }
      ],
      "payable": false,
      "stateMutability": "view",
      "type": "function",
      "signature": "0x7b103999"
    },
    {
      "constant": true,
      "inputs": [],
      "name": "owner",
      "outputs": [
        {
          "name": "",
          "type": "address"
        }
      ],
      "payable": false,
      "stateMutability": "view",
      "type": "function",
      "signature": "0x8da5cb5b"
    },
    {
      "constant": true,
      "inputs": [],
      "name": "isOwner",
      "outputs": [
        {
          "name": "",
          "type": "bool"
        }
      ],
      "payable": false,
      "stateMutability": "view",
      "type": "function",
      "signature": "0x8f32d59b"
    },
    {
      "constant": false,
      "inputs": [
        {
          "name": "newOwner",
          "type": "address"
        }
      ],
      "name": "transferOwnership",
      "outputs": [],
      "payable": false,
      "stateMutability": "nonpayable",
      "type": "function",
      "signature": "0xf2fde38b"
    },
    {
      "constant": true,
      "inputs": [],
      "name": "VERSION",
      "outputs": [
        {
          "name": "",
          "type": "uint256"
        }
      ],
      "payable": false,
      "stateMutability": "view",
      "type": "function",
      "signature": "0xffa1ad74"
    },
    {
      "inputs": [
        {
          "name": "registry_",
          "type": "address"
        },
        {
          "name": "validatorLimit_",
          "type": "uint256"
        }
      ],
      "payable": false,
      "stateMutability": "nonpayable",
      "type": "constructor",
      "signature": "constructor"
    },
    {
      "anonymous": false,
      "inputs": [
        {
          "indexed": true,
          "name": "validator",
          "type": "address"
        }
      ],
      "name": "ValidatorAdded",
      "type": "event",
      "signature": "0xe366c1c0452ed8eec96861e9e54141ebff23c9ec89fe27b996b45f5ec3884987"
    },
    {
      "anonymous": false,
      "inputs": [
        {
          "indexed": true,
          "name": "validator",
          "type": "address"
        }
      ],
      "name": "ValidatorRemoved",
      "type": "event",
      "signature": "0xe1434e25d6611e0db941968fdc97811c982ac1602e951637d206f5fdda9dd8f1"
    },
    {
      "anonymous": false,
      "inputs": [
        {
          "indexed": true,
          "name": "previousOwner",
          "type": "address"
        },
        {
          "indexed": true,
          "name": "newOwner",
          "type": "address"
        }
      ],
      "name": "OwnershipTransferred",
      "type": "event",
      "signature": "0x8be0079c531659141344cd1fd0a4f28419497f9722a3daafe3b4186f6b6457e0"
    },
    {
      "constant": false,
      "inputs": [
        {
          "name": "validator",
          "type": "address"
        }
      ],
      "name": "addValidator",
      "outputs": [],
      "payable": false,
      "stateMutability": "nonpayable",
      "type": "function",
      "signature": "0x4d238c8e"
    },
    {
      "constant": false,
      "inputs": [
        {
          "name": "validator",
          "type": "address"
        }
      ],
      "name": "remove",
      "outputs": [],
      "payable": false,
      "stateMutability": "nonpayable",
      "type": "function",
      "signature": "0x29092d0e"
    },
    {
      "constant": true,
      "inputs": [
        {
          "name": "validator",
          "type": "address"
        }
      ],
      "name": "isValidator",
      "outputs": [
        {
          "name": "",
          "type": "bool"
        }
      ],
      "payable": false,
      "stateMutability": "view",
      "type": "function",
      "signature": "0xfacd743b"
    },
    {
      "constant": true,
      "inputs": [],
      "name": "getValidators",
      "outputs": [
        {
          "name": "",
          "type": "bytes20[]"
        }
      ],
      "payable": false,
      "stateMutability": "view",
      "type": "function",
      "signature": "0xb7ab4db5"
    },
    {
      "constant": true,
      "inputs": [
        {
          "name": "validator",
          "type": "address"
        }
      ],
      "name": "getApprovalBockHeight",
      "outputs": [
        {
          "name": "",
          "type": "uint256"
        }
      ],
      "payable": false,
      "stateMutability": "view",
      "type": "function",
      "signature": "0x98db6210"
    },
    {
      "constant": true,
      "inputs": [],
      "name": "getNetworkTopology",
      "outputs": [
        {
          "name": "nodeAddresses",
          "type": "address[]"
        },
        {
          "name": "ipAddresses",
          "type": "bytes4[]"
        }
      ],
      "payable": false,
      "stateMutability": "view",
      "type": "function",
      "signature": "0x20429673"
    }
  ],
  "bytecode": "0x608060405234801561001057600080fd5b50604051604080611ae28339810180604052604081101561003057600080fd5b810190808051906020019092919080519060200190929190505050336000806101000a81548173ffffffffffffffffffffffffffffffffffffffff021916908373ffffffffffffffffffffffffffffffffffffffff1602179055506000809054906101000a900473ffffffffffffffffffffffffffffffffffffffff1673ffffffffffffffffffffffffffffffffffffffff16600073ffffffffffffffffffffffffffffffffffffffff167f8be0079c531659141344cd1fd0a4f28419497f9722a3daafe3b4186f6b6457e060405160405180910390a3600073ffffffffffffffffffffffffffffffffffffffff168273ffffffffffffffffffffffffffffffffffffffff16141515156101ac576040517f08c379a000000000000000000000000000000000000000000000000000000000815260040180806020018281038252601b8152602001807f526567697374727920636f6e747261637420616464726573732030000000000081525060200191505060405180910390fd5b600081111515610224576040517f08c379a00000000000000000000000000000000000000000000000000000000081526004018080602001828103825260168152602001807f4c696d6974206d75737420626520706f7369746976650000000000000000000081525060200191505060405180910390fd5b6064811115151561029d576040517f08c379a00000000000000000000000000000000000000000000000000000000081526004018080602001828103825260118152602001807f4c696d697420697320746f6f206869676800000000000000000000000000000081525060200191505060405180910390fd5b8060018190555081600260006101000a81548173ffffffffffffffffffffffffffffffffffffffff021916908373ffffffffffffffffffffffffffffffffffffffff16021790555050506117ec806102f66000396000f3fe608060405234801561001057600080fd5b5060043610610112576000357c0100000000000000000000000000000000000000000000000000000000900480637b103999116100b4578063b7ab4db511610083578063b7ab4db514610408578063f2fde38b14610467578063facd743b146104ab578063ffa1ad741461050757610112565b80637b103999146102fa5780638da5cb5b146103445780638f32d59b1461038e57806398db6210146103b057610112565b80634d238c8e116100f05780634d238c8e1461022057806357525cbc1461026457806362f25ab314610282578063715018a6146102f057610112565b8063111c7c7514610117578063204296731461013557806329092d0e146101dc575b600080fd5b61011f610525565b6040518082815260200191505060405180910390f35b61013d61052a565b604051808060200180602001838103835285818151815260200191508051906020019060200280838360005b83811015610184578082015181840152602081019050610169565b50505050905001838103825284818151815260200191508051906020019060200280838360005b838110156101c65780820151818401526020810190506101ab565b5050505090500194505050505060405180910390f35b61021e600480360360208110156101f257600080fd5b81019080803573ffffffffffffffffffffffffffffffffffffffff1690602001909291905050506108a7565b005b6102626004803603602081101561023657600080fd5b81019080803573ffffffffffffffffffffffffffffffffffffffff169060200190929190505050610b2f565b005b61026c610dce565b6040518082815260200191505060405180910390f35b6102ae6004803603602081101561029857600080fd5b8101908080359060200190929190505050610dd4565b604051808273ffffffffffffffffffffffffffffffffffffffff1673ffffffffffffffffffffffffffffffffffffffff16815260200191505060405180910390f35b6102f8610e12565b005b610302610ee4565b604051808273ffffffffffffffffffffffffffffffffffffffff1673ffffffffffffffffffffffffffffffffffffffff16815260200191505060405180910390f35b61034c610f0a565b604051808273ffffffffffffffffffffffffffffffffffffffff1673ffffffffffffffffffffffffffffffffffffffff16815260200191505060405180910390f35b610396610f33565b604051808215151515815260200191505060405180910390f35b6103f2600480360360208110156103c657600080fd5b81019080803573ffffffffffffffffffffffffffffffffffffffff169060200190929190505050610f8a565b6040518082815260200191505060405180910390f35b610410610fd3565b6040518080602001828103825283818151815260200191508051906020019060200280838360005b83811015610453578082015181840152602081019050610438565b505050509050019250505060405180910390f35b6104a96004803603602081101561047d57600080fd5b81019080803573ffffffffffffffffffffffffffffffffffffffff16906020019092919050505061120c565b005b6104ed600480360360208110156104c157600080fd5b81019080803573ffffffffffffffffffffffffffffffffffffffff16906020019092919050505061122b565b604051808215151515815260200191505060405180910390f35b61050f61133b565b6040518082815260200191505060405180910390f35b606481565b6060806060610537610fd3565b90506000815190508060405190808252806020026020018201604052801561056e5781602001602082028038833980820191505090505b509350806040519080825280602002602001820160405280156105a05781602001602082028038833980820191505090505b50925060008090505b818110156108a05760606000600260009054906101000a900473ffffffffffffffffffffffffffffffffffffffff1673ffffffffffffffffffffffffffffffffffffffff16632536f8b5868581518110151561060157fe5b906020019060200201516c0100000000000000000000000090046040518263ffffffff167c0100000000000000000000000000000000000000000000000000000000028152600401808273ffffffffffffffffffffffffffffffffffffffff1673ffffffffffffffffffffffffffffffffffffffff16815260200191505060006040518083038186803b15801561069757600080fd5b505afa1580156106ab573d6000803e3d6000fd5b505050506040513d6000823e3d601f19601f8201168201806040525060808110156106d557600080fd5b8101908080516401000000008111156106ed57600080fd5b8281019050602081018481111561070357600080fd5b815185600182028301116401000000008211171561072057600080fd5b5050929190602001805164010000000081111561073c57600080fd5b8281019050602081018481111561075257600080fd5b815185600182028301116401000000008211171561076f57600080fd5b5050929190602001805164010000000081111561078b57600080fd5b828101905060208101848111156107a157600080fd5b81518560018202830111640100000000821117156107be57600080fd5b50509291906020018051906020019092919050505090919250905080925081935050508087848151811015156107f057fe5b9060200190602002019073ffffffffffffffffffffffffffffffffffffffff16908173ffffffffffffffffffffffffffffffffffffffff168152505061083582611340565b868481518110151561084357fe5b906020019060200201907bffffffffffffffffffffffffffffffffffffffffffffffffffffffff191690817bffffffffffffffffffffffffffffffffffffffffffffffffffffffff191681525050505080806001019150506105a9565b5050509091565b6108af610f33565b15156108ba57600080fd5b6000600380549050905060008090505b81811015610abd578273ffffffffffffffffffffffffffffffffffffffff166003828154811015156108f857fe5b9060005260206000200160009054906101000a900473ffffffffffffffffffffffffffffffffffffffff1673ffffffffffffffffffffffffffffffffffffffff161415610ab25760036001830381548110151561095157fe5b9060005260206000200160009054906101000a900473ffffffffffffffffffffffffffffffffffffffff1660038281548110151561098b57fe5b9060005260206000200160006101000a81548173ffffffffffffffffffffffffffffffffffffffff021916908373ffffffffffffffffffffffffffffffffffffffff1602179055506003818154811015156109e257fe5b9060005260206000200160006101000a81549073ffffffffffffffffffffffffffffffffffffffff02191690556003805480919060019003610a24919061174b565b50600460008473ffffffffffffffffffffffffffffffffffffffff1673ffffffffffffffffffffffffffffffffffffffff168152602001908152602001600020600090558273ffffffffffffffffffffffffffffffffffffffff167fe1434e25d6611e0db941968fdc97811c982ac1602e951637d206f5fdda9dd8f160405160405180910390a25050610b2c565b8060010190506108ca565b506040517f08c379a00000000000000000000000000000000000000000000000000000000081526004018080602001828103825260198152602001807f556e6b6e6f776e2056616c696461746f7220416464726573730000000000000081525060200191505060405180910390fd5b50565b610b37610f33565b1515610b4257600080fd5b600073ffffffffffffffffffffffffffffffffffffffff168173ffffffffffffffffffffffffffffffffffffffff1614151515610be7576040517f08c379a00000000000000000000000000000000000000000000000000000000081526004018080602001828103825260168152602001807f41646472657373206d757374206e6f742062652030210000000000000000000081525060200191505060405180910390fd5b600180540360038054905011158015610c095750600160640360038054905011155b1515610c7d576040517f08c379a00000000000000000000000000000000000000000000000000000000081526004018080602001828103825260178152602001807f43616e277420616464206d6f7265206d656d626572732100000000000000000081525060200191505060405180910390fd5b610c8681611435565b151515610cde576040517f08c379a000000000000000000000000000000000000000000000000000000000815260040180806020018281038252602481526020018061179d6024913960400191505060405180910390fd5b60038190806001815401808255809150509060018203906000526020600020016000909192909190916101000a81548173ffffffffffffffffffffffffffffffffffffffff021916908373ffffffffffffffffffffffffffffffffffffffff1602179055505043600460008373ffffffffffffffffffffffffffffffffffffffff1673ffffffffffffffffffffffffffffffffffffffff168152602001908152602001600020819055508073ffffffffffffffffffffffffffffffffffffffff167fe366c1c0452ed8eec96861e9e54141ebff23c9ec89fe27b996b45f5ec388498760405160405180910390a250565b60015481565b600381815481101515610de357fe5b906000526020600020016000915054906101000a900473ffffffffffffffffffffffffffffffffffffffff1681565b610e1a610f33565b1515610e2557600080fd5b600073ffffffffffffffffffffffffffffffffffffffff166000809054906101000a900473ffffffffffffffffffffffffffffffffffffffff1673ffffffffffffffffffffffffffffffffffffffff167f8be0079c531659141344cd1fd0a4f28419497f9722a3daafe3b4186f6b6457e060405160405180910390a360008060006101000a81548173ffffffffffffffffffffffffffffffffffffffff021916908373ffffffffffffffffffffffffffffffffffffffff160217905550565b600260009054906101000a900473ffffffffffffffffffffffffffffffffffffffff1681565b60008060009054906101000a900473ffffffffffffffffffffffffffffffffffffffff16905090565b60008060009054906101000a900473ffffffffffffffffffffffffffffffffffffffff1673ffffffffffffffffffffffffffffffffffffffff163373ffffffffffffffffffffffffffffffffffffffff1614905090565b6000600460008373ffffffffffffffffffffffffffffffffffffffff1673ffffffffffffffffffffffffffffffffffffffff168152602001908152602001600020549050919050565b60606000610fdf6114df565b90506060816040519080825280602002602001820160405280156110125781602001602082028038833980820191505090505b50905060008090506000600380549050905060008090505b8181101561120157600260009054906101000a900473ffffffffffffffffffffffffffffffffffffffff1673ffffffffffffffffffffffffffffffffffffffff1663facd743b60038381548110151561107f57fe5b9060005260206000200160009054906101000a900473ffffffffffffffffffffffffffffffffffffffff166040518263ffffffff167c0100000000000000000000000000000000000000000000000000000000028152600401808273ffffffffffffffffffffffffffffffffffffffff1673ffffffffffffffffffffffffffffffffffffffff16815260200191505060206040518083038186803b15801561112657600080fd5b505afa15801561113a573d6000803e3d6000fd5b505050506040513d602081101561115057600080fd5b8101908080519060200190929190505050156111f45760038181548110151561117557fe5b9060005260206000200160009054906101000a900473ffffffffffffffffffffffffffffffffffffffff166c010000000000000000000000000284848151811015156111bd57fe5b906020019060200201906bffffffffffffffffffffffff191690816bffffffffffffffffffffffff19168152505082806001019350505b808060010191505061102a565b508294505050505090565b611214610f33565b151561121f57600080fd5b61122881611651565b50565b600061123682611435565b80156113345750600260009054906101000a900473ffffffffffffffffffffffffffffffffffffffff1673ffffffffffffffffffffffffffffffffffffffff1663facd743b836040518263ffffffff167c0100000000000000000000000000000000000000000000000000000000028152600401808273ffffffffffffffffffffffffffffffffffffffff1673ffffffffffffffffffffffffffffffffffffffff16815260200191505060206040518083038186803b1580156112f857600080fd5b505afa15801561130c573d6000803e3d6000fd5b505050506040513d602081101561132257600080fd5b81019080805190602001909291905050505b9050919050565b600181565b60008060006004845110611355576004611358565b83515b905060008090505b8181101561142a576000858281518110151561137857fe5b9060200101517f010000000000000000000000000000000000000000000000000000000000000090047f0100000000000000000000000000000000000000000000000000000000000000027effffffffffffffffffffffffffffffffffffffffffffffffffffffffffffff1916905081600802817bffffffffffffffffffffffffffffffffffffffffffffffffffffffff1916908060020a820491505090508084179350508080600101915050611360565b508192505050919050565b600080600380549050905060008090505b818110156114d3578373ffffffffffffffffffffffffffffffffffffffff1660038281548110151561147457fe5b9060005260206000200160009054906101000a900473ffffffffffffffffffffffffffffffffffffffff1673ffffffffffffffffffffffffffffffffffffffff1614156114c6576001925050506114da565b8080600101915050611446565b5060009150505b919050565b600080600090506000600380549050905060008090505b8181101561164857600260009054906101000a900473ffffffffffffffffffffffffffffffffffffffff1673ffffffffffffffffffffffffffffffffffffffff1663facd743b60038381548110151561154b57fe5b9060005260206000200160009054906101000a900473ffffffffffffffffffffffffffffffffffffffff166040518263ffffffff167c0100000000000000000000000000000000000000000000000000000000028152600401808273ffffffffffffffffffffffffffffffffffffffff1673ffffffffffffffffffffffffffffffffffffffff16815260200191505060206040518083038186803b1580156115f257600080fd5b505afa158015611606573d6000803e3d6000fd5b505050506040513d602081101561161c57600080fd5b81019080805190602001909291905050501561163b5782806001019350505b80806001019150506114f6565b50819250505090565b600073ffffffffffffffffffffffffffffffffffffffff168173ffffffffffffffffffffffffffffffffffffffff161415151561168d57600080fd5b8073ffffffffffffffffffffffffffffffffffffffff166000809054906101000a900473ffffffffffffffffffffffffffffffffffffffff1673ffffffffffffffffffffffffffffffffffffffff167f8be0079c531659141344cd1fd0a4f28419497f9722a3daafe3b4186f6b6457e060405160405180910390a3806000806101000a81548173ffffffffffffffffffffffffffffffffffffffff021916908373ffffffffffffffffffffffffffffffffffffffff16021790555050565b815481835581811115611772578183600052602060002091820191016117719190611777565b5b505050565b61179991905b8082111561179557600081600090555060010161177d565b5090565b9056fe41646472657373206d757374206e6f7420626520616c72656164792061206d656d626572a165627a7a7230582053989ba7da57aa561fd5e1a33840311b77d1e8bd58442528cc144214d52ef3940029",
  "source": "pragma solidity 0.5.3;\n\n\nimport \"openzeppelin-solidity/contracts/ownership/Ownable.sol\";\nimport \"./IOrbsNetworkTopology.sol\";\nimport \"./IOrbsValidators.sol\";\nimport \"./OrbsValidatorsRegistry.sol\";\n\n\ncontract OrbsValidators is Ownable, IOrbsValidators, IOrbsNetworkTopology {\n\n    // The version of the current federation smart contract.\n    uint public constant VERSION = 1;\n\n    // Maximum number of the federation members.\n    uint public constant MAX_VALIDATOR_LIMIT = 100;\n    uint public validatorLimit;\n\n    IOrbsValidatorsRegistry public registry;\n\n    address[] public approvedValidators;\n    mapping(address => uint) approvalBlockHeight;\n\n    constructor(address registry_, uint validatorLimit_) public {\n        require(registry_ != address(0), \"Registry contract address 0\");\n        require(validatorLimit_ > 0, \"Limit must be positive\");\n        require(validatorLimit_ <= MAX_VALIDATOR_LIMIT, \"Limit is too high\");\n\n        validatorLimit = validatorLimit_;\n        registry = IOrbsValidatorsRegistry(registry_);\n    }\n\n    function addValidator(address validator) public onlyOwner {\n        require(validator != address(0), \"Address must not be 0!\");\n        require(\n            approvedValidators.length <= validatorLimit - 1 &&\n            approvedValidators.length <= MAX_VALIDATOR_LIMIT - 1,\n                \"Can't add more members!\"\n        );\n\n        require(!isApproved(validator), \"Address must not be already a member\");\n\n        approvedValidators.push(validator);\n        approvalBlockHeight[validator] = block.number;\n        emit ValidatorAdded(validator);\n    }\n\n    function remove(address validator) public onlyOwner {\n        uint approvedLength = approvedValidators.length;\n        for (uint i = 0; i < approvedLength; ++i) {\n            if (approvedValidators[i] == validator) {\n                approvedValidators[i] = approvedValidators[approvedLength - 1];\n                delete approvedValidators[i];\n                approvedValidators.length--;\n                delete approvalBlockHeight[validator];\n\n                emit ValidatorRemoved(validator);\n                return;\n            }\n        }\n        revert(\"Unknown Validator Address\");\n    }\n\n    function isValidator(address validator) public view returns (bool) {\n        return isApproved(validator) && registry.isValidator(validator);\n    }\n\n    function getValidators() public view returns (bytes20[] memory) {\n        uint activeValidatorCount = countRegisteredValidators();\n        bytes20[] memory validators = new bytes20[](activeValidatorCount);\n\n        uint pushAt = 0;\n        uint approvedLength = approvedValidators.length;\n        for (uint i = 0; i < approvedLength; i++) {\n            if (registry.isValidator(approvedValidators[i])) {\n                validators[pushAt] = bytes20(approvedValidators[i]);\n                pushAt++;\n            }\n        }\n        return validators;\n    }\n\n    function getApprovalBockHeight(address validator)\n        external\n        view\n        returns (uint)\n    {\n        return approvalBlockHeight[validator];\n    }\n\n    function getNetworkTopology()\n        public\n        view\n        returns (address[] memory nodeAddresses, bytes4[] memory ipAddresses)\n    {\n        bytes20[] memory validators = getValidators(); // filter unregistered\n        uint validatorsLength = validators.length;\n        nodeAddresses = new address[](validatorsLength);\n        ipAddresses = new bytes4[](validatorsLength);\n\n        for (uint i = 0; i < validatorsLength; i++) {\n            bytes memory ip;\n            address orbsAddr;\n            (,ip,,orbsAddr) = registry.getValidatorData(address(validators[i]));\n            nodeAddresses[i] = orbsAddr;\n            ipAddresses[i] = ipAddress(ip);\n        }\n    }\n\n    function isApproved(address m) internal view returns (bool) {\n        uint approvedLength = approvedValidators.length;\n        for (uint i = 0; i < approvedLength; i++) {\n            if (approvedValidators[i] == m) {\n                return true;\n            }\n        }\n        return false;\n    }\n\n    function countRegisteredValidators() internal view returns (uint) {\n        uint registeredCount = 0;\n        uint approvedLength = approvedValidators.length;\n        for (uint i = 0; i < approvedLength; i++) {\n            if (registry.isValidator(approvedValidators[i])) {\n                registeredCount++;\n            }\n        }\n        return registeredCount;\n    }\n\n    function ipAddress(bytes memory inBytes)\n        internal\n        pure\n        returns (bytes4)\n    {\n        bytes4 result;\n        uint256 bytesAvailable = inBytes.length < 4 ? inBytes.length : 4;\n        for (uint256 i = 0; i < bytesAvailable; i++) {\n            bytes4 shifter = inBytes[i];\n            shifter = shifter >> 8 * i;\n            result = result | shifter;\n        }\n        return result;\n    }\n}",
  "sourcePath": "/Users/ron/work/src/github.com/orbs-network/orbs-ethereum-contracts/voting/ethereum/contracts/OrbsValidators.sol",
  "compiler": {
    "name": "solc",
    "version": "0.5.3+commit.10d17f24.Emscripten.clang"
  },
  "schemaVersion": "3.0.2",
  "updatedAt": "2019-03-14T18:30:30.988Z",
  "devdoc": {
    "methods": {
      "isOwner()": {
        "return": "true if `msg.sender` is the owner of the contract."
      },
      "owner()": {
        "return": "the address of the owner."
      },
      "renounceOwnership()": {
        "details": "Allows the current owner to relinquish control of the contract."
      },
      "transferOwnership(address)": {
        "details": "Allows the current owner to transfer control of the contract to a newOwner.",
        "params": {
          "newOwner": "The address to transfer ownership to."
        }
      }
    }
  },
  "userdoc": {
    "methods": {
      "renounceOwnership()": {
        "notice": "Renouncing to ownership will leave the contract without an owner. It will not be possible to call the functions with the `onlyOwner` modifier anymore."
      }
    }
  }
}