{
  "contractName": "OrbsGuardians",
  "abi": [
    {
      "constant": true,
      "inputs": [],
      "name": "REGISTRATION_DEPOSIT",
      "outputs": [
        {
          "name": "",
          "type": "uint256"
        }
      ],
      "payable": false,
      "stateMutability": "view",
      "type": "function",
      "signature": "0x44e9f190"
    },
    {
      "constant": true,
      "inputs": [
        {
          "name": "",
          "type": "address"
        }
      ],
      "name": "guardiansData",
      "outputs": [
        {
          "name": "name",
          "type": "string"
        },
        {
          "name": "website",
          "type": "string"
        },
        {
          "name": "index",
          "type": "uint256"
        },
        {
          "name": "registeredOnBlock",
          "type": "uint256"
        },
        {
          "name": "lastUpdatedOnBlock",
          "type": "uint256"
        }
      ],
      "payable": false,
      "stateMutability": "view",
      "type": "function",
      "signature": "0xd46bdcad"
    },
    {
      "constant": true,
      "inputs": [
        {
          "name": "",
          "type": "uint256"
        }
      ],
      "name": "guardians",
      "outputs": [
        {
          "name": "",
          "type": "address"
        }
      ],
      "payable": false,
      "stateMutability": "view",
      "type": "function",
      "signature": "0xf560c734"
    },
    {
      "constant": true,
      "inputs": [],
      "name": "VERSION",
      "outputs": [
        {
          "name": "",
          "type": "uint256"
        }
      ],
      "payable": false,
      "stateMutability": "view",
      "type": "function",
      "signature": "0xffa1ad74"
    },
    {
      "anonymous": false,
      "inputs": [
        {
          "indexed": true,
          "name": "validator",
          "type": "address"
        }
      ],
      "name": "GuardianAdded",
      "type": "event",
      "signature": "0x038596bb31e2e7d3d9f184d4c98b310103f6d7f5830e5eec32bffe6f1728f969"
    },
    {
      "anonymous": false,
      "inputs": [
        {
          "indexed": true,
          "name": "validator",
          "type": "address"
        }
      ],
      "name": "GuardianLeft",
      "type": "event",
      "signature": "0x30e7885e5f0fc1d648230d0e9245d45333c7158885df954f0a2f0fb442be0f65"
    },
    {
      "anonymous": false,
      "inputs": [
        {
          "indexed": true,
          "name": "validator",
          "type": "address"
        }
      ],
      "name": "GuardianModified",
      "type": "event",
      "signature": "0x3f895d1a1eaa616d02b3e05c89e0e6aa0aa8d158dac2729420487f26bd9883fb"
    },
    {
      "constant": false,
      "inputs": [
        {
          "name": "name",
          "type": "string"
        },
        {
          "name": "website",
          "type": "string"
        }
      ],
      "name": "register",
      "outputs": [],
      "payable": true,
      "stateMutability": "payable",
      "type": "function",
      "signature": "0x3ffbd47f"
    },
    {
      "constant": false,
      "inputs": [],
      "name": "leave",
      "outputs": [],
      "payable": false,
      "stateMutability": "nonpayable",
      "type": "function",
      "signature": "0xd66d9e19"
    },
    {
      "constant": true,
      "inputs": [
        {
          "name": "guardian",
          "type": "address"
        }
      ],
      "name": "isGuardian",
      "outputs": [
        {
          "name": "",
          "type": "bool"
        }
      ],
      "payable": false,
      "stateMutability": "view",
      "type": "function",
      "signature": "0x0c68ba21"
    },
    {
      "constant": true,
      "inputs": [
        {
          "name": "offset",
          "type": "uint256"
        },
        {
          "name": "limit",
          "type": "uint256"
        }
      ],
      "name": "getGuardians",
      "outputs": [
        {
          "name": "",
          "type": "address[]"
        }
      ],
      "payable": false,
      "stateMutability": "view",
      "type": "function",
      "signature": "0xd93d7d29"
    },
    {
      "constant": true,
      "inputs": [
        {
          "name": "guardian",
          "type": "address"
        }
      ],
      "name": "getGuardianData",
      "outputs": [
        {
          "name": "name",
          "type": "string"
        },
        {
          "name": "website",
          "type": "string"
        }
      ],
      "payable": false,
      "stateMutability": "view",
      "type": "function",
      "signature": "0x4b139a47"
    },
    {
      "constant": true,
      "inputs": [
        {
          "name": "guardian",
          "type": "address"
        }
      ],
      "name": "getRegistrationBlockHeight",
      "outputs": [
        {
          "name": "registeredOn",
          "type": "uint256"
        },
        {
          "name": "lastUpdatedOn",
          "type": "uint256"
        }
      ],
      "payable": false,
      "stateMutability": "view",
      "type": "function",
      "signature": "0x7f72185a"
    }
  ],
  "bytecode": "0x608060405234801561001057600080fd5b50611820806100206000396000f3fe6080604052600436106100ae576000357c010000000000000000000000000000000000000000000000000000000090048063d46bdcad11610076578063d46bdcad1461043b578063d66d9e1914610586578063d93d7d291461059d578063f560c73414610637578063ffa1ad74146106b2576100ae565b80630c68ba21146100b35780633ffbd47f1461011c57806344e9f1901461026e5780634b139a47146102995780637f72185a146103cf575b600080fd5b3480156100bf57600080fd5b50610102600480360360208110156100d657600080fd5b81019080803573ffffffffffffffffffffffffffffffffffffffff1690602001909291905050506106dd565b604051808215151515815260200191505060405180910390f35b61026c6004803603604081101561013257600080fd5b810190808035906020019064010000000081111561014f57600080fd5b82018360208201111561016157600080fd5b8035906020019184600183028401116401000000008311171561018357600080fd5b91908080601f016020809104026020016040519081016040528093929190818152602001838380828437600081840152601f19601f820116905080830192505050505050509192919290803590602001906401000000008111156101e657600080fd5b8201836020820111156101f857600080fd5b8035906020019184600183028401116401000000008311171561021a57600080fd5b91908080601f016020809104026020016040519081016040528093929190818152602001838380828437600081840152601f19601f82011690508083019250505050505050919291929050505061073f565b005b34801561027a57600080fd5b50610283610bdb565b6040518082815260200191505060405180910390f35b3480156102a557600080fd5b506102e8600480360360208110156102bc57600080fd5b81019080803573ffffffffffffffffffffffffffffffffffffffff169060200190929190505050610be7565b604051808060200180602001838103835285818151815260200191508051906020019080838360005b8381101561032c578082015181840152602081019050610311565b50505050905090810190601f1680156103595780820380516001836020036101000a031916815260200191505b50838103825284818151815260200191508051906020019080838360005b83811015610392578082015181840152602081019050610377565b50505050905090810190601f1680156103bf5780820380516001836020036101000a031916815260200191505b5094505050505060405180910390f35b3480156103db57600080fd5b5061041e600480360360208110156103f257600080fd5b81019080803573ffffffffffffffffffffffffffffffffffffffff169060200190929190505050610e2c565b604051808381526020018281526020019250505060405180910390f35b34801561044757600080fd5b5061048a6004803603602081101561045e57600080fd5b81019080803573ffffffffffffffffffffffffffffffffffffffff169060200190929190505050610f03565b604051808060200180602001868152602001858152602001848152602001838103835288818151815260200191508051906020019080838360005b838110156104e05780820151818401526020810190506104c5565b50505050905090810190601f16801561050d5780820380516001836020036101000a031916815260200191505b50838103825287818151815260200191508051906020019080838360005b8381101561054657808201518184015260208101905061052b565b50505050905090810190601f1680156105735780820380516001836020036101000a031916815260200191505b5097505050505050505060405180910390f35b34801561059257600080fd5b5061059b611069565b005b3480156105a957600080fd5b506105e0600480360360408110156105c057600080fd5b8101908080359060200190929190803590602001909291905050506113da565b6040518080602001828103825283818151815260200191508051906020019060200280838360005b83811015610623578082015181840152602081019050610608565b505050509050019250505060405180910390f35b34801561064357600080fd5b506106706004803603602081101561065a57600080fd5b81019080803590602001909291905050506115cd565b604051808273ffffffffffffffffffffffffffffffffffffffff1673ffffffffffffffffffffffffffffffffffffffff16815260200191505060405180910390f35b3480156106be57600080fd5b506106c761160b565b6040518082815260200191505060405180910390f35b600080600160008473ffffffffffffffffffffffffffffffffffffffff1673ffffffffffffffffffffffffffffffffffffffff168152602001908152602001600020600001805460018160011615610100020316600290049050119050919050565b3373ffffffffffffffffffffffffffffffffffffffff163273ffffffffffffffffffffffffffffffffffffffff161415156107c5576040517f08c379a000000000000000000000000000000000000000000000000000000000815260040180806020018281038252602181526020018061176d6021913960400191505060405180910390fd5b6000825111151561083e576040517f08c379a000000000000000000000000000000000000000000000000000000000815260040180806020018281038252601b8152602001807f506c656173652070726f7669646520612076616c6964206e616d65000000000081525060200191505060405180910390fd5b600081511115156108b7576040517f08c379a000000000000000000000000000000000000000000000000000000000815260040180806020018281038252601e8152602001807f506c656173652070726f7669646520612076616c69642077656273697465000081525060200191505060405180910390fd5b60006108c2336106dd565b15905060008082156109e957670de0b6b3a764000034141515610930576040517f08c379a000000000000000000000000000000000000000000000000000000000815260040180806020018281038252602b81526020018061178e602b913960400191505060405180910390fd5b600080549050905043915060003390806001815401808255809150509060018203906000526020600020016000909192909190916101000a81548173ffffffffffffffffffffffffffffffffffffffff021916908373ffffffffffffffffffffffffffffffffffffffff160217905550503373ffffffffffffffffffffffffffffffffffffffff167f038596bb31e2e7d3d9f184d4c98b310103f6d7f5830e5eec32bffe6f1728f96960405160405180910390a2610b12565b600034141515610a44576040517f08c379a000000000000000000000000000000000000000000000000000000000815260040180806020018281038252603c8152602001806117b9603c913960400191505060405180910390fd5b600160003373ffffffffffffffffffffffffffffffffffffffff1673ffffffffffffffffffffffffffffffffffffffff168152602001908152602001600020600301549150600160003373ffffffffffffffffffffffffffffffffffffffff1673ffffffffffffffffffffffffffffffffffffffff1681526020019081526020016000206002015490503373ffffffffffffffffffffffffffffffffffffffff167f3f895d1a1eaa616d02b3e05c89e0e6aa0aa8d158dac2729420487f26bd9883fb60405160405180910390a25b60a06040519081016040528086815260200185815260200182815260200183815260200143815250600160003373ffffffffffffffffffffffffffffffffffffffff1673ffffffffffffffffffffffffffffffffffffffff1681526020019081526020016000206000820151816000019080519060200190610b95929190611653565b506020820151816001019080519060200190610bb2929190611653565b506040820151816002015560608201518160030155608082015181600401559050505050505050565b670de0b6b3a764000081565b606080610bf3836106dd565b1515610c67576040517f08c379a00000000000000000000000000000000000000000000000000000000081526004018080602001828103825260208152602001807f506c656173652070726f766964652061206c697374656420477561726469616e81525060200191505060405180910390fd5b600160008473ffffffffffffffffffffffffffffffffffffffff1673ffffffffffffffffffffffffffffffffffffffff168152602001908152602001600020600001600160008573ffffffffffffffffffffffffffffffffffffffff1673ffffffffffffffffffffffffffffffffffffffff168152602001908152602001600020600101818054600181600116156101000203166002900480601f016020809104026020016040519081016040528092919081815260200182805460018160011615610100020316600290048015610d805780601f10610d5557610100808354040283529160200191610d80565b820191906000526020600020905b815481529060010190602001808311610d6357829003601f168201915b50505050509150808054600181600116156101000203166002900480601f016020809104026020016040519081016040528092919081815260200182805460018160011615610100020316600290048015610e1c5780601f10610df157610100808354040283529160200191610e1c565b820191906000526020600020905b815481529060010190602001808311610dff57829003601f168201915b5050505050905091509150915091565b600080610e38836106dd565b1515610eac576040517f08c379a00000000000000000000000000000000000000000000000000000000081526004018080602001828103825260208152602001807f506c656173652070726f766964652061206c697374656420477561726469616e81525060200191505060405180910390fd5b6000600160008573ffffffffffffffffffffffffffffffffffffffff1673ffffffffffffffffffffffffffffffffffffffff1681526020019081526020016000209050806003015481600401549250925050915091565b6001602052806000526040600020600091509050806000018054600181600116156101000203166002900480601f016020809104026020016040519081016040528092919081815260200182805460018160011615610100020316600290048015610faf5780601f10610f8457610100808354040283529160200191610faf565b820191906000526020600020905b815481529060010190602001808311610f9257829003601f168201915b505050505090806001018054600181600116156101000203166002900480601f01602080910402602001604051908101604052809291908181526020018280546001816001161561010002031660029004801561104d5780601f106110225761010080835404028352916020019161104d565b820191906000526020600020905b81548152906001019060200180831161103057829003601f168201915b5050505050908060020154908060030154908060040154905085565b611072336106dd565b15156110e6576040517f08c379a00000000000000000000000000000000000000000000000000000000081526004018080602001828103825260188152602001807f53656e646572206973206e6f74206120477561726469616e000000000000000081525060200191505060405180910390fd5b6000600160003373ffffffffffffffffffffffffffffffffffffffff1673ffffffffffffffffffffffffffffffffffffffff1681526020019081526020016000206002015490503373ffffffffffffffffffffffffffffffffffffffff1660008281548110151561115357fe5b9060005260206000200160009054906101000a900473ffffffffffffffffffffffffffffffffffffffff1673ffffffffffffffffffffffffffffffffffffffff1614151561119d57fe5b60006001600080549050038154811015156111b457fe5b9060005260206000200160009054906101000a900473ffffffffffffffffffffffffffffffffffffffff166000828154811015156111ee57fe5b9060005260206000200160006101000a81548173ffffffffffffffffffffffffffffffffffffffff021916908373ffffffffffffffffffffffffffffffffffffffff1602179055508060016000808481548110151561124957fe5b9060005260206000200160009054906101000a900473ffffffffffffffffffffffffffffffffffffffff1673ffffffffffffffffffffffffffffffffffffffff1673ffffffffffffffffffffffffffffffffffffffff16815260200190815260200160002060020181905550600160003373ffffffffffffffffffffffffffffffffffffffff1673ffffffffffffffffffffffffffffffffffffffff1681526020019081526020016000206000808201600061130591906116d3565b60018201600061131591906116d3565b60028201600090556003820160009055600482016000905550506000805480919060019003611344919061171b565b503373ffffffffffffffffffffffffffffffffffffffff166108fc670de0b6b3a76400009081150290604051600060405180830381858888f19350505050158015611393573d6000803e3d6000fd5b503373ffffffffffffffffffffffffffffffffffffffff167f30e7885e5f0fc1d648230d0e9245d45333c7158885df954f0a2f0fb442be0f6560405160405180910390a250565b60606000805490508310151561142257600060405190808252806020026020018201604052801561141a5781602001602082028038833980820191505090505b5090506115c7565b6064821115151561149b576040517f08c379a000000000000000000000000000000000000000000000000000000000815260040180806020018281038252601c8152602001807f506167652073697a65206d6179206e6f7420657863656564203130300000000081525060200191505060405180910390fd5b6000805490506114b4838561161090919063ffffffff16565b11156114d5576114d28360008054905061163190919063ffffffff16565b91505b6060826040519080825280602002602001820160405280156115065781602001602082028038833980820191505090505b50905060008151905060008090505b818110156115c0576000611532828861161090919063ffffffff16565b81548110151561153e57fe5b9060005260206000200160009054906101000a900473ffffffffffffffffffffffffffffffffffffffff16838281518110151561157757fe5b9060200190602002019073ffffffffffffffffffffffffffffffffffffffff16908173ffffffffffffffffffffffffffffffffffffffff16815250508080600101915050611515565b5081925050505b92915050565b6000818154811015156115dc57fe5b906000526020600020016000915054906101000a900473ffffffffffffffffffffffffffffffffffffffff1681565b600181565b600080828401905083811015151561162757600080fd5b8091505092915050565b600082821115151561164257600080fd5b600082840390508091505092915050565b828054600181600116156101000203166002900490600052602060002090601f016020900481019282601f1061169457805160ff19168380011785556116c2565b828001600101855582156116c2579182015b828111156116c15782518255916020019190600101906116a6565b5b5090506116cf9190611747565b5090565b50805460018160011615610100020316600290046000825580601f106116f95750611718565b601f0160209004906000526020600020908101906117179190611747565b5b50565b815481835581811115611742578183600052602060002091820191016117419190611747565b5b505050565b61176991905b8082111561176557600081600090555060010161174d565b5090565b9056fe4f6e6c7920454f41206d617920726567697374657220617320477561726469616e506c656173652070726f76696465203120457468657220726567697374726174696f6e206465706f736974477561726469616e20697320616c726561647920726567697374657265642c206e6f206e65656420666f722061207365636f6e64206465706f736974a165627a7a723058209c430bad0e704083a781a7a309f64185b03af8dc0673fb5564c1a3ab4d2da1140029",
  "source": "pragma solidity 0.5.3;\n\nimport \"openzeppelin-solidity/contracts/math/SafeMath.sol\";\nimport \"./IOrbsGuardians.sol\";\n\ncontract OrbsGuardians is IOrbsGuardians {\n    using SafeMath for uint256;\n\n    struct GuardianData {\n        string name;\n        string website;\n        uint index;\n        uint registeredOnBlock;\n        uint lastUpdatedOnBlock;\n    }\n\n    // The version of the current federation smart contract.\n    uint public constant VERSION = 1;\n\n    uint public constant REGISTRATION_DEPOSIT = 1 ether;\n\n    event GuardianAdded(address indexed validator);\n    event GuardianLeft(address indexed validator);\n    event GuardianModified(address indexed validator);\n\n    address[] public guardians;\n    mapping(address => GuardianData) public guardiansData;\n\n    function register(string memory name, string memory website)\n        public\n        payable\n    {\n        require(tx.origin == msg.sender, \"Only EOA may register as Guardian\");\n        require(bytes(name).length > 0, \"Please provide a valid name\");\n        require(bytes(website).length > 0, \"Please provide a valid website\");\n\n        bool adding = !isGuardian(msg.sender);\n        uint registeredOnBlock;\n        uint index;\n        if (adding) {\n            require(msg.value == REGISTRATION_DEPOSIT, \"Please provide 1 Ether registration deposit\");\n            index = guardians.length;\n            registeredOnBlock = block.number;\n            guardians.push(msg.sender);\n            emit GuardianAdded(msg.sender);\n        } else {\n            require(msg.value == 0, \"Guardian is already registered, no need for a second deposit\");\n            registeredOnBlock = guardiansData[msg.sender].registeredOnBlock;\n            index = guardiansData[msg.sender].index;\n            emit GuardianModified(msg.sender);\n        }\n\n        guardiansData[msg.sender] = GuardianData(name, website, index, registeredOnBlock, block.number);\n    }\n\n    function leave() public {\n        require(isGuardian(msg.sender), \"Sender is not a Guardian\");\n\n        uint i = guardiansData[msg.sender].index;\n\n        assert(guardians[i] == msg.sender);\n\n        guardians[i] = guardians[guardians.length - 1]; // switch with last\n        guardiansData[guardians[i]].index = i; // update it's lookup index\n\n        delete guardiansData[msg.sender];\n        guardians.length--;\n\n        msg.sender.transfer(REGISTRATION_DEPOSIT);\n\n        emit GuardianLeft(msg.sender);\n    }\n\n    function isGuardian(address guardian) public view returns (bool) {\n        return bytes(guardiansData[guardian].name).length > 0;\n    }\n\n    function getGuardians(uint offset, uint limit)\n        public\n        view returns (address[] memory)\n    {\n        if (offset >= guardians.length) { // offset out of bounds\n            return new address[](0);\n        }\n\n        require(limit <= 100, \"Page size may not exceed 100\");\n\n        if (offset.add(limit) > guardians.length) { // clip limit to array size\n            limit = guardians.length.sub(offset);\n        }\n\n        address[] memory result = new address[](limit);\n\n        uint resultLength = result.length;\n        for (uint i = 0; i < resultLength; i++) {\n            result[i] = guardians[offset.add(i)];\n        }\n\n        return result;\n    }\n\n    function getGuardianData(address guardian)\n        public\n        view\n        returns (string memory name, string memory website)\n    {\n        require(isGuardian(guardian), \"Please provide a listed Guardian\");\n        return (guardiansData[guardian].name, guardiansData[guardian].website);\n    }\n\n    function getRegistrationBlockHeight(address guardian)\n        external\n        view\n        returns (uint registeredOn, uint lastUpdatedOn)\n    {\n        require(isGuardian(guardian), \"Please provide a listed Guardian\");\n\n        GuardianData storage entry = guardiansData[guardian];\n        return (\n            entry.registeredOnBlock,\n            entry.lastUpdatedOnBlock\n        );\n    }\n}\n",
  "sourcePath": "/Users/ron/work/src/github.com/orbs-network/orbs-ethereum-contracts/voting/ethereum/contracts/OrbsGuardians.sol",
  "compiler": {
    "name": "solc",
    "version": "0.5.3+commit.10d17f24.Emscripten.clang"
  },
  "schemaVersion": "3.0.2",
  "updatedAt": "2019-03-11T15:52:36.507Z",
  "devdoc": {
    "methods": {}
  },
  "userdoc": {
    "methods": {}
  }
}