{
  "contractName": "OrbsValidatorsRegistry",
  "abi": [
    {
      "constant": true,
      "inputs": [
        {
          "name": "",
          "type": "bytes4"
        }
      ],
      "name": "lookupByIp",
      "outputs": [
        {
          "name": "",
          "type": "address"
        }
      ],
      "payable": false,
      "stateMutability": "view",
      "type": "function",
      "signature": "0x0d69ac04"
    },
    {
      "constant": true,
      "inputs": [
        {
          "name": "",
          "type": "bytes20"
        }
      ],
      "name": "lookupByOrbsAddr",
      "outputs": [
        {
          "name": "",
          "type": "address"
        }
      ],
      "payable": false,
      "stateMutability": "view",
      "type": "function",
      "signature": "0x2b19e34e"
    },
    {
      "constant": true,
      "inputs": [],
      "name": "VERSION",
      "outputs": [
        {
          "name": "",
          "type": "uint256"
        }
      ],
      "payable": false,
      "stateMutability": "view",
      "type": "function",
      "signature": "0xffa1ad74"
    },
    {
      "anonymous": false,
      "inputs": [
        {
          "indexed": true,
          "name": "validator",
          "type": "address"
        }
      ],
      "name": "ValidatorLeft",
      "type": "event",
      "signature": "0x457a63bb4fcc8a2d38fb6141645ce9afbb084a1e63edee2799243c96a0498a0e"
    },
    {
      "anonymous": false,
      "inputs": [
        {
          "indexed": true,
          "name": "validator",
          "type": "address"
        }
      ],
      "name": "ValidatorRegistered",
      "type": "event",
      "signature": "0xd09501348473474a20c772c79c653e1fd7e8b437e418fe235d277d2c88853251"
    },
    {
      "anonymous": false,
      "inputs": [
        {
          "indexed": true,
          "name": "validator",
          "type": "address"
        }
      ],
      "name": "ValidatorUpdated",
      "type": "event",
      "signature": "0xb3a3a56265020415cf2f7ff198e2052a6e1d43d7eb127450af725829e40e08c2"
    },
    {
      "constant": false,
      "inputs": [
        {
          "name": "name",
          "type": "string"
        },
        {
          "name": "ipAddress",
          "type": "bytes4"
        },
        {
          "name": "website",
          "type": "string"
        },
        {
          "name": "orbsAddress",
          "type": "bytes20"
        }
      ],
      "name": "register",
      "outputs": [],
      "payable": false,
      "stateMutability": "nonpayable",
      "type": "function",
      "signature": "0xc611e584"
    },
    {
      "constant": false,
      "inputs": [
        {
          "name": "name",
          "type": "string"
        },
        {
          "name": "ipAddress",
          "type": "bytes4"
        },
        {
          "name": "website",
          "type": "string"
        },
        {
          "name": "orbsAddress",
          "type": "bytes20"
        }
      ],
      "name": "update",
      "outputs": [],
      "payable": false,
      "stateMutability": "nonpayable",
      "type": "function",
      "signature": "0x9b9fb164"
    },
    {
      "constant": false,
      "inputs": [],
      "name": "leave",
      "outputs": [],
      "payable": false,
      "stateMutability": "nonpayable",
      "type": "function",
      "signature": "0xd66d9e19"
    },
    {
      "constant": true,
      "inputs": [
        {
          "name": "validator",
          "type": "address"
        }
      ],
      "name": "getRegistrationBlockNumber",
      "outputs": [
        {
          "name": "registeredOn",
          "type": "uint256"
        },
        {
          "name": "lastUpdatedOn",
          "type": "uint256"
        }
      ],
      "payable": false,
      "stateMutability": "view",
      "type": "function",
      "signature": "0x50d8f786"
    },
    {
      "constant": true,
      "inputs": [
        {
          "name": "validator",
          "type": "address"
        }
      ],
      "name": "getOrbsAddress",
      "outputs": [
        {
          "name": "",
          "type": "bytes20"
        }
      ],
      "payable": false,
      "stateMutability": "view",
      "type": "function",
      "signature": "0xada78075"
    },
    {
      "constant": true,
      "inputs": [
        {
          "name": "validator",
          "type": "address"
        }
      ],
      "name": "getValidatorData",
      "outputs": [
        {
          "name": "name",
          "type": "string"
        },
        {
          "name": "ipAddress",
          "type": "bytes4"
        },
        {
          "name": "website",
          "type": "string"
        },
        {
          "name": "orbsAddress",
          "type": "bytes20"
        }
      ],
      "payable": false,
      "stateMutability": "view",
      "type": "function",
      "signature": "0x2536f8b5"
    },
    {
      "constant": true,
      "inputs": [
        {
          "name": "validator",
          "type": "address"
        }
      ],
      "name": "isValidator",
      "outputs": [
        {
          "name": "",
          "type": "bool"
        }
      ],
      "payable": false,
      "stateMutability": "view",
      "type": "function",
      "signature": "0xfacd743b"
    }
  ],
  "bytecode": "0x608060405234801561001057600080fd5b50611444806100206000396000f30060806040526004361061008a5763ffffffff60e060020a6000350416630d69ac04811461008f5780632536f8b5146100cd5780632b19e34e146101f657806350d8f7861461021d5780639b9fb16414610257578063ada78075146102a5578063c611e584146102e8578063d66d9e1914610334578063facd743b14610349578063ffa1ad741461037e575b600080fd5b34801561009b57600080fd5b506100b1600160e060020a0319600435166103a5565b60408051600160a060020a039092168252519081900360200190f35b3480156100d957600080fd5b506100ee600160a060020a03600435166103c0565b60408051600160e060020a031985166020808301919091526bffffffffffffffffffffffff198416606083015260808083528751908301528651919283929083019160a08401919089019080838360005b8381101561015757818101518382015260200161013f565b50505050905090810190601f1680156101845780820380516001836020036101000a031916815260200191505b50838103825285518152855160209182019187019080838360005b838110156101b757818101518382015260200161019f565b50505050905090810190601f1680156101e45780820380516001836020036101000a031916815260200191505b50965050505050505060405180910390f35b34801561020257600080fd5b506100b16bffffffffffffffffffffffff196004351661052d565b34801561022957600080fd5b5061023e600160a060020a0360043516610548565b6040805192835260208301919091528051918290030190f35b34801561026357600080fd5b506102a3602460048035828101929082013591600160e060020a0319823516916044359081019101356bffffffffffffffffffffffff19606435166105d5565b005b3480156102b157600080fd5b506102c6600160a060020a0360043516610aae565b604080516bffffffffffffffffffffffff199092168252519081900360200190f35b3480156102f457600080fd5b506102a3602460048035828101929082013591600160e060020a0319823516916044359081019101356bffffffffffffffffffffffff1960643516610adb565b34801561034057600080fd5b506102a3611052565b34801561035557600080fd5b5061036a600160a060020a03600435166111f2565b604080519115158252519081900360200190f35b34801561038a57600080fd5b50610393611211565b60408051918252519081900360200190f35b600160205260009081526040902054600160a060020a031681565b600160a060020a0381166000908152602081815260408083208054825160026001831615610100026000190190921691909104601f8101859004850282018501909352828152606094938593859392918391908301828280156104645780601f1061043957610100808354040283529160200191610464565b820191906000526020600020905b81548152906001019060200180831161044757829003601f168201915b505050506001838101546002808601805460408051602061010097841615979097026000190190921693909304601f8101869004860282018601909352828152959a5060e060020a9092029850909250908301828280156105065780601f106104db57610100808354040283529160200191610506565b820191906000526020600020905b8154815290600101906020018083116104e957829003601f168201915b505050600390930154969895975090956c0100000000000000000000000002949350505050565b600260205260009081526040902054600160a060020a031681565b6000806000610556846111f2565b15156105ac576040805160e560020a62461bcd02815260206004820152601260248201527f556e6c69737465642056616c696461746f720000000000000000000000000000604482015290519081900360640190fd5b505050600160a060020a0316600090815260208190526040902060048101546005909101549091565b6000806105e1336111f2565b151561065d576040805160e560020a62461bcd02815260206004820152602260248201527f596f75206d757374206265206120726567697374657265642076616c6964617460448201527f6f72000000000000000000000000000000000000000000000000000000000000606482015290519081900360840190fd5b339150600087116106b8576040805160e560020a62461bcd02815260206004820152601b60248201527f506c656173652070726f7669646520612076616c6964206e616d650000000000604482015290519081900360640190fd5b60008411610710576040805160e560020a62461bcd02815260206004820152601e60248201527f506c656173652070726f7669646520612076616c696420776562736974650000604482015290519081900360640190fd5b600160e060020a0319861615156107bd576040805160e560020a62461bcd02815260206004820152604960248201527f506c65617365207061737320612076616c69642069702061646472657373207260448201527f6570726573656e74656420617320616e206172726179206f662065786163746c60648201527f7920342062797465730000000000000000000000000000000000000000000000608482015290519081900360a40190fd5b6bffffffffffffffffffffffff1983161515610849576040805160e560020a62461bcd02815260206004820152602360248201527f506c656173652070726f7669646520612076616c6964204f726273204164647260448201527f6573730000000000000000000000000000000000000000000000000000000000606482015290519081900360840190fd5b61085286611216565b15156108ce576040805160e560020a62461bcd02815260206004820152603160248201527f4950204164647265737320697320616c726561647920696e207573652062792060448201527f616e6f746865722076616c696461746f72000000000000000000000000000000606482015290519081900360840190fd5b6108d78361126c565b1515610953576040805160e560020a62461bcd02815260206004820152603360248201527f4f726273204164647265737320697320616c726561647920696e20757365206260448201527f7920616e6f746865722076616c696461746f7200000000000000000000000000606482015290519081900360840190fd5b50600160a060020a03811660008181526020818152604080832060018082015460e060020a02600160e060020a03199081168652818552838620805473ffffffffffffffffffffffffffffffffffffffff1990811690915560038401546c01000000000000000000000000026bffffffffffffffffffffffff1990811688526002808852868920805484169055928e1688529286528487208054821689179055918916865290935292208054909116909217909155610a138189896112c8565b5060018101805463ffffffff191660e060020a8804179055610a396002820186866112c8565b5060038101805473ffffffffffffffffffffffffffffffffffffffff19166c010000000000000000000000008504179055436005820155604051600160a060020a038316907fb3a3a56265020415cf2f7ff198e2052a6e1d43d7eb127450af725829e40e08c290600090a25050505050505050565b600160a060020a03166000908152602081905260409020600301546c010000000000000000000000000290565b3360008611610b34576040805160e560020a62461bcd02815260206004820152601b60248201527f506c656173652070726f7669646520612076616c6964206e616d650000000000604482015290519081900360640190fd5b60008311610b8c576040805160e560020a62461bcd02815260206004820152601e60248201527f506c656173652070726f7669646520612076616c696420776562736974650000604482015290519081900360640190fd5b610b95816111f2565b15610bea576040805160e560020a62461bcd02815260206004820152601860248201527f56616c696461746f7220616c7265616479206578697374730000000000000000604482015290519081900360640190fd5b600160e060020a031985161515610c97576040805160e560020a62461bcd02815260206004820152604960248201527f506c65617365207061737320612076616c69642069702061646472657373207260448201527f6570726573656e74656420617320616e206172726179206f662065786163746c60648201527f7920342062797465730000000000000000000000000000000000000000000000608482015290519081900360a40190fd5b6bffffffffffffffffffffffff1982161515610d23576040805160e560020a62461bcd02815260206004820152602360248201527f506c656173652070726f7669646520612076616c6964204f726273204164647260448201527f6573730000000000000000000000000000000000000000000000000000000000606482015290519081900360840190fd5b600160e060020a03198516600090815260016020526040902054600160a060020a031615610d9b576040805160e560020a62461bcd02815260206004820152601960248201527f4950206164647265737320616c726561647920696e2075736500000000000000604482015290519081900360640190fd5b6bffffffffffffffffffffffff198216600090815260026020526040902054600160a060020a031615610e3e576040805160e560020a62461bcd02815260206004820152603360248201527f4f726273204164647265737320697320616c726561647920696e20757365206260448201527f7920616e6f746865722076616c696461746f7200000000000000000000000000606482015290519081900360840190fd5b600160e060020a0319851660009081526001602090815260408083208054600160a060020a03861673ffffffffffffffffffffffffffffffffffffffff1991821681179092556bffffffffffffffffffffffff19871685526002845293829020805490941617909255815160e0601f8a018390049092028101820190925260c0820188815282918a908a90819085018382808284378201915050505050508152602001867bffffffffffffffffffffffffffffffffffffffffffffffffffffffff1916815260200185858080601f0160208091040260200160405190810160405280939291908181526020018383808284375050509284525050506bffffffffffffffffffffffff198416602080830191909152436040808401829052606090930152600160a060020a038416600090815280825291909120825180519192610f8c92849290910190611346565b5060208281015160018301805463ffffffff191660e060020a90920491909117905560408301518051610fc59260028501920190611346565b50606082015160038201805473ffffffffffffffffffffffffffffffffffffffff19166c010000000000000000000000009092049190911790556080820151600482015560a090910151600590910155604051600160a060020a038216907fd09501348473474a20c772c79c653e1fd7e8b437e418fe235d277d2c8885325190600090a250505050505050565b60008061105e336111f2565b15156110da576040805160e560020a62461bcd02815260206004820152602260248201527f596f75206d757374206265206120726567697374657265642076616c6964617460448201527f6f72000000000000000000000000000000000000000000000000000000000000606482015290519081900360840190fd5b50503360008181526020818152604080832060018082015460e060020a02600160e060020a03191685528352818420805473ffffffffffffffffffffffffffffffffffffffff1990811690915560038201546c01000000000000000000000000026bffffffffffffffffffffffff191685526002845291842080549092169091558383529082905290819061116f82826113b4565b60018201805463ffffffff1916905561118c6002830160006113b4565b5060038101805473ffffffffffffffffffffffffffffffffffffffff191690556000600482018190556005909101819055604051600160a060020a038416917f457a63bb4fcc8a2d38fb6141645ce9afbb084a1e63edee2799243c96a0498a0e91a25050565b600160a060020a03166000908152602081905260408120600401541190565b600181565b600160e060020a03198116600090815260016020526040812054600160a060020a031615806112665750600160e060020a03198216600090815260016020526040902054600160a060020a031633145b92915050565b6bffffffffffffffffffffffff198116600090815260026020526040812054600160a060020a031615806112665750506bffffffffffffffffffffffff1916600090815260026020526040902054600160a060020a0316331490565b828054600181600116156101000203166002900490600052602060002090601f016020900481019282601f106113095782800160ff19823516178555611336565b82800160010185558215611336579182015b8281111561133657823582559160200191906001019061131b565b506113429291506113fb565b5090565b828054600181600116156101000203166002900490600052602060002090601f016020900481019282601f1061138757805160ff1916838001178555611336565b82800160010185558215611336579182015b82811115611336578251825591602001919060010190611399565b50805460018160011615610100020316600290046000825580601f106113da57506113f8565b601f0160209004906000526020600020908101906113f891906113fb565b50565b61141591905b808211156113425760008155600101611401565b905600a165627a7a72305820dcc76af16c84d8f3e89e1dd4653c6ef757e724a59a4c3adfb994f862c7f5abdd0029",
  "compiler": {
    "name": "solc",
    "version": "0.4.25+commit.59dbf8f1.Emscripten.clang"
  },
  "schemaVersion": "3.0.2",
  "updatedAt": "2019-03-25T00:40:07.416Z",
  "devdoc": {
    "methods": {
      "getOrbsAddress(address)": {
        "details": "returns the orbs node public address of a specific validator.",
        "params": {
          "validator": "address address of the validator"
        },
        "return": "an Orbs node address"
      },
      "getRegistrationBlockNumber(address)": {
        "details": "returns the blocks in which a validator was registered and last updated. if validator does not designate a registered validator this method returns zero values.",
        "params": {
          "validator": "address of a validator"
        }
      },
      "getValidatorData(address)": {
        "details": "returns validator registration data.",
        "params": {
          "validator": "address address of the validator."
        }
      },
      "isValidator(address)": {
        "details": "Checks if validator is currently registered as a validator.",
        "params": {
          "validator": "address address of the validator"
        },
        "return": "true iff validator belongs to a registered validator"
      },
      "leave()": {
        "details": "deletes a validator registration entry associated with msg.sender."
      },
      "register(string,bytes4,string,bytes20)": {
        "details": "register a validator and provide registration data. the new validator entry will be owned and identified by msg.sender. if msg.sender is already registered as a validator in this registry the transaction will fail.",
        "params": {
          "ipAddress": "bytes4 The validator node ip address. If another validator previously registered this ipAddress the transaction will fail",
          "name": "string The name of the validator",
          "orbsAddress": "bytes20 The validator node orbs public address. If another validator previously registered this orbsAddress the transaction will fail",
          "website": "string The website of the validator"
        }
      },
      "update(string,bytes4,string,bytes20)": {
        "details": "update the validator registration data entry associated with msg.sender. msg.sender must be registered in this registry contract.",
        "params": {
          "ipAddress": "bytes4 The validator node ip address. If another validator previously registered this ipAddress the transaction will fail",
          "name": "string The name of the validator",
          "orbsAddress": "bytes20 The validator node orbs public address. If another validator previously registered this orbsAddress the transaction will fail",
          "website": "string The website of the validator"
        }
      }
    },
    "title": "Orbs Validators Registry smart contract."
  },
  "userdoc": {
    "methods": {}
  }
}