{
  "contractName": "OrbsValidatorsRegistry",
  "abi": [
    {
      "constant": true,
      "inputs": [
        {
          "name": "",
          "type": "bytes4"
        }
      ],
      "name": "lookupByIp",
      "outputs": [
        {
          "name": "",
          "type": "address"
        }
      ],
      "payable": false,
      "stateMutability": "view",
      "type": "function"
    },
    {
      "constant": true,
      "inputs": [
        {
          "name": "",
          "type": "bytes20"
        }
      ],
      "name": "lookupByOrbsAddr",
      "outputs": [
        {
          "name": "",
          "type": "address"
        }
      ],
      "payable": false,
      "stateMutability": "view",
      "type": "function"
    },
    {
      "constant": true,
      "inputs": [],
      "name": "VERSION",
      "outputs": [
        {
          "name": "",
          "type": "uint256"
        }
      ],
      "payable": false,
      "stateMutability": "view",
      "type": "function"
    },
    {
      "anonymous": false,
      "inputs": [
        {
          "indexed": true,
          "name": "validator",
          "type": "address"
        }
      ],
      "name": "ValidatorLeft",
      "type": "event"
    },
    {
      "anonymous": false,
      "inputs": [
        {
          "indexed": true,
          "name": "validator",
          "type": "address"
        }
      ],
      "name": "ValidatorRegistered",
      "type": "event"
    },
    {
      "anonymous": false,
      "inputs": [
        {
          "indexed": true,
          "name": "validator",
          "type": "address"
        }
      ],
      "name": "ValidatorUpdated",
      "type": "event"
    },
    {
      "constant": false,
      "inputs": [
        {
          "name": "name",
          "type": "string"
        },
        {
          "name": "ipAddress",
          "type": "bytes4"
        },
        {
          "name": "website",
          "type": "string"
        },
        {
          "name": "orbsAddress",
          "type": "bytes20"
        }
      ],
      "name": "register",
      "outputs": [],
      "payable": false,
      "stateMutability": "nonpayable",
      "type": "function"
    },
    {
      "constant": false,
      "inputs": [
        {
          "name": "name",
          "type": "string"
        },
        {
          "name": "ipAddress",
          "type": "bytes4"
        },
        {
          "name": "website",
          "type": "string"
        },
        {
          "name": "orbsAddress",
          "type": "bytes20"
        }
      ],
      "name": "update",
      "outputs": [],
      "payable": false,
      "stateMutability": "nonpayable",
      "type": "function"
    },
    {
      "constant": false,
      "inputs": [],
      "name": "leave",
      "outputs": [],
      "payable": false,
      "stateMutability": "nonpayable",
      "type": "function"
    },
    {
      "constant": true,
      "inputs": [
        {
          "name": "validator",
          "type": "address"
        }
      ],
      "name": "getValidatorData",
      "outputs": [
        {
          "name": "name",
          "type": "string"
        },
        {
          "name": "ipAddress",
          "type": "bytes4"
        },
        {
          "name": "website",
          "type": "string"
        },
        {
          "name": "orbsAddress",
          "type": "bytes20"
        }
      ],
      "payable": false,
      "stateMutability": "view",
      "type": "function"
    },
    {
      "constant": true,
      "inputs": [],
      "name": "reviewRegistration",
      "outputs": [
        {
          "name": "name",
          "type": "string"
        },
        {
          "name": "ipAddress",
          "type": "bytes4"
        },
        {
          "name": "website",
          "type": "string"
        },
        {
          "name": "orbsAddress",
          "type": "bytes20"
        }
      ],
      "payable": false,
      "stateMutability": "view",
      "type": "function"
    },
    {
      "constant": true,
      "inputs": [
        {
          "name": "validator",
          "type": "address"
        }
      ],
      "name": "getRegistrationBlockNumber",
      "outputs": [
        {
          "name": "registeredOn",
          "type": "uint256"
        },
        {
          "name": "lastUpdatedOn",
          "type": "uint256"
        }
      ],
      "payable": false,
      "stateMutability": "view",
      "type": "function"
    },
    {
      "constant": true,
      "inputs": [
        {
          "name": "validator",
          "type": "address"
        }
      ],
      "name": "getOrbsAddress",
      "outputs": [
        {
          "name": "",
          "type": "bytes20"
        }
      ],
      "payable": false,
      "stateMutability": "view",
      "type": "function"
    },
    {
      "constant": true,
      "inputs": [
        {
          "name": "addr",
          "type": "address"
        }
      ],
      "name": "isValidator",
      "outputs": [
        {
          "name": "",
          "type": "bool"
        }
      ],
      "payable": false,
      "stateMutability": "view",
      "type": "function"
    }
  ],
  "bytecode": "0x608060405234801561001057600080fd5b506123db806100206000396000f3fe608060405234801561001057600080fd5b50600436106100c6576000357c010000000000000000000000000000000000000000000000000000000090048063ada780751161008e578063ada780751461055b578063c611e584146105d1578063d66d9e1914610765578063f35d2a8f1461076f578063facd743b146108c8578063ffa1ad7414610924576100c6565b80630d69ac04146100cb5780632536f8b5146101585780632b19e34e146102eb57806350d8f786146103685780639b9fb164146103c7575b600080fd5b610116600480360360208110156100e157600080fd5b8101908080357bffffffffffffffffffffffffffffffffffffffffffffffffffffffff19169060200190929190505050610942565b604051808273ffffffffffffffffffffffffffffffffffffffff1673ffffffffffffffffffffffffffffffffffffffff16815260200191505060405180910390f35b61019a6004803603602081101561016e57600080fd5b81019080803573ffffffffffffffffffffffffffffffffffffffff169060200190929190505050610975565b6040518080602001857bffffffffffffffffffffffffffffffffffffffffffffffffffffffff19167bffffffffffffffffffffffffffffffffffffffffffffffffffffffff1916815260200180602001846bffffffffffffffffffffffff19166bffffffffffffffffffffffff19168152602001838103835287818151815260200191508051906020019080838360005b8381101561024657808201518184015260208101905061022b565b50505050905090810190601f1680156102735780820380516001836020036101000a031916815260200191505b50838103825285818151815260200191508051906020019080838360005b838110156102ac578082015181840152602081019050610291565b50505050905090810190601f1680156102d95780820380516001836020036101000a031916815260200191505b50965050505050505060405180910390f35b6103266004803603602081101561030157600080fd5b8101908080356bffffffffffffffffffffffff19169060200190929190505050610bd8565b604051808273ffffffffffffffffffffffffffffffffffffffff1673ffffffffffffffffffffffffffffffffffffffff16815260200191505060405180910390f35b6103aa6004803603602081101561037e57600080fd5b81019080803573ffffffffffffffffffffffffffffffffffffffff169060200190929190505050610c0b565b604051808381526020018281526020019250505060405180910390f35b610559600480360360808110156103dd57600080fd5b81019080803590602001906401000000008111156103fa57600080fd5b82018360208201111561040c57600080fd5b8035906020019184600183028401116401000000008311171561042e57600080fd5b91908080601f016020809104026020016040519081016040528093929190818152602001838380828437600081840152601f19601f82011690508083019250505050505050919291929080357bffffffffffffffffffffffffffffffffffffffffffffffffffffffff19169060200190929190803590602001906401000000008111156104ba57600080fd5b8201836020820111156104cc57600080fd5b803590602001918460018302840111640100000000831117156104ee57600080fd5b91908080601f016020809104026020016040519081016040528093929190818152602001838380828437600081840152601f19601f82011690508083019250505050505050919291929080356bffffffffffffffffffffffff19169060200190929190505050610ce1565b005b61059d6004803603602081101561057157600080fd5b81019080803573ffffffffffffffffffffffffffffffffffffffff1690602001909291905050506113a5565b60405180826bffffffffffffffffffffffff19166bffffffffffffffffffffffff1916815260200191505060405180910390f35b610763600480360360808110156105e757600080fd5b810190808035906020019064010000000081111561060457600080fd5b82018360208201111561061657600080fd5b8035906020019184600183028401116401000000008311171561063857600080fd5b91908080601f016020809104026020016040519081016040528093929190818152602001838380828437600081840152601f19601f82011690508083019250505050505050919291929080357bffffffffffffffffffffffffffffffffffffffffffffffffffffffff19169060200190929190803590602001906401000000008111156106c457600080fd5b8201836020820111156106d657600080fd5b803590602001918460018302840111640100000000831117156106f857600080fd5b91908080601f016020809104026020016040519081016040528093929190818152602001838380828437600081840152601f19601f82011690508083019250505050505050919291929080356bffffffffffffffffffffffff19169060200190929190505050611486565b005b61076d611bdb565b005b610777611ea1565b6040518080602001857bffffffffffffffffffffffffffffffffffffffffffffffffffffffff19167bffffffffffffffffffffffffffffffffffffffffffffffffffffffff1916815260200180602001846bffffffffffffffffffffffff19166bffffffffffffffffffffffff19168152602001838103835287818151815260200191508051906020019080838360005b83811015610823578082015181840152602081019050610808565b50505050905090810190601f1680156108505780820380516001836020036101000a031916815260200191505b50838103825285818151815260200191508051906020019080838360005b8381101561088957808201518184015260208101905061086e565b50505050905090810190601f1680156108b65780820380516001836020036101000a031916815260200191505b50965050505050505060405180910390f35b61090a600480360360208110156108de57600080fd5b81019080803573ffffffffffffffffffffffffffffffffffffffff169060200190929190505050611ec0565b604051808215151515815260200191505060405180910390f35b61092c611f0d565b6040518082815260200191505060405180910390f35b60016020528060005260406000206000915054906101000a900473ffffffffffffffffffffffffffffffffffffffff1681565b606060006060600061098685611ec0565b15156109fa576040517f08c379a00000000000000000000000000000000000000000000000000000000081526004018080602001828103825260128152602001807f556e6c69737465642056616c696461746f72000000000000000000000000000081525060200191505060405180910390fd5b60008060008773ffffffffffffffffffffffffffffffffffffffff1673ffffffffffffffffffffffffffffffffffffffff1681526020019081526020016000209050806000018160010160009054906101000a90047c010000000000000000000000000000000000000000000000000000000002826002018360030160009054906101000a90046c0100000000000000000000000002838054600181600116156101000203166002900480601f016020809104026020016040519081016040528092919081815260200182805460018160011615610100020316600290048015610b255780601f10610afa57610100808354040283529160200191610b25565b820191906000526020600020905b815481529060010190602001808311610b0857829003601f168201915b50505050509350818054600181600116156101000203166002900480601f016020809104026020016040519081016040528092919081815260200182805460018160011615610100020316600290048015610bc15780601f10610b9657610100808354040283529160200191610bc1565b820191906000526020600020905b815481529060010190602001808311610ba457829003601f168201915b505050505091509450945094509450509193509193565b60026020528060005260406000206000915054906101000a900473ffffffffffffffffffffffffffffffffffffffff1681565b600080610c1783611ec0565b1515610c8b576040517f08c379a00000000000000000000000000000000000000000000000000000000081526004018080602001828103825260128152602001807f556e6c69737465642056616c696461746f72000000000000000000000000000081525060200191505060405180910390fd5b60008060008573ffffffffffffffffffffffffffffffffffffffff1673ffffffffffffffffffffffffffffffffffffffff1681526020019081526020016000209050806004015481600501549250925050915091565b60008451111515610d5a576040517f08c379a000000000000000000000000000000000000000000000000000000000815260040180806020018281038252601b8152602001807f506c656173652070726f7669646520612076616c6964206e616d65000000000081525060200191505060405180910390fd5b60008251111515610dd3576040517f08c379a000000000000000000000000000000000000000000000000000000000815260040180806020018281038252601e8152602001807f506c656173652070726f7669646520612076616c69642077656273697465000081525060200191505060405180910390fd5b610ddc33611ec0565b1515610e50576040517f08c379a00000000000000000000000000000000000000000000000000000000081526004018080602001828103825260168152602001807f56616c696461746f7220646f65736e742065786973740000000000000000000081525060200191505060405180910390fd5b60007c0100000000000000000000000000000000000000000000000000000000027bffffffffffffffffffffffffffffffffffffffffffffffffffffffff1916837bffffffffffffffffffffffffffffffffffffffffffffffffffffffff191614151515610f09576040517f08c379a00000000000000000000000000000000000000000000000000000000081526004018080602001828103825260498152602001806123136049913960600191505060405180910390fd5b60006c01000000000000000000000000026bffffffffffffffffffffffff1916816bffffffffffffffffffffffff191614151515610f92576040517f08c379a000000000000000000000000000000000000000000000000000000000815260040180806020018281038252602381526020018061238d6023913960400191505060405180910390fd5b610f9b83611f12565b1515610ff2576040517f08c379a000000000000000000000000000000000000000000000000000000000815260040180806020018281038252603181526020018061235c6031913960400191505060405180910390fd5b610ffb81612062565b1515611052576040517f08c379a00000000000000000000000000000000000000000000000000000000081526004018080602001828103825260338152602001806122e06033913960400191505060405180910390fd5b60008060003373ffffffffffffffffffffffffffffffffffffffff1673ffffffffffffffffffffffffffffffffffffffff1681526020019081526020016000209050600160008260010160009054906101000a90047c0100000000000000000000000000000000000000000000000000000000027bffffffffffffffffffffffffffffffffffffffffffffffffffffffff19167bffffffffffffffffffffffffffffffffffffffffffffffffffffffff1916815260200190815260200160002060006101000a81549073ffffffffffffffffffffffffffffffffffffffff0219169055600260008260030160009054906101000a90046c01000000000000000000000000026bffffffffffffffffffffffff19166bffffffffffffffffffffffff1916815260200190815260200160002060006101000a81549073ffffffffffffffffffffffffffffffffffffffff02191690553360016000867bffffffffffffffffffffffffffffffffffffffffffffffffffffffff19167bffffffffffffffffffffffffffffffffffffffffffffffffffffffff1916815260200190815260200160002060006101000a81548173ffffffffffffffffffffffffffffffffffffffff021916908373ffffffffffffffffffffffffffffffffffffffff1602179055503360026000846bffffffffffffffffffffffff19166bffffffffffffffffffffffff1916815260200190815260200160002060006101000a81548173ffffffffffffffffffffffffffffffffffffffff021916908373ffffffffffffffffffffffffffffffffffffffff160217905550848160000190805190602001906112be929190612172565b50838160010160006101000a81548163ffffffff02191690837c01000000000000000000000000000000000000000000000000000000009004021790555082816002019080519060200190611314929190612172565b50818160030160006101000a81548173ffffffffffffffffffffffffffffffffffffffff02191690836c01000000000000000000000000900402179055504381600501819055503373ffffffffffffffffffffffffffffffffffffffff167fb3a3a56265020415cf2f7ff198e2052a6e1d43d7eb127450af725829e40e08c260405160405180910390a25050505050565b60006113b082611ec0565b1515611424576040517f08c379a00000000000000000000000000000000000000000000000000000000081526004018080602001828103825260128152602001807f556e6c69737465642056616c696461746f72000000000000000000000000000081525060200191505060405180910390fd5b6000808373ffffffffffffffffffffffffffffffffffffffff1673ffffffffffffffffffffffffffffffffffffffff16815260200190815260200160002060030160009054906101000a90046c01000000000000000000000000029050919050565b600084511115156114ff576040517f08c379a000000000000000000000000000000000000000000000000000000000815260040180806020018281038252601b8152602001807f506c656173652070726f7669646520612076616c6964206e616d65000000000081525060200191505060405180910390fd5b60008251111515611578576040517f08c379a000000000000000000000000000000000000000000000000000000000815260040180806020018281038252601e8152602001807f506c656173652070726f7669646520612076616c69642077656273697465000081525060200191505060405180910390fd5b61158133611ec0565b1515156115f6576040517f08c379a00000000000000000000000000000000000000000000000000000000081526004018080602001828103825260188152602001807f56616c696461746f7220616c726561647920657869737473000000000000000081525060200191505060405180910390fd5b60007c0100000000000000000000000000000000000000000000000000000000027bffffffffffffffffffffffffffffffffffffffffffffffffffffffff1916837bffffffffffffffffffffffffffffffffffffffffffffffffffffffff1916141515156116af576040517f08c379a00000000000000000000000000000000000000000000000000000000081526004018080602001828103825260498152602001806123136049913960600191505060405180910390fd5b60006c01000000000000000000000000026bffffffffffffffffffffffff1916816bffffffffffffffffffffffff191614151515611738576040517f08c379a000000000000000000000000000000000000000000000000000000000815260040180806020018281038252602381526020018061238d6023913960400191505060405180910390fd5b600073ffffffffffffffffffffffffffffffffffffffff1660016000857bffffffffffffffffffffffffffffffffffffffffffffffffffffffff19167bffffffffffffffffffffffffffffffffffffffffffffffffffffffff1916815260200190815260200160002060009054906101000a900473ffffffffffffffffffffffffffffffffffffffff1673ffffffffffffffffffffffffffffffffffffffff1614151561184d576040517f08c379a00000000000000000000000000000000000000000000000000000000081526004018080602001828103825260198152602001807f4950206164647265737320616c726561647920696e207573650000000000000081525060200191505060405180910390fd5b600073ffffffffffffffffffffffffffffffffffffffff1660026000836bffffffffffffffffffffffff19166bffffffffffffffffffffffff1916815260200190815260200160002060009054906101000a900473ffffffffffffffffffffffffffffffffffffffff1673ffffffffffffffffffffffffffffffffffffffff16141515611925576040517f08c379a00000000000000000000000000000000000000000000000000000000081526004018080602001828103825260338152602001806122e06033913960400191505060405180910390fd5b3360016000857bffffffffffffffffffffffffffffffffffffffffffffffffffffffff19167bffffffffffffffffffffffffffffffffffffffffffffffffffffffff1916815260200190815260200160002060006101000a81548173ffffffffffffffffffffffffffffffffffffffff021916908373ffffffffffffffffffffffffffffffffffffffff1602179055503360026000836bffffffffffffffffffffffff19166bffffffffffffffffffffffff1916815260200190815260200160002060006101000a81548173ffffffffffffffffffffffffffffffffffffffff021916908373ffffffffffffffffffffffffffffffffffffffff16021790555060c060405190810160405280858152602001847bffffffffffffffffffffffffffffffffffffffffffffffffffffffff19168152602001838152602001826bffffffffffffffffffffffff19168152602001438152602001438152506000803373ffffffffffffffffffffffffffffffffffffffff1673ffffffffffffffffffffffffffffffffffffffff1681526020019081526020016000206000820151816000019080519060200190611adb9291906121f2565b5060208201518160010160006101000a81548163ffffffff02191690837c0100000000000000000000000000000000000000000000000000000000900402179055506040820151816002019080519060200190611b399291906121f2565b5060608201518160030160006101000a81548173ffffffffffffffffffffffffffffffffffffffff02191690836c01000000000000000000000000900402179055506080820151816004015560a082015181600501559050503373ffffffffffffffffffffffffffffffffffffffff167fd09501348473474a20c772c79c653e1fd7e8b437e418fe235d277d2c8885325160405160405180910390a250505050565b611be433611ec0565b1515611c58576040517f08c379a00000000000000000000000000000000000000000000000000000000081526004018080602001828103825260208152602001807f53656e646572206973206e6f742061206c69737465642056616c696461746f7281525060200191505060405180910390fd5b60008060003373ffffffffffffffffffffffffffffffffffffffff1673ffffffffffffffffffffffffffffffffffffffff1681526020019081526020016000209050600160008260010160009054906101000a90047c0100000000000000000000000000000000000000000000000000000000027bffffffffffffffffffffffffffffffffffffffffffffffffffffffff19167bffffffffffffffffffffffffffffffffffffffffffffffffffffffff1916815260200190815260200160002060006101000a81549073ffffffffffffffffffffffffffffffffffffffff0219169055600260008260030160009054906101000a90046c01000000000000000000000000026bffffffffffffffffffffffff19166bffffffffffffffffffffffff1916815260200190815260200160002060006101000a81549073ffffffffffffffffffffffffffffffffffffffff02191690556000803373ffffffffffffffffffffffffffffffffffffffff1673ffffffffffffffffffffffffffffffffffffffff16815260200190815260200160002060008082016000611dfb9190612272565b6001820160006101000a81549063ffffffff0219169055600282016000611e229190612272565b6003820160006101000a81549073ffffffffffffffffffffffffffffffffffffffff02191690556004820160009055600582016000905550503373ffffffffffffffffffffffffffffffffffffffff167f457a63bb4fcc8a2d38fb6141645ce9afbb084a1e63edee2799243c96a0498a0e60405160405180910390a250565b6060600060606000611eb233610975565b935093509350935090919293565b6000806000808473ffffffffffffffffffffffffffffffffffffffff1673ffffffffffffffffffffffffffffffffffffffff16815260200190815260200160002060040154119050919050565b600181565b60008073ffffffffffffffffffffffffffffffffffffffff1660016000847bffffffffffffffffffffffffffffffffffffffffffffffffffffffff19167bffffffffffffffffffffffffffffffffffffffffffffffffffffffff1916815260200190815260200160002060009054906101000a900473ffffffffffffffffffffffffffffffffffffffff1673ffffffffffffffffffffffffffffffffffffffff16148061205b57503373ffffffffffffffffffffffffffffffffffffffff1660016000847bffffffffffffffffffffffffffffffffffffffffffffffffffffffff19167bffffffffffffffffffffffffffffffffffffffffffffffffffffffff1916815260200190815260200160002060009054906101000a900473ffffffffffffffffffffffffffffffffffffffff1673ffffffffffffffffffffffffffffffffffffffff16145b9050919050565b60008073ffffffffffffffffffffffffffffffffffffffff1660026000846bffffffffffffffffffffffff19166bffffffffffffffffffffffff1916815260200190815260200160002060009054906101000a900473ffffffffffffffffffffffffffffffffffffffff1673ffffffffffffffffffffffffffffffffffffffff16148061216b57503373ffffffffffffffffffffffffffffffffffffffff1660026000846bffffffffffffffffffffffff19166bffffffffffffffffffffffff1916815260200190815260200160002060009054906101000a900473ffffffffffffffffffffffffffffffffffffffff1673ffffffffffffffffffffffffffffffffffffffff16145b9050919050565b828054600181600116156101000203166002900490600052602060002090601f016020900481019282601f106121b357805160ff19168380011785556121e1565b828001600101855582156121e1579182015b828111156121e05782518255916020019190600101906121c5565b5b5090506121ee91906122ba565b5090565b828054600181600116156101000203166002900490600052602060002090601f016020900481019282601f1061223357805160ff1916838001178555612261565b82800160010185558215612261579182015b82811115612260578251825591602001919060010190612245565b5b50905061226e91906122ba565b5090565b50805460018160011615610100020316600290046000825580601f1061229857506122b7565b601f0160209004906000526020600020908101906122b691906122ba565b5b50565b6122dc91905b808211156122d85760008160009055506001016122c0565b5090565b9056fe4f726273204164647265737320697320616c726561647920696e2075736520627920616e6f746865722076616c696461746f72506c65617365207061737320612076616c6964206970206164647265737320726570726573656e74656420617320616e206172726179206f662065786163746c7920342062797465734950204164647265737320697320616c726561647920696e2075736520627920616e6f746865722076616c696461746f72506c656173652070726f7669646520612076616c6964204f7262732041646472657373a165627a7a72305820a5ca559f1945760fcd28d37bfb17fdf01bd4cd1179008111cfa3155d419ef2210029",
  "compiler": {
    "name": "solc",
    "version": "0.5.3+commit.10d17f24.Emscripten.clang"
  },
  "schemaVersion": "3.0.2",
  "updatedAt": "2019-03-22T06:00:30.844Z",
  "devdoc": {
    "methods": {
      "getOrbsAddress(address)": {
        "details": "returns the orbs node public address of a specific validator.",
        "params": {
          "validator": "address address of the validator"
        },
        "return": "an Orbs node address"
      },
      "getRegistrationBlockNumber(address)": {
        "details": "returns the blocks in which a validator was registered and last updated. if validator does not designate a registered validator this method returns zero values.",
        "params": {
          "validator": "address of a validator"
        }
      },
      "getValidatorData(address)": {
        "details": "returns validator registration data.",
        "params": {
          "validator": "address address of the validator."
        }
      },
      "isValidator(address)": {
        "details": "Checks if addr is currently registered as a validator.",
        "params": {
          "addr": "address address of the validator"
        },
        "return": "true iff addr belongs to a registered validator"
      },
      "leave()": {
        "details": "deletes a validator registration entry associated with msg.sender."
      },
      "register(string,bytes4,string,bytes20)": {
        "details": "register a validator and provide registration data. the new validator entry will be owned and identified by msg.sender. if msg.sender is already registered as a validator in this registry the transaction will fail.",
        "params": {
          "ipAddress": "bytes4 The validator node ip address. If another validator previously registered this ipAddress the transaction will fail",
          "name": "string The name of the validator",
          "orbsAddress": "bytes20 The validator node orbs public address. If another validator previously registered this orbsAddress the transaction will fail",
          "website": "string The website of the validator"
        }
      },
      "reviewRegistration()": {
        "details": "Convenience method to retrieve the registration data associated with msg.sender - typically for review after a successful registration. same as calling getValidatorData(msg.sender)"
      },
      "update(string,bytes4,string,bytes20)": {
        "details": "update the validator registration data entry associated with msg.sender. msg.sender must be registered in this registry contract.",
        "params": {
          "ipAddress": "bytes4 The validator node ip address. If another validator previously registered this ipAddress the transaction will fail",
          "name": "string The name of the validator",
          "orbsAddress": "bytes20 The validator node orbs public address. If another validator previously registered this orbsAddress the transaction will fail",
          "website": "string The website of the validator"
        }
      }
    },
    "title": "Orbs Validators Registry smart contract."
  },
  "userdoc": {
    "methods": {}
  }
}