{
  "contractName": "OrbsGuardians",
  "abi": [
    {
      "constant": true,
      "inputs": [],
      "name": "registrationDepositWei",
      "outputs": [
        {
          "name": "",
          "type": "uint256"
        }
      ],
      "payable": false,
      "stateMutability": "view",
      "type": "function"
    },
    {
      "constant": true,
      "inputs": [],
      "name": "registrationMinTime",
      "outputs": [
        {
          "name": "",
          "type": "uint256"
        }
      ],
      "payable": false,
      "stateMutability": "view",
      "type": "function"
    },
    {
      "constant": true,
      "inputs": [],
      "name": "VERSION",
      "outputs": [
        {
          "name": "",
          "type": "uint256"
        }
      ],
      "payable": false,
      "stateMutability": "view",
      "type": "function"
    },
    {
      "inputs": [
        {
          "name": "registrationDepositWei_",
          "type": "uint256"
        },
        {
          "name": "registrationMinTime_",
          "type": "uint256"
        }
      ],
      "payable": false,
      "stateMutability": "nonpayable",
      "type": "constructor"
    },
    {
      "anonymous": false,
      "inputs": [
        {
          "indexed": true,
          "name": "guardian",
          "type": "address"
        }
      ],
      "name": "GuardianRegistered",
      "type": "event"
    },
    {
      "anonymous": false,
      "inputs": [
        {
          "indexed": true,
          "name": "guardian",
          "type": "address"
        }
      ],
      "name": "GuardianLeft",
      "type": "event"
    },
    {
      "anonymous": false,
      "inputs": [
        {
          "indexed": true,
          "name": "guardian",
          "type": "address"
        }
      ],
      "name": "GuardianUpdated",
      "type": "event"
    },
    {
      "constant": false,
      "inputs": [
        {
          "name": "name",
          "type": "string"
        },
        {
          "name": "website",
          "type": "string"
        }
      ],
      "name": "register",
      "outputs": [],
      "payable": true,
      "stateMutability": "payable",
      "type": "function"
    },
    {
      "constant": false,
      "inputs": [
        {
          "name": "name",
          "type": "string"
        },
        {
          "name": "website",
          "type": "string"
        }
      ],
      "name": "update",
      "outputs": [],
      "payable": false,
      "stateMutability": "nonpayable",
      "type": "function"
    },
    {
      "constant": false,
      "inputs": [],
      "name": "leave",
      "outputs": [],
      "payable": false,
      "stateMutability": "nonpayable",
      "type": "function"
    },
    {
      "constant": true,
      "inputs": [
        {
          "name": "offset",
          "type": "uint256"
        },
        {
          "name": "limit",
          "type": "uint256"
        }
      ],
      "name": "getGuardiansBytes20",
      "outputs": [
        {
          "name": "",
          "type": "bytes20[]"
        }
      ],
      "payable": false,
      "stateMutability": "view",
      "type": "function"
    },
    {
      "constant": true,
      "inputs": [
        {
          "name": "guardian",
          "type": "address"
        }
      ],
      "name": "getRegistrationBlockNumber",
      "outputs": [
        {
          "name": "registeredOn",
          "type": "uint256"
        },
        {
          "name": "lastUpdatedOn",
          "type": "uint256"
        }
      ],
      "payable": false,
      "stateMutability": "view",
      "type": "function"
    },
    {
      "constant": true,
      "inputs": [
        {
          "name": "offset",
          "type": "uint256"
        },
        {
          "name": "limit",
          "type": "uint256"
        }
      ],
      "name": "getGuardians",
      "outputs": [
        {
          "name": "",
          "type": "address[]"
        }
      ],
      "payable": false,
      "stateMutability": "view",
      "type": "function"
    },
    {
      "constant": true,
      "inputs": [
        {
          "name": "guardian",
          "type": "address"
        }
      ],
      "name": "getGuardianData",
      "outputs": [
        {
          "name": "name",
          "type": "string"
        },
        {
          "name": "website",
          "type": "string"
        }
      ],
      "payable": false,
      "stateMutability": "view",
      "type": "function"
    },
    {
      "constant": true,
      "inputs": [
        {
          "name": "guardian",
          "type": "address"
        }
      ],
      "name": "isGuardian",
      "outputs": [
        {
          "name": "",
          "type": "bool"
        }
      ],
      "payable": false,
      "stateMutability": "view",
      "type": "function"
    }
  ],
  "bytecode": "0x608060405234801561001057600080fd5b50604051604080611337833981016040528051602090910151600082116100be57604080517f08c379a000000000000000000000000000000000000000000000000000000000815260206004820152602860248201527f726567697374726174696f6e4465706f7369745765695f206d7573742062652060448201527f706f736974697665000000000000000000000000000000000000000000000000606482015290519081900360840190fd5b600155600055611264806100d36000396000f3006080604052600436106100ae5763ffffffff7c01000000000000000000000000000000000000000000000000000000006000350416630c68ba2181146100b35780631201b4bd146100e85780633ffbd47f1461010f5780634b139a47146101305780634cf1f60b1461022f57806350d8f7861461029a578063d66d9e19146102d4578063d93d7d29146102e9578063f4c84d1914610304578063f566065014610330578063ffa1ad7414610345575b600080fd5b3480156100bf57600080fd5b506100d4600160a060020a036004351661035a565b604080519115158252519081900360200190f35b3480156100f457600080fd5b506100fd610379565b60408051918252519081900360200190f35b61012e602460048035828101929082013591813591820191013561037f565b005b34801561013c57600080fd5b50610151600160a060020a0360043516610725565b604051808060200180602001838103835285818151815260200191508051906020019080838360005b8381101561019257818101518382015260200161017a565b50505050905090810190601f1680156101bf5780820380516001836020036101000a031916815260200191505b50838103825284518152845160209182019186019080838360005b838110156101f25781810151838201526020016101da565b50505050905090810190601f16801561021f5780820380516001836020036101000a031916815260200191505b5094505050505060405180910390f35b34801561023b57600080fd5b5061024a6004356024356108f3565b60408051602080825283518183015283519192839290830191858101910280838360005b8381101561028657818101518382015260200161026e565b505050509050019250505060405180910390f35b3480156102a657600080fd5b506102bb600160a060020a03600435166109aa565b6040805192835260208301919091528051918290030190f35b3480156102e057600080fd5b5061012e610a39565b3480156102f557600080fd5b5061024a600435602435610d56565b34801561031057600080fd5b5061012e6024600480358281019290820135918135918201910135610e5a565b34801561033c57600080fd5b506100fd61107c565b34801561035157600080fd5b506100fd611082565b600160a060020a03166000908152600360208190526040822001541190565b60005481565b60008061038b33611087565b156103ed576040805160e560020a62461bcd02815260206004820152602160248201527f4f6e6c7920454f41206d61792072656769737465722061732047756172646961604482015260f960020a603702606482015290519081900360840190fd5b33915060008511610448576040805160e560020a62461bcd02815260206004820152601b60248201527f506c656173652070726f7669646520612076616c6964206e616d650000000000604482015290519081900360640190fd5b600083116104a0576040805160e560020a62461bcd02815260206004820152601e60248201527f506c656173652070726f7669646520612076616c696420776562736974650000604482015290519081900360640190fd5b6104a98261035a565b156104fe576040805160e560020a62461bcd02815260206004820152601460248201527f43616e6e6f74206265206120677561726469616e000000000000000000000000604482015290519081900360640190fd5b600054341461057d576040805160e560020a62461bcd02815260206004820152602d60248201527f506c656173652070726f7669646520746865206578616374207265676973747260448201527f6174696f6e206465706f73697400000000000000000000000000000000000000606482015290519081900360840190fd5b50600280546001810182556000919091527f405787fa12a823e0f2b7631cc41b3ba8828b3321ca811111fa75cd3aa3bb5ace8101805473ffffffffffffffffffffffffffffffffffffffff1916600160a060020a038416179055604080516020601f880181900402810160e090810190925260c0810187815290918291908990899081908501838280828437820191505050505050815260200185858080601f0160208091040260200160405190810160405280939291908181526020018383808284378201915050505050508152602001828152602001438152602001438152602001428152506003600084600160a060020a0316600160a060020a0316815260200190815260200160002060008201518160000190805190602001906106a69291906110bf565b5060208281015180516106bf92600185019201906110bf565b506040828101516002830155606083015160038301556080830151600483015560a09092015160059091015551600160a060020a038316907fc2d72ac93e7fb29c534663a530cd3db012d5c336965e423e0ed5ee7a64ed874590600090a2505050505050565b6060806107318361035a565b1515610787576040805160e560020a62461bcd02815260206004820181905260248201527f506c656173652070726f766964652061206c697374656420477561726469616e604482015290519081900360640190fd5b600160a060020a03831660009081526003602090815260409182902080548351601f6002600019610100600186161502019093169290920491820184900484028101840190945280845290918301828280156108245780601f106107f957610100808354040283529160200191610824565b820191906000526020600020905b81548152906001019060200180831161080757829003601f168201915b505050505091506003600084600160a060020a0316600160a060020a031681526020019081526020016000206001018054600181600116156101000203166002900480601f0160208091040260200160405190810160405280929190818152602001828054600181600116156101000203166002900480156108e75780601f106108bc576101008083540402835291602001916108e7565b820191906000526020600020905b8154815290600101906020018083116108ca57829003601f168201915b50505050509050915091565b6060806000606060006109068787610d56565b93508351925082604051908082528060200260200182016040528015610936578160200160208202803883390190505b509150600090505b828110156109a057838181518110151561095457fe5b906020019060200201516c0100000000000000000000000002828281518110151561097b57fe5b6bffffffffffffffffffffffff1990921660209283029091019091015260010161093e565b5095945050505050565b60008060006109b88461035a565b1515610a0e576040805160e560020a62461bcd02815260206004820181905260248201527f506c656173652070726f766964652061206c697374656420477561726469616e604482015290519081900360640190fd5b505050600160a060020a03166000908152600360208190526040909120908101546004909101549091565b600080610a453361035a565b1515610aa8576040805160e560020a62461bcd02815260206004820152602160248201527f596f75206d757374206265206120726567697374657265642067756172646961604482015260f960020a603702606482015290519081900360840190fd5b610ab133611087565b15610b13576040805160e560020a62461bcd02815260206004820152602160248201527f4f6e6c7920454f41206d61792072656769737465722061732047756172646961604482015260f960020a603702606482015290519081900360840190fd5b60015433600081815260036020526040902060050154909350610b3b9163ffffffff61108f16565b421015610b92576040805160e560020a62461bcd02815260206004820181905260248201527f4d696e696d616c20677561726469616e2074696d65206469646e742070617373604482015290519081900360640190fd5b50600160a060020a038116600081815260036020526040902060029081015481549092919083908110610bc157fe5b600091825260209091200154600160a060020a031614610bdd57fe5b600280546000198101908110610bef57fe5b60009182526020909120015460028054600160a060020a039092169183908110610c1557fe5b9060005260206000200160006101000a815481600160a060020a030219169083600160a060020a031602179055508060036000600284815481101515610c5757fe5b6000918252602080832090910154600160a060020a031683528201929092526040019020600290810191909155805490610c9590600019830161113d565b50600160a060020a038216600090815260036020526040812090610cb98282611166565b610cc7600183016000611166565b50600060028201819055600382018190556004820181905560059091018190558054604051600160a060020a0385169282156108fc02929190818181858888f19350505050158015610d1d573d6000803e3d6000fd5b50604051600160a060020a038316907f30e7885e5f0fc1d648230d0e9245d45333c7158885df954f0a2f0fb442be0f6590600090a25050565b600254606090819060009081908610610d7f576040805160008152602081019091529350610e51565b600254610d92878763ffffffff61108f16565b1115610dae57600254610dab908763ffffffff6110a816565b94505b84604051908082528060200260200182016040528015610dd8578160200160208202803883390190505b50925082519150600090505b81811015610e4d576002610dfe878363ffffffff61108f16565b81548110610e0857fe5b6000918252602090912001548351600160a060020a0390911690849083908110610e2e57fe5b600160a060020a03909216602092830290910190910152600101610de4565b8293505b50505092915050565b6000610e653361035a565b1515610ec8576040805160e560020a62461bcd02815260206004820152602160248201527f596f75206d757374206265206120726567697374657265642067756172646961604482015260f960020a603702606482015290519081900360840190fd5b610ed133611087565b15610f33576040805160e560020a62461bcd02815260206004820152602160248201527f4f6e6c7920454f41206d61792072656769737465722061732047756172646961604482015260f960020a603702606482015290519081900360840190fd5b503360008411610f8d576040805160e560020a62461bcd02815260206004820152601b60248201527f506c656173652070726f7669646520612076616c6964206e616d650000000000604482015290519081900360640190fd5b60008211610fe5576040805160e560020a62461bcd02815260206004820152601e60248201527f506c656173652070726f7669646520612076616c696420776562736974650000604482015290519081900360640190fd5b600160a060020a03811660009081526003602052604090206110089086866111ad565b50600160a060020a038116600090815260036020526040902061102f9060010184846111ad565b50600160a060020a03811660008181526003602052604080822043600490910155517f6bb7ff33e730289800c62ad882105a144a74010d2bdbb9a942544a3005ad55bf9190a25050505050565b60015481565b600181565b6000903b1190565b6000828201838110156110a157600080fd5b9392505050565b600080838311156110b857600080fd5b5050900390565b828054600181600116156101000203166002900490600052602060002090601f016020900481019282601f1061110057805160ff191683800117855561112d565b8280016001018555821561112d579182015b8281111561112d578251825591602001919060010190611112565b5061113992915061121b565b5090565b8154818355818111156111615760008381526020902061116191810190830161121b565b505050565b50805460018160011615610100020316600290046000825580601f1061118c57506111aa565b601f0160209004906000526020600020908101906111aa919061121b565b50565b828054600181600116156101000203166002900490600052602060002090601f016020900481019282601f106111ee5782800160ff1982351617855561112d565b8280016001018555821561112d579182015b8281111561112d578235825591602001919060010190611200565b61123591905b808211156111395760008155600101611221565b905600a165627a7a723058203d5ee4cc18f7cac561cab0de6eae2d74fe8509c11ecd2be37f6bbed39e2bc2760029",
  "compiler": {
    "name": "solc",
    "version": "0.4.25+commit.59dbf8f1.Emscripten.clang"
  },
  "schemaVersion": "3.0.2",
  "updatedAt": "2019-03-25T00:37:37.823Z",
  "devdoc": {
    "methods": {
      "getGuardianData(address)": {
        "details": "Returns name and website for  a specific guardian.",
        "params": {
          "guardian": "address the guardian address"
        }
      },
      "getGuardians(uint256,uint256)": {
        "details": "Returns an array of guardians.",
        "params": {
          "limit": "uint limit of guardians to be returned.",
          "offset": "uint offset from which to start getting guardians from the array"
        }
      },
      "getGuardiansBytes20(uint256,uint256)": {
        "details": "Similar to getGuardians, but returns addresses represented as byte20.",
        "params": {
          "limit": "uint limit of guardians to be returned.",
          "offset": "uint offset from which to start getting guardians from the array"
        }
      },
      "getRegistrationBlockNumber(address)": {
        "details": "Returns in which block the guardian registered, and in which block it was last updated.",
        "params": {
          "guardian": "address the guardian address"
        }
      },
      "isGuardian(address)": {
        "details": "Returns if the address belongs to a guardian",
        "params": {
          "guardian": "address the guardian address"
        }
      },
      "leave()": {
        "details": "Delete the guardian and take back the locked ether. only msg.sender can leave."
      },
      "register(string,string)": {
        "details": "register a new guardian. You will need to transfer registrationDepositWei amount of ether.",
        "params": {
          "name": "string The name of the guardian",
          "website": "string The website of the guardian"
        }
      },
      "update(string,string)": {
        "details": "update guardian details. only msg.sender can update it's own guardian details.",
        "params": {
          "name": "string The name of the guardian",
          "website": "string The website of the guardian"
        }
      }
    }
  },
  "userdoc": {
    "methods": {}
  }
}