{
  "contractName": "OrbsValidators",
  "abi": [
    {
      "constant": true,
      "inputs": [],
      "name": "orbsValidatorsRegistry",
      "outputs": [
        {
          "name": "",
          "type": "address"
        }
      ],
      "payable": false,
      "stateMutability": "view",
      "type": "function"
    },
    {
      "constant": false,
      "inputs": [],
      "name": "renounceOwnership",
      "outputs": [],
      "payable": false,
      "stateMutability": "nonpayable",
      "type": "function"
    },
    {
      "constant": true,
      "inputs": [],
      "name": "owner",
      "outputs": [
        {
          "name": "",
          "type": "address"
        }
      ],
      "payable": false,
      "stateMutability": "view",
      "type": "function"
    },
    {
      "constant": true,
      "inputs": [],
      "name": "isOwner",
      "outputs": [
        {
          "name": "",
          "type": "bool"
        }
      ],
      "payable": false,
      "stateMutability": "view",
      "type": "function"
    },
    {
      "constant": true,
      "inputs": [],
      "name": "validatorsLimit",
      "outputs": [
        {
          "name": "",
          "type": "uint256"
        }
      ],
      "payable": false,
      "stateMutability": "view",
      "type": "function"
    },
    {
      "constant": false,
      "inputs": [
        {
          "name": "newOwner",
          "type": "address"
        }
      ],
      "name": "transferOwnership",
      "outputs": [],
      "payable": false,
      "stateMutability": "nonpayable",
      "type": "function"
    },
    {
      "constant": true,
      "inputs": [],
      "name": "VERSION",
      "outputs": [
        {
          "name": "",
          "type": "uint256"
        }
      ],
      "payable": false,
      "stateMutability": "view",
      "type": "function"
    },
    {
      "inputs": [
        {
          "name": "registry_",
          "type": "address"
        },
        {
          "name": "validatorsLimit_",
          "type": "uint256"
        }
      ],
      "payable": false,
      "stateMutability": "nonpayable",
      "type": "constructor"
    },
    {
      "anonymous": false,
      "inputs": [
        {
          "indexed": true,
          "name": "validator",
          "type": "address"
        }
      ],
      "name": "ValidatorApproved",
      "type": "event"
    },
    {
      "anonymous": false,
      "inputs": [
        {
          "indexed": true,
          "name": "validator",
          "type": "address"
        }
      ],
      "name": "ValidatorRemoved",
      "type": "event"
    },
    {
      "anonymous": false,
      "inputs": [
        {
          "indexed": true,
          "name": "previousOwner",
          "type": "address"
        },
        {
          "indexed": true,
          "name": "newOwner",
          "type": "address"
        }
      ],
      "name": "OwnershipTransferred",
      "type": "event"
    },
    {
      "constant": false,
      "inputs": [
        {
          "name": "validator",
          "type": "address"
        }
      ],
      "name": "approve",
      "outputs": [],
      "payable": false,
      "stateMutability": "nonpayable",
      "type": "function"
    },
    {
      "constant": false,
      "inputs": [
        {
          "name": "validator",
          "type": "address"
        }
      ],
      "name": "remove",
      "outputs": [],
      "payable": false,
      "stateMutability": "nonpayable",
      "type": "function"
    },
    {
      "constant": true,
      "inputs": [
        {
          "name": "validator",
          "type": "address"
        }
      ],
      "name": "isValidator",
      "outputs": [
        {
          "name": "",
          "type": "bool"
        }
      ],
      "payable": false,
      "stateMutability": "view",
      "type": "function"
    },
    {
      "constant": true,
      "inputs": [
        {
          "name": "validator",
          "type": "address"
        }
      ],
      "name": "isApproved",
      "outputs": [
        {
          "name": "",
          "type": "bool"
        }
      ],
      "payable": false,
      "stateMutability": "view",
      "type": "function"
    },
    {
      "constant": true,
      "inputs": [],
      "name": "getValidators",
      "outputs": [
        {
          "name": "",
          "type": "address[]"
        }
      ],
      "payable": false,
      "stateMutability": "view",
      "type": "function"
    },
    {
      "constant": true,
      "inputs": [],
      "name": "getValidatorsBytes20",
      "outputs": [
        {
          "name": "",
          "type": "bytes20[]"
        }
      ],
      "payable": false,
      "stateMutability": "view",
      "type": "function"
    },
    {
      "constant": true,
      "inputs": [
        {
          "name": "validator",
          "type": "address"
        }
      ],
      "name": "getApprovalBlockNumber",
      "outputs": [
        {
          "name": "",
          "type": "uint256"
        }
      ],
      "payable": false,
      "stateMutability": "view",
      "type": "function"
    },
    {
      "constant": true,
      "inputs": [],
      "name": "getNetworkTopology",
      "outputs": [
        {
          "name": "nodeAddresses",
          "type": "bytes20[]"
        },
        {
          "name": "ipAddresses",
          "type": "bytes4[]"
        }
      ],
      "payable": false,
      "stateMutability": "view",
      "type": "function"
    }
  ],
  "bytecode": "0x608060405234801561001057600080fd5b506040516040806119cf8339810180604052810190808051906020019092919080519060200190929190505050336000806101000a81548173ffffffffffffffffffffffffffffffffffffffff021916908373ffffffffffffffffffffffffffffffffffffffff1602179055506000809054906101000a900473ffffffffffffffffffffffffffffffffffffffff1673ffffffffffffffffffffffffffffffffffffffff16600073ffffffffffffffffffffffffffffffffffffffff167f8be0079c531659141344cd1fd0a4f28419497f9722a3daafe3b4186f6b6457e060405160405180910390a3600073ffffffffffffffffffffffffffffffffffffffff168273ffffffffffffffffffffffffffffffffffffffff161415151561019e576040517f08c379a000000000000000000000000000000000000000000000000000000000815260040180806020018281038252601b8152602001807f526567697374727920636f6e747261637420616464726573732030000000000081525060200191505060405180910390fd5b600081111515610216576040517f08c379a00000000000000000000000000000000000000000000000000000000081526004018080602001828103825260168152602001807f4c696d6974206d75737420626520706f7369746976650000000000000000000081525060200191505060405180910390fd5b6064811115151561028f576040517f08c379a00000000000000000000000000000000000000000000000000000000081526004018080602001828103825260118152602001807f4c696d697420697320746f6f206869676800000000000000000000000000000081525060200191505060405180910390fd5b8060018190555081600260006101000a81548173ffffffffffffffffffffffffffffffffffffffff021916908373ffffffffffffffffffffffffffffffffffffffff16021790555050506116e7806102e86000396000f3006080604052600436106100db576000357c0100000000000000000000000000000000000000000000000000000000900463ffffffff1680631bcbe9a4146100e0578063204296731461013757806329092d0e146101eb578063673448dd1461022e57806368095af514610289578063715018a6146102e05780638da5cb5b146102f75780638f32d59b1461034e578063a319ff271461037d578063b7ab4db5146103a8578063daea85c514610414578063f2fde38b14610457578063f3f6b43e1461049a578063facd743b14610506578063ffa1ad7414610561575b600080fd5b3480156100ec57600080fd5b506100f561058c565b604051808273ffffffffffffffffffffffffffffffffffffffff1673ffffffffffffffffffffffffffffffffffffffff16815260200191505060405180910390f35b34801561014357600080fd5b5061014c6105b2565b604051808060200180602001838103835285818151815260200191508051906020019060200280838360005b83811015610193578082015181840152602081019050610178565b50505050905001838103825284818151815260200191508051906020019060200280838360005b838110156101d55780820151818401526020810190506101ba565b5050505090500194505050505060405180910390f35b3480156101f757600080fd5b5061022c600480360381019080803573ffffffffffffffffffffffffffffffffffffffff1690602001909291905050506108c5565b005b34801561023a57600080fd5b5061026f600480360381019080803573ffffffffffffffffffffffffffffffffffffffff169060200190929190505050610b20565b604051808215151515815260200191505060405180910390f35b34801561029557600080fd5b506102ca600480360381019080803573ffffffffffffffffffffffffffffffffffffffff169060200190929190505050610b6b565b6040518082815260200191505060405180910390f35b3480156102ec57600080fd5b506102f5610bb4565b005b34801561030357600080fd5b5061030c610c86565b604051808273ffffffffffffffffffffffffffffffffffffffff1673ffffffffffffffffffffffffffffffffffffffff16815260200191505060405180910390f35b34801561035a57600080fd5b50610363610caf565b604051808215151515815260200191505060405180910390f35b34801561038957600080fd5b50610392610d06565b6040518082815260200191505060405180910390f35b3480156103b457600080fd5b506103bd610d0c565b6040518080602001828103825283818151815260200191508051906020019060200280838360005b838110156104005780820151818401526020810190506103e5565b505050509050019250505060405180910390f35b34801561042057600080fd5b50610455600480360381019080803573ffffffffffffffffffffffffffffffffffffffff169060200190929190505050610f43565b005b34801561046357600080fd5b50610498600480360381019080803573ffffffffffffffffffffffffffffffffffffffff16906020019092919050505061120d565b005b3480156104a657600080fd5b506104af61122c565b6040518080602001828103825283818151815260200191508051906020019060200280838360005b838110156104f25780820151818401526020810190506104d7565b505050509050019250505060405180910390f35b34801561051257600080fd5b50610547600480360381019080803573ffffffffffffffffffffffffffffffffffffffff1690602001909291905050506112fc565b604051808215151515815260200191505060405180910390f35b34801561056d57600080fd5b5061057661140e565b6040518082815260200191505060405180910390f35b600260009054906101000a900473ffffffffffffffffffffffffffffffffffffffff1681565b60608060606000806000806105c5610d0c565b945084519350836040519080825280602002602001820160405280156105fa5781602001602082028038833980820191505090505b5096508360405190808252806020026020018201604052801561062c5781602001602082028038833980820191505090505b509550600092505b838310156108bc57600260009054906101000a900473ffffffffffffffffffffffffffffffffffffffff1673ffffffffffffffffffffffffffffffffffffffff16632536f8b5868581518110151561068857fe5b906020019060200201516040518263ffffffff167c0100000000000000000000000000000000000000000000000000000000028152600401808273ffffffffffffffffffffffffffffffffffffffff1673ffffffffffffffffffffffffffffffffffffffff168152602001915050600060405180830381600087803b15801561071057600080fd5b505af1158015610724573d6000803e3d6000fd5b505050506040513d6000823e3d601f19601f82011682018060405250608081101561074e57600080fd5b81019080805164010000000081111561076657600080fd5b8281019050602081018481111561077c57600080fd5b815185600182028301116401000000008211171561079957600080fd5b50509291906020018051906020019092919080516401000000008111156107bf57600080fd5b828101905060208101848111156107d557600080fd5b81518560018202830111640100000000821117156107f257600080fd5b505092919060200180519060200190929190505050909192509050809250819350505080878481518110151561082457fe5b906020019060200201906bffffffffffffffffffffffff191690816bffffffffffffffffffffffff19168152505081868481518110151561086157fe5b906020019060200201907bffffffffffffffffffffffffffffffffffffffffffffffffffffffff191690817bffffffffffffffffffffffffffffffffffffffffffffffffffffffff1916815250508280600101935050610634565b50505050509091565b6000806108d0610caf565b15156108db57600080fd5b6108e483610b20565b1515610958576040517f08c379a00000000000000000000000000000000000000000000000000000000081526004018080602001828103825260198152602001807f4e6f7420616e20617070726f7665642076616c696461746f720000000000000081525060200191505060405180910390fd5b6003805490509150600090505b81811015610b1a578273ffffffffffffffffffffffffffffffffffffffff1660038281548110151561099357fe5b9060005260206000200160009054906101000a900473ffffffffffffffffffffffffffffffffffffffff1673ffffffffffffffffffffffffffffffffffffffff161415610b0f576003600183038154811015156109ec57fe5b9060005260206000200160009054906101000a900473ffffffffffffffffffffffffffffffffffffffff16600382815481101515610a2657fe5b9060005260206000200160006101000a81548173ffffffffffffffffffffffffffffffffffffffff021916908373ffffffffffffffffffffffffffffffffffffffff1602179055506003805480919060019003610a83919061166a565b50600460008473ffffffffffffffffffffffffffffffffffffffff1673ffffffffffffffffffffffffffffffffffffffff168152602001908152602001600020600090558273ffffffffffffffffffffffffffffffffffffffff167fe1434e25d6611e0db941968fdc97811c982ac1602e951637d206f5fdda9dd8f160405160405180910390a2610b1b565b806001019050610965565b5b505050565b600080600460008473ffffffffffffffffffffffffffffffffffffffff1673ffffffffffffffffffffffffffffffffffffffff16815260200190815260200160002054119050919050565b6000600460008373ffffffffffffffffffffffffffffffffffffffff1673ffffffffffffffffffffffffffffffffffffffff168152602001908152602001600020549050919050565b610bbc610caf565b1515610bc757600080fd5b600073ffffffffffffffffffffffffffffffffffffffff166000809054906101000a900473ffffffffffffffffffffffffffffffffffffffff1673ffffffffffffffffffffffffffffffffffffffff167f8be0079c531659141344cd1fd0a4f28419497f9722a3daafe3b4186f6b6457e060405160405180910390a360008060006101000a81548173ffffffffffffffffffffffffffffffffffffffff021916908373ffffffffffffffffffffffffffffffffffffffff160217905550565b60008060009054906101000a900473ffffffffffffffffffffffffffffffffffffffff16905090565b60008060009054906101000a900473ffffffffffffffffffffffffffffffffffffffff1673ffffffffffffffffffffffffffffffffffffffff163373ffffffffffffffffffffffffffffffffffffffff1614905090565b60015481565b606060006060600080600380549050935083604051908082528060200260200182016040528015610d4c5781602001602082028038833980820191505090505b50925060009150600090505b83811015610f3057600260009054906101000a900473ffffffffffffffffffffffffffffffffffffffff1673ffffffffffffffffffffffffffffffffffffffff1663facd743b600383815481101515610dad57fe5b9060005260206000200160009054906101000a900473ffffffffffffffffffffffffffffffffffffffff166040518263ffffffff167c0100000000000000000000000000000000000000000000000000000000028152600401808273ffffffffffffffffffffffffffffffffffffffff1673ffffffffffffffffffffffffffffffffffffffff168152602001915050602060405180830381600087803b158015610e5657600080fd5b505af1158015610e6a573d6000803e3d6000fd5b505050506040513d6020811015610e8057600080fd5b810190808051906020019092919050505015610f2357600381815481101515610ea557fe5b9060005260206000200160009054906101000a900473ffffffffffffffffffffffffffffffffffffffff168383815181101515610ede57fe5b9060200190602002019073ffffffffffffffffffffffffffffffffffffffff16908173ffffffffffffffffffffffffffffffffffffffff168152505081806001019250505b8080600101915050610d58565b610f3a8383611413565b94505050505090565b610f4b610caf565b1515610f5657600080fd5b600073ffffffffffffffffffffffffffffffffffffffff168173ffffffffffffffffffffffffffffffffffffffff1614151515610ffb576040517f08c379a00000000000000000000000000000000000000000000000000000000081526004018080602001828103825260168152602001807f41646472657373206d757374206e6f742062652030210000000000000000000081525060200191505060405180910390fd5b600154600380549050101515611079576040517f08c379a00000000000000000000000000000000000000000000000000000000081526004018080602001828103825260178152602001807f43616e277420616464206d6f7265206d656d626572732100000000000000000081525060200191505060405180910390fd5b61108281610b20565b15151561111d576040517f08c379a00000000000000000000000000000000000000000000000000000000081526004018080602001828103825260248152602001807f41646472657373206d757374206e6f7420626520616c7265616479206170707281526020017f6f7665640000000000000000000000000000000000000000000000000000000081525060400191505060405180910390fd5b60038190806001815401808255809150509060018203906000526020600020016000909192909190916101000a81548173ffffffffffffffffffffffffffffffffffffffff021916908373ffffffffffffffffffffffffffffffffffffffff1602179055505043600460008373ffffffffffffffffffffffffffffffffffffffff1673ffffffffffffffffffffffffffffffffffffffff168152602001908152602001600020819055508073ffffffffffffffffffffffffffffffffffffffff167f6b872750794b9ce90f9678e8d33652e3c79a1bc2868bf145d74bb04e7da83af860405160405180910390a250565b611215610caf565b151561122057600080fd5b61122981611570565b50565b60608060006060600061123d610d0c565b935083519250826040519080825280602002602001820160405280156112725781602001602082028038833980820191505090505b509150600090505b828110156112f257838181518110151561129057fe5b906020019060200201516c010000000000000000000000000282828151811015156112b757fe5b906020019060200201906bffffffffffffffffffffffff191690816bffffffffffffffffffffffff191681525050808060010191505061127a565b8194505050505090565b600061130782610b20565b80156114075750600260009054906101000a900473ffffffffffffffffffffffffffffffffffffffff1673ffffffffffffffffffffffffffffffffffffffff1663facd743b836040518263ffffffff167c0100000000000000000000000000000000000000000000000000000000028152600401808273ffffffffffffffffffffffffffffffffffffffff1673ffffffffffffffffffffffffffffffffffffffff168152602001915050602060405180830381600087803b1580156113cb57600080fd5b505af11580156113df573d6000803e3d6000fd5b505050506040513d60208110156113f557600080fd5b81019080805190602001909291905050505b9050919050565b600181565b6060806000845184111515156114b7576040517f08c379a00000000000000000000000000000000000000000000000000000000081526004018080602001828103825260238152602001807f737562206172726179206d757374206265206c6f6e676572207468656e20617281526020017f726179000000000000000000000000000000000000000000000000000000000081525060400191505060405180910390fd5b836040519080825280602002602001820160405280156114e65781602001602082028038833980820191505090505b509150600090505b8381101561156557848181518110151561150457fe5b90602001906020020151828281518110151561151c57fe5b9060200190602002019073ffffffffffffffffffffffffffffffffffffffff16908173ffffffffffffffffffffffffffffffffffffffff168152505080806001019150506114ee565b819250505092915050565b600073ffffffffffffffffffffffffffffffffffffffff168173ffffffffffffffffffffffffffffffffffffffff16141515156115ac57600080fd5b8073ffffffffffffffffffffffffffffffffffffffff166000809054906101000a900473ffffffffffffffffffffffffffffffffffffffff1673ffffffffffffffffffffffffffffffffffffffff167f8be0079c531659141344cd1fd0a4f28419497f9722a3daafe3b4186f6b6457e060405160405180910390a3806000806101000a81548173ffffffffffffffffffffffffffffffffffffffff021916908373ffffffffffffffffffffffffffffffffffffffff16021790555050565b815481835581811115611691578183600052602060002091820191016116909190611696565b5b505050565b6116b891905b808211156116b457600081600090555060010161169c565b5090565b905600a165627a7a72305820521bfaca75bd3498fa3126207c14b180de446a6ac63850ed2981810f67fa03680029",
  "compiler": {
    "name": "solc",
    "version": "0.4.25+commit.59dbf8f1.Emscripten.clang"
  },
  "schemaVersion": "3.0.2",
  "updatedAt": "2019-03-24T12:26:05.546Z",
  "devdoc": {
    "methods": {
      "approve(address)": {
        "details": "Adds a validator to participate in network",
        "params": {
          "validator": "address The address of the validators."
        }
      },
      "getApprovalBlockNumber(address)": {
        "details": "returns the block number in which the validator was approved.",
        "params": {
          "validator": "address The address of the validators."
        }
      },
      "getNetworkTopology()": {
        "details": "returns an array of pairs with node addresses and ip addresses."
      },
      "getValidators()": {
        "details": "returns a list of all validators that have been approved and exist in the validator registration database."
      },
      "getValidatorsBytes20()": {
        "details": "returns a list of all validators that have been approved and exist in the validator registration      database like getValidators but returns byte20 which is more compatible in some cases."
      },
      "isApproved(address)": {
        "details": "returns if an address belongs to the approved list",
        "params": {
          "validator": "address The address of the validators."
        }
      },
      "isOwner()": {
        "return": "true if `msg.sender` is the owner of the contract."
      },
      "isValidator(address)": {
        "details": "returns if an address belongs to the approved list & exists in the validators metadata registration database.",
        "params": {
          "validator": "address The address of the validators."
        }
      },
      "owner()": {
        "return": "the address of the owner."
      },
      "remove(address)": {
        "details": "Remove a validator from the List based on Guardians votes.",
        "params": {
          "validator": "address The address of the validators."
        }
      },
      "renounceOwnership()": {
        "details": "Allows the current owner to relinquish control of the contract."
      },
      "transferOwnership(address)": {
        "details": "Allows the current owner to transfer control of the contract to a newOwner.",
        "params": {
          "newOwner": "The address to transfer ownership to."
        }
      }
    }
  },
  "userdoc": {
    "methods": {
      "renounceOwnership()": {
        "notice": "Renouncing to ownership will leave the contract without an owner. It will not be possible to call the functions with the `onlyOwner` modifier anymore."
      }
    }
  }
}