{
  "contractName": "OrbsVoting",
  "abi": [
    {
      "constant": true,
      "inputs": [],
      "name": "maxVoteOutLength",
      "outputs": [
        {
          "name": "",
          "type": "uint256"
        }
      ],
      "payable": false,
      "stateMutability": "view",
      "type": "function"
    },
    {
      "constant": true,
      "inputs": [],
      "name": "VERSION",
      "outputs": [
        {
          "name": "",
          "type": "uint256"
        }
      ],
      "payable": false,
      "stateMutability": "view",
      "type": "function"
    },
    {
      "inputs": [
        {
          "name": "maxVoteOutLength_",
          "type": "uint256"
        }
      ],
      "payable": false,
      "stateMutability": "nonpayable",
      "type": "constructor"
    },
    {
      "anonymous": false,
      "inputs": [
        {
          "indexed": true,
          "name": "voter",
          "type": "address"
        },
        {
          "indexed": false,
          "name": "validators",
          "type": "address[]"
        },
        {
          "indexed": false,
          "name": "voteCounter",
          "type": "uint256"
        }
      ],
      "name": "VoteOut",
      "type": "event"
    },
    {
      "anonymous": false,
      "inputs": [
        {
          "indexed": true,
          "name": "delegator",
          "type": "address"
        },
        {
          "indexed": true,
          "name": "to",
          "type": "address"
        },
        {
          "indexed": false,
          "name": "delegationCounter",
          "type": "uint256"
        }
      ],
      "name": "Delegate",
      "type": "event"
    },
    {
      "constant": false,
      "inputs": [
        {
          "name": "validators",
          "type": "address[]"
        }
      ],
      "name": "voteOut",
      "outputs": [],
      "payable": false,
      "stateMutability": "nonpayable",
      "type": "function"
    },
    {
      "constant": false,
      "inputs": [
        {
          "name": "to",
          "type": "address"
        }
      ],
      "name": "delegate",
      "outputs": [],
      "payable": false,
      "stateMutability": "nonpayable",
      "type": "function"
    },
    {
      "constant": true,
      "inputs": [
        {
          "name": "guardian",
          "type": "address"
        }
      ],
      "name": "getCurrentVote",
      "outputs": [
        {
          "name": "validators",
          "type": "address[]"
        },
        {
          "name": "blockNumber",
          "type": "uint256"
        }
      ],
      "payable": false,
      "stateMutability": "view",
      "type": "function"
    },
    {
      "constant": true,
      "inputs": [
        {
          "name": "guardian",
          "type": "address"
        }
      ],
      "name": "getCurrentVoteBytes20",
      "outputs": [
        {
          "name": "validatorsBytes20",
          "type": "bytes20[]"
        },
        {
          "name": "blockNumber",
          "type": "uint256"
        }
      ],
      "payable": false,
      "stateMutability": "view",
      "type": "function"
    },
    {
      "constant": true,
      "inputs": [
        {
          "name": "delegator",
          "type": "address"
        }
      ],
      "name": "getCurrentDelegation",
      "outputs": [
        {
          "name": "",
          "type": "address"
        }
      ],
      "payable": false,
      "stateMutability": "view",
      "type": "function"
    }
  ],
  "bytecode": "0x608060405234801561001057600080fd5b50604051602080610bd68339810180604052602081101561003057600080fd5b81019080805190602001909291905050506000808190555060006001819055508060028190555050610b6f806100676000396000f3fe608060405234801561001057600080fd5b506004361061009a576000357c010000000000000000000000000000000000000000000000000000000090048063ab58a54911610078578063ab58a54914610207578063e5d0161814610225578063f8222020146102c5578063ffa1ad741461037d5761009a565b806345ba5b8a1461009f5780635c19a95c14610123578063a8b52c2514610167575b600080fd5b6100e1600480360360208110156100b557600080fd5b81019080803573ffffffffffffffffffffffffffffffffffffffff16906020019092919050505061039b565b604051808273ffffffffffffffffffffffffffffffffffffffff1673ffffffffffffffffffffffffffffffffffffffff16815260200191505060405180910390f35b6101656004803603602081101561013957600080fd5b81019080803573ffffffffffffffffffffffffffffffffffffffff169060200190929190505050610404565b005b6101a96004803603602081101561017d57600080fd5b81019080803573ffffffffffffffffffffffffffffffffffffffff1690602001909291905050506105a3565b6040518080602001838152602001828103825284818151815260200191508051906020019060200280838360005b838110156101f25780820151818401526020810190506101d7565b50505050905001935050505060405180910390f35b61020f6106fd565b6040518082815260200191505060405180910390f35b6102676004803603602081101561023b57600080fd5b81019080803573ffffffffffffffffffffffffffffffffffffffff169060200190929190505050610703565b6040518080602001838152602001828103825284818151815260200191508051906020019060200280838360005b838110156102b0578082015181840152602081019050610295565b50505050905001935050505060405180910390f35b61037b600480360360208110156102db57600080fd5b81019080803590602001906401000000008111156102f857600080fd5b82018360208201111561030a57600080fd5b8035906020019184602083028401116401000000008311171561032c57600080fd5b919080806020026020016040519081016040528093929190818152602001838360200280828437600081840152601f19601f8201169050808301925050505050505091929192905050506107d8565b005b610385610a22565b6040518082815260200191505060405180910390f35b6000600460008373ffffffffffffffffffffffffffffffffffffffff1673ffffffffffffffffffffffffffffffffffffffff16815260200190815260200160002060009054906101000a900473ffffffffffffffffffffffffffffffffffffffff169050919050565b600073ffffffffffffffffffffffffffffffffffffffff168173ffffffffffffffffffffffffffffffffffffffff16141515156104a9576040517f08c379a00000000000000000000000000000000000000000000000000000000081526004018080602001828103825260168152602001807f6d7573742064656c656761746520746f206e6f6e20300000000000000000000081525060200191505060405180910390fd5b60016000815480929190600101919050555080600460003373ffffffffffffffffffffffffffffffffffffffff1673ffffffffffffffffffffffffffffffffffffffff16815260200190815260200160002060006101000a81548173ffffffffffffffffffffffffffffffffffffffff021916908373ffffffffffffffffffffffffffffffffffffffff1602179055508073ffffffffffffffffffffffffffffffffffffffff163373ffffffffffffffffffffffffffffffffffffffff167f510b11bb3f3c799b11307c01ab7db0d335683ef5b2da98f7697de744f465eacc6001546040518082815260200191505060405180910390a350565b6060600080600360008573ffffffffffffffffffffffffffffffffffffffff1673ffffffffffffffffffffffffffffffffffffffff168152602001908152602001600020905060008160000154111515610665576040517f08c379a00000000000000000000000000000000000000000000000000000000081526004018080602001828103825260148152602001807f477561726469616e206e6576657220766f74656400000000000000000000000081525060200191505060405180910390fd5b80600001549150806001018054806020026020016040519081016040528092919081815260200182805480156106f057602002820191906000526020600020905b8160009054906101000a900473ffffffffffffffffffffffffffffffffffffffff1673ffffffffffffffffffffffffffffffffffffffff16815260200190600101908083116106a6575b5050505050925050915091565b60025481565b606060006060610712846105a3565b80935081925050506000815190508060405190808252806020026020018201604052801561074f5781602001602082028038833980820191505090505b50935060008090505b818110156107d057828181518110151561076e57fe5b906020019060200201516c0100000000000000000000000002858281518110151561079557fe5b906020019060200201906bffffffffffffffffffffffff191690816bffffffffffffffffffffffff1916815250508080600101915050610758565b505050915091565b600081519050600254811115151561083b576040517f08c379a000000000000000000000000000000000000000000000000000000000815260040180806020018281038252602a815260200180610b1a602a913960400191505060405180910390fd5b60008090505b818110156108f557600073ffffffffffffffffffffffffffffffffffffffff16838281518110151561086f57fe5b9060200190602002015173ffffffffffffffffffffffffffffffffffffffff16141515156108e8576040517f08c379a0000000000000000000000000000000000000000000000000000000008152600401808060200182810382526025815260200180610af56025913960400191505060405180910390fd5b8080600101915050610841565b506000808154809291906001019190505550604080519081016040528043815260200183815250600360003373ffffffffffffffffffffffffffffffffffffffff1673ffffffffffffffffffffffffffffffffffffffff168152602001908152602001600020600082015181600001556020820151816001019080519060200190610981929190610a27565b509050503373ffffffffffffffffffffffffffffffffffffffff167f94a3724087eae106b6eeb3198e1c6a4c9a6ece40950796a3d1350e110aad4b21836000546040518080602001838152602001828103825284818151815260200191508051906020019060200280838360005b83811015610a0a5780820151818401526020810190506109ef565b50505050905001935050505060405180910390a25050565b600181565b828054828255906000526020600020908101928215610aa0579160200282015b82811115610a9f5782518260006101000a81548173ffffffffffffffffffffffffffffffffffffffff021916908373ffffffffffffffffffffffffffffffffffffffff16021790555091602001919060010190610a47565b5b509050610aad9190610ab1565b5090565b610af191905b80821115610aed57600081816101000a81549073ffffffffffffffffffffffffffffffffffffffff021916905550600101610ab7565b5090565b9056fe416c6c2076616c696461746f7220616464726573736573206d757374206265206e6f6e203056616c696461746f7273206c697374206973206f7665722074686520616c6c6f776564206c656e677468a165627a7a72305820d4a17adcd08a316a5146bb8b5864adda9b4548f5da0c0afbccba4e656fb5a5890029",
  "compiler": {
    "name": "solc",
    "version": "0.5.3+commit.10d17f24.Emscripten.clang"
  },
  "schemaVersion": "3.0.2",
  "updatedAt": "2019-03-21T09:52:23.767Z",
  "devdoc": {
    "methods": {}
  },
  "userdoc": {
    "methods": {}
  }
}