{
  "contractName": "OrbsVoting",
  "abi": [
    {
      "constant": true,
      "inputs": [],
      "name": "maxVoteOutNodes",
      "outputs": [
        {
          "name": "",
          "type": "uint256"
        }
      ],
      "payable": false,
      "stateMutability": "view",
      "type": "function"
    },
    {
      "constant": true,
      "inputs": [],
      "name": "VERSION",
      "outputs": [
        {
          "name": "",
          "type": "uint256"
        }
      ],
      "payable": false,
      "stateMutability": "view",
      "type": "function"
    },
    {
      "inputs": [
        {
          "name": "maxVoteOutNodes_",
          "type": "uint256"
        }
      ],
      "payable": false,
      "stateMutability": "nonpayable",
      "type": "constructor"
    },
    {
      "anonymous": false,
      "inputs": [
        {
          "indexed": true,
          "name": "voter",
          "type": "address"
        },
        {
          "indexed": false,
          "name": "nodes",
          "type": "bytes20[]"
        },
        {
          "indexed": false,
          "name": "voteCounter",
          "type": "uint256"
        }
      ],
      "name": "VoteOut",
      "type": "event"
    },
    {
      "anonymous": false,
      "inputs": [
        {
          "indexed": true,
          "name": "delegator",
          "type": "address"
        },
        {
          "indexed": true,
          "name": "to",
          "type": "address"
        },
        {
          "indexed": false,
          "name": "delegationCounter",
          "type": "uint256"
        }
      ],
      "name": "Delegate",
      "type": "event"
    },
    {
      "constant": false,
      "inputs": [
        {
          "name": "nodes",
          "type": "address[]"
        }
      ],
      "name": "voteOut",
      "outputs": [],
      "payable": false,
      "stateMutability": "nonpayable",
      "type": "function"
    },
    {
      "constant": false,
      "inputs": [
        {
          "name": "to",
          "type": "address"
        }
      ],
      "name": "delegate",
      "outputs": [],
      "payable": false,
      "stateMutability": "nonpayable",
      "type": "function"
    },
    {
      "constant": true,
      "inputs": [
        {
          "name": "guardian",
          "type": "address"
        }
      ],
      "name": "getLastVote",
      "outputs": [
        {
          "name": "nodes",
          "type": "address[]"
        },
        {
          "name": "blockHeight",
          "type": "uint256"
        }
      ],
      "payable": false,
      "stateMutability": "view",
      "type": "function"
    }
  ],
  "bytecode": "0x608060405234801561001057600080fd5b5060405160208061090a8339810180604052602081101561003057600080fd5b810190808051906020019092919050505060008081905550600060018190555080600281905550506108a3806100676000396000f3fe608060405234801561001057600080fd5b5060043610610074576000357c0100000000000000000000000000000000000000000000000000000000900480635c19a95c14610079578063909af89a146100bd578063aef66981146100db578063f82220201461017b578063ffa1ad7414610233575b600080fd5b6100bb6004803603602081101561008f57600080fd5b81019080803573ffffffffffffffffffffffffffffffffffffffff169060200190929190505050610251565b005b6100c56102cd565b6040518082815260200191505060405180910390f35b61011d600480360360208110156100f157600080fd5b81019080803573ffffffffffffffffffffffffffffffffffffffff1690602001909291905050506102d3565b6040518080602001838152602001828103825284818151815260200191508051906020019060200280838360005b8381101561016657808201518184015260208101905061014b565b50505050905001935050505060405180910390f35b6102316004803603602081101561019157600080fd5b81019080803590602001906401000000008111156101ae57600080fd5b8201836020820111156101c057600080fd5b803590602001918460208302840111640100000000831117156101e257600080fd5b919080806020026020016040519081016040528093929190818152602001838360200280828437600081840152601f19601f820116905080830192505050505050509192919290505050610455565b005b61023b610780565b6040518082815260200191505060405180910390f35b6001600081548092919060010191905055508073ffffffffffffffffffffffffffffffffffffffff163373ffffffffffffffffffffffffffffffffffffffff167f510b11bb3f3c799b11307c01ab7db0d335683ef5b2da98f7697de744f465eacc6001546040518082815260200191505060405180910390a350565b60025481565b6060600080600360008573ffffffffffffffffffffffffffffffffffffffff1673ffffffffffffffffffffffffffffffffffffffff168152602001908152602001600020905060008180549050111515610395576040517f08c379a00000000000000000000000000000000000000000000000000000000081526004018080602001828103825260148152602001807f477561726469616e206e6576657220766f74656400000000000000000000000081525060200191505060405180910390fd5b60008160018380549050038154811015156103ac57fe5b90600052602060002090600202019050806000015492508060010180548060200260200160405190810160405280929190818152602001828054801561044757602002820191906000526020600020905b8160009054906101000a900473ffffffffffffffffffffffffffffffffffffffff1673ffffffffffffffffffffffffffffffffffffffff16815260200190600101908083116103fd575b505050505093505050915091565b6002548151111515156104b3576040517f08c379a00000000000000000000000000000000000000000000000000000000081526004018080602001828103825260258152602001806108536025913960400191505060405180910390fd5b6000815190506060816040519080825280602002602001820160405280156104ea5781602001602082028038833980820191505090505b50905060008090505b8281101561062757600073ffffffffffffffffffffffffffffffffffffffff16848281518110151561052157fe5b9060200190602002015173ffffffffffffffffffffffffffffffffffffffff16141515156105b7576040517f08c379a00000000000000000000000000000000000000000000000000000000081526004018080602001828103825260178152602001807f416c6c206e6f646573206d757374206265206e6f6e203000000000000000000081525060200191505060405180910390fd5b83818151811015156105c557fe5b906020019060200201516c010000000000000000000000000282828151811015156105ec57fe5b906020019060200201906bffffffffffffffffffffffff191690816bffffffffffffffffffffffff19168152505080806001019150506104f3565b506000808154809291906001019190505550600360003373ffffffffffffffffffffffffffffffffffffffff1673ffffffffffffffffffffffffffffffffffffffff168152602001908152602001600020604080519081016040528043815260200185815250908060018154018082558091505090600182039060005260206000209060020201600090919290919091506000820151816000015560208201518160010190805190602001906106de929190610785565b505050503373ffffffffffffffffffffffffffffffffffffffff167f4ad31339859fef06e0234f56bc4459d2a60b273671a6b4b31d79ab024cc1997b826000546040518080602001838152602001828103825284818151815260200191508051906020019060200280838360005b8381101561076757808201518184015260208101905061074c565b50505050905001935050505060405180910390a2505050565b600181565b8280548282559060005260206000209081019282156107fe579160200282015b828111156107fd5782518260006101000a81548173ffffffffffffffffffffffffffffffffffffffff021916908373ffffffffffffffffffffffffffffffffffffffff160217905550916020019190600101906107a5565b5b50905061080b919061080f565b5090565b61084f91905b8082111561084b57600081816101000a81549073ffffffffffffffffffffffffffffffffffffffff021916905550600101610815565b5090565b9056fe4e6f646573206c697374206973206f7665722074686520616c6c6f776564206c656e677468a165627a7a72305820884b3832530056428cfd642136085560f9d7a9f01cd241ffa735c704e079970b0029",
  "source": "pragma solidity 0.5.3;\n\n\nimport \"./IOrbsVoting.sol\";\n\n\ncontract OrbsVoting is IOrbsVoting {\n    struct VotingRecord {\n        uint blockHeight;\n        address[] nodes;\n    }\n\n    // The version of the current federation smart contract.\n    uint public constant VERSION = 1;\n\n    uint voteCounter;\n    uint delegationCounter;\n    uint public maxVoteOutNodes;\n\n    mapping(address => VotingRecord[]) votingRecords;\n\n\n    constructor(uint maxVoteOutNodes_) public {\n        voteCounter = 0;\n        delegationCounter = 0;\n    maxVoteOutNodes = maxVoteOutNodes_;\n    }\n\n    function voteOut(address[] memory nodes) public {\n        require(nodes.length <= maxVoteOutNodes, \"Nodes list is over the allowed length\");\n\n        uint nodesLength = nodes.length;\n        bytes20[] memory addressesAsBytes20 = new bytes20[](nodesLength);\n        for (uint i=0; i < nodesLength; i++) {\n            require(nodes[i] != address(0), \"All nodes must be non 0\");\n            addressesAsBytes20[i] = bytes20(nodes[i]);\n        }\n\n        voteCounter++;\n\n        votingRecords[msg.sender].push(VotingRecord(block.number, nodes));\n\n        emit VoteOut(msg.sender, addressesAsBytes20, voteCounter);\n    }\n\n    function delegate(address to) public {\n        delegationCounter++;\n        emit Delegate(msg.sender, to, delegationCounter);\n    }\n\n    function getLastVote(address guardian)\n        public\n        view\n        returns (address[] memory nodes, uint blockHeight)\n    {\n        VotingRecord[] storage votings = votingRecords[guardian];\n\n        require(votings.length > 0, \"Guardian never voted\");\n\n        VotingRecord storage lastVote = votings[votings.length - 1];\n\n        blockHeight = lastVote.blockHeight;\n        nodes = lastVote.nodes;\n    }\n}",
  "sourcePath": "/Users/ron/work/src/github.com/orbs-network/orbs-ethereum-contracts/voting/ethereum/contracts/OrbsVoting.sol",
  "compiler": {
    "name": "solc",
    "version": "0.5.3+commit.10d17f24.Emscripten.clang"
  },
  "schemaVersion": "3.0.2",
  "updatedAt": "2019-03-10T23:32:34.201Z",
  "devdoc": {
    "methods": {}
  },
  "userdoc": {
    "methods": {}
  }
}