{
  "contractName": "OrbsGuardians",
  "abi": [
    {
      "constant": true,
      "inputs": [
        {
          "name": "",
          "type": "address"
        }
      ],
      "name": "guardiansData",
      "outputs": [
        {
          "name": "name",
          "type": "string"
        },
        {
          "name": "website",
          "type": "string"
        },
        {
          "name": "index",
          "type": "uint256"
        }
      ],
      "payable": false,
      "stateMutability": "view",
      "type": "function"
    },
    {
      "constant": true,
      "inputs": [
        {
          "name": "",
          "type": "uint256"
        }
      ],
      "name": "guardians",
      "outputs": [
        {
          "name": "",
          "type": "address"
        }
      ],
      "payable": false,
      "stateMutability": "view",
      "type": "function"
    },
    {
      "constant": true,
      "inputs": [],
      "name": "VERSION",
      "outputs": [
        {
          "name": "",
          "type": "uint256"
        }
      ],
      "payable": false,
      "stateMutability": "view",
      "type": "function"
    },
    {
      "anonymous": false,
      "inputs": [
        {
          "indexed": true,
          "name": "validator",
          "type": "address"
        }
      ],
      "name": "GuardianAdded",
      "type": "event"
    },
    {
      "anonymous": false,
      "inputs": [
        {
          "indexed": true,
          "name": "validator",
          "type": "address"
        }
      ],
      "name": "GuardianLeft",
      "type": "event"
    },
    {
      "anonymous": false,
      "inputs": [
        {
          "indexed": true,
          "name": "validator",
          "type": "address"
        }
      ],
      "name": "GuardianModified",
      "type": "event"
    },
    {
      "constant": true,
      "inputs": [
        {
          "name": "_guardian",
          "type": "address"
        }
      ],
      "name": "isGuardian",
      "outputs": [
        {
          "name": "",
          "type": "bool"
        }
      ],
      "payable": false,
      "stateMutability": "view",
      "type": "function"
    },
    {
      "constant": true,
      "inputs": [
        {
          "name": "offset",
          "type": "uint256"
        },
        {
          "name": "limit",
          "type": "uint256"
        }
      ],
      "name": "getGuardians",
      "outputs": [
        {
          "name": "",
          "type": "address[]"
        }
      ],
      "payable": false,
      "stateMutability": "view",
      "type": "function"
    },
    {
      "constant": false,
      "inputs": [],
      "name": "leave",
      "outputs": [],
      "payable": false,
      "stateMutability": "nonpayable",
      "type": "function"
    },
    {
      "constant": false,
      "inputs": [
        {
          "name": "_name",
          "type": "string"
        },
        {
          "name": "_website",
          "type": "string"
        }
      ],
      "name": "register",
      "outputs": [],
      "payable": false,
      "stateMutability": "nonpayable",
      "type": "function"
    },
    {
      "constant": true,
      "inputs": [
        {
          "name": "_guardian",
          "type": "address"
        }
      ],
      "name": "getGuardianData",
      "outputs": [
        {
          "name": "name",
          "type": "string"
        },
        {
          "name": "website",
          "type": "string"
        }
      ],
      "payable": false,
      "stateMutability": "view",
      "type": "function"
    }
  ],
  "bytecode": "0x608060405234801561001057600080fd5b5061145c806100206000396000f3fe608060405234801561001057600080fd5b50600436106100a5576000357c010000000000000000000000000000000000000000000000000000000090048063d66d9e1911610078578063d66d9e19146104b1578063d93d7d29146104bb578063f560c73414610548578063ffa1ad74146105b6576100a5565b80630c68ba21146100aa5780633ffbd47f146101065780634b139a4714610258578063d46bdcad14610381575b600080fd5b6100ec600480360360208110156100c057600080fd5b81019080803573ffffffffffffffffffffffffffffffffffffffff1690602001909291905050506105d4565b604051808215151515815260200191505060405180910390f35b6102566004803603604081101561011c57600080fd5b810190808035906020019064010000000081111561013957600080fd5b82018360208201111561014b57600080fd5b8035906020019184600183028401116401000000008311171561016d57600080fd5b91908080601f016020809104026020016040519081016040528093929190818152602001838380828437600081840152601f19601f820116905080830192505050505050509192919290803590602001906401000000008111156101d057600080fd5b8201836020820111156101e257600080fd5b8035906020019184600183028401116401000000008311171561020457600080fd5b91908080601f016020809104026020016040519081016040528093929190818152602001838380828437600081840152601f19601f820116905080830192505050505050509192919290505050610636565b005b61029a6004803603602081101561026e57600080fd5b81019080803573ffffffffffffffffffffffffffffffffffffffff1690602001909291905050506109be565b604051808060200180602001838103835285818151815260200191508051906020019080838360005b838110156102de5780820151818401526020810190506102c3565b50505050905090810190601f16801561030b5780820380516001836020036101000a031916815260200191505b50838103825284818151815260200191508051906020019080838360005b83811015610344578082015181840152602081019050610329565b50505050905090810190601f1680156103715780820380516001836020036101000a031916815260200191505b5094505050505060405180910390f35b6103c36004803603602081101561039757600080fd5b81019080803573ffffffffffffffffffffffffffffffffffffffff169060200190929190505050610c03565b604051808060200180602001848152602001838103835286818151815260200191508051906020019080838360005b8381101561040d5780820151818401526020810190506103f2565b50505050905090810190601f16801561043a5780820380516001836020036101000a031916815260200191505b50838103825285818151815260200191508051906020019080838360005b83811015610473578082015181840152602081019050610458565b50505050905090810190601f1680156104a05780820380516001836020036101000a031916815260200191505b509550505050505060405180910390f35b6104b9610d5d565b005b6104f1600480360360408110156104d157600080fd5b81019080803590602001909291908035906020019092919050505061106f565b6040518080602001828103825283818151815260200191508051906020019060200280838360005b83811015610534578082015181840152602081019050610519565b505050509050019250505060405180910390f35b6105746004803603602081101561055e57600080fd5b8101908080359060200190929190505050611291565b604051808273ffffffffffffffffffffffffffffffffffffffff1673ffffffffffffffffffffffffffffffffffffffff16815260200191505060405180910390f35b6105be6112cf565b6040518082815260200191505060405180910390f35b600080600160008473ffffffffffffffffffffffffffffffffffffffff1673ffffffffffffffffffffffffffffffffffffffff168152602001908152602001600020600001805460018160011615610100020316600290049050119050919050565b600082511115156106af576040517f08c379a000000000000000000000000000000000000000000000000000000000815260040180806020018281038252601b8152602001807f506c656173652070726f7669646520612076616c6964206e616d65000000000081525060200191505060405180910390fd5b60008151111515610728576040517f08c379a000000000000000000000000000000000000000000000000000000000815260040180806020018281038252601e8152602001807f506c656173652070726f7669646520612076616c69642077656273697465000081525060200191505060405180910390fd5b6000610733336105d4565b159050801561089157606060405190810160405280848152602001838152602001600080549050815250600160003373ffffffffffffffffffffffffffffffffffffffff1673ffffffffffffffffffffffffffffffffffffffff16815260200190815260200160002060008201518160000190805190602001906107b8929190611317565b5060208201518160010190805190602001906107d5929190611317565b506040820151816002015590505060003390806001815401808255809150509060018203906000526020600020016000909192909190916101000a81548173ffffffffffffffffffffffffffffffffffffffff021916908373ffffffffffffffffffffffffffffffffffffffff160217905550503373ffffffffffffffffffffffffffffffffffffffff167f038596bb31e2e7d3d9f184d4c98b310103f6d7f5830e5eec32bffe6f1728f96960405160405180910390a26109b9565b606060405190810160405280848152602001838152602001600160003373ffffffffffffffffffffffffffffffffffffffff1673ffffffffffffffffffffffffffffffffffffffff16815260200190815260200160002060020154815250600160003373ffffffffffffffffffffffffffffffffffffffff1673ffffffffffffffffffffffffffffffffffffffff168152602001908152602001600020600082015181600001908051906020019061094a929190611317565b506020820151816001019080519060200190610967929190611317565b50604082015181600201559050503373ffffffffffffffffffffffffffffffffffffffff167f3f895d1a1eaa616d02b3e05c89e0e6aa0aa8d158dac2729420487f26bd9883fb60405160405180910390a25b505050565b6060806109ca836105d4565b1515610a3e576040517f08c379a00000000000000000000000000000000000000000000000000000000081526004018080602001828103825260208152602001807f506c656173652070726f766964652061206c697374656420477561726469616e81525060200191505060405180910390fd5b600160008473ffffffffffffffffffffffffffffffffffffffff1673ffffffffffffffffffffffffffffffffffffffff168152602001908152602001600020600001600160008573ffffffffffffffffffffffffffffffffffffffff1673ffffffffffffffffffffffffffffffffffffffff168152602001908152602001600020600101818054600181600116156101000203166002900480601f016020809104026020016040519081016040528092919081815260200182805460018160011615610100020316600290048015610b575780601f10610b2c57610100808354040283529160200191610b57565b820191906000526020600020905b815481529060010190602001808311610b3a57829003601f168201915b50505050509150808054600181600116156101000203166002900480601f016020809104026020016040519081016040528092919081815260200182805460018160011615610100020316600290048015610bf35780601f10610bc857610100808354040283529160200191610bf3565b820191906000526020600020905b815481529060010190602001808311610bd657829003601f168201915b5050505050905091509150915091565b6001602052806000526040600020600091509050806000018054600181600116156101000203166002900480601f016020809104026020016040519081016040528092919081815260200182805460018160011615610100020316600290048015610caf5780601f10610c8457610100808354040283529160200191610caf565b820191906000526020600020905b815481529060010190602001808311610c9257829003601f168201915b505050505090806001018054600181600116156101000203166002900480601f016020809104026020016040519081016040528092919081815260200182805460018160011615610100020316600290048015610d4d5780601f10610d2257610100808354040283529160200191610d4d565b820191906000526020600020905b815481529060010190602001808311610d3057829003601f168201915b5050505050908060020154905083565b610d66336105d4565b1515610dda576040517f08c379a00000000000000000000000000000000000000000000000000000000081526004018080602001828103825260188152602001807f53656e646572206973206e6f74206120477561726469616e000000000000000081525060200191505060405180910390fd5b6000600160003373ffffffffffffffffffffffffffffffffffffffff1673ffffffffffffffffffffffffffffffffffffffff1681526020019081526020016000206002015490503373ffffffffffffffffffffffffffffffffffffffff16600082815481101515610e4757fe5b9060005260206000200160009054906101000a900473ffffffffffffffffffffffffffffffffffffffff1673ffffffffffffffffffffffffffffffffffffffff16141515610e9157fe5b6000600160008054905003815481101515610ea857fe5b9060005260206000200160009054906101000a900473ffffffffffffffffffffffffffffffffffffffff16600082815481101515610ee257fe5b9060005260206000200160006101000a81548173ffffffffffffffffffffffffffffffffffffffff021916908373ffffffffffffffffffffffffffffffffffffffff16021790555080600160008084815481101515610f3d57fe5b9060005260206000200160009054906101000a900473ffffffffffffffffffffffffffffffffffffffff1673ffffffffffffffffffffffffffffffffffffffff1673ffffffffffffffffffffffffffffffffffffffff16815260200190815260200160002060020181905550600160003373ffffffffffffffffffffffffffffffffffffffff1673ffffffffffffffffffffffffffffffffffffffff16815260200190815260200160002060008082016000610ff99190611397565b6001820160006110099190611397565b60028201600090555050600080548091906001900361102891906113df565b503373ffffffffffffffffffffffffffffffffffffffff167f30e7885e5f0fc1d648230d0e9245d45333c7158885df954f0a2f0fb442be0f6560405160405180910390a250565b6060600080549050831015156110ed576040517f08c379a000000000000000000000000000000000000000000000000000000000815260040180806020018281038252600f8152602001807f4f666673657420746f6f2068696768000000000000000000000000000000000081525060200191505060405180910390fd5b60648211151515611166576040517f08c379a000000000000000000000000000000000000000000000000000000000815260040180806020018281038252601c8152602001807f506167652073697a65206d6179206e6f7420657863656564203130300000000081525060200191505060405180910390fd5b60008054905061117f83856112d490919063ffffffff16565b11156111a05761119d836000805490506112f590919063ffffffff16565b91505b6060826040519080825280602002602001820160405280156111d15781602001602082028038833980820191505090505b50905060008090505b81518110156112865760006111f882876112d490919063ffffffff16565b81548110151561120457fe5b9060005260206000200160009054906101000a900473ffffffffffffffffffffffffffffffffffffffff16828281518110151561123d57fe5b9060200190602002019073ffffffffffffffffffffffffffffffffffffffff16908173ffffffffffffffffffffffffffffffffffffffff168152505080806001019150506111da565b508091505092915050565b6000818154811015156112a057fe5b906000526020600020016000915054906101000a900473ffffffffffffffffffffffffffffffffffffffff1681565b600181565b60008082840190508381101515156112eb57600080fd5b8091505092915050565b600082821115151561130657600080fd5b600082840390508091505092915050565b828054600181600116156101000203166002900490600052602060002090601f016020900481019282601f1061135857805160ff1916838001178555611386565b82800160010185558215611386579182015b8281111561138557825182559160200191906001019061136a565b5b509050611393919061140b565b5090565b50805460018160011615610100020316600290046000825580601f106113bd57506113dc565b601f0160209004906000526020600020908101906113db919061140b565b5b50565b81548183558181111561140657818360005260206000209182019101611405919061140b565b5b505050565b61142d91905b80821115611429576000816000905550600101611411565b5090565b9056fea165627a7a7230582002c62c1d261973d5eb732bdfcbfda71c647d2620d41dbbe44cdbe7e7438a573d0029",
  "source": "pragma solidity 0.5.3;\n\nimport \"openzeppelin-solidity/contracts/math/SafeMath.sol\";\n\ninterface IOrbsGuardians {\n    function register(string calldata _name, string calldata _website) external;\n    function getGuardianData(address _validator) external view returns (string memory name, string memory website);\n    function isGuardian(address _guardian) external view returns (bool);\n    function getGuardians(uint offset, uint limit) external view returns (address[] memory);\n    function leave() external;\n}\n\ncontract OrbsGuardians is IOrbsGuardians {\n    using SafeMath for uint256;\n\n    struct GuardianData {\n        string name;\n        string website;\n        uint index;\n    }\n\n    // The version of the current federation smart contract.\n    uint public constant VERSION = 1;\n\n    event GuardianAdded(address indexed validator);\n    event GuardianLeft(address indexed validator);\n    event GuardianModified(address indexed validator);\n\n    address[] public guardians;\n    mapping (address => GuardianData) public guardiansData;\n\n    function isGuardian(address _guardian) public view returns (bool) {\n        return bytes(guardiansData[_guardian].name).length > 0;\n    }\n\n    function getGuardians(uint offset, uint limit) public view returns (address[] memory) {\n        require(offset < guardians.length, \"Offset too high\");\n        require(limit <= 100, \"Page size may not exceed 100\");\n\n        if (offset.add(limit) > guardians.length) { // clip page to array size\n            limit = guardians.length.sub(offset);\n        }\n\n        address[] memory result = new address[](limit);\n\n        for (uint i = 0; i < result.length; i++) {\n            result[i] = guardians[offset.add(i)];\n        }\n\n        return result;\n    }\n\n    function leave() public {\n        require(isGuardian(msg.sender), \"Sender is not a Guardian\");\n\n        uint i = guardiansData[msg.sender].index;\n\n        assert(guardians[i] == msg.sender); // if this is not the case we are in limbo\n\n        guardians[i] = guardians[guardians.length - 1]; // move the last element to the evacuating index\n        guardiansData[guardians[i]].index = i; // and adjust it's lookup index\n\n        delete guardiansData[msg.sender];\n        guardians.length--;\n\n        emit GuardianLeft(msg.sender);\n        return;\n\n    }\n\n    function register(string memory _name, string memory _website) public {\n        require(bytes(_name).length > 0, \"Please provide a valid name\");\n        require(bytes(_website).length > 0, \"Please provide a valid website\");\n\n        bool adding = !isGuardian(msg.sender);\n\n        if (adding) {\n            guardiansData[msg.sender] = GuardianData(_name, _website, guardians.length);\n            guardians.push(msg.sender);\n            emit GuardianAdded(msg.sender);\n        } else {\n            guardiansData[msg.sender] = GuardianData(_name, _website, guardiansData[msg.sender].index);\n            emit GuardianModified(msg.sender);\n        }\n    }\n\n    function getGuardianData(address _guardian) public view returns (string memory name, string memory website) {\n        require(isGuardian(_guardian), \"Please provide a listed Guardian\");\n        return (guardiansData[_guardian].name, guardiansData[_guardian].website);\n    }\n}\n",
  "sourcePath": "/Users/ron/work/src/github.com/orbs-network/orbs-ethereum-contracts/voting/ethereum/contracts/OrbsGuardians.sol",
  "compiler": {
    "name": "solc",
    "version": "0.5.3+commit.10d17f24.Emscripten.clang"
  },
  "schemaVersion": "3.0.1",
  "updatedAt": "2019-03-05T08:45:52.871Z",
  "devdoc": {
    "methods": {}
  },
  "userdoc": {
    "methods": {}
  }
}