{
  "contractName": "OrbsVoting",
  "abi": [
    {
      "constant": true,
      "inputs": [],
      "name": "maxVoteOutCount",
      "outputs": [
        {
          "name": "",
          "type": "uint256"
        }
      ],
      "payable": false,
      "stateMutability": "view",
      "type": "function"
    },
    {
      "constant": true,
      "inputs": [],
      "name": "VERSION",
      "outputs": [
        {
          "name": "",
          "type": "uint256"
        }
      ],
      "payable": false,
      "stateMutability": "view",
      "type": "function"
    },
    {
      "inputs": [
        {
          "name": "maxVoteOutCount_",
          "type": "uint256"
        }
      ],
      "payable": false,
      "stateMutability": "nonpayable",
      "type": "constructor"
    },
    {
      "anonymous": false,
      "inputs": [
        {
          "indexed": true,
          "name": "voter",
          "type": "address"
        },
        {
          "indexed": false,
          "name": "validators",
          "type": "address[]"
        },
        {
          "indexed": false,
          "name": "voteCounter",
          "type": "uint256"
        }
      ],
      "name": "VoteOut",
      "type": "event"
    },
    {
      "anonymous": false,
      "inputs": [
        {
          "indexed": true,
          "name": "delegator",
          "type": "address"
        },
        {
          "indexed": true,
          "name": "to",
          "type": "address"
        },
        {
          "indexed": false,
          "name": "delegationCounter",
          "type": "uint256"
        }
      ],
      "name": "Delegate",
      "type": "event"
    },
    {
      "anonymous": false,
      "inputs": [
        {
          "indexed": true,
          "name": "delegator",
          "type": "address"
        },
        {
          "indexed": false,
          "name": "delegationCounter",
          "type": "uint256"
        }
      ],
      "name": "Undelegate",
      "type": "event"
    },
    {
      "constant": false,
      "inputs": [
        {
          "name": "validators",
          "type": "address[]"
        }
      ],
      "name": "voteOut",
      "outputs": [],
      "payable": false,
      "stateMutability": "nonpayable",
      "type": "function"
    },
    {
      "constant": false,
      "inputs": [
        {
          "name": "to",
          "type": "address"
        }
      ],
      "name": "delegate",
      "outputs": [],
      "payable": false,
      "stateMutability": "nonpayable",
      "type": "function"
    },
    {
      "constant": false,
      "inputs": [],
      "name": "undelegate",
      "outputs": [],
      "payable": false,
      "stateMutability": "nonpayable",
      "type": "function"
    },
    {
      "constant": true,
      "inputs": [
        {
          "name": "guardian",
          "type": "address"
        }
      ],
      "name": "getCurrentVoteBytes20",
      "outputs": [
        {
          "name": "validatorsBytes20",
          "type": "bytes20[]"
        },
        {
          "name": "blockNumber",
          "type": "uint256"
        }
      ],
      "payable": false,
      "stateMutability": "view",
      "type": "function"
    },
    {
      "constant": true,
      "inputs": [
        {
          "name": "delegator",
          "type": "address"
        }
      ],
      "name": "getCurrentDelegation",
      "outputs": [
        {
          "name": "",
          "type": "address"
        }
      ],
      "payable": false,
      "stateMutability": "view",
      "type": "function"
    },
    {
      "constant": true,
      "inputs": [
        {
          "name": "guardian",
          "type": "address"
        }
      ],
      "name": "getCurrentVote",
      "outputs": [
        {
          "name": "validators",
          "type": "address[]"
        },
        {
          "name": "blockNumber",
          "type": "uint256"
        }
      ],
      "payable": false,
      "stateMutability": "view",
      "type": "function"
    }
  ],
  "bytecode": "0x608060405234801561001057600080fd5b50604051602080610ed4833981018060405281019080805190602001909291905050506000811115156100d1576040517f08c379a00000000000000000000000000000000000000000000000000000000081526004018080602001828103825260218152602001807f6d6178566f74654f7574436f756e745f206d75737420626520706f736974697681526020017f650000000000000000000000000000000000000000000000000000000000000081525060400191505060405180910390fd5b8060028190555050610dec806100e86000396000f30060806040526004361061008e576000357c0100000000000000000000000000000000000000000000000000000000900463ffffffff16806345ba5b8a146100935780635c19a95c1461011657806392ab89bb14610159578063a8b52c2514610170578063dc8966571461020f578063e5d016181461023a578063f8222020146102d9578063ffa1ad7414610314575b600080fd5b34801561009f57600080fd5b506100d4600480360381019080803573ffffffffffffffffffffffffffffffffffffffff16906020019092919050505061033f565b604051808273ffffffffffffffffffffffffffffffffffffffff1673ffffffffffffffffffffffffffffffffffffffff16815260200191505060405180910390f35b34801561012257600080fd5b50610157600480360381019080803573ffffffffffffffffffffffffffffffffffffffff1690602001909291905050506103a8565b005b34801561016557600080fd5b5061016e6105f1565b005b34801561017c57600080fd5b506101b1600480360381019080803573ffffffffffffffffffffffffffffffffffffffff169060200190929190505050610724565b6040518080602001838152602001828103825284818151815260200191508051906020019060200280838360005b838110156101fa5780820151818401526020810190506101df565b50505050905001935050505060405180910390f35b34801561021b57600080fd5b50610224610802565b6040518082815260200191505060405180910390f35b34801561024657600080fd5b5061027b600480360381019080803573ffffffffffffffffffffffffffffffffffffffff169060200190929190505050610808565b6040518080602001838152602001828103825284818151815260200191508051906020019060200280838360005b838110156102c45780820151818401526020810190506102a9565b50505050905001935050505060405180910390f35b3480156102e557600080fd5b506103126004803603810190808035906020019082018035906020019190919293919293905050506108dd565b005b34801561032057600080fd5b50610329610af5565b6040518082815260200191505060405180910390f35b6000600460008373ffffffffffffffffffffffffffffffffffffffff1673ffffffffffffffffffffffffffffffffffffffff16815260200190815260200160002060009054906101000a900473ffffffffffffffffffffffffffffffffffffffff169050919050565b6000339050600073ffffffffffffffffffffffffffffffffffffffff168273ffffffffffffffffffffffffffffffffffffffff1614151515610452576040517f08c379a00000000000000000000000000000000000000000000000000000000081526004018080602001828103825260168152602001807f6d7573742064656c656761746520746f206e6f6e20300000000000000000000081525060200191505060405180910390fd5b8173ffffffffffffffffffffffffffffffffffffffff168173ffffffffffffffffffffffffffffffffffffffff16141515156104f6576040517f08c379a00000000000000000000000000000000000000000000000000000000081526004018080602001828103825260198152602001807f63616e742064656c656761746520746f20796f757273656c660000000000000081525060200191505060405180910390fd5b60016000815480929190600101919050555081600460008373ffffffffffffffffffffffffffffffffffffffff1673ffffffffffffffffffffffffffffffffffffffff16815260200190815260200160002060006101000a81548173ffffffffffffffffffffffffffffffffffffffff021916908373ffffffffffffffffffffffffffffffffffffffff1602179055508173ffffffffffffffffffffffffffffffffffffffff168173ffffffffffffffffffffffffffffffffffffffff167f510b11bb3f3c799b11307c01ab7db0d335683ef5b2da98f7697de744f465eacc6001546040518082815260200191505060405180910390a35050565b6000339050600160008154809291906001019190505550600460008273ffffffffffffffffffffffffffffffffffffffff1673ffffffffffffffffffffffffffffffffffffffff16815260200190815260200160002060006101000a81549073ffffffffffffffffffffffffffffffffffffffff02191690558073ffffffffffffffffffffffffffffffffffffffff168173ffffffffffffffffffffffffffffffffffffffff167f510b11bb3f3c799b11307c01ab7db0d335683ef5b2da98f7697de744f465eacc6001546040518082815260200191505060405180910390a38073ffffffffffffffffffffffffffffffffffffffff167f17659a1d1f57d2e58b7063ee8b518b50d00bf3e5c0d8224b68ba865e4725a0b46001546040518082815260200191505060405180910390a250565b6060600080600360008573ffffffffffffffffffffffffffffffffffffffff1673ffffffffffffffffffffffffffffffffffffffff168152602001908152602001600020905080600001549150806001018054806020026020016040519081016040528092919081815260200182805480156107f557602002820191906000526020600020905b8160009054906101000a900473ffffffffffffffffffffffffffffffffffffffff1673ffffffffffffffffffffffffffffffffffffffff16815260200190600101908083116107ab575b5050505050925050915091565b60025481565b60606000606060008061081a86610724565b809550819450505082519150816040519080825280602002602001820160405280156108555781602001602082028038833980820191505090505b509450600090505b818110156108d557828181518110151561087357fe5b906020019060200201516c0100000000000000000000000002858281518110151561089a57fe5b906020019060200201906bffffffffffffffffffffffff191690816bffffffffffffffffffffffff191681525050808060010191505061085d565b505050915091565b60003390506002548383905011151515610985576040517f08c379a000000000000000000000000000000000000000000000000000000000815260040180806020018281038252602a8152602001807f56616c696461746f7273206c697374206973206f7665722074686520616c6c6f81526020017f776564206c656e6774680000000000000000000000000000000000000000000081525060400191505060405180910390fd5b6109bd838380806020026020016040519081016040528093929190818152602001838360200280828437820191505050505050610afa565b60008081548092919060010191905055506040805190810160405280438152602001848480806020026020016040519081016040528093929190818152602001838360200280828437820191505050505050815250600360008373ffffffffffffffffffffffffffffffffffffffff1673ffffffffffffffffffffffffffffffffffffffff168152602001908152602001600020600082015181600001556020820151816001019080519060200190610a77929190610cf3565b509050508073ffffffffffffffffffffffffffffffffffffffff167f94a3724087eae106b6eeb3198e1c6a4c9a6ece40950796a3d1350e110aad4b21848460005460405180806020018381526020018281038252858582818152602001925060200280828437820191505094505050505060405180910390a2505050565b600181565b600080600083519250600091505b82821015610ced57600073ffffffffffffffffffffffffffffffffffffffff168483815181101515610b3657fe5b9060200190602002015173ffffffffffffffffffffffffffffffffffffffff1614151515610bf2576040517f08c379a00000000000000000000000000000000000000000000000000000000081526004018080602001828103825260258152602001807f416c6c2076616c696461746f7220616464726573736573206d7573742062652081526020017f6e6f6e203000000000000000000000000000000000000000000000000000000081525060400191505060405180910390fd5b6001820190505b82811015610ce0578382815181101515610c0f57fe5b9060200190602002015173ffffffffffffffffffffffffffffffffffffffff168482815181101515610c3d57fe5b9060200190602002015173ffffffffffffffffffffffffffffffffffffffff1614151515610cd3576040517f08c379a00000000000000000000000000000000000000000000000000000000081526004018080602001828103825260148152602001807f4475706c69636174652056616c696461746f727300000000000000000000000081525060200191505060405180910390fd5b8080600101915050610bf9565b8180600101925050610b08565b50505050565b828054828255906000526020600020908101928215610d6c579160200282015b82811115610d6b5782518260006101000a81548173ffffffffffffffffffffffffffffffffffffffff021916908373ffffffffffffffffffffffffffffffffffffffff16021790555091602001919060010190610d13565b5b509050610d799190610d7d565b5090565b610dbd91905b80821115610db957600081816101000a81549073ffffffffffffffffffffffffffffffffffffffff021916905550600101610d83565b5090565b905600a165627a7a72305820f43ef49e24421e57c2c25dd834da3b17339bd28f24817b9bd1c700a2a0a0125e0029",
  "compiler": {
    "name": "solc",
    "version": "0.4.25+commit.59dbf8f1.Emscripten.clang"
  },
  "schemaVersion": "3.0.2",
  "updatedAt": "2019-03-24T13:37:09.491Z",
  "devdoc": {
    "methods": {
      "delegate(address)": {
        "details": "Delegation method to select who you would like to delegate your stake to.",
        "params": {
          "to": "address the address, you want to delegate your stake to. If you want to cancel a delegation - delegate to yourself to yourself."
        }
      },
      "getCurrentDelegation(address)": {
        "details": "returns the address to which the delegator has delegated the stake",
        "params": {
          "delegator": "address the address of the delegator"
        }
      },
      "getCurrentVote(address)": {
        "details": "returns vote pair - validators list and the block number the vote was set.",
        "params": {
          "guardian": "address the address of the guardian"
        }
      },
      "getCurrentVoteBytes20(address)": {
        "details": "returns vote pair - validators list and the block number the vote was set.      like getCurrentVote but returns byte20 which is more compatible in some cases."
      },
      "undelegate()": {
        "details": "Delegation method to select who you would like to delegate your stake to."
      },
      "voteOut(address[])": {
        "details": "Voting method to select which validators you want to vote out in this election period.",
        "params": {
          "validators": "address[] an array of validators addresses you want to vote out. In case you want to vote, but not vote out anyone, send an empty array."
        }
      }
    }
  },
  "userdoc": {
    "methods": {}
  }
}