{
  "contractName": "OrbsGuardians",
  "abi": [
    {
      "constant": true,
      "inputs": [],
      "name": "registrationDeposit",
      "outputs": [
        {
          "name": "",
          "type": "uint256"
        }
      ],
      "payable": false,
      "stateMutability": "view",
      "type": "function"
    },
    {
      "constant": true,
      "inputs": [],
      "name": "VERSION",
      "outputs": [
        {
          "name": "",
          "type": "uint256"
        }
      ],
      "payable": false,
      "stateMutability": "view",
      "type": "function"
    },
    {
      "inputs": [
        {
          "name": "registrationDeposit_",
          "type": "uint256"
        }
      ],
      "payable": false,
      "stateMutability": "nonpayable",
      "type": "constructor"
    },
    {
      "anonymous": false,
      "inputs": [
        {
          "indexed": true,
          "name": "guardian",
          "type": "address"
        }
      ],
      "name": "GuardianRegistered",
      "type": "event"
    },
    {
      "anonymous": false,
      "inputs": [
        {
          "indexed": true,
          "name": "guardian",
          "type": "address"
        }
      ],
      "name": "GuardianLeft",
      "type": "event"
    },
    {
      "anonymous": false,
      "inputs": [
        {
          "indexed": true,
          "name": "guardian",
          "type": "address"
        }
      ],
      "name": "GuardianUpdated",
      "type": "event"
    },
    {
      "constant": false,
      "inputs": [
        {
          "name": "name",
          "type": "string"
        },
        {
          "name": "website",
          "type": "string"
        }
      ],
      "name": "register",
      "outputs": [],
      "payable": true,
      "stateMutability": "payable",
      "type": "function"
    },
    {
      "constant": false,
      "inputs": [
        {
          "name": "name",
          "type": "string"
        },
        {
          "name": "website",
          "type": "string"
        }
      ],
      "name": "update",
      "outputs": [],
      "payable": false,
      "stateMutability": "nonpayable",
      "type": "function"
    },
    {
      "constant": false,
      "inputs": [],
      "name": "leave",
      "outputs": [],
      "payable": false,
      "stateMutability": "nonpayable",
      "type": "function"
    },
    {
      "constant": true,
      "inputs": [
        {
          "name": "guardian",
          "type": "address"
        }
      ],
      "name": "isGuardian",
      "outputs": [
        {
          "name": "",
          "type": "bool"
        }
      ],
      "payable": false,
      "stateMutability": "view",
      "type": "function"
    },
    {
      "constant": true,
      "inputs": [
        {
          "name": "offset",
          "type": "uint256"
        },
        {
          "name": "limit",
          "type": "uint256"
        }
      ],
      "name": "getGuardians",
      "outputs": [
        {
          "name": "",
          "type": "address[]"
        }
      ],
      "payable": false,
      "stateMutability": "view",
      "type": "function"
    },
    {
      "constant": true,
      "inputs": [
        {
          "name": "offset",
          "type": "uint256"
        },
        {
          "name": "limit",
          "type": "uint256"
        }
      ],
      "name": "getGuardiansBytes20",
      "outputs": [
        {
          "name": "",
          "type": "bytes20[]"
        }
      ],
      "payable": false,
      "stateMutability": "view",
      "type": "function"
    },
    {
      "constant": true,
      "inputs": [
        {
          "name": "guardian",
          "type": "address"
        }
      ],
      "name": "getGuardianData",
      "outputs": [
        {
          "name": "name",
          "type": "string"
        },
        {
          "name": "website",
          "type": "string"
        }
      ],
      "payable": false,
      "stateMutability": "view",
      "type": "function"
    },
    {
      "constant": true,
      "inputs": [],
      "name": "reviewRegistration",
      "outputs": [
        {
          "name": "name",
          "type": "string"
        },
        {
          "name": "website",
          "type": "string"
        }
      ],
      "payable": false,
      "stateMutability": "view",
      "type": "function"
    },
    {
      "constant": true,
      "inputs": [
        {
          "name": "guardian",
          "type": "address"
        }
      ],
      "name": "getRegistrationBlockNumber",
      "outputs": [
        {
          "name": "registeredOn",
          "type": "uint256"
        },
        {
          "name": "lastUpdatedOn",
          "type": "uint256"
        }
      ],
      "payable": false,
      "stateMutability": "view",
      "type": "function"
    }
  ],
  "bytecode": "0x608060405234801561001057600080fd5b50604051602080611b8d8339810180604052602081101561003057600080fd5b81019080805190602001909291905050508060008190555050611b35806100586000396000f3fe6080604052600436106100b9576000357c01000000000000000000000000000000000000000000000000000000009004806350d8f7861161008157806350d8f78614610474578063d66d9e19146104e0578063d93d7d29146104f7578063f35d2a8f14610591578063f4c84d191461068d578063ffa1ad74146107ec576100b9565b80630c68ba21146100be57806331606828146101275780633ffbd47f146101525780634b139a47146102a45780634cf1f60b146103da575b600080fd5b3480156100ca57600080fd5b5061010d600480360360208110156100e157600080fd5b81019080803573ffffffffffffffffffffffffffffffffffffffff169060200190929190505050610817565b604051808215151515815260200191505060405180910390f35b34801561013357600080fd5b5061013c610865565b6040518082815260200191505060405180910390f35b6102a26004803603604081101561016857600080fd5b810190808035906020019064010000000081111561018557600080fd5b82018360208201111561019757600080fd5b803590602001918460018302840111640100000000831117156101b957600080fd5b91908080601f016020809104026020016040519081016040528093929190818152602001838380828437600081840152601f19601f8201169050808301925050505050505091929192908035906020019064010000000081111561021c57600080fd5b82018360208201111561022e57600080fd5b8035906020019184600183028401116401000000008311171561025057600080fd5b91908080601f016020809104026020016040519081016040528093929190818152602001838380828437600081840152601f19601f82011690508083019250505050505050919291929050505061086b565b005b3480156102b057600080fd5b506102f3600480360360208110156102c757600080fd5b81019080803573ffffffffffffffffffffffffffffffffffffffff169060200190929190505050610c37565b604051808060200180602001838103835285818151815260200191508051906020019080838360005b8381101561033757808201518184015260208101905061031c565b50505050905090810190601f1680156103645780820380516001836020036101000a031916815260200191505b50838103825284818151815260200191508051906020019080838360005b8381101561039d578082015181840152602081019050610382565b50505050905090810190601f1680156103ca5780820380516001836020036101000a031916815260200191505b5094505050505060405180910390f35b3480156103e657600080fd5b5061041d600480360360408110156103fd57600080fd5b810190808035906020019092919080359060200190929190505050610e7c565b6040518080602001828103825283818151815260200191508051906020019060200280838360005b83811015610460578082015181840152602081019050610445565b505050509050019250505060405180910390f35b34801561048057600080fd5b506104c36004803603602081101561049757600080fd5b81019080803573ffffffffffffffffffffffffffffffffffffffff169060200190929190505050610f50565b604051808381526020018281526020019250505060405180910390f35b3480156104ec57600080fd5b506104f5611027565b005b34801561050357600080fd5b5061053a6004803603604081101561051a57600080fd5b810190808035906020019092919080359060200190929190505050611417565b6040518080602001828103825283818151815260200191508051906020019060200280838360005b8381101561057d578082015181840152602081019050610562565b505050509050019250505060405180910390f35b34801561059d57600080fd5b506105a6611591565b604051808060200180602001838103835285818151815260200191508051906020019080838360005b838110156105ea5780820151818401526020810190506105cf565b50505050905090810190601f1680156106175780820380516001836020036101000a031916815260200191505b50838103825284818151815260200191508051906020019080838360005b83811015610650578082015181840152602081019050610635565b50505050905090810190601f16801561067d5780820380516001836020036101000a031916815260200191505b5094505050505060405180910390f35b34801561069957600080fd5b506107ea600480360360408110156106b057600080fd5b81019080803590602001906401000000008111156106cd57600080fd5b8201836020820111156106df57600080fd5b8035906020019184600183028401116401000000008311171561070157600080fd5b91908080601f016020809104026020016040519081016040528093929190818152602001838380828437600081840152601f19601f8201169050808301925050505050505091929192908035906020019064010000000081111561076457600080fd5b82018360208201111561077657600080fd5b8035906020019184600183028401116401000000008311171561079857600080fd5b91908080601f016020809104026020016040519081016040528093929190818152602001838380828437600081840152601f19601f8201169050808301925050505050505091929192905050506115a5565b005b3480156107f857600080fd5b506108016118b9565b6040518082815260200191505060405180910390f35b600080600260008473ffffffffffffffffffffffffffffffffffffffff1673ffffffffffffffffffffffffffffffffffffffff16815260200190815260200160002060030154119050919050565b60005481565b3373ffffffffffffffffffffffffffffffffffffffff163273ffffffffffffffffffffffffffffffffffffffff161415156108f1576040517f08c379a0000000000000000000000000000000000000000000000000000000008152600401808060200182810382526021815260200180611abc6021913960400191505060405180910390fd5b6000825111151561096a576040517f08c379a000000000000000000000000000000000000000000000000000000000815260040180806020018281038252601b8152602001807f506c656173652070726f7669646520612076616c6964206e616d65000000000081525060200191505060405180910390fd5b600081511115156109e3576040517f08c379a000000000000000000000000000000000000000000000000000000000815260040180806020018281038252601e8152602001807f506c656173652070726f7669646520612076616c69642077656273697465000081525060200191505060405180910390fd5b6109ec33610817565b151515610a61576040517f08c379a00000000000000000000000000000000000000000000000000000000081526004018080602001828103825260148152602001807f43616e6e6f74206265206120677561726469616e00000000000000000000000081525060200191505060405180910390fd5b60005434141515610abd576040517f08c379a000000000000000000000000000000000000000000000000000000000815260040180806020018281038252602d815260200180611add602d913960400191505060405180910390fd5b6000600180549050905060013390806001815401808255809150509060018203906000526020600020016000909192909190916101000a81548173ffffffffffffffffffffffffffffffffffffffff021916908373ffffffffffffffffffffffffffffffffffffffff1602179055505060a06040519081016040528084815260200183815260200182815260200143815260200143815250600260003373ffffffffffffffffffffffffffffffffffffffff1673ffffffffffffffffffffffffffffffffffffffff1681526020019081526020016000206000820151816000019080519060200190610bb0929190611901565b506020820151816001019080519060200190610bcd929190611901565b506040820151816002015560608201518160030155608082015181600401559050503373ffffffffffffffffffffffffffffffffffffffff167fc2d72ac93e7fb29c534663a530cd3db012d5c336965e423e0ed5ee7a64ed874560405160405180910390a2505050565b606080610c4383610817565b1515610cb7576040517f08c379a00000000000000000000000000000000000000000000000000000000081526004018080602001828103825260208152602001807f506c656173652070726f766964652061206c697374656420477561726469616e81525060200191505060405180910390fd5b600260008473ffffffffffffffffffffffffffffffffffffffff1673ffffffffffffffffffffffffffffffffffffffff168152602001908152602001600020600001600260008573ffffffffffffffffffffffffffffffffffffffff1673ffffffffffffffffffffffffffffffffffffffff168152602001908152602001600020600101818054600181600116156101000203166002900480601f016020809104026020016040519081016040528092919081815260200182805460018160011615610100020316600290048015610dd05780601f10610da557610100808354040283529160200191610dd0565b820191906000526020600020905b815481529060010190602001808311610db357829003601f168201915b50505050509150808054600181600116156101000203166002900480601f016020809104026020016040519081016040528092919081815260200182805460018160011615610100020316600290048015610e6c5780601f10610e4157610100808354040283529160200191610e6c565b820191906000526020600020905b815481529060010190602001808311610e4f57829003601f168201915b5050505050905091509150915091565b606080610e898484611417565b9050600081519050606081604051908082528060200260200182016040528015610ec25781602001602082028038833980820191505090505b50905060008090505b82811015610f43578381815181101515610ee157fe5b906020019060200201516c01000000000000000000000000028282815181101515610f0857fe5b906020019060200201906bffffffffffffffffffffffff191690816bffffffffffffffffffffffff1916815250508080600101915050610ecb565b5080935050505092915050565b600080610f5c83610817565b1515610fd0576040517f08c379a00000000000000000000000000000000000000000000000000000000081526004018080602001828103825260208152602001807f506c656173652070726f766964652061206c697374656420477561726469616e81525060200191505060405180910390fd5b6000600260008573ffffffffffffffffffffffffffffffffffffffff1673ffffffffffffffffffffffffffffffffffffffff1681526020019081526020016000209050806003015481600401549250925050915091565b3373ffffffffffffffffffffffffffffffffffffffff163273ffffffffffffffffffffffffffffffffffffffff161415156110ad576040517f08c379a0000000000000000000000000000000000000000000000000000000008152600401808060200182810382526021815260200180611abc6021913960400191505060405180910390fd5b6110b633610817565b151561112a576040517f08c379a00000000000000000000000000000000000000000000000000000000081526004018080602001828103825260188152602001807f53656e646572206973206e6f74206120477561726469616e000000000000000081525060200191505060405180910390fd5b6000600260003373ffffffffffffffffffffffffffffffffffffffff1673ffffffffffffffffffffffffffffffffffffffff1681526020019081526020016000206002015490503373ffffffffffffffffffffffffffffffffffffffff1660018281548110151561119757fe5b9060005260206000200160009054906101000a900473ffffffffffffffffffffffffffffffffffffffff1673ffffffffffffffffffffffffffffffffffffffff161415156111e157fe5b6001808080549050038154811015156111f657fe5b9060005260206000200160009054906101000a900473ffffffffffffffffffffffffffffffffffffffff1660018281548110151561123057fe5b9060005260206000200160006101000a81548173ffffffffffffffffffffffffffffffffffffffff021916908373ffffffffffffffffffffffffffffffffffffffff160217905550806002600060018481548110151561128c57fe5b9060005260206000200160009054906101000a900473ffffffffffffffffffffffffffffffffffffffff1673ffffffffffffffffffffffffffffffffffffffff1673ffffffffffffffffffffffffffffffffffffffff16815260200190815260200160002060020181905550600180548091906001900361130d9190611981565b50600260003373ffffffffffffffffffffffffffffffffffffffff1673ffffffffffffffffffffffffffffffffffffffff1681526020019081526020016000206000808201600061135e91906119ad565b60018201600061136e91906119ad565b60028201600090556003820160009055600482016000905550503373ffffffffffffffffffffffffffffffffffffffff166108fc6000549081150290604051600060405180830381858888f193505050501580156113d0573d6000803e3d6000fd5b503373ffffffffffffffffffffffffffffffffffffffff167f30e7885e5f0fc1d648230d0e9245d45333c7158885df954f0a2f0fb442be0f6560405160405180910390a250565b60606001805490508310151561145f5760006040519080825280602002602001820160405280156114575781602001602082028038833980820191505090505b50905061158b565b60018054905061147883856118be90919063ffffffff16565b111561149957611496836001805490506118df90919063ffffffff16565b91505b6060826040519080825280602002602001820160405280156114ca5781602001602082028038833980820191505090505b50905060008151905060008090505b818110156115845760016114f682886118be90919063ffffffff16565b81548110151561150257fe5b9060005260206000200160009054906101000a900473ffffffffffffffffffffffffffffffffffffffff16838281518110151561153b57fe5b9060200190602002019073ffffffffffffffffffffffffffffffffffffffff16908173ffffffffffffffffffffffffffffffffffffffff168152505080806001019150506114d9565b5081925050505b92915050565b60608061159d33610c37565b915091509091565b3373ffffffffffffffffffffffffffffffffffffffff163273ffffffffffffffffffffffffffffffffffffffff1614151561162b576040517f08c379a0000000000000000000000000000000000000000000000000000000008152600401808060200182810382526021815260200180611abc6021913960400191505060405180910390fd5b600082511115156116a4576040517f08c379a000000000000000000000000000000000000000000000000000000000815260040180806020018281038252601b8152602001807f506c656173652070726f7669646520612076616c6964206e616d65000000000081525060200191505060405180910390fd5b6000815111151561171d576040517f08c379a000000000000000000000000000000000000000000000000000000000815260040180806020018281038252601e8152602001807f506c656173652070726f7669646520612076616c69642077656273697465000081525060200191505060405180910390fd5b61172633610817565b151561177d576040517f08c379a0000000000000000000000000000000000000000000000000000000008152600401808060200182810382526021815260200180611a9b6021913960400191505060405180910390fd5b81600260003373ffffffffffffffffffffffffffffffffffffffff1673ffffffffffffffffffffffffffffffffffffffff16815260200190815260200160002060000190805190602001906117d39291906119f5565b5080600260003373ffffffffffffffffffffffffffffffffffffffff1673ffffffffffffffffffffffffffffffffffffffff168152602001908152602001600020600101908051906020019061182a9291906119f5565b5043600260003373ffffffffffffffffffffffffffffffffffffffff1673ffffffffffffffffffffffffffffffffffffffff168152602001908152602001600020600401819055503373ffffffffffffffffffffffffffffffffffffffff167f6bb7ff33e730289800c62ad882105a144a74010d2bdbb9a942544a3005ad55bf60405160405180910390a25050565b600181565b60008082840190508381101515156118d557600080fd5b8091505092915050565b60008282111515156118f057600080fd5b600082840390508091505092915050565b828054600181600116156101000203166002900490600052602060002090601f016020900481019282601f1061194257805160ff1916838001178555611970565b82800160010185558215611970579182015b8281111561196f578251825591602001919060010190611954565b5b50905061197d9190611a75565b5090565b8154818355818111156119a8578183600052602060002091820191016119a79190611a75565b5b505050565b50805460018160011615610100020316600290046000825580601f106119d357506119f2565b601f0160209004906000526020600020908101906119f19190611a75565b5b50565b828054600181600116156101000203166002900490600052602060002090601f016020900481019282601f10611a3657805160ff1916838001178555611a64565b82800160010185558215611a64579182015b82811115611a63578251825591602001919060010190611a48565b5b509050611a719190611a75565b5090565b611a9791905b80821115611a93576000816000905550600101611a7b565b5090565b9056fe596f75206d7573742062652061207265676973746572656420677561726469616e4f6e6c7920454f41206d617920726567697374657220617320477561726469616e506c656173652070726f766964652074686520657861637420726567697374726174696f6e206465706f736974a165627a7a7230582079dab39d0b54a07c206331b98ee20ce7e5e9c6dd05514945c224275800935d000029",
  "compiler": {
    "name": "solc",
    "version": "0.5.3+commit.10d17f24.Emscripten.clang"
  },
  "schemaVersion": "3.0.2",
  "updatedAt": "2019-03-21T16:10:25.697Z",
  "devdoc": {
    "methods": {}
  },
  "userdoc": {
    "methods": {}
  }
}