{
  "contractName": "OrbsVoting",
  "abi": [
    {
      "constant": true,
      "inputs": [],
      "name": "maxVoteOutNodes",
      "outputs": [
        {
          "name": "",
          "type": "uint256"
        }
      ],
      "payable": false,
      "stateMutability": "view",
      "type": "function",
      "signature": "0x909af89a"
    },
    {
      "constant": true,
      "inputs": [],
      "name": "VERSION",
      "outputs": [
        {
          "name": "",
          "type": "uint256"
        }
      ],
      "payable": false,
      "stateMutability": "view",
      "type": "function",
      "signature": "0xffa1ad74"
    },
    {
      "inputs": [
        {
          "name": "maxVoteOutNodes_",
          "type": "uint256"
        }
      ],
      "payable": false,
      "stateMutability": "nonpayable",
      "type": "constructor",
      "signature": "constructor"
    },
    {
      "anonymous": false,
      "inputs": [
        {
          "indexed": true,
          "name": "voter",
          "type": "address"
        },
        {
          "indexed": false,
          "name": "nodes",
          "type": "bytes20[]"
        },
        {
          "indexed": false,
          "name": "voteCounter",
          "type": "uint256"
        }
      ],
      "name": "VoteOut",
      "type": "event",
      "signature": "0x4ad31339859fef06e0234f56bc4459d2a60b273671a6b4b31d79ab024cc1997b"
    },
    {
      "anonymous": false,
      "inputs": [
        {
          "indexed": true,
          "name": "delegator",
          "type": "address"
        },
        {
          "indexed": true,
          "name": "to",
          "type": "address"
        },
        {
          "indexed": false,
          "name": "delegationCounter",
          "type": "uint256"
        }
      ],
      "name": "Delegate",
      "type": "event",
      "signature": "0x510b11bb3f3c799b11307c01ab7db0d335683ef5b2da98f7697de744f465eacc"
    },
    {
      "constant": false,
      "inputs": [
        {
          "name": "nodes",
          "type": "address[]"
        }
      ],
      "name": "voteOut",
      "outputs": [],
      "payable": false,
      "stateMutability": "nonpayable",
      "type": "function",
      "signature": "0xf8222020"
    },
    {
      "constant": false,
      "inputs": [
        {
          "name": "to",
          "type": "address"
        }
      ],
      "name": "delegate",
      "outputs": [],
      "payable": false,
      "stateMutability": "nonpayable",
      "type": "function",
      "signature": "0x5c19a95c"
    },
    {
      "constant": true,
      "inputs": [
        {
          "name": "guardian",
          "type": "address"
        }
      ],
      "name": "getLastVote",
      "outputs": [
        {
          "name": "nodes",
          "type": "address[]"
        },
        {
          "name": "blockHeight",
          "type": "uint256"
        }
      ],
      "payable": false,
      "stateMutability": "view",
      "type": "function",
      "signature": "0xaef66981"
    }
  ],
  "bytecode": "0x608060405234801561001057600080fd5b506040516020806108b78339810180604052602081101561003057600080fd5b81019080805190602001909291905050506000808190555060006001819055508060028190555050610850806100676000396000f3fe608060405234801561001057600080fd5b5060043610610074576000357c0100000000000000000000000000000000000000000000000000000000900480635c19a95c14610079578063909af89a146100bd578063aef66981146100db578063f82220201461017b578063ffa1ad7414610233575b600080fd5b6100bb6004803603602081101561008f57600080fd5b81019080803573ffffffffffffffffffffffffffffffffffffffff169060200190929190505050610251565b005b6100c56102cd565b6040518082815260200191505060405180910390f35b61011d600480360360208110156100f157600080fd5b81019080803573ffffffffffffffffffffffffffffffffffffffff1690602001909291905050506102d3565b6040518080602001838152602001828103825284818151815260200191508051906020019060200280838360005b8381101561016657808201518184015260208101905061014b565b50505050905001935050505060405180910390f35b6102316004803603602081101561019157600080fd5b81019080803590602001906401000000008111156101ae57600080fd5b8201836020820111156101c057600080fd5b803590602001918460208302840111640100000000831117156101e257600080fd5b919080806020026020016040519081016040528093929190818152602001838360200280828437600081840152601f19601f82011690508083019250505050505050919291929050505061042d565b005b61023b61072d565b6040518082815260200191505060405180910390f35b6001600081548092919060010191905055508073ffffffffffffffffffffffffffffffffffffffff163373ffffffffffffffffffffffffffffffffffffffff167f510b11bb3f3c799b11307c01ab7db0d335683ef5b2da98f7697de744f465eacc6001546040518082815260200191505060405180910390a350565b60025481565b6060600080600360008573ffffffffffffffffffffffffffffffffffffffff1673ffffffffffffffffffffffffffffffffffffffff168152602001908152602001600020905060008160000154111515610395576040517f08c379a00000000000000000000000000000000000000000000000000000000081526004018080602001828103825260148152602001807f477561726469616e206e6576657220766f74656400000000000000000000000081525060200191505060405180910390fd5b806000015491508060010180548060200260200160405190810160405280929190818152602001828054801561042057602002820191906000526020600020905b8160009054906101000a900473ffffffffffffffffffffffffffffffffffffffff1673ffffffffffffffffffffffffffffffffffffffff16815260200190600101908083116103d6575b5050505050925050915091565b60025481511115151561048b576040517f08c379a00000000000000000000000000000000000000000000000000000000081526004018080602001828103825260258152602001806108006025913960400191505060405180910390fd5b6000815190506060816040519080825280602002602001820160405280156104c25781602001602082028038833980820191505090505b50905060008090505b828110156105ff57600073ffffffffffffffffffffffffffffffffffffffff1684828151811015156104f957fe5b9060200190602002015173ffffffffffffffffffffffffffffffffffffffff161415151561058f576040517f08c379a00000000000000000000000000000000000000000000000000000000081526004018080602001828103825260178152602001807f416c6c206e6f646573206d757374206265206e6f6e203000000000000000000081525060200191505060405180910390fd5b838181518110151561059d57fe5b906020019060200201516c010000000000000000000000000282828151811015156105c457fe5b906020019060200201906bffffffffffffffffffffffff191690816bffffffffffffffffffffffff19168152505080806001019150506104cb565b506000808154809291906001019190505550604080519081016040528043815260200184815250600360003373ffffffffffffffffffffffffffffffffffffffff1673ffffffffffffffffffffffffffffffffffffffff16815260200190815260200160002060008201518160000155602082015181600101908051906020019061068b929190610732565b509050503373ffffffffffffffffffffffffffffffffffffffff167f4ad31339859fef06e0234f56bc4459d2a60b273671a6b4b31d79ab024cc1997b826000546040518080602001838152602001828103825284818151815260200191508051906020019060200280838360005b838110156107145780820151818401526020810190506106f9565b50505050905001935050505060405180910390a2505050565b600181565b8280548282559060005260206000209081019282156107ab579160200282015b828111156107aa5782518260006101000a81548173ffffffffffffffffffffffffffffffffffffffff021916908373ffffffffffffffffffffffffffffffffffffffff16021790555091602001919060010190610752565b5b5090506107b891906107bc565b5090565b6107fc91905b808211156107f857600081816101000a81549073ffffffffffffffffffffffffffffffffffffffff0219169055506001016107c2565b5090565b9056fe4e6f646573206c697374206973206f7665722074686520616c6c6f776564206c656e677468a165627a7a72305820e1fd980803d46a1f4f5a2db598bccd7a582ac517e1f6b4af55f2a11a9cd0b9030029",
  "source": "pragma solidity 0.5.3;\n\n\nimport \"./IOrbsVoting.sol\";\n\n\ncontract OrbsVoting is IOrbsVoting {\n    struct VotingRecord {\n        uint blockHeight;\n        address[] nodes;\n    }\n\n    // The version of the current federation smart contract.\n    uint public constant VERSION = 1;\n\n    uint voteCounter;\n    uint delegationCounter;\n    uint public maxVoteOutNodes;\n\n    mapping(address => VotingRecord) mostRecentVotes;\n\n\n    constructor(uint maxVoteOutNodes_) public {\n        voteCounter = 0;\n        delegationCounter = 0;\n        maxVoteOutNodes = maxVoteOutNodes_;\n    }\n\n    function voteOut(address[] memory nodes) public {\n        require(nodes.length <= maxVoteOutNodes, \"Nodes list is over the allowed length\");\n\n        uint nodesLength = nodes.length;\n        bytes20[] memory addressesAsBytes20 = new bytes20[](nodesLength);\n        for (uint i=0; i < nodesLength; i++) {\n            require(nodes[i] != address(0), \"All nodes must be non 0\");\n            addressesAsBytes20[i] = bytes20(nodes[i]);\n        }\n\n        voteCounter++;\n\n        mostRecentVotes[msg.sender] = VotingRecord(block.number, nodes);\n\n        emit VoteOut(msg.sender, addressesAsBytes20, voteCounter);\n    }\n\n    function delegate(address to) public {\n        delegationCounter++;\n        emit Delegate(msg.sender, to, delegationCounter);\n    }\n\n    function getLastVote(address guardian)\n        public\n        view\n        returns (address[] memory nodes, uint blockHeight)\n    {\n        VotingRecord storage lastVote = mostRecentVotes[guardian];\n\n        require(lastVote.blockHeight > 0, \"Guardian never voted\");\n\n        blockHeight = lastVote.blockHeight;\n        nodes = lastVote.nodes;\n    }\n}",
  "sourcePath": "/Users/ron/work/src/github.com/orbs-network/orbs-ethereum-contracts/voting/ethereum/contracts/OrbsVoting.sol",
  "compiler": {
    "name": "solc",
    "version": "0.5.3+commit.10d17f24.Emscripten.clang"
  },
  "schemaVersion": "3.0.2",
  "updatedAt": "2019-03-14T18:30:31.345Z",
  "devdoc": {
    "methods": {}
  },
  "userdoc": {
    "methods": {}
  }
}