{
  "contractName": "OrbsVoting",
  "abi": [
    {
      "anonymous": false,
      "inputs": [
        {
          "indexed": true,
          "name": "voter",
          "type": "address"
        },
        {
          "indexed": false,
          "name": "nodes_list",
          "type": "address[]"
        },
        {
          "indexed": false,
          "name": "vote_counter",
          "type": "uint256"
        }
      ],
      "name": "Vote",
      "type": "event"
    },
    {
      "anonymous": false,
      "inputs": [
        {
          "indexed": true,
          "name": "stakeholder",
          "type": "address"
        },
        {
          "indexed": true,
          "name": "to",
          "type": "address"
        },
        {
          "indexed": false,
          "name": "delegation_counter",
          "type": "uint256"
        }
      ],
      "name": "Delegate",
      "type": "event"
    },
    {
      "constant": false,
      "inputs": [
        {
          "name": "nodes",
          "type": "address[]"
        }
      ],
      "name": "vote",
      "outputs": [],
      "payable": false,
      "stateMutability": "nonpayable",
      "type": "function"
    },
    {
      "constant": false,
      "inputs": [
        {
          "name": "to",
          "type": "address"
        }
      ],
      "name": "delegate",
      "outputs": [],
      "payable": false,
      "stateMutability": "nonpayable",
      "type": "function"
    },
    {
      "constant": true,
      "inputs": [
        {
          "name": "_guardian",
          "type": "address"
        }
      ],
      "name": "getLastVote",
      "outputs": [
        {
          "name": "nodes",
          "type": "address[]"
        },
        {
          "name": "block_height",
          "type": "uint256"
        }
      ],
      "payable": false,
      "stateMutability": "view",
      "type": "function"
    }
  ],
  "bytecode": "0x608060405260008055600060015534801561001957600080fd5b5061079e806100296000396000f3fe608060405234801561001057600080fd5b506004361061005e576000357c0100000000000000000000000000000000000000000000000000000000900480635c19a95c14610063578063aef66981146100a7578063ed08132914610147575b600080fd5b6100a56004803603602081101561007957600080fd5b81019080803573ffffffffffffffffffffffffffffffffffffffff1690602001909291905050506101ff565b005b6100e9600480360360208110156100bd57600080fd5b81019080803573ffffffffffffffffffffffffffffffffffffffff16906020019092919050505061027b565b6040518080602001838152602001828103825284818151815260200191508051906020019060200280838360005b83811015610132578082015181840152602081019050610117565b50505050905001935050505060405180910390f35b6101fd6004803603602081101561015d57600080fd5b810190808035906020019064010000000081111561017a57600080fd5b82018360208201111561018c57600080fd5b803590602001918460208302840111640100000000831117156101ae57600080fd5b919080806020026020016040519081016040528093929190818152602001838360200280828437600081840152601f19601f8201169050808301925050505050505091929192905050506103fd565b005b6001600081548092919060010191905055508073ffffffffffffffffffffffffffffffffffffffff163373ffffffffffffffffffffffffffffffffffffffff167f510b11bb3f3c799b11307c01ab7db0d335683ef5b2da98f7697de744f465eacc6001546040518082815260200191505060405180910390a350565b6060600080600260008573ffffffffffffffffffffffffffffffffffffffff1673ffffffffffffffffffffffffffffffffffffffff16815260200190815260200160002090506000818054905011151561033d576040517f08c379a00000000000000000000000000000000000000000000000000000000081526004018080602001828103825260148152602001807f477561726469616e206e6576657220766f74656400000000000000000000000081525060200191505060405180910390fd5b600081600183805490500381548110151561035457fe5b9060005260206000209060020201905080600001549250806001018054806020026020016040519081016040528092919081815260200182805480156103ef57602002820191906000526020600020905b8160009054906101000a900473ffffffffffffffffffffffffffffffffffffffff1673ffffffffffffffffffffffffffffffffffffffff16815260200190600101908083116103a5575b505050505093505050915091565b60008151111515610476576040517f08c379a000000000000000000000000000000000000000000000000000000000815260040180806020018281038252601b8152602001807f4d7573742070726f76696465206e6f6e20656d707479206c697374000000000081525060200191505060405180910390fd5b60008090505b815181101561054e57600073ffffffffffffffffffffffffffffffffffffffff1682828151811015156104ab57fe5b9060200190602002015173ffffffffffffffffffffffffffffffffffffffff1614151515610541576040517f08c379a00000000000000000000000000000000000000000000000000000000081526004018080602001828103825260178152602001807f416c6c206e6f646573206d757374206265206e6f6e203000000000000000000081525060200191505060405180910390fd5b808060010191505061047c565b506000808154809291906001019190505550600260003373ffffffffffffffffffffffffffffffffffffffff1673ffffffffffffffffffffffffffffffffffffffff168152602001908152602001600020604080519081016040528043815260200183815250908060018154018082558091505090600182039060005260206000209060020201600090919290919091506000820151816000015560208201518160010190805190602001906106059291906106a5565b505050503373ffffffffffffffffffffffffffffffffffffffff167f8e74707f33682297df744388ec6b7a56c219db104289e482dd949ba15f80213d826000546040518080602001838152602001828103825284818151815260200191508051906020019060200280838360005b8381101561068e578082015181840152602081019050610673565b50505050905001935050505060405180910390a250565b82805482825590600052602060002090810192821561071e579160200282015b8281111561071d5782518260006101000a81548173ffffffffffffffffffffffffffffffffffffffff021916908373ffffffffffffffffffffffffffffffffffffffff160217905550916020019190600101906106c5565b5b50905061072b919061072f565b5090565b61076f91905b8082111561076b57600081816101000a81549073ffffffffffffffffffffffffffffffffffffffff021916905550600101610735565b5090565b9056fea165627a7a72305820f9008cfbaba4804b28be4204a0790ac22b715e1482c020c749d50d0b7c06d6b70029",
  "source": "pragma solidity 0.5.3;\n\ninterface IOrbsVoting {\n    function vote(address[] calldata nodes_list) external;\n    function delegate(address to) external;\n}\n\ncontract OrbsVoting is IOrbsVoting {\n    struct VotingRecord {\n        uint block_height;\n        address[] nodes;\n    }\n    event Vote(address indexed voter, address[] nodes_list, uint vote_counter);\n    event Delegate(address indexed stakeholder, address indexed to, uint delegation_counter);\n\n    uint vote_counter = 0; // will reset back to zero when uint is exhausted\n    uint delegation_counter = 0; // will reset back to zero when uint is exhausted\n\n    mapping (address => VotingRecord[]) votingRecords;\n\n    function vote(address[] memory nodes) public {\n        require(nodes.length > 0, \"Must provide non empty list\");\n\n        for (uint i=0; i < nodes.length; i++) {\n            require(nodes[i] != address(0), \"All nodes must be non 0\");\n        }\n\n        vote_counter++;\n\n        votingRecords[msg.sender].push(VotingRecord(block.number, nodes));\n\n        emit Vote(msg.sender, nodes, vote_counter);\n    }\n\n    function delegate(address to) public {\n        delegation_counter++;\n        emit Delegate(msg.sender, to, delegation_counter);\n    }\n\n    function getLastVote(address _guardian) public view returns (address[] memory nodes, uint block_height) {\n        VotingRecord[] storage votings = votingRecords[_guardian];\n\n        require(votings.length > 0, \"Guardian never voted\");\n\n        VotingRecord storage lastVote = votings[votings.length - 1];\n\n        block_height = lastVote.block_height;\n        nodes = lastVote.nodes;\n    }\n\n}",
  "sourcePath": "/Users/ron/work/src/github.com/orbs-network/orbs-ethereum-contracts/Voting/ethereum/contracts/OrbsVoting.sol",
  "compiler": {
    "name": "solc",
    "version": "0.5.3+commit.10d17f24.Emscripten.clang"
  },
  "schemaVersion": "3.0.1",
  "updatedAt": "2019-02-25T12:39:47.888Z",
  "devdoc": {
    "methods": {}
  },
  "userdoc": {
    "methods": {}
  }
}