{
  "contractName": "OrbsGuardians",
  "abi": [
    {
      "constant": true,
      "inputs": [],
      "name": "registrationDeposit",
      "outputs": [
        {
          "name": "",
          "type": "uint256"
        }
      ],
      "payable": false,
      "stateMutability": "view",
      "type": "function"
    },
    {
      "constant": true,
      "inputs": [],
      "name": "VERSION",
      "outputs": [
        {
          "name": "",
          "type": "uint256"
        }
      ],
      "payable": false,
      "stateMutability": "view",
      "type": "function"
    },
    {
      "inputs": [
        {
          "name": "registrationDeposit_",
          "type": "uint256"
        }
      ],
      "payable": false,
      "stateMutability": "nonpayable",
      "type": "constructor"
    },
    {
      "anonymous": false,
      "inputs": [
        {
          "indexed": true,
          "name": "guardian",
          "type": "address"
        }
      ],
      "name": "GuardianRegistered",
      "type": "event"
    },
    {
      "anonymous": false,
      "inputs": [
        {
          "indexed": true,
          "name": "guardian",
          "type": "address"
        }
      ],
      "name": "GuardianLeft",
      "type": "event"
    },
    {
      "anonymous": false,
      "inputs": [
        {
          "indexed": true,
          "name": "guardian",
          "type": "address"
        }
      ],
      "name": "GuardianUpdated",
      "type": "event"
    },
    {
      "constant": false,
      "inputs": [
        {
          "name": "name",
          "type": "string"
        },
        {
          "name": "website",
          "type": "string"
        }
      ],
      "name": "register",
      "outputs": [],
      "payable": true,
      "stateMutability": "payable",
      "type": "function"
    },
    {
      "constant": false,
      "inputs": [
        {
          "name": "name",
          "type": "string"
        },
        {
          "name": "website",
          "type": "string"
        }
      ],
      "name": "update",
      "outputs": [],
      "payable": false,
      "stateMutability": "nonpayable",
      "type": "function"
    },
    {
      "constant": false,
      "inputs": [],
      "name": "leave",
      "outputs": [],
      "payable": false,
      "stateMutability": "nonpayable",
      "type": "function"
    },
    {
      "constant": true,
      "inputs": [
        {
          "name": "offset",
          "type": "uint256"
        },
        {
          "name": "limit",
          "type": "uint256"
        }
      ],
      "name": "getGuardiansBytes20",
      "outputs": [
        {
          "name": "",
          "type": "bytes20[]"
        }
      ],
      "payable": false,
      "stateMutability": "view",
      "type": "function"
    },
    {
      "constant": true,
      "inputs": [],
      "name": "reviewRegistration",
      "outputs": [
        {
          "name": "name",
          "type": "string"
        },
        {
          "name": "website",
          "type": "string"
        }
      ],
      "payable": false,
      "stateMutability": "view",
      "type": "function"
    },
    {
      "constant": true,
      "inputs": [
        {
          "name": "guardian",
          "type": "address"
        }
      ],
      "name": "getRegistrationBlockNumber",
      "outputs": [
        {
          "name": "registeredOn",
          "type": "uint256"
        },
        {
          "name": "lastUpdatedOn",
          "type": "uint256"
        }
      ],
      "payable": false,
      "stateMutability": "view",
      "type": "function"
    },
    {
      "constant": true,
      "inputs": [
        {
          "name": "offset",
          "type": "uint256"
        },
        {
          "name": "limit",
          "type": "uint256"
        }
      ],
      "name": "getGuardians",
      "outputs": [
        {
          "name": "",
          "type": "address[]"
        }
      ],
      "payable": false,
      "stateMutability": "view",
      "type": "function"
    },
    {
      "constant": true,
      "inputs": [
        {
          "name": "guardian",
          "type": "address"
        }
      ],
      "name": "getGuardianData",
      "outputs": [
        {
          "name": "name",
          "type": "string"
        },
        {
          "name": "website",
          "type": "string"
        }
      ],
      "payable": false,
      "stateMutability": "view",
      "type": "function"
    },
    {
      "constant": true,
      "inputs": [
        {
          "name": "guardian",
          "type": "address"
        }
      ],
      "name": "isGuardian",
      "outputs": [
        {
          "name": "",
          "type": "bool"
        }
      ],
      "payable": false,
      "stateMutability": "view",
      "type": "function"
    }
  ],
  "bytecode": "0x608060405234801561001057600080fd5b50604051602080611a5c833981018060405281019080805190602001909291905050508060008190555050611a128061004a6000396000f3006080604052600436106100af576000357c0100000000000000000000000000000000000000000000000000000000900463ffffffff1680630c68ba21146100b4578063316068281461010f5780633ffbd47f1461013a5780634b139a47146101805780634cf1f60b146102a857806350d8f78614610334578063d66d9e1914610392578063d93d7d29146103a9578063f35d2a8f14610435578063f4c84d1914610531578063ffa1ad7414610584575b600080fd5b3480156100c057600080fd5b506100f5600480360381019080803573ffffffffffffffffffffffffffffffffffffffff1690602001909291905050506105af565b604051808215151515815260200191505060405180910390f35b34801561011b57600080fd5b506101246105fd565b6040518082815260200191505060405180910390f35b61017e600480360381019080803590602001908201803590602001919091929391929390803590602001908201803590602001919091929391929390505050610603565b005b34801561018c57600080fd5b506101c1600480360381019080803573ffffffffffffffffffffffffffffffffffffffff169060200190929190505050610abf565b604051808060200180602001838103835285818151815260200191508051906020019080838360005b838110156102055780820151818401526020810190506101ea565b50505050905090810190601f1680156102325780820380516001836020036101000a031916815260200191505b50838103825284818151815260200191508051906020019080838360005b8381101561026b578082015181840152602081019050610250565b50505050905090810190601f1680156102985780820380516001836020036101000a031916815260200191505b5094505050505060405180910390f35b3480156102b457600080fd5b506102dd6004803603810190808035906020019092919080359060200190929190505050610d04565b6040518080602001828103825283818151815260200191508051906020019060200280838360005b83811015610320578082015181840152602081019050610305565b505050509050019250505060405180910390f35b34801561034057600080fd5b50610375600480360381019080803573ffffffffffffffffffffffffffffffffffffffff169060200190929190505050610dd9565b604051808381526020018281526020019250505060405180910390f35b34801561039e57600080fd5b506103a7610eb0565b005b3480156103b557600080fd5b506103de60048036038101908080359060200190929190803590602001909291905050506112e3565b6040518080602001828103825283818151815260200191508051906020019060200280838360005b83811015610421578082015181840152602081019050610406565b505050509050019250505060405180910390f35b34801561044157600080fd5b5061044a61145c565b604051808060200180602001838103835285818151815260200191508051906020019080838360005b8381101561048e578082015181840152602081019050610473565b50505050905090810190601f1680156104bb5780820380516001836020036101000a031916815260200191505b50838103825284818151815260200191508051906020019080838360005b838110156104f45780820151818401526020810190506104d9565b50505050905090810190601f1680156105215780820380516001836020036101000a031916815260200191505b5094505050505060405180910390f35b34801561053d57600080fd5b50610582600480360381019080803590602001908201803590602001919091929391929390803590602001908201803590602001919091929391929390505050611470565b005b34801561059057600080fd5b50610599611806565b6040518082815260200191505060405180910390f35b600080600260008473ffffffffffffffffffffffffffffffffffffffff1673ffffffffffffffffffffffffffffffffffffffff16815260200190815260200160002060030154119050919050565b60005481565b60003373ffffffffffffffffffffffffffffffffffffffff163273ffffffffffffffffffffffffffffffffffffffff161415156106ce576040517f08c379a00000000000000000000000000000000000000000000000000000000081526004018080602001828103825260218152602001807f4f6e6c7920454f41206d6179207265676973746572206173204775617264696181526020017f6e0000000000000000000000000000000000000000000000000000000000000081525060400191505060405180910390fd5b600085859050111515610749576040517f08c379a000000000000000000000000000000000000000000000000000000000815260040180806020018281038252601b8152602001807f506c656173652070726f7669646520612076616c6964206e616d65000000000081525060200191505060405180910390fd5b6000838390501115156107c4576040517f08c379a000000000000000000000000000000000000000000000000000000000815260040180806020018281038252601e8152602001807f506c656173652070726f7669646520612076616c69642077656273697465000081525060200191505060405180910390fd5b6107cd336105af565b151515610842576040517f08c379a00000000000000000000000000000000000000000000000000000000081526004018080602001828103825260148152602001807f43616e6e6f74206265206120677561726469616e00000000000000000000000081525060200191505060405180910390fd5b600054341415156108e1576040517f08c379a000000000000000000000000000000000000000000000000000000000815260040180806020018281038252602d8152602001807f506c656173652070726f7669646520746865206578616374207265676973747281526020017f6174696f6e206465706f7369740000000000000000000000000000000000000081525060400191505060405180910390fd5b600180549050905060013390806001815401808255809150509060018203906000526020600020016000909192909190916101000a81548173ffffffffffffffffffffffffffffffffffffffff021916908373ffffffffffffffffffffffffffffffffffffffff1602179055505060a06040519081016040528086868080601f016020809104026020016040519081016040528093929190818152602001838380828437820191505050505050815260200184848080601f016020809104026020016040519081016040528093929190818152602001838380828437820191505050505050815260200182815260200143815260200143815250600260003373ffffffffffffffffffffffffffffffffffffffff1673ffffffffffffffffffffffffffffffffffffffff1681526020019081526020016000206000820151816000019080519060200190610a3692919061184d565b506020820151816001019080519060200190610a5392919061184d565b506040820151816002015560608201518160030155608082015181600401559050503373ffffffffffffffffffffffffffffffffffffffff167fc2d72ac93e7fb29c534663a530cd3db012d5c336965e423e0ed5ee7a64ed874560405160405180910390a25050505050565b606080610acb836105af565b1515610b3f576040517f08c379a00000000000000000000000000000000000000000000000000000000081526004018080602001828103825260208152602001807f506c656173652070726f766964652061206c697374656420477561726469616e81525060200191505060405180910390fd5b600260008473ffffffffffffffffffffffffffffffffffffffff1673ffffffffffffffffffffffffffffffffffffffff168152602001908152602001600020600001600260008573ffffffffffffffffffffffffffffffffffffffff1673ffffffffffffffffffffffffffffffffffffffff168152602001908152602001600020600101818054600181600116156101000203166002900480601f016020809104026020016040519081016040528092919081815260200182805460018160011615610100020316600290048015610c585780601f10610c2d57610100808354040283529160200191610c58565b820191906000526020600020905b815481529060010190602001808311610c3b57829003601f168201915b50505050509150808054600181600116156101000203166002900480601f016020809104026020016040519081016040528092919081815260200182805460018160011615610100020316600290048015610cf45780601f10610cc957610100808354040283529160200191610cf4565b820191906000526020600020905b815481529060010190602001808311610cd757829003601f168201915b5050505050905091509150915091565b606080600060606000610d1787876112e3565b93508351925082604051908082528060200260200182016040528015610d4c5781602001602082028038833980820191505090505b509150600090505b82811015610dcc578381815181101515610d6a57fe5b906020019060200201516c01000000000000000000000000028282815181101515610d9157fe5b906020019060200201906bffffffffffffffffffffffff191690816bffffffffffffffffffffffff1916815250508080600101915050610d54565b8194505050505092915050565b6000806000610de7846105af565b1515610e5b576040517f08c379a00000000000000000000000000000000000000000000000000000000081526004018080602001828103825260208152602001807f506c656173652070726f766964652061206c697374656420477561726469616e81525060200191505060405180910390fd5b600260008573ffffffffffffffffffffffffffffffffffffffff1673ffffffffffffffffffffffffffffffffffffffff1681526020019081526020016000209050806003015481600401549250925050915091565b60003373ffffffffffffffffffffffffffffffffffffffff163273ffffffffffffffffffffffffffffffffffffffff16141515610f7b576040517f08c379a00000000000000000000000000000000000000000000000000000000081526004018080602001828103825260218152602001807f4f6e6c7920454f41206d6179207265676973746572206173204775617264696181526020017f6e0000000000000000000000000000000000000000000000000000000000000081525060400191505060405180910390fd5b610f84336105af565b1515610ff8576040517f08c379a00000000000000000000000000000000000000000000000000000000081526004018080602001828103825260188152602001807f53656e646572206973206e6f74206120477561726469616e000000000000000081525060200191505060405180910390fd5b600260003373ffffffffffffffffffffffffffffffffffffffff1673ffffffffffffffffffffffffffffffffffffffff1681526020019081526020016000206002015490503373ffffffffffffffffffffffffffffffffffffffff1660018281548110151561106357fe5b9060005260206000200160009054906101000a900473ffffffffffffffffffffffffffffffffffffffff1673ffffffffffffffffffffffffffffffffffffffff161415156110ad57fe5b6001808080549050038154811015156110c257fe5b9060005260206000200160009054906101000a900473ffffffffffffffffffffffffffffffffffffffff166001828154811015156110fc57fe5b9060005260206000200160006101000a81548173ffffffffffffffffffffffffffffffffffffffff021916908373ffffffffffffffffffffffffffffffffffffffff160217905550806002600060018481548110151561115857fe5b9060005260206000200160009054906101000a900473ffffffffffffffffffffffffffffffffffffffff1673ffffffffffffffffffffffffffffffffffffffff1673ffffffffffffffffffffffffffffffffffffffff1681526020019081526020016000206002018190555060018054809190600190036111d991906118cd565b50600260003373ffffffffffffffffffffffffffffffffffffffff1673ffffffffffffffffffffffffffffffffffffffff1681526020019081526020016000206000808201600061122a91906118f9565b60018201600061123a91906118f9565b60028201600090556003820160009055600482016000905550503373ffffffffffffffffffffffffffffffffffffffff166108fc6000549081150290604051600060405180830381858888f1935050505015801561129c573d6000803e3d6000fd5b503373ffffffffffffffffffffffffffffffffffffffff167f30e7885e5f0fc1d648230d0e9245d45333c7158885df954f0a2f0fb442be0f6560405160405180910390a250565b6060806000806001805490508610151561132f5760006040519080825280602002602001820160405280156113275781602001602082028038833980820191505090505b509350611453565b600180549050611348868861180b90919063ffffffff16565b1115611369576113668660018054905061182c90919063ffffffff16565b94505b846040519080825280602002602001820160405280156113985781602001602082028038833980820191505090505b50925082519150600090505b8181101561144f5760016113c1828861180b90919063ffffffff16565b8154811015156113cd57fe5b9060005260206000200160009054906101000a900473ffffffffffffffffffffffffffffffffffffffff16838281518110151561140657fe5b9060200190602002019073ffffffffffffffffffffffffffffffffffffffff16908173ffffffffffffffffffffffffffffffffffffffff168152505080806001019150506113a4565b8293505b50505092915050565b60608061146833610abf565b915091509091565b3373ffffffffffffffffffffffffffffffffffffffff163273ffffffffffffffffffffffffffffffffffffffff16141515611539576040517f08c379a00000000000000000000000000000000000000000000000000000000081526004018080602001828103825260218152602001807f4f6e6c7920454f41206d6179207265676973746572206173204775617264696181526020017f6e0000000000000000000000000000000000000000000000000000000000000081525060400191505060405180910390fd5b6000848490501115156115b4576040517f08c379a000000000000000000000000000000000000000000000000000000000815260040180806020018281038252601b8152602001807f506c656173652070726f7669646520612076616c6964206e616d65000000000081525060200191505060405180910390fd5b60008282905011151561162f576040517f08c379a000000000000000000000000000000000000000000000000000000000815260040180806020018281038252601e8152602001807f506c656173652070726f7669646520612076616c69642077656273697465000081525060200191505060405180910390fd5b611638336105af565b15156116d2576040517f08c379a00000000000000000000000000000000000000000000000000000000081526004018080602001828103825260218152602001807f596f75206d75737420626520612072656769737465726564206775617264696181526020017f6e0000000000000000000000000000000000000000000000000000000000000081525060400191505060405180910390fd5b8383600260003373ffffffffffffffffffffffffffffffffffffffff1673ffffffffffffffffffffffffffffffffffffffff1681526020019081526020016000206000019190611723929190611941565b508181600260003373ffffffffffffffffffffffffffffffffffffffff1673ffffffffffffffffffffffffffffffffffffffff1681526020019081526020016000206001019190611775929190611941565b5043600260003373ffffffffffffffffffffffffffffffffffffffff1673ffffffffffffffffffffffffffffffffffffffff168152602001908152602001600020600401819055503373ffffffffffffffffffffffffffffffffffffffff167f6bb7ff33e730289800c62ad882105a144a74010d2bdbb9a942544a3005ad55bf60405160405180910390a250505050565b600181565b600080828401905083811015151561182257600080fd5b8091505092915050565b60008083831115151561183e57600080fd5b82840390508091505092915050565b828054600181600116156101000203166002900490600052602060002090601f016020900481019282601f1061188e57805160ff19168380011785556118bc565b828001600101855582156118bc579182015b828111156118bb5782518255916020019190600101906118a0565b5b5090506118c991906119c1565b5090565b8154818355818111156118f4578183600052602060002091820191016118f391906119c1565b5b505050565b50805460018160011615610100020316600290046000825580601f1061191f575061193e565b601f01602090049060005260206000209081019061193d91906119c1565b5b50565b828054600181600116156101000203166002900490600052602060002090601f016020900481019282601f1061198257803560ff19168380011785556119b0565b828001600101855582156119b0579182015b828111156119af578235825591602001919060010190611994565b5b5090506119bd91906119c1565b5090565b6119e391905b808211156119df5760008160009055506001016119c7565b5090565b905600a165627a7a72305820ee72a7777632032def1f00032c31499dbce3859c199e159415ed306823a968f90029",
  "compiler": {
    "name": "solc",
    "version": "0.4.25+commit.59dbf8f1.Emscripten.clang"
  },
  "schemaVersion": "3.0.2",
  "updatedAt": "2019-03-23T13:59:46.823Z",
  "devdoc": {
    "methods": {
      "getGuardianData(address)": {
        "details": "returns name and website for  a specific guardian.",
        "params": {
          "guardian": "address the guardian address"
        }
      },
      "getGuardians(uint256,uint256)": {
        "details": "returns an array of guardians.",
        "params": {
          "limit": "uint limit of guardians to be returned.",
          "offset": "uint offset from which to start getting guardians from the array"
        }
      },
      "getGuardiansBytes20(uint256,uint256)": {
        "details": "returns an array of guardians as Bytes20 - similar to getGuardians, but returns byte20 which is      more compatible in some cases.",
        "params": {
          "limit": "uint limit of guardians to be returned.",
          "offset": "uint offset from which to start getting guardians from the array"
        }
      },
      "getRegistrationBlockNumber(address)": {
        "details": "returns in which block the guardian was register, and in which block it was last updated.",
        "params": {
          "guardian": "address the guardian address"
        }
      },
      "isGuardian(address)": {
        "details": "returns if the address belongs to a guardian",
        "params": {
          "guardian": "address the guardian address"
        }
      },
      "leave()": {
        "details": "delete the guardian and take back the locked ether. only msg.sender can leave."
      },
      "register(string,string)": {
        "details": "register a new guardian. You will need to transfer registrationDeposit amount of ether.",
        "params": {
          "name": "string The name of the guardian",
          "website": "string The website of the guardian"
        }
      },
      "reviewRegistration()": {
        "details": "Convenience method to check if you are a guardian."
      },
      "update(string,string)": {
        "details": "update guardian details. only msg.sender can update it's own guardian details.",
        "params": {
          "name": "string The name of the guardian",
          "website": "string The website of the guardian"
        }
      }
    }
  },
  "userdoc": {
    "methods": {}
  }
}