{
  "contractName": "AutonomousSwapProofVerifier",
  "abi": [
    {
      "constant": true,
      "inputs": [],
      "name": "EXECUTION_RESULT_SUCCESS",
      "outputs": [
        {
          "name": "",
          "type": "uint256"
        }
      ],
      "payable": false,
      "stateMutability": "view",
      "type": "function"
    },
    {
      "constant": true,
      "inputs": [],
      "name": "MAX_SIGNATURES",
      "outputs": [
        {
          "name": "",
          "type": "uint256"
        }
      ],
      "payable": false,
      "stateMutability": "view",
      "type": "function"
    },
    {
      "constant": true,
      "inputs": [],
      "name": "LENGTH_SIZE",
      "outputs": [
        {
          "name": "",
          "type": "uint256"
        }
      ],
      "payable": false,
      "stateMutability": "view",
      "type": "function"
    },
    {
      "constant": true,
      "inputs": [],
      "name": "COMMIT_MESSAGE_TYPE",
      "outputs": [
        {
          "name": "",
          "type": "uint256"
        }
      ],
      "payable": false,
      "stateMutability": "view",
      "type": "function"
    },
    {
      "constant": true,
      "inputs": [],
      "name": "ORBS_ADDRESS_SIZE",
      "outputs": [
        {
          "name": "",
          "type": "uint256"
        }
      ],
      "payable": false,
      "stateMutability": "view",
      "type": "function"
    },
    {
      "constant": true,
      "inputs": [],
      "name": "ORBS_TRANSFERRED_OUT_EVENT_NAME",
      "outputs": [
        {
          "name": "",
          "type": "string"
        }
      ],
      "payable": false,
      "stateMutability": "view",
      "type": "function"
    },
    {
      "constant": true,
      "inputs": [],
      "name": "SIGNATURE_SIZE",
      "outputs": [
        {
          "name": "",
          "type": "uint256"
        }
      ],
      "payable": false,
      "stateMutability": "view",
      "type": "function"
    },
    {
      "constant": true,
      "inputs": [],
      "name": "BLOCKHASH_OFFSET",
      "outputs": [
        {
          "name": "",
          "type": "uint256"
        }
      ],
      "payable": false,
      "stateMutability": "view",
      "type": "function"
    },
    {
      "constant": true,
      "inputs": [],
      "name": "SHA256_SIZE",
      "outputs": [
        {
          "name": "",
          "type": "uint256"
        }
      ],
      "payable": false,
      "stateMutability": "view",
      "type": "function"
    },
    {
      "constant": true,
      "inputs": [],
      "name": "WORD_ALIGNED",
      "outputs": [
        {
          "name": "",
          "type": "uint256"
        }
      ],
      "payable": false,
      "stateMutability": "view",
      "type": "function"
    },
    {
      "constant": true,
      "inputs": [],
      "name": "federation",
      "outputs": [
        {
          "name": "",
          "type": "address"
        }
      ],
      "payable": false,
      "stateMutability": "view",
      "type": "function"
    },
    {
      "constant": true,
      "inputs": [],
      "name": "UINT32_SIZE",
      "outputs": [
        {
          "name": "",
          "type": "uint256"
        }
      ],
      "payable": false,
      "stateMutability": "view",
      "type": "function"
    },
    {
      "constant": true,
      "inputs": [],
      "name": "ORBS_PROTOCOL_VERSION",
      "outputs": [
        {
          "name": "",
          "type": "uint256"
        }
      ],
      "payable": false,
      "stateMutability": "view",
      "type": "function"
    },
    {
      "constant": true,
      "inputs": [],
      "name": "BLOCKREF_MESSAGE_SIZE",
      "outputs": [
        {
          "name": "",
          "type": "uint256"
        }
      ],
      "payable": false,
      "stateMutability": "view",
      "type": "function"
    },
    {
      "constant": true,
      "inputs": [],
      "name": "NODE_PK_SIG_NESTING_SIZE",
      "outputs": [
        {
          "name": "",
          "type": "uint256"
        }
      ],
      "payable": false,
      "stateMutability": "view",
      "type": "function"
    },
    {
      "constant": true,
      "inputs": [],
      "name": "UINT64_SIZE",
      "outputs": [
        {
          "name": "",
          "type": "uint256"
        }
      ],
      "payable": false,
      "stateMutability": "view",
      "type": "function"
    },
    {
      "constant": true,
      "inputs": [],
      "name": "SIGNATURE_PADDED_SIZE",
      "outputs": [
        {
          "name": "",
          "type": "uint256"
        }
      ],
      "payable": false,
      "stateMutability": "view",
      "type": "function"
    },
    {
      "constant": true,
      "inputs": [],
      "name": "SENDER_SIGNATURE_SIZE",
      "outputs": [
        {
          "name": "",
          "type": "uint256"
        }
      ],
      "payable": false,
      "stateMutability": "view",
      "type": "function"
    },
    {
      "constant": true,
      "inputs": [],
      "name": "UINT16_SIZE",
      "outputs": [
        {
          "name": "",
          "type": "uint256"
        }
      ],
      "payable": false,
      "stateMutability": "view",
      "type": "function"
    },
    {
      "constant": true,
      "inputs": [],
      "name": "ADDRESS_SIZE",
      "outputs": [
        {
          "name": "",
          "type": "uint256"
        }
      ],
      "payable": false,
      "stateMutability": "view",
      "type": "function"
    },
    {
      "constant": true,
      "inputs": [],
      "name": "DWORD_ALIGNED",
      "outputs": [
        {
          "name": "",
          "type": "uint256"
        }
      ],
      "payable": false,
      "stateMutability": "view",
      "type": "function"
    },
    {
      "constant": true,
      "inputs": [],
      "name": "UINT256_SIZE",
      "outputs": [
        {
          "name": "",
          "type": "uint256"
        }
      ],
      "payable": false,
      "stateMutability": "view",
      "type": "function"
    },
    {
      "constant": true,
      "inputs": [],
      "name": "ONEOF_NESTING_SIZE",
      "outputs": [
        {
          "name": "",
          "type": "uint256"
        }
      ],
      "payable": false,
      "stateMutability": "view",
      "type": "function"
    },
    {
      "constant": true,
      "inputs": [],
      "name": "VERSION",
      "outputs": [
        {
          "name": "",
          "type": "uint256"
        }
      ],
      "payable": false,
      "stateMutability": "view",
      "type": "function"
    },
    {
      "inputs": [
        {
          "name": "_federation",
          "type": "address"
        }
      ],
      "payable": false,
      "stateMutability": "nonpayable",
      "type": "constructor"
    },
    {
      "constant": true,
      "inputs": [
        {
          "name": "_packedProof",
          "type": "bytes"
        },
        {
          "name": "_transactionReceipt",
          "type": "bytes"
        }
      ],
      "name": "processPackedProof",
      "outputs": [
        {
          "components": [
            {
              "name": "networkType",
              "type": "uint32"
            },
            {
              "name": "virtualChainId",
              "type": "uint64"
            },
            {
              "name": "orbsContractName",
              "type": "string"
            },
            {
              "name": "from",
              "type": "bytes20"
            },
            {
              "name": "to",
              "type": "address"
            },
            {
              "name": "value",
              "type": "uint256"
            },
            {
              "name": "tuid",
              "type": "uint256"
            }
          ],
          "name": "transferInEvent",
          "type": "tuple"
        }
      ],
      "payable": false,
      "stateMutability": "view",
      "type": "function"
    },
    {
      "constant": true,
      "inputs": [
        {
          "name": "_resultsBlockHeader",
          "type": "bytes"
        },
        {
          "name": "_resultsBlockProof",
          "type": "bytes"
        },
        {
          "name": "_transactionReceipt",
          "type": "bytes"
        },
        {
          "name": "_transactionReceiptProof",
          "type": "bytes32[]"
        }
      ],
      "name": "processProof",
      "outputs": [
        {
          "components": [
            {
              "name": "networkType",
              "type": "uint32"
            },
            {
              "name": "virtualChainId",
              "type": "uint64"
            },
            {
              "name": "orbsContractName",
              "type": "string"
            },
            {
              "name": "from",
              "type": "bytes20"
            },
            {
              "name": "to",
              "type": "address"
            },
            {
              "name": "value",
              "type": "uint256"
            },
            {
              "name": "tuid",
              "type": "uint256"
            }
          ],
          "name": "transferInEvent",
          "type": "tuple"
        }
      ],
      "payable": false,
      "stateMutability": "view",
      "type": "function"
    },
    {
      "constant": true,
      "inputs": [
        {
          "name": "_address",
          "type": "bytes20"
        }
      ],
      "name": "isOrbsAddressValid",
      "outputs": [
        {
          "name": "",
          "type": "bool"
        }
      ],
      "payable": false,
      "stateMutability": "pure",
      "type": "function"
    }
  ],
  "bytecode": "0x60806040523480156200001157600080fd5b50604051602080620038a6833981018060405262000033919081019062000105565b600073ffffffffffffffffffffffffffffffffffffffff168173ffffffffffffffffffffffffffffffffffffffff1614151515620000a8576040517f08c379a00000000000000000000000000000000000000000000000000000000081526004016200009f9062000168565b60405180910390fd5b806000806101000a81548173ffffffffffffffffffffffffffffffffffffffff021916908373ffffffffffffffffffffffffffffffffffffffff16021790555050620001be565b6000620000fd8251620001aa565b905092915050565b6000602082840312156200011857600080fd5b60006200012884828501620000ef565b91505092915050565b6000601982527f46656465726174696f6e206d757374206e6f74206265203021000000000000006020830152604082019050919050565b60006020820190508181036000830152620001838162000131565b9050919050565b600073ffffffffffffffffffffffffffffffffffffffff82169050919050565b6000620001b7826200018a565b9050919050565b6136d880620001ce6000396000f30060806040526004361061015e576000357c0100000000000000000000000000000000000000000000000000000000900463ffffffff16806212117d14610163578063037a37961461018e5780630c7d819e146101b95780630fafc6f1146101e457806326413cd01461020f578063287013531461023a578063308ff0c914610265578063397d6e1714610290578063550bed71146102bb5780635bc001a2146102e657806361cd41721461031157806366c861191461034e578063690ba608146103795780636d2c93ac146103a457806379509d79146103cf578063872c7d331461040c5780638d9ecc66146104375780639c3db9a514610462578063a7c53a751461048d578063ace61385146104ca578063ae665562146104f5578063b1b4be8914610520578063c4c3c17e1461054b578063c90b8af614610576578063eea7f0ab146105a1578063f18a25ce146105cc578063ffa1ad74146105f7575b600080fd5b34801561016f57600080fd5b50610178610622565b6040516101859190613430565b60405180910390f35b34801561019a57600080fd5b506101a3610627565b6040516101b09190613430565b60405180910390f35b3480156101c557600080fd5b506101ce61062c565b6040516101db9190613430565b60405180910390f35b3480156101f057600080fd5b506101f9610631565b6040516102069190613430565b60405180910390f35b34801561021b57600080fd5b50610224610636565b6040516102319190613430565b60405180910390f35b34801561024657600080fd5b5061024f61063b565b60405161025c919061322c565b60405180910390f35b34801561027157600080fd5b5061027a610674565b6040516102879190613430565b60405180910390f35b34801561029c57600080fd5b506102a5610679565b6040516102b29190613430565b60405180910390f35b3480156102c757600080fd5b506102d061067e565b6040516102dd9190613430565b60405180910390f35b3480156102f257600080fd5b506102fb610683565b6040516103089190613430565b60405180910390f35b34801561031d57600080fd5b5061033860048036036103339190810190612a5c565b610688565b60405161034591906131b8565b60405180910390f35b34801561035a57600080fd5b506103636106d2565b6040516103709190613211565b60405180910390f35b34801561038557600080fd5b5061038e6106f7565b60405161039b9190613430565b60405180910390f35b3480156103b057600080fd5b506103b96106fc565b6040516103c69190613430565b60405180910390f35b3480156103db57600080fd5b506103f660048036036103f19190810190612aae565b610701565b604051610403919061340e565b60405180910390f35b34801561041857600080fd5b50610421610b3d565b60405161042e9190613430565b60405180910390f35b34801561044357600080fd5b5061044c610b42565b6040516104599190613430565b60405180910390f35b34801561046e57600080fd5b50610477610b47565b6040516104849190613430565b60405180910390f35b34801561049957600080fd5b506104b460048036036104af9190810190612b1a565b610b4c565b6040516104c1919061340e565b60405180910390f35b3480156104d657600080fd5b506104df610e9a565b6040516104ec9190613430565b60405180910390f35b34801561050157600080fd5b5061050a610e9f565b6040516105179190613430565b60405180910390f35b34801561052c57600080fd5b50610535610ea4565b6040516105429190613430565b60405180910390f35b34801561055757600080fd5b50610560610ea9565b60405161056d9190613430565b60405180910390f35b34801561058257600080fd5b5061058b610eae565b6040516105989190613430565b60405180910390f35b3480156105ad57600080fd5b506105b6610eb3565b6040516105c39190613430565b60405180910390f35b3480156105d857600080fd5b506105e1610eb8565b6040516105ee9190613430565b60405180910390f35b34801561060357600080fd5b5061060c610ebd565b6040516106199190613430565b60405180910390f35b600181565b606481565b600481565b600381565b601481565b6040805190810160405280601281526020017f4f7262735472616e736665727265644f7574000000000000000000000000000081525081565b604181565b601881565b602081565b600281565b6000806c01000000000000000000000000026bffffffffffffffffffffffff1916826bffffffffffffffffffffffff191614156106c857600090506106cd565b600190505b919050565b6000809054906101000a900473ffffffffffffffffffffffffffffffffffffffff1681565b600481565b600181565b6107096126f3565b60608060606000606060008061071d612766565b6107256127b9565b61072d6127d9565b6107368d610ec2565b809a50819b50829c505050506000965061075b6020895161100590919063ffffffff16565b6040519080825280602002602001820160405280156107895781602001602082028038833980820191505090505b509550600094505b6107a66020895161100590919063ffffffff16565b85101561080a576107c0878961102f90919063ffffffff16565b93508386868151811015156107d157fe5b9060200190602002019060001916908160001916815250506107fd60208861105890919063ffffffff16565b9650846001019450610791565b6108138a611079565b92506001836000015163ffffffff16141515610864576040517f08c379a000000000000000000000000000000000000000000000000000000000815260040161085b906133ae565b60405180910390fd5b61086e8a8a6111f6565b73__CryptoUtils___________________________636df6588e8785608001518f6040518463ffffffff167c01000000000000000000000000000000000000000000000000000000000281526004016108c993929190613173565b60206040518083038186803b1580156108e157600080fd5b505af41580156108f5573d6000803e3d6000fd5b505050506040513d601f19601f820116820180604052506109199190810190612a33565b151561095a576040517f08c379a0000000000000000000000000000000000000000000000000000000008152600401610951906133ee565b60405180910390fd5b6109638c611477565b91506001826000015163ffffffff161415156109b4576040517f08c379a00000000000000000000000000000000000000000000000000000000081526004016109ab906132ee565b60405180910390fd5b6109c182602001516115f0565b9050610a0f6040805190810160405280601281526020017f4f7262735472616e736665727265644f75740000000000000000000000000000815250826020015161194390919063ffffffff16565b1515610a50576040517f08c379a0000000000000000000000000000000000000000000000000000000008152600401610a479061328e565b60405180910390fd5b82604001518b6000019063ffffffff16908163ffffffff168152505082602001518b6020019067ffffffffffffffff16908167ffffffffffffffff168152505080600001518b6040018190525080606001518b606001906bffffffffffffffffffffffff191690816bffffffffffffffffffffffff19168152505080608001518b6080019073ffffffffffffffffffffffffffffffffffffffff16908173ffffffffffffffffffffffffffffffffffffffff16815250508060a001518b60a0018181525050806040015167ffffffffffffffff168b60c00181815250505050505050505050505092915050565b603881565b600481565b600881565b610b546126f3565b610b5c612766565b610b646127b9565b610b6c6127d9565b610b7588611079565b92506001836000015163ffffffff16141515610bc6576040517f08c379a0000000000000000000000000000000000000000000000000000000008152600401610bbd906133ae565b60405180910390fd5b610bd088886111f6565b73__CryptoUtils___________________________636df6588e868560800151896040518463ffffffff167c0100000000000000000000000000000000000000000000000000000000028152600401610c2b93929190613173565b60206040518083038186803b158015610c4357600080fd5b505af4158015610c57573d6000803e3d6000fd5b505050506040513d601f19601f82011682018060405250610c7b9190810190612a33565b1515610cbc576040517f08c379a0000000000000000000000000000000000000000000000000000000008152600401610cb3906133ee565b60405180910390fd5b610cc586611477565b91506001826000015163ffffffff16141515610d16576040517f08c379a0000000000000000000000000000000000000000000000000000000008152600401610d0d906132ee565b60405180910390fd5b610d2382602001516115f0565b9050610d716040805190810160405280601281526020017f4f7262735472616e736665727265644f75740000000000000000000000000000815250826020015161194390919063ffffffff16565b1515610db2576040517f08c379a0000000000000000000000000000000000000000000000000000000008152600401610da99061328e565b60405180910390fd5b8260400151846000019063ffffffff16908163ffffffff16815250508260200151846020019067ffffffffffffffff16908167ffffffffffffffff168152505080600001518460400181905250806060015184606001906bffffffffffffffffffffffff191690816bffffffffffffffffffffffff1916815250508060800151846080019073ffffffffffffffffffffffffffffffffffffffff16908173ffffffffffffffffffffffffffffffffffffffff16815250508060a001518460a0018181525050806040015167ffffffffffffffff168460c0018181525050505050949350505050565b604481565b606481565b600281565b601481565b600481565b602081565b600c81565b600181565b606080606060008060008060009350610ee48489611a3190919063ffffffff16565b9250610efa60048561105890919063ffffffff16565b9350610f17848463ffffffff168a611a479092919063ffffffff16565b9650610f328363ffffffff168561105890919063ffffffff16565b9350610f478489611a3190919063ffffffff16565b9150610f5d60048561105890919063ffffffff16565b9350610f7a848363ffffffff168a611a479092919063ffffffff16565b9550610f958263ffffffff168561105890919063ffffffff16565b9350610faa8489611a3190919063ffffffff16565b9050610fc060048561105890919063ffffffff16565b9350610fdd848263ffffffff168a611a479092919063ffffffff16565b9450610ff88163ffffffff168561105890919063ffffffff16565b9350505050509193909250565b60008060008311151561101757600080fd5b828481151561102257fe5b0490508091505092915050565b6000806020830184511015151561104557600080fd5b8260208501015190508091505092915050565b600080828401905083811015151561106f57600080fd5b8091505092915050565b611081612766565b60008090506110998184611a3190919063ffffffff16565b826000019063ffffffff16908163ffffffff16815250506110c460048261105890919063ffffffff16565b90506110d98184611a3190919063ffffffff16565b63ffffffff16826020019067ffffffffffffffff16908167ffffffffffffffff168152505061111260048261105890919063ffffffff16565b905061112860088261105890919063ffffffff16565b905061113e60048261105890919063ffffffff16565b905061115460208261105890919063ffffffff16565b90506111698184611ad490919063ffffffff16565b826060019067ffffffffffffffff16908167ffffffffffffffff168152505061119c60088261105890919063ffffffff16565b90506111b260048261105890919063ffffffff16565b90506111c7818461102f90919063ffffffff16565b826080019060001916908160001916815250506111ee60208261105890919063ffffffff16565b905050919050565b6111fe61283f565b60008061120a84611aea565b92506002856040518082805190602001908083835b602083101515611244578051825260208201915060208101905060208303925061121f565b6001836020036101000a0380198251168184511680821785525050505050509050019150506020604051808303816000865af1158015611288573d6000803e3d6000fd5b5050506040513d601f19601f820116820180604052506112ab9190810190612a85565b915060028360200151836040516020018083600019166000191681526020018260001916600019168152602001925050506040516020818303038152906040526040518082805190602001908083835b60208310151561132057805182526020820191506020810190506020830392506112fb565b6001836020036101000a0380198251168184511680821785525050505050509050019150506020604051808303816000865af1158015611364573d6000803e3d6000fd5b5050506040513d601f19601f820116820180604052506113879190810190612a85565b905082608001516000191681600019161415156113d9576040517f08c379a00000000000000000000000000000000000000000000000000000000081526004016113d09061326e565b60405180910390fd5b6003836060015161ffff16141515611426576040517f08c379a000000000000000000000000000000000000000000000000000000000815260040161141d9061336e565b60405180910390fd5b61142f83611f77565b1515611470576040517f08c379a00000000000000000000000000000000000000000000000000000000081526004016114679061334e565b60405180910390fd5b5050505050565b61147f6127b9565b600080600080925061149b60048461105890919063ffffffff16565b92506114b160208461105890919063ffffffff16565b92506114c6838661237390919063ffffffff16565b61ffff16846000019063ffffffff16908163ffffffff16815250506114ec836004612389565b92506114fa838660046123eb565b905050809350506115148386611a3190919063ffffffff16565b915061152a60048461105890919063ffffffff16565b925061153f8386611a3190919063ffffffff16565b905061155560048461105890919063ffffffff16565b9250611572838263ffffffff1687611a479092919063ffffffff16565b84602001819052506115938163ffffffff168461105890919063ffffffff16565b92506004810163ffffffff168263ffffffff161415156115e8576040517f08c379a00000000000000000000000000000000000000000000000000000000081526004016115df906132ae565b60405180910390fd5b505050919050565b6115f86127d9565b60008060008060008094506000935060009250611617858860046123eb565b809550819650829750505050611638848489611a479092919063ffffffff16565b866000018190525061164c858860046123eb565b80955081965082975050505061166d848489611a479092919063ffffffff16565b866020018190525061168960048661105890919063ffffffff16565b945061169f60048661105890919063ffffffff16565b94506116ac856004612389565b94506116c18588611ad490919063ffffffff16565b866040019067ffffffffffffffff16908167ffffffffffffffff16815250506116f460088661105890919063ffffffff16565b945061170a60048661105890919063ffffffff16565b9450611717856004612389565b945061172c8588611a3190919063ffffffff16565b915060148263ffffffff16141515611779576040517f08c379a00000000000000000000000000000000000000000000000000000000081526004016117709061330e565b60405180910390fd5b61178d60048661105890919063ffffffff16565b94506117a2858861248390919063ffffffff16565b86606001906bffffffffffffffffffffffff191690816bffffffffffffffffffffffff1916815250506117df60148661105890919063ffffffff16565b94506117f560048661105890919063ffffffff16565b9450611802856004612389565b94506118178588611a3190919063ffffffff16565b905060148163ffffffff16141515611864576040517f08c379a000000000000000000000000000000000000000000000000000000000815260040161185b9061332e565b60405180910390fd5b61187860048661105890919063ffffffff16565b945061188d85886124e290919063ffffffff16565b866080019073ffffffffffffffffffffffffffffffffffffffff16908173ffffffffffffffffffffffffffffffffffffffff16815250506118d860148661105890919063ffffffff16565b94506118ee60048661105890919063ffffffff16565b94506118fb856004612389565b94506119108588611ad490919063ffffffff16565b67ffffffffffffffff168660a001818152505061193760088661105890919063ffffffff16565b94505050505050919050565b6000815183511415156119595760009050611a2b565b816040518082805190602001908083835b60208310151561198f578051825260208201915060208101905060208303925061196a565b6001836020036101000a038019825116818451168082178552505050505050905001915050604051809103902060001916836040518082805190602001908083835b6020831015156119f657805182526020820191506020810190506020830392506119d1565b6001836020036101000a0380198251168184511680821785525050505050509050019150506040518091039020600019161490505b92915050565b6000611a3f8383600461251a565b905092915050565b606080828401855110151515611a5c57600080fd5b821560008114611a7757604051915060208201604052611ac8565b6040519150601f8416801560200281840101858101878315602002848b0101015b81831015611ab55780518352602083019250602081019050611a98565b50868552601f19601f8301166040525050505b50809150509392505050565b6000611ae28383600861251a565b905092915050565b611af261283f565b600080600080600080600095506000876000019063ffffffff16908163ffffffff1681525050611b2b8689611a3190919063ffffffff16565b945060208563ffffffff16141515611b78576040517f08c379a0000000000000000000000000000000000000000000000000000000008152600401611b6f906132ce565b60405180910390fd5b611b8c60048761105890919063ffffffff16565b9550611ba1868961102f90919063ffffffff16565b87602001906000191690816000191681525050611bc860208761105890919063ffffffff16565b9550611bde600c8761105890919063ffffffff16565b95506002611bf88760388b611a479092919063ffffffff16565b6040518082805190602001908083835b602083101515611c2d5780518252602082019150602081019050602083039250611c08565b6001836020036101000a0380198251168184511680821785525050505050509050019150506020604051808303816000865af1158015611c71573d6000803e3d6000fd5b5050506040513d601f19601f82011682018060405250611c949190810190612a85565b87604001906000191690816000191681525050611cba868961237390919063ffffffff16565b876060019061ffff16908161ffff1681525050611ce160188761105890919063ffffffff16565b9550611cf6868961102f90919063ffffffff16565b87608001906000191690816000191681525050611d1d60208761105890919063ffffffff16565b955060009350611d368689611a3190919063ffffffff16565b63ffffffff169250611d5260048761105890919063ffffffff16565b95505b82841015611f6c57611d7160048761105890919063ffffffff16565b9550611d868689611a3190919063ffffffff16565b915060148263ffffffff16141515611dd3576040517f08c379a0000000000000000000000000000000000000000000000000000000008152600401611dca906133ce565b60405180910390fd5b611de760048761105890919063ffffffff16565b9550611dfc86896124e290919063ffffffff16565b8760c001518860a0015160ff16606481101515611e1557fe5b602002019073ffffffffffffffffffffffffffffffffffffffff16908173ffffffffffffffffffffffffffffffffffffffff1681525050611e6060148761105890919063ffffffff16565b9550611e758689611a3190919063ffffffff16565b905060418163ffffffff16141515611ec2576040517f08c379a0000000000000000000000000000000000000000000000000000000008152600401611eb99061338e565b60405180910390fd5b611ed660048761105890919063ffffffff16565b9550611eee8660418a611a479092919063ffffffff16565b8760e001518860a0015160ff16606481101515611f0757fe5b6020020181905250611f2360448761105890919063ffffffff16565b9550611f4060018860a0015160ff1661105890919063ffffffff16565b8760a0019060ff16908160ff1681525050611f6560648561105890919063ffffffff16565b9350611d55565b505050505050919050565b6000806000606060008060606000806000809054906101000a900473ffffffffffffffffffffffffffffffffffffffff1673ffffffffffffffffffffffffffffffffffffffff1663925f50728b600001516040518263ffffffff167c0100000000000000000000000000000000000000000000000000000000028152600401612000919061344b565b602060405180830381600087803b15801561201a57600080fd5b505af115801561202e573d6000803e3d6000fd5b505050506040513d601f19601f820116820180604052506120529190810190612bdd565b9750600096508960a0015160ff1660405190808252806020026020018201604052801561208e5781602001602082028038833980820191505090505b509550600094505b8960a0015160ff16851015612361578960c00151856064811015156120b757fe5b602002015193508960e00151856064811015156120d057fe5b602002015192506000809054906101000a900473ffffffffffffffffffffffffffffffffffffffff1673ffffffffffffffffffffffffffffffffffffffff1663ddef11608b60000151866040518363ffffffff167c0100000000000000000000000000000000000000000000000000000000028152600401612153929190613466565b602060405180830381600087803b15801561216d57600080fd5b505af1158015612181573d6000803e3d6000fd5b505050506040513d601f19601f820116820180604052506121a59190810190612a33565b15156121b057612356565b73__CryptoUtils___________________________6365a18acf8b6040015185876040518463ffffffff167c010000000000000000000000000000000000000000000000000000000002815260040161220b939291906131d3565b60206040518083038186803b15801561222357600080fd5b505af4158015612237573d6000803e3d6000fd5b505050506040513d601f19601f8201168201806040525061225b9190810190612a33565b151561226657612356565b60019150600090505b848110156122d657858181518110151561228557fe5b9060200190602002015173ffffffffffffffffffffffffffffffffffffffff168473ffffffffffffffffffffffffffffffffffffffff1614156122cb57600091506122d6565b80600101905061226f565b8115156122e257612356565b8386868151811015156122f157fe5b9060200190602002019073ffffffffffffffffffffffffffffffffffffffff16908173ffffffffffffffffffffffffffffffffffffffff168152505061234160018861105890919063ffffffff16565b965087871015156123555760019850612366565b5b846001019450612096565b600098505b5050505050505050919050565b60006123818383600261251a565b905092915050565b6000806123a060028561105890919063ffffffff16565b91506123b8600184038361105890919063ffffffff16565b91506123cd838361255390919063ffffffff16565b90506123e2818361257890919063ffffffff16565b91505092915050565b6000806000806124048787611a3190919063ffffffff16565b63ffffffff16915061242060048861105890919063ffffffff16565b9250612435828461105890919063ffffffff16565b935061244d600186038561105890919063ffffffff16565b9350612462858561255390919063ffffffff16565b9050612477818561257890919063ffffffff16565b93505093509350939050565b600080601483018451101515156124cf576040517f08c379a00000000000000000000000000000000000000000000000000000000081526004016124c69061324e565b60405180910390fd5b8260208501015190508091505092915050565b600080601483018451101515156124f857600080fd5b6c01000000000000000000000000836020860101510490508091505092915050565b6000606061253b612536858588611a479092919063ffffffff16565b612599565b905061254981600085612695565b9150509392505050565b600080821415151561256457600080fd5b818381151561256f57fe5b06905092915050565b60008083831115151561258a57600080fd5b82840390508091505092915050565b606080600083516040519080825280601f01601f1916602001820160405280156125d25781602001602082028038833980820191505090505b509150600090505b835181101561268b5783818151811015156125f157fe5b9060200101517f010000000000000000000000000000000000000000000000000000000000000090047f010000000000000000000000000000000000000000000000000000000000000002826001838751030381518110151561265057fe5b9060200101907effffffffffffffffffffffffffffffffffffffffffffffffffffffffffffff1916908160001a9053508060010190506125da565b8192505050919050565b6000808284018551101515156126e0576040517f08c379a00000000000000000000000000000000000000000000000000000000081526004016126d79061324e565b60405180910390fd5b8383860101519050809150509392505050565b60e060405190810160405280600063ffffffff168152602001600067ffffffffffffffff1681526020016060815260200160006bffffffffffffffffffffffff19168152602001600073ffffffffffffffffffffffffffffffffffffffff16815260200160008152602001600081525090565b60a060405190810160405280600063ffffffff168152602001600067ffffffffffffffff168152602001600063ffffffff168152602001600067ffffffffffffffff168152602001600080191681525090565b6040805190810160405280600063ffffffff168152602001606081525090565b60c0604051908101604052806060815260200160608152602001600067ffffffffffffffff16815260200160006bffffffffffffffffffffffff19168152602001600073ffffffffffffffffffffffffffffffffffffffff168152602001600081525090565b6119c060405190810160405280600063ffffffff1681526020016000801916815260200160008019168152602001600061ffff16815260200160008019168152602001600060ff1681526020016128946128a7565b81526020016128a16128cb565b81525090565b610c8060405190810160405280606490602082028038833980820191505090505090565b610c80604051908101604052806064905b60608152602001906001900390816128dc5790505090565b600082601f830112151561290757600080fd5b813561291a612915826134bc565b61348f565b9150818183526020840193506020810190508385602084028201111561293f57600080fd5b60005b8381101561296f578161295588826129a1565b845260208401935060208301925050600181019050612942565b5050505092915050565b600061298582516135db565b905092915050565b600061299982356135e7565b905092915050565b60006129ad8235613613565b905092915050565b60006129c18251613613565b905092915050565b600082601f83011215156129dc57600080fd5b81356129ef6129ea826134e4565b61348f565b91508082526020830160208301858383011115612a0b57600080fd5b612a1683828461364b565b50505092915050565b6000612a2b825161361d565b905092915050565b600060208284031215612a4557600080fd5b6000612a5384828501612979565b91505092915050565b600060208284031215612a6e57600080fd5b6000612a7c8482850161298d565b91505092915050565b600060208284031215612a9757600080fd5b6000612aa5848285016129b5565b91505092915050565b60008060408385031215612ac157600080fd5b600083013567ffffffffffffffff811115612adb57600080fd5b612ae7858286016129c9565b925050602083013567ffffffffffffffff811115612b0457600080fd5b612b10858286016129c9565b9150509250929050565b60008060008060808587031215612b3057600080fd5b600085013567ffffffffffffffff811115612b4a57600080fd5b612b56878288016129c9565b945050602085013567ffffffffffffffff811115612b7357600080fd5b612b7f878288016129c9565b935050604085013567ffffffffffffffff811115612b9c57600080fd5b612ba8878288016129c9565b925050606085013567ffffffffffffffff811115612bc557600080fd5b612bd1878288016128f4565b91505092959194509250565b600060208284031215612bef57600080fd5b6000612bfd84828501612a1f565b91505092915050565b612c0f8161354b565b82525050565b612c1e8161354b565b82525050565b6000612c2f8261351d565b808452602084019350612c4183613510565b60005b82811015612c7357612c57868351612c9d565b612c608261353e565b9150602086019550600181019050612c44565b50849250505092915050565b612c888161356b565b82525050565b612c9781613577565b82525050565b612ca6816135a3565b82525050565b6000612cb782613528565b808452612ccb81602086016020860161365a565b612cd48161368d565b602085010191505092915050565b612ceb81613627565b82525050565b6000612cfc82613533565b808452612d1081602086016020860161365a565b612d198161368d565b602085010191505092915050565b6000600f82527f496e76616c6964206c656e6774682100000000000000000000000000000000006020830152604082019050919050565b6000601982527f426c6f636b206861736820646f65736e2774206d6174636821000000000000006020830152604082019050919050565b6000601582527f496e636f7272656374206576656e74206e616d652100000000000000000000006020830152604082019050919050565b6000603382527f4d756c7469706c65204576656e7473202d206f6e6c7920612073696e676c652060208301527f6576656e7420697320737570706f7274656421000000000000000000000000006040830152606082019050919050565b6000601282527f496e76616c696420686173682073697a652100000000000000000000000000006020830152604082019050919050565b6000601982527f496e76616c696420657865637574696f6e20726573756c7421000000000000006020830152604082019050919050565b6000601a82527f496e76616c6964204f72627320616464726573732073697a65210000000000006020830152604082019050919050565b6000601e82527f496e76616c696420457468657265756d20616464726573732073697a652100006020830152604082019050919050565b6000601282527f496e76616c6964207369676e61747572652100000000000000000000000000006020830152604082019050919050565b6000603082527f696e76616c696420426c6f636b50726f6f662c2048656c6978206d657373616760208301527f65207479706520213d20434f4d4d4954000000000000000000000000000000006040830152606082019050919050565b6000601782527f496e76616c6964207369676e61747572652073697a65210000000000000000006020830152604082019050919050565b6000601d82527f556e737570706f727465642070726f746f636f6c2076657273696f6e210000006020830152604082019050919050565b6000601582527f496e76616c696420616464726573732073697a652100000000000000000000006020830152604082019050919050565b6000602282527f496e76616c6964207472616e73616374696f6e20726563656970742070726f6f60208301527f66210000000000000000000000000000000000000000000000000000000000006040830152606082019050919050565b600060e0830160008301516130b36000860182613155565b5060208301516130c66020860182613164565b50604083015184820360408601526130de8282612cf1565b91505060608301516130f36060860182612c8e565b5060808301516131066080860182612c06565b5060a083015161311960a0860182613137565b5060c083015161312c60c0860182613137565b508091505092915050565b613140816135ad565b82525050565b61314f81613639565b82525050565b61315e816135b7565b82525050565b61316d816135c7565b82525050565b6000606082019050818103600083015261318d8186612c24565b905061319c6020830185612c9d565b81810360408301526131ae8184612cac565b9050949350505050565b60006020820190506131cd6000830184612c7f565b92915050565b60006060820190506131e86000830186612c9d565b81810360208301526131fa8185612cac565b90506132096040830184612c15565b949350505050565b60006020820190506132266000830184612ce2565b92915050565b600060208201905081810360008301526132468184612cf1565b905092915050565b6000602082019050818103600083015261326781612d27565b9050919050565b6000602082019050818103600083015261328781612d5e565b9050919050565b600060208201905081810360008301526132a781612d95565b9050919050565b600060208201905081810360008301526132c781612dcc565b9050919050565b600060208201905081810360008301526132e781612e29565b9050919050565b6000602082019050818103600083015261330781612e60565b9050919050565b6000602082019050818103600083015261332781612e97565b9050919050565b6000602082019050818103600083015261334781612ece565b9050919050565b6000602082019050818103600083015261336781612f05565b9050919050565b6000602082019050818103600083015261338781612f3c565b9050919050565b600060208201905081810360008301526133a781612f99565b9050919050565b600060208201905081810360008301526133c781612fd0565b9050919050565b600060208201905081810360008301526133e781613007565b9050919050565b600060208201905081810360008301526134078161303e565b9050919050565b60006020820190508181036000830152613428818461309b565b905092915050565b60006020820190506134456000830184613137565b92915050565b60006020820190506134606000830184613146565b92915050565b600060408201905061347b6000830185613146565b6134886020830184612c06565b9392505050565b6000604051905081810181811067ffffffffffffffff821117156134b257600080fd5b8060405250919050565b600067ffffffffffffffff8211156134d357600080fd5b602082029050602081019050919050565b600067ffffffffffffffff8211156134fb57600080fd5b601f19601f8301169050602081019050919050565b6000602082019050919050565b600081519050919050565b600081519050919050565b600081519050919050565b6000602082019050919050565b600073ffffffffffffffffffffffffffffffffffffffff82169050919050565b60008115159050919050565b60007fffffffffffffffffffffffffffffffffffffffff00000000000000000000000082169050919050565b6000819050919050565b6000819050919050565b600063ffffffff82169050919050565b600067ffffffffffffffff82169050919050565b60008115159050919050565b60007fffffffffffffffffffffffffffffffffffffffff00000000000000000000000082169050919050565b6000819050919050565b6000819050919050565b60006136328261354b565b9050919050565b6000613644826135b7565b9050919050565b82818337600083830152505050565b60005b8381101561367857808201518184015260208101905061365d565b83811115613687576000848401525b50505050565b6000601f19601f83011690509190505600a265627a7a723058203a400c56101c6bc54b5d22e5171774e444d36689aebb6f21c74511712ca0d04f6c6578706572696d656e74616cf50037",
  "compiler": {
    "name": "solc",
    "version": "0.4.24+commit.e67f0147.Emscripten.clang"
  },
  "schemaVersion": "2.0.1",
  "updatedAt": "2019-04-01T09:53:23.475Z"
}