{
  "contractName": "BytesLibEx",
  "abi": [
    {
      "constant": true,
      "inputs": [],
      "name": "BYTES20_SIZE",
      "outputs": [
        {
          "name": "",
          "type": "uint256"
        }
      ],
      "payable": false,
      "stateMutability": "view",
      "type": "function"
    },
    {
      "constant": true,
      "inputs": [],
      "name": "UINT32_SIZE",
      "outputs": [
        {
          "name": "",
          "type": "uint256"
        }
      ],
      "payable": false,
      "stateMutability": "view",
      "type": "function"
    },
    {
      "constant": true,
      "inputs": [],
      "name": "UINT64_SIZE",
      "outputs": [
        {
          "name": "",
          "type": "uint256"
        }
      ],
      "payable": false,
      "stateMutability": "view",
      "type": "function"
    },
    {
      "constant": true,
      "inputs": [],
      "name": "UINT16_SIZE",
      "outputs": [
        {
          "name": "",
          "type": "uint256"
        }
      ],
      "payable": false,
      "stateMutability": "view",
      "type": "function"
    },
    {
      "constant": true,
      "inputs": [],
      "name": "UINT256_SIZE",
      "outputs": [
        {
          "name": "",
          "type": "uint256"
        }
      ],
      "payable": false,
      "stateMutability": "view",
      "type": "function"
    }
  ],
  "bytecode": "0x610164610030600b82828239805160001a6073146000811461002057610022565bfe5b5030600052607381538281f3007300000000000000000000000000000000000000003014608060405260043610610084576000357c0100000000000000000000000000000000000000000000000000000000900463ffffffff168063361de5ee14610089578063690ba608146100a75780639c3db9a5146100c5578063b1b4be89146100e3578063eea7f0ab14610101575b600080fd5b61009161011f565b6040518082815260200191505060405180910390f35b6100af610124565b6040518082815260200191505060405180910390f35b6100cd610129565b6040518082815260200191505060405180910390f35b6100eb61012e565b6040518082815260200191505060405180910390f35b610109610133565b6040518082815260200191505060405180910390f35b601481565b600481565b600881565b600281565b6020815600a165627a7a72305820e8657cca0b1f399f0cf58ceb6f296cebb70d9b4456634dfdfe5bdbf24c84e39a0029",
  "compiler": {
    "name": "solc",
    "version": "0.4.24+commit.e67f0147.Emscripten.clang"
  },
  "schemaVersion": "2.0.1",
  "updatedAt": "2019-03-31T17:35:03.125Z"
}