{
  "contractName": "CryptoUtils",
  "abi": [
    {
      "constant": true,
      "inputs": [],
      "name": "UNCOMPRESSED_PUBLIC_KEY_SIZE",
      "outputs": [
        {
          "name": "",
          "type": "uint8"
        }
      ],
      "payable": false,
      "stateMutability": "view",
      "type": "function"
    },
    {
      "constant": true,
      "inputs": [
        {
          "name": "_hash",
          "type": "bytes32"
        },
        {
          "name": "_signature",
          "type": "bytes"
        },
        {
          "name": "_address",
          "type": "address"
        }
      ],
      "name": "isSignatureValid",
      "outputs": [
        {
          "name": "",
          "type": "bool"
        }
      ],
      "payable": false,
      "stateMutability": "pure",
      "type": "function"
    },
    {
      "constant": true,
      "inputs": [
        {
          "name": "_publicKey",
          "type": "bytes"
        }
      ],
      "name": "toAddress",
      "outputs": [
        {
          "name": "",
          "type": "address"
        }
      ],
      "payable": false,
      "stateMutability": "pure",
      "type": "function"
    },
    {
      "constant": true,
      "inputs": [
        {
          "name": "_proof",
          "type": "bytes32[]"
        },
        {
          "name": "_root",
          "type": "bytes32"
        },
        {
          "name": "_leaf",
          "type": "bytes"
        }
      ],
      "name": "isMerkleProofValid",
      "outputs": [
        {
          "name": "",
          "type": "bool"
        }
      ],
      "payable": false,
      "stateMutability": "pure",
      "type": "function"
    },
    {
      "constant": true,
      "inputs": [
        {
          "name": "_proof",
          "type": "bytes32[]"
        },
        {
          "name": "_root",
          "type": "bytes32"
        },
        {
          "name": "_leafHash",
          "type": "bytes32"
        }
      ],
      "name": "isMerkleProofValid",
      "outputs": [
        {
          "name": "",
          "type": "bool"
        }
      ],
      "payable": false,
      "stateMutability": "pure",
      "type": "function"
    }
  ],
  "bytecode": "0x61088a610030600b82828239805160001a6073146000811461002057610022565bfe5b5030600052607381538281f3007300000000000000000000000000000000000000003014608060405260043610610084576000357c0100000000000000000000000000000000000000000000000000000000900463ffffffff1680632d8888691461008957806365a18acf146101255780636df6588e146101c75780636f3e954d1461028c578063ab208d2e146102b0575b600080fd5b6100e3600480360381019080803590602001908201803590602001908080601f016020809104026020016040519081016040528093929190818152602001838380828437820191505050505050919291929050505061033d565b604051808273ffffffffffffffffffffffffffffffffffffffff1673ffffffffffffffffffffffffffffffffffffffff16815260200191505060405180910390f35b6101ad6004803603810190808035600019169060200190929190803590602001908201803590602001908080601f0160208091040260200160405190810160405280939291908181526020018383808284378201915050505050509192919290803573ffffffffffffffffffffffffffffffffffffffff1690602001909291905050506103c5565b604051808215151515815260200191505060405180910390f35b610272600480360381019080803590602001908201803590602001908080602002602001604051908101604052809392919081815260200183836020028082843782019150505050505091929192908035600019169060200190929190803590602001908201803590602001908080601f0160208091040260200160405190810160405280939291908181526020018383808284378201915050505050509192919290505050610485565b604051808215151515815260200191505060405180910390f35b61029461053c565b604051808260ff1660ff16815260200191505060405180910390f35b6103236004803603810190808035906020019082018035906020019080806020026020016040519081016040528093929190818152602001838360200280828437820191505050505050919291929080356000191690602001909291908035600019169060200190929190505050610541565b604051808215151515815260200191505060405180910390f35b6000604060ff16825114151561035657600090506103c0565b816040518082805190602001908083835b60208310151561038c5780518252602082019150602081019050602083039250610367565b6001836020036101000a03801982511681845116808217855250505050505090500191505060405180910390206001900490505b919050565b600080600073ffffffffffffffffffffffffffffffffffffffff168373ffffffffffffffffffffffffffffffffffffffff161415610406576000915061047d565b6104108585610766565b9050600073ffffffffffffffffffffffffffffffffffffffff168173ffffffffffffffffffffffffffffffffffffffff161415801561047a57508273ffffffffffffffffffffffffffffffffffffffff168173ffffffffffffffffffffffffffffffffffffffff16145b91505b509392505050565b600061053384846002856040518082805190602001908083835b6020831015156104c4578051825260208201915060208101905060208303925061049f565b6001836020036101000a0380198251168184511680821785525050505050509050019150506020604051808303816000865af1158015610508573d6000803e3d6000fd5b5050506040513d602081101561051d57600080fd5b8101908080519060200190929190505050610541565b90509392505050565b604081565b600080600080849250865191505b600082111561074f57866001830381518110151561056957fe5b90602001906020020151905080600019168360001916101561066557600283826040516020018083600019166000191681526020018260001916600019168152602001925050506040516020818303038152906040526040518082805190602001908083835b6020831015156105f457805182526020820191506020810190506020830392506105cf565b6001836020036101000a0380198251168184511680821785525050505050509050019150506020604051808303816000865af1158015610638573d6000803e3d6000fd5b5050506040513d602081101561064d57600080fd5b81019080805190602001909291905050509250610741565b600281846040516020018083600019166000191681526020018260001916600019168152602001925050506040516020818303038152906040526040518082805190602001908083835b6020831015156106d457805182526020820191506020810190506020830392506106af565b6001836020036101000a0380198251168184511680821785525050505050509050019150506020604051808303816000865af1158015610718573d6000803e3d6000fd5b5050506040513d602081101561072d57600080fd5b810190808051906020019092919050505092505b81806001900392505061054f565b856000191683600019161493505050509392505050565b600080600080604185511415156107805760009350610855565b6020850151925060408501519150606085015160001a9050601b8160ff1610156107ab57601b810190505b601b8160ff16141580156107c35750601c8160ff1614155b156107d15760009350610855565b600186828585604051600081526020016040526040518085600019166000191681526020018460ff1660ff1681526020018360001916600019168152602001826000191660001916815260200194505050505060206040516020810390808403906000865af1158015610848573d6000803e3d6000fd5b5050506020604051035193505b505050929150505600a165627a7a72305820b812730b818a1bd550e442918ef700e91b7e469bad4d13e5c3c86ca8ffe6e79c0029",
  "compiler": {
    "name": "solc",
    "version": "0.4.24+commit.e67f0147.Emscripten.clang"
  },
  "schemaVersion": "2.0.1",
  "updatedAt": "2019-03-31T17:35:03.127Z"
}