{
  "contractName": "Federation",
  "abi": [
    {
      "constant": true,
      "inputs": [],
      "name": "MAX_FEDERATION_MEMBERS",
      "outputs": [
        {
          "name": "",
          "type": "uint256"
        }
      ],
      "payable": false,
      "stateMutability": "view",
      "type": "function"
    },
    {
      "constant": true,
      "inputs": [
        {
          "name": "",
          "type": "uint256"
        },
        {
          "name": "",
          "type": "uint256"
        }
      ],
      "name": "membersByRevision",
      "outputs": [
        {
          "name": "",
          "type": "address"
        }
      ],
      "payable": false,
      "stateMutability": "view",
      "type": "function"
    },
    {
      "constant": true,
      "inputs": [
        {
          "name": "",
          "type": "uint256"
        }
      ],
      "name": "members",
      "outputs": [
        {
          "name": "",
          "type": "address"
        }
      ],
      "payable": false,
      "stateMutability": "view",
      "type": "function"
    },
    {
      "constant": false,
      "inputs": [],
      "name": "renounceOwnership",
      "outputs": [],
      "payable": false,
      "stateMutability": "nonpayable",
      "type": "function"
    },
    {
      "constant": true,
      "inputs": [],
      "name": "owner",
      "outputs": [
        {
          "name": "",
          "type": "address"
        }
      ],
      "payable": false,
      "stateMutability": "view",
      "type": "function"
    },
    {
      "constant": true,
      "inputs": [],
      "name": "isOwner",
      "outputs": [
        {
          "name": "",
          "type": "bool"
        }
      ],
      "payable": false,
      "stateMutability": "view",
      "type": "function"
    },
    {
      "constant": true,
      "inputs": [],
      "name": "federationRevision",
      "outputs": [
        {
          "name": "",
          "type": "uint256"
        }
      ],
      "payable": false,
      "stateMutability": "view",
      "type": "function"
    },
    {
      "constant": true,
      "inputs": [],
      "name": "subscriptionManager",
      "outputs": [
        {
          "name": "",
          "type": "address"
        }
      ],
      "payable": false,
      "stateMutability": "view",
      "type": "function"
    },
    {
      "constant": false,
      "inputs": [
        {
          "name": "newOwner",
          "type": "address"
        }
      ],
      "name": "transferOwnership",
      "outputs": [],
      "payable": false,
      "stateMutability": "nonpayable",
      "type": "function"
    },
    {
      "constant": true,
      "inputs": [],
      "name": "VERSION",
      "outputs": [
        {
          "name": "",
          "type": "uint256"
        }
      ],
      "payable": false,
      "stateMutability": "view",
      "type": "function"
    },
    {
      "inputs": [
        {
          "name": "_members",
          "type": "address[]"
        }
      ],
      "payable": false,
      "stateMutability": "nonpayable",
      "type": "constructor"
    },
    {
      "anonymous": false,
      "inputs": [
        {
          "indexed": true,
          "name": "member",
          "type": "address"
        }
      ],
      "name": "MemberAdded",
      "type": "event"
    },
    {
      "anonymous": false,
      "inputs": [
        {
          "indexed": true,
          "name": "member",
          "type": "address"
        }
      ],
      "name": "MemberRemoved",
      "type": "event"
    },
    {
      "anonymous": false,
      "inputs": [
        {
          "indexed": true,
          "name": "previousOwner",
          "type": "address"
        },
        {
          "indexed": true,
          "name": "newOwner",
          "type": "address"
        }
      ],
      "name": "OwnershipTransferred",
      "type": "event"
    },
    {
      "constant": true,
      "inputs": [],
      "name": "getMembers",
      "outputs": [
        {
          "name": "",
          "type": "address[]"
        }
      ],
      "payable": false,
      "stateMutability": "view",
      "type": "function"
    },
    {
      "constant": true,
      "inputs": [],
      "name": "getConsensusThreshold",
      "outputs": [
        {
          "name": "",
          "type": "uint256"
        }
      ],
      "payable": false,
      "stateMutability": "view",
      "type": "function"
    },
    {
      "constant": true,
      "inputs": [],
      "name": "getFederationRevision",
      "outputs": [
        {
          "name": "",
          "type": "uint256"
        }
      ],
      "payable": false,
      "stateMutability": "view",
      "type": "function"
    },
    {
      "constant": true,
      "inputs": [
        {
          "name": "_federationRevision",
          "type": "uint256"
        },
        {
          "name": "_member",
          "type": "address"
        }
      ],
      "name": "isMemberByRevision",
      "outputs": [
        {
          "name": "",
          "type": "bool"
        }
      ],
      "payable": false,
      "stateMutability": "view",
      "type": "function"
    },
    {
      "constant": true,
      "inputs": [
        {
          "name": "_federationRevision",
          "type": "uint256"
        }
      ],
      "name": "getMembersByRevision",
      "outputs": [
        {
          "name": "",
          "type": "address[]"
        }
      ],
      "payable": false,
      "stateMutability": "view",
      "type": "function"
    },
    {
      "constant": true,
      "inputs": [
        {
          "name": "_federationRevision",
          "type": "uint256"
        }
      ],
      "name": "getConsensusThresholdByRevision",
      "outputs": [
        {
          "name": "",
          "type": "uint256"
        }
      ],
      "payable": false,
      "stateMutability": "view",
      "type": "function"
    },
    {
      "constant": false,
      "inputs": [
        {
          "name": "_member",
          "type": "address"
        }
      ],
      "name": "addMember",
      "outputs": [],
      "payable": false,
      "stateMutability": "nonpayable",
      "type": "function"
    },
    {
      "constant": false,
      "inputs": [
        {
          "name": "_member",
          "type": "address"
        }
      ],
      "name": "removeMember",
      "outputs": [],
      "payable": false,
      "stateMutability": "nonpayable",
      "type": "function"
    },
    {
      "constant": false,
      "inputs": [
        {
          "name": "_i",
          "type": "uint256"
        }
      ],
      "name": "removeMemberByIndex",
      "outputs": [],
      "payable": false,
      "stateMutability": "nonpayable",
      "type": "function"
    },
    {
      "constant": false,
      "inputs": [
        {
          "name": "_newSubscriptionManager",
          "type": "address"
        }
      ],
      "name": "upgradeSubscriptionManager",
      "outputs": [],
      "payable": false,
      "stateMutability": "nonpayable",
      "type": "function"
    },
    {
      "constant": true,
      "inputs": [
        {
          "name": "_member",
          "type": "address"
        }
      ],
      "name": "isMember",
      "outputs": [
        {
          "name": "",
          "type": "bool"
        }
      ],
      "payable": false,
      "stateMutability": "view",
      "type": "function"
    }
  ],
  "bytecode": "0x608060405260006003553480156200001657600080fd5b5060405162001c2838038062001c2883398101806040528101908080518201929190505050336000806101000a81548173ffffffffffffffffffffffffffffffffffffffff021916908373ffffffffffffffffffffffffffffffffffffffff1602179055506000809054906101000a900473ffffffffffffffffffffffffffffffffffffffff1673ffffffffffffffffffffffffffffffffffffffff16600073ffffffffffffffffffffffffffffffffffffffff167f8be0079c531659141344cd1fd0a4f28419497f9722a3daafe3b4186f6b6457e060405160405180910390a36200011181620001a6640100000000026401000000009004565b151562000186576040517f08c379a00000000000000000000000000000000000000000000000000000000081526004018080602001828103825260208152602001807f496e76616c69642066656465726174696f6e206d656d62657273206c6973742181525060200191505060405180910390fd5b80600290805190602001906200019e929190620002d7565b5050620003ac565b60008060008084511480620001bc575060648451115b15620001cc5760009250620002d0565b600091505b8351821015620002cb57600073ffffffffffffffffffffffffffffffffffffffff1684838151811015156200020257fe5b9060200190602002015173ffffffffffffffffffffffffffffffffffffffff161415620002335760009250620002d0565b6001820190505b8351811015620002bf5783818151811015156200025357fe5b9060200190602002015173ffffffffffffffffffffffffffffffffffffffff1684838151811015156200028257fe5b9060200190602002015173ffffffffffffffffffffffffffffffffffffffff161415620002b35760009250620002d0565b8060010190506200023a565b816001019150620001d1565b600192505b5050919050565b82805482825590600052602060002090810192821562000353579160200282015b82811115620003525782518260006101000a81548173ffffffffffffffffffffffffffffffffffffffff021916908373ffffffffffffffffffffffffffffffffffffffff16021790555091602001919060010190620002f8565b5b50905062000362919062000366565b5090565b620003a991905b80821115620003a557600081816101000a81549073ffffffffffffffffffffffffffffffffffffffff0219169055506001016200036d565b5090565b90565b61186c80620003bc6000396000f30060806040526004361061011d576000357c0100000000000000000000000000000000000000000000000000000000900463ffffffff1680630113540d146101225780630b1ca49a1461014f578063214c540014610192578063265751cf146101bd578063549ad63d146101e85780635daf08ca1461025f578063715018a6146102cc5780638da5cb5b146102e35780638f32d59b1461033a5780638f931c3614610369578063925f5072146103945780639eab5253146103d5578063a230c52414610441578063bf158fd21461049c578063c85c0124146104f3578063ca6d56dc14610575578063d42791e1146105b8578063ddef1160146105e3578063f2fde38b14610648578063ff62b9fc1461068b578063ffa1ad74146106ce575b600080fd5b34801561012e57600080fd5b5061014d600480360381019080803590602001909291905050506106f9565b005b34801561015b57600080fd5b50610190600480360381019080803573ffffffffffffffffffffffffffffffffffffffff16906020019092919050505061087c565b005b34801561019e57600080fd5b506101a7610b45565b6040518082815260200191505060405180910390f35b3480156101c957600080fd5b506101d2610b4f565b6040518082815260200191505060405180910390f35b3480156101f457600080fd5b5061021d6004803603810190808035906020019092919080359060200190929190505050610b54565b604051808273ffffffffffffffffffffffffffffffffffffffff1673ffffffffffffffffffffffffffffffffffffffff16815260200191505060405180910390f35b34801561026b57600080fd5b5061028a60048036038101908080359060200190929190505050610ba1565b604051808273ffffffffffffffffffffffffffffffffffffffff1673ffffffffffffffffffffffffffffffffffffffff16815260200191505060405180910390f35b3480156102d857600080fd5b506102e1610bdf565b005b3480156102ef57600080fd5b506102f8610cb1565b604051808273ffffffffffffffffffffffffffffffffffffffff1673ffffffffffffffffffffffffffffffffffffffff16815260200191505060405180910390f35b34801561034657600080fd5b5061034f610cda565b604051808215151515815260200191505060405180910390f35b34801561037557600080fd5b5061037e610d31565b6040518082815260200191505060405180910390f35b3480156103a057600080fd5b506103bf60048036038101908080359060200190929190505050610d37565b6040518082815260200191505060405180910390f35b3480156103e157600080fd5b506103ea610d51565b6040518080602001828103825283818151815260200191508051906020019060200280838360005b8381101561042d578082015181840152602081019050610412565b505050509050019250505060405180910390f35b34801561044d57600080fd5b50610482600480360381019080803573ffffffffffffffffffffffffffffffffffffffff169060200190929190505050610ddf565b604051808215151515815260200191505060405180910390f35b3480156104a857600080fd5b506104b1610e78565b604051808273ffffffffffffffffffffffffffffffffffffffff1673ffffffffffffffffffffffffffffffffffffffff16815260200191505060405180910390f35b3480156104ff57600080fd5b5061051e60048036038101908080359060200190929190505050610e9e565b6040518080602001828103825283818151815260200191508051906020019060200280838360005b83811015610561578082015181840152602081019050610546565b505050509050019250505060405180910390f35b34801561058157600080fd5b506105b6600480360381019080803573ffffffffffffffffffffffffffffffffffffffff169060200190929190505050610f50565b005b3480156105c457600080fd5b506105cd611266565b6040518082815260200191505060405180910390f35b3480156105ef57600080fd5b5061062e60048036038101908080359060200190929190803573ffffffffffffffffffffffffffffffffffffffff1690602001909291905050506112fc565b604051808215151515815260200191505060405180910390f35b34801561065457600080fd5b50610689600480360381019080803573ffffffffffffffffffffffffffffffffffffffff169060200190929190505050611318565b005b34801561069757600080fd5b506106cc600480360381019080803573ffffffffffffffffffffffffffffffffffffffff169060200190929190505050611337565b005b3480156106da57600080fd5b506106e36114bc565b6040518082815260200191505060405180910390f35b60028054905081101515610775576040517f08c379a00000000000000000000000000000000000000000000000000000000081526004018080602001828103825260138152602001807f496e646578206f7574206f662072616e6765210000000000000000000000000081525060200191505060405180910390fd5b5b6001600280549050038110156108275760026001820181548110151561079857fe5b9060005260206000200160009054906101000a900473ffffffffffffffffffffffffffffffffffffffff166002828154811015156107d257fe5b9060005260206000200160006101000a81548173ffffffffffffffffffffffffffffffffffffffff021916908373ffffffffffffffffffffffffffffffffffffffff1602179055508080600101915050610776565b60028181548110151561083657fe5b9060005260206000200160006101000a81549073ffffffffffffffffffffffffffffffffffffffff02191690556002805480919060019003610878919061175a565b5050565b600080610887610cda565b151561089257600080fd5b600073ffffffffffffffffffffffffffffffffffffffff168373ffffffffffffffffffffffffffffffffffffffff1614151515610937576040517f08c379a00000000000000000000000000000000000000000000000000000000081526004018080602001828103825260168152602001807f41646472657373206d757374206e6f742062652030210000000000000000000081525060200191505060405180910390fd5b60006001600280549050031115156109b7576040517f08c379a00000000000000000000000000000000000000000000000000000000081526004018080602001828103825260198152602001807f43616e27742072656d6f766520616c6c206d656d62657273210000000000000081525060200191505060405180910390fd5b610a476002805480602002602001604051908101604052809291908181526020018280548015610a3c57602002820191906000526020600020905b8160009054906101000a900473ffffffffffffffffffffffffffffffffffffffff1673ffffffffffffffffffffffffffffffffffffffff16815260200190600101908083116109f2575b5050505050846114c1565b91509150801515610ac0576040517f08c379a00000000000000000000000000000000000000000000000000000000081526004018080602001828103825260158152602001807f4d656d62657220646f65736e277420657869737421000000000000000000000081525060200191505060405180910390fd5b60026004600060036000815480929190600101919050558152602001908152602001600020908054610af3929190611786565b50610afd826106f9565b8273ffffffffffffffffffffffffffffffffffffffff167f6e76fb4c77256006d9c38ec7d82b45a8c8f3c27b1d6766fffc42dfb8de68449260405160405180910390a2505050565b6000600354905090565b606481565b600460205281600052604060002081815481101515610b6f57fe5b906000526020600020016000915091509054906101000a900473ffffffffffffffffffffffffffffffffffffffff1681565b600281815481101515610bb057fe5b906000526020600020016000915054906101000a900473ffffffffffffffffffffffffffffffffffffffff1681565b610be7610cda565b1515610bf257600080fd5b600073ffffffffffffffffffffffffffffffffffffffff166000809054906101000a900473ffffffffffffffffffffffffffffffffffffffff1673ffffffffffffffffffffffffffffffffffffffff167f8be0079c531659141344cd1fd0a4f28419497f9722a3daafe3b4186f6b6457e060405160405180910390a360008060006101000a81548173ffffffffffffffffffffffffffffffffffffffff021916908373ffffffffffffffffffffffffffffffffffffffff160217905550565b60008060009054906101000a900473ffffffffffffffffffffffffffffffffffffffff16905090565b60008060009054906101000a900473ffffffffffffffffffffffffffffffffffffffff1673ffffffffffffffffffffffffffffffffffffffff163373ffffffffffffffffffffffffffffffffffffffff1614905090565b60035481565b6000610d4a610d4583610e9e565b611545565b9050919050565b60606002805480602002602001604051908101604052809291908181526020018280548015610dd557602002820191906000526020600020905b8160009054906101000a900473ffffffffffffffffffffffffffffffffffffffff1673ffffffffffffffffffffffffffffffffffffffff1681526020019060010190808311610d8b575b5050505050905090565b6000610e716002805480602002602001604051908101604052809291908181526020018280548015610e6657602002820191906000526020600020905b8160009054906101000a900473ffffffffffffffffffffffffffffffffffffffff1673ffffffffffffffffffffffffffffffffffffffff1681526020019060010190808311610e1c575b50505050508361159c565b9050919050565b600160009054906101000a900473ffffffffffffffffffffffffffffffffffffffff1681565b60608160035414610ec15760046000838152602001908152602001600020610ec4565b60025b805480602002602001604051908101604052809291908181526020018280548015610f4457602002820191906000526020600020905b8160009054906101000a900473ffffffffffffffffffffffffffffffffffffffff1673ffffffffffffffffffffffffffffffffffffffff1681526020019060010190808311610efa575b50505050509050919050565b6000610f5a610cda565b1515610f6557600080fd5b600073ffffffffffffffffffffffffffffffffffffffff168273ffffffffffffffffffffffffffffffffffffffff161415151561100a576040517f08c379a00000000000000000000000000000000000000000000000000000000081526004018080602001828103825260168152602001807f41646472657373206d757374206e6f742062652030210000000000000000000081525060200191505060405180910390fd5b60646001600280549050011115151561108b576040517f08c379a00000000000000000000000000000000000000000000000000000000081526004018080602001828103825260178152602001807f43616e277420616464206d6f7265206d656d626572732100000000000000000081525060200191505060405180910390fd5b600090505b600280549050811015611185578173ffffffffffffffffffffffffffffffffffffffff166002828154811015156110c357fe5b9060005260206000200160009054906101000a900473ffffffffffffffffffffffffffffffffffffffff1673ffffffffffffffffffffffffffffffffffffffff161415151561117a576040517f08c379a000000000000000000000000000000000000000000000000000000000815260040180806020018281038252601d8152602001807f43616e2774206164642061206475706c6963617465206d656d6265722100000081525060200191505060405180910390fd5b806001019050611090565b600260046000600360008154809291906001019190505581526020019081526020016000209080546111b8929190611786565b5060028290806001815401808255809150509060018203906000526020600020016000909192909190916101000a81548173ffffffffffffffffffffffffffffffffffffffff021916908373ffffffffffffffffffffffffffffffffffffffff160217905550508173ffffffffffffffffffffffffffffffffffffffff167fb251eb052afc73ffd02ffe85ad79990a8b3fed60d76dbc2fa2fdd7123dffd91460405160405180910390a25050565b60006112f760028054806020026020016040519081016040528092919081815260200182805480156112ed57602002820191906000526020600020905b8160009054906101000a900473ffffffffffffffffffffffffffffffffffffffff1673ffffffffffffffffffffffffffffffffffffffff16815260200190600101908083116112a3575b5050505050611545565b905090565b600061131061130a84610e9e565b8361159c565b905092915050565b611320610cda565b151561132b57600080fd5b611334816115b6565b50565b61133f610cda565b151561134a57600080fd5b600073ffffffffffffffffffffffffffffffffffffffff16600160009054906101000a900473ffffffffffffffffffffffffffffffffffffffff1673ffffffffffffffffffffffffffffffffffffffff1614151561147857600160009054906101000a900473ffffffffffffffffffffffffffffffffffffffff1673ffffffffffffffffffffffffffffffffffffffff16630900f010826040518263ffffffff167c0100000000000000000000000000000000000000000000000000000000028152600401808273ffffffffffffffffffffffffffffffffffffffff1673ffffffffffffffffffffffffffffffffffffffff168152602001915050600060405180830381600087803b15801561145f57600080fd5b505af1158015611473573d6000803e3d6000fd5b505050505b80600160006101000a81548173ffffffffffffffffffffffffffffffffffffffff021916908373ffffffffffffffffffffffffffffffffffffffff16021790555050565b600181565b60008060008090505b8451811015611535578373ffffffffffffffffffffffffffffffffffffffff1685828151811015156114f857fe5b9060200190602002015173ffffffffffffffffffffffffffffffffffffffff16141561152a578060019250925061153d565b8060010190506114ca565b806000925092505b509250929050565b600061159560036115876001611579600361156b600289516116b090919063ffffffff16565b6116ee90919063ffffffff16565b61170f90919063ffffffff16565b61173090919063ffffffff16565b9050919050565b6000806115a984846114c1565b9150508091505092915050565b600073ffffffffffffffffffffffffffffffffffffffff168173ffffffffffffffffffffffffffffffffffffffff16141515156115f257600080fd5b8073ffffffffffffffffffffffffffffffffffffffff166000809054906101000a900473ffffffffffffffffffffffffffffffffffffffff1673ffffffffffffffffffffffffffffffffffffffff167f8be0079c531659141344cd1fd0a4f28419497f9722a3daafe3b4186f6b6457e060405160405180910390a3806000806101000a81548173ffffffffffffffffffffffffffffffffffffffff021916908373ffffffffffffffffffffffffffffffffffffffff16021790555050565b60008060008414156116c557600091506116e7565b82840290508284828115156116d657fe5b041415156116e357600080fd5b8091505b5092915050565b600080828401905083811015151561170557600080fd5b8091505092915050565b60008083831115151561172157600080fd5b82840390508091505092915050565b60008060008311151561174257600080fd5b828481151561174d57fe5b0490508091505092915050565b8154818355818111156117815781836000526020600020918201910161178091906117d8565b5b505050565b8280548282559060005260206000209081019282156117c75760005260206000209182015b828111156117c65782548255916001019190600101906117ab565b5b5090506117d491906117fd565b5090565b6117fa91905b808211156117f65760008160009055506001016117de565b5090565b90565b61183d91905b8082111561183957600081816101000a81549073ffffffffffffffffffffffffffffffffffffffff021916905550600101611803565b5090565b905600a165627a7a723058209e7c3cdf82d33c0a3b39199fdcbc3110d5f42570e78952ba604f650347d351640029",
  "compiler": {
    "name": "solc",
    "version": "0.4.24+commit.e67f0147.Emscripten.clang"
  },
  "schemaVersion": "2.0.1",
  "updatedAt": "2019-04-01T09:53:23.428Z"
}