{
  "contractName": "SubscriptionManager",
  "abi": [
    {
      "constant": true,
      "inputs": [],
      "name": "EMPTY",
      "outputs": [
        {
          "name": "",
          "type": "bytes32"
        }
      ],
      "payable": false,
      "stateMutability": "view",
      "type": "function"
    },
    {
      "constant": false,
      "inputs": [
        {
          "name": "_newContract",
          "type": "address"
        }
      ],
      "name": "upgrade",
      "outputs": [],
      "payable": false,
      "stateMutability": "nonpayable",
      "type": "function"
    },
    {
      "constant": true,
      "inputs": [],
      "name": "minimalMonthlySubscription",
      "outputs": [
        {
          "name": "",
          "type": "uint256"
        }
      ],
      "payable": false,
      "stateMutability": "view",
      "type": "function"
    },
    {
      "constant": true,
      "inputs": [],
      "name": "federation",
      "outputs": [
        {
          "name": "",
          "type": "address"
        }
      ],
      "payable": false,
      "stateMutability": "view",
      "type": "function"
    },
    {
      "constant": false,
      "inputs": [],
      "name": "renounceOwnership",
      "outputs": [],
      "payable": false,
      "stateMutability": "nonpayable",
      "type": "function"
    },
    {
      "constant": true,
      "inputs": [],
      "name": "owner",
      "outputs": [
        {
          "name": "",
          "type": "address"
        }
      ],
      "payable": false,
      "stateMutability": "view",
      "type": "function"
    },
    {
      "constant": true,
      "inputs": [],
      "name": "isOwner",
      "outputs": [
        {
          "name": "",
          "type": "bool"
        }
      ],
      "payable": false,
      "stateMutability": "view",
      "type": "function"
    },
    {
      "constant": true,
      "inputs": [
        {
          "name": "",
          "type": "uint16"
        },
        {
          "name": "",
          "type": "uint8"
        }
      ],
      "name": "subscriptions",
      "outputs": [
        {
          "name": "totalTokens",
          "type": "uint256"
        }
      ],
      "payable": false,
      "stateMutability": "view",
      "type": "function"
    },
    {
      "constant": true,
      "inputs": [],
      "name": "orbs",
      "outputs": [
        {
          "name": "",
          "type": "address"
        }
      ],
      "payable": false,
      "stateMutability": "view",
      "type": "function"
    },
    {
      "constant": false,
      "inputs": [
        {
          "name": "newOwner",
          "type": "address"
        }
      ],
      "name": "transferOwnership",
      "outputs": [],
      "payable": false,
      "stateMutability": "nonpayable",
      "type": "function"
    },
    {
      "constant": true,
      "inputs": [],
      "name": "VERSION",
      "outputs": [
        {
          "name": "",
          "type": "uint256"
        }
      ],
      "payable": false,
      "stateMutability": "view",
      "type": "function"
    },
    {
      "inputs": [
        {
          "name": "_orbs",
          "type": "address"
        },
        {
          "name": "_federation",
          "type": "address"
        },
        {
          "name": "_minimalMonthlySubscription",
          "type": "uint256"
        }
      ],
      "payable": false,
      "stateMutability": "nonpayable",
      "type": "constructor"
    },
    {
      "anonymous": false,
      "inputs": [
        {
          "indexed": true,
          "name": "subscriber",
          "type": "address"
        },
        {
          "indexed": true,
          "name": "id",
          "type": "bytes32"
        },
        {
          "indexed": false,
          "name": "value",
          "type": "uint256"
        },
        {
          "indexed": false,
          "name": "startFrom",
          "type": "uint256"
        }
      ],
      "name": "Subscribed",
      "type": "event"
    },
    {
      "anonymous": false,
      "inputs": [
        {
          "indexed": true,
          "name": "federationMember",
          "type": "address"
        },
        {
          "indexed": false,
          "name": "value",
          "type": "uint256"
        }
      ],
      "name": "DistributedFees",
      "type": "event"
    },
    {
      "anonymous": false,
      "inputs": [
        {
          "indexed": true,
          "name": "previousOwner",
          "type": "address"
        },
        {
          "indexed": true,
          "name": "newOwner",
          "type": "address"
        }
      ],
      "name": "OwnershipTransferred",
      "type": "event"
    },
    {
      "constant": true,
      "inputs": [
        {
          "name": "_id",
          "type": "bytes32"
        }
      ],
      "name": "getSubscriptionData",
      "outputs": [
        {
          "name": "id",
          "type": "bytes32"
        },
        {
          "name": "profile",
          "type": "string"
        },
        {
          "name": "startTime",
          "type": "uint256"
        },
        {
          "name": "tokens",
          "type": "uint256"
        }
      ],
      "payable": false,
      "stateMutability": "view",
      "type": "function"
    },
    {
      "constant": true,
      "inputs": [
        {
          "name": "_id",
          "type": "bytes32"
        },
        {
          "name": "_year",
          "type": "uint16"
        },
        {
          "name": "_month",
          "type": "uint8"
        }
      ],
      "name": "getSubscriptionDataByTime",
      "outputs": [
        {
          "name": "id",
          "type": "bytes32"
        },
        {
          "name": "profile",
          "type": "string"
        },
        {
          "name": "startTime",
          "type": "uint256"
        },
        {
          "name": "tokens",
          "type": "uint256"
        }
      ],
      "payable": false,
      "stateMutability": "view",
      "type": "function"
    },
    {
      "constant": false,
      "inputs": [],
      "name": "distributeFees",
      "outputs": [],
      "payable": false,
      "stateMutability": "nonpayable",
      "type": "function"
    },
    {
      "constant": false,
      "inputs": [
        {
          "name": "_year",
          "type": "uint16"
        },
        {
          "name": "_month",
          "type": "uint8"
        }
      ],
      "name": "distributeFees",
      "outputs": [],
      "payable": false,
      "stateMutability": "nonpayable",
      "type": "function"
    },
    {
      "constant": false,
      "inputs": [
        {
          "name": "_id",
          "type": "bytes32"
        },
        {
          "name": "_profile",
          "type": "string"
        },
        {
          "name": "_value",
          "type": "uint256"
        }
      ],
      "name": "subscribeForCurrentMonth",
      "outputs": [],
      "payable": false,
      "stateMutability": "nonpayable",
      "type": "function"
    },
    {
      "constant": false,
      "inputs": [
        {
          "name": "_id",
          "type": "bytes32"
        },
        {
          "name": "_profile",
          "type": "string"
        },
        {
          "name": "_value",
          "type": "uint256"
        }
      ],
      "name": "subscribeForNextMonth",
      "outputs": [],
      "payable": false,
      "stateMutability": "nonpayable",
      "type": "function"
    }
  ],
  "bytecode": "0x608060405234801561001057600080fd5b50604051606080612351833981018060405281019080805190602001909291908051906020019092919080519060200190929190505050336000806101000a81548173ffffffffffffffffffffffffffffffffffffffff021916908373ffffffffffffffffffffffffffffffffffffffff1602179055506000809054906101000a900473ffffffffffffffffffffffffffffffffffffffff1673ffffffffffffffffffffffffffffffffffffffff16600073ffffffffffffffffffffffffffffffffffffffff167f8be0079c531659141344cd1fd0a4f28419497f9722a3daafe3b4186f6b6457e060405160405180910390a3600073ffffffffffffffffffffffffffffffffffffffff168373ffffffffffffffffffffffffffffffffffffffff16141515156101a8576040517f08c379a00000000000000000000000000000000000000000000000000000000081526004018080602001828103825260168152602001807f41646472657373206d757374206e6f742062652030210000000000000000000081525060200191505060405180910390fd5b600073ffffffffffffffffffffffffffffffffffffffff168273ffffffffffffffffffffffffffffffffffffffff161415151561024d576040517f08c379a00000000000000000000000000000000000000000000000000000000081526004018080602001828103825260198152602001807f46656465726174696f6e206d757374206e6f742062652030210000000000000081525060200191505060405180910390fd5b600081141515156102ec576040517f08c379a00000000000000000000000000000000000000000000000000000000081526004018080602001828103825260328152602001807f4d696e696d616c20737562736372697074696f6e2076616c7565206d7573742081526020017f62652067726561746572207468616e203021000000000000000000000000000081525060400191505060405180910390fd5b82600160006101000a81548173ffffffffffffffffffffffffffffffffffffffff021916908373ffffffffffffffffffffffffffffffffffffffff16021790555081600260006101000a81548173ffffffffffffffffffffffffffffffffffffffff021916908373ffffffffffffffffffffffffffffffffffffffff16021790555080600381905550505050611fca806103876000396000f3006080604052600436106100f1576000357c0100000000000000000000000000000000000000000000000000000000900463ffffffff16806302399125146100f65780630900f0101461012957806319de73e71461016c57806366c8611914610197578063715018a6146101ee5780638da5cb5b146102055780638f32d59b1461025c578063a466ad901461028b578063b1c901221461030c578063b7f425e1146103ee578063bb57ad2014610440578063c005063714610457578063cacb767b1461051e578063cc3ef92d1461059f578063cdf5195b146105dd578063f2fde38b14610634578063ffa1ad7414610677575b600080fd5b34801561010257600080fd5b5061010b6106a2565b60405180826000191660001916815260200191505060405180910390f35b34801561013557600080fd5b5061016a600480360381019080803573ffffffffffffffffffffffffffffffffffffffff1690602001909291905050506106aa565b005b34801561017857600080fd5b50610181610a1a565b6040518082815260200191505060405180910390f35b3480156101a357600080fd5b506101ac610a20565b604051808273ffffffffffffffffffffffffffffffffffffffff1673ffffffffffffffffffffffffffffffffffffffff16815260200191505060405180910390f35b3480156101fa57600080fd5b50610203610a46565b005b34801561021157600080fd5b5061021a610b18565b604051808273ffffffffffffffffffffffffffffffffffffffff1673ffffffffffffffffffffffffffffffffffffffff16815260200191505060405180910390f35b34801561026857600080fd5b50610271610b41565b604051808215151515815260200191505060405180910390f35b34801561029757600080fd5b5061030a6004803603810190808035600019169060200190929190803590602001908201803590602001908080601f016020809104026020016040519081016040528093929190818152602001838380828437820191505050505050919291929080359060200190929190505050610b98565b005b34801561031857600080fd5b506103566004803603810190808035600019169060200190929190803561ffff169060200190929190803560ff169060200190929190505050610ba9565b60405180856000191660001916815260200180602001848152602001838152602001828103825285818151815260200191508051906020019080838360005b838110156103b0578082015181840152602081019050610395565b50505050905090810190601f1680156103dd5780820380516001836020036101000a031916815260200191505b509550505050505060405180910390f35b3480156103fa57600080fd5b5061042a600480360381019080803561ffff169060200190929190803560ff169060200190929190505050610d8c565b6040518082815260200191505060405180910390f35b34801561044c57600080fd5b50610455610db7565b005b34801561046357600080fd5b506104866004803603810190808035600019169060200190929190505050610dd8565b60405180856000191660001916815260200180602001848152602001838152602001828103825285818151815260200191508051906020019080838360005b838110156104e05780820151818401526020810190506104c5565b50505050905090810190601f16801561050d5780820380516001836020036101000a031916815260200191505b509550505050505060405180910390f35b34801561052a57600080fd5b5061059d6004803603810190808035600019169060200190929190803590602001908201803590602001908080601f016020809104026020016040519081016040528093929190818152602001838380828437820191505050505050919291929080359060200190929190505050610e92565b005b3480156105ab57600080fd5b506105db600480360381019080803561ffff169060200190929190803560ff169060200190929190505050611045565b005b3480156105e957600080fd5b506105f2611618565b604051808273ffffffffffffffffffffffffffffffffffffffff1673ffffffffffffffffffffffffffffffffffffffff16815260200191505060405180910390f35b34801561064057600080fd5b50610675600480360381019080803573ffffffffffffffffffffffffffffffffffffffff16906020019092919050505061163e565b005b34801561068357600080fd5b5061068c61165d565b6040518082815260200191505060405180910390f35b600060010281565b6106b2610b41565b15156106bd57600080fd5b600073ffffffffffffffffffffffffffffffffffffffff168173ffffffffffffffffffffffffffffffffffffffff1614151515610762576040517f08c379a00000000000000000000000000000000000000000000000000000000081526004018080602001828103825260168152602001807f41646472657373206d757374206e6f742062652030210000000000000000000081525060200191505060405180910390fd5b3073ffffffffffffffffffffffffffffffffffffffff168173ffffffffffffffffffffffffffffffffffffffff161415151561082c576040517f08c379a00000000000000000000000000000000000000000000000000000000081526004018080602001828103825260238152602001807f43616e2774207570677261646520746f207468652073616d6520636f6e74726181526020017f637421000000000000000000000000000000000000000000000000000000000081525060400191505060405180910390fd5b610834610b18565b73ffffffffffffffffffffffffffffffffffffffff168173ffffffffffffffffffffffffffffffffffffffff16638da5cb5b6040518163ffffffff167c0100000000000000000000000000000000000000000000000000000000028152600401602060405180830381600087803b1580156108ae57600080fd5b505af11580156108c2573d6000803e3d6000fd5b505050506040513d60208110156108d857600080fd5b810190808051906020019092919050505073ffffffffffffffffffffffffffffffffffffffff1614151561099a576040517f08c379a000000000000000000000000000000000000000000000000000000000815260040180806020018281038252603b8152602001807f546865206f6c6420616e6420746865206e657720636f6e74726163747320736881526020017f6f756c64207368617265207468652073616d65206f776e65727321000000000081525060400191505060405180910390fd5b6109a381611662565b1515610a17576040517f08c379a00000000000000000000000000000000000000000000000000000000081526004018080602001828103825260138152602001807f5570677261646520686173206661696c6564210000000000000000000000000081525060200191505060405180910390fd5b50565b60035481565b600260009054906101000a900473ffffffffffffffffffffffffffffffffffffffff1681565b610a4e610b41565b1515610a5957600080fd5b600073ffffffffffffffffffffffffffffffffffffffff166000809054906101000a900473ffffffffffffffffffffffffffffffffffffffff1673ffffffffffffffffffffffffffffffffffffffff167f8be0079c531659141344cd1fd0a4f28419497f9722a3daafe3b4186f6b6457e060405160405180910390a360008060006101000a81548173ffffffffffffffffffffffffffffffffffffffff021916908373ffffffffffffffffffffffffffffffffffffffff160217905550565b60008060009054906101000a900473ffffffffffffffffffffffffffffffffffffffff16905090565b60008060009054906101000a900473ffffffffffffffffffffffffffffffffffffffff1673ffffffffffffffffffffffffffffffffffffffff163373ffffffffffffffffffffffffffffffffffffffff1614905090565b610ba48383834261166d565b505050565b600060606000806000610bba611ecd565b600060010260001916896000191614151515610c3e576040517f08c379a00000000000000000000000000000000000000000000000000000000081526004018080602001828103825260158152602001807f4944206d757374206e6f7420626520656d70747921000000000000000000000081525060200191505060405180910390fd5b600460008961ffff1661ffff16815260200190815260200160002060008860ff1660ff16815260200190815260200160002091508160000160008a6000191660001916815260200190815260200160002060806040519081016040529081600082015460001916600019168152602001600182018054600181600116156101000203166002900480601f016020809104026020016040519081016040528092919081815260200182805460018160011615610100020316600290048015610d465780601f10610d1b57610100808354040283529160200191610d46565b820191906000526020600020905b815481529060010190602001808311610d2957829003601f168201915b5050505050815260200160028201548152602001600382015481525050905080600001519550806020015194508060400151935080606001519250505093509350935093565b6004602052816000526040600020602052806000526040600020600091509150508060010154905081565b600080610dc2611bfb565b8092508193505050610dd48282611045565b5050565b60006060600080600080600060010260001916876000191614151515610e66576040517f08c379a00000000000000000000000000000000000000000000000000000000081526004018080602001828103825260158152602001807f4944206d757374206e6f7420626520656d70747921000000000000000000000081525060200191505060405180910390fd5b610e6e611bfb565b8092508193505050610e81878383610ba9565b955095509550955050509193509193565b600080600080610ea0611bfb565b809450819550505073__DateTime______________________________63027a15d085856040518363ffffffff167c0100000000000000000000000000000000000000000000000000000000028152600401808361ffff1661ffff1681526020018260ff1660ff16815260200192505050604080518083038186803b158015610f2857600080fd5b505af4158015610f3c573d6000803e3d6000fd5b505050506040513d6040811015610f5257600080fd5b810190808051906020019092919080519060200190929190505050809250819350505061103c87878773__DateTime______________________________63f6cc72af87876040518363ffffffff167c0100000000000000000000000000000000000000000000000000000000028152600401808361ffff1661ffff1681526020018260ff1660ff1681526020019250505060206040518083038186803b158015610ffc57600080fd5b505af4158015611010573d6000803e3d6000fd5b505050506040513d602081101561102657600080fd5b810190808051906020019092919050505061166d565b50505050505050565b6000806060600080600080600061105a611bfb565b809850819950505073__DateTime______________________________63aef47ba98b8b6040518363ffffffff167c0100000000000000000000000000000000000000000000000000000000028152600401808361ffff1661ffff1681526020018260ff1660ff1681526020019250505060206040518083038186803b1580156110e357600080fd5b505af41580156110f7573d6000803e3d6000fd5b505050506040513d602081101561110d57600080fd5b810190808051906020019092919050505073__DateTime______________________________63aef47ba98a8a6040518363ffffffff167c0100000000000000000000000000000000000000000000000000000000028152600401808361ffff1661ffff1681526020018260ff1660ff1681526020019250505060206040518083038186803b15801561119f57600080fd5b505af41580156111b3573d6000803e3d6000fd5b505050506040513d60208110156111c957600080fd5b810190808051906020019092919050505010151515611250576040517f08c379a000000000000000000000000000000000000000000000000000000000815260040180806020018281038252601d8152602001807f43616e277420646973747269627574652066757475726520666565732100000081525060200191505060405180910390fd5b600260009054906101000a900473ffffffffffffffffffffffffffffffffffffffff1673ffffffffffffffffffffffffffffffffffffffff16639eab52536040518163ffffffff167c0100000000000000000000000000000000000000000000000000000000028152600401600060405180830381600087803b1580156112d657600080fd5b505af11580156112ea573d6000803e3d6000fd5b505050506040513d6000823e3d601f19601f82011682018060405250602081101561131457600080fd5b81019080805164010000000081111561132c57600080fd5b8281019050602081018481111561134257600080fd5b815185602082028301116401000000008211171561135f57600080fd5b50509291905050509550600460008b61ffff1661ffff16815260200190815260200160002060008a60ff1660ff16815260200190815260200160002094506113b586518660010154611c0f90919063ffffffff16565b935060008411151561142f576040517f08c379a000000000000000000000000000000000000000000000000000000000815260040180806020018281038252601b8152602001807f466565206d7573742062652067726561746572207468616e203021000000000081525060200191505060405180910390fd5b600092505b855183101561160c57858381518110151561144b57fe5b9060200190602002015191508390506000831415611489576114868651866001015481151561147657fe5b0682611c3990919063ffffffff16565b90505b6114a0818660010154611c5a90919063ffffffff16565b8560010181905550600160009054906101000a900473ffffffffffffffffffffffffffffffffffffffff1673ffffffffffffffffffffffffffffffffffffffff1663a9059cbb83836040518363ffffffff167c0100000000000000000000000000000000000000000000000000000000028152600401808373ffffffffffffffffffffffffffffffffffffffff1673ffffffffffffffffffffffffffffffffffffffff16815260200182815260200192505050602060405180830381600087803b15801561156d57600080fd5b505af1158015611581573d6000803e3d6000fd5b505050506040513d602081101561159757600080fd5b810190808051906020019092919050505015156115b357600080fd5b8173ffffffffffffffffffffffffffffffffffffffff167f56505e8dae8df7b5257854d26e1b8c7547818dce829179e3fc05f656e4769fe6826040518082815260200191505060405180910390a2826001019250611434565b50505050505050505050565b600160009054906101000a900473ffffffffffffffffffffffffffffffffffffffff1681565b611646610b41565b151561165157600080fd5b61165a81611c7b565b50565b600281565b600060019050919050565b6000806000806000600102600019168860001916141515156116f7576040517f08c379a00000000000000000000000000000000000000000000000000000000081526004018080602001828103825260158152602001807f4944206d757374206e6f7420626520656d70747921000000000000000000000081525060200191505060405180910390fd5b60008751111515611770576040517f08c379a000000000000000000000000000000000000000000000000000000000815260040180806020018281038252601a8152602001807f50726f66696c65206d757374206e6f7420626520656d7074792100000000000081525060200191505060405180910390fd5b6000861115156117e8576040517f08c379a000000000000000000000000000000000000000000000000000000000815260040180806020018281038252601d8152602001807f56616c7565206d7573742062652067726561746572207468616e20302100000081525060200191505060405180910390fd5b428510151515611886576040517f08c379a00000000000000000000000000000000000000000000000000000000081526004018080602001828103825260238152602001807f5374617274696e672074696d65206d75737420626520696e207468652066757481526020017f757265000000000000000000000000000000000000000000000000000000000081525060400191505060405180910390fd5b600160009054906101000a900473ffffffffffffffffffffffffffffffffffffffff1673ffffffffffffffffffffffffffffffffffffffff166323b872dd3330896040518463ffffffff167c0100000000000000000000000000000000000000000000000000000000028152600401808473ffffffffffffffffffffffffffffffffffffffff1673ffffffffffffffffffffffffffffffffffffffff1681526020018373ffffffffffffffffffffffffffffffffffffffff1673ffffffffffffffffffffffffffffffffffffffff1681526020018281526020019350505050602060405180830381600087803b15801561197f57600080fd5b505af1158015611993573d6000803e3d6000fd5b505050506040513d60208110156119a957600080fd5b81019080805190602001909291905050501515611a2e576040517f08c379a00000000000000000000000000000000000000000000000000000000081526004018080602001828103825260178152602001807f496e73756666696369656e7420616c6c6f77616e63652100000000000000000081525060200191505060405180910390fd5b611a3785611d75565b8094508195505050600460008561ffff1661ffff16815260200190815260200160002060008460ff1660ff1681526020019081526020016000209150816000016000896000191660001916815260200190815260200160002090506000600102600019168160000154600019161415611ada578781600001816000191690555086816001019080519060200190611acf929190611ef9565b508481600201819055505b611af1868260030154611c3990919063ffffffff16565b8160030181905550600354816003015410151515611b77576040517f08c379a000000000000000000000000000000000000000000000000000000000815260040180806020018281038252601e8152602001807f537562736372697074696f6e2076616c756520697320746f6f206c6f7721000081525060200191505060405180910390fd5b611b8e868360010154611c3990919063ffffffff16565b826001018190555087600019163373ffffffffffffffffffffffffffffffffffffffff167f31e5b8ad0e4090204680d9ed974a900609bc55426e2fb8b1811ff9435ade723b8888604051808381526020018281526020019250505060405180910390a35050505050505050565b600080611c0742611d75565b915091509091565b600080600083111515611c2157600080fd5b8284811515611c2c57fe5b0490508091505092915050565b6000808284019050838110151515611c5057600080fd5b8091505092915050565b600080838311151515611c6c57600080fd5b82840390508091505092915050565b600073ffffffffffffffffffffffffffffffffffffffff168173ffffffffffffffffffffffffffffffffffffffff1614151515611cb757600080fd5b8073ffffffffffffffffffffffffffffffffffffffff166000809054906101000a900473ffffffffffffffffffffffffffffffffffffffff1673ffffffffffffffffffffffffffffffffffffffff167f8be0079c531659141344cd1fd0a4f28419497f9722a3daafe3b4186f6b6457e060405160405180910390a3806000806101000a81548173ffffffffffffffffffffffffffffffffffffffff021916908373ffffffffffffffffffffffffffffffffffffffff16021790555050565b60008073__DateTime______________________________6392d66313846040518263ffffffff167c01000000000000000000000000000000000000000000000000000000000281526004018082815260200191505060206040518083038186803b158015611de357600080fd5b505af4158015611df7573d6000803e3d6000fd5b505050506040513d6020811015611e0d57600080fd5b8101908080519060200190929190505050915073__DateTime______________________________63a324ad24846040518263ffffffff167c01000000000000000000000000000000000000000000000000000000000281526004018082815260200191505060206040518083038186803b158015611e8b57600080fd5b505af4158015611e9f573d6000803e3d6000fd5b505050506040513d6020811015611eb557600080fd5b81019080805190602001909291905050509050915091565b608060405190810160405280600080191681526020016060815260200160008152602001600081525090565b828054600181600116156101000203166002900490600052602060002090601f016020900481019282601f10611f3a57805160ff1916838001178555611f68565b82800160010185558215611f68579182015b82811115611f67578251825591602001919060010190611f4c565b5b509050611f759190611f79565b5090565b611f9b91905b80821115611f97576000816000905550600101611f7f565b5090565b905600a165627a7a72305820f5b4ba1aa87da349b0600bd7de032223924ab837c413addc964039e25496b4960029",
  "compiler": {
    "name": "solc",
    "version": "0.4.24+commit.e67f0147.Emscripten.clang"
  },
  "schemaVersion": "2.0.1",
  "updatedAt": "2019-04-01T09:53:23.436Z"
}