{
  "contractName": "AutonomousSwapProofVerifier",
  "abi": [
    {
      "constant": true,
      "inputs": [],
      "name": "EXECUTION_RESULT_SUCCESS",
      "outputs": [
        {
          "name": "",
          "type": "uint256"
        }
      ],
      "payable": false,
      "stateMutability": "view",
      "type": "function"
    },
    {
      "constant": true,
      "inputs": [],
      "name": "MAX_SIGNATURES",
      "outputs": [
        {
          "name": "",
          "type": "uint256"
        }
      ],
      "payable": false,
      "stateMutability": "view",
      "type": "function"
    },
    {
      "constant": true,
      "inputs": [],
      "name": "LENGTH_SIZE",
      "outputs": [
        {
          "name": "",
          "type": "uint256"
        }
      ],
      "payable": false,
      "stateMutability": "view",
      "type": "function"
    },
    {
      "constant": true,
      "inputs": [],
      "name": "COMMIT_MESSAGE_TYPE",
      "outputs": [
        {
          "name": "",
          "type": "uint256"
        }
      ],
      "payable": false,
      "stateMutability": "view",
      "type": "function"
    },
    {
      "constant": true,
      "inputs": [],
      "name": "ORBS_ADDRESS_SIZE",
      "outputs": [
        {
          "name": "",
          "type": "uint256"
        }
      ],
      "payable": false,
      "stateMutability": "view",
      "type": "function"
    },
    {
      "constant": true,
      "inputs": [],
      "name": "ORBS_TRANSFERRED_OUT_EVENT_NAME",
      "outputs": [
        {
          "name": "",
          "type": "string"
        }
      ],
      "payable": false,
      "stateMutability": "view",
      "type": "function"
    },
    {
      "constant": true,
      "inputs": [],
      "name": "SIGNATURE_SIZE",
      "outputs": [
        {
          "name": "",
          "type": "uint256"
        }
      ],
      "payable": false,
      "stateMutability": "view",
      "type": "function"
    },
    {
      "constant": true,
      "inputs": [],
      "name": "BLOCKHASH_OFFSET",
      "outputs": [
        {
          "name": "",
          "type": "uint256"
        }
      ],
      "payable": false,
      "stateMutability": "view",
      "type": "function"
    },
    {
      "constant": true,
      "inputs": [],
      "name": "SHA256_SIZE",
      "outputs": [
        {
          "name": "",
          "type": "uint256"
        }
      ],
      "payable": false,
      "stateMutability": "view",
      "type": "function"
    },
    {
      "constant": true,
      "inputs": [],
      "name": "WORD_ALIGNED",
      "outputs": [
        {
          "name": "",
          "type": "uint256"
        }
      ],
      "payable": false,
      "stateMutability": "view",
      "type": "function"
    },
    {
      "constant": true,
      "inputs": [],
      "name": "federation",
      "outputs": [
        {
          "name": "",
          "type": "address"
        }
      ],
      "payable": false,
      "stateMutability": "view",
      "type": "function"
    },
    {
      "constant": true,
      "inputs": [],
      "name": "UINT32_SIZE",
      "outputs": [
        {
          "name": "",
          "type": "uint256"
        }
      ],
      "payable": false,
      "stateMutability": "view",
      "type": "function"
    },
    {
      "constant": true,
      "inputs": [],
      "name": "ORBS_PROTOCOL_VERSION",
      "outputs": [
        {
          "name": "",
          "type": "uint256"
        }
      ],
      "payable": false,
      "stateMutability": "view",
      "type": "function"
    },
    {
      "constant": true,
      "inputs": [],
      "name": "BLOCKREF_MESSAGE_SIZE",
      "outputs": [
        {
          "name": "",
          "type": "uint256"
        }
      ],
      "payable": false,
      "stateMutability": "view",
      "type": "function"
    },
    {
      "constant": true,
      "inputs": [],
      "name": "NODE_PK_SIG_NESTING_SIZE",
      "outputs": [
        {
          "name": "",
          "type": "uint256"
        }
      ],
      "payable": false,
      "stateMutability": "view",
      "type": "function"
    },
    {
      "constant": true,
      "inputs": [],
      "name": "UINT64_SIZE",
      "outputs": [
        {
          "name": "",
          "type": "uint256"
        }
      ],
      "payable": false,
      "stateMutability": "view",
      "type": "function"
    },
    {
      "constant": true,
      "inputs": [],
      "name": "SIGNATURE_PADDED_SIZE",
      "outputs": [
        {
          "name": "",
          "type": "uint256"
        }
      ],
      "payable": false,
      "stateMutability": "view",
      "type": "function"
    },
    {
      "constant": true,
      "inputs": [],
      "name": "SENDER_SIGNATURE_SIZE",
      "outputs": [
        {
          "name": "",
          "type": "uint256"
        }
      ],
      "payable": false,
      "stateMutability": "view",
      "type": "function"
    },
    {
      "constant": true,
      "inputs": [],
      "name": "UINT16_SIZE",
      "outputs": [
        {
          "name": "",
          "type": "uint256"
        }
      ],
      "payable": false,
      "stateMutability": "view",
      "type": "function"
    },
    {
      "constant": true,
      "inputs": [],
      "name": "ADDRESS_SIZE",
      "outputs": [
        {
          "name": "",
          "type": "uint256"
        }
      ],
      "payable": false,
      "stateMutability": "view",
      "type": "function"
    },
    {
      "constant": true,
      "inputs": [],
      "name": "DWORD_ALIGNED",
      "outputs": [
        {
          "name": "",
          "type": "uint256"
        }
      ],
      "payable": false,
      "stateMutability": "view",
      "type": "function"
    },
    {
      "constant": true,
      "inputs": [],
      "name": "UINT256_SIZE",
      "outputs": [
        {
          "name": "",
          "type": "uint256"
        }
      ],
      "payable": false,
      "stateMutability": "view",
      "type": "function"
    },
    {
      "constant": true,
      "inputs": [],
      "name": "ONEOF_NESTING_SIZE",
      "outputs": [
        {
          "name": "",
          "type": "uint256"
        }
      ],
      "payable": false,
      "stateMutability": "view",
      "type": "function"
    },
    {
      "constant": true,
      "inputs": [],
      "name": "VERSION",
      "outputs": [
        {
          "name": "",
          "type": "uint256"
        }
      ],
      "payable": false,
      "stateMutability": "view",
      "type": "function"
    },
    {
      "inputs": [
        {
          "name": "_federation",
          "type": "address"
        }
      ],
      "payable": false,
      "stateMutability": "nonpayable",
      "type": "constructor"
    },
    {
      "constant": true,
      "inputs": [
        {
          "name": "_packedProof",
          "type": "bytes"
        },
        {
          "name": "_transactionReceipt",
          "type": "bytes"
        }
      ],
      "name": "processPackedProof",
      "outputs": [
        {
          "components": [
            {
              "name": "networkType",
              "type": "uint32"
            },
            {
              "name": "virtualChainId",
              "type": "uint64"
            },
            {
              "name": "orbsContractName",
              "type": "string"
            },
            {
              "name": "from",
              "type": "bytes20"
            },
            {
              "name": "to",
              "type": "address"
            },
            {
              "name": "value",
              "type": "uint256"
            },
            {
              "name": "tuid",
              "type": "uint256"
            }
          ],
          "name": "transferInEvent",
          "type": "tuple"
        }
      ],
      "payable": false,
      "stateMutability": "view",
      "type": "function"
    },
    {
      "constant": true,
      "inputs": [
        {
          "name": "_resultsBlockHeader",
          "type": "bytes"
        },
        {
          "name": "_resultsBlockProof",
          "type": "bytes"
        },
        {
          "name": "_transactionReceipt",
          "type": "bytes"
        },
        {
          "name": "_transactionReceiptProof",
          "type": "bytes32[]"
        }
      ],
      "name": "processProof",
      "outputs": [
        {
          "components": [
            {
              "name": "networkType",
              "type": "uint32"
            },
            {
              "name": "virtualChainId",
              "type": "uint64"
            },
            {
              "name": "orbsContractName",
              "type": "string"
            },
            {
              "name": "from",
              "type": "bytes20"
            },
            {
              "name": "to",
              "type": "address"
            },
            {
              "name": "value",
              "type": "uint256"
            },
            {
              "name": "tuid",
              "type": "uint256"
            }
          ],
          "name": "transferInEvent",
          "type": "tuple"
        }
      ],
      "payable": false,
      "stateMutability": "view",
      "type": "function"
    },
    {
      "constant": true,
      "inputs": [
        {
          "name": "_address",
          "type": "bytes20"
        }
      ],
      "name": "isOrbsAddressValid",
      "outputs": [
        {
          "name": "",
          "type": "bool"
        }
      ],
      "payable": false,
      "stateMutability": "pure",
      "type": "function"
    }
  ],
  "bytecode": "0x60806040523480156200001157600080fd5b50604051602080620038f2833981018060405262000033919081019062000105565b600073ffffffffffffffffffffffffffffffffffffffff168173ffffffffffffffffffffffffffffffffffffffff1614151515620000a8576040517f08c379a00000000000000000000000000000000000000000000000000000000081526004016200009f9062000168565b60405180910390fd5b806000806101000a81548173ffffffffffffffffffffffffffffffffffffffff021916908373ffffffffffffffffffffffffffffffffffffffff16021790555050620001be565b6000620000fd8251620001aa565b905092915050565b6000602082840312156200011857600080fd5b60006200012884828501620000ef565b91505092915050565b6000601982527f46656465726174696f6e206d757374206e6f74206265203021000000000000006020830152604082019050919050565b60006020820190508181036000830152620001838162000131565b9050919050565b600073ffffffffffffffffffffffffffffffffffffffff82169050919050565b6000620001b7826200018a565b9050919050565b61372480620001ce6000396000f30060806040526004361061015e576000357c0100000000000000000000000000000000000000000000000000000000900463ffffffff16806212117d14610163578063037a37961461018e5780630c7d819e146101b95780630fafc6f1146101e457806326413cd01461020f578063287013531461023a578063308ff0c914610265578063397d6e1714610290578063550bed71146102bb5780635bc001a2146102e657806361cd41721461031157806366c861191461034e578063690ba608146103795780636d2c93ac146103a457806379509d79146103cf578063872c7d331461040c5780638d9ecc66146104375780639c3db9a514610462578063a7c53a751461048d578063ace61385146104ca578063ae665562146104f5578063b1b4be8914610520578063c4c3c17e1461054b578063c90b8af614610576578063eea7f0ab146105a1578063f18a25ce146105cc578063ffa1ad74146105f7575b600080fd5b34801561016f57600080fd5b50610178610622565b604051610185919061347c565b60405180910390f35b34801561019a57600080fd5b506101a3610627565b6040516101b0919061347c565b60405180910390f35b3480156101c557600080fd5b506101ce61062c565b6040516101db919061347c565b60405180910390f35b3480156101f057600080fd5b506101f9610631565b604051610206919061347c565b60405180910390f35b34801561021b57600080fd5b50610224610636565b604051610231919061347c565b60405180910390f35b34801561024657600080fd5b5061024f61063b565b60405161025c9190613278565b60405180910390f35b34801561027157600080fd5b5061027a610674565b604051610287919061347c565b60405180910390f35b34801561029c57600080fd5b506102a5610679565b6040516102b2919061347c565b60405180910390f35b3480156102c757600080fd5b506102d061067e565b6040516102dd919061347c565b60405180910390f35b3480156102f257600080fd5b506102fb610683565b604051610308919061347c565b60405180910390f35b34801561031d57600080fd5b5061033860048036036103339190810190612aa8565b610688565b6040516103459190613204565b60405180910390f35b34801561035a57600080fd5b506103636106d2565b604051610370919061325d565b60405180910390f35b34801561038557600080fd5b5061038e6106f7565b60405161039b919061347c565b60405180910390f35b3480156103b057600080fd5b506103b96106fc565b6040516103c6919061347c565b60405180910390f35b3480156103db57600080fd5b506103f660048036036103f19190810190612afa565b610701565b604051610403919061345a565b60405180910390f35b34801561041857600080fd5b50610421610b3d565b60405161042e919061347c565b60405180910390f35b34801561044357600080fd5b5061044c610b42565b604051610459919061347c565b60405180910390f35b34801561046e57600080fd5b50610477610b47565b604051610484919061347c565b60405180910390f35b34801561049957600080fd5b506104b460048036036104af9190810190612b66565b610b4c565b6040516104c1919061345a565b60405180910390f35b3480156104d657600080fd5b506104df610e9a565b6040516104ec919061347c565b60405180910390f35b34801561050157600080fd5b5061050a610e9f565b604051610517919061347c565b60405180910390f35b34801561052c57600080fd5b50610535610ea4565b604051610542919061347c565b60405180910390f35b34801561055757600080fd5b50610560610ea9565b60405161056d919061347c565b60405180910390f35b34801561058257600080fd5b5061058b610eae565b604051610598919061347c565b60405180910390f35b3480156105ad57600080fd5b506105b6610eb3565b6040516105c3919061347c565b60405180910390f35b3480156105d857600080fd5b506105e1610eb8565b6040516105ee919061347c565b60405180910390f35b34801561060357600080fd5b5061060c610ebd565b604051610619919061347c565b60405180910390f35b600181565b606481565b600481565b600381565b601481565b6040805190810160405280601281526020017f4f7262735472616e736665727265644f7574000000000000000000000000000081525081565b604181565b601881565b602081565b600281565b6000806c01000000000000000000000000026bffffffffffffffffffffffff1916826bffffffffffffffffffffffff191614156106c857600090506106cd565b600190505b919050565b6000809054906101000a900473ffffffffffffffffffffffffffffffffffffffff1681565b600481565b600181565b61070961273f565b60608060606000606060008061071d6127b2565b610725612805565b61072d612825565b6107368d610ec2565b809a50819b50829c505050506000965061075b6020895161100590919063ffffffff16565b6040519080825280602002602001820160405280156107895781602001602082028038833980820191505090505b509550600094505b6107a66020895161100590919063ffffffff16565b85101561080a576107c0878961102f90919063ffffffff16565b93508386868151811015156107d157fe5b9060200190602002019060001916908160001916815250506107fd60208861105890919063ffffffff16565b9650846001019450610791565b6108138a611079565b92506001836000015163ffffffff16141515610864576040517f08c379a000000000000000000000000000000000000000000000000000000000815260040161085b906133fa565b60405180910390fd5b61086e8a8a6111f6565b73__CryptoUtils___________________________636df6588e8785608001518f6040518463ffffffff167c01000000000000000000000000000000000000000000000000000000000281526004016108c9939291906131bf565b60206040518083038186803b1580156108e157600080fd5b505af41580156108f5573d6000803e3d6000fd5b505050506040513d601f19601f820116820180604052506109199190810190612a7f565b151561095a576040517f08c379a00000000000000000000000000000000000000000000000000000000081526004016109519061343a565b60405180910390fd5b6109638c611477565b91506001826000015163ffffffff161415156109b4576040517f08c379a00000000000000000000000000000000000000000000000000000000081526004016109ab9061333a565b60405180910390fd5b6109c182602001516115f0565b9050610a0f6040805190810160405280601281526020017f4f7262735472616e736665727265644f75740000000000000000000000000000815250826020015161198f90919063ffffffff16565b1515610a50576040517f08c379a0000000000000000000000000000000000000000000000000000000008152600401610a47906132da565b60405180910390fd5b82604001518b6000019063ffffffff16908163ffffffff168152505082602001518b6020019067ffffffffffffffff16908167ffffffffffffffff168152505080600001518b6040018190525080606001518b606001906bffffffffffffffffffffffff191690816bffffffffffffffffffffffff19168152505080608001518b6080019073ffffffffffffffffffffffffffffffffffffffff16908173ffffffffffffffffffffffffffffffffffffffff16815250508060a001518b60a0018181525050806040015167ffffffffffffffff168b60c00181815250505050505050505050505092915050565b603881565b600481565b600881565b610b5461273f565b610b5c6127b2565b610b64612805565b610b6c612825565b610b7588611079565b92506001836000015163ffffffff16141515610bc6576040517f08c379a0000000000000000000000000000000000000000000000000000000008152600401610bbd906133fa565b60405180910390fd5b610bd088886111f6565b73__CryptoUtils___________________________636df6588e868560800151896040518463ffffffff167c0100000000000000000000000000000000000000000000000000000000028152600401610c2b939291906131bf565b60206040518083038186803b158015610c4357600080fd5b505af4158015610c57573d6000803e3d6000fd5b505050506040513d601f19601f82011682018060405250610c7b9190810190612a7f565b1515610cbc576040517f08c379a0000000000000000000000000000000000000000000000000000000008152600401610cb39061343a565b60405180910390fd5b610cc586611477565b91506001826000015163ffffffff16141515610d16576040517f08c379a0000000000000000000000000000000000000000000000000000000008152600401610d0d9061333a565b60405180910390fd5b610d2382602001516115f0565b9050610d716040805190810160405280601281526020017f4f7262735472616e736665727265644f75740000000000000000000000000000815250826020015161198f90919063ffffffff16565b1515610db2576040517f08c379a0000000000000000000000000000000000000000000000000000000008152600401610da9906132da565b60405180910390fd5b8260400151846000019063ffffffff16908163ffffffff16815250508260200151846020019067ffffffffffffffff16908167ffffffffffffffff168152505080600001518460400181905250806060015184606001906bffffffffffffffffffffffff191690816bffffffffffffffffffffffff1916815250508060800151846080019073ffffffffffffffffffffffffffffffffffffffff16908173ffffffffffffffffffffffffffffffffffffffff16815250508060a001518460a0018181525050806040015167ffffffffffffffff168460c0018181525050505050949350505050565b604481565b606481565b600281565b601481565b600481565b602081565b600c81565b600181565b606080606060008060008060009350610ee48489611a7d90919063ffffffff16565b9250610efa60048561105890919063ffffffff16565b9350610f17848463ffffffff168a611a939092919063ffffffff16565b9650610f328363ffffffff168561105890919063ffffffff16565b9350610f478489611a7d90919063ffffffff16565b9150610f5d60048561105890919063ffffffff16565b9350610f7a848363ffffffff168a611a939092919063ffffffff16565b9550610f958263ffffffff168561105890919063ffffffff16565b9350610faa8489611a7d90919063ffffffff16565b9050610fc060048561105890919063ffffffff16565b9350610fdd848263ffffffff168a611a939092919063ffffffff16565b9450610ff88163ffffffff168561105890919063ffffffff16565b9350505050509193909250565b60008060008311151561101757600080fd5b828481151561102257fe5b0490508091505092915050565b6000806020830184511015151561104557600080fd5b8260208501015190508091505092915050565b600080828401905083811015151561106f57600080fd5b8091505092915050565b6110816127b2565b60008090506110998184611a7d90919063ffffffff16565b826000019063ffffffff16908163ffffffff16815250506110c460048261105890919063ffffffff16565b90506110d98184611a7d90919063ffffffff16565b63ffffffff16826020019067ffffffffffffffff16908167ffffffffffffffff168152505061111260048261105890919063ffffffff16565b905061112860088261105890919063ffffffff16565b905061113e60048261105890919063ffffffff16565b905061115460208261105890919063ffffffff16565b90506111698184611b2090919063ffffffff16565b826060019067ffffffffffffffff16908167ffffffffffffffff168152505061119c60088261105890919063ffffffff16565b90506111b260048261105890919063ffffffff16565b90506111c7818461102f90919063ffffffff16565b826080019060001916908160001916815250506111ee60208261105890919063ffffffff16565b905050919050565b6111fe61288b565b60008061120a84611b36565b92506002856040518082805190602001908083835b602083101515611244578051825260208201915060208101905060208303925061121f565b6001836020036101000a0380198251168184511680821785525050505050509050019150506020604051808303816000865af1158015611288573d6000803e3d6000fd5b5050506040513d601f19601f820116820180604052506112ab9190810190612ad1565b915060028360200151836040516020018083600019166000191681526020018260001916600019168152602001925050506040516020818303038152906040526040518082805190602001908083835b60208310151561132057805182526020820191506020810190506020830392506112fb565b6001836020036101000a0380198251168184511680821785525050505050509050019150506020604051808303816000865af1158015611364573d6000803e3d6000fd5b5050506040513d601f19601f820116820180604052506113879190810190612ad1565b905082608001516000191681600019161415156113d9576040517f08c379a00000000000000000000000000000000000000000000000000000000081526004016113d0906132ba565b60405180910390fd5b6003836060015161ffff16141515611426576040517f08c379a000000000000000000000000000000000000000000000000000000000815260040161141d906133ba565b60405180910390fd5b61142f83611fc3565b1515611470576040517f08c379a00000000000000000000000000000000000000000000000000000000081526004016114679061339a565b60405180910390fd5b5050505050565b61147f612805565b600080600080925061149b60048461105890919063ffffffff16565b92506114b160208461105890919063ffffffff16565b92506114c683866123bf90919063ffffffff16565b61ffff16846000019063ffffffff16908163ffffffff16815250506114ec8360046123d5565b92506114fa83866004612437565b905050809350506115148386611a7d90919063ffffffff16565b915061152a60048461105890919063ffffffff16565b925061153f8386611a7d90919063ffffffff16565b905061155560048461105890919063ffffffff16565b9250611572838263ffffffff1687611a939092919063ffffffff16565b84602001819052506115938163ffffffff168461105890919063ffffffff16565b92506004810163ffffffff168263ffffffff161415156115e8576040517f08c379a00000000000000000000000000000000000000000000000000000000081526004016115df906132fa565b60405180910390fd5b505050919050565b6115f8612825565b6000806000806000809450600093506000925061161785886004612437565b809550819650829750505050611638848489611a939092919063ffffffff16565b866000018190525061164c85886004612437565b80955081965082975050505061166d848489611a939092919063ffffffff16565b866020018190525061168960048661105890919063ffffffff16565b945061169f60048661105890919063ffffffff16565b94506116ad85886002612437565b905050809550506116bf8560046123d5565b94506116d48588611b2090919063ffffffff16565b866040019067ffffffffffffffff16908167ffffffffffffffff168152505061170760088661105890919063ffffffff16565b945061171d60048661105890919063ffffffff16565b945061172b85886002612437565b9050508095505061173d8560046123d5565b94506117528588611a7d90919063ffffffff16565b915060148263ffffffff1614151561179f576040517f08c379a00000000000000000000000000000000000000000000000000000000081526004016117969061335a565b60405180910390fd5b6117b360048661105890919063ffffffff16565b94506117c885886124cf90919063ffffffff16565b86606001906bffffffffffffffffffffffff191690816bffffffffffffffffffffffff19168152505061180560148661105890919063ffffffff16565b945061181b60048661105890919063ffffffff16565b945061182985886002612437565b9050508095505061183b8560046123d5565b94506118508588611a7d90919063ffffffff16565b905060148163ffffffff1614151561189d576040517f08c379a00000000000000000000000000000000000000000000000000000000081526004016118949061337a565b60405180910390fd5b6118b160048661105890919063ffffffff16565b94506118c6858861252e90919063ffffffff16565b866080019073ffffffffffffffffffffffffffffffffffffffff16908173ffffffffffffffffffffffffffffffffffffffff168152505061191160148661105890919063ffffffff16565b945061192760048661105890919063ffffffff16565b945061193585886002612437565b905050809550506119478560046123d5565b945061195c8588611b2090919063ffffffff16565b67ffffffffffffffff168660a001818152505061198360088661105890919063ffffffff16565b94505050505050919050565b6000815183511415156119a55760009050611a77565b816040518082805190602001908083835b6020831015156119db57805182526020820191506020810190506020830392506119b6565b6001836020036101000a038019825116818451168082178552505050505050905001915050604051809103902060001916836040518082805190602001908083835b602083101515611a425780518252602082019150602081019050602083039250611a1d565b6001836020036101000a0380198251168184511680821785525050505050509050019150506040518091039020600019161490505b92915050565b6000611a8b83836004612566565b905092915050565b606080828401855110151515611aa857600080fd5b821560008114611ac357604051915060208201604052611b14565b6040519150601f8416801560200281840101858101878315602002848b0101015b81831015611b015780518352602083019250602081019050611ae4565b50868552601f19601f8301166040525050505b50809150509392505050565b6000611b2e83836008612566565b905092915050565b611b3e61288b565b600080600080600080600095506000876000019063ffffffff16908163ffffffff1681525050611b778689611a7d90919063ffffffff16565b945060208563ffffffff16141515611bc4576040517f08c379a0000000000000000000000000000000000000000000000000000000008152600401611bbb9061331a565b60405180910390fd5b611bd860048761105890919063ffffffff16565b9550611bed868961102f90919063ffffffff16565b87602001906000191690816000191681525050611c1460208761105890919063ffffffff16565b9550611c2a600c8761105890919063ffffffff16565b95506002611c448760388b611a939092919063ffffffff16565b6040518082805190602001908083835b602083101515611c795780518252602082019150602081019050602083039250611c54565b6001836020036101000a0380198251168184511680821785525050505050509050019150506020604051808303816000865af1158015611cbd573d6000803e3d6000fd5b5050506040513d601f19601f82011682018060405250611ce09190810190612ad1565b87604001906000191690816000191681525050611d0686896123bf90919063ffffffff16565b876060019061ffff16908161ffff1681525050611d2d60188761105890919063ffffffff16565b9550611d42868961102f90919063ffffffff16565b87608001906000191690816000191681525050611d6960208761105890919063ffffffff16565b955060009350611d828689611a7d90919063ffffffff16565b63ffffffff169250611d9e60048761105890919063ffffffff16565b95505b82841015611fb857611dbd60048761105890919063ffffffff16565b9550611dd28689611a7d90919063ffffffff16565b915060148263ffffffff16141515611e1f576040517f08c379a0000000000000000000000000000000000000000000000000000000008152600401611e169061341a565b60405180910390fd5b611e3360048761105890919063ffffffff16565b9550611e48868961252e90919063ffffffff16565b8760c001518860a0015160ff16606481101515611e6157fe5b602002019073ffffffffffffffffffffffffffffffffffffffff16908173ffffffffffffffffffffffffffffffffffffffff1681525050611eac60148761105890919063ffffffff16565b9550611ec18689611a7d90919063ffffffff16565b905060418163ffffffff16141515611f0e576040517f08c379a0000000000000000000000000000000000000000000000000000000008152600401611f05906133da565b60405180910390fd5b611f2260048761105890919063ffffffff16565b9550611f3a8660418a611a939092919063ffffffff16565b8760e001518860a0015160ff16606481101515611f5357fe5b6020020181905250611f6f60448761105890919063ffffffff16565b9550611f8c60018860a0015160ff1661105890919063ffffffff16565b8760a0019060ff16908160ff1681525050611fb160648561105890919063ffffffff16565b9350611da1565b505050505050919050565b6000806000606060008060606000806000809054906101000a900473ffffffffffffffffffffffffffffffffffffffff1673ffffffffffffffffffffffffffffffffffffffff1663925f50728b600001516040518263ffffffff167c010000000000000000000000000000000000000000000000000000000002815260040161204c9190613497565b602060405180830381600087803b15801561206657600080fd5b505af115801561207a573d6000803e3d6000fd5b505050506040513d601f19601f8201168201806040525061209e9190810190612c29565b9750600096508960a0015160ff166040519080825280602002602001820160405280156120da5781602001602082028038833980820191505090505b509550600094505b8960a0015160ff168510156123ad578960c001518560648110151561210357fe5b602002015193508960e001518560648110151561211c57fe5b602002015192506000809054906101000a900473ffffffffffffffffffffffffffffffffffffffff1673ffffffffffffffffffffffffffffffffffffffff1663ddef11608b60000151866040518363ffffffff167c010000000000000000000000000000000000000000000000000000000002815260040161219f9291906134b2565b602060405180830381600087803b1580156121b957600080fd5b505af11580156121cd573d6000803e3d6000fd5b505050506040513d601f19601f820116820180604052506121f19190810190612a7f565b15156121fc576123a2565b73__CryptoUtils___________________________6365a18acf8b6040015185876040518463ffffffff167c01000000000000000000000000000000000000000000000000000000000281526004016122579392919061321f565b60206040518083038186803b15801561226f57600080fd5b505af4158015612283573d6000803e3d6000fd5b505050506040513d601f19601f820116820180604052506122a79190810190612a7f565b15156122b2576123a2565b60019150600090505b848110156123225785818151811015156122d157fe5b9060200190602002015173ffffffffffffffffffffffffffffffffffffffff168473ffffffffffffffffffffffffffffffffffffffff1614156123175760009150612322565b8060010190506122bb565b81151561232e576123a2565b83868681518110151561233d57fe5b9060200190602002019073ffffffffffffffffffffffffffffffffffffffff16908173ffffffffffffffffffffffffffffffffffffffff168152505061238d60018861105890919063ffffffff16565b965087871015156123a157600198506123b2565b5b8460010194506120e2565b600098505b5050505050505050919050565b60006123cd83836002612566565b905092915050565b6000806123ec60028561105890919063ffffffff16565b9150612404600184038361105890919063ffffffff16565b9150612419838361259f90919063ffffffff16565b905061242e81836125c490919063ffffffff16565b91505092915050565b6000806000806124508787611a7d90919063ffffffff16565b63ffffffff16915061246c60048861105890919063ffffffff16565b9250612481828461105890919063ffffffff16565b9350612499600186038561105890919063ffffffff16565b93506124ae858561259f90919063ffffffff16565b90506124c381856125c490919063ffffffff16565b93505093509350939050565b6000806014830184511015151561251b576040517f08c379a00000000000000000000000000000000000000000000000000000000081526004016125129061329a565b60405180910390fd5b8260208501015190508091505092915050565b6000806014830184511015151561254457600080fd5b6c01000000000000000000000000836020860101510490508091505092915050565b60006060612587612582858588611a939092919063ffffffff16565b6125e5565b9050612595816000856126e1565b9150509392505050565b60008082141515156125b057600080fd5b81838115156125bb57fe5b06905092915050565b6000808383111515156125d657600080fd5b82840390508091505092915050565b606080600083516040519080825280601f01601f19166020018201604052801561261e5781602001602082028038833980820191505090505b509150600090505b83518110156126d757838181518110151561263d57fe5b9060200101517f010000000000000000000000000000000000000000000000000000000000000090047f010000000000000000000000000000000000000000000000000000000000000002826001838751030381518110151561269c57fe5b9060200101907effffffffffffffffffffffffffffffffffffffffffffffffffffffffffffff1916908160001a905350806001019050612626565b8192505050919050565b60008082840185511015151561272c576040517f08c379a00000000000000000000000000000000000000000000000000000000081526004016127239061329a565b60405180910390fd5b8383860101519050809150509392505050565b60e060405190810160405280600063ffffffff168152602001600067ffffffffffffffff1681526020016060815260200160006bffffffffffffffffffffffff19168152602001600073ffffffffffffffffffffffffffffffffffffffff16815260200160008152602001600081525090565b60a060405190810160405280600063ffffffff168152602001600067ffffffffffffffff168152602001600063ffffffff168152602001600067ffffffffffffffff168152602001600080191681525090565b6040805190810160405280600063ffffffff168152602001606081525090565b60c0604051908101604052806060815260200160608152602001600067ffffffffffffffff16815260200160006bffffffffffffffffffffffff19168152602001600073ffffffffffffffffffffffffffffffffffffffff168152602001600081525090565b6119c060405190810160405280600063ffffffff1681526020016000801916815260200160008019168152602001600061ffff16815260200160008019168152602001600060ff1681526020016128e06128f3565b81526020016128ed612917565b81525090565b610c8060405190810160405280606490602082028038833980820191505090505090565b610c80604051908101604052806064905b60608152602001906001900390816129285790505090565b600082601f830112151561295357600080fd5b813561296661296182613508565b6134db565b9150818183526020840193506020810190508385602084028201111561298b57600080fd5b60005b838110156129bb57816129a188826129ed565b84526020840193506020830192505060018101905061298e565b5050505092915050565b60006129d18251613627565b905092915050565b60006129e58235613633565b905092915050565b60006129f9823561365f565b905092915050565b6000612a0d825161365f565b905092915050565b600082601f8301121515612a2857600080fd5b8135612a3b612a3682613530565b6134db565b91508082526020830160208301858383011115612a5757600080fd5b612a62838284613697565b50505092915050565b6000612a778251613669565b905092915050565b600060208284031215612a9157600080fd5b6000612a9f848285016129c5565b91505092915050565b600060208284031215612aba57600080fd5b6000612ac8848285016129d9565b91505092915050565b600060208284031215612ae357600080fd5b6000612af184828501612a01565b91505092915050565b60008060408385031215612b0d57600080fd5b600083013567ffffffffffffffff811115612b2757600080fd5b612b3385828601612a15565b925050602083013567ffffffffffffffff811115612b5057600080fd5b612b5c85828601612a15565b9150509250929050565b60008060008060808587031215612b7c57600080fd5b600085013567ffffffffffffffff811115612b9657600080fd5b612ba287828801612a15565b945050602085013567ffffffffffffffff811115612bbf57600080fd5b612bcb87828801612a15565b935050604085013567ffffffffffffffff811115612be857600080fd5b612bf487828801612a15565b925050606085013567ffffffffffffffff811115612c1157600080fd5b612c1d87828801612940565b91505092959194509250565b600060208284031215612c3b57600080fd5b6000612c4984828501612a6b565b91505092915050565b612c5b81613597565b82525050565b612c6a81613597565b82525050565b6000612c7b82613569565b808452602084019350612c8d8361355c565b60005b82811015612cbf57612ca3868351612ce9565b612cac8261358a565b9150602086019550600181019050612c90565b50849250505092915050565b612cd4816135b7565b82525050565b612ce3816135c3565b82525050565b612cf2816135ef565b82525050565b6000612d0382613574565b808452612d178160208601602086016136a6565b612d20816136d9565b602085010191505092915050565b612d3781613673565b82525050565b6000612d488261357f565b808452612d5c8160208601602086016136a6565b612d65816136d9565b602085010191505092915050565b6000600f82527f496e76616c6964206c656e6774682100000000000000000000000000000000006020830152604082019050919050565b6000601982527f426c6f636b206861736820646f65736e2774206d6174636821000000000000006020830152604082019050919050565b6000601582527f496e636f7272656374206576656e74206e616d652100000000000000000000006020830152604082019050919050565b6000603382527f4d756c7469706c65204576656e7473202d206f6e6c7920612073696e676c652060208301527f6576656e7420697320737570706f7274656421000000000000000000000000006040830152606082019050919050565b6000601282527f496e76616c696420686173682073697a652100000000000000000000000000006020830152604082019050919050565b6000601982527f496e76616c696420657865637574696f6e20726573756c7421000000000000006020830152604082019050919050565b6000601a82527f496e76616c6964204f72627320616464726573732073697a65210000000000006020830152604082019050919050565b6000601e82527f496e76616c696420457468657265756d20616464726573732073697a652100006020830152604082019050919050565b6000601282527f496e76616c6964207369676e61747572652100000000000000000000000000006020830152604082019050919050565b6000603082527f696e76616c696420426c6f636b50726f6f662c2048656c6978206d657373616760208301527f65207479706520213d20434f4d4d4954000000000000000000000000000000006040830152606082019050919050565b6000601782527f496e76616c6964207369676e61747572652073697a65210000000000000000006020830152604082019050919050565b6000601d82527f556e737570706f727465642070726f746f636f6c2076657273696f6e210000006020830152604082019050919050565b6000601582527f496e76616c696420616464726573732073697a652100000000000000000000006020830152604082019050919050565b6000602282527f496e76616c6964207472616e73616374696f6e20726563656970742070726f6f60208301527f66210000000000000000000000000000000000000000000000000000000000006040830152606082019050919050565b600060e0830160008301516130ff60008601826131a1565b50602083015161311260208601826131b0565b506040830151848203604086015261312a8282612d3d565b915050606083015161313f6060860182612cda565b5060808301516131526080860182612c52565b5060a083015161316560a0860182613183565b5060c083015161317860c0860182613183565b508091505092915050565b61318c816135f9565b82525050565b61319b81613685565b82525050565b6131aa81613603565b82525050565b6131b981613613565b82525050565b600060608201905081810360008301526131d98186612c70565b90506131e86020830185612ce9565b81810360408301526131fa8184612cf8565b9050949350505050565b60006020820190506132196000830184612ccb565b92915050565b60006060820190506132346000830186612ce9565b81810360208301526132468185612cf8565b90506132556040830184612c61565b949350505050565b60006020820190506132726000830184612d2e565b92915050565b600060208201905081810360008301526132928184612d3d565b905092915050565b600060208201905081810360008301526132b381612d73565b9050919050565b600060208201905081810360008301526132d381612daa565b9050919050565b600060208201905081810360008301526132f381612de1565b9050919050565b6000602082019050818103600083015261331381612e18565b9050919050565b6000602082019050818103600083015261333381612e75565b9050919050565b6000602082019050818103600083015261335381612eac565b9050919050565b6000602082019050818103600083015261337381612ee3565b9050919050565b6000602082019050818103600083015261339381612f1a565b9050919050565b600060208201905081810360008301526133b381612f51565b9050919050565b600060208201905081810360008301526133d381612f88565b9050919050565b600060208201905081810360008301526133f381612fe5565b9050919050565b600060208201905081810360008301526134138161301c565b9050919050565b6000602082019050818103600083015261343381613053565b9050919050565b600060208201905081810360008301526134538161308a565b9050919050565b6000602082019050818103600083015261347481846130e7565b905092915050565b60006020820190506134916000830184613183565b92915050565b60006020820190506134ac6000830184613192565b92915050565b60006040820190506134c76000830185613192565b6134d46020830184612c52565b9392505050565b6000604051905081810181811067ffffffffffffffff821117156134fe57600080fd5b8060405250919050565b600067ffffffffffffffff82111561351f57600080fd5b602082029050602081019050919050565b600067ffffffffffffffff82111561354757600080fd5b601f19601f8301169050602081019050919050565b6000602082019050919050565b600081519050919050565b600081519050919050565b600081519050919050565b6000602082019050919050565b600073ffffffffffffffffffffffffffffffffffffffff82169050919050565b60008115159050919050565b60007fffffffffffffffffffffffffffffffffffffffff00000000000000000000000082169050919050565b6000819050919050565b6000819050919050565b600063ffffffff82169050919050565b600067ffffffffffffffff82169050919050565b60008115159050919050565b60007fffffffffffffffffffffffffffffffffffffffff00000000000000000000000082169050919050565b6000819050919050565b6000819050919050565b600061367e82613597565b9050919050565b600061369082613603565b9050919050565b82818337600083830152505050565b60005b838110156136c45780820151818401526020810190506136a9565b838111156136d3576000848401525b50505050565b6000601f19601f83011690509190505600a265627a7a723058207e1cfe48f670c36951b5972d798741c68e8b9d4870ff258a2ca09bfecb38ba326c6578706572696d656e74616cf50037",
  "compiler": {
    "name": "solc",
    "version": "0.4.24+commit.e67f0147.Emscripten.clang"
  },
  "schemaVersion": "2.0.1",
  "updatedAt": "2019-01-08T13:54:46.264Z"
}