{
  "contractName": "AutonomousSwapBridge",
  "abi": [
    {
      "constant": true,
      "inputs": [],
      "name": "verifier",
      "outputs": [
        {
          "name": "",
          "type": "address"
        }
      ],
      "payable": false,
      "stateMutability": "view",
      "type": "function"
    },
    {
      "constant": true,
      "inputs": [],
      "name": "maxOrbsTuid",
      "outputs": [
        {
          "name": "",
          "type": "uint256"
        }
      ],
      "payable": false,
      "stateMutability": "view",
      "type": "function"
    },
    {
      "constant": true,
      "inputs": [],
      "name": "orbsASBContractName",
      "outputs": [
        {
          "name": "",
          "type": "string"
        }
      ],
      "payable": false,
      "stateMutability": "view",
      "type": "function"
    },
    {
      "constant": true,
      "inputs": [],
      "name": "federation",
      "outputs": [
        {
          "name": "",
          "type": "address"
        }
      ],
      "payable": false,
      "stateMutability": "view",
      "type": "function"
    },
    {
      "constant": false,
      "inputs": [],
      "name": "renounceOwnership",
      "outputs": [],
      "payable": false,
      "stateMutability": "nonpayable",
      "type": "function"
    },
    {
      "constant": true,
      "inputs": [],
      "name": "owner",
      "outputs": [
        {
          "name": "",
          "type": "address"
        }
      ],
      "payable": false,
      "stateMutability": "view",
      "type": "function"
    },
    {
      "constant": true,
      "inputs": [],
      "name": "isOwner",
      "outputs": [
        {
          "name": "",
          "type": "bool"
        }
      ],
      "payable": false,
      "stateMutability": "view",
      "type": "function"
    },
    {
      "constant": true,
      "inputs": [
        {
          "name": "",
          "type": "uint256"
        }
      ],
      "name": "spentOrbsTuids",
      "outputs": [
        {
          "name": "",
          "type": "bool"
        }
      ],
      "payable": false,
      "stateMutability": "view",
      "type": "function"
    },
    {
      "constant": true,
      "inputs": [],
      "name": "virtualChainId",
      "outputs": [
        {
          "name": "",
          "type": "uint64"
        }
      ],
      "payable": false,
      "stateMutability": "view",
      "type": "function"
    },
    {
      "constant": true,
      "inputs": [],
      "name": "tuidCounter",
      "outputs": [
        {
          "name": "",
          "type": "uint256"
        }
      ],
      "payable": false,
      "stateMutability": "view",
      "type": "function"
    },
    {
      "constant": false,
      "inputs": [
        {
          "name": "newOwner",
          "type": "address"
        }
      ],
      "name": "transferOwnership",
      "outputs": [],
      "payable": false,
      "stateMutability": "nonpayable",
      "type": "function"
    },
    {
      "constant": true,
      "inputs": [],
      "name": "networkType",
      "outputs": [
        {
          "name": "",
          "type": "uint32"
        }
      ],
      "payable": false,
      "stateMutability": "view",
      "type": "function"
    },
    {
      "constant": true,
      "inputs": [],
      "name": "token",
      "outputs": [
        {
          "name": "",
          "type": "address"
        }
      ],
      "payable": false,
      "stateMutability": "view",
      "type": "function"
    },
    {
      "constant": true,
      "inputs": [],
      "name": "VERSION",
      "outputs": [
        {
          "name": "",
          "type": "uint256"
        }
      ],
      "payable": false,
      "stateMutability": "view",
      "type": "function"
    },
    {
      "inputs": [
        {
          "name": "_networkType",
          "type": "uint32"
        },
        {
          "name": "_virtualChainId",
          "type": "uint64"
        },
        {
          "name": "_orbsASBContractName",
          "type": "string"
        },
        {
          "name": "_token",
          "type": "address"
        },
        {
          "name": "_federation",
          "type": "address"
        },
        {
          "name": "_verifier",
          "type": "address"
        }
      ],
      "payable": false,
      "stateMutability": "nonpayable",
      "type": "constructor"
    },
    {
      "anonymous": false,
      "inputs": [
        {
          "indexed": true,
          "name": "tuid",
          "type": "uint256"
        },
        {
          "indexed": true,
          "name": "from",
          "type": "address"
        },
        {
          "indexed": true,
          "name": "to",
          "type": "bytes20"
        },
        {
          "indexed": false,
          "name": "value",
          "type": "uint256"
        }
      ],
      "name": "EthTransferredOut",
      "type": "event"
    },
    {
      "anonymous": false,
      "inputs": [
        {
          "indexed": true,
          "name": "tuid",
          "type": "uint256"
        },
        {
          "indexed": true,
          "name": "from",
          "type": "bytes20"
        },
        {
          "indexed": true,
          "name": "to",
          "type": "address"
        },
        {
          "indexed": false,
          "name": "value",
          "type": "uint256"
        }
      ],
      "name": "EthTransferredIn",
      "type": "event"
    },
    {
      "anonymous": false,
      "inputs": [
        {
          "indexed": true,
          "name": "previousOwner",
          "type": "address"
        },
        {
          "indexed": true,
          "name": "newOwner",
          "type": "address"
        }
      ],
      "name": "OwnershipTransferred",
      "type": "event"
    },
    {
      "constant": false,
      "inputs": [
        {
          "name": "_to",
          "type": "bytes20"
        },
        {
          "name": "_value",
          "type": "uint256"
        }
      ],
      "name": "transferOut",
      "outputs": [],
      "payable": false,
      "stateMutability": "nonpayable",
      "type": "function"
    },
    {
      "constant": false,
      "inputs": [
        {
          "name": "_packedProof",
          "type": "bytes"
        },
        {
          "name": "_transactionReceipt",
          "type": "bytes"
        }
      ],
      "name": "transferIn",
      "outputs": [],
      "payable": false,
      "stateMutability": "nonpayable",
      "type": "function"
    },
    {
      "constant": false,
      "inputs": [
        {
          "name": "_verifier",
          "type": "address"
        }
      ],
      "name": "setAutonomousSwapProofVerifier",
      "outputs": [],
      "payable": false,
      "stateMutability": "nonpayable",
      "type": "function"
    },
    {
      "constant": false,
      "inputs": [
        {
          "name": "_networkType",
          "type": "uint32"
        },
        {
          "name": "_virtualChainId",
          "type": "uint64"
        },
        {
          "name": "_orbsASBContractName",
          "type": "string"
        },
        {
          "name": "_token",
          "type": "address"
        }
      ],
      "name": "initAutonomousSwapBridge",
      "outputs": [],
      "payable": false,
      "stateMutability": "nonpayable",
      "type": "function"
    }
  ],
  "bytecode": "0x608060405260006005553480156200001657600080fd5b5060405162002d3538038062002d3583398101806040526200003c91908101906200065b565b336000806101000a81548173ffffffffffffffffffffffffffffffffffffffff021916908373ffffffffffffffffffffffffffffffffffffffff1602179055506000809054906101000a900473ffffffffffffffffffffffffffffffffffffffff1673ffffffffffffffffffffffffffffffffffffffff16600073ffffffffffffffffffffffffffffffffffffffff167f8be0079c531659141344cd1fd0a4f28419497f9722a3daafe3b4186f6b6457e060405160405180910390a3600073ffffffffffffffffffffffffffffffffffffffff168273ffffffffffffffffffffffffffffffffffffffff16141515156200016d576040517f08c379a0000000000000000000000000000000000000000000000000000000008152600401620001649062000850565b60405180910390fd5b81600360006101000a81548173ffffffffffffffffffffffffffffffffffffffff021916908373ffffffffffffffffffffffffffffffffffffffff160217905550620001c881620001f1640100000000026401000000009004565b620001e586868686620002cf640100000000026401000000009004565b505050505050620009a5565b6200020a62000489640100000000026401000000009004565b15156200021657600080fd5b600073ffffffffffffffffffffffffffffffffffffffff168173ffffffffffffffffffffffffffffffffffffffff16141515156200028b576040517f08c379a000000000000000000000000000000000000000000000000000000000815260040162000282906200082e565b60405180910390fd5b80600460006101000a81548173ffffffffffffffffffffffffffffffffffffffff021916908373ffffffffffffffffffffffffffffffffffffffff16021790555050565b600080835111151562000319576040517f08c379a000000000000000000000000000000000000000000000000000000000815260040162000310906200080c565b60405180910390fd5b600073ffffffffffffffffffffffffffffffffffffffff168273ffffffffffffffffffffffffffffffffffffffff16141515156200038e576040517f08c379a0000000000000000000000000000000000000000000000000000000008152600401620003859062000872565b60405180910390fd5b84600060146101000a81548163ffffffff021916908363ffffffff16021790555083600060186101000a81548167ffffffffffffffff021916908367ffffffffffffffff1602179055508260019080519060200190620003f0929190620004e0565b5081600260006101000a81548173ffffffffffffffffffffffffffffffffffffffff021916908373ffffffffffffffffffffffffffffffffffffffff1602179055506000600581905550600090505b600654811115156200047a576007600082815260200190815260200160002060006101000a81549060ff02191690558060010190506200043f565b60006006819055505050505050565b60008060009054906101000a900473ffffffffffffffffffffffffffffffffffffffff1673ffffffffffffffffffffffffffffffffffffffff163373ffffffffffffffffffffffffffffffffffffffff1614905090565b828054600181600116156101000203166002900490600052602060002090601f016020900481019282601f106200052357805160ff191683800117855562000554565b8280016001018555821562000554579182015b828111156200055357825182559160200191906001019062000536565b5b50905062000563919062000567565b5090565b6200058c91905b80821115620005885760008160009055506001016200056e565b5090565b90565b60006200059d82516200090f565b905092915050565b6000620005b3825162000923565b905092915050565b6000620005c9825162000937565b905092915050565b600082601f8301121515620005e557600080fd5b8151620005fc620005f682620008c2565b62000894565b915080825260208301602083018583830111156200061957600080fd5b620006268382846200096f565b50505092915050565b60006200063d82516200094b565b905092915050565b60006200065382516200095b565b905092915050565b60008060008060008060c087890312156200067557600080fd5b60006200068589828a016200062f565b96505060206200069889828a0162000645565b955050604087015167ffffffffffffffff811115620006b657600080fd5b620006c489828a01620005d1565b9450506060620006d789828a01620005a5565b9350506080620006ea89828a01620005bb565b92505060a0620006fd89828a016200058f565b9150509295509295509295565b6000602982527f4f7262732041534220636f6e7472616374206e616d65206d757374206e6f742060208301527f626520656d7074792100000000000000000000000000000000000000000000006040830152606082019050919050565b6000601782527f5665726966696572206d757374206e6f742062652030210000000000000000006020830152604082019050919050565b6000601982527f46656465726174696f6e206d757374206e6f74206265203021000000000000006020830152604082019050919050565b6000601482527f546f6b656e206d757374206e6f742062652030210000000000000000000000006020830152604082019050919050565b6000602082019050818103600083015262000827816200070a565b9050919050565b60006020820190508181036000830152620008498162000767565b9050919050565b600060208201905081810360008301526200086b816200079e565b9050919050565b600060208201905081810360008301526200088d81620007d5565b9050919050565b6000604051905081810181811067ffffffffffffffff82111715620008b857600080fd5b8060405250919050565b600067ffffffffffffffff821115620008da57600080fd5b601f19601f8301169050602081019050919050565b600073ffffffffffffffffffffffffffffffffffffffff82169050919050565b60006200091c82620008ef565b9050919050565b60006200093082620008ef565b9050919050565b60006200094482620008ef565b9050919050565b600063ffffffff82169050919050565b600067ffffffffffffffff82169050919050565b60005b838110156200098f57808201518184015260208101905062000972565b838111156200099f576000848401525b50505050565b61238080620009b56000396000f3006080604052600436106100fc576000357c0100000000000000000000000000000000000000000000000000000000900463ffffffff1680632b7ac3f31461010157806333d7fafd1461012c5780633d8b904e146101555780635c45428c14610180578063608f1213146101ab57806366c86119146101d4578063715018a6146101ff5780638da5cb5b146102165780638f32d59b14610241578063923aebf01461026c578063a3302773146102a9578063aebac880146102d2578063bd19dffb146102fb578063e1d5c25514610326578063f2fde38b14610351578063f3762c111461037a578063fc0c546a146103a5578063ffa1ad74146103d0575b600080fd5b34801561010d57600080fd5b506101166103fb565b6040516101239190611e82565b60405180910390f35b34801561013857600080fd5b50610153600480360361014e9190810190611811565b610421565b005b34801561016157600080fd5b5061016a6106ff565b6040516101779190612075565b60405180910390f35b34801561018c57600080fd5b50610195610705565b6040516101a29190611ed3565b60405180910390f35b3480156101b757600080fd5b506101d260048036036101cd919081019061194c565b6107a3565b005b3480156101e057600080fd5b506101e9610953565b6040516101f69190611eb8565b60405180910390f35b34801561020b57600080fd5b50610214610979565b005b34801561022257600080fd5b5061022b610a4b565b6040516102389190611d9a565b60405180910390f35b34801561024d57600080fd5b50610256610a74565b6040516102639190611e15565b60405180910390f35b34801561027857600080fd5b50610293600480360361028e9190810190611923565b610acb565b6040516102a09190611e15565b60405180910390f35b3480156102b557600080fd5b506102d060048036036102cb919081019061184d565b610aeb565b005b3480156102de57600080fd5b506102f960048036036102f491908101906118b9565b611087565b005b34801561030757600080fd5b50610310611150565b60405161031d91906120ab565b60405180910390f35b34801561033257600080fd5b5061033b61116a565b6040516103489190612075565b60405180910390f35b34801561035d57600080fd5b50610378600480360361037391908101906117bf565b611170565b005b34801561038657600080fd5b5061038f61118f565b60405161039c9190612090565b60405180910390f35b3480156103b157600080fd5b506103ba6111a5565b6040516103c79190611e9d565b60405180910390f35b3480156103dc57600080fd5b506103e56111cb565b6040516103f29190612075565b60405180910390f35b600460009054906101000a900473ffffffffffffffffffffffffffffffffffffffff1681565b600460009054906101000a900473ffffffffffffffffffffffffffffffffffffffff1673ffffffffffffffffffffffffffffffffffffffff166361cd4172836040518263ffffffff167c01000000000000000000000000000000000000000000000000000000000281526004016104989190611e30565b602060405180830381600087803b1580156104b257600080fd5b505af11580156104c6573d6000803e3d6000fd5b505050506040513d601f19601f820116820180604052506104ea91908101906117e8565b151561052b576040517f08c379a000000000000000000000000000000000000000000000000000000000815260040161052290611f15565b60405180910390fd5b600081111515610570576040517f08c379a000000000000000000000000000000000000000000000000000000000815260040161056790611f95565b60405180910390fd5b600260009054906101000a900473ffffffffffffffffffffffffffffffffffffffff1673ffffffffffffffffffffffffffffffffffffffff166323b872dd3330846040518463ffffffff167c01000000000000000000000000000000000000000000000000000000000281526004016105eb93929190611db5565b602060405180830381600087803b15801561060557600080fd5b505af1158015610619573d6000803e3d6000fd5b505050506040513d601f19601f8201168201806040525061063d91908101906117e8565b151561067e576040517f08c379a000000000000000000000000000000000000000000000000000000000815260040161067590611f75565b60405180910390fd5b61069460016005546111d090919063ffffffff16565b600581905550816bffffffffffffffffffffffff19163373ffffffffffffffffffffffffffffffffffffffff166005547ff9a8fa0e73eec86231d6ff8f393ead9e40b7202311ea9a16ff0689cadd51702d846040516106f39190612075565b60405180910390a45050565b60065481565b60018054600181600116156101000203166002900480601f01602080910402602001604051908101604052809291908181526020018280546001816001161561010002031660029004801561079b5780601f106107705761010080835404028352916020019161079b565b820191906000526020600020905b81548152906001019060200180831161077e57829003601f168201915b505050505081565b60008083511115156107ea576040517f08c379a00000000000000000000000000000000000000000000000000000000081526004016107e190611ef5565b60405180910390fd5b600073ffffffffffffffffffffffffffffffffffffffff168273ffffffffffffffffffffffffffffffffffffffff161415151561085c576040517f08c379a000000000000000000000000000000000000000000000000000000000815260040161085390611ff5565b60405180910390fd5b84600060146101000a81548163ffffffff021916908363ffffffff16021790555083600060186101000a81548167ffffffffffffffff021916908367ffffffffffffffff16021790555082600190805190602001906108bc9291906113d9565b5081600260006101000a81548173ffffffffffffffffffffffffffffffffffffffff021916908373ffffffffffffffffffffffffffffffffffffffff1602179055506000600581905550600090505b60065481111515610944576007600082815260200190815260200160002060006101000a81549060ff021916905580600101905061090b565b60006006819055505050505050565b600360009054906101000a900473ffffffffffffffffffffffffffffffffffffffff1681565b610981610a74565b151561098c57600080fd5b600073ffffffffffffffffffffffffffffffffffffffff166000809054906101000a900473ffffffffffffffffffffffffffffffffffffffff1673ffffffffffffffffffffffffffffffffffffffff167f8be0079c531659141344cd1fd0a4f28419497f9722a3daafe3b4186f6b6457e060405160405180910390a360008060006101000a81548173ffffffffffffffffffffffffffffffffffffffff021916908373ffffffffffffffffffffffffffffffffffffffff160217905550565b60008060009054906101000a900473ffffffffffffffffffffffffffffffffffffffff16905090565b60008060009054906101000a900473ffffffffffffffffffffffffffffffffffffffff1673ffffffffffffffffffffffffffffffffffffffff163373ffffffffffffffffffffffffffffffffffffffff1614905090565b60076020528060005260406000206000915054906101000a900460ff1681565b610af3611459565b600460009054906101000a900473ffffffffffffffffffffffffffffffffffffffff1673ffffffffffffffffffffffffffffffffffffffff166379509d7984846040518363ffffffff167c0100000000000000000000000000000000000000000000000000000000028152600401610b6c929190611e4b565b600060405180830381600087803b158015610b8657600080fd5b505af1158015610b9a573d6000803e3d6000fd5b505050506040513d6000823e3d601f19601f82011682018060405250610bc391908101906118e2565b9050600073ffffffffffffffffffffffffffffffffffffffff16816080015173ffffffffffffffffffffffffffffffffffffffff1614151515610c3b576040517f08c379a0000000000000000000000000000000000000000000000000000000008152600401610c3290611fd5565b60405180910390fd5b60008160a00151111515610c84576040517f08c379a0000000000000000000000000000000000000000000000000000000008152600401610c7b90611f95565b60405180910390fd5b806000015163ffffffff16600060149054906101000a900463ffffffff1663ffffffff16141515610cea576040517f08c379a0000000000000000000000000000000000000000000000000000000008152600401610ce190612015565b60405180910390fd5b806020015167ffffffffffffffff16600060189054906101000a900467ffffffffffffffff1667ffffffffffffffff16141515610d5c576040517f08c379a0000000000000000000000000000000000000000000000000000000008152600401610d5390611f35565b60405180910390fd5b610e0d816040015160018054600181600116156101000203166002900480601f016020809104026020016040519081016040528092919081815260200182805460018160011615610100020316600290048015610dfa5780601f10610dcf57610100808354040283529160200191610dfa565b820191906000526020600020905b815481529060010190602001808311610ddd57829003601f168201915b50505050506111f190919063ffffffff16565b1515610e4e576040517f08c379a0000000000000000000000000000000000000000000000000000000008152600401610e4590612035565b60405180910390fd5b600760008260c00151815260200190815260200160002060009054906101000a900460ff16151515610eb5576040517f08c379a0000000000000000000000000000000000000000000000000000000008152600401610eac90611fb5565b60405180910390fd5b6001600760008360c00151815260200190815260200160002060006101000a81548160ff0219169083151502179055506006548160c001511115610eff578060c001516006819055505b600260009054906101000a900473ffffffffffffffffffffffffffffffffffffffff1673ffffffffffffffffffffffffffffffffffffffff1663a9059cbb82608001518360a001516040518363ffffffff167c0100000000000000000000000000000000000000000000000000000000028152600401610f80929190611dec565b602060405180830381600087803b158015610f9a57600080fd5b505af1158015610fae573d6000803e3d6000fd5b505050506040513d601f19601f82011682018060405250610fd291908101906117e8565b1515611013576040517f08c379a000000000000000000000000000000000000000000000000000000000815260040161100a90612055565b60405180910390fd5b806080015173ffffffffffffffffffffffffffffffffffffffff1681606001516bffffffffffffffffffffffff19168260c001517fffc9b619903b6ea069a03bcccf149c0969d27e0cb01d18f626b8a04350c371a78460a0015160405161107a9190612075565b60405180910390a4505050565b61108f610a74565b151561109a57600080fd5b600073ffffffffffffffffffffffffffffffffffffffff168173ffffffffffffffffffffffffffffffffffffffff161415151561110c576040517f08c379a000000000000000000000000000000000000000000000000000000000815260040161110390611f55565b60405180910390fd5b80600460006101000a81548173ffffffffffffffffffffffffffffffffffffffff021916908373ffffffffffffffffffffffffffffffffffffffff16021790555050565b600060189054906101000a900467ffffffffffffffff1681565b60055481565b611178610a74565b151561118357600080fd5b61118c816112df565b50565b600060149054906101000a900463ffffffff1681565b600260009054906101000a900473ffffffffffffffffffffffffffffffffffffffff1681565b600181565b60008082840190508381101515156111e757600080fd5b8091505092915050565b60008151835114151561120757600090506112d9565b816040518082805190602001908083835b60208310151561123d5780518252602082019150602081019050602083039250611218565b6001836020036101000a038019825116818451168082178552505050505050905001915050604051809103902060001916836040518082805190602001908083835b6020831015156112a4578051825260208201915060208101905060208303925061127f565b6001836020036101000a0380198251168184511680821785525050505050509050019150506040518091039020600019161490505b92915050565b600073ffffffffffffffffffffffffffffffffffffffff168173ffffffffffffffffffffffffffffffffffffffff161415151561131b57600080fd5b8073ffffffffffffffffffffffffffffffffffffffff166000809054906101000a900473ffffffffffffffffffffffffffffffffffffffff1673ffffffffffffffffffffffffffffffffffffffff167f8be0079c531659141344cd1fd0a4f28419497f9722a3daafe3b4186f6b6457e060405160405180910390a3806000806101000a81548173ffffffffffffffffffffffffffffffffffffffff021916908373ffffffffffffffffffffffffffffffffffffffff16021790555050565b828054600181600116156101000203166002900490600052602060002090601f016020900481019282601f1061141a57805160ff1916838001178555611448565b82800160010185558215611448579182015b8281111561144757825182559160200191906001019061142c565b5b50905061145591906114cc565b5090565b60e060405190810160405280600063ffffffff168152602001600067ffffffffffffffff1681526020016060815260200160006bffffffffffffffffffffffff19168152602001600073ffffffffffffffffffffffffffffffffffffffff16815260200160008152602001600081525090565b6114ee91905b808211156114ea5760008160009055506001016114d2565b5090565b90565b60006114fd8235612213565b905092915050565b60006115118251612213565b905092915050565b60006115258251612233565b905092915050565b6000611539823561223f565b905092915050565b600061154d825161223f565b905092915050565b600082601f830112151561156857600080fd5b813561157b611576826120f3565b6120c6565b9150808252602083016020830185838301111561159757600080fd5b6115a28382846122f3565b50505092915050565b60006115b7823561226b565b905092915050565b60006115cb823561227d565b905092915050565b600082601f83011215156115e657600080fd5b81516115f96115f48261211f565b6120c6565b9150808252602083016020830185838301111561161557600080fd5b611620838284612302565b50505092915050565b600082601f830112151561163c57600080fd5b813561164f61164a8261214b565b6120c6565b9150808252602083016020830185838301111561166b57600080fd5b6116768382846122f3565b50505092915050565b600060e0828403121561169157600080fd5b61169b60e06120c6565b905060006116ab84828501611783565b60008301525060206116bf848285016117ab565b602083015250604082015167ffffffffffffffff8111156116df57600080fd5b6116eb848285016115d3565b60408301525060606116ff84828501611541565b606083015250608061171384828501611505565b60808301525060a06117278482850161175b565b60a08301525060c061173b8482850161175b565b60c08301525092915050565b6000611753823561228f565b905092915050565b6000611767825161228f565b905092915050565b600061177b8235612299565b905092915050565b600061178f8251612299565b905092915050565b60006117a382356122a9565b905092915050565b60006117b782516122a9565b905092915050565b6000602082840312156117d157600080fd5b60006117df848285016114f1565b91505092915050565b6000602082840312156117fa57600080fd5b600061180884828501611519565b91505092915050565b6000806040838503121561182457600080fd5b60006118328582860161152d565b925050602061184385828601611747565b9150509250929050565b6000806040838503121561186057600080fd5b600083013567ffffffffffffffff81111561187a57600080fd5b61188685828601611555565b925050602083013567ffffffffffffffff8111156118a357600080fd5b6118af85828601611555565b9150509250929050565b6000602082840312156118cb57600080fd5b60006118d9848285016115ab565b91505092915050565b6000602082840312156118f457600080fd5b600082015167ffffffffffffffff81111561190e57600080fd5b61191a8482850161167f565b91505092915050565b60006020828403121561193557600080fd5b600061194384828501611747565b91505092915050565b6000806000806080858703121561196257600080fd5b60006119708782880161176f565b945050602061198187828801611797565b935050604085013567ffffffffffffffff81111561199e57600080fd5b6119aa87828801611629565b92505060606119bb878288016115bf565b91505092959194509250565b6119d08161218d565b82525050565b6119df816121ad565b82525050565b6119ee816121b9565b82525050565b60006119ff82612177565b808452611a13816020860160208601612302565b611a1c81612335565b602085010191505092915050565b611a33816122bd565b82525050565b611a42816122cf565b82525050565b611a51816122e1565b82525050565b6000611a6282612182565b808452611a76816020860160208601612302565b611a7f81612335565b602085010191505092915050565b6000602982527f4f7262732041534220636f6e7472616374206e616d65206d757374206e6f742060208301527f626520656d7074792100000000000000000000000000000000000000000000006040830152606082019050919050565b6000601882527f4f726273206164647265737320697320696e76616c69642100000000000000006020830152604082019050919050565b6000601b82527f496e636f7272656374207669727475616c20636861696e2049442100000000006020830152604082019050919050565b6000601782527f5665726966696572206d757374206e6f742062652030210000000000000000006020830152604082019050919050565b6000601782527f496e73756666696369656e7420616c6c6f77616e6365210000000000000000006020830152604082019050919050565b6000601d82527f56616c7565206d7573742062652067726561746572207468616e2030210000006020830152604082019050919050565b6000601782527f545549442077617320616c7265616479207370656e74210000000000000000006020830152604082019050919050565b6000601f82527f44657374696e6174696f6e20616464726573732063616e2774206265203021006020830152604082019050919050565b6000601482527f546f6b656e206d757374206e6f742062652030210000000000000000000000006020830152604082019050919050565b6000601782527f496e636f7272656374206e6574776f726b2074797065210000000000000000006020830152604082019050919050565b6000602182527f496e636f7272656374204f7262732041534220636f6e7472616374206e616d6560208301527f21000000000000000000000000000000000000000000000000000000000000006040830152606082019050919050565b6000601382527f496e73756666696369656e742066756e647321000000000000000000000000006020830152604082019050919050565b611d76816121e5565b82525050565b611d85816121ef565b82525050565b611d94816121ff565b82525050565b6000602082019050611daf60008301846119c7565b92915050565b6000606082019050611dca60008301866119c7565b611dd760208301856119c7565b611de46040830184611d6d565b949350505050565b6000604082019050611e0160008301856119c7565b611e0e6020830184611d6d565b9392505050565b6000602082019050611e2a60008301846119d6565b92915050565b6000602082019050611e4560008301846119e5565b92915050565b60006040820190508181036000830152611e6581856119f4565b90508181036020830152611e7981846119f4565b90509392505050565b6000602082019050611e976000830184611a2a565b92915050565b6000602082019050611eb26000830184611a39565b92915050565b6000602082019050611ecd6000830184611a48565b92915050565b60006020820190508181036000830152611eed8184611a57565b905092915050565b60006020820190508181036000830152611f0e81611a8d565b9050919050565b60006020820190508181036000830152611f2e81611aea565b9050919050565b60006020820190508181036000830152611f4e81611b21565b9050919050565b60006020820190508181036000830152611f6e81611b58565b9050919050565b60006020820190508181036000830152611f8e81611b8f565b9050919050565b60006020820190508181036000830152611fae81611bc6565b9050919050565b60006020820190508181036000830152611fce81611bfd565b9050919050565b60006020820190508181036000830152611fee81611c34565b9050919050565b6000602082019050818103600083015261200e81611c6b565b9050919050565b6000602082019050818103600083015261202e81611ca2565b9050919050565b6000602082019050818103600083015261204e81611cd9565b9050919050565b6000602082019050818103600083015261206e81611d36565b9050919050565b600060208201905061208a6000830184611d6d565b92915050565b60006020820190506120a56000830184611d7c565b92915050565b60006020820190506120c06000830184611d8b565b92915050565b6000604051905081810181811067ffffffffffffffff821117156120e957600080fd5b8060405250919050565b600067ffffffffffffffff82111561210a57600080fd5b601f19601f8301169050602081019050919050565b600067ffffffffffffffff82111561213657600080fd5b601f19601f8301169050602081019050919050565b600067ffffffffffffffff82111561216257600080fd5b601f19601f8301169050602081019050919050565b600081519050919050565b600081519050919050565b600073ffffffffffffffffffffffffffffffffffffffff82169050919050565b60008115159050919050565b60007fffffffffffffffffffffffffffffffffffffffff00000000000000000000000082169050919050565b6000819050919050565b600063ffffffff82169050919050565b600067ffffffffffffffff82169050919050565b600073ffffffffffffffffffffffffffffffffffffffff82169050919050565b60008115159050919050565b60007fffffffffffffffffffffffffffffffffffffffff00000000000000000000000082169050919050565b60006122768261218d565b9050919050565b60006122888261218d565b9050919050565b6000819050919050565b600063ffffffff82169050919050565b600067ffffffffffffffff82169050919050565b60006122c88261218d565b9050919050565b60006122da8261218d565b9050919050565b60006122ec8261218d565b9050919050565b82818337600083830152505050565b60005b83811015612320578082015181840152602081019050612305565b8381111561232f576000848401525b50505050565b6000601f19601f83011690509190505600a265627a7a723058201ea983c59a723be3ec9d0b38a2018093e5028ed922aa8afea14d860ff8e0b2156c6578706572696d656e74616cf50037",
  "compiler": {
    "name": "solc",
    "version": "0.4.24+commit.e67f0147.Emscripten.clang"
  },
  "schemaVersion": "2.0.1",
  "updatedAt": "2019-01-08T13:54:46.263Z"
}