{
  "contractName": "DateTime",
  "abi": [
    {
      "constant": true,
      "inputs": [],
      "name": "ORIGIN_YEAR",
      "outputs": [
        {
          "name": "",
          "type": "uint16"
        }
      ],
      "payable": false,
      "stateMutability": "view",
      "type": "function"
    },
    {
      "constant": true,
      "inputs": [],
      "name": "SECONDS_IN_LEAP_YEAR",
      "outputs": [
        {
          "name": "",
          "type": "uint256"
        }
      ],
      "payable": false,
      "stateMutability": "view",
      "type": "function"
    },
    {
      "constant": true,
      "inputs": [],
      "name": "MINUTES_IN_HOUR",
      "outputs": [
        {
          "name": "",
          "type": "uint256"
        }
      ],
      "payable": false,
      "stateMutability": "view",
      "type": "function"
    },
    {
      "constant": true,
      "inputs": [],
      "name": "SECONDS_IN_YEAR",
      "outputs": [
        {
          "name": "",
          "type": "uint256"
        }
      ],
      "payable": false,
      "stateMutability": "view",
      "type": "function"
    },
    {
      "constant": true,
      "inputs": [],
      "name": "SECONDS_IN_DAY",
      "outputs": [
        {
          "name": "",
          "type": "uint256"
        }
      ],
      "payable": false,
      "stateMutability": "view",
      "type": "function"
    },
    {
      "constant": true,
      "inputs": [],
      "name": "DAYS_IN_WEEK",
      "outputs": [
        {
          "name": "",
          "type": "uint256"
        }
      ],
      "payable": false,
      "stateMutability": "view",
      "type": "function"
    },
    {
      "constant": true,
      "inputs": [],
      "name": "SECONDS_IN_HOUR",
      "outputs": [
        {
          "name": "",
          "type": "uint256"
        }
      ],
      "payable": false,
      "stateMutability": "view",
      "type": "function"
    },
    {
      "constant": true,
      "inputs": [],
      "name": "HOURS_IN_DAY",
      "outputs": [
        {
          "name": "",
          "type": "uint256"
        }
      ],
      "payable": false,
      "stateMutability": "view",
      "type": "function"
    },
    {
      "constant": true,
      "inputs": [],
      "name": "SECONDS_IN_MINUTE",
      "outputs": [
        {
          "name": "",
          "type": "uint256"
        }
      ],
      "payable": false,
      "stateMutability": "view",
      "type": "function"
    },
    {
      "constant": true,
      "inputs": [
        {
          "name": "_year",
          "type": "uint16"
        }
      ],
      "name": "isLeapYear",
      "outputs": [
        {
          "name": "",
          "type": "bool"
        }
      ],
      "payable": false,
      "stateMutability": "pure",
      "type": "function"
    },
    {
      "constant": true,
      "inputs": [
        {
          "name": "_year",
          "type": "uint16"
        }
      ],
      "name": "leapYearsBefore",
      "outputs": [
        {
          "name": "",
          "type": "uint16"
        }
      ],
      "payable": false,
      "stateMutability": "pure",
      "type": "function"
    },
    {
      "constant": true,
      "inputs": [
        {
          "name": "_year",
          "type": "uint16"
        },
        {
          "name": "_month",
          "type": "uint8"
        }
      ],
      "name": "getDaysInMonth",
      "outputs": [
        {
          "name": "",
          "type": "uint8"
        }
      ],
      "payable": false,
      "stateMutability": "pure",
      "type": "function"
    },
    {
      "constant": true,
      "inputs": [
        {
          "name": "_timestamp",
          "type": "uint256"
        }
      ],
      "name": "getYear",
      "outputs": [
        {
          "name": "year",
          "type": "uint16"
        }
      ],
      "payable": false,
      "stateMutability": "pure",
      "type": "function"
    },
    {
      "constant": true,
      "inputs": [
        {
          "name": "_timestamp",
          "type": "uint256"
        }
      ],
      "name": "getMonth",
      "outputs": [
        {
          "name": "",
          "type": "uint8"
        }
      ],
      "payable": false,
      "stateMutability": "pure",
      "type": "function"
    },
    {
      "constant": true,
      "inputs": [
        {
          "name": "_timestamp",
          "type": "uint256"
        }
      ],
      "name": "getDay",
      "outputs": [
        {
          "name": "",
          "type": "uint8"
        }
      ],
      "payable": false,
      "stateMutability": "pure",
      "type": "function"
    },
    {
      "constant": true,
      "inputs": [
        {
          "name": "_timestamp",
          "type": "uint256"
        }
      ],
      "name": "getHour",
      "outputs": [
        {
          "name": "",
          "type": "uint8"
        }
      ],
      "payable": false,
      "stateMutability": "pure",
      "type": "function"
    },
    {
      "constant": true,
      "inputs": [
        {
          "name": "_timestamp",
          "type": "uint256"
        }
      ],
      "name": "getMinute",
      "outputs": [
        {
          "name": "",
          "type": "uint8"
        }
      ],
      "payable": false,
      "stateMutability": "pure",
      "type": "function"
    },
    {
      "constant": true,
      "inputs": [
        {
          "name": "_timestamp",
          "type": "uint256"
        }
      ],
      "name": "getSecond",
      "outputs": [
        {
          "name": "",
          "type": "uint8"
        }
      ],
      "payable": false,
      "stateMutability": "pure",
      "type": "function"
    },
    {
      "constant": true,
      "inputs": [
        {
          "name": "_timestamp",
          "type": "uint256"
        }
      ],
      "name": "getWeekday",
      "outputs": [
        {
          "name": "",
          "type": "uint8"
        }
      ],
      "payable": false,
      "stateMutability": "pure",
      "type": "function"
    },
    {
      "constant": true,
      "inputs": [
        {
          "name": "_year",
          "type": "uint16"
        },
        {
          "name": "_month",
          "type": "uint8"
        }
      ],
      "name": "getBeginningOfMonth",
      "outputs": [
        {
          "name": "",
          "type": "uint256"
        }
      ],
      "payable": false,
      "stateMutability": "pure",
      "type": "function"
    },
    {
      "constant": true,
      "inputs": [
        {
          "name": "_year",
          "type": "uint16"
        },
        {
          "name": "_month",
          "type": "uint8"
        }
      ],
      "name": "getNextMonth",
      "outputs": [
        {
          "name": "year",
          "type": "uint16"
        },
        {
          "name": "month",
          "type": "uint8"
        }
      ],
      "payable": false,
      "stateMutability": "pure",
      "type": "function"
    },
    {
      "constant": true,
      "inputs": [
        {
          "name": "_year",
          "type": "uint16"
        },
        {
          "name": "_month",
          "type": "uint8"
        },
        {
          "name": "_day",
          "type": "uint8"
        }
      ],
      "name": "toTimestamp",
      "outputs": [
        {
          "name": "",
          "type": "uint256"
        }
      ],
      "payable": false,
      "stateMutability": "pure",
      "type": "function"
    },
    {
      "constant": true,
      "inputs": [
        {
          "name": "_year",
          "type": "uint16"
        },
        {
          "name": "_month",
          "type": "uint8"
        },
        {
          "name": "_day",
          "type": "uint8"
        },
        {
          "name": "_hour",
          "type": "uint8"
        },
        {
          "name": "_minutes",
          "type": "uint8"
        },
        {
          "name": "_seconds",
          "type": "uint8"
        }
      ],
      "name": "toTimestamp",
      "outputs": [
        {
          "name": "timestamp",
          "type": "uint256"
        }
      ],
      "payable": false,
      "stateMutability": "pure",
      "type": "function"
    },
    {
      "constant": true,
      "inputs": [
        {
          "name": "_year",
          "type": "uint16"
        },
        {
          "name": "_month",
          "type": "uint8"
        }
      ],
      "name": "toTimestamp",
      "outputs": [
        {
          "name": "",
          "type": "uint256"
        }
      ],
      "payable": false,
      "stateMutability": "pure",
      "type": "function"
    }
  ],
  "bytecode": "0x61129b610030600b82828239805160001a6073146000811461002057610022565bfe5b5030600052607381538281f3007300000000000000000000000000000000000000003014608060405260043610610155576000357c0100000000000000000000000000000000000000000000000000000000900463ffffffff168063027a15d01461015a5780632fdd854d146101b457806339734c02146101da5780633e239e1a146101f85780633ff6d539146102325780634ac1ad78146102505780635dcc93911461028a57806361a52a36146102a857806361ae1544146102c657806365c72840146102e45780638793f2c71461031e57806387d689f61461033c5780638aa001fc1461037c5780638c8d98a0146103b65780639054bdec1461040857806392d6631314610481578063a324ad24146104bd578063a6f0e577146104f7578063aef47ba914610533578063c489721b14610578578063f237455114610596578063f6cc72af146105b4578063fa65957d146105f9578063fa93f88314610644575b600080fd5b610189600480360381019080803561ffff169060200190929190803560ff16906020019092919050505061067e565b604051808361ffff1661ffff1681526020018260ff1660ff1681526020019250505060405180910390f35b6101bc6106d4565b604051808261ffff1661ffff16815260200191505060405180910390f35b6101e26106da565b6040518082815260200191505060405180910390f35b610216600480360381019080803590602001909291905050506106e2565b604051808260ff1660ff16815260200191505060405180910390f35b61023a61070c565b6040518082815260200191505060405180910390f35b61026e60048036038101908080359060200190929190505050610711565b604051808260ff1660ff16815260200191505060405180910390f35b61029261074f565b6040518082815260200191505060405180910390f35b6102b0610757565b6040518082815260200191505060405180910390f35b6102ce61075e565b6040518082815260200191505060405180910390f35b61030260048036038101908080359060200190929190505050610763565b604051808260ff1660ff16815260200191505060405180910390f35b610326610779565b6040518082815260200191505060405180910390f35b61035e600480360381019080803561ffff16906020019092919050505061077f565b604051808261ffff1661ffff16815260200191505060405180910390f35b61039a6004803603810190808035906020019092919050505061080d565b604051808260ff1660ff16815260200191505060405180910390f35b6103f2600480360381019080803561ffff169060200190929190803560ff169060200190929190803560ff169060200190929190505050610823565b6040518082815260200191505060405180910390f35b61046b600480360381019080803561ffff169060200190929190803560ff169060200190929190803560ff169060200190929190803560ff169060200190929190803560ff169060200190929190803560ff16906020019092919050505061083e565b6040518082815260200191505060405180910390f35b61049f60048036038101908080359060200190929190505050610bc1565b604051808261ffff1661ffff16815260200191505060405180910390f35b6104db60048036038101908080359060200190929190505050610d3e565b604051808260ff1660ff16815260200191505060405180910390f35b610519600480360381019080803561ffff169060200190929190505050610d54565b604051808215151515815260200191505060405180910390f35b610562600480360381019080803561ffff169060200190929190803560ff169060200190929190505050610dd5565b6040518082815260200191505060405180910390f35b610580610def565b6040518082815260200191505060405180910390f35b61059e610df4565b6040518082815260200191505060405180910390f35b6105e3600480360381019080803561ffff169060200190929190803560ff169060200190929190505050610df9565b6040518082815260200191505060405180910390f35b610628600480360381019080803561ffff169060200190929190803560ff169060200190929190505050610e0f565b604051808260ff1660ff16815260200191505060405180910390f35b61066260048036038101908080359060200190929190505050610edb565b604051808260ff1660ff16815260200191505060405180910390f35b600080600c8360ff1614156106b0576106a560018561ffff16610f0490919063ffffffff16565b9150600190506106cd565b8391506106ca60018460ff16610f0490919063ffffffff16565b90505b9250929050565b6107b281565b6301e2850081565b600060186106fb610e1084610f2590919063ffffffff16565b81151561070457fe5b069050919050565b603c81565b6000600761073e60046107306201518086610f2590919063ffffffff16565b610f0490919063ffffffff16565b81151561074757fe5b069050919050565b6301e1338081565b6201518081565b600781565b600061076e82610f4f565b604001519050919050565b610e1081565b600061079960018361ffff1661119890919063ffffffff16565b91506108066107b76101908461ffff16610f2590919063ffffffff16565b6107f86107d260648661ffff16610f2590919063ffffffff16565b6107ea60048761ffff16610f2590919063ffffffff16565b61119890919063ffffffff16565b610f0490919063ffffffff16565b9050919050565b6000603c8281151561081b57fe5b069050919050565b6000610835848484600080600061083e565b90509392505050565b6000806108496111f7565b6107b291505b8861ffff168261ffff1610156108b05761086882610d54565b1561088b576108846301e2850084610f0490919063ffffffff16565b92506108a5565b6108a26301e1338084610f0490919063ffffffff16565b92505b81600101915061084f565b601f816000600c811015156108c157fe5b602002019060ff16908160ff16815250506108db89610d54565b1561090757601d816001600c811015156108f157fe5b602002019060ff16908160ff168152505061092a565b601c816001600c8110151561091857fe5b602002019060ff16908160ff16815250505b601f816002600c8110151561093b57fe5b602002019060ff16908160ff1681525050601e816003600c8110151561095d57fe5b602002019060ff16908160ff1681525050601f816004600c8110151561097f57fe5b602002019060ff16908160ff1681525050601e816005600c811015156109a157fe5b602002019060ff16908160ff1681525050601f816006600c811015156109c357fe5b602002019060ff16908160ff1681525050601f816007600c811015156109e557fe5b602002019060ff16908160ff1681525050601e816008600c81101515610a0757fe5b602002019060ff16908160ff1681525050601f816009600c81101515610a2957fe5b602002019060ff16908160ff1681525050601e81600a600c81101515610a4b57fe5b602002019060ff16908160ff1681525050601f81600b600c81101515610a6d57fe5b602002019060ff16908160ff1681525050600191505b8760ff168261ffff161015610af357610ae6610ad782610ab160018661ffff1661119890919063ffffffff16565b600c81101515610abd57fe5b602002015160ff16620151806111b990919063ffffffff16565b84610f0490919063ffffffff16565b9250816001019150610a83565b610b44610b3560008960ff1614610b2057610b1b60018a60ff1661119890919063ffffffff16565b610b23565b60005b620151806111b990919063ffffffff16565b84610f0490919063ffffffff16565b9250610b70610b618760ff16610e106111b990919063ffffffff16565b84610f0490919063ffffffff16565b9250610b9b610b8c8660ff16603c6111b990919063ffffffff16565b84610f0490919063ffffffff16565b9250610bb38460ff1684610f0490919063ffffffff16565b925050509695505050505050565b6000806000610bf5610be06301e1338086610f2590919063ffffffff16565b6107b261ffff16610f0490919063ffffffff16565b9250610c24610c056107b261077f565b61ffff16610c128561077f565b61ffff1661119890919063ffffffff16565b9050610c53610c448261ffff166301e285006111b990919063ffffffff16565b83610f0490919063ffffffff16565b9150610cb0610ca1610c8e8361ffff16610c806107b261ffff168861ffff1661119890919063ffffffff16565b61119890919063ffffffff16565b6301e133806111b990919063ffffffff16565b83610f0490919063ffffffff16565b91505b83821115610d3757610cdb610cd660018561ffff1661119890919063ffffffff16565b610d54565b15610cfe57610cf76301e285008361119890919063ffffffff16565b9150610d18565b610d156301e133808361119890919063ffffffff16565b91505b610d3060018461ffff1661119890919063ffffffff16565b9250610cb3565b5050919050565b6000610d4982610f4f565b602001519050919050565b60008060048361ffff16811515610d6757fe5b0661ffff16141515610d7c5760009050610dd0565b600060648361ffff16811515610d8e57fe5b0661ffff16141515610da35760019050610dd0565b60006101908361ffff16811515610db657fe5b0661ffff16141515610dcb5760009050610dd0565b600190505b919050565b6000610de7838360008060008061083e565b905092915050565b601881565b603c81565b6000610e0783836001610823565b905092915050565b600060018260ff161480610e26575060038260ff16145b80610e34575060058260ff16145b80610e42575060078260ff16145b80610e50575060088260ff16145b80610e5e5750600a8260ff16145b80610e6c5750600c8260ff16145b15610e7a57601f9050610ed5565b60048260ff161480610e8f575060068260ff16145b80610e9d575060098260ff16145b80610eab5750600b8260ff16145b15610eb957601e9050610ed5565b610ec283610d54565b15610ed057601d9050610ed5565b601c90505b92915050565b6000603c610ef3603c84610f2590919063ffffffff16565b811515610efc57fe5b069050919050565b6000808284019050838110151515610f1b57600080fd5b8091505092915050565b600080600083111515610f3757600080fd5b8284811515610f4257fe5b0490508091505092915050565b610f5761121b565b600080600080610f6686610bc1565b856000019061ffff16908161ffff1681525050610f846107b261077f565b610f91866000015161077f565b0361ffff169250610fc1610fb2846301e285006111b990919063ffffffff16565b85610f0490919063ffffffff16565b935061101e61100f610ffc85610fee6107b261ffff168a6000015161ffff1661119890919063ffffffff16565b61119890919063ffffffff16565b6301e133806111b990919063ffffffff16565b85610f0490919063ffffffff16565b9350600191505b600c8260ff161115156110ab57611058611043866000015184610e0f565b60ff16620151806111b990919063ffffffff16565b90508561106e8583610f0490919063ffffffff16565b111561108b5781856020019060ff16908160ff16815250506110ab565b61109e8185610f0490919063ffffffff16565b9350816001019150611025565b600191505b6110c285600001518660200151610e0f565b60ff168260ff1611151561112757856110e78562015180610f0490919063ffffffff16565b11156111045781856040019060ff16908160ff1681525050611127565b61111a6201518085610f0490919063ffffffff16565b93508160010191506110b0565b611130866106e2565b856060019060ff16908160ff168152505061114a86610edb565b856080019060ff16908160ff16815250506111648661080d565b8560a0019060ff16908160ff168152505061117e86610711565b8560c0019060ff16908160ff168152505050505050919050565b6000808383111515156111aa57600080fd5b82840390508091505092915050565b60008060008414156111ce57600091506111f0565b82840290508284828115156111df57fe5b041415156111ec57600080fd5b8091505b5092915050565b61018060405190810160405280600c90602082028038833980820191505090505090565b60e060405190810160405280600061ffff168152602001600060ff168152602001600060ff168152602001600060ff168152602001600060ff168152602001600060ff168152602001600060ff16815250905600a165627a7a723058203f6df8010df77d1604bcb58ca9c28f237a8b41260e96e28a8fae90774fc2db900029",
  "compiler": {
    "name": "solc",
    "version": "0.4.24+commit.e67f0147.Emscripten.clang"
  },
  "schemaVersion": "2.0.1",
  "updatedAt": "2019-03-14T08:11:29.457Z"
}